{"abi":[{"inputs":[],"stateMutability":"nonpayable","type":"constructor"},{"inputs":[{"internalType":"uint256[]","name":"input","type":"uint256[]"},{"components":[{"components":[{"internalType":"uint256","name":"X","type":"uint256"},{"internalType":"uint256","name":"Y","type":"uint256"}],"internalType":"struct Pairing.G1Point","name":"A","type":"tuple"},{"components":[{"internalType":"uint256[2]","name":"X","type":"uint256[2]"},{"internalType":"uint256[2]","name":"Y","type":"uint256[2]"}],"internalType":"struct Pairing.G2Point","name":"B","type":"tuple"},{"components":[{"internalType":"uint256","name":"X","type":"uint256"},{"internalType":"uint256","name":"Y","type":"uint256"}],"internalType":"struct Pairing.G1Point","name":"C","type":"tuple"}],"internalType":"struct Verifier.Proof","name":"proof","type":"tuple"},{"components":[{"components":[{"internalType":"uint256","name":"X","type":"uint256"},{"internalType":"uint256","name":"Y","type":"uint256"}],"internalType":"struct Pairing.G1Point","name":"alfa1","type":"tuple"},{"components":[{"internalType":"uint256[2]","name":"X","type":"uint256[2]"},{"internalType":"uint256[2]","name":"Y","type":"uint256[2]"}],"internalType":"struct Pairing.G2Point","name":"beta2","type":"tuple"},{"components":[{"internalType":"uint256[2]","name":"X","type":"uint256[2]"},{"internalType":"uint256[2]","name":"Y","type":"uint256[2]"}],"internalType":"struct Pairing.G2Point","name":"gamma2","type":"tuple"},{"components":[{"internalType":"uint256[2]","name":"X","type":"uint256[2]"},{"internalType":"uint256[2]","name":"Y","type":"uint256[2]"}],"internalType":"struct Pairing.G2Point","name":"delta2","type":"tuple"},{"components":[{"internalType":"uint256","name":"X","type":"uint256"},{"internalType":"uint256","name":"Y","type":"uint256"}],"internalType":"struct Pairing.G1Point[]","name":"IC","type":"tuple[]"}],"internalType":"struct Verifier.VerifyingKey","name":"vk","type":"tuple"}],"name":"verify","outputs":[{"internalType":"bool","name":"","type":"bool"}],"stateMutability":"view","type":"function"}],"bytecode":{"object":"0x608060405234801561001057600080fd5b50610c99806100206000396000f3fe608060405234801561001057600080fd5b506004361061002b5760003560e01c80639416c1ee14610030575b600080fd5b61004361003e366004610a2f565b610059565b6040516100509190610afc565b60405180910390f35b600080610067858585610085565b90508061007857600191505061007e565b60009150505b9392505050565b60808101515183516000917f30644e72e131a029b85045b68181585d2833e84879b9709143e1f593f000000191600101146100db5760405162461bcd60e51b81526004016100d290610b07565b60405180910390fd5b604080518082019091526000808252602082018190525b8651811015610177578287828151811061010857fe5b60200260200101511061012d5760405162461bcd60e51b81526004016100d290610b5f565b61016d826101688760800151846001018151811061014757fe5b60200260200101518a858151811061015b57fe5b60200260200101516101eb565b610256565b91506001016100f2565b5061019a81856080015160008151811061018d57fe5b6020026020010151610256565b90506101d06101ac86600001516102bd565b8660200151866000015187602001518589604001518b604001518b60600151610349565b6101df5760019250505061007e565b50600095945050505050565b6101f36106dc565b6101fb6106f6565b835181526020808501519082015260408101839052600060608360808460076107d05a03fa905080801561022e57610230565bfe5b508061024e5760405162461bcd60e51b81526004016100d290610b33565b505092915050565b61025e6106dc565b610266610714565b8351815260208085015181830152835160408301528301516060808301919091526000908360c08460066107d05a03fa905080801561022e57508061024e5760405162461bcd60e51b81526004016100d290610bc6565b6102c56106dc565b81517f30644e72e131a029b85045b68181585d97816a916871ca8d3c208c16d87cfd47901580156102f857506020830151155b156103185750506040805180820190915260008082526020820152610344565b6040518060400160405280846000015181526020018285602001518161033a57fe5b0683038152509150505b919050565b60408051600480825260a08201909252600091829190816020015b61036c6106dc565b81526020019060019003908161036457505060408051600480825260a0820190925291925060009190602082015b6103a2610732565b81526020019060019003908161039a5790505090508a826000815181106103c557fe5b602002602001018190525088826001815181106103de57fe5b602002602001018190525086826002815181106103f757fe5b6020026020010181905250848260038151811061041057fe5b6020026020010181905250898160008151811061042957fe5b6020026020010181905250878160018151811061044257fe5b6020026020010181905250858160028151811061045b57fe5b6020026020010181905250838160038151811061047457fe5b60200260200101819052506104898282610498565b9b9a5050505050505050505050565b600081518351146104bb5760405162461bcd60e51b81526004016100d290610b96565b82516006810260008167ffffffffffffffff811180156104da57600080fd5b50604051908082528060200260200182016040528015610504578160200160208202803683370190505b50905060005b838110156106895786818151811061051e57fe5b60200260200101516000015182826006026000018151811061053c57fe5b60200260200101818152505086818151811061055457fe5b60200260200101516020015182826006026001018151811061057257fe5b60200260200101818152505085818151811061058a57fe5b6020908102919091010151515182518390600260068502019081106105ab57fe5b6020026020010181815250508581815181106105c357fe5b602090810291909101015151600160200201518282600602600301815181106105e857fe5b60200260200101818152505085818151811061060057fe5b60200260200101516020015160006002811061061857fe5b602002015182826006026004018151811061062f57fe5b60200260200101818152505085818151811061064757fe5b60200260200101516020015160016002811061065f57fe5b602002015182826006026005018151811061067657fe5b602090810291909101015260010161050a565b50610692610757565b6000602082602086026020860160086107d05a03fa905080801561022e5750806106ce5760405162461bcd60e51b81526004016100d290610bf2565b505115159695505050505050565b604051806040016040528060008152602001600081525090565b60405180606001604052806003906020820280368337509192915050565b60405180608001604052806004906020820280368337509192915050565b6040518060400160405280610745610775565b8152602001610752610775565b905290565b60405180602001604052806001906020820280368337509192915050565b60405180604001604052806002906020820280368337509192915050565b600082601f8301126107a3578081fd5b813560206107b86107b383610c45565b610c21565b828152818101908583016040808602880185018910156107d6578687fd5b865b868110156107fc576107ea8a84610879565b855293850193918101916001016107d8565b509198975050505050505050565b600082601f83011261081a578081fd5b6040516040810181811067ffffffffffffffff8211171561083757fe5b806040525080838560408601111561084d578384fd5b835b600281101561086e57813583526020928301929091019060010161084f565b509195945050505050565b60006040828403121561088a578081fd5b6040516040810181811067ffffffffffffffff821117156108a757fe5b604052823581526020928301359281019290925250919050565b6000608082840312156108d2578081fd5b6040516040810181811067ffffffffffffffff821117156108ef57fe5b6040529050806108ff848461080a565b815261090e846040850161080a565b60208201525092915050565b6000610100828403121561092c578081fd5b6040516060810181811067ffffffffffffffff8211171561094957fe5b6040529050806109598484610879565b815261096884604085016108c1565b602082015261097a8460c08501610879565b60408201525092915050565b60006101e08284031215610998578081fd5b60405160a0810167ffffffffffffffff82821081831117156109b657fe5b816040528293506109c78686610879565b83526109d686604087016108c1565b60208401526109e88660c087016108c1565b60408401526109fb8661014087016108c1565b60608401526101c0850135915080821115610a1557600080fd5b50610a2285828601610793565b6080830152505092915050565b60008060006101408486031215610a44578283fd5b833567ffffffffffffffff80821115610a5b578485fd5b818601915086601f830112610a6e578485fd5b81356020610a7e6107b383610c45565b82815281810190858301838502870184018c1015610a9a57898afd5b8996505b84871015610abc578035835260019690960195918301918301610a9e565b509750610acd90508989830161091a565b95505050610120860135915080821115610ae5578283fd5b50610af286828701610986565b9150509250925092565b901515815260200190565b6020808252601290820152711d995c9a599a595c8b5898590b5a5b9c1d5d60721b604082015260600190565b6020808252601290820152711c185a5c9a5b99cb5b5d5b0b59985a5b195960721b604082015260600190565b6020808252601f908201527f76657269666965722d6774652d736e61726b2d7363616c61722d6669656c6400604082015260600190565b6020808252601690820152751c185a5c9a5b99cb5b195b99dd1a1ccb59985a5b195960521b604082015260600190565b6020808252601290820152711c185a5c9a5b99cb5859190b59985a5b195960721b604082015260600190565b6020808252601590820152741c185a5c9a5b99cb5bdc18dbd9194b59985a5b1959605a1b604082015260600190565b60405181810167ffffffffffffffff81118282101715610c3d57fe5b604052919050565b600067ffffffffffffffff821115610c5957fe5b506020908102019056fea26469706673582212209a2c6205a848844df554808272357e43d3f44aca27cb62f8160a5bf34625abc264736f6c63430007060033","linkReferences":{}},"methodIdentifiers":{"verify(uint256[],((uint256,uint256),(uint256[2],uint256[2]),(uint256,uint256)),((uint256,uint256),(uint256[2],uint256[2]),(uint256[2],uint256[2]),(uint256[2],uint256[2]),(uint256,uint256)[]))":"9416c1ee"},"id":0}