{
  "contractName": "RsaVerify",
  "abi": [
    {
      "constant": true,
      "inputs": [
        {
          "name": "_data",
          "type": "bytes"
        },
        {
          "name": "_s",
          "type": "bytes"
        },
        {
          "name": "_e",
          "type": "bytes"
        },
        {
          "name": "_n",
          "type": "bytes"
        }
      ],
      "name": "VerifyPKCS1v15",
      "outputs": [
        {
          "name": "",
          "type": "uint256"
        }
      ],
      "payable": false,
      "stateMutability": "view",
      "type": "function"
    }
  ],
  "bytecode": "0x610b31610030600b82828239805160001a6073146000811461002057610022565bfe5b5030600052607381538281f3fe7300000000000000000000000000000000000000003014608060405260043610610052576000357c010000000000000000000000000000000000000000000000000000000090048063065d109114610057575b600080fd5b6102d56004803603608081101561006d57600080fd5b810190808035906020019064010000000081111561008a57600080fd5b82018360208201111561009c57600080fd5b803590602001918460018302840111640100000000831117156100be57600080fd5b91908080601f016020809104026020016040519081016040528093929190818152602001838380828437600081840152601f19601f8201169050808301925050505050505091929192908035906020019064010000000081111561012157600080fd5b82018360208201111561013357600080fd5b8035906020019184600183028401116401000000008311171561015557600080fd5b91908080601f016020809104026020016040519081016040528093929190818152602001838380828437600081840152601f19601f820116905080830192505050505050509192919290803590602001906401000000008111156101b857600080fd5b8201836020820111156101ca57600080fd5b803590602001918460018302840111640100000000831117156101ec57600080fd5b91908080601f016020809104026020016040519081016040528093929190818152602001838380828437600081840152601f19601f8201169050808301925050505050505091929192908035906020019064010000000081111561024f57600080fd5b82018360208201111561026157600080fd5b8035906020019184600183028401116401000000008311171561028357600080fd5b91908080601f016020809104026020016040519081016040528093929190818152602001838380828437600081840152601f19601f8201169050808301925050505050505091929192905050506102eb565b6040518082815260200191505060405180910390f35b6000806002866040518082805190602001908083835b6020831015156103265780518252602082019150602081019050602083039250610301565b6001836020036101000a038019825116818451168082178552505050505050905001915050602060405180830381855afa158015610368573d6000803e3d6000fd5b5050506040513d602081101561037d57600080fd5b81019080805190602001909291905050509050610398610ae1565b61026060405190810160405280603060ff168152602001603160ff168152602001603060ff168152602001600d60ff168152602001600660ff168152602001600960ff168152602001606060ff168152602001608660ff168152602001604860ff168152602001600160ff168152602001606560ff168152602001600360ff168152602001600460ff168152602001600260ff168152602001600160ff168152602001600560ff168152602001600060ff168152602001600460ff168152602001602060ff1681525090506000602090506000602060ff166013019050600086519050600b8201811015610494576001955050505050506109ba565b600060606104a38b8b8b6109c2565b905060008151905060008a5190506060816040519080825280601f01601f1916602001820160405280156104e65781602001600182028038833980820191505090505b5090508160208201846020870160056107d05a03fa5060007f01000000000000000000000000000000000000000000000000000000000000000281600081518110151561052f57fe5b9060200101517f010000000000000000000000000000000000000000000000000000000000000090047f0100000000000000000000000000000000000000000000000000000000000000027effffffffffffffffffffffffffffffffffffffffffffffffffffffffffffff1916141580610629575060018160018151811015156105b557fe5b9060200101517f010000000000000000000000000000000000000000000000000000000000000090047f0100000000000000000000000000000000000000000000000000000000000000027f0100000000000000000000000000000000000000000000000000000000000000900460ff1614155b156106415760019a50505050505050505050506109ba565b600094505b8785101561074757898560208110151561065c57fe5b1a7f0100000000000000000000000000000000000000000000000000000000000000027effffffffffffffffffffffffffffffffffffffffffffffffffffffffffffff191681868a8903018151811015156106b357fe5b9060200101517f010000000000000000000000000000000000000000000000000000000000000090047f0100000000000000000000000000000000000000000000000000000000000000027effffffffffffffffffffffffffffffffffffffffffffffffffffffffffffff191614151561073a5760029a50505050505050505050506109ba565b8480600101955050610646565b600094505b601385101561081557888560138110151561076357fe5b602002015160ff1681868989030181518110151561077d57fe5b9060200101517f010000000000000000000000000000000000000000000000000000000000000090047f0100000000000000000000000000000000000000000000000000000000000000027f0100000000000000000000000000000000000000000000000000000000000000900460ff161415156108085760039a50505050505050505050506109ba565b848060010195505061074c565b60007f0100000000000000000000000000000000000000000000000000000000000000028160018989030381518110151561084c57fe5b9060200101517f010000000000000000000000000000000000000000000000000000000000000090047f0100000000000000000000000000000000000000000000000000000000000000027effffffffffffffffffffffffffffffffffffffffffffffffffffffffffffff19161415156108d35760049a50505050505050505050506109ba565b600294505b6001878703038510156109ab5760ff7f010000000000000000000000000000000000000000000000000000000000000002818681518110151561091757fe5b9060200101517f010000000000000000000000000000000000000000000000000000000000000090047f0100000000000000000000000000000000000000000000000000000000000000027effffffffffffffffffffffffffffffffffffffffffffffffffffffffffffff191614151561099e5760059a50505050505050505050506109ba565b84806001019550506108d8565b60009a50505050505050505050505b949350505050565b60606000825184518651606001010190506000855190506000855190506000855190506000806000806060886040519080825280601f01601f191660200182016040528015610a205781602001600182028038833980820191505090505b50905060208d01945060208c01935060208b019250876020820152866040820152856060820152602081019150610a5c60608301868f51610a96565b610a6e8d516060840101858e51610a96565b610a838c518e51606085010101848d51610a96565b8099505050505050505050509392505050565b5b602081101515610abc5781518352602083019250602082019150602081039050610a97565b60006001826020036101000a0390508019835116818551168181178652505050505050565b6102606040519081016040528060139060208202803883398082019150509050509056fea165627a7a72305820fc6cb6d442e7bebbb22e964eff025bd2caf0b92011a4bb5413740537d07dcf7b0029",
  "source": "pragma solidity 0.5.1;\n\nlibrary RsaVerify {\n    function memcpy(\n        uint256 _dest,\n        uint256 _src,\n        uint256 _len\n    ) internal pure {\n        // Copy word-length chunks while possible\n        for (; _len >= 32; _len -= 32) {\n            assembly {\n                mstore(_dest, mload(_src))\n            }\n            _dest += 32;\n            _src += 32;\n        }\n\n        // Copy remaining bytes\n        uint256 mask = 256**(32 - _len) - 1;\n        assembly {\n            let srcpart := and(mload(_src), not(mask))\n            let destpart := and(mload(_dest), mask)\n            mstore(_dest, or(destpart, srcpart))\n        }\n    }\n\n    function join(\n        bytes memory _s,\n        bytes memory _e,\n        bytes memory _m\n    ) internal pure returns (bytes memory) {\n        uint256 inputLen = 0x60 + _s.length + _e.length + _m.length;\n\n        uint256 slen = _s.length;\n        uint256 elen = _e.length;\n        uint256 mlen = _m.length;\n        uint256 sptr;\n        uint256 eptr;\n        uint256 mptr;\n        uint256 inputPtr;\n\n        bytes memory input = new bytes(inputLen);\n        assembly {\n            sptr := add(_s, 0x20)\n            eptr := add(_e, 0x20)\n            mptr := add(_m, 0x20)\n            mstore(add(input, 0x20), slen)\n            mstore(add(input, 0x40), elen)\n            mstore(add(input, 0x60), mlen)\n            inputPtr := add(input, 0x20)\n        }\n        memcpy(inputPtr + 0x60, sptr, _s.length);\n        memcpy(inputPtr + 0x60 + _s.length, eptr, _e.length);\n        memcpy(inputPtr + 0x60 + _s.length + _e.length, mptr, _m.length);\n\n        return input;\n    }\n\n     /** @dev Verifies a PKCSv1.5 SHA256 signature\n      * @param _data is the sign of the data\n      * @param _s is the signature\n      * @param _e is the exponent\n      * @param _n is the public key modulus\n      * @return 0 if success, >0 otherwise\n    */  \n    function VerifyPKCS1v15(\n        bytes memory _data,\n        bytes memory _s,\n        bytes memory _e,\n        bytes memory _n\n    ) public view returns (uint256) {\n        bytes32 _sha256 = sha256(_data);\n        uint8[19] memory sha256HashPrefix = [\n            0x30,\n            0x31,\n            0x30,\n            0x0d,\n            0x06,\n            0x09,\n            0x60,\n            0x86,\n            0x48,\n            0x01,\n            0x65,\n            0x03,\n            0x04,\n            0x02,\n            0x01,\n            0x05,\n            0x00,\n            0x04,\n            0x20\n        ];\n        uint256 sha256HashLen = 32;\n\n        uint256 tLen = sha256HashPrefix.length + _sha256.length;\n        uint256 k = _n.length;\n        // invalid input params length\n        if (k < tLen + 11) {\n            return 1;\n        }\n\n        uint256 i;\n\n        bytes memory input = join(_s, _e, _n);\n        uint256 inputLen = input.length;\n          // EM = 0x00 || 0x01 || PS || 0x00 || T\n        uint256 emLen = _n.length;\n        bytes memory em = new bytes(emLen);\n\n        assembly {\n            pop(\n                staticcall(\n                    sub(gas(), 2000),\n                    5,\n                    add(input, 0x20),\n                    inputLen,\n                    add(em, 0x20),\n                    emLen\n                )\n            )\n        }\n\n        // EM = 0x00 || 0x01 || PS || 0x00 || T\n        if (em[0] != 0 || uint8(em[1]) != 1) {\n            return 1;\n        }\n        // Check hashed data\n        for (i = 0; i < sha256HashLen; i++) {\n            if ((em[k - sha256HashLen + i]) != _sha256[i]) {\n                return 2;\n            }\n        }\n        // Check sha256Hash prefix\n        for (i = 0; i < sha256HashPrefix.length; i++) {\n            // return k - tLen + i;\n            if (uint8(em[k - tLen + i]) != sha256HashPrefix[i]) {\n                return 3;\n            }\n        }\n        // Check 4 byte is 0x00\n        if (em[k - tLen - 1] != 0) {\n            return 4;\n        }\n        // padding\n        for (i = 2; i < k - tLen - 1; i++) {\n            if (em[i] != 0xff) {\n                return 5;\n            }\n        }\n\n        return 0;\n    }\n}\n",
  "sourcePath": "/Users/turboblitz/code/my-code/zkrsa/circom-rsa-verify/contracts/contracts/RsaVerify.sol",
  "compiler": {
    "name": "solc",
    "version": "0.5.1+commit.c8a2cb62.Emscripten.clang"
  },
  "schemaVersion": "3.4.14",
  "updatedAt": "2023-07-22T11:41:41.743Z",
  "devdoc": {
    "methods": {
      "VerifyPKCS1v15(bytes,bytes,bytes,bytes)": {
        "details": "Verifies a PKCSv1.5 SHA256 signature",
        "params": {
          "_data": "is the sign of the data",
          "_e": "is the exponent",
          "_n": "is the public key modulus",
          "_s": "is the signature"
        },
        "return": "0 if success, >0 otherwise"
      }
    }
  },
  "userdoc": {
    "methods": {}
  }
}