{
  "contractName": "Verifier",
  "abi": [
    {
      "constant": true,
      "inputs": [
        {
          "name": "a",
          "type": "uint256[2]"
        },
        {
          "name": "b",
          "type": "uint256[2][2]"
        },
        {
          "name": "c",
          "type": "uint256[2]"
        },
        {
          "name": "input",
          "type": "uint256[100]"
        }
      ],
      "name": "verifyProof",
      "outputs": [
        {
          "name": "r",
          "type": "bool"
        }
      ],
      "payable": false,
      "stateMutability": "view",
      "type": "function"
    }
  ],
  "bytecode": "0x608060405234801561001057600080fd5b50614084806100206000396000f3fe60806040526004361061003b576000357c0100000000000000000000000000000000000000000000000000000000900480632e158b4a14610040575b600080fd5b34801561004c57600080fd5b506101ad6004803603610d8081101561006457600080fd5b8101908080604001906002806020026040519081016040528092919082600260200280828437600081840152601f19601f82011690508083019250505050505091929192908060800190600280602002604051908101604052809291906000905b82821015610119578382604002016002806020026040519081016040528092919082600260200280828437600081840152601f19601f820116905080830192505050505050815260200190600101906100c5565b50505050919291929080604001906002806020026040519081016040528092919082600260200280828437600081840152601f19601f820116905080830192505050505050919291929080610c8001906064806020026040519081016040528092919082606460200280828437600081840152601f19601f82011690508083019250505050505091929192905050506101c7565b604051808215151515815260200191505060405180910390f35b60006101d1613ef4565b60408051908101604052808760006002811015156101eb57fe5b6020020151815260200187600160028110151561020457fe5b602002015181525081600001819052506040805190810160405280604080519081016040528088600060028110151561023957fe5b6020020151600060028110151561024c57fe5b6020020151815260200188600060028110151561026557fe5b6020020151600160028110151561027857fe5b60200201518152508152602001604080519081016040528088600160028110151561029f57fe5b602002015160006002811015156102b257fe5b602002015181526020018860016002811015156102cb57fe5b602002015160016002811015156102de57fe5b60200201518152508152508160200181905250604080519081016040528085600060028110151561030b57fe5b6020020151815260200185600160028110151561032457fe5b60200201518152508160400181905250606060646040519080825280602002602001820160405280156103665781602001602082028038833980820191505090505b50905060008090505b60648110156103b457848160648110151561038657fe5b6020020151828281518110151561039957fe5b9060200190602002018181525050808060010191505061036f565b5060006103c182846103e1565b14156103d2576001925050506103d9565b6000925050505b949350505050565b6000807f30644e72e131a029b85045b68181585d2833e84879b9709143e1f593f0000001905061040f613f29565b61041761062b565b90508060800151516001865101141515610499576040517f08c379a00000000000000000000000000000000000000000000000000000000081526004018080602001828103825260128152602001807f76657269666965722d6261642d696e707574000000000000000000000000000081525060200191505060405180910390fd5b6104a1613f72565b6040805190810160405280600081526020016000815250905060008090505b86518110156105ae578387828151811015156104d857fe5b90602001906020020151101515610557576040517f08c379a000000000000000000000000000000000000000000000000000000000815260040180806020018281038252601f8152602001807f76657269666965722d6774652d736e61726b2d7363616c61722d6669656c640081525060200191505060405180910390fd5b61059f8261059a85608001516001850181518110151561057357fe5b906020019060200201518a8581518110151561058b57fe5b9060200190602002015161374a565b61384d565b915080806001019150506104c0565b506105d581836080015160008151811015156105c657fe5b9060200190602002015161384d565b905061060b6105e78660000151613971565b8660200151846000015185602001518587604001518b604001518960600151613a0d565b151561061d5760019350505050610625565b600093505050505b92915050565b610633613f29565b60408051908101604052807f083ef823b6ae8515e341d657114800500940c4f0a2a574b8081204152117c30081526020017f1ad806993ddb4d09900b07c69aba752e84fae36c029998e293f7e6cf232cae7e8152508160000181905250604080519081016040528060408051908101604052807f1d0ad92b5ba8c897f4c6a1c0b73d4ebd4ca98931341872a26c5c687d43e53b0981526020017f218335d8ce41d411c52367e687991bc6fb57ad360dfd1ed63ea09363ebe90961815250815260200160408051908101604052807f0d14411aa3b8e630cd4e96a0709de5f45e86f749ad84469c90a5137c6db5ea8c81526020017f22c72663d139832e5d860b215872c73e7bdc3e55dcf4f0e70984610e532d40c68152508152508160200181905250604080519081016040528060408051908101604052807f1c4b0962ce2347caadda748dfec46d7bb352ac538b032d66f7f88bd20fe99ce081526020017f2cad55cce59adb109d36f6e1b59b133522d93d82cb348916ca9bd1e9d01f1bfd815250815260200160408051908101604052807f1506d3e319f09e677c8dcb0aac1c8d8cd0deab662b8a1440c84d28aa4bcffe7d81526020017f1e9dde19991a2bb48e968666d13a24543282e0cca7a7ee2058e97b954585eeca8152508152508160400181905250604080519081016040528060408051908101604052807f18e8b4376dc3dc0580ad87ba1e3cc748d38a8d2917ff05337a6284852611d50f81526020017e5a53c1245244c09dd5b67d6044cdf034a7af264d2dd1fb73d3878ea2410697815250815260200160408051908101604052807f019084aa4a256ba0e6b348fbb1ddf2a17b7fcf1dd7e8e9813573e8a76aec8f5281526020017f1258ed314ce748687eb549ccd8dd639f5962c40b24f589cdbefa86598e8118308152508152508160600181905250606560405190808252806020026020018201604052801561091957816020015b610906613f8c565b8152602001906001900390816108fe5790505b50816080018190525060408051908101604052807f1bc4a0a1236160e66587d78aa20d44998fb0e31de17af71fb204b673499f1ec981526020017f174de6ded7352c2f84430e1243a34c6c0241863820613b39d1eb4972d020cf3a8152508160800151600081518110151561098a57fe5b9060200190602002018190525060408051908101604052807f1bfc9a9d3427d0a8b8a5ddc68b48426b67af7e85cd6383f4335de97e3cc8f35c81526020017f2336530e22b91de62a4b79b0ea8f90c191079b5e2abfc8afff18603c61f0304e815250816080015160018151811015156109ff57fe5b9060200190602002018190525060408051908101604052807f1469d9fcbe3d9350666692be36b8c97a39962419acb7e9919be8f10f81912f8881526020017f22d378d495cbe2b0b641e6df7502536da71102715f9b043b27f7e6a5a8c6c85981525081608001516002815181101515610a7457fe5b9060200190602002018190525060408051908101604052807f3036f1191c168928382593a4caac4e112ffab022cf49d91663b788354dc86a9281526020017f2cdcca7b18613078fbc3c5bcad4e3bd2317466b377aa37f29ea5760562a94a8c81525081608001516003815181101515610ae957fe5b9060200190602002018190525060408051908101604052807f03b7cf460362ea65a78370727a294b38fa391d9ec0099308300057e45e1ff01381526020017f12eb48cdc90c5d457ec0fc9605a40a86f05d2a7148a1f1bb8488ee873758e6a581525081608001516004815181101515610b5e57fe5b9060200190602002018190525060408051908101604052807f22fe1e1b21360583fcb1e55682d6e57b21af4d51bfaf8403daa872e2820f2abc81526020017f237aca2dfdba22925f275aa847c7c18321445d214d15d9b9b8f6f1a982e51ea881525081608001516005815181101515610bd357fe5b9060200190602002018190525060408051908101604052807f088f46a15916ecfb4dda574a6ba5a39506aa8cdb5b5bfeb097b6a69a151c235e81526020017f1b2a482741653f5ab5dfc1b7161f1e897d3b9873b0585a339150d0873018f71d81525081608001516006815181101515610c4857fe5b9060200190602002018190525060408051908101604052807f12854634348e1743a8efc1087cd9c78468b3f07108fe172ef22247ff35d8c40281526020017f2485c0b5b13ce358f98f6741f0c3a2ab920dfca90497a68b368cead01b42bf5481525081608001516007815181101515610cbd57fe5b9060200190602002018190525060408051908101604052807f2626ba738e6c95d6b7f5ec44330fdebe4c9923ff5426b9468fce9d0139af0f9d81526020017f078f64ec8e2a5b0dc4b637faf129035821038e0da34d0090f60d812c3810b2a081525081608001516008815181101515610d3257fe5b9060200190602002018190525060408051908101604052807f05bbe3ec4e2ad82f98d57baf34749f3baf127b6672f98e61c42d636ad796887c81526020017f12e06d051fa2035f16033f8cab54fee211dd00606f4e3fdf236be47fdef8f81e81525081608001516009815181101515610da757fe5b9060200190602002018190525060408051908101604052807f2002407a2649251b3294deb2faba8961e6e1de23ca09803f7de0370b87b2496e81526020017f1f20f53b42c2748ed595822c44e614a502b477c14955d6679223bcc2235a7cd08152508160800151600a815181101515610e1c57fe5b9060200190602002018190525060408051908101604052807f0ada09ab24ecb2ee795b909cc5007d00af955d899957766d0105c15252fac2e881526020017f0d0795368a410a0c1014287ce8e4f96634cc8b8eb691b425075a9fe4d4aa27948152508160800151600b815181101515610e9157fe5b9060200190602002018190525060408051908101604052807f1eb708a6f296ba7601f2c83540e21522f575414607ef5c552839eff8536476f381526020017f19571f5f2dbc2296e734d9fa57c1a447c8b97547b963aab6ef9e490c2593345e8152508160800151600c815181101515610f0657fe5b9060200190602002018190525060408051908101604052807f179ddfc755d183d6afb19f700ff3a9d9c8482805bb7a7f52b138ff8a4bea92bc81526020017f20c42d8550948a2433b9c51b855f6659118bf27bf6759a9ad3a6c4be749e114a8152508160800151600d815181101515610f7b57fe5b9060200190602002018190525060408051908101604052807f04afbfa0c904006e5c789c6daa4796ed7697df44897b1aa468981c162dd610a381526020017f24aa3f79591b408ecb6784213d8109527c1511dd4675bb8873863a09c4d246cd8152508160800151600e815181101515610ff057fe5b9060200190602002018190525060408051908101604052807f0108e1356370f9fc2ce03026bcf72802eec1d142bd40183ad5ae797c632a986081526020017f158407d52fd568f8be55c3cf8a745a7087a911cd5180c1ad2fb098b7a9874cbe8152508160800151600f81518110151561106557fe5b9060200190602002018190525060408051908101604052807f0d36c7958381dcbef16866dda9cd56e380eaab53d0022fc5b9110800e0855f2b81526020017f2cec1c90e9f1bdda4ef784d1093110633da371d482cf8e213d109bcb4d6538c1815250816080015160108151811015156110da57fe5b9060200190602002018190525060408051908101604052807f0504d403ca8f00cf5cf3aa16960e5d8f54839113d5de859e0fb3498f49b76a6a81526020017f29e0a48c6dae9d504852bf00413e3e24a5671570cbdca8bf87d0f013c6ebd14e8152508160800151601181518110151561114f57fe5b9060200190602002018190525060408051908101604052807f1b6c1a87db3a2bd52903f111236c8f748f2060bddde832fb82b884d721c0b1fc81526020017f15a4b573f07378f22ef5d1e68da263ea677bb13e70e0373de7ca264b4385f466815250816080015160128151811015156111c457fe5b9060200190602002018190525060408051908101604052807f0c4862fe7c44af66f035766001c6f41a2b49cb4d8d897a81f69d564112152ec181526020017f2e6ade675c4aa8766a426f4c4afb1f9637f8701a5202b4bfb5dba0c1cecaea708152508160800151601381518110151561123957fe5b9060200190602002018190525060408051908101604052807f25a1faab70c32fd8e789b8ad7d1c8b1322eb7ae95dec7786fe5298f8a6f0dfe981526020017f2f2840e5e4dad7961b95de45331b6384ee3b7848beb8567deacf4da891d12cb2815250816080015160148151811015156112ae57fe5b9060200190602002018190525060408051908101604052807f1df9c625f41921141ae26bef5d07efda8e3c6c6cb1eb4dbcba1fd6d8ebb8a24281526020017f0cfae05892cade1ae995a99a78cdc64b9ba416c4f595a987cd3ae74c5829cd1d8152508160800151601581518110151561132357fe5b9060200190602002018190525060408051908101604052807f244ff211c6b23b47f4da747d13e62ad27ed10e10789e82f254dabe167bea8c5181526020017f18025d41f76a6d851b7becbda695056f63914e7b2888b54e1482072b2d4187df8152508160800151601681518110151561139857fe5b9060200190602002018190525060408051908101604052807f0d2d2f63b37937bde882f7d624f9375b36221d9a63b3eec76112514bfd614a6681526020017f15d07c5c5b9e466c2d5fccd64a2a78051c8f1db32f0dbb3b90c7cc984190971f8152508160800151601781518110151561140d57fe5b9060200190602002018190525060408051908101604052807f038b517ff0f1e2e4b8bf28e8c0dd53e54d72e58e9be23f35ab0b34f9c8016ce681526020017f162227cd0ef428c1f2bf2178236e075eaf8f0763144b1456ad2ef45f464667368152508160800151601881518110151561148257fe5b9060200190602002018190525060408051908101604052807f2afd984d8ea3eb283f7970efe27edacf286a1fc6ae29d6d59e12356c998d3f8c81526020017f29a98d3e3b34a9fc84ec11137a48e7c7215eb551ab777d0ebefa84e51ab224e9815250816080015160198151811015156114f757fe5b9060200190602002018190525060408051908101604052807f0439993fda08247707306e1d40e1de16af29edefef1b9b2da5616627f2c4d0c481526020017f0991d2612ca7de2bd15fbbf0a22d550688dc601d04ace5478be32b00caa0f3588152508160800151601a81518110151561156c57fe5b9060200190602002018190525060408051908101604052807f10283f13309a77068d0d9501b0d06a365c506a47c746325fe27015845690176581526020017f20eb2edd1435904935ab149ee14955221437f77e27fb69411046c253596d7b378152508160800151601b8151811015156115e157fe5b9060200190602002018190525060408051908101604052807f2fd7b23793004581c2efa1030c4317e988a3e5f515ca58cd8e5c64cbcc1a031381526020017e9bfc076ce7e15a5b2b8f650e567ed0c46e71026f28ec635f822ede53da28138152508160800151601c81518110151561165557fe5b9060200190602002018190525060408051908101604052807f2d0c7916135734cb0588c52e6bedfc168b5a9283533f473a23874d7c8ee52e2d81526020017f2b6413118478d79daa50a21fcfc6ee87c4d6808df69b75a84d649173ed1e34e28152508160800151601d8151811015156116ca57fe5b9060200190602002018190525060408051908101604052807f1e0cce0b886bddeee1a539ac031b8a734392dd026a2e5b477206f632b5ba54cc81526020017f0ccd8996385b074829a9229d4612d10cdcb3f910803ca44154010e1b9b60442f8152508160800151601e81518110151561173f57fe5b9060200190602002018190525060408051908101604052807f0399b1d665bc5839a9cc1af80918a7d83ae110e785eb8301057c532e632c65e381526020017f1dcea544eda9512c29446990c1eb1dac9d3f79c2c752d1916bbd56571ea2f9528152508160800151601f8151811015156117b457fe5b9060200190602002018190525060408051908101604052807f285ea5d5e4826434da19d31236e6e60efde6216d781e25007c7895c1bdb86d8281526020017f0bac97cafd0dd2f056303ed1a436129bd4d55d9eeea037ad45cafb7408fab81e8152508160800151602081518110151561182957fe5b9060200190602002018190525060408051908101604052807f0e3f1d64f6a61ebf53c25df7376b927e788dad971f2c924858b268415ce24ab181526020017f1a3c977d555cce98efb8b388fe7b2a4e3c9ec19a7d45bd4ab6a050914c6ccb268152508160800151602181518110151561189e57fe5b9060200190602002018190525060408051908101604052807f20e6cfc88991fe45920d40a6c9a44db2d08a62084f9f6e4a2e97b0fac0176b9d81526020017f2f66351ac83c53545f7062b31df6a78c38186f594dfc3ae02166c328a5d99cea8152508160800151602281518110151561191357fe5b9060200190602002018190525060408051908101604052807f0eac99a416b6699a9eb05d1b5b17e8c9567067bb77d49155d45aa27e2569778781526020017f0927b6d8ef5cf1c758e03305f66dc6a7966243c94175ce5cd26acc75d77fd7908152508160800151602381518110151561198857fe5b9060200190602002018190525060408051908101604052807f1fa960a9d7b41687c13dbf3a8d514743ec3de6bb18506890780fa03f601dc81d81526020017f09a115cffc7342744f4191467fad6b8487f8b8abd28f862cbfc9928f9257e537815250816080015160248151811015156119fd57fe5b9060200190602002018190525060408051908101604052807f21f9488c58bb90b17ce5d9c09c35901ec62108c08668c106666b3f759b0ae66281526020017f0a4edaef121ae10ec6f93b363e92ce59c148bc7e40d3926fd8f6dba7a2b73cbc81525081608001516025815181101515611a7257fe5b9060200190602002018190525060408051908101604052807f272e3c3bb39482628a6484d7c02218ac5d08eb9474f65fdc6008ee97a7bb802a81526020017f0da70905d103b46c7a2e106206c47bdf9981bf55d4d9429ad7eb087e165d851081525081608001516026815181101515611ae757fe5b9060200190602002018190525060408051908101604052807f1ac533430b97d8f5ffeff06294ae5bac38281849c32a4d3fbd65144493498c1f81526020017f1b98dd2039c8b3fb211ae80cddf042ca17852111244c5140467f762d4eaad1c181525081608001516027815181101515611b5c57fe5b9060200190602002018190525060408051908101604052807f29c1265735a2e350b7617352afb183af79fc9d32149adf804fdceca0dae2530d81526020017f2bcd3972e6c19ae98c3b362a45dd16fae37c60f9f0733a853a5b6638376766bd81525081608001516028815181101515611bd157fe5b9060200190602002018190525060408051908101604052807f083b8dc78ff23f46d7be9adac15b2a687b28d8b2c41f6a946d469d881697da2d81526020017f2d3dc13386962bfbfd8fdc025669d6d81bd13607797254972c2fbff376fb08c481525081608001516029815181101515611c4657fe5b9060200190602002018190525060408051908101604052807f1d59f2f4742523a92527b0ce24ac5cafb72cf2fe77464515f96e330918f7fcdd81526020017f021c935fa875e6adc6afc3a3404432fd7f29b45e6e4d2ad95d6c3866ee2b366a8152508160800151602a815181101515611cbb57fe5b9060200190602002018190525060408051908101604052807f11f82e11f0149243de2bfdc1cf2f617cf2a00b7c5a8cb1baf0dbee5f4448fa0c81526020017f303b50ebbcbad79aff487380520e5fa6007bb4f951dc1bbb401f344a78be97b98152508160800151602b815181101515611d3057fe5b9060200190602002018190525060408051908101604052807f108dc2c566947a314f0383c0b42c5b408ea5cd13387585d062e7fb09d7e24bba81526020017f0b7fab7b60f6d78dadf0779f866b09883ebb45b3402269ed5342a1be646064ab8152508160800151602c815181101515611da557fe5b9060200190602002018190525060408051908101604052807f0d19291882b360e49b6a626200ce4ff3f9150de795aeb75ba35e5b253932d69781526020017f2af4525c289161e05af168f662af12d14e8b8e8f6feb8c2a18c33aa0c7420bdd8152508160800151602d815181101515611e1a57fe5b9060200190602002018190525060408051908101604052807f2a8793092e5fdc0f0daa59b899ccb1e88705e73584939642e04a869880a06dfa81526020017f06f10938151e2d67969a8accd4542a762a9a6b89c2acfdbf06d63d3bc66a8e3b8152508160800151602e815181101515611e8f57fe5b9060200190602002018190525060408051908101604052807f0558dcc0d1a1d38b80bb4ebb163d4e79292b2a3b4d88e21c6e0def4fa7cf7ece81526020017f06e9fffaecf2eec704755e97d4254ec220967f66d656387433b226ee8cce1c058152508160800151602f815181101515611f0457fe5b9060200190602002018190525060408051908101604052807f181e8dcc8285be68bca9e819dff54d448e2a48fec7caccf7d24ece8406a9e8a281526020017f0aaf8e4db788e89843446f243edf181deb4b9a64f788d1815737102a93af462581525081608001516030815181101515611f7957fe5b9060200190602002018190525060408051908101604052807f0a3a2006047cbf6e50e8d1552c8c4eacd88d1b1585d78ab965d50df5d965e78c81526020017e426f7ad3b3d80ad484e12faa843e6d1c84345bdba55fa5f72761420f2e9d0e81525081608001516031815181101515611fed57fe5b9060200190602002018190525060408051908101604052807f1912fd08ece86acb49507cfaf2ea73f9317b81b0360478072821005aef628d8281526020017f05ec986cf28a863b499db1dc12cfa27ccacc8884eef0dea5b01f56e5e55b37708152508160800151603281518110151561206257fe5b9060200190602002018190525060408051908101604052807f26eec8c433d33c8ec09ba586e7be0dfa7485d741842abdd66fbc7f83a067936f81526020017f167c4d1917ef7dec92527727ddf02eff80f3de332bc99c914f2385c8b28445ff815250816080015160338151811015156120d757fe5b9060200190602002018190525060408051908101604052807f1e1bbcd5386fdac404573101bcd6b8df3c511db09299ed89b6cdd0e1ced3d91581526020017f1301fc47809e5d69efcefb83dc64e1c12cc76c86e49832e257440a889b6636c78152508160800151603481518110151561214c57fe5b9060200190602002018190525060408051908101604052807f0306db3d6f03d723fa90c6604c930a8a7f5da3f08fbcf105b785cd153f958b0681526020017f0bb2f1efe07a5e89ff07e77b73417ef2f1547f54ff0a1703665cff0b5e15fa3e815250816080015160358151811015156121c157fe5b9060200190602002018190525060408051908101604052807f26a33a9068d93cab141f0bedad18b103acff4aacdbe444a84b66fa3081c0aace81526020017f0f1ac8b30698c7af5074c877cce7236e616aa0282a8503f5a7056ad224af27818152508160800151603681518110151561223657fe5b9060200190602002018190525060408051908101604052807f2e8e9b80b6bcfae649b04575ba038a985637312798f35ce356c695ec1d3c565681526020017f275acd74084232b9001de4ca7de57aa0bbc7b35965e461951a06dd963d0e88c7815250816080015160378151811015156122ab57fe5b9060200190602002018190525060408051908101604052807f29c1eeb3ae107408eb678e4fb82131502daeb1f5b4ec3a66b3254e9fade27b2981526020017f081234155809aa52090436e19bb9be24f2478e281e9242a2e42dc965f374345c8152508160800151603881518110151561232057fe5b9060200190602002018190525060408051908101604052807f21d5cb28d58d31247926683b9f5b561ba4a8d68b5117996b50f08157f5686dfa81526020017f25ca0809fde467ed09b418bee4a225d315ed3cf9b750170049d4be2f96254b328152508160800151603981518110151561239557fe5b9060200190602002018190525060408051908101604052807f24284436ab6d0286f0e0076e348cbff35da74811067b19a02b3bacf85ce1358081526020017f205aefb7a850b96f82ee90484fe9eb7589a88ed4ac79d58454463261887f9f9f8152508160800151603a81518110151561240a57fe5b9060200190602002018190525060408051908101604052807f1bd35e4702b811d565b56bfd6104467ee9f3189ed6ddc6290b13d7f2693b549b81526020017f253e9d4929d7447f149136f358fee8352badc8afaf6f37d5abee8edd034d34be8152508160800151603b81518110151561247f57fe5b9060200190602002018190525060408051908101604052807f06456dc09f786274f4976d504d96e856616145c00e54a5d84622c338eb7c62f581526020017f207497b1582a9630d088e01617da17dea4ab432a467a0aba2a5c418cd89da8a38152508160800151603c8151811015156124f457fe5b9060200190602002018190525060408051908101604052807f28aa813e0ad54e503c951878a0c17bff8ddc4f012c4d089f71ffb90c067b6bb081526020017f11a57239e3da8a649a16f0216101e914c14a33badc0a77edb311030619289ab08152508160800151603d81518110151561256957fe5b9060200190602002018190525060408051908101604052807f1676f7797849dbd4119256afbb4f670dcfe66e1adeaabee701cc17c7ab6ba5c281526020017f09a98a8a8901f0bab148db8b6d8f6af4b7c1bd9601470935e88058f2c1e861918152508160800151603e8151811015156125de57fe5b9060200190602002018190525060408051908101604052807f235acd4d57f1f0ca452c6e52a3eed1b6de5afd7bac1e4ab6c85a47580b81348681526020017f28f6ef5a9b746626a3fd546573d678950ce0d58151123547aaa0d796fabe04958152508160800151603f81518110151561265357fe5b9060200190602002018190525060408051908101604052807f1dd240e2cc653789b584e8fd7f06f10a714208fb7e9a607110ba1c281399f47381526020017f17ceadcf06b08df70e5ac56ff66c9830b483b39e4574421680c26155fcc44f67815250816080015160408151811015156126c857fe5b9060200190602002018190525060408051908101604052807f0dea99d08c92109dcfec0a0a1bc085f20f4a628cef6d7d57a0b2ae0344cdbf5581526020017f21be60b7a99e19964f3c2db08cdd4f222598b3aa8cdf0961d7196376e88ae60c8152508160800151604181518110151561273d57fe5b9060200190602002018190525060408051908101604052807f0b9e09bc714e8262df682cf65c9d047dd9f73c2d8817bc9da743e552cce5460b81526020017f0c77e8dd22e96c6e8b13ccedbb69cce253cfb10d7ea27bdd30d7758cc41872d8815250816080015160428151811015156127b257fe5b9060200190602002018190525060408051908101604052807f054e68ae5a03859544ecfdb11749c661c5a6804362d1c7d6a11c2d00ee31bbf881526020017f1749bbb76434cc07a5ec4c4c673eaa3e46c5df605491ee19e3c9c49b7237c9668152508160800151604381518110151561282757fe5b9060200190602002018190525060408051908101604052807f1c991c4e0db6989d688003ab428e9ed7af8291dd826f134465abe00a09be9ab681526020017f01d4ea56e001a8f2856b91aa2d9c5e48f1ca080d043b5b4217764a5a80e7d8478152508160800151604481518110151561289c57fe5b9060200190602002018190525060408051908101604052807f07ffc6a8c28350dc30b5940e3151fa77bf847f8f34aba317be895a659f0886d881526020017f15b06f8cca090b567d8ac054f12d72040f36f0c24dc5ce749b3391cdf8a3387c8152508160800151604581518110151561291157fe5b9060200190602002018190525060408051908101604052807f1a315f015cacb8c0107d6e8d0061265c65806fbf931ed18603c22b6c883142fb81526020017f1fee920525aa274891975212f09e356ccaf587d118486b739823fc6abeba34188152508160800151604681518110151561298657fe5b9060200190602002018190525060408051908101604052807f2ad8a4b762b6dab1f027c8cad5ed820849d94eb38906a2ad9068821893ed783281526020017f300b7843e5bf495aa6b4383e0f387f7db24794cc5c09f6f2af681b561a56d09e815250816080015160478151811015156129fb57fe5b9060200190602002018190525060408051908101604052807f132b602c3788de516e99a02427ef0005869f5741077c73f1782a7be0220d505981526020017f2cbf733109bf53b9f9841692520987c353dad16ee77991d5c6e673bc32718bba81525081608001516048815181101515612a7057fe5b9060200190602002018190525060408051908101604052807f2a95feb13c4357f85a05ab90646898ed0b4f8a4a59ba13c268af4a12c5d2d60781526020017f2966597024c9049c5f126a66afa6331fa23534361763981dace3106fc92d673381525081608001516049815181101515612ae557fe5b9060200190602002018190525060408051908101604052807f1a644d3745f3644daac4e189b160a1b04b0ca711aeaec6abde2dad252f53ed3281526020017f0b626290465d2ae6affa2a8d396173fd424d3b5a89f888cd5c608416c6ab6d078152508160800151604a815181101515612b5a57fe5b9060200190602002018190525060408051908101604052807f18f3466961c190978a27cb22c21b82014a25fa4c072b355ab4116ccf32b49adc81526020017f0ba2725e90a90f662519abde1bea6dc260c137b89218a540556b1a0ad6c3047b8152508160800151604b815181101515612bcf57fe5b9060200190602002018190525060408051908101604052807f21269aaa435f1ca24295d48a6eb2d2c69156969a2c0bb6701ecf908b604a05ba81526020017f211e4f6b3c554ce5e16eae4b1357c7871d049b37e0be8127f42636d95a68a3868152508160800151604c815181101515612c4457fe5b9060200190602002018190525060408051908101604052807f29dac714f9c908f6bc144f0ceddbd4c4083b7afb418a96fbaaedc2a1291c820781526020017f2d944b6f7da960cbc6a2752de4be48a2808df74f4a148a3b7fc93e2a41b60b368152508160800151604d815181101515612cb957fe5b9060200190602002018190525060408051908101604052807f23de527de10a0269fb2e12314460d2163daa1944eb5f1d1bbaf00cf83ba55fdf81526020017f11b00957b32ba43b9b66872528b410481b62c0ad891da7bf0260f16ed111d1d58152508160800151604e815181101515612d2e57fe5b9060200190602002018190525060408051908101604052807f0160db522d1096f4667ad1c5d2318aecdb5c92d115005f4a4dd63aed2c2f7d7181526020017f0543081e8a58890f2ca92e09d61b209d0f08e45a6d3ed1f524d054374bbc59998152508160800151604f815181101515612da357fe5b9060200190602002018190525060408051908101604052807f2eedede3796ce111a4e5a61efda3884172a2c832276e4d747b475e45614e9c4f81526020017f25a50a9a347a274c268009fa086ae353e282e04967c65949c00121ddb3c9bf6581525081608001516050815181101515612e1857fe5b9060200190602002018190525060408051908101604052807f09be02209ec0a5a4d445d8036df66e52b56b58e109d5e1dc39223f769e06f4ed81526020017e7cbbe80c9bc8586d9da058a0e740635fa1a92d44c963d23efc1264adb88a3a81525081608001516051815181101515612e8c57fe5b9060200190602002018190525060408051908101604052807f15a905de63f1cd1fe7f74f2c52f5c6cc779df65af30785552cd3513f3a8487f881526020017f05b8298ace3bf93bd2f6d2feb7b90fcc85c949e8279c99633ed20fbe4be1626481525081608001516052815181101515612f0157fe5b9060200190602002018190525060408051908101604052807f21d8b349900bb0408159f4b69036855ba2bc44d6a894773d2afe27dc12d2560681526020017f03240fc4c431305698115134887a061c89eafdb481535e58ce18b1cb1d25e76581525081608001516053815181101515612f7657fe5b9060200190602002018190525060408051908101604052807f0bede29d49c9350cd9dbd5087f2a840594f7af57a5c664ce4d7b834ba970166381526020017f10dd6898f882a5dc700655a8e15c80cbf5681c8dea7636328a492f57144dd98b81525081608001516054815181101515612feb57fe5b9060200190602002018190525060408051908101604052807ec7b8164cd650a2ac8af129c783f72881241b6d022cdb5088b569eabc53b63781526020017f1df985b43a961b22d65a8a31b1a622a65c9b6703aca245d9c2084213299431c48152508160800151605581518110151561305f57fe5b9060200190602002018190525060408051908101604052807f2d14cf87a803130f4c176e35e0715811d964a3a230763d586a581bd5b42c44b681526020017f24b43e70581ec80cbff5529e67df2067a8927e5e0ae90a060749f23e2af10232815250816080015160568151811015156130d457fe5b9060200190602002018190525060408051908101604052807f167cb866982ed6a559361d5f16d4ea2ede78214b1be6a7805311d78e9fa9ca2981526020017f05d0fed4931aba42a1058cea8ff8c3abb2bc75086b7be47a5103f98c160aedbb8152508160800151605781518110151561314957fe5b9060200190602002018190525060408051908101604052807f2427345df03136cb8612eb3704adcb89c18b820c1dd1c7a721dd3f75a51015d481526020017f25921703fa842fb63121052c792845278ac4e0e84844c5ce4cfe70c1a4100e04815250816080015160588151811015156131be57fe5b9060200190602002018190525060408051908101604052807f01556982e86dc16e1295e2c5612167dae6c67691766a2c98c9d14969e9a52ef581526020017f1e4178b254ffe71389813d019fe9a8de72d21a8b6e7a2d831c921833522442338152508160800151605981518110151561323357fe5b9060200190602002018190525060408051908101604052807f2d48d8f745ebc4646225458b9d1f2d8d1aa12f0e30aaadda77145791f92ce99f81526020017f165fb33831056f4c8b49b5cd216a81c9f0c18c7d42330059e5feb6442ea1f41f8152508160800151605a8151811015156132a857fe5b9060200190602002018190525060408051908101604052807f050e596a4667bbd7b24417c4e51dd22209c52830b6c9feab0ae5e677f89cb88a81526020017f128a7163924bdfd065a4d88222bc89aaa6477e6413f2479cdfb9eeb4d32818df8152508160800151605b81518110151561331d57fe5b9060200190602002018190525060408051908101604052807f21e199db98a49e4726c2c80aeab7986e0ca34d1afa09d6bca42df8e762e2d10581526020017f1686d24742e86d08b74b3042930eb510761d745b7220c385bd8d0450389eb8798152508160800151605c81518110151561339257fe5b9060200190602002018190525060408051908101604052807f2ba19e2a95d62173ce46f07b717e2dd3dfb99eb97c94ed1aeb5217620daca89d81526020017f2a6ffd7466c09fb1293c99c2f68596fe88009ee98f0e4bd1255e7c4bc2f8a9fb8152508160800151605d81518110151561340757fe5b9060200190602002018190525060408051908101604052807f0857780cbedbbad35edcd9af909a07c6bae47cd0ff88396052dff861ff8beefc81526020017f027bb509c5bfd0a4ab476b545f5e425090c28507c397a2249e1686a0ba1ec6a98152508160800151605e81518110151561347c57fe5b9060200190602002018190525060408051908101604052807f20b303929ae2531763739426038cf050a7771a841f915cc4e4d933b0d09e9fd781526020017f0819e632ac8bdcf88576fc5878d8cad7e1fa0476d1f2c88b3860fc3a96a1dabb8152508160800151605f8151811015156134f157fe5b9060200190602002018190525060408051908101604052807f109270c0cea4bd7d60bf6d85fd5b2eea68f473067b74aa36be2bbb650104f66981526020017f16a9e71389d869faffda0c3d9c33bdfbc3167f97929707e7c667c62e77d9acce8152508160800151606081518110151561356657fe5b9060200190602002018190525060408051908101604052807f1cb8c1a495acfb8a68c77735879da3e8fe7e139354145ec0bdeec52dc6e3a14681526020017f05edc244138d6319a13a797a01ce824df334275cc420ce0d87cda672b40b46a7815250816080015160618151811015156135db57fe5b9060200190602002018190525060408051908101604052807f27b1feb2929f7074aa81e94a12de65537544a6afbc01934678f68bce01f7debd81526020017f1ed74054cad855898e0e11c6789bdbefe71852e90a57885c2b2c2049c63398908152508160800151606281518110151561365057fe5b9060200190602002018190525060408051908101604052807f0d52c008bb8c0a5e1f313578c8ef6b6489774b124f8f7b122d8f0c1a485877ca81526020017f03f0661025e946155ac919dc45c2ae8963a7a0ab76b1049ba1ea6905713b2898815250816080015160638151811015156136c557fe5b9060200190602002018190525060408051908101604052807f065fe91eb05e5c873bf6b97f5268f92399ed5966cddeef60f2df7f2b73262e9c81526020017f0f1a25fc959ff9c9f7a5ca98648a3781cb5e387a94d74dd7faccf26c73ccbc178152508160800151606481518110151561373a57fe5b9060200190602002018190525090565b613752613f72565b61375a613fa6565b836000015181600060038110151561376e57fe5b602002018181525050836020015181600160038110151561378b57fe5b602002018181525050828160026003811015156137a457fe5b602002018181525050600060608360808460076107d05a03fa905080600081146137cd576137cf565bfe5b50801515613845576040517f08c379a00000000000000000000000000000000000000000000000000000000081526004018080602001828103825260128152602001807f70616972696e672d6d756c2d6661696c6564000000000000000000000000000081525060200191505060405180910390fd5b505092915050565b613855613f72565b61385d613fc9565b836000015181600060048110151561387157fe5b602002018181525050836020015181600160048110151561388e57fe5b60200201818152505082600001518160026004811015156138ab57fe5b60200201818152505082602001518160036004811015156138c857fe5b602002018181525050600060608360c08460066107d05a03fa905080600081146138f1576138f3565bfe5b50801515613969576040517f08c379a00000000000000000000000000000000000000000000000000000000081526004018080602001828103825260128152602001807f70616972696e672d6164642d6661696c6564000000000000000000000000000081525060200191505060405180910390fd5b505092915050565b613979613f72565b60007f30644e72e131a029b85045b68181585d97816a916871ca8d3c208c16d87cfd479050600083600001511480156139b6575060008360200151145b156139da576040805190810160405280600081526020016000815250915050613a08565b6040805190810160405280846000015181526020018285602001518115156139fe57fe5b0683038152509150505b919050565b600060606004604051908082528060200260200182016040528015613a4c57816020015b613a39613f8c565b815260200190600190039081613a315790505b50905060606004604051908082528060200260200182016040528015613a8c57816020015b613a79613fec565b815260200190600190039081613a715790505b5090508a826000815181101515613a9f57fe5b9060200190602002018190525088826001815181101515613abc57fe5b9060200190602002018190525086826002815181101515613ad957fe5b9060200190602002018190525084826003815181101515613af657fe5b9060200190602002018190525089816000815181101515613b1357fe5b9060200190602002018190525087816001815181101515613b3057fe5b9060200190602002018190525085816002815181101515613b4d57fe5b9060200190602002018190525083816003815181101515613b6a57fe5b90602001906020020181905250613b818282613b91565b9250505098975050505050505050565b600081518351141515613c0c576040517f08c379a00000000000000000000000000000000000000000000000000000000081526004018080602001828103825260168152602001807f70616972696e672d6c656e677468732d6661696c65640000000000000000000081525060200191505060405180910390fd5b6000835190506000600682029050606081604051908082528060200260200182016040528015613c4b5781602001602082028038833980820191505090505b50905060008090505b83811015613e29578681815181101515613c6a57fe5b90602001906020020151600001518260006006840201815181101515613c8c57fe5b90602001906020020181815250508681815181101515613ca857fe5b90602001906020020151602001518260016006840201815181101515613cca57fe5b90602001906020020181815250508581815181101515613ce657fe5b90602001906020020151600001516000600281101515613d0257fe5b60200201518260026006840201815181101515613d1b57fe5b90602001906020020181815250508581815181101515613d3757fe5b90602001906020020151600001516001600281101515613d5357fe5b60200201518260036006840201815181101515613d6c57fe5b90602001906020020181815250508581815181101515613d8857fe5b90602001906020020151602001516000600281101515613da457fe5b60200201518260046006840201815181101515613dbd57fe5b90602001906020020181815250508581815181101515613dd957fe5b90602001906020020151602001516001600281101515613df557fe5b60200201518260056006840201815181101515613e0e57fe5b90602001906020020181815250508080600101915050613c54565b50613e32614013565b6000602082602086026020860160086107d05a03fa90508060008114613e5757613e59565bfe5b50801515613ecf576040517f08c379a00000000000000000000000000000000000000000000000000000000081526004018080602001828103825260158152602001807f70616972696e672d6f70636f64652d6661696c6564000000000000000000000081525060200191505060405180910390fd5b6000826000600181101515613ee057fe5b602002015114159550505050505092915050565b61010060405190810160405280613f09613f8c565b8152602001613f16613fec565b8152602001613f23613f8c565b81525090565b6101e060405190810160405280613f3e613f8c565b8152602001613f4b613fec565b8152602001613f58613fec565b8152602001613f65613fec565b8152602001606081525090565b604080519081016040528060008152602001600081525090565b604080519081016040528060008152602001600081525090565b606060405190810160405280600390602082028038833980820191505090505090565b608060405190810160405280600490602082028038833980820191505090505090565b608060405190810160405280614000614036565b815260200161400d614036565b81525090565b602060405190810160405280600190602082028038833980820191505090505090565b604080519081016040528060029060208202803883398082019150509050509056fea165627a7a7230582034012edf945470dc4cf9e1b93553236602015a2567e164867d06b3a7b6454c050029",
  "source": "//\n// Copyright 2017 Christian Reitwiessner\n// Permission is hereby granted, free of charge, to any person obtaining a copy of this software and associated documentation files (the \"Software\"), to deal in the Software without restriction, including without limitation the rights to use, copy, modify, merge, publish, distribute, sublicense, and/or sell copies of the Software, and to permit persons to whom the Software is furnished to do so, subject to the following conditions:\n// The above copyright notice and this permission notice shall be included in all copies or substantial portions of the Software.\n// THE SOFTWARE IS PROVIDED \"AS IS\", WITHOUT WARRANTY OF ANY KIND, EXPRESS OR IMPLIED, INCLUDING BUT NOT LIMITED TO THE WARRANTIES OF MERCHANTABILITY, FITNESS FOR A PARTICULAR PURPOSE AND NONINFRINGEMENT. IN NO EVENT SHALL THE AUTHORS OR COPYRIGHT HOLDERS BE LIABLE FOR ANY CLAIM, DAMAGES OR OTHER LIABILITY, WHETHER IN AN ACTION OF CONTRACT, TORT OR OTHERWISE, ARISING FROM, OUT OF OR IN CONNECTION WITH THE SOFTWARE OR THE USE OR OTHER DEALINGS IN THE SOFTWARE.\n//\n// 2019 OKIMS\n//      ported to solidity 0.5\n//      fixed linter warnings\n//      added requiere error messages\n//\npragma solidity ^0.5.0;\nlibrary Pairing {\n    struct G1Point {\n        uint X;\n        uint Y;\n    }\n    // Encoding of field elements is: X[0] * z + X[1]\n    struct G2Point {\n        uint[2] X;\n        uint[2] Y;\n    }\n    /// @return the generator of G1\n    function P1() internal pure returns (G1Point memory) {\n        return G1Point(1, 2);\n    }\n    /// @return the generator of G2\n    function P2() internal pure returns (G2Point memory) {\n        // Original code point\n        return G2Point(\n            [11559732032986387107991004021392285783925812861821192530917403151452391805634,\n             10857046999023057135944570762232829481370756359578518086990519993285655852781],\n            [4082367875863433681332203403145435568316851327593401208105741076214120093531,\n             8495653923123431417604973247489272438418190587263600148770280649306958101930]\n        );\n\n/*\n        // Changed by Jordi point\n        return G2Point(\n            [10857046999023057135944570762232829481370756359578518086990519993285655852781,\n             11559732032986387107991004021392285783925812861821192530917403151452391805634],\n            [8495653923123431417604973247489272438418190587263600148770280649306958101930,\n             4082367875863433681332203403145435568316851327593401208105741076214120093531]\n        );\n*/\n    }\n    /// @return the negation of p, i.e. p.addition(p.negate()) should be zero.\n    function negate(G1Point memory p) internal pure returns (G1Point memory) {\n        // The prime q in the base field F_q for G1\n        uint q = 21888242871839275222246405745257275088696311157297823662689037894645226208583;\n        if (p.X == 0 && p.Y == 0)\n            return G1Point(0, 0);\n        return G1Point(p.X, q - (p.Y % q));\n    }\n    /// @return the sum of two points of G1\n    function addition(G1Point memory p1, G1Point memory p2) internal view returns (G1Point memory r) {\n        uint[4] memory input;\n        input[0] = p1.X;\n        input[1] = p1.Y;\n        input[2] = p2.X;\n        input[3] = p2.Y;\n        bool success;\n        // solium-disable-next-line security/no-inline-assembly\n        assembly {\n            success := staticcall(sub(gas, 2000), 6, input, 0xc0, r, 0x60)\n            // Use \"invalid\" to make gas estimation work\n            switch success case 0 { invalid() }\n        }\n        require(success,\"pairing-add-failed\");\n    }\n    /// @return the product of a point on G1 and a scalar, i.e.\n    /// p == p.scalar_mul(1) and p.addition(p) == p.scalar_mul(2) for all points p.\n    function scalar_mul(G1Point memory p, uint s) internal view returns (G1Point memory r) {\n        uint[3] memory input;\n        input[0] = p.X;\n        input[1] = p.Y;\n        input[2] = s;\n        bool success;\n        // solium-disable-next-line security/no-inline-assembly\n        assembly {\n            success := staticcall(sub(gas, 2000), 7, input, 0x80, r, 0x60)\n            // Use \"invalid\" to make gas estimation work\n            switch success case 0 { invalid() }\n        }\n        require (success,\"pairing-mul-failed\");\n    }\n    /// @return the result of computing the pairing check\n    /// e(p1[0], p2[0]) *  .... * e(p1[n], p2[n]) == 1\n    /// For example pairing([P1(), P1().negate()], [P2(), P2()]) should\n    /// return true.\n    function pairing(G1Point[] memory p1, G2Point[] memory p2) internal view returns (bool) {\n        require(p1.length == p2.length,\"pairing-lengths-failed\");\n        uint elements = p1.length;\n        uint inputSize = elements * 6;\n        uint[] memory input = new uint[](inputSize);\n        for (uint i = 0; i < elements; i++)\n        {\n            input[i * 6 + 0] = p1[i].X;\n            input[i * 6 + 1] = p1[i].Y;\n            input[i * 6 + 2] = p2[i].X[0];\n            input[i * 6 + 3] = p2[i].X[1];\n            input[i * 6 + 4] = p2[i].Y[0];\n            input[i * 6 + 5] = p2[i].Y[1];\n        }\n        uint[1] memory out;\n        bool success;\n        // solium-disable-next-line security/no-inline-assembly\n        assembly {\n            success := staticcall(sub(gas, 2000), 8, add(input, 0x20), mul(inputSize, 0x20), out, 0x20)\n            // Use \"invalid\" to make gas estimation work\n            switch success case 0 { invalid() }\n        }\n        require(success,\"pairing-opcode-failed\");\n        return out[0] != 0;\n    }\n    /// Convenience method for a pairing check for two pairs.\n    function pairingProd2(G1Point memory a1, G2Point memory a2, G1Point memory b1, G2Point memory b2) internal view returns (bool) {\n        G1Point[] memory p1 = new G1Point[](2);\n        G2Point[] memory p2 = new G2Point[](2);\n        p1[0] = a1;\n        p1[1] = b1;\n        p2[0] = a2;\n        p2[1] = b2;\n        return pairing(p1, p2);\n    }\n    /// Convenience method for a pairing check for three pairs.\n    function pairingProd3(\n            G1Point memory a1, G2Point memory a2,\n            G1Point memory b1, G2Point memory b2,\n            G1Point memory c1, G2Point memory c2\n    ) internal view returns (bool) {\n        G1Point[] memory p1 = new G1Point[](3);\n        G2Point[] memory p2 = new G2Point[](3);\n        p1[0] = a1;\n        p1[1] = b1;\n        p1[2] = c1;\n        p2[0] = a2;\n        p2[1] = b2;\n        p2[2] = c2;\n        return pairing(p1, p2);\n    }\n    /// Convenience method for a pairing check for four pairs.\n    function pairingProd4(\n            G1Point memory a1, G2Point memory a2,\n            G1Point memory b1, G2Point memory b2,\n            G1Point memory c1, G2Point memory c2,\n            G1Point memory d1, G2Point memory d2\n    ) internal view returns (bool) {\n        G1Point[] memory p1 = new G1Point[](4);\n        G2Point[] memory p2 = new G2Point[](4);\n        p1[0] = a1;\n        p1[1] = b1;\n        p1[2] = c1;\n        p1[3] = d1;\n        p2[0] = a2;\n        p2[1] = b2;\n        p2[2] = c2;\n        p2[3] = d2;\n        return pairing(p1, p2);\n    }\n}\ncontract Verifier {\n    using Pairing for *;\n    struct VerifyingKey {\n        Pairing.G1Point alfa1;\n        Pairing.G2Point beta2;\n        Pairing.G2Point gamma2;\n        Pairing.G2Point delta2;\n        Pairing.G1Point[] IC;\n    }\n    struct Proof {\n        Pairing.G1Point A;\n        Pairing.G2Point B;\n        Pairing.G1Point C;\n    }\n    function verifyingKey() internal pure returns (VerifyingKey memory vk) {\n        vk.alfa1 = Pairing.G1Point(3729759902613158737584667451763372650786205291355292152976183853465281741568,12141818571021242890877607823917100116000365301195201631232395613768357031550);\n        vk.beta2 = Pairing.G2Point([13136239927450321420640914360716128650905558296901801053963909067006351325961,15158152606360031483103218567077180987695153184296747211468761930524229437793], [5915853304591152121704470374932450228803136872189869158933925105543608134284,15730504375151781974211308982636760944102253372011186196057356583318925951174]);\n        vk.gamma2 = Pairing.G2Point([12797338069690577808446516054250140565574683028551313720352971263472998915296,20208022052319197615373299594326862684574957199303386410392870171291317902333], [9510633293756122824931415204113148296568119183289757074341033791433603022461,13848313324479398811493408106201633294081396281714935002300111704965563936458]);\n        vk.delta2 = Pairing.G2Point([11266660693726079180142591384137499556300910320758103405829939699434501821711,159594287871630790884118904172491478917812927426735012058598943236280092311], [707654447428566954854247517328264835096719281326792298268083684720121778002,8298750859219747276182424982921391214869766140065874201121654684399272269872]);\n        vk.IC = new Pairing.G1Point[](101);\n        vk.IC[0] = Pairing.G1Point(12559857560137645122326787789388304194293993587871847134890494756734887730889,10540836150835001110742597252815405926154507219744289543571939471050967928634);\n        vk.IC[1] = Pairing.G1Point(12658759479213995965001162601252332272297201132548324564145207426693527565148,15926932667955163852247956764952692134227328819400283042400340320607443890254);\n        vk.IC[2] = Pairing.G1Point(9233280406365537882472347091592984624804190391541341875802125235730278068104,15752275523345009693961145001656538975922631355936481038733513488525164988505);\n        vk.IC[3] = Pairing.G1Point(21808090471321077445113540295542855177220849182527518892630816833213211110034,20291869163317933772360342832189914678441059039982932543926622212723342658188);\n        vk.IC[4] = Pairing.G1Point(1681702107650924242939590994184892198098972482270962181163847232267596328979,8557342808420608015163852437969816624820953791079871399330708760568396310181);\n        vk.IC[5] = Pairing.G1Point(15827623790091259354160909641747466114900068219744403763028569679077212891836,16047900434997519505683285569042075748171171960928956378651963933769052004008);\n        vk.IC[6] = Pairing.G1Point(3871649391107353865241916568957195781306573935564276180600325739625953633118,12287152472530723322413958924122061475582275721639684996612866595376739186461);\n        vk.IC[7] = Pairing.G1Point(8377106463810514100685825845356383395677386067510355919238576094169118852098,16519583242327369166921875830238594086615876675834667310581495770465471479636);\n        vk.IC[8] = Pairing.G1Point(17256315274839085951460383359477120338705730100085167250100861170794470772637,3419545622500035714248118081256268218279679027326858006315366263619362796192);\n        vk.IC[9] = Pairing.G1Point(2593537711230008662417588173639335118988856157197429149412196836978036476028,8538157445492015981727851706347554419011993838886631881562298143422560139294);\n        vk.IC[10] = Pairing.G1Point(14477989853705726354071915375794761972851384384757175470793846199714539784558,14079929937676588910688882040816627480763684460772620450631541411202100526288);\n        vk.IC[11] = Pairing.G1Point(4908367875710967666263674799257760084919139359752249693676456246609727636200,5893464791638555403716448258880869242115708620115670515122632157362553235348);\n        vk.IC[12] = Pairing.G1Point(13892778185221937690942368826832812063265428592570499824044925689738310219507,11461753429365510455202142741940060316305242731650721498478106876233632658526);\n        vk.IC[13] = Pairing.G1Point(10682134970087788592471914065872857208315069548941037969986310598376249004732,14820627352105689049749766052640486401273173176923086067015878857939901878602);\n        vk.IC[14] = Pairing.G1Point(2119772198982403375642033192857705104561760415182630621394416503820521967779,16584064631567314702849101035907475762114845357796927805769715977242748798669);\n        vk.IC[15] = Pairing.G1Point(468001957379087412141235349803020719399535626031098531020103076502018103392,9731847692529878033421967337165792006328738092348010242836175102062482640062);\n        vk.IC[16] = Pairing.G1Point(5976854251484892985782710636217625469859800520275598568134507262077496024875,20318938400718660685673332319353492933668237552172622506369401471105652570305);\n        vk.IC[17] = Pairing.G1Point(2270094903612716086771825446969605944149896602655214340134275658651750853226,18941736206768559100014313431303112513260697052358590666556859967328261755214);\n        vk.IC[18] = Pairing.G1Point(12403449502829396741529042798889605750120840857422439904793273456469011902972,9789585080677337609512672344440040203261250373286666180411916849321683055718);\n        vk.IC[19] = Pairing.G1Point(5555650403718658868411141337590093679981609731619594603339902419923925020353,20995211797979700202498069667261619609850065140932834745505873830679692372592);\n        vk.IC[20] = Pairing.G1Point(17021767833623025872249331730705710377933197645216218331094616026361430597609,21329825675699865933034689118999077871032105338144922154354087349843672509618);\n        vk.IC[21] = Pairing.G1Point(13558385097045770902864137581806672992871490316835972998797790572516541506114,5871014328309830011352420589638285888179320152051847574807457074880403066141);\n        vk.IC[22] = Pairing.G1Point(16424514168975252965671923544446270352171954723319017563341096325380655713361,10859685700990652881520664344470801502388465114367176442614087797358727366623);\n        vk.IC[23] = Pairing.G1Point(5959902219511275843292344410423896996238815584716983284173265190637438847590,9866932316233122640717186062840841537434267117425416230387060170619909871391);\n        vk.IC[24] = Pairing.G1Point(1603092778495767604469588986389709237236493500171281056848466995620519963878,10011230165505730565598760395108917820136844145671763984779303282793398036278);\n        vk.IC[25] = Pairing.G1Point(19445203104268502694085960460918715911378008052266742102134951305696244481932,18844398769848149633147971476338348359312024666594833610275881857280050865385);\n        vk.IC[26] = Pairing.G1Point(1911019365654561636810416312706988526422489945391846257575313065585724936388,4328460448192713619136628242809821670510740784986141355766087498495263044440);\n        vk.IC[27] = Pairing.G1Point(7308114787300765260833382420461011775799539650740129702114708263446235846501,14889543655495891179002456830623939070826438837228365469197541904090781285175);\n        vk.IC[28] = Pairing.G1Point(21639806011468686866574898817328015655531783301049300937998792525082477069075,275600735308784979838399243296684752583895839757668037687219635002720004115);\n        vk.IC[29] = Pairing.G1Point(20376116057487924525276918026031289707778502172020349017437375506132045737517,19626268801008909613613890378709127489942986964980481543791425928839613527266);\n        vk.IC[30] = Pairing.G1Point(13592009692949030004574896973195032080900164083505630280697715821763123369164,5790907420455211091536725334579794280394459354328483860650869413952658359343);\n        vk.IC[31] = Pairing.G1Point(1628493535906882612797992608275773632370164503966508208193089026140677105123,13482183750711332376169797918240691246931490543951556091861566531310767503698);\n        vk.IC[32] = Pairing.G1Point(18259742122100526632130511216014839454173201065604812935967390249533409095042,5280386665815101163919341992262974722171658412973558382680082465740734248990);\n        vk.IC[33] = Pairing.G1Point(6443894117860652890119529010273675480419927094850244013306680814669496732337,11867190429733051312323586554625563629455203502247421507932910643975163792166);\n        vk.IC[34] = Pairing.G1Point(14881820047534513998342158226070155246972777382419986458007544494090526092189,21439288798623183508506732895142794473218295271986600930799453199416275082474);\n        vk.IC[35] = Pairing.G1Point(6637337966321834484004997695297890794429484223988098988196214552643297179527,4140984639167223308355869685451740772856320877650177711101971172889089529744);\n        vk.IC[36] = Pairing.G1Point(14320962606625310252457563082348347637781609365245721306020447239610881132573,4355428558647072618942274565841030436504076288251109685532050786296048117047);\n        vk.IC[37] = Pairing.G1Point(15366769631851752354143870656040697905161609081800490314563812863474624292450,4662453582922910336824127766333371939884681188295201896157157328891342699708);\n        vk.IC[38] = Pairing.G1Point(17721891774056849019223190636020057314863547956224207111926175144984438341674,6175192763929100699638150965668647330732349761476747365579610301167554102544);\n        vk.IC[39] = Pairing.G1Point(12108556731527282476656416278846047917916614928311966513552277657271130491935,12482533820340806038841922711984697523097157464283617092458735682492807434689);\n        vk.IC[40] = Pairing.G1Point(18886092892941247857051157848944267364349578158082972696311532364504024371981,19812052634637182218047217965035478162772751733537338114674670792578859230909);\n        vk.IC[41] = Pairing.G1Point(3723725291911652431008916713263794352220829189736925775917633975310219729453,20463189283374303708989740698253633548346610467325597828389662987611493042372);\n        vk.IC[42] = Pairing.G1Point(13275998810754415624632619359378959965142615339099289942518847164921612336349,955114550629205825342327224716527590631889353685073541925190495009566832234);\n        vk.IC[43] = Pairing.G1Point(8127814461915026185786513617437682859742298705009503581737619364170030447116,21815819203989494603085212132332810378548897564403488275705674583099354027961);\n        vk.IC[44] = Pairing.G1Point(7487475274169718977265746701319573156726267921915085570273189839189674445754,5201014436553051239372574945567405202353368683371168424706141117865315558571);\n        vk.IC[45] = Pairing.G1Point(5924521840605251028718217723025645499739101773307750914599024520374451885719,19428818752090942780423549177176836985207944484638996290285447987180802804701);\n        vk.IC[46] = Pairing.G1Point(19236678798478568184257218598238736474256699019074034203560137661980839276026,3139750861809295800845306937286058569462063739980203065998438406055759875643);\n        vk.IC[47] = Pairing.G1Point(2418570367199724236587628998150956846382594750061617948621490926643435241166,3127319167851697820463127295938241108917118724647062263004343701785256270853);\n        vk.IC[48] = Pairing.G1Point(10909492437751379338188199652628936747937724199500813788942572863509477583010,4833308865394489067757406533756587852982195128697164261612054340912519530021);\n        vk.IC[49] = Pairing.G1Point(4625826633705154901376833829227093358179171397356950311175901450119871326092,117381311528237548316177716726652775298685292414608571831406223150392712462);\n        vk.IC[50] = Pairing.G1Point(11341370844202293686695076488062249710145992973415434244350913310878091873666,2679592152865543054483479749342604715904461512197943637959128980231382841200);\n        vk.IC[51] = Pairing.G1Point(17609783486458107655758975986039577766535204121270405693756192976423973524335,10170503815852453711175195241826129330807849924579505856085876739462624724479);\n        vk.IC[52] = Pairing.G1Point(13618393604972347384993673349559696624891668790999087327294997970318668323093,8597452137927565226995995089969355848121140362662198798261258182931073349319);\n        vk.IC[53] = Pairing.G1Point(1369052766836407521905711845908024536009180793492574158258994707081494629126,5291609899883605798795618997799719454716671977081560623022622321418203167294);\n        vk.IC[54] = Pairing.G1Point(17476288512285277772225244608787933636200743838838180917949789071831401016014,6832015928227769155216978404915572773960282476794917046601166303693051471745);\n        vk.IC[55] = Pairing.G1Point(21058356558830289350565492498601960315583764018539526572244572347296204478038,17800635316802079857985933967175756927585005558861771454945139618335207360711);\n        vk.IC[56] = Pairing.G1Point(18887475735208246902422084857021154587515200986100034744871684624373946415913,3650665502072512890897429420208767872268785767071942030996307571559141487708);\n        vk.IC[57] = Pairing.G1Point(15304064583441452978954055182325447214811873398750472936801929759372769521146,17092533988014354887696753785030909830699886830432410934834150980380514405170);\n        vk.IC[58] = Pairing.G1Point(16354407224230673074519339586655638610503081836647667623814986520923128018304,14634681859267375125892101837735696597319439744437447535401719559097971351455);\n        vk.IC[59] = Pairing.G1Point(12585902321015589710750473831345538579594885660392175544266943980185107256475,16846205462256028916608587497640916256009966086610491220765532912482788390078);\n        vk.IC[60] = Pairing.G1Point(2836547022425044839446597422595984953559741793057146651032784897916670862069,14680012359072743282778864393068598563840082316045178716989359524680577165475);\n        vk.IC[61] = Pairing.G1Point(18393769942279282096214366696214413150699038871158688647211565624514527849392,7981636551400248764661025095601068852514128948613622986065038662691862387376);\n        vk.IC[62] = Pairing.G1Point(10161078628644772598592962445722855578830661774777967820495819026431002518978,4370368967094023783400667941476469380409134561441586711173238550029390078353);\n        vk.IC[63] = Pairing.G1Point(15991382879423061578448912025088146061472641152821240476698212938417185043590,18528810281409510059333307827296819647613027561293767272468138362600263910549);\n        vk.IC[64] = Pairing.G1Point(13488558318757673080630118417722258367210955494845688715526714694383764632691,10768365596290933051792097181200388080820860152849956405537111876553748533095);\n        vk.IC[65] = Pairing.G1Point(6294570834404379157120404560626050945001702167718369151449240697461399207765,15262692464738031660590757261876215632944396848801632595263420988013425649164);\n        vk.IC[66] = Pairing.G1Point(5254670366770595355569466561966025019365199127587454188257730813806778861067,5639616150685136047185423867058269716038127649009044566452559645581371798232);\n        vk.IC[67] = Pairing.G1Point(2400100796099387260745572593392152325140535099144522997314085534858057202680,10533470923933987502111425539154459595857278505795487806706476804277800520038);\n        vk.IC[68] = Pairing.G1Point(12935282714460277342114665201409752315488661294431207384670060552874438335158,828501777107482430943914474918568920393042113401745586134081630861783455815);\n        vk.IC[69] = Pairing.G1Point(3618107037133662130747042116616178538201174837185816495502426503643421771480,9810304793163420473046485569772617330611338546359940735484483613688208767100);\n        vk.IC[70] = Pairing.G1Point(11847365271961743112246538565264415572626267982126675499909493380730378601211,14443215701231430129607739720838768432913949491784252387386453049974072161304);\n        vk.IC[71] = Pairing.G1Point(19379915436956259538203796966944433337314602904685604687960094736042649548850,21731282089782595946507974582620161483135781361201699367390693612118206763166);\n        vk.IC[72] = Pairing.G1Point(8670582306602957602139524430520615232224626571924879767989932788601657839705,20240028149930178111462288386187661110065256257878495499833413530580948192186);\n        vk.IC[73] = Pairing.G1Point(19262157674978253529639757124209766280653698409733333105849034575557766075911,18725662471334144719357179778861522927362841480715456595808944062597734164275);\n        vk.IC[74] = Pairing.G1Point(11937351694275207805677793096189119640182395483145378829494130992045932932402,5149272607548704818551955758867493163087655822305808745009971890956465302791);\n        vk.IC[75] = Pairing.G1Point(11285338166073136340379912263641508759210185975865523694926277700656594983644,5262459907463066682994761139940562703101782582158732741180946102279509050491);\n        vk.IC[76] = Pairing.G1Point(14994531650932758871093989350546205547229807289967028407117565052239974368698,14979877544220660228096614568276545551309086537594372178701202957917993083782);\n        vk.IC[77] = Pairing.G1Point(18931373465063016006121147683817814466552635911668031136571217299991600857607,20616092188597992274873866725265078081992714549906685698186638821742655966006);\n        vk.IC[78] = Pairing.G1Point(16223759085688278400243737214298940025086302967245013976512729188869096169439,8000347989417858696194529542521801256538999085466241451994717760398357025237);\n        vk.IC[79] = Pairing.G1Point(623443864713442841981849089448604141181773933775966914579776605230250032497,2379999033595175627263823931205226554474139461391422077483569058966826408345);\n        vk.IC[80] = Pairing.G1Point(21226775635762391344854052525875686072078791247455126973907668311431835458639,17027178338091034635381390209421024984033427567419893813056709396110422687589);\n        vk.IC[81] = Pairing.G1Point(4406531262486869929739147572658540207438262627402337401159835776875728663789,220385918634829015545468867180066353049242465866175752563162610148191013434);\n        vk.IC[82] = Pairing.G1Point(9797207478561423315143138309744701334893639486137377802308890232992477513720,2586950816627416917451641234260253308949163330009005231120465814213477098084);\n        vk.IC[83] = Pairing.G1Point(15309200365081882408231201087428425254163549204077840425964328690772346033670,1420653871088013895417137322639493713879329388707684458719358558188436055909);\n        vk.IC[84] = Pairing.G1Point(5395748123924977912477727326786701019012034070214199738229322577914878760547,7628200684351438536743882074776075848369438315729954233891518806298773543307);\n        vk.IC[85] = Pairing.G1Point(352873088429432859429827976930730144447342272143569996853788758955913360951,13557940319268929136671986360637249073021349865497838232871747533161773674948);\n        vk.IC[86] = Pairing.G1Point(20390847446322870632012348429141050569716681622655209013227534192933040047286,16601725957725371315244958994186136321295718657589978469349981368781290668594);\n        vk.IC[87] = Pairing.G1Point(10171244392133486272864208287484656347521017906039416227854049812946279320105,2630827206962916085171272711240866826225252545527472551573751508980174876091);\n        vk.IC[88] = Pairing.G1Point(16352531007904215608094300232648495143595817948682623907427871458784950883796,16993693916466767903607317444132484836266649207098497892404903026424443571716);\n        vk.IC[89] = Pairing.G1Point(603223061726511291440476385657363196101553796742553306946625645081493057269,13685063534092212994103810927659411074476571548106779360960364193910339420723);\n        vk.IC[90] = Pairing.G1Point(20482788618592301804362137780552543066760313879343668976341131329158666578335,10119970067501433949931252516195299415177432098847426604939527819895209325599);\n        vk.IC[91] = Pairing.G1Point(2286917222416974411137929857213038335498658734765087792683880526591855212682,8386238751216926859196104203141517321604366389861372745269174839337885898975);\n        vk.IC[92] = Pairing.G1Point(15324926480317494716032023374514633735806847765119736427811010194963001692421,10189091463447429155875471067647784384205623678977633060470897435180531628153);\n        vk.IC[93] = Pairing.G1Point(19735006490529947214832901256389474816550406461720124117769379813998530963613,19195008944688234958527214663405723410047176990567036258258453159107662227963);\n        vk.IC[94] = Pairing.G1Point(3773047036482552425932436266063563132694524670151434200639461194180781141756,1123197365687992723762170002716778183937672523336845843814102502661718722217);\n        vk.IC[95] = Pairing.G1Point(14790301436962306445742567184681328955778087717603783082398421514413106175959,3664262733113936439151537901275565274617302021345114406122049344244233132731);\n        vk.IC[96] = Pairing.G1Point(7495743442452609231032661340728478229362466212014591137686159112363208668777,10251074652941314300740989711880914433717637456150656228254458047351225953486);\n        vk.IC[97] = Pairing.G1Point(12991196094489557947450463221167441136828652071786536768418099339232436003142,2681647771395556588691524032966418546665225547190996070629047477265207346855);\n        vk.IC[98] = Pairing.G1Point(17954690883096938828060234193965975290699093120389901540291552765387478654653,13949701574189136535120046399140852023755864585250094436654725028812386703504);\n        vk.IC[99] = Pairing.G1Point(6026273861623455551050623210276804173703022085693153508904372896159829096394,1781686254775648768045384902355242197382883159277642260121721641318534031512);\n        vk.IC[100] = Pairing.G1Point(2883336496924528435374250979286473163150430963168096134363354458270160268956,6830892926711966851101701577055790982801152188763943324837126760195364273175);\n\n    }\n    function verify(uint[] memory input, Proof memory proof) internal view returns (uint) {\n        uint256 snark_scalar_field = 21888242871839275222246405745257275088548364400416034343698204186575808495617;\n        VerifyingKey memory vk = verifyingKey();\n        require(input.length + 1 == vk.IC.length,\"verifier-bad-input\");\n        // Compute the linear combination vk_x\n        Pairing.G1Point memory vk_x = Pairing.G1Point(0, 0);\n        for (uint i = 0; i < input.length; i++) {\n            require(input[i] < snark_scalar_field,\"verifier-gte-snark-scalar-field\");\n            vk_x = Pairing.addition(vk_x, Pairing.scalar_mul(vk.IC[i + 1], input[i]));\n        }\n        vk_x = Pairing.addition(vk_x, vk.IC[0]);\n        if (!Pairing.pairingProd4(\n            Pairing.negate(proof.A), proof.B,\n            vk.alfa1, vk.beta2,\n            vk_x, vk.gamma2,\n            proof.C, vk.delta2\n        )) return 1;\n        return 0;\n    }\n    function verifyProof(\n            uint[2] memory a,\n            uint[2][2] memory b,\n            uint[2] memory c,\n            uint[100] memory input\n        ) public view returns (bool r) {\n        Proof memory proof;\n        proof.A = Pairing.G1Point(a[0], a[1]);\n        proof.B = Pairing.G2Point([b[0][0], b[0][1]], [b[1][0], b[1][1]]);\n        proof.C = Pairing.G1Point(c[0], c[1]);\n        uint[] memory inputValues = new uint[](input.length);\n        for(uint i = 0; i < input.length; i++){\n            inputValues[i] = input[i];\n        }\n        if (verify(inputValues, proof) == 0) {\n            return true;\n        } else {\n            return false;\n        }\n    }\n}\n",
  "sourcePath": "/Users/turboblitz/code/my-code/zkrsa/circom-rsa-verify/contracts/contracts/RsaSha256Verifier.sol",
  "compiler": {
    "name": "solc",
    "version": "0.5.1+commit.c8a2cb62.Emscripten.clang"
  },
  "schemaVersion": "3.4.14",
  "updatedAt": "2023-07-22T11:41:41.725Z",
  "devdoc": {
    "methods": {}
  },
  "userdoc": {
    "methods": {}
  }
}