{
  "_format": "hh-sol-artifact-1",
  "contractName": "OpenPassportRegister",
  "sourceName": "contracts/OpenPassportRegister.sol",
  "abi": [
    {
      "inputs": [
        {
          "internalType": "contract Registry",
          "name": "r",
          "type": "address"
        }
      ],
      "stateMutability": "nonpayable",
      "type": "constructor"
    },
    {
      "inputs": [],
      "name": "LeafAlreadyExists",
      "type": "error"
    },
    {
      "inputs": [],
      "name": "LeafCannotBeZero",
      "type": "error"
    },
    {
      "inputs": [],
      "name": "LeafDoesNotExist",
      "type": "error"
    },
    {
      "inputs": [],
      "name": "LeafGreaterThanSnarkScalarField",
      "type": "error"
    },
    {
      "inputs": [],
      "name": "Register__BlindedDSCCommitmentDontMatch",
      "type": "error"
    },
    {
      "inputs": [],
      "name": "Register__InvalidMerkleRoot",
      "type": "error"
    },
    {
      "inputs": [],
      "name": "Register__InvalidProof",
      "type": "error"
    },
    {
      "inputs": [],
      "name": "Register__InvalidSignatureAlgorithm",
      "type": "error"
    },
    {
      "inputs": [],
      "name": "Register__InvalidVerifierAddress",
      "type": "error"
    },
    {
      "inputs": [],
      "name": "Register__SignatureAlgorithmAlreadySet",
      "type": "error"
    },
    {
      "inputs": [],
      "name": "Register__YouAreUsingTheSameNullifierTwice",
      "type": "error"
    },
    {
      "anonymous": false,
      "inputs": [
        {
          "indexed": false,
          "internalType": "uint256",
          "name": "index",
          "type": "uint256"
        },
        {
          "indexed": false,
          "internalType": "uint256",
          "name": "commitment",
          "type": "uint256"
        },
        {
          "indexed": false,
          "internalType": "uint256",
          "name": "merkle_root",
          "type": "uint256"
        }
      ],
      "name": "AddCommitment",
      "type": "event"
    },
    {
      "anonymous": false,
      "inputs": [
        {
          "indexed": true,
          "internalType": "address",
          "name": "previousOwner",
          "type": "address"
        },
        {
          "indexed": true,
          "internalType": "address",
          "name": "newOwner",
          "type": "address"
        }
      ],
      "name": "OwnershipTransferred",
      "type": "event"
    },
    {
      "anonymous": false,
      "inputs": [
        {
          "indexed": false,
          "internalType": "uint256",
          "name": "merkle_root",
          "type": "uint256"
        },
        {
          "indexed": false,
          "internalType": "uint256",
          "name": "nullifier",
          "type": "uint256"
        },
        {
          "indexed": false,
          "internalType": "uint256",
          "name": "commitment",
          "type": "uint256"
        }
      ],
      "name": "ProofValidated",
      "type": "event"
    },
    {
      "inputs": [
        {
          "internalType": "uint256",
          "name": "signature_algorithm_csca",
          "type": "uint256"
        },
        {
          "internalType": "address",
          "name": "_cscaVerifier",
          "type": "address"
        }
      ],
      "name": "addCSCAVerifier",
      "outputs": [],
      "stateMutability": "nonpayable",
      "type": "function"
    },
    {
      "inputs": [
        {
          "internalType": "uint256",
          "name": "signature_algorithm",
          "type": "uint256"
        },
        {
          "internalType": "address",
          "name": "verifier_address",
          "type": "address"
        }
      ],
      "name": "addSignatureAlgorithm",
      "outputs": [],
      "stateMutability": "nonpayable",
      "type": "function"
    },
    {
      "inputs": [],
      "name": "attestationId",
      "outputs": [
        {
          "internalType": "bytes32",
          "name": "",
          "type": "bytes32"
        }
      ],
      "stateMutability": "view",
      "type": "function"
    },
    {
      "inputs": [
        {
          "internalType": "uint256",
          "name": "root",
          "type": "uint256"
        }
      ],
      "name": "checkRoot",
      "outputs": [
        {
          "internalType": "bool",
          "name": "",
          "type": "bool"
        }
      ],
      "stateMutability": "view",
      "type": "function"
    },
    {
      "inputs": [
        {
          "internalType": "uint256",
          "name": "",
          "type": "uint256"
        }
      ],
      "name": "cscaVerifier",
      "outputs": [
        {
          "internalType": "address",
          "name": "",
          "type": "address"
        }
      ],
      "stateMutability": "view",
      "type": "function"
    },
    {
      "inputs": [
        {
          "internalType": "uint256",
          "name": "commitment",
          "type": "uint256"
        }
      ],
      "name": "devAddCommitment",
      "outputs": [],
      "stateMutability": "nonpayable",
      "type": "function"
    },
    {
      "inputs": [],
      "name": "getMerkleRoot",
      "outputs": [
        {
          "internalType": "uint256",
          "name": "",
          "type": "uint256"
        }
      ],
      "stateMutability": "view",
      "type": "function"
    },
    {
      "inputs": [],
      "name": "getMerkleTreeSize",
      "outputs": [
        {
          "internalType": "uint256",
          "name": "",
          "type": "uint256"
        }
      ],
      "stateMutability": "view",
      "type": "function"
    },
    {
      "inputs": [
        {
          "internalType": "uint256",
          "name": "commitment",
          "type": "uint256"
        }
      ],
      "name": "indexOf",
      "outputs": [
        {
          "internalType": "uint256",
          "name": "",
          "type": "uint256"
        }
      ],
      "stateMutability": "view",
      "type": "function"
    },
    {
      "inputs": [
        {
          "internalType": "uint256",
          "name": "",
          "type": "uint256"
        }
      ],
      "name": "merkleRootsCreated",
      "outputs": [
        {
          "internalType": "bool",
          "name": "",
          "type": "bool"
        }
      ],
      "stateMutability": "view",
      "type": "function"
    },
    {
      "inputs": [
        {
          "internalType": "uint256",
          "name": "",
          "type": "uint256"
        }
      ],
      "name": "nullifiers",
      "outputs": [
        {
          "internalType": "bool",
          "name": "",
          "type": "bool"
        }
      ],
      "stateMutability": "view",
      "type": "function"
    },
    {
      "inputs": [],
      "name": "owner",
      "outputs": [
        {
          "internalType": "address",
          "name": "",
          "type": "address"
        }
      ],
      "stateMutability": "view",
      "type": "function"
    },
    {
      "inputs": [],
      "name": "registry",
      "outputs": [
        {
          "internalType": "contract Registry",
          "name": "",
          "type": "address"
        }
      ],
      "stateMutability": "view",
      "type": "function"
    },
    {
      "inputs": [
        {
          "internalType": "uint256",
          "name": "signature_algorithm_csca",
          "type": "uint256"
        }
      ],
      "name": "removeCSCAVerifier",
      "outputs": [],
      "stateMutability": "nonpayable",
      "type": "function"
    },
    {
      "inputs": [
        {
          "internalType": "uint256",
          "name": "signature_algorithm",
          "type": "uint256"
        }
      ],
      "name": "removeSignatureAlgorithm",
      "outputs": [],
      "stateMutability": "nonpayable",
      "type": "function"
    },
    {
      "inputs": [],
      "name": "renounceOwnership",
      "outputs": [],
      "stateMutability": "nonpayable",
      "type": "function"
    },
    {
      "inputs": [
        {
          "internalType": "address",
          "name": "newOwner",
          "type": "address"
        }
      ],
      "name": "transferOwnership",
      "outputs": [],
      "stateMutability": "nonpayable",
      "type": "function"
    },
    {
      "inputs": [
        {
          "internalType": "uint256",
          "name": "signature_algorithm_csca",
          "type": "uint256"
        },
        {
          "internalType": "address",
          "name": "_cscaVerifier",
          "type": "address"
        }
      ],
      "name": "updateCSCAVerifier",
      "outputs": [],
      "stateMutability": "nonpayable",
      "type": "function"
    },
    {
      "inputs": [
        {
          "internalType": "uint256",
          "name": "signature_algorithm",
          "type": "uint256"
        },
        {
          "internalType": "address",
          "name": "verifier_address",
          "type": "address"
        }
      ],
      "name": "updateSignaturesAlgorithm",
      "outputs": [],
      "stateMutability": "nonpayable",
      "type": "function"
    },
    {
      "inputs": [
        {
          "components": [
            {
              "internalType": "uint256",
              "name": "blinded_dsc_commitment",
              "type": "uint256"
            },
            {
              "internalType": "uint256",
              "name": "nullifier",
              "type": "uint256"
            },
            {
              "internalType": "uint256",
              "name": "commitment",
              "type": "uint256"
            },
            {
              "internalType": "uint256",
              "name": "attestation_id",
              "type": "uint256"
            },
            {
              "internalType": "uint256[2]",
              "name": "a",
              "type": "uint256[2]"
            },
            {
              "internalType": "uint256[2][2]",
              "name": "b",
              "type": "uint256[2][2]"
            },
            {
              "internalType": "uint256[2]",
              "name": "c",
              "type": "uint256[2]"
            }
          ],
          "internalType": "struct IRegister.RegisterProof",
          "name": "proof",
          "type": "tuple"
        },
        {
          "components": [
            {
              "internalType": "uint256",
              "name": "blinded_dsc_commitment",
              "type": "uint256"
            },
            {
              "internalType": "uint256",
              "name": "merkle_root",
              "type": "uint256"
            },
            {
              "internalType": "uint256[2]",
              "name": "a",
              "type": "uint256[2]"
            },
            {
              "internalType": "uint256[2][2]",
              "name": "b",
              "type": "uint256[2][2]"
            },
            {
              "internalType": "uint256[2]",
              "name": "c",
              "type": "uint256[2]"
            }
          ],
          "internalType": "struct IRegister.CSCAProof",
          "name": "proof_csca",
          "type": "tuple"
        },
        {
          "internalType": "uint256",
          "name": "signature_algorithm",
          "type": "uint256"
        },
        {
          "internalType": "uint256",
          "name": "signature_algorithm_csca",
          "type": "uint256"
        }
      ],
      "name": "validateProof",
      "outputs": [],
      "stateMutability": "nonpayable",
      "type": "function"
    },
    {
      "inputs": [
        {
          "internalType": "uint256",
          "name": "",
          "type": "uint256"
        }
      ],
      "name": "verifiers",
      "outputs": [
        {
          "internalType": "address",
          "name": "",
          "type": "address"
        }
      ],
      "stateMutability": "view",
      "type": "function"
    },
    {
      "inputs": [
        {
          "components": [
            {
              "internalType": "uint256",
              "name": "blinded_dsc_commitment",
              "type": "uint256"
            },
            {
              "internalType": "uint256",
              "name": "nullifier",
              "type": "uint256"
            },
            {
              "internalType": "uint256",
              "name": "commitment",
              "type": "uint256"
            },
            {
              "internalType": "uint256",
              "name": "attestation_id",
              "type": "uint256"
            },
            {
              "internalType": "uint256[2]",
              "name": "a",
              "type": "uint256[2]"
            },
            {
              "internalType": "uint256[2][2]",
              "name": "b",
              "type": "uint256[2][2]"
            },
            {
              "internalType": "uint256[2]",
              "name": "c",
              "type": "uint256[2]"
            }
          ],
          "internalType": "struct IRegister.RegisterProof",
          "name": "proof",
          "type": "tuple"
        },
        {
          "components": [
            {
              "internalType": "uint256",
              "name": "blinded_dsc_commitment",
              "type": "uint256"
            },
            {
              "internalType": "uint256",
              "name": "merkle_root",
              "type": "uint256"
            },
            {
              "internalType": "uint256[2]",
              "name": "a",
              "type": "uint256[2]"
            },
            {
              "internalType": "uint256[2][2]",
              "name": "b",
              "type": "uint256[2][2]"
            },
            {
              "internalType": "uint256[2]",
              "name": "c",
              "type": "uint256[2]"
            }
          ],
          "internalType": "struct IRegister.CSCAProof",
          "name": "proof_csca",
          "type": "tuple"
        },
        {
          "internalType": "uint256",
          "name": "signature_algorithm",
          "type": "uint256"
        },
        {
          "internalType": "uint256",
          "name": "signature_algorithm_csca",
          "type": "uint256"
        }
      ],
      "name": "verifyProof",
      "outputs": [
        {
          "internalType": "bool",
          "name": "",
          "type": "bool"
        }
      ],
      "stateMutability": "view",
      "type": "function"
    }
  ],
  "bytecode": "0x60a06040527f12d57183e0a41615471a14e5a93c87b9db757118c1d7a6a9f73106819d656f246005553480156200003557600080fd5b5060405162001254380380620012548339810160408190526200005891620001b3565b620000633362000082565b6001600160a01b0381166080526200007b33620000d2565b50620001e5565b600080546001600160a01b038381166001600160a01b0319831681178455604051919092169283917f8be0079c531659141344cd1fd0a4f28419497f9722a3daafe3b4186f6b6457e09190a35050565b620000dc62000155565b6001600160a01b038116620001475760405162461bcd60e51b815260206004820152602660248201527f4f776e61626c653a206e6577206f776e657220697320746865207a65726f206160448201526564647265737360d01b60648201526084015b60405180910390fd5b620001528162000082565b50565b6000546001600160a01b03163314620001b15760405162461bcd60e51b815260206004820181905260248201527f4f776e61626c653a2063616c6c6572206973206e6f7420746865206f776e657260448201526064016200013e565b565b600060208284031215620001c657600080fd5b81516001600160a01b0381168114620001de57600080fd5b9392505050565b60805161104c62000208600039600081816101f501526106a5015261104c6000f3fe608060405234801561001057600080fd5b50600436106101425760003560e01c8063930253d3116100b8578063c2e0b5231161007c578063c2e0b523146102d8578063d21e82ab14610301578063e8279ca014610324578063f2fde38b1461032c578063f756024b1461033f578063fb8d5a9c1461035257600080fd5b8063930253d31461026657806395b307e2146102895780639ae48fc01461022f578063ac1eff681461029c578063bae955da146102c557600080fd5b8063685570bb1161010a578063685570bb146101d5578063715018a6146101e85780637b103999146101f05780637e92ba6a1461022f5780638da5cb5b1461024257806391ac7e651461025357600080fd5b8063053a9dee146101475780630c3f01741461015c5780633d218f2e1461019457806349590657146101ab5780635f1b9285146101c2575b600080fd5b61015a610155366004610cdb565b610365565b005b61017f61016a366004610d07565b60009081526007602052604090205460ff1690565b60405190151581526020015b60405180910390f35b61019d60055481565b60405190815260200161018b565b60025460009081526003602052604090205461019d565b61015a6101d0366004610d07565b6103ca565b61015a6101e3366004610d07565b6103f0565b61015a610416565b6102177f000000000000000000000000000000000000000000000000000000000000000081565b6040516001600160a01b03909116815260200161018b565b61015a61023d366004610cdb565b61042a565b6000546001600160a01b0316610217565b61019d610261366004610d07565b610486565b61017f610274366004610d07565b60076020526000908152604090205460ff1681565b61015a610297366004610d07565b610499565b6102176102aa366004610d07565b6008602052600090815260409020546001600160a01b031681565b61017f6102d3366004610d20565b6104ad565b6102176102e6366004610d07565b6009602052600090815260409020546001600160a01b031681565b61017f61030f366004610d07565b60066020526000908152604090205460ff1681565b60015461019d565b61015a61033a366004610d7a565b610616565b61015a61034d366004610d20565b61068c565b61015a610360366004610cdb565b6108c7565b61036d610969565b6001600160a01b03811661039c5760405162461bcd60e51b815260040161039390610d95565b60405180910390fd5b60009182526008602052604090912080546001600160a01b0319166001600160a01b03909216919091179055565b6103d2610969565b600090815260086020526040902080546001600160a01b0319169055565b6103f8610969565b600090815260096020526040902080546001600160a01b0319169055565b61041e610969565b61042860006109c3565b565b610432610969565b6001600160a01b0381166104585760405162461bcd60e51b815260040161039390610d95565b60009182526009602052604090912080546001600160a01b0319166001600160a01b03909216919091179055565b6000610493600183610a13565b92915050565b6104a1610969565b6104aa81610a67565b50565b60008281526008602090815260408083205481516080818101845289358252898501359482019490945288830135818401526060808a0135908201529151635fe8c13b60e01b81526001600160a01b0390911692635fe8c13b9261052292918a019160c08b01916101408c0191600401610df4565b602060405180830381865afa15801561053f573d6000803e3d6000fd5b505050506040513d601f19601f820116820180604052508101906105639190610e47565b801561060d575060008281526009602090815260409182902054825180840184528735815287830135928101929092528251637ae4eb4f60e11b81526001600160a01b039091169263f5c9d69e926105cc929189019160808a01916101008b0191600401610e69565b602060405180830381865afa1580156105e9573d6000803e3d6000fd5b505050506040513d601f19601f8201168201806040525081019061060d9190610e47565b95945050505050565b61061e610969565b6001600160a01b0381166106835760405162461bcd60e51b815260206004820152602660248201527f4f776e61626c653a206e6577206f776e657220697320746865207a65726f206160448201526564647265737360d01b6064820152608401610393565b6104aa816109c3565b6040516306c8442b60e01b8152602084013560048201527f00000000000000000000000000000000000000000000000000000000000000006001600160a01b0316906306c8442b90602401602060405180830381865afa1580156106f4573d6000803e3d6000fd5b505050506040513d601f19601f820116820180604052508101906107189190610e47565b6107585760405162461bcd60e51b8152602060048201526011602482015270125b9d985b1a5913595c9adb19549bdbdd607a1b6044820152606401610393565b6005546060850135146107a45760405162461bcd60e51b8152602060048201526014602482015273125b9d985b1a59105d1d195cdd185d1a5bdb925960621b6044820152606401610393565b6107b0848484846104ad565b6107eb5760405162461bcd60e51b815260206004820152600c60248201526b24b73b30b634b2283937b7b360a11b6044820152606401610393565b833583351461084c5760405162461bcd60e51b815260206004820152602760248201527f52656769737465725f5f426c696e646564445343436f6d6d69746d656e74446f6044820152660dce89ac2e8c6d60cb1b6064820152608401610393565b60208085013560009081526006909152604090819020805460ff1916600117905561087990850135610a67565b6040805160208581013582528681013590820152858201358183015290517f20fa34be2f576b14b2386fc4efd8aba002a22414694e0caa8dfbe6dcca80446f9181900360600190a150505050565b6108cf610969565b6001600160a01b0381166108f55760405162461bcd60e51b815260040161039390610d95565b6000828152600860205260409020546001600160a01b03161561039c5760405162461bcd60e51b815260206004820152602660248201527f52656769737465725f5f5369676e6174757265416c676f726974686d416c726560448201526518591e54d95d60d21b6064820152608401610393565b6000546001600160a01b031633146104285760405162461bcd60e51b815260206004820181905260248201527f4f776e61626c653a2063616c6c6572206973206e6f7420746865206f776e65726044820152606401610393565b600080546001600160a01b038381166001600160a01b0319831681178455604051919092169283917f8be0079c531659141344cd1fd0a4f28419497f9722a3daafe3b4186f6b6457e09190a35050565b60008181526003830160205260408120548103610a4357604051631c811d5b60e21b815260040160405180910390fd5b6000828152600384016020526040902054610a6090600190610ec6565b9392505050565b6000610a7260015490565b90506000610a81600184610ae4565b600081815260076020908152604091829020805460ff1916600117905581518581529081018690529081018290529091507f224901e059e15209e82e03662716a6512d959c05536d0c057e0cd52ef6345ebd9060600160405180910390a1505050565b60007f30644e72e131a029b85045b68181585d2833e84879b9709143e1f593f00000018210610b26576040516361c0541760e11b815260040160405180910390fd5b81600003610b47576040516314b48df160e11b815260040160405180910390fd5b600082815260038401602052604090205415610b76576040516312c50cad60e11b815260040160405180910390fd5b825460018085015490610b8a908390610ed9565b610b95826002610fd0565b1015610ba757610ba481610fdc565b90505b600185018190558360005b82811015610c84578084901c600116600103610c6857604080518082018252600083815260028a0160209081529083902054825281018490529051632b0aac7f60e11b815273__$75f79a42d9bcbdbb69ad79ebd80f556f39$__9163561558fe91610c209190600401610ff5565b602060405180830381865af4158015610c3d573d6000803e3d6000fd5b505050506040513d601f19601f82011682018060405250810190610c619190611026565b9150610c7c565b600081815260028801602052604090208290555b600101610bb2565b50610c8e83610fdc565b8087556000928352600287016020908152604080852084905596845260039097019096529390209390935550919050565b80356001600160a01b0381168114610cd657600080fd5b919050565b60008060408385031215610cee57600080fd5b82359150610cfe60208401610cbf565b90509250929050565b600060208284031215610d1957600080fd5b5035919050565b600080600080848603610300811215610d3857600080fd5b61018080821215610d4857600080fd5b86955061014061017f1983011215610d5f57600080fd5b9497948601965050506102c0840135936102e0013592915050565b600060208284031215610d8c57600080fd5b610a6082610cbf565b6020808252818101527f52656769737465725f5f496e76616c6964566572696669657241646472657373604082015260600190565b8060005b6002811015610dee57604080838637938401939190910190600101610dce565b50505050565b61018081016040868337610e0b6040830186610dca565b60408460c084013761010082018360005b6004811015610e3b578151835260209283019290910190600101610e1c565b50505095945050505050565b600060208284031215610e5957600080fd5b81518015158114610a6057600080fd5b61014081016040868337610e806040830186610dca565b60408460c084013761010082018360005b6002811015610e3b578151835260209283019290910190600101610e91565b634e487b7160e01b600052601160045260246000fd5b8181038181111561049357610493610eb0565b8082018082111561049357610493610eb0565b600181815b80851115610f27578160001904821115610f0d57610f0d610eb0565b80851615610f1a57918102915b93841c9390800290610ef1565b509250929050565b600082610f3e57506001610493565b81610f4b57506000610493565b8160018114610f615760028114610f6b57610f87565b6001915050610493565b60ff841115610f7c57610f7c610eb0565b50506001821b610493565b5060208310610133831016604e8410600b8410161715610faa575081810a610493565b610fb48383610eec565b8060001904821115610fc857610fc8610eb0565b029392505050565b6000610a608383610f2f565b600060018201610fee57610fee610eb0565b5060010190565b60408101818360005b600281101561101d578151835260209283019290910190600101610ffe565b50505092915050565b60006020828403121561103857600080fd5b505191905056fea164736f6c6343000812000a",
  "linkReferences": {
    "poseidon-solidity/PoseidonT3.sol": {
      "PoseidonT3": [
        {
          "length": 20,
          "start": 3585
        }
      ]
    }
  },
  "deployedLinkReferences": {
    "poseidon-solidity/PoseidonT3.sol": {
      "PoseidonT3": [
        {
          "length": 20,
          "start": 3065
        }
      ]
    }
  }
}