{
  "_format": "hh-sol-artifact-1",
  "contractName": "Verifier_disclose",
  "sourceName": "contracts/Verifier_disclose.sol",
  "abi": [
    {
      "inputs": [
        {
          "internalType": "uint256[2]",
          "name": "_pA",
          "type": "uint256[2]"
        },
        {
          "internalType": "uint256[2][2]",
          "name": "_pB",
          "type": "uint256[2][2]"
        },
        {
          "internalType": "uint256[2]",
          "name": "_pC",
          "type": "uint256[2]"
        },
        {
          "internalType": "uint256[14]",
          "name": "_pubSignals",
          "type": "uint256[14]"
        }
      ],
      "name": "verifyProof",
      "outputs": [
        {
          "internalType": "bool",
          "name": "",
          "type": "bool"
        }
      ],
      "stateMutability": "view",
      "type": "function"
    }
  ],
  "bytecode": "0x608060405234801561001057600080fd5b50610a07806100206000396000f3fe608060405234801561001057600080fd5b506004361061002b5760003560e01c80638d15f88f14610030575b600080fd5b61004361003e366004610994565b610057565b604051901515815260200160405180910390f35b600061088f565b7f30644e72e131a029b85045b68181585d97816a916871ca8d3c208c16d87cfd47811061008f576000805260206000f35b50565b600060405183815284602082015285604082015260408160608360076107d05a03fa9150816100c5576000805260206000f35b825160408201526020830151606082015260408360808360066107d05a03fa915050806100f6576000805260206000f35b5050505050565b7f2689f9714746f2171f15f186c49011928671c512db7701aa6f887faede0e621a85527f1c6b5fc5cca0ea5377b7fda87c4970d73b830f2ecc98d66c94be49d2eb79a73860208601526000608086018661019a87357f144b30327fa059d03187f900f2ef8ba0a8bf5ba70024ff4b456616d726ad1dc37f0de13c7fff2070c886d18c617ae88ee2def25d599569a9769b3a77c91c5124cc84610092565b6101ea60208801357f0583853679773aefdfd605b6f022d4c663c8c28b4aea02da160030e2f76824de7f1a8a9974349b2c8bd90c0305da1526155dcf709430d2f7a8b9bdad17594f544984610092565b61023a60408801357f1af63b9643d2ce20d08537a9bcf7661240ee9610408f23da043e969816fa17787f0b874f5395d32a208de46e281dd21299a6b840e86f0ca33d5464edffb3021d1084610092565b61028a60608801357f0ff4770a7b7e5b901ba5b36501917710dfcf4dae65ba71cb6f6f551dcb3c27687f2cdcbd58af1bcf9b684fe2eb938407b8009c5a085dac9dc1dc00a5b424902d3684610092565b6102da60808801357f2e624e72cb02bc4290c5a46e326239d94e1c2d88999ca90f94badc95c35384497f1b31d939f5f811d3cb1a866f91079839d259ab8df0caa6e638f52c13a15046ce84610092565b61032a60a08801357f06ba7baaf6a6e53a3cf87cb9ce475c162ccbbe35a2a3dd7c485a241efbb74fd37f15f73950c5985cf3815f947340da0a1c7371c2dc295c0619ffe0f177ac69fe3084610092565b61037a60c08801357f17c7bf749d8391bac86278a6cdd987d74bb8ddfda46d0d366e2a9605f49995fe7f21f4f9265e72c3e1561d047361667ca08498b911458323c18f02462ee802828284610092565b6103ca60e08801357f1072d0346c6a707b10ba8bad0e12e4998dafc935e2a6d4617b64b8738f7e09e97f22053654552d92b5b456914d5fde1fafceb7e765185909bf682ca563a0a80adf84610092565b61041b6101008801357f22acd485d579a4527e85028650a98e68ef149889d27a2367e71b537f8f9e86b07f1a564d0bca02227e6a2a60c03736616fadd5833118ac55c4666f0d6e3cbc5dd784610092565b61046c6101208801357f2c1e812e69539c303cdde3ee9b298e8936901e479e7a0e35c7307f83de23409d7f033dcf1800c96d41c02537b316e588468ee008d14d2781ab35ee11719e0b582084610092565b6104bd6101408801357f04e10f766d5b8ab7c8e83e52d7f85a49836a38a0f7c2795c461365e31e1f843d7f2ec6bdb332f7a6cc4b9fadd9f363b7705bc3a864bd1ea9d4e56663f5c90ba51d84610092565b61050e6101608801357f2ec3288ca790141d879e2f6abef6bb873339579abd1468389a876b23ec13bdd77f0fca1fae67d196e1d3f0c7c9ef74c821a4da009444217ae1d1ae28ce6cf2f0a184610092565b61055f6101808801357f0ef9e32e18d4c85bd040801bb68e483d7328c2ddd3c583d697f451a8d7ed35d27f0c54e45c13041eb1a3f459cecef761f654865522d09b12da8cd937048cf820e684610092565b6105b06101a08801357f240ae4feea877b056de4e60eb465249d9fad16671dfe9f61ccef0945924dfbe17f034e528e2f6e3445cec635a8a826db21c799b371b0bb8faec0d8ff9ebc70db2284610092565b50823581527f30644e72e131a029b85045b68181585d97816a916871ca8d3c208c16d87cfd4760208401357f30644e72e131a029b85045b68181585d97816a916871ca8d3c208c16d87cfd4703066020820152833560408201526020840135606082015260408401356080820152606084013560a08201527f2d4d9aa7e302d9df41749d5507949d05dbea33fbb16c643b22f599a2be6df2e260c08201527f14bedd503c37ceb061d8ec60209fe345ce89830a19230301f076caff004d192660e08201527f0967032fcbf776d1afc985f88877f182d38480a653f2decaa9794cbc3bf3060c6101008201527f0e187847ad4c798374d0d6732bf501847dd68bc0e071241e0213bc7fc13db7ab6101208201527f304cfbd1e08a704a99f5e847d93f8c3caafddec46b7a0d379da69a4d112346a76101408201527f1739c1b1a457a8c7313123d24d2f9192f896b7c63eea05a9d57f06547ad0cec8610160820152600087015161018082015260206000018701516101a08201527f198e9393920d483a7260bfb731fb5d25f1aa493335a9e71297e485b7aef312c26101c08201527f1800deef121f1e76426a00665e5c4479674322d4f75edadd46debd5cd992f6ed6101e08201527f090689d0585ff075ec9e99ad690c3395bc4b313370b38ef355acdadcd122975b6102008201527f12c85ea5db8c6deb4aab71808dcb408fe3d1e7690c43d37b4ce6cc0166fa7daa610220820152843561024082015260208501356102608201527f24623a45f745738f35b23899123cdbe74855073821836cb5b9643facf4d9f5346102808201527f08c37108f69f9855d9e1f4d9c7550503f3668d5d97205e2c7687a9f73d995e3c6102a08201527f02d84a98638a50e8f19fcd82193397911e2e4fd33d9f552ef593af72ca10bc826102c08201527ec81becb30abead2bd5f9a3affd83f09c9100f45bb9d89a32343d603f4910676102e08201526020816103008360086107d05a03fa9051169695505050505050565b60405161038081016040526108a7600084013561005e565b6108b4602084013561005e565b6108c1604084013561005e565b6108ce606084013561005e565b6108db608084013561005e565b6108e860a084013561005e565b6108f560c084013561005e565b61090260e084013561005e565b61091061010084013561005e565b61091e61012084013561005e565b61092c61014084013561005e565b61093a61016084013561005e565b61094861018084013561005e565b6109566101a084013561005e565b6109646101c084013561005e565b610971818486888a6100fd565b90508060005260206000f35b806040810183101561098e57600080fd5b92915050565b6000806000806102c08086880312156109ac57600080fd5b6109b6878761097d565b945060c08601878111156109c957600080fd5b6040870194506109d9888261097d565b9350508681870111156109eb57600080fd5b5092959194509261010001915056fea164736f6c6343000812000a",
  "linkReferences": {},
  "deployedLinkReferences": {}
}