{
  "_format": "hh-sol-artifact-1",
  "contractName": "SBT",
  "sourceName": "contracts/SBT.sol",
  "abi": [
    {
      "inputs": [
        {
          "internalType": "contract Verifier_disclose",
          "name": "v",
          "type": "address"
        },
        {
          "internalType": "contract Formatter",
          "name": "f",
          "type": "address"
        },
        {
          "internalType": "contract IRegister",
          "name": "r",
          "type": "address"
        }
      ],
      "stateMutability": "nonpayable",
      "type": "constructor"
    },
    {
      "anonymous": false,
      "inputs": [
        {
          "indexed": true,
          "internalType": "address",
          "name": "owner",
          "type": "address"
        },
        {
          "indexed": true,
          "internalType": "address",
          "name": "approved",
          "type": "address"
        },
        {
          "indexed": true,
          "internalType": "uint256",
          "name": "tokenId",
          "type": "uint256"
        }
      ],
      "name": "Approval",
      "type": "event"
    },
    {
      "anonymous": false,
      "inputs": [
        {
          "indexed": true,
          "internalType": "address",
          "name": "owner",
          "type": "address"
        },
        {
          "indexed": true,
          "internalType": "address",
          "name": "operator",
          "type": "address"
        },
        {
          "indexed": false,
          "internalType": "bool",
          "name": "approved",
          "type": "bool"
        }
      ],
      "name": "ApprovalForAll",
      "type": "event"
    },
    {
      "anonymous": false,
      "inputs": [
        {
          "indexed": true,
          "internalType": "address",
          "name": "previousOwner",
          "type": "address"
        },
        {
          "indexed": true,
          "internalType": "address",
          "name": "newOwner",
          "type": "address"
        }
      ],
      "name": "OwnershipTransferred",
      "type": "event"
    },
    {
      "anonymous": false,
      "inputs": [
        {
          "indexed": true,
          "internalType": "address",
          "name": "from",
          "type": "address"
        },
        {
          "indexed": true,
          "internalType": "address",
          "name": "to",
          "type": "address"
        },
        {
          "indexed": true,
          "internalType": "uint256",
          "name": "tokenId",
          "type": "uint256"
        }
      ],
      "name": "Transfer",
      "type": "event"
    },
    {
      "inputs": [
        {
          "internalType": "address",
          "name": "to",
          "type": "address"
        },
        {
          "internalType": "uint256",
          "name": "tokenId",
          "type": "uint256"
        }
      ],
      "name": "approve",
      "outputs": [],
      "stateMutability": "nonpayable",
      "type": "function"
    },
    {
      "inputs": [
        {
          "internalType": "uint256",
          "name": "",
          "type": "uint256"
        }
      ],
      "name": "attributePositions",
      "outputs": [
        {
          "internalType": "string",
          "name": "name",
          "type": "string"
        },
        {
          "internalType": "uint256",
          "name": "start",
          "type": "uint256"
        },
        {
          "internalType": "uint256",
          "name": "end",
          "type": "uint256"
        },
        {
          "internalType": "uint256",
          "name": "index",
          "type": "uint256"
        }
      ],
      "stateMutability": "view",
      "type": "function"
    },
    {
      "inputs": [
        {
          "internalType": "address",
          "name": "owner",
          "type": "address"
        }
      ],
      "name": "balanceOf",
      "outputs": [
        {
          "internalType": "uint256",
          "name": "",
          "type": "uint256"
        }
      ],
      "stateMutability": "view",
      "type": "function"
    },
    {
      "inputs": [
        {
          "internalType": "uint256[3]",
          "name": "publicSignals",
          "type": "uint256[3]"
        }
      ],
      "name": "fieldElementsToBytes",
      "outputs": [
        {
          "internalType": "bytes",
          "name": "",
          "type": "bytes"
        }
      ],
      "stateMutability": "pure",
      "type": "function"
    },
    {
      "inputs": [],
      "name": "formatter",
      "outputs": [
        {
          "internalType": "contract Formatter",
          "name": "",
          "type": "address"
        }
      ],
      "stateMutability": "view",
      "type": "function"
    },
    {
      "inputs": [
        {
          "internalType": "uint256",
          "name": "tokenId",
          "type": "uint256"
        }
      ],
      "name": "getApproved",
      "outputs": [
        {
          "internalType": "address",
          "name": "",
          "type": "address"
        }
      ],
      "stateMutability": "view",
      "type": "function"
    },
    {
      "inputs": [
        {
          "internalType": "uint256[6]",
          "name": "dateNum",
          "type": "uint256[6]"
        }
      ],
      "name": "getCurrentTimestamp",
      "outputs": [
        {
          "internalType": "uint256",
          "name": "",
          "type": "uint256"
        }
      ],
      "stateMutability": "view",
      "type": "function"
    },
    {
      "inputs": [
        {
          "internalType": "uint256",
          "name": "_tokenId",
          "type": "uint256"
        }
      ],
      "name": "getDateOfBirthOf",
      "outputs": [
        {
          "internalType": "string",
          "name": "",
          "type": "string"
        }
      ],
      "stateMutability": "view",
      "type": "function"
    },
    {
      "inputs": [
        {
          "internalType": "uint256",
          "name": "_tokenId",
          "type": "uint256"
        }
      ],
      "name": "getExpiryDateOf",
      "outputs": [
        {
          "internalType": "string",
          "name": "",
          "type": "string"
        }
      ],
      "stateMutability": "view",
      "type": "function"
    },
    {
      "inputs": [
        {
          "internalType": "uint256",
          "name": "_tokenId",
          "type": "uint256"
        }
      ],
      "name": "getGenderOf",
      "outputs": [
        {
          "internalType": "string",
          "name": "",
          "type": "string"
        }
      ],
      "stateMutability": "view",
      "type": "function"
    },
    {
      "inputs": [
        {
          "internalType": "uint256",
          "name": "_tokenId",
          "type": "uint256"
        }
      ],
      "name": "getIssuingStateOf",
      "outputs": [
        {
          "internalType": "string",
          "name": "",
          "type": "string"
        }
      ],
      "stateMutability": "view",
      "type": "function"
    },
    {
      "inputs": [
        {
          "internalType": "uint256",
          "name": "_tokenId",
          "type": "uint256"
        }
      ],
      "name": "getNameOf",
      "outputs": [
        {
          "internalType": "string",
          "name": "",
          "type": "string"
        }
      ],
      "stateMutability": "view",
      "type": "function"
    },
    {
      "inputs": [
        {
          "internalType": "uint256",
          "name": "_tokenId",
          "type": "uint256"
        }
      ],
      "name": "getNationalityOf",
      "outputs": [
        {
          "internalType": "string",
          "name": "",
          "type": "string"
        }
      ],
      "stateMutability": "view",
      "type": "function"
    },
    {
      "inputs": [
        {
          "internalType": "uint256",
          "name": "_tokenId",
          "type": "uint256"
        }
      ],
      "name": "getOlderThanOf",
      "outputs": [
        {
          "internalType": "string",
          "name": "",
          "type": "string"
        }
      ],
      "stateMutability": "view",
      "type": "function"
    },
    {
      "inputs": [
        {
          "internalType": "uint256",
          "name": "_tokenId",
          "type": "uint256"
        }
      ],
      "name": "getPassportNumberOf",
      "outputs": [
        {
          "internalType": "string",
          "name": "",
          "type": "string"
        }
      ],
      "stateMutability": "view",
      "type": "function"
    },
    {
      "inputs": [
        {
          "internalType": "address",
          "name": "owner",
          "type": "address"
        },
        {
          "internalType": "address",
          "name": "operator",
          "type": "address"
        }
      ],
      "name": "isApprovedForAll",
      "outputs": [
        {
          "internalType": "bool",
          "name": "",
          "type": "bool"
        }
      ],
      "stateMutability": "view",
      "type": "function"
    },
    {
      "inputs": [
        {
          "internalType": "string",
          "name": "date",
          "type": "string"
        }
      ],
      "name": "isExpired",
      "outputs": [
        {
          "internalType": "bool",
          "name": "",
          "type": "bool"
        }
      ],
      "stateMutability": "view",
      "type": "function"
    },
    {
      "inputs": [
        {
          "internalType": "string",
          "name": "a",
          "type": "string"
        },
        {
          "internalType": "string",
          "name": "b",
          "type": "string"
        }
      ],
      "name": "isStringEqual",
      "outputs": [
        {
          "internalType": "bool",
          "name": "",
          "type": "bool"
        }
      ],
      "stateMutability": "pure",
      "type": "function"
    },
    {
      "inputs": [
        {
          "components": [
            {
              "internalType": "uint256",
              "name": "nullifier",
              "type": "uint256"
            },
            {
              "internalType": "uint256[3]",
              "name": "revealedData_packed",
              "type": "uint256[3]"
            },
            {
              "internalType": "uint256",
              "name": "attestation_id",
              "type": "uint256"
            },
            {
              "internalType": "uint256",
              "name": "merkle_root",
              "type": "uint256"
            },
            {
              "internalType": "uint256",
              "name": "scope",
              "type": "uint256"
            },
            {
              "internalType": "uint256[6]",
              "name": "current_date",
              "type": "uint256[6]"
            },
            {
              "internalType": "uint256",
              "name": "user_identifier",
              "type": "uint256"
            },
            {
              "internalType": "uint256[2]",
              "name": "a",
              "type": "uint256[2]"
            },
            {
              "internalType": "uint256[2][2]",
              "name": "b",
              "type": "uint256[2][2]"
            },
            {
              "internalType": "uint256[2]",
              "name": "c",
              "type": "uint256[2]"
            }
          ],
          "internalType": "struct SBT.SBTProof",
          "name": "proof",
          "type": "tuple"
        }
      ],
      "name": "mint",
      "outputs": [],
      "stateMutability": "nonpayable",
      "type": "function"
    },
    {
      "inputs": [],
      "name": "name",
      "outputs": [
        {
          "internalType": "string",
          "name": "",
          "type": "string"
        }
      ],
      "stateMutability": "view",
      "type": "function"
    },
    {
      "inputs": [
        {
          "internalType": "uint256",
          "name": "",
          "type": "uint256"
        }
      ],
      "name": "nullifiers",
      "outputs": [
        {
          "internalType": "bool",
          "name": "",
          "type": "bool"
        }
      ],
      "stateMutability": "view",
      "type": "function"
    },
    {
      "inputs": [],
      "name": "owner",
      "outputs": [
        {
          "internalType": "address",
          "name": "",
          "type": "address"
        }
      ],
      "stateMutability": "view",
      "type": "function"
    },
    {
      "inputs": [
        {
          "internalType": "uint256",
          "name": "tokenId",
          "type": "uint256"
        }
      ],
      "name": "ownerOf",
      "outputs": [
        {
          "internalType": "address",
          "name": "",
          "type": "address"
        }
      ],
      "stateMutability": "view",
      "type": "function"
    },
    {
      "inputs": [],
      "name": "register",
      "outputs": [
        {
          "internalType": "contract IRegister",
          "name": "",
          "type": "address"
        }
      ],
      "stateMutability": "view",
      "type": "function"
    },
    {
      "inputs": [],
      "name": "renounceOwnership",
      "outputs": [],
      "stateMutability": "nonpayable",
      "type": "function"
    },
    {
      "inputs": [
        {
          "internalType": "address",
          "name": "from",
          "type": "address"
        },
        {
          "internalType": "address",
          "name": "to",
          "type": "address"
        },
        {
          "internalType": "uint256",
          "name": "tokenId",
          "type": "uint256"
        }
      ],
      "name": "safeTransferFrom",
      "outputs": [],
      "stateMutability": "nonpayable",
      "type": "function"
    },
    {
      "inputs": [
        {
          "internalType": "address",
          "name": "from",
          "type": "address"
        },
        {
          "internalType": "address",
          "name": "to",
          "type": "address"
        },
        {
          "internalType": "uint256",
          "name": "tokenId",
          "type": "uint256"
        },
        {
          "internalType": "bytes",
          "name": "data",
          "type": "bytes"
        }
      ],
      "name": "safeTransferFrom",
      "outputs": [],
      "stateMutability": "nonpayable",
      "type": "function"
    },
    {
      "inputs": [
        {
          "internalType": "address",
          "name": "operator",
          "type": "address"
        },
        {
          "internalType": "bool",
          "name": "approved",
          "type": "bool"
        }
      ],
      "name": "setApprovalForAll",
      "outputs": [],
      "stateMutability": "nonpayable",
      "type": "function"
    },
    {
      "inputs": [
        {
          "internalType": "uint256[12]",
          "name": "input",
          "type": "uint256[12]"
        }
      ],
      "name": "sliceFirstThree",
      "outputs": [
        {
          "internalType": "uint256[3]",
          "name": "",
          "type": "uint256[3]"
        }
      ],
      "stateMutability": "pure",
      "type": "function"
    },
    {
      "inputs": [
        {
          "internalType": "bytes",
          "name": "str",
          "type": "bytes"
        },
        {
          "internalType": "uint256",
          "name": "startIndex",
          "type": "uint256"
        },
        {
          "internalType": "uint256",
          "name": "endIndex",
          "type": "uint256"
        }
      ],
      "name": "substring",
      "outputs": [
        {
          "internalType": "bytes",
          "name": "",
          "type": "bytes"
        }
      ],
      "stateMutability": "pure",
      "type": "function"
    },
    {
      "inputs": [
        {
          "internalType": "bytes4",
          "name": "interfaceId",
          "type": "bytes4"
        }
      ],
      "name": "supportsInterface",
      "outputs": [
        {
          "internalType": "bool",
          "name": "",
          "type": "bool"
        }
      ],
      "stateMutability": "view",
      "type": "function"
    },
    {
      "inputs": [],
      "name": "symbol",
      "outputs": [
        {
          "internalType": "string",
          "name": "",
          "type": "string"
        }
      ],
      "stateMutability": "view",
      "type": "function"
    },
    {
      "inputs": [
        {
          "internalType": "uint256",
          "name": "index",
          "type": "uint256"
        }
      ],
      "name": "tokenByIndex",
      "outputs": [
        {
          "internalType": "uint256",
          "name": "",
          "type": "uint256"
        }
      ],
      "stateMutability": "view",
      "type": "function"
    },
    {
      "inputs": [
        {
          "internalType": "address",
          "name": "owner",
          "type": "address"
        },
        {
          "internalType": "uint256",
          "name": "index",
          "type": "uint256"
        }
      ],
      "name": "tokenOfOwnerByIndex",
      "outputs": [
        {
          "internalType": "uint256",
          "name": "",
          "type": "uint256"
        }
      ],
      "stateMutability": "view",
      "type": "function"
    },
    {
      "inputs": [
        {
          "internalType": "uint256",
          "name": "_tokenId",
          "type": "uint256"
        }
      ],
      "name": "tokenURI",
      "outputs": [
        {
          "internalType": "string",
          "name": "",
          "type": "string"
        }
      ],
      "stateMutability": "view",
      "type": "function"
    },
    {
      "inputs": [],
      "name": "totalSupply",
      "outputs": [
        {
          "internalType": "uint256",
          "name": "",
          "type": "uint256"
        }
      ],
      "stateMutability": "view",
      "type": "function"
    },
    {
      "inputs": [
        {
          "internalType": "address",
          "name": "from",
          "type": "address"
        },
        {
          "internalType": "address",
          "name": "to",
          "type": "address"
        },
        {
          "internalType": "uint256",
          "name": "tokenId",
          "type": "uint256"
        }
      ],
      "name": "transferFrom",
      "outputs": [],
      "stateMutability": "nonpayable",
      "type": "function"
    },
    {
      "inputs": [
        {
          "internalType": "address",
          "name": "newOwner",
          "type": "address"
        }
      ],
      "name": "transferOwnership",
      "outputs": [],
      "stateMutability": "nonpayable",
      "type": "function"
    },
    {
      "inputs": [],
      "name": "verifier",
      "outputs": [
        {
          "internalType": "contract Verifier_disclose",
          "name": "",
          "type": "address"
        }
      ],
      "stateMutability": "view",
      "type": "function"
    }
  ],
  "bytecode": "0x60a06040523480156200001157600080fd5b50604051620045273803806200452783398101604081905262000034916200071d565b604080518082018252600f8082526e141c9bdbd993d994185cdcdc1bdc9d608a1b60208084018290528451808601909552918452908301529060006200007b838262000816565b5060016200008a828262000816565b505050620000a7620000a1620000fa60201b60201c565b620000fe565b6001600160a01b03838116608052600b80546001600160a01b031990811685841617909155600c8054909116918316919091179055620000e662000150565b620000f13362000626565b505050620008e2565b3390565b600a80546001600160a01b038381166001600160a01b0319831681179093556040519116919082907f8be0079c531659141344cd1fd0a4f28419497f9722a3daafe3b4186f6b6457e090600090a35050565b6040805160c081018252600d608082019081526c69737375696e675f737461746560981b60a08301528152600260208201526004918101829052600060608201819052600e8054600181018255915281519192026000805160206200450783398151915201908190620001c4908262000816565b506020828101516001808401919091556040808501516002850155606094850151600390940193909355825160c081018452600460808201818152636e616d6560e01b60a08401528252600593820193909352602b93810193909352928201839052600e805493840181556000528151919202600080516020620045078339815191520190819062000257908262000816565b50602082810151600180840191909155604080850151600280860191909155606095860151600390950194909455805160c081018252600f608082019081526e3830b9b9b837b93a2fb73ab6b132b960891b60a08301528152602c9381019390935260349083015292810191909152600e80549283018155600052805190916004026000805160206200450783398151915201908190620002f9908262000816565b506020828101516001808401919091556040808501516002850155606094850151600394850155805160c081018252600b608082019081526a6e6174696f6e616c69747960a81b60a0830152815260369381019390935260389083015292810191909152600e8054928301815560005280519091600402600080516020620045078339815191520190819062000390908262000816565b506020828101516001808401919091556040808501516002850155606094850151600390940193909355825160c081018452600d608082019081526c0c8c2e8cabedeccbec4d2e4e8d609b1b60a08301528152603992810192909252603e928201929092526004928101839052600e805492830181556000528051909291909102600080516020620045078339815191520190819062000431908262000816565b506020828101516001808401919091556040808501516002850155606094850151600390940193909355825160c0810184526006608082019081526533b2b73232b960d11b60a0830152815291820183905281830192909252600592810192909252600e80549182018155600052815160049091026000805160206200450783398151915201908190620004c6908262000816565b506020828101516001808401919091556040808501516002850155606094850151600390940193909355825160c081018452600b608082019081526a6578706972795f6461746560a81b60a08301528152604192810192909252604692820192909252600692810192909252600e8054918201815560005281516004909102600080516020620045078339815191520190819062000565908262000816565b506020828101516001808401919091556040808501516002850155606094850151600390940193909355825160c081018452600a608082019081526937b63232b92fba3430b760b11b60a08301528152605892810192909252605992820192909252600792810192909252600e8054918201815560005281516004909102600080516020620045078339815191520190819062000603908262000816565b506020820151816001015560408201518160020155606082015181600301555050565b62000630620006a9565b6001600160a01b0381166200069b5760405162461bcd60e51b815260206004820152602660248201527f4f776e61626c653a206e6577206f776e657220697320746865207a65726f206160448201526564647265737360d01b60648201526084015b60405180910390fd5b620006a681620000fe565b50565b600a546001600160a01b03163314620007055760405162461bcd60e51b815260206004820181905260248201527f4f776e61626c653a2063616c6c6572206973206e6f7420746865206f776e6572604482015260640162000692565b565b6001600160a01b0381168114620006a657600080fd5b6000806000606084860312156200073357600080fd5b8351620007408162000707565b6020850151909350620007538162000707565b6040850151909250620007668162000707565b809150509250925092565b634e487b7160e01b600052604160045260246000fd5b600181811c908216806200079c57607f821691505b602082108103620007bd57634e487b7160e01b600052602260045260246000fd5b50919050565b601f8211156200081157600081815260208120601f850160051c81016020861015620007ec5750805b601f850160051c820191505b818110156200080d57828155600101620007f8565b5050505b505050565b81516001600160401b0381111562000832576200083262000771565b6200084a8162000843845462000787565b84620007c3565b602080601f831160018114620008825760008415620008695750858301515b600019600386901b1c1916600185901b1785556200080d565b600085815260208120601f198616915b82811015620008b35788860151825594840194600190910190840162000892565b5085821015620008d25787850151600019600388901b60f8161c191681555b5050505050600190811b01905550565b608051613c02620009056000396000818161034201526115f10152613c026000f3fe608060405234801561001057600080fd5b506004361061023d5760003560e01c8063715018a61161013b578063c64fafbc116100b8578063e985e9c51161007c578063e985e9c514610521578063f03637ca1461055d578063f2fde38b14610570578063f6809cc514610583578063fcf27f601461059657600080fd5b8063c64fafbc146104b2578063c87b56dd146104c5578063d21e82ab146104d8578063dc54daf0146104fb578063ddc1f9761461050e57600080fd5b806395d89b41116100ff57806395d89b411461044e578063a22cb46514610456578063b04e3a3b14610469578063b4b45db31461048c578063b88d4fde1461049f57600080fd5b8063715018a6146103fc57806375e1b17e1461040457806385d2b28d146104175780638da5cb5b1461042a57806393c9707d1461043b57600080fd5b806323b872dd116101c957806342842e0e1161018d57806342842e0e1461039d5780634cd1ad32146103b05780634f6ccce7146103c35780636352211e146103d657806370a08231146103e957600080fd5b806323b872dd1461032a5780632b7ac3f31461033d5780632cd8a74a146103645780632f745c59146103775780633a41515f1461038a57600080fd5b8063081812fc11610210578063081812fc146102a5578063095ea7b3146102d057806318160ddd146102e55780631a32c702146102f75780631aa3a0081461031757600080fd5b806301ffc9a7146102425780630620f98c1461026a57806306fdde031461027d5780630702032d14610292575b600080fd5b610255610250366004612e85565b6105a9565b60405190151581526020015b60405180910390f35b610255610278366004612f6c565b6105d4565b61028561062d565b604051610261919061301f565b6102856102a0366004613032565b6106bf565b6102b86102b3366004613032565b610764565b6040516001600160a01b039091168152602001610261565b6102e36102de366004613067565b61078b565b005b6008545b604051908152602001610261565b61030a610305366004613091565b6108a5565b604051610261919061310f565b600c546102b8906001600160a01b031681565b6102e3610338366004613140565b610908565b6102b87f000000000000000000000000000000000000000000000000000000000000000081565b610285610372366004613032565b610939565b6102e9610385366004613067565b610951565b600b546102b8906001600160a01b031681565b6102e36103ab366004613140565b6109e7565b6102856103be36600461317c565b610a02565b6102e96103d1366004613032565b610ace565b6102b86103e4366004613032565b610b61565b6102e96103f73660046131c9565b610bc1565b6102e3610c47565b610285610412366004613032565b610c5b565b610285610425366004613032565b610c73565b600a546001600160a01b03166102b8565b610285610449366004613032565b610c8b565b610285610ca3565b6102e36104643660046131f2565b610cb2565b61047c610477366004613032565b610cc1565b6040516102619493929190613229565b61028561049a366004613032565b610d89565b6102e36104ad366004613258565b610da1565b6102556104c03660046132bf565b610dd9565b6102856104d3366004613032565b610e6c565b6102556104e6366004613032565b600d6020526000908152604090205460ff1681565b6102856105093660046132f3565b6112ef565b6102e361051c366004613370565b6113f0565b61025561052f366004613389565b6001600160a01b03918216600090815260056020908152604080832093909416825291909152205460ff1690565b61028561056b366004613032565b611ab0565b6102e361057e3660046131c9565b611ac8565b610285610591366004613032565b611b41565b6102e96105a43660046133bc565b611b57565b60006001600160e01b0319821663780e9d6360e01b14806105ce57506105ce82611c55565b92915050565b6000816040516020016105e79190613414565b604051602081830303815290604052805190602001208360405160200161060e9190613414565b6040516020818303038152906040528051906020012014905092915050565b60606000805461063c90613430565b80601f016020809104026020016040519081016040528092919081815260200182805461066890613430565b80156106b55780601f1061068a576101008083540402835291602001916106b5565b820191906000526020600020905b81548152906001019060200180831161069857829003601f168201915b5050505050905090565b6000818152600f6020526040902060609060035b0180546106df90613430565b80601f016020809104026020016040519081016040528092919081815260200182805461070b90613430565b80156107585780601f1061072d57610100808354040283529160200191610758565b820191906000526020600020905b81548152906001019060200180831161073b57829003601f168201915b50505050509050919050565b600061076f82611ca5565b506000908152600460205260409020546001600160a01b031690565b600061079682610b61565b9050806001600160a01b0316836001600160a01b0316036108085760405162461bcd60e51b815260206004820152602160248201527f4552433732313a20617070726f76616c20746f2063757272656e74206f776e656044820152603960f91b60648201526084015b60405180910390fd5b336001600160a01b03821614806108245750610824813361052f565b6108965760405162461bcd60e51b815260206004820152603d60248201527f4552433732313a20617070726f76652063616c6c6572206973206e6f7420746f60448201527f6b656e206f776e6572206f7220617070726f76656420666f7220616c6c00000060648201526084016107ff565b6108a08383611d04565b505050565b6108ad612e33565b6108b5612e33565b60005b6003811015610901578381600c81106108d3576108d3613464565b60200201518282600381106108ea576108ea613464565b6020020152806108f981613490565b9150506108b8565b5092915050565b6109123382611d72565b61092e5760405162461bcd60e51b81526004016107ff906134a9565b6108a0838383611df0565b6000818152600f6020526040902060609060046106d3565b600061095c83610bc1565b82106109be5760405162461bcd60e51b815260206004820152602b60248201527f455243373231456e756d657261626c653a206f776e657220696e646578206f7560448201526a74206f6620626f756e647360a81b60648201526084016107ff565b506001600160a01b03919091166000908152600660209081526040808320938352929052205490565b6108a083838360405180602001604052806000815250610da1565b6060836000610a1185856134f6565b6001600160401b03811115610a2857610a28612ea9565b6040519080825280601f01601f191660200182016040528015610a52576020820181803683370190505b509050845b84811015610ac457828181518110610a7157610a71613464565b01602001516001600160f81b03191682610a8b88846134f6565b81518110610a9b57610a9b613464565b60200101906001600160f81b031916908160001a90535080610abc81613490565b915050610a57565b5095945050505050565b6000610ad960085490565b8210610b3c5760405162461bcd60e51b815260206004820152602c60248201527f455243373231456e756d657261626c653a20676c6f62616c20696e646578206f60448201526b7574206f6620626f756e647360a01b60648201526084016107ff565b60088281548110610b4f57610b4f613464565b90600052602060002001549050919050565b6000818152600260205260408120546001600160a01b0316806105ce5760405162461bcd60e51b8152602060048201526018602482015277115490cdcc8c4e881a5b9d985b1a59081d1bdad95b88125160421b60448201526064016107ff565b60006001600160a01b038216610c2b5760405162461bcd60e51b815260206004820152602960248201527f4552433732313a2061646472657373207a65726f206973206e6f7420612076616044820152683634b21037bbb732b960b91b60648201526084016107ff565b506001600160a01b031660009081526003602052604090205490565b610c4f611f61565b610c596000611fbb565b565b6000818152600f6020526040902060609060066106d3565b6000818152600f6020526040902060609060076106d3565b6000818152600f6020526040902060609060056106d3565b60606001805461063c90613430565b610cbd33838361200d565b5050565b600e8181548110610cd157600080fd5b9060005260206000209060040201600091509050806000018054610cf490613430565b80601f0160208091040260200160405190810160405280929190818152602001828054610d2090613430565b8015610d6d5780601f10610d4257610100808354040283529160200191610d6d565b820191906000526020600020905b815481529060010190602001808311610d5057829003601f168201915b5050505050908060010154908060020154908060030154905084565b6000818152600f6020526040902060609060026106d3565b610dab3383611d72565b610dc75760405162461bcd60e51b81526004016107ff906134a9565b610dd3848484846120db565b50505050565b6000610de48261210e565b15610df157506000919050565b600b54604051633f02ed7560e21b81526000916001600160a01b03169063fc0bb5d490610e2290869060040161301f565b602060405180830381865afa158015610e3f573d6000803e3d6000fd5b505050506040513d601f19601f82011682018060405250810190610e639190613509565b42119392505050565b6000818152600260205260409020546060906001600160a01b0316610eeb5760405162461bcd60e51b815260206004820152602f60248201527f4552433732314d657461646174613a2055524920717565727920666f72206e6f60448201526e3732bc34b9ba32b73a103a37b5b2b760891b60648201526084016107ff565b6000828152600f602090815260408083208151610120810190925290918290810182600886835b82821015610fb5578382018054610f2890613430565b80601f0160208091040260200160405190810160405280929190818152602001828054610f5490613430565b8015610fa15780601f10610f7657610100808354040283529160200191610fa1565b820191906000526020600020905b815481529060010190602001808311610f8457829003601f168201915b505050505081526020019060010190610f12565b50505091525050604051707b202261747472696275746573223a205b60781b602082015290915060009060310160408051601f19818403018152828201909152600d82526c49737375696e6720537461746560981b6020830152835190925061102791839160005b6020020151612165565b60408051808201909152600a8152694669727374204e616d6560b01b6020820152835191925061105b91839190600161101d565b6040805180820190915260098152684c617374204e616d6560b81b6020820152835191925061108e91839190600161101d565b60408051808201909152600f81526e2830b9b9b837b93a10273ab6b132b960891b602082015283519192506110c791839190600261101d565b60408051808201909152600b81526a4e6174696f6e616c69747960a81b602082015283519192506110fc91839190600361101d565b60408051808201909152600d81526c088c2e8ca40decc40c4d2e4e8d609b1b6020820152835191925061113391839190600461101d565b60408051808201909152600681526523b2b73232b960d11b6020820152835191925061116391839190600561101d565b60408051808201909152600b81526a457870697279206461746560a81b6020820152835191925061119891839190600661101d565b604080518082019091526007815266115e1c1a5c995960ca1b602082015283519192506111c991839190600661101d565b60408051808201909152600a81526927b63232b9102a3430b760b11b602082015283519192506111fd91839190600761101d565b604051600b60fa1b602082015290915060210160405160208183030381529060405280519060200120816001835161123591906134f6565b8151811061124557611245613464565b60209101810151604080516001600160f81b03199092168284015280516001818403018152602190920190528051910120036112925761128f816000600184516103be91906134f6565b90505b8061129c856121ac565b6040516020016112ad929190613522565b60405160208183030381529060405290506112c78161223e565b6040516020016112d79190613656565b60405160208183030381529060405292505050919050565b6040805160608082018352601f8083526020830152601c828401528251605a808252608082019094529092600091906020820181803683370190505090506000805b60038110156113e657600086826003811061134e5761134e613464565b6020020151905060005b85836003811061136a5761136a613464565b602002015160ff168160ff1610156113d1578160ff1660f81b85858061138f90613490565b9650815181106113a1576113a1613464565b60200101906001600160f81b031916908160001a90535060089190911c90806113c98161369b565b915050611358565b505080806113de90613490565b915050611331565b5090949350505050565b600c5460405163030fc05d60e21b815260a083013560048201526001600160a01b0390911690630c3f017490602401602060405180830381865afa15801561143c573d6000803e3d6000fd5b505050506040513d601f19601f8201168201806040525081019061146091906136ba565b6114a25760405162461bcd60e51b8152602060048201526013602482015272125b9d985b1a59081b595c9adb19481c9bdbdd606a1b60448201526064016107ff565b80356000908152600d602052604090205460ff16156115035760405162461bcd60e51b815260206004820152601b60248201527f5369676e617475726520616c7265616479206e756c6c6966696564000000000060448201526064016107ff565b61150b612e51565b60005b600681101561155a578260e001816006811061152c5761152c613464565b602002013582826006811061154357611543613464565b60200201528061155281613490565b91505061150e565b50600061156682611b57565b905061157562015180426134f6565b8110158015611590575061158c42620151806136d7565b8111155b6115ef5760405162461bcd60e51b815260206004820152602a60248201527f43757272656e742064617465206973206e6f742077697468696e207468652076604482015269616c69642072616e676560b01b60648201526084016107ff565b7f00000000000000000000000000000000000000000000000000000000000000006001600160a01b0316638d15f88f846101c00185610200018661028001604051806101c00160405280896000013581526020018960200160006003811061165957611659613464565b602002013581526020018960200160016003811061167957611679613464565b602002013581526020018960200160026003811061169957611699613464565b60200201358152602001896080013581526020018960a0013581526020018960c0013581526020018960e0016000600681106116d7576116d7613464565b602002013581526020018960e0016001600681106116f7576116f7613464565b602002013581526020018960e00160026006811061171757611717613464565b602002013581526020018960e00160036006811061173757611737613464565b602002013581526020018960e00160046006811061175757611757613464565b602002013581526020018960e00160056006811061177757611777613464565b60200201358152602001896101a001358152506040518563ffffffff1660e01b81526004016117a994939291906136ea565b602060405180830381865afa1580156117c6573d6000803e3d6000fd5b505050506040513d601f19601f820116820180604052508101906117ea91906136ba565b6118265760405162461bcd60e51b815260206004820152600d60248201526c24b73b30b634b210283937b7b360991b60448201526064016107ff565b82356000908152600d60205260408120805460ff191660011790556101a08401359061185160085490565b905061185d82826123a4565b60006118948660200160038060200260405190810160405280929190826003602002808284376000920191909152506112ef915050565b6000838152600f602052604081209192505b600e54811015611aa6576000600e82815481106118c5576118c5613464565b90600052602060002090600402016040518060800160405290816000820180546118ee90613430565b80601f016020809104026020016040519081016040528092919081815260200182805461191a90613430565b80156119675780601f1061193c57610100808354040283529160200191611967565b820191906000526020600020905b81548152906001019060200180831161194a57829003601f168201915b50505050508152602001600182015481526020016002820154815260200160038201548152505090506000816020015182604001516119a691906134f6565b6119b19060016136d7565b6001600160401b038111156119c8576119c8612ea9565b6040519080825280601f01601f1916602001820160405280156119f2576020820181803683370190505b5060208301519091505b82604001518111611a6e57858181518110611a1957611a19613464565b602001015160f81c60f81b82846020015183611a3591906134f6565b81518110611a4557611a45613464565b60200101906001600160f81b031916908160001a90535080611a6681613490565b9150506119fc565b508080858560088110611a8357611a83613464565b0190611a8f90826137a6565b505050508080611a9e90613490565b9150506118a6565b5050505050505050565b6000818152600f6020526040902060609060016106d3565b611ad0611f61565b6001600160a01b038116611b355760405162461bcd60e51b815260206004820152602660248201527f4f776e61626c653a206e6577206f776e657220697320746865207a65726f206160448201526564647265737360d01b60648201526084016107ff565b611b3e81611fbb565b50565b6000818152600f602052604081206060916106d3565b6040805160208101909152600080825290815b6006811015611bda5781600a858360068110611b8857611b88613464565b6020020151611b97919061387b565b611ba29060306136d7565b60f81b604051602001611bb692919061388f565b60405160208183030381529060405291508080611bd290613490565b915050611b6a565b50600b54604051633f02ed7560e21b81526000916001600160a01b03169063fc0bb5d490611c0c90859060040161301f565b602060405180830381865afa158015611c29573d6000803e3d6000fd5b505050506040513d601f19601f82011682018060405250810190611c4d9190613509565b949350505050565b60006001600160e01b031982166380ac58cd60e01b1480611c8657506001600160e01b03198216635b5e139f60e01b145b806105ce57506301ffc9a760e01b6001600160e01b03198316146105ce565b6000818152600260205260409020546001600160a01b0316611b3e5760405162461bcd60e51b8152602060048201526018602482015277115490cdcc8c4e881a5b9d985b1a59081d1bdad95b88125160421b60448201526064016107ff565b600081815260046020526040902080546001600160a01b0319166001600160a01b0384169081179091558190611d3982610b61565b6001600160a01b03167f8c5be1e5ebec7d5bd14f71427d1e84f3dd0314c0f7b2291e5b200ac8c7c3b92560405160405180910390a45050565b600080611d7e83610b61565b9050806001600160a01b0316846001600160a01b03161480611dc557506001600160a01b0380821660009081526005602090815260408083209388168352929052205460ff165b80611c4d5750836001600160a01b0316611dde84610764565b6001600160a01b031614949350505050565b826001600160a01b0316611e0382610b61565b6001600160a01b031614611e295760405162461bcd60e51b81526004016107ff906138be565b6001600160a01b038216611e8b5760405162461bcd60e51b8152602060048201526024808201527f4552433732313a207472616e7366657220746f20746865207a65726f206164646044820152637265737360e01b60648201526084016107ff565b611e98838383600161253d565b826001600160a01b0316611eab82610b61565b6001600160a01b031614611ed15760405162461bcd60e51b81526004016107ff906138be565b600081815260046020908152604080832080546001600160a01b03199081169091556001600160a01b0387811680865260038552838620805460001901905590871680865283862080546001019055868652600290945282852080549092168417909155905184937fddf252ad1be2c89b69c2b068fc378daa952ba7f163c4a11628f55a4df523b3ef91a4505050565b600a546001600160a01b03163314610c595760405162461bcd60e51b815260206004820181905260248201527f4f776e61626c653a2063616c6c6572206973206e6f7420746865206f776e657260448201526064016107ff565b600a80546001600160a01b038381166001600160a01b0319831681179093556040519116919082907f8be0079c531659141344cd1fd0a4f28419497f9722a3daafe3b4186f6b6457e090600090a35050565b816001600160a01b0316836001600160a01b03160361206e5760405162461bcd60e51b815260206004820152601960248201527f4552433732313a20617070726f766520746f2063616c6c65720000000000000060448201526064016107ff565b6001600160a01b03838116600081815260056020908152604080832094871680845294825291829020805460ff191686151590811790915591519182527f17307eab39ab6107e8899845ad3d59bd9653f200f220920489ca2b5937696c31910160405180910390a3505050565b6120e6848484611df0565b6120f2848484846125b9565b610dd35760405162461bcd60e51b81526004016107ff90613903565b6000805b825181101561215c5782818151811061212d5761212d613464565b01602001516001600160f81b0319161561214a5750600092915050565b8061215481613490565b915050612112565b50600192915050565b60606121708261210e565b6121a457838361218085856126ba565b60405160200161219293929190613955565b60405160208183030381529060405293505b509192915050565b606060006121b983612a97565b60010190506000816001600160401b038111156121d8576121d8612ea9565b6040519080825280601f01601f191660200182016040528015612202576020820181803683370190505b5090508181016020015b600019016f181899199a1a9b1b9c1cb0b131b232b360811b600a86061a8153600a850494508461220c57509392505050565b6060815160000361225d57505060408051602081019091526000815290565b6000604051806060016040528060408152602001613bb6604091399050600060038451600261228c91906136d7565b61229691906139df565b6122a19060046139f3565b905060006122b08260206136d7565b6001600160401b038111156122c7576122c7612ea9565b6040519080825280601f01601f1916602001820160405280156122f1576020820181803683370190505b509050818152600183018586518101602084015b8183101561235f5760039283018051603f601282901c811687015160f890811b8552600c83901c8216880151811b6001860152600683901c8216880151811b60028601529116860151901b93820193909352600401612305565b600389510660018114612379576002811461238a57612396565b613d3d60f01b600119830152612396565b603d60f81b6000198301525b509398975050505050505050565b6001600160a01b0382166123fa5760405162461bcd60e51b815260206004820181905260248201527f4552433732313a206d696e7420746f20746865207a65726f206164647265737360448201526064016107ff565b6000818152600260205260409020546001600160a01b03161561245f5760405162461bcd60e51b815260206004820152601c60248201527f4552433732313a20746f6b656e20616c7265616479206d696e7465640000000060448201526064016107ff565b61246d60008383600161253d565b6000818152600260205260409020546001600160a01b0316156124d25760405162461bcd60e51b815260206004820152601c60248201527f4552433732313a20746f6b656e20616c7265616479206d696e7465640000000060448201526064016107ff565b6001600160a01b038216600081815260036020908152604080832080546001019055848352600290915280822080546001600160a01b0319168417905551839291907fddf252ad1be2c89b69c2b068fc378daa952ba7f163c4a11628f55a4df523b3ef908290a45050565b61254984848484612b6f565b6001600160a01b03841615610dd35760405162461bcd60e51b815260206004820152603060248201527f43616e6e6f74207472616e73666572202d2050726f6f66206f6620506173737060448201526f1bdc9d081a5cc81cdbdd5b189bdd5b9960821b60648201526084016107ff565b60006001600160a01b0384163b156126af57604051630a85bd0160e11b81526001600160a01b0385169063150b7a02906125fd903390899088908890600401613a0a565b6020604051808303816000875af1925050508015612638575060408051601f3d908101601f1916820190925261263591810190613a47565b60015b612695573d808015612666576040519150601f19603f3d011682016040523d82523d6000602084013e61266b565b606091505b50805160000361268d5760405162461bcd60e51b81526004016107ff90613903565b805181602001fd5b6001600160e01b031916630a85bd0160e11b149050611c4d565b506001949350505050565b60606126eb836040518060400160405280600d81526020016c49737375696e6720537461746560981b8152506105d4565b8061271e575061271e836040518060400160405280600b81526020016a4e6174696f6e616c69747960a81b8152506105d4565b1561279f57600b5460405163028143ed60e01b81526001600160a01b039091169063028143ed9061275390859060040161301f565b600060405180830381865afa158015612770573d6000803e3d6000fd5b505050506040513d6000823e601f3d908101601f191682016040526127989190810190613aa9565b90506105ce565b6127cb836040518060400160405280600a8152602001694669727374204e616d6560b01b8152506105d4565b1561286657600b54604051630481e68160e11b81526001600160a01b0390911690630903cd029061280090859060040161301f565b600060405180830381865afa15801561281d573d6000803e3d6000fd5b505050506040513d6000823e601f3d908101601f191682016040526128459190810190613add565b60008151811061285757612857613464565b602002602001015190506105ce565b61289183604051806040016040528060098152602001684c617374204e616d6560b81b8152506105d4565b1561291d57600b54604051630481e68160e11b81526001600160a01b0390911690630903cd02906128c690859060040161301f565b600060405180830381865afa1580156128e3573d6000803e3d6000fd5b505050506040513d6000823e601f3d908101601f1916820160405261290b9190810190613add565b60018151811061285757612857613464565b61294c836040518060400160405280600d81526020016c088c2e8ca40decc40c4d2e4e8d609b1b8152506105d4565b8061297f575061297f836040518060400160405280600b81526020016a457870697279206461746560a81b8152506105d4565b156129b457600b54604051635d84387760e11b81526001600160a01b039091169063bb0870ee9061275390859060040161301f565b6129e0836040518060400160405280600a81526020016927b63232b9102a3430b760b11b8152506105d4565b15612a1557600b546040516318a80a6960e31b81526001600160a01b039091169063c54053489061275390859060040161301f565b612a3e8360405180604001604052806007815260200166115e1c1a5c995960ca1b8152506105d4565b15612a9057612a4c82610dd9565b612a7057604051806040016040528060028152602001614e6f60f01b815250612798565b5060408051808201909152600381526259657360e81b60208201526105ce565b50806105ce565b60008072184f03e93ff9f4daa797ed6e38ed64bf6a1f0160401b8310612ad65772184f03e93ff9f4daa797ed6e38ed64bf6a1f0160401b830492506040015b6d04ee2d6d415b85acef81000000008310612b02576d04ee2d6d415b85acef8100000000830492506020015b662386f26fc100008310612b2057662386f26fc10000830492506010015b6305f5e1008310612b38576305f5e100830492506008015b6127108310612b4c57612710830492506004015b60648310612b5e576064830492506002015b600a83106105ce5760010192915050565b6001811115612bde5760405162461bcd60e51b815260206004820152603560248201527f455243373231456e756d657261626c653a20636f6e7365637574697665207472604482015274185b9cd9995c9cc81b9bdd081cdd5c1c1bdc9d1959605a1b60648201526084016107ff565b816001600160a01b038516612c3a57612c3581600880546000838152600960205260408120829055600182018355919091527ff3f7a9fe364faab93b216da50a3214154f22a0a2b415b23a84c8169e8b636ee30155565b612c5d565b836001600160a01b0316856001600160a01b031614612c5d57612c5d8582612ca3565b6001600160a01b038416612c7957612c7481612d40565b612c9c565b846001600160a01b0316846001600160a01b031614612c9c57612c9c8482612def565b5050505050565b60006001612cb084610bc1565b612cba91906134f6565b600083815260076020526040902054909150808214612d0d576001600160a01b03841660009081526006602090815260408083208584528252808320548484528184208190558352600790915290208190555b5060009182526007602090815260408084208490556001600160a01b039094168352600681528383209183525290812055565b600854600090612d52906001906134f6565b60008381526009602052604081205460088054939450909284908110612d7a57612d7a613464565b906000526020600020015490508060088381548110612d9b57612d9b613464565b6000918252602080832090910192909255828152600990915260408082208490558582528120556008805480612dd357612dd3613b9f565b6001900381819060005260206000200160009055905550505050565b6000612dfa83610bc1565b6001600160a01b039093166000908152600660209081526040808320868452825280832085905593825260079052919091209190915550565b60405180606001604052806003906020820280368337509192915050565b6040518060c001604052806006906020820280368337509192915050565b6001600160e01b031981168114611b3e57600080fd5b600060208284031215612e9757600080fd5b8135612ea281612e6f565b9392505050565b634e487b7160e01b600052604160045260246000fd5b604051601f8201601f191681016001600160401b0381118282101715612ee757612ee7612ea9565b604052919050565b60006001600160401b03821115612f0857612f08612ea9565b50601f01601f191660200190565b600082601f830112612f2757600080fd5b8135612f3a612f3582612eef565b612ebf565b818152846020838601011115612f4f57600080fd5b816020850160208301376000918101602001919091529392505050565b60008060408385031215612f7f57600080fd5b82356001600160401b0380821115612f9657600080fd5b612fa286838701612f16565b93506020850135915080821115612fb857600080fd5b50612fc585828601612f16565b9150509250929050565b60005b83811015612fea578181015183820152602001612fd2565b50506000910152565b6000815180845261300b816020860160208601612fcf565b601f01601f19169290920160200192915050565b602081526000612ea26020830184612ff3565b60006020828403121561304457600080fd5b5035919050565b80356001600160a01b038116811461306257600080fd5b919050565b6000806040838503121561307a57600080fd5b6130838361304b565b946020939093013593505050565b60006101808083850312156130a557600080fd5b83601f8401126130b457600080fd5b6040518181018181106001600160401b03821117156130d5576130d5612ea9565b6040529083019080858311156130ea57600080fd5b845b838110156131045780358252602091820191016130ec565b509095945050505050565b60608101818360005b6003811015613137578151835260209283019290910190600101613118565b50505092915050565b60008060006060848603121561315557600080fd5b61315e8461304b565b925061316c6020850161304b565b9150604084013590509250925092565b60008060006060848603121561319157600080fd5b83356001600160401b038111156131a757600080fd5b6131b386828701612f16565b9660208601359650604090950135949350505050565b6000602082840312156131db57600080fd5b612ea28261304b565b8015158114611b3e57600080fd5b6000806040838503121561320557600080fd5b61320e8361304b565b9150602083013561321e816131e4565b809150509250929050565b60808152600061323c6080830187612ff3565b6020830195909552506040810192909252606090910152919050565b6000806000806080858703121561326e57600080fd5b6132778561304b565b93506132856020860161304b565b92506040850135915060608501356001600160401b038111156132a757600080fd5b6132b387828801612f16565b91505092959194509250565b6000602082840312156132d157600080fd5b81356001600160401b038111156132e757600080fd5b611c4d84828501612f16565b60006060828403121561330557600080fd5b82601f83011261331457600080fd5b604051606081018181106001600160401b038211171561333657613336612ea9565b60405280606084018581111561334b57600080fd5b845b8181101561336557803583526020928301920161334d565b509195945050505050565b60006102c0828403121561338357600080fd5b50919050565b6000806040838503121561339c57600080fd5b6133a58361304b565b91506133b36020840161304b565b90509250929050565b600060c082840312156133ce57600080fd5b82601f8301126133dd57600080fd5b60405160c081018181106001600160401b03821117156133ff576133ff612ea9565b6040528060c084018581111561334b57600080fd5b60008251613426818460208701612fcf565b9190910192915050565b600181811c9082168061344457607f821691505b60208210810361338357634e487b7160e01b600052602260045260246000fd5b634e487b7160e01b600052603260045260246000fd5b634e487b7160e01b600052601160045260246000fd5b6000600182016134a2576134a261347a565b5060010190565b6020808252602d908201527f4552433732313a2063616c6c6572206973206e6f7420746f6b656e206f776e6560408201526c1c881bdc88185c1c1c9bdd9959609a1b606082015260800190565b818103818111156105ce576105ce61347a565b60006020828403121561351b57600080fd5b5051919050565b60008351613534818460208801612fcf565b80830190507f5d2c226465736372697074696f6e223a202250726f6f66206f6620506173737081527f6f72742067756172616e7465657320706f7373657373696f6e206f662061207660208201527f616c69642070617373706f72742e222c2265787465726e616c5f75726c223a2060408201527f2268747470733a2f2f70726f6f666f6670617373706f72742e636f6d222c226960608201527f6d616765223a202268747470733a2f2f692e696d6775722e636f6d2f396b766560808201527f74696a2e706e67222c226e616d65223a202250726f6f66206f6620506173737060a0820152646f7274202360d81b60c0820152835161363b8160c5840160208801612fcf565b61227d60f01b60c5929091019182015260c701949350505050565b7f646174613a6170706c69636174696f6e2f6a736f6e3b6261736536342c00000081526000825161368e81601d850160208701612fcf565b91909101601d0192915050565b600060ff821660ff81036136b1576136b161347a565b60010192915050565b6000602082840312156136cc57600080fd5b8151612ea2816131e4565b808201808211156105ce576105ce61347a565b6102c081016040808784378083018660005b6002811015613719578382843791830191908301906001016136fc565b505050808560c08501375061010082018360005b600e81101561374c57815183526020928301929091019060010161372d565b50505095945050505050565b601f8211156108a057600081815260208120601f850160051c8101602086101561377f5750805b601f850160051c820191505b8181101561379e5782815560010161378b565b505050505050565b81516001600160401b038111156137bf576137bf612ea9565b6137d3816137cd8454613430565b84613758565b602080601f83116001811461380857600084156137f05750858301515b600019600386901b1c1916600185901b17855561379e565b600085815260208120601f198616915b8281101561383757888601518255948401946001909101908401613818565b50858210156138555787850151600019600388901b60f8161c191681555b5050505050600190811b01905550565b634e487b7160e01b600052601260045260246000fd5b60008261388a5761388a613865565b500690565b600083516138a1818460208801612fcf565b6001600160f81b0319939093169190920190815260010192915050565b60208082526025908201527f4552433732313a207472616e736665722066726f6d20696e636f72726563742060408201526437bbb732b960d91b606082015260800190565b60208082526032908201527f4552433732313a207472616e7366657220746f206e6f6e20455243373231526560408201527131b2b4bb32b91034b6b83632b6b2b73a32b960711b606082015260800190565b60008451613967818460208901612fcf565b6f3d913a3930b4ba2fba3cb832911d101160811b9083019081528451613994816010840160208901612fcf565b6c111610113b30b63ab2911d101160991b6010929091019182015283516139c281601d840160208801612fcf565b62089f4b60ea1b601d929091019182015260200195945050505050565b6000826139ee576139ee613865565b500490565b80820281158282048414176105ce576105ce61347a565b6001600160a01b0385811682528416602082015260408101839052608060608201819052600090613a3d90830184612ff3565b9695505050505050565b600060208284031215613a5957600080fd5b8151612ea281612e6f565b600082601f830112613a7557600080fd5b8151613a83612f3582612eef565b818152846020838601011115613a9857600080fd5b611c4d826020830160208701612fcf565b600060208284031215613abb57600080fd5b81516001600160401b03811115613ad157600080fd5b611c4d84828501613a64565b60006020808385031215613af057600080fd5b82516001600160401b0380821115613b0757600080fd5b818501915085601f830112613b1b57600080fd5b815181811115613b2d57613b2d612ea9565b8060051b613b3c858201612ebf565b9182528381018501918581019089841115613b5657600080fd5b86860192505b83831015613b9257825185811115613b745760008081fd5b613b828b89838a0101613a64565b8352509186019190860190613b5c565b9998505050505050505050565b634e487b7160e01b600052603160045260246000fdfe4142434445464748494a4b4c4d4e4f505152535455565758595a6162636465666768696a6b6c6d6e6f707172737475767778797a303132333435363738392b2fa164736f6c6343000812000abb7b4a454dc3493923482f07822329ed19e8244eff582cc204f8554c3620c3fd",
  "linkReferences": {},
  "deployedLinkReferences": {}
}