{
  "_format": "hh-sol-artifact-1",
  "contractName": "ProofOfPassportRegister",
  "sourceName": "contracts/ProofOfPassportRegister.sol",
  "abi": [
    {
      "inputs": [
        {
          "internalType": "contract Registry",
          "name": "r",
          "type": "address"
        }
      ],
      "stateMutability": "nonpayable",
      "type": "constructor"
    },
    {
      "inputs": [],
      "name": "LeafAlreadyExists",
      "type": "error"
    },
    {
      "inputs": [],
      "name": "LeafCannotBeZero",
      "type": "error"
    },
    {
      "inputs": [],
      "name": "LeafDoesNotExist",
      "type": "error"
    },
    {
      "inputs": [],
      "name": "LeafGreaterThanSnarkScalarField",
      "type": "error"
    },
    {
      "inputs": [],
      "name": "Register__InvalidMerkleRoot",
      "type": "error"
    },
    {
      "inputs": [],
      "name": "Register__InvalidProof",
      "type": "error"
    },
    {
      "inputs": [],
      "name": "Register__InvalidSignatureAlgorithm",
      "type": "error"
    },
    {
      "inputs": [],
      "name": "Register__InvalidVerifierAddress",
      "type": "error"
    },
    {
      "inputs": [],
      "name": "Register__SignatureAlgorithmAlreadySet",
      "type": "error"
    },
    {
      "inputs": [],
      "name": "Register__YouAreUsingTheSameNullifierTwice",
      "type": "error"
    },
    {
      "anonymous": false,
      "inputs": [
        {
          "indexed": false,
          "internalType": "uint256",
          "name": "index",
          "type": "uint256"
        },
        {
          "indexed": false,
          "internalType": "uint256",
          "name": "commitment",
          "type": "uint256"
        },
        {
          "indexed": false,
          "internalType": "uint256",
          "name": "merkle_root",
          "type": "uint256"
        }
      ],
      "name": "AddCommitment",
      "type": "event"
    },
    {
      "anonymous": false,
      "inputs": [
        {
          "indexed": true,
          "internalType": "address",
          "name": "previousOwner",
          "type": "address"
        },
        {
          "indexed": true,
          "internalType": "address",
          "name": "newOwner",
          "type": "address"
        }
      ],
      "name": "OwnershipTransferred",
      "type": "event"
    },
    {
      "anonymous": false,
      "inputs": [
        {
          "indexed": false,
          "internalType": "uint256",
          "name": "merkle_root",
          "type": "uint256"
        },
        {
          "indexed": false,
          "internalType": "uint256",
          "name": "nullifier",
          "type": "uint256"
        },
        {
          "indexed": false,
          "internalType": "uint256",
          "name": "commitment",
          "type": "uint256"
        }
      ],
      "name": "ProofValidated",
      "type": "event"
    },
    {
      "inputs": [
        {
          "internalType": "uint256",
          "name": "signature_algorithm",
          "type": "uint256"
        },
        {
          "internalType": "address",
          "name": "verifier_address",
          "type": "address"
        }
      ],
      "name": "addSignatureAlgorithm",
      "outputs": [],
      "stateMutability": "nonpayable",
      "type": "function"
    },
    {
      "inputs": [],
      "name": "attestationId",
      "outputs": [
        {
          "internalType": "bytes32",
          "name": "",
          "type": "bytes32"
        }
      ],
      "stateMutability": "view",
      "type": "function"
    },
    {
      "inputs": [
        {
          "internalType": "uint256",
          "name": "root",
          "type": "uint256"
        }
      ],
      "name": "checkRoot",
      "outputs": [
        {
          "internalType": "bool",
          "name": "",
          "type": "bool"
        }
      ],
      "stateMutability": "view",
      "type": "function"
    },
    {
      "inputs": [],
      "name": "getMerkleRoot",
      "outputs": [
        {
          "internalType": "uint256",
          "name": "",
          "type": "uint256"
        }
      ],
      "stateMutability": "view",
      "type": "function"
    },
    {
      "inputs": [],
      "name": "getMerkleTreeSize",
      "outputs": [
        {
          "internalType": "uint256",
          "name": "",
          "type": "uint256"
        }
      ],
      "stateMutability": "view",
      "type": "function"
    },
    {
      "inputs": [
        {
          "internalType": "uint256",
          "name": "commitment",
          "type": "uint256"
        }
      ],
      "name": "indexOf",
      "outputs": [
        {
          "internalType": "uint256",
          "name": "",
          "type": "uint256"
        }
      ],
      "stateMutability": "view",
      "type": "function"
    },
    {
      "inputs": [
        {
          "internalType": "uint256",
          "name": "",
          "type": "uint256"
        }
      ],
      "name": "merkleRootsCreated",
      "outputs": [
        {
          "internalType": "bool",
          "name": "",
          "type": "bool"
        }
      ],
      "stateMutability": "view",
      "type": "function"
    },
    {
      "inputs": [
        {
          "internalType": "uint256",
          "name": "",
          "type": "uint256"
        }
      ],
      "name": "nullifiers",
      "outputs": [
        {
          "internalType": "bool",
          "name": "",
          "type": "bool"
        }
      ],
      "stateMutability": "view",
      "type": "function"
    },
    {
      "inputs": [],
      "name": "owner",
      "outputs": [
        {
          "internalType": "address",
          "name": "",
          "type": "address"
        }
      ],
      "stateMutability": "view",
      "type": "function"
    },
    {
      "inputs": [],
      "name": "registry",
      "outputs": [
        {
          "internalType": "contract Registry",
          "name": "",
          "type": "address"
        }
      ],
      "stateMutability": "view",
      "type": "function"
    },
    {
      "inputs": [
        {
          "internalType": "uint256",
          "name": "signature_algorithm",
          "type": "uint256"
        }
      ],
      "name": "removeSignatureAlgorithm",
      "outputs": [],
      "stateMutability": "nonpayable",
      "type": "function"
    },
    {
      "inputs": [],
      "name": "renounceOwnership",
      "outputs": [],
      "stateMutability": "nonpayable",
      "type": "function"
    },
    {
      "inputs": [
        {
          "internalType": "address",
          "name": "newOwner",
          "type": "address"
        }
      ],
      "name": "transferOwnership",
      "outputs": [],
      "stateMutability": "nonpayable",
      "type": "function"
    },
    {
      "inputs": [
        {
          "internalType": "uint256",
          "name": "signature_algorithm",
          "type": "uint256"
        },
        {
          "internalType": "address",
          "name": "verifier_address",
          "type": "address"
        }
      ],
      "name": "updateSignaturesAlgorithm",
      "outputs": [],
      "stateMutability": "nonpayable",
      "type": "function"
    },
    {
      "inputs": [
        {
          "components": [
            {
              "internalType": "uint256",
              "name": "commitment",
              "type": "uint256"
            },
            {
              "internalType": "uint256",
              "name": "nullifier",
              "type": "uint256"
            },
            {
              "internalType": "uint256",
              "name": "merkle_root",
              "type": "uint256"
            },
            {
              "internalType": "uint256",
              "name": "attestation_id",
              "type": "uint256"
            },
            {
              "internalType": "uint256[2]",
              "name": "a",
              "type": "uint256[2]"
            },
            {
              "internalType": "uint256[2][2]",
              "name": "b",
              "type": "uint256[2][2]"
            },
            {
              "internalType": "uint256[2]",
              "name": "c",
              "type": "uint256[2]"
            }
          ],
          "internalType": "struct IRegister.RegisterProof",
          "name": "proof",
          "type": "tuple"
        },
        {
          "internalType": "uint256",
          "name": "signature_algorithm",
          "type": "uint256"
        }
      ],
      "name": "validateProof",
      "outputs": [],
      "stateMutability": "nonpayable",
      "type": "function"
    },
    {
      "inputs": [
        {
          "internalType": "uint256",
          "name": "",
          "type": "uint256"
        }
      ],
      "name": "verifiers",
      "outputs": [
        {
          "internalType": "address",
          "name": "",
          "type": "address"
        }
      ],
      "stateMutability": "view",
      "type": "function"
    },
    {
      "inputs": [
        {
          "components": [
            {
              "internalType": "uint256",
              "name": "commitment",
              "type": "uint256"
            },
            {
              "internalType": "uint256",
              "name": "nullifier",
              "type": "uint256"
            },
            {
              "internalType": "uint256",
              "name": "merkle_root",
              "type": "uint256"
            },
            {
              "internalType": "uint256",
              "name": "attestation_id",
              "type": "uint256"
            },
            {
              "internalType": "uint256[2]",
              "name": "a",
              "type": "uint256[2]"
            },
            {
              "internalType": "uint256[2][2]",
              "name": "b",
              "type": "uint256[2][2]"
            },
            {
              "internalType": "uint256[2]",
              "name": "c",
              "type": "uint256[2]"
            }
          ],
          "internalType": "struct IRegister.RegisterProof",
          "name": "proof",
          "type": "tuple"
        },
        {
          "internalType": "uint256",
          "name": "signature_algorithm",
          "type": "uint256"
        }
      ],
      "name": "verifyProof",
      "outputs": [
        {
          "internalType": "bool",
          "name": "",
          "type": "bool"
        }
      ],
      "stateMutability": "view",
      "type": "function"
    }
  ],
  "bytecode": "0x60a06040527f12d57183e0a41615471a14e5a93c87b9db757118c1d7a6a9f73106819d656f2460055534801561003457600080fd5b506040516200100738038062001007833981016040819052610055916101a4565b61005e3361007a565b6001600160a01b038116608052610074336100ca565b506101d4565b600080546001600160a01b038381166001600160a01b0319831681178455604051919092169283917f8be0079c531659141344cd1fd0a4f28419497f9722a3daafe3b4186f6b6457e09190a35050565b6100d2610148565b6001600160a01b03811661013c5760405162461bcd60e51b815260206004820152602660248201527f4f776e61626c653a206e6577206f776e657220697320746865207a65726f206160448201526564647265737360d01b60648201526084015b60405180910390fd5b6101458161007a565b50565b6000546001600160a01b031633146101a25760405162461bcd60e51b815260206004820181905260248201527f4f776e61626c653a2063616c6c6572206973206e6f7420746865206f776e65726044820152606401610133565b565b6000602082840312156101b657600080fd5b81516001600160a01b03811681146101cd57600080fd5b9392505050565b608051610e10620001f7600039600081816101be01526103760152610e106000f3fe608060405234801561001057600080fd5b506004361061010b5760003560e01c80638da5cb5b116100a2578063d21e82ab11610071578063d21e82ab14610268578063e8279ca01461028b578063f2fde38b14610293578063f6e2e183146102a6578063fb8d5a9c146102b957600080fd5b80638da5cb5b146101f857806391ac7e6514610209578063930253d31461021c578063ac1eff681461023f57600080fd5b806349590657116100de57806349590657146101875780635f1b92851461019e578063715018a6146101b15780637b103999146101b957600080fd5b8063053a9dee146101105780630c3f01741461012557806338e886721461015d5780633d218f2e14610170575b600080fd5b61012361011e366004610b52565b6102cc565b005b610148610133366004610b7e565b60009081526007602052604090205460ff1690565b60405190151581526020015b60405180910390f35b61012361016b366004610b97565b61035d565b61017960055481565b604051908152602001610154565b600254600090815260036020526040902054610179565b6101236101ac366004610b7e565b610592565b6101236105b8565b6101e07f000000000000000000000000000000000000000000000000000000000000000081565b6040516001600160a01b039091168152602001610154565b6000546001600160a01b03166101e0565b610179610217366004610b7e565b6105cc565b61014861022a366004610b7e565b60076020526000908152604090205460ff1681565b6101e061024d366004610b7e565b6008602052600090815260409020546001600160a01b031681565b610148610276366004610b7e565b60066020526000908152604090205460ff1681565b600154610179565b6101236102a1366004610bc9565b6105df565b6101486102b4366004610b97565b610658565b6101236102c7366004610b52565b610715565b6102d46107e7565b6001600160a01b03811661032f5760405162461bcd60e51b815260206004820181905260248201527f52656769737465725f5f496e76616c696456657269666965724164647265737360448201526064015b60405180910390fd5b60009182526008602052604090912080546001600160a01b0319166001600160a01b03909216919091179055565b604080516306c8442b60e01b81529083013560048201527f00000000000000000000000000000000000000000000000000000000000000006001600160a01b0316906306c8442b90602401602060405180830381865afa1580156103c5573d6000803e3d6000fd5b505050506040513d601f19601f820116820180604052508101906103e99190610be4565b6104295760405162461bcd60e51b8152602060048201526011602482015270125b9d985b1a5913595c9adb19549bdbdd607a1b6044820152606401610326565b60208083013560009081526006909152604090205460ff161561048e5760405162461bcd60e51b815260206004820181905260248201527f596f754172655573696e6754686553616d654e756c6c696669657254776963656044820152606401610326565b6005546060830135146104da5760405162461bcd60e51b8152602060048201526014602482015273125b9d985b1a59105d1d195cdd185d1a5bdb925960621b6044820152606401610326565b6104e48282610658565b61051f5760405162461bcd60e51b815260206004820152600c60248201526b24b73b30b634b2283937b7b360a11b6044820152606401610326565b6020808301356000908152600690915260409020805460ff191660011790556105488235610841565b604080518382013581526020808501359082015283358183015290517f20fa34be2f576b14b2386fc4efd8aba002a22414694e0caa8dfbe6dcca80446f9181900360600190a15050565b61059a6107e7565b600090815260086020526040902080546001600160a01b0319169055565b6105c06107e7565b6105ca60006108be565b565b60006105d960018361090e565b92915050565b6105e76107e7565b6001600160a01b03811661064c5760405162461bcd60e51b815260206004820152602660248201527f4f776e61626c653a206e6577206f776e657220697320746865207a65726f206160448201526564647265737360d01b6064820152608401610326565b610655816108be565b50565b6000818152600860209081526040808320548151608081810184528735825287850135948201949094528683013581840152606080880135908201529151635fe8c13b60e01b81526001600160a01b0390911692635fe8c13b926106cd929188019160c08901916101408a0191600401610c06565b602060405180830381865afa1580156106ea573d6000803e3d6000fd5b505050506040513d601f19601f8201168201806040525081019061070e9190610be4565b9392505050565b61071d6107e7565b6001600160a01b0381166107735760405162461bcd60e51b815260206004820181905260248201527f52656769737465725f5f496e76616c69645665726966696572416464726573736044820152606401610326565b6000828152600860205260409020546001600160a01b03161561032f5760405162461bcd60e51b815260206004820152602660248201527f52656769737465725f5f5369676e6174757265416c676f726974686d416c726560448201526518591e54d95d60d21b6064820152608401610326565b6000546001600160a01b031633146105ca5760405162461bcd60e51b815260206004820181905260248201527f4f776e61626c653a2063616c6c6572206973206e6f7420746865206f776e65726044820152606401610326565b600061084c60015490565b9050600061085b60018461095b565b600081815260076020908152604091829020805460ff1916600117905581518581529081018690529081018290529091507f224901e059e15209e82e03662716a6512d959c05536d0c057e0cd52ef6345ebd9060600160405180910390a1505050565b600080546001600160a01b038381166001600160a01b0319831681178455604051919092169283917f8be0079c531659141344cd1fd0a4f28419497f9722a3daafe3b4186f6b6457e09190a35050565b6000818152600383016020526040812054810361093e57604051631c811d5b60e21b815260040160405180910390fd5b600082815260038401602052604090205461070e90600190610c8a565b60007f30644e72e131a029b85045b68181585d2833e84879b9709143e1f593f0000001821061099d576040516361c0541760e11b815260040160405180910390fd5b816000036109be576040516314b48df160e11b815260040160405180910390fd5b6000828152600384016020526040902054156109ed576040516312c50cad60e11b815260040160405180910390fd5b825460018085015490610a01908390610c9d565b610a0c826002610d94565b1015610a1e57610a1b81610da0565b90505b600185018190558360005b82811015610afb578084901c600116600103610adf57604080518082018252600083815260028a0160209081529083902054825281018490529051632b0aac7f60e11b815273__$75f79a42d9bcbdbb69ad79ebd80f556f39$__9163561558fe91610a979190600401610db9565b602060405180830381865af4158015610ab4573d6000803e3d6000fd5b505050506040513d601f19601f82011682018060405250810190610ad89190610dea565b9150610af3565b600081815260028801602052604090208290555b600101610a29565b50610b0583610da0565b8087556000928352600287016020908152604080852084905596845260039097019096529390209390935550919050565b80356001600160a01b0381168114610b4d57600080fd5b919050565b60008060408385031215610b6557600080fd5b82359150610b7560208401610b36565b90509250929050565b600060208284031215610b9057600080fd5b5035919050565b6000808284036101a0811215610bac57600080fd5b61018080821215610bbc57600080fd5b9395938601359450505050565b600060208284031215610bdb57600080fd5b61070e82610b36565b600060208284031215610bf657600080fd5b8151801515811461070e57600080fd5b61018081016040808784378083018660005b6002811015610c3557838284379183019190830190600101610c18565b505050808560c08501375061010082018360005b6004811015610c68578151835260209283019290910190600101610c49565b50505095945050505050565b634e487b7160e01b600052601160045260246000fd5b818103818111156105d9576105d9610c74565b808201808211156105d9576105d9610c74565b600181815b80851115610ceb578160001904821115610cd157610cd1610c74565b80851615610cde57918102915b93841c9390800290610cb5565b509250929050565b600082610d02575060016105d9565b81610d0f575060006105d9565b8160018114610d255760028114610d2f57610d4b565b60019150506105d9565b60ff841115610d4057610d40610c74565b50506001821b6105d9565b5060208310610133831016604e8410600b8410161715610d6e575081810a6105d9565b610d788383610cb0565b8060001904821115610d8c57610d8c610c74565b029392505050565b600061070e8383610cf3565b600060018201610db257610db2610c74565b5060010190565b60408101818360005b6002811015610de1578151835260209283019290910190600101610dc2565b50505092915050565b600060208284031215610dfc57600080fd5b505191905056fea164736f6c6343000812000a",
  "linkReferences": {
    "poseidon-solidity/PoseidonT3.sol": {
      "PoseidonT3": [
        {
          "length": 20,
          "start": 3175
        }
      ]
    }
  },
  "deployedLinkReferences": {
    "poseidon-solidity/PoseidonT3.sol": {
      "PoseidonT3": [
        {
          "length": 20,
          "start": 2672
        }
      ]
    }
  }
}