{
  "_format": "hh-sol-artifact-1",
  "contractName": "ProofOfPassportRegister",
  "sourceName": "contracts/ProofOfPassportRegister.sol",
  "abi": [
    {
      "inputs": [
        {
          "internalType": "contract Registry",
          "name": "r",
          "type": "address"
        },
        {
          "internalType": "address",
          "name": "_cscaVerifier",
          "type": "address"
        }
      ],
      "stateMutability": "nonpayable",
      "type": "constructor"
    },
    {
      "inputs": [],
      "name": "LeafAlreadyExists",
      "type": "error"
    },
    {
      "inputs": [],
      "name": "LeafCannotBeZero",
      "type": "error"
    },
    {
      "inputs": [],
      "name": "LeafDoesNotExist",
      "type": "error"
    },
    {
      "inputs": [],
      "name": "LeafGreaterThanSnarkScalarField",
      "type": "error"
    },
    {
      "inputs": [],
      "name": "Register__InvalidMerkleRoot",
      "type": "error"
    },
    {
      "inputs": [],
      "name": "Register__InvalidProof",
      "type": "error"
    },
    {
      "inputs": [],
      "name": "Register__InvalidSignatureAlgorithm",
      "type": "error"
    },
    {
      "inputs": [],
      "name": "Register__InvalidVerifierAddress",
      "type": "error"
    },
    {
      "inputs": [],
      "name": "Register__SignatureAlgorithmAlreadySet",
      "type": "error"
    },
    {
      "inputs": [],
      "name": "Register__YouAreUsingTheSameNullifierTwice",
      "type": "error"
    },
    {
      "anonymous": false,
      "inputs": [
        {
          "indexed": false,
          "internalType": "uint256",
          "name": "index",
          "type": "uint256"
        },
        {
          "indexed": false,
          "internalType": "uint256",
          "name": "commitment",
          "type": "uint256"
        },
        {
          "indexed": false,
          "internalType": "uint256",
          "name": "merkle_root",
          "type": "uint256"
        }
      ],
      "name": "AddCommitment",
      "type": "event"
    },
    {
      "anonymous": false,
      "inputs": [
        {
          "indexed": true,
          "internalType": "address",
          "name": "previousOwner",
          "type": "address"
        },
        {
          "indexed": true,
          "internalType": "address",
          "name": "newOwner",
          "type": "address"
        }
      ],
      "name": "OwnershipTransferred",
      "type": "event"
    },
    {
      "anonymous": false,
      "inputs": [
        {
          "indexed": false,
          "internalType": "uint256",
          "name": "merkle_root",
          "type": "uint256"
        },
        {
          "indexed": false,
          "internalType": "uint256",
          "name": "nullifier",
          "type": "uint256"
        },
        {
          "indexed": false,
          "internalType": "uint256",
          "name": "commitment",
          "type": "uint256"
        }
      ],
      "name": "ProofValidated",
      "type": "event"
    },
    {
      "inputs": [
        {
          "internalType": "uint256",
          "name": "signature_algorithm",
          "type": "uint256"
        },
        {
          "internalType": "address",
          "name": "verifier_address",
          "type": "address"
        }
      ],
      "name": "addSignatureAlgorithm",
      "outputs": [],
      "stateMutability": "nonpayable",
      "type": "function"
    },
    {
      "inputs": [],
      "name": "attestationId",
      "outputs": [
        {
          "internalType": "bytes32",
          "name": "",
          "type": "bytes32"
        }
      ],
      "stateMutability": "view",
      "type": "function"
    },
    {
      "inputs": [
        {
          "internalType": "uint256",
          "name": "root",
          "type": "uint256"
        }
      ],
      "name": "checkRoot",
      "outputs": [
        {
          "internalType": "bool",
          "name": "",
          "type": "bool"
        }
      ],
      "stateMutability": "view",
      "type": "function"
    },
    {
      "inputs": [],
      "name": "cscaVerifier",
      "outputs": [
        {
          "internalType": "address",
          "name": "",
          "type": "address"
        }
      ],
      "stateMutability": "view",
      "type": "function"
    },
    {
      "inputs": [
        {
          "internalType": "uint256",
          "name": "commitment",
          "type": "uint256"
        }
      ],
      "name": "devAddCommitment",
      "outputs": [],
      "stateMutability": "nonpayable",
      "type": "function"
    },
    {
      "inputs": [],
      "name": "getMerkleRoot",
      "outputs": [
        {
          "internalType": "uint256",
          "name": "",
          "type": "uint256"
        }
      ],
      "stateMutability": "view",
      "type": "function"
    },
    {
      "inputs": [],
      "name": "getMerkleTreeSize",
      "outputs": [
        {
          "internalType": "uint256",
          "name": "",
          "type": "uint256"
        }
      ],
      "stateMutability": "view",
      "type": "function"
    },
    {
      "inputs": [
        {
          "internalType": "uint256",
          "name": "commitment",
          "type": "uint256"
        }
      ],
      "name": "indexOf",
      "outputs": [
        {
          "internalType": "uint256",
          "name": "",
          "type": "uint256"
        }
      ],
      "stateMutability": "view",
      "type": "function"
    },
    {
      "inputs": [
        {
          "internalType": "uint256",
          "name": "",
          "type": "uint256"
        }
      ],
      "name": "merkleRootsCreated",
      "outputs": [
        {
          "internalType": "bool",
          "name": "",
          "type": "bool"
        }
      ],
      "stateMutability": "view",
      "type": "function"
    },
    {
      "inputs": [
        {
          "internalType": "uint256",
          "name": "",
          "type": "uint256"
        }
      ],
      "name": "nullifiers",
      "outputs": [
        {
          "internalType": "bool",
          "name": "",
          "type": "bool"
        }
      ],
      "stateMutability": "view",
      "type": "function"
    },
    {
      "inputs": [],
      "name": "owner",
      "outputs": [
        {
          "internalType": "address",
          "name": "",
          "type": "address"
        }
      ],
      "stateMutability": "view",
      "type": "function"
    },
    {
      "inputs": [],
      "name": "registry",
      "outputs": [
        {
          "internalType": "contract Registry",
          "name": "",
          "type": "address"
        }
      ],
      "stateMutability": "view",
      "type": "function"
    },
    {
      "inputs": [
        {
          "internalType": "uint256",
          "name": "signature_algorithm",
          "type": "uint256"
        }
      ],
      "name": "removeSignatureAlgorithm",
      "outputs": [],
      "stateMutability": "nonpayable",
      "type": "function"
    },
    {
      "inputs": [],
      "name": "renounceOwnership",
      "outputs": [],
      "stateMutability": "nonpayable",
      "type": "function"
    },
    {
      "inputs": [
        {
          "internalType": "address",
          "name": "newOwner",
          "type": "address"
        }
      ],
      "name": "transferOwnership",
      "outputs": [],
      "stateMutability": "nonpayable",
      "type": "function"
    },
    {
      "inputs": [
        {
          "internalType": "address",
          "name": "_cscaVerifier",
          "type": "address"
        }
      ],
      "name": "updateCSCAVerifier",
      "outputs": [],
      "stateMutability": "nonpayable",
      "type": "function"
    },
    {
      "inputs": [
        {
          "internalType": "uint256",
          "name": "signature_algorithm",
          "type": "uint256"
        },
        {
          "internalType": "address",
          "name": "verifier_address",
          "type": "address"
        }
      ],
      "name": "updateSignaturesAlgorithm",
      "outputs": [],
      "stateMutability": "nonpayable",
      "type": "function"
    },
    {
      "inputs": [
        {
          "components": [
            {
              "internalType": "uint256",
              "name": "blinded_dsc_commitment",
              "type": "uint256"
            },
            {
              "internalType": "uint256",
              "name": "nullifier",
              "type": "uint256"
            },
            {
              "internalType": "uint256",
              "name": "commitment",
              "type": "uint256"
            },
            {
              "internalType": "uint256",
              "name": "attestation_id",
              "type": "uint256"
            },
            {
              "internalType": "uint256[2]",
              "name": "a",
              "type": "uint256[2]"
            },
            {
              "internalType": "uint256[2][2]",
              "name": "b",
              "type": "uint256[2][2]"
            },
            {
              "internalType": "uint256[2]",
              "name": "c",
              "type": "uint256[2]"
            }
          ],
          "internalType": "struct IRegister.RegisterProof",
          "name": "proof",
          "type": "tuple"
        },
        {
          "components": [
            {
              "internalType": "uint256",
              "name": "blinded_dsc_commitment",
              "type": "uint256"
            },
            {
              "internalType": "uint256",
              "name": "merkle_root",
              "type": "uint256"
            },
            {
              "internalType": "uint256[2]",
              "name": "a",
              "type": "uint256[2]"
            },
            {
              "internalType": "uint256[2][2]",
              "name": "b",
              "type": "uint256[2][2]"
            },
            {
              "internalType": "uint256[2]",
              "name": "c",
              "type": "uint256[2]"
            }
          ],
          "internalType": "struct IRegister.CSCAProof",
          "name": "proof_csca",
          "type": "tuple"
        },
        {
          "internalType": "uint256",
          "name": "signature_algorithm",
          "type": "uint256"
        }
      ],
      "name": "validateProof",
      "outputs": [],
      "stateMutability": "nonpayable",
      "type": "function"
    },
    {
      "inputs": [
        {
          "internalType": "uint256",
          "name": "",
          "type": "uint256"
        }
      ],
      "name": "verifiers",
      "outputs": [
        {
          "internalType": "address",
          "name": "",
          "type": "address"
        }
      ],
      "stateMutability": "view",
      "type": "function"
    },
    {
      "inputs": [
        {
          "components": [
            {
              "internalType": "uint256",
              "name": "blinded_dsc_commitment",
              "type": "uint256"
            },
            {
              "internalType": "uint256",
              "name": "nullifier",
              "type": "uint256"
            },
            {
              "internalType": "uint256",
              "name": "commitment",
              "type": "uint256"
            },
            {
              "internalType": "uint256",
              "name": "attestation_id",
              "type": "uint256"
            },
            {
              "internalType": "uint256[2]",
              "name": "a",
              "type": "uint256[2]"
            },
            {
              "internalType": "uint256[2][2]",
              "name": "b",
              "type": "uint256[2][2]"
            },
            {
              "internalType": "uint256[2]",
              "name": "c",
              "type": "uint256[2]"
            }
          ],
          "internalType": "struct IRegister.RegisterProof",
          "name": "proof",
          "type": "tuple"
        },
        {
          "components": [
            {
              "internalType": "uint256",
              "name": "blinded_dsc_commitment",
              "type": "uint256"
            },
            {
              "internalType": "uint256",
              "name": "merkle_root",
              "type": "uint256"
            },
            {
              "internalType": "uint256[2]",
              "name": "a",
              "type": "uint256[2]"
            },
            {
              "internalType": "uint256[2][2]",
              "name": "b",
              "type": "uint256[2][2]"
            },
            {
              "internalType": "uint256[2]",
              "name": "c",
              "type": "uint256[2]"
            }
          ],
          "internalType": "struct IRegister.CSCAProof",
          "name": "proof_csca",
          "type": "tuple"
        },
        {
          "internalType": "uint256",
          "name": "signature_algorithm",
          "type": "uint256"
        }
      ],
      "name": "verifyProof",
      "outputs": [
        {
          "internalType": "bool",
          "name": "",
          "type": "bool"
        }
      ],
      "stateMutability": "view",
      "type": "function"
    }
  ],
  "bytecode": "0x60a06040527f12d57183e0a41615471a14e5a93c87b9db757118c1d7a6a9f73106819d656f246005553480156200003557600080fd5b50604051620011a1380380620011a18339810160408190526200005891620001e2565b62000063336200009b565b6001600160a01b03828116608052600980546001600160a01b0319169183169190911790556200009333620000eb565b505062000221565b600080546001600160a01b038381166001600160a01b0319831681178455604051919092169283917f8be0079c531659141344cd1fd0a4f28419497f9722a3daafe3b4186f6b6457e09190a35050565b620000f56200016e565b6001600160a01b038116620001605760405162461bcd60e51b815260206004820152602660248201527f4f776e61626c653a206e6577206f776e657220697320746865207a65726f206160448201526564647265737360d01b60648201526084015b60405180910390fd5b6200016b816200009b565b50565b6000546001600160a01b03163314620001ca5760405162461bcd60e51b815260206004820181905260248201527f4f776e61626c653a2063616c6c6572206973206e6f7420746865206f776e6572604482015260640162000157565b565b6001600160a01b03811681146200016b57600080fd5b60008060408385031215620001f657600080fd5b82516200020381620001cc565b60208401519092506200021681620001cc565b809150509250929050565b608051610f5d62000244600039600081816101df01526103a40152610f5d6000f3fe608060405234801561001057600080fd5b506004361061012c5760003560e01c8063930253d3116100ad578063d66f567f11610071578063d66f567f146102d2578063e037699b146102e5578063e8279ca0146102f8578063f2fde38b14610300578063fb8d5a9c1461031357600080fd5b8063930253d31461023d57806395b307e2146102605780639c3fe53614610273578063ac1eff6814610286578063d21e82ab146102af57600080fd5b80635f1b9285116100f45780635f1b9285146101bf578063715018a6146101d25780637b103999146101da5780638da5cb5b1461021957806391ac7e651461022a57600080fd5b8063053a9dee146101315780630c3f017414610146578063234eb5301461017e5780633d218f2e1461019157806349590657146101a8575b600080fd5b61014461013f366004610bf4565b610326565b005b610169610154366004610c20565b60009081526007602052604090205460ff1690565b60405190151581526020015b60405180910390f35b61014461018c366004610c39565b61038b565b61019a60055481565b604051908152602001610175565b60025460009081526003602052604090205461019a565b6101446101cd366004610c20565b610568565b61014461058e565b6102017f000000000000000000000000000000000000000000000000000000000000000081565b6040516001600160a01b039091168152602001610175565b6000546001600160a01b0316610201565b61019a610238366004610c20565b6105a2565b61016961024b366004610c20565b60076020526000908152604090205460ff1681565b61014461026e366004610c20565b6105b5565b600954610201906001600160a01b031681565b610201610294366004610c20565b6008602052600090815260409020546001600160a01b031681565b6101696102bd366004610c20565b60066020526000908152604090205460ff1681565b6101696102e0366004610c39565b6105c9565b6101446102f3366004610c8b565b610722565b60015461019a565b61014461030e366004610c8b565b610772565b610144610321366004610bf4565b6107e8565b61032e61088a565b6001600160a01b03811661035d5760405162461bcd60e51b815260040161035490610ca6565b60405180910390fd5b60009182526008602052604090912080546001600160a01b0319166001600160a01b03909216919091179055565b6040516306c8442b60e01b8152602083013560048201527f00000000000000000000000000000000000000000000000000000000000000006001600160a01b0316906306c8442b90602401602060405180830381865afa1580156103f3573d6000803e3d6000fd5b505050506040513d601f19601f820116820180604052508101906104179190610cdb565b6104575760405162461bcd60e51b8152602060048201526011602482015270125b9d985b1a5913595c9adb19549bdbdd607a1b6044820152606401610354565b6005546060840135146104a35760405162461bcd60e51b8152602060048201526014602482015273125b9d985b1a59105d1d195cdd185d1a5bdb925960621b6044820152606401610354565b6104ae8383836105c9565b6104e95760405162461bcd60e51b815260206004820152600c60248201526b24b73b30b634b2283937b7b360a11b6044820152606401610354565b60208084013560009081526006909152604090819020805460ff19166001179055610516908401356108e4565b604080516020808501358252858101359082015281850135918101919091527f20fa34be2f576b14b2386fc4efd8aba002a22414694e0caa8dfbe6dcca80446f906060015b60405180910390a1505050565b61057061088a565b600090815260086020526040902080546001600160a01b0319169055565b61059661088a565b6105a06000610959565b565b60006105af6001836109a9565b92915050565b6105bd61088a565b6105c6816108e4565b50565b6000818152600860209081526040808320548151608081810184528835825288850135948201949094528783013581840152606080890135908201529151635fe8c13b60e01b81526001600160a01b0390911692635fe8c13b9261063e929189019160c08a01916101408b0191600401610d27565b602060405180830381865afa15801561065b573d6000803e3d6000fd5b505050506040513d601f19601f8201168201806040525081019061067f9190610cdb565b801561071a575060095460408051808201825285358152602080870135908201528151637ae4eb4f60e11b81526001600160a01b039093169263f5c9d69e926106d9929088019160808901916101008a0191600401610d7a565b602060405180830381865afa1580156106f6573d6000803e3d6000fd5b505050506040513d601f19601f8201168201806040525081019061071a9190610cdb565b949350505050565b61072a61088a565b6001600160a01b0381166107505760405162461bcd60e51b815260040161035490610ca6565b600980546001600160a01b0319166001600160a01b0392909216919091179055565b61077a61088a565b6001600160a01b0381166107df5760405162461bcd60e51b815260206004820152602660248201527f4f776e61626c653a206e6577206f776e657220697320746865207a65726f206160448201526564647265737360d01b6064820152608401610354565b6105c681610959565b6107f061088a565b6001600160a01b0381166108165760405162461bcd60e51b815260040161035490610ca6565b6000828152600860205260409020546001600160a01b03161561035d5760405162461bcd60e51b815260206004820152602660248201527f52656769737465725f5f5369676e6174757265416c676f726974686d416c726560448201526518591e54d95d60d21b6064820152608401610354565b6000546001600160a01b031633146105a05760405162461bcd60e51b815260206004820181905260248201527f4f776e61626c653a2063616c6c6572206973206e6f7420746865206f776e65726044820152606401610354565b60006108ef60015490565b905060006108fe6001846109fd565b600081815260076020908152604091829020805460ff1916600117905581518581529081018690529081018290529091507f224901e059e15209e82e03662716a6512d959c05536d0c057e0cd52ef6345ebd9060600161055b565b600080546001600160a01b038381166001600160a01b0319831681178455604051919092169283917f8be0079c531659141344cd1fd0a4f28419497f9722a3daafe3b4186f6b6457e09190a35050565b600081815260038301602052604081205481036109d957604051631c811d5b60e21b815260040160405180910390fd5b60008281526003840160205260409020546109f690600190610dd7565b9392505050565b60007f30644e72e131a029b85045b68181585d2833e84879b9709143e1f593f00000018210610a3f576040516361c0541760e11b815260040160405180910390fd5b81600003610a60576040516314b48df160e11b815260040160405180910390fd5b600082815260038401602052604090205415610a8f576040516312c50cad60e11b815260040160405180910390fd5b825460018085015490610aa3908390610dea565b610aae826002610ee1565b1015610ac057610abd81610eed565b90505b600185018190558360005b82811015610b9d578084901c600116600103610b8157604080518082018252600083815260028a0160209081529083902054825281018490529051632b0aac7f60e11b815273__$75f79a42d9bcbdbb69ad79ebd80f556f39$__9163561558fe91610b399190600401610f06565b602060405180830381865af4158015610b56573d6000803e3d6000fd5b505050506040513d601f19601f82011682018060405250810190610b7a9190610f37565b9150610b95565b600081815260028801602052604090208290555b600101610acb565b50610ba783610eed565b8087556000928352600287016020908152604080852084905596845260039097019096529390209390935550919050565b80356001600160a01b0381168114610bef57600080fd5b919050565b60008060408385031215610c0757600080fd5b82359150610c1760208401610bd8565b90509250929050565b600060208284031215610c3257600080fd5b5035919050565b60008060008385036102e0811215610c5057600080fd5b61018080821215610c6057600080fd5b85945061014061017f1983011215610c7757600080fd5b9396938501955050506102c0909201359150565b600060208284031215610c9d57600080fd5b6109f682610bd8565b6020808252818101527f52656769737465725f5f496e76616c6964566572696669657241646472657373604082015260600190565b600060208284031215610ced57600080fd5b815180151581146109f657600080fd5b8060005b6002811015610d2157604080838637938401939190910190600101610d01565b50505050565b61018081016040868337610d3e6040830186610cfd565b60408460c084013761010082018360005b6004811015610d6e578151835260209283019290910190600101610d4f565b50505095945050505050565b61014081016040868337610d916040830186610cfd565b60408460c084013761010082018360005b6002811015610d6e578151835260209283019290910190600101610da2565b634e487b7160e01b600052601160045260246000fd5b818103818111156105af576105af610dc1565b808201808211156105af576105af610dc1565b600181815b80851115610e38578160001904821115610e1e57610e1e610dc1565b80851615610e2b57918102915b93841c9390800290610e02565b509250929050565b600082610e4f575060016105af565b81610e5c575060006105af565b8160018114610e725760028114610e7c57610e98565b60019150506105af565b60ff841115610e8d57610e8d610dc1565b50506001821b6105af565b5060208310610133831016604e8410600b8410161715610ebb575081810a6105af565b610ec58383610dfd565b8060001904821115610ed957610ed9610dc1565b029392505050565b60006109f68383610e40565b600060018201610eff57610eff610dc1565b5060010190565b60408101818360005b6002811015610f2e578151835260209283019290910190600101610f0f565b50505092915050565b600060208284031215610f4957600080fd5b505191905056fea164736f6c6343000812000a",
  "linkReferences": {
    "poseidon-solidity/PoseidonT3.sol": {
      "PoseidonT3": [
        {
          "length": 20,
          "start": 3414
        }
      ]
    }
  },
  "deployedLinkReferences": {
    "poseidon-solidity/PoseidonT3.sol": {
      "PoseidonT3": [
        {
          "length": 20,
          "start": 2834
        }
      ]
    }
  }
}