{
  "_format": "hh-sol-artifact-1",
  "contractName": "GitcoinProofOfPassportSBT",
  "sourceName": "contracts/Gitcoin_Passport_SBT.sol",
  "abi": [
    {
      "inputs": [
        {
          "internalType": "string",
          "name": "name",
          "type": "string"
        },
        {
          "internalType": "string",
          "name": "symbol",
          "type": "string"
        },
        {
          "internalType": "uint256",
          "name": "scope",
          "type": "uint256"
        },
        {
          "internalType": "contract Verifier_disclose",
          "name": "v",
          "type": "address"
        },
        {
          "internalType": "contract Formatter",
          "name": "f",
          "type": "address"
        },
        {
          "internalType": "contract IRegister",
          "name": "r",
          "type": "address"
        }
      ],
      "stateMutability": "nonpayable",
      "type": "constructor"
    },
    {
      "anonymous": false,
      "inputs": [
        {
          "indexed": true,
          "internalType": "address",
          "name": "owner",
          "type": "address"
        },
        {
          "indexed": true,
          "internalType": "address",
          "name": "approved",
          "type": "address"
        },
        {
          "indexed": true,
          "internalType": "uint256",
          "name": "tokenId",
          "type": "uint256"
        }
      ],
      "name": "Approval",
      "type": "event"
    },
    {
      "anonymous": false,
      "inputs": [
        {
          "indexed": true,
          "internalType": "address",
          "name": "owner",
          "type": "address"
        },
        {
          "indexed": true,
          "internalType": "address",
          "name": "operator",
          "type": "address"
        },
        {
          "indexed": false,
          "internalType": "bool",
          "name": "approved",
          "type": "bool"
        }
      ],
      "name": "ApprovalForAll",
      "type": "event"
    },
    {
      "anonymous": false,
      "inputs": [
        {
          "indexed": true,
          "internalType": "address",
          "name": "previousOwner",
          "type": "address"
        },
        {
          "indexed": true,
          "internalType": "address",
          "name": "newOwner",
          "type": "address"
        }
      ],
      "name": "OwnershipTransferred",
      "type": "event"
    },
    {
      "anonymous": false,
      "inputs": [
        {
          "indexed": true,
          "internalType": "address",
          "name": "from",
          "type": "address"
        },
        {
          "indexed": true,
          "internalType": "address",
          "name": "to",
          "type": "address"
        },
        {
          "indexed": true,
          "internalType": "uint256",
          "name": "tokenId",
          "type": "uint256"
        }
      ],
      "name": "Transfer",
      "type": "event"
    },
    {
      "inputs": [
        {
          "internalType": "address",
          "name": "to",
          "type": "address"
        },
        {
          "internalType": "uint256",
          "name": "tokenId",
          "type": "uint256"
        }
      ],
      "name": "approve",
      "outputs": [],
      "stateMutability": "nonpayable",
      "type": "function"
    },
    {
      "inputs": [
        {
          "internalType": "uint256",
          "name": "",
          "type": "uint256"
        }
      ],
      "name": "attributePositions",
      "outputs": [
        {
          "internalType": "string",
          "name": "name",
          "type": "string"
        },
        {
          "internalType": "uint256",
          "name": "start",
          "type": "uint256"
        },
        {
          "internalType": "uint256",
          "name": "end",
          "type": "uint256"
        },
        {
          "internalType": "uint256",
          "name": "index",
          "type": "uint256"
        }
      ],
      "stateMutability": "view",
      "type": "function"
    },
    {
      "inputs": [
        {
          "internalType": "address",
          "name": "owner",
          "type": "address"
        }
      ],
      "name": "balanceOf",
      "outputs": [
        {
          "internalType": "uint256",
          "name": "",
          "type": "uint256"
        }
      ],
      "stateMutability": "view",
      "type": "function"
    },
    {
      "inputs": [
        {
          "internalType": "uint256[3]",
          "name": "publicSignals",
          "type": "uint256[3]"
        }
      ],
      "name": "fieldElementsToBytes",
      "outputs": [
        {
          "internalType": "bytes",
          "name": "",
          "type": "bytes"
        }
      ],
      "stateMutability": "pure",
      "type": "function"
    },
    {
      "inputs": [],
      "name": "formatter",
      "outputs": [
        {
          "internalType": "contract Formatter",
          "name": "",
          "type": "address"
        }
      ],
      "stateMutability": "view",
      "type": "function"
    },
    {
      "inputs": [
        {
          "internalType": "uint256",
          "name": "tokenId",
          "type": "uint256"
        }
      ],
      "name": "getApproved",
      "outputs": [
        {
          "internalType": "address",
          "name": "",
          "type": "address"
        }
      ],
      "stateMutability": "view",
      "type": "function"
    },
    {
      "inputs": [
        {
          "internalType": "uint256[6]",
          "name": "dateNum",
          "type": "uint256[6]"
        }
      ],
      "name": "getCurrentTimestamp",
      "outputs": [
        {
          "internalType": "uint256",
          "name": "",
          "type": "uint256"
        }
      ],
      "stateMutability": "view",
      "type": "function"
    },
    {
      "inputs": [
        {
          "internalType": "uint256",
          "name": "_tokenId",
          "type": "uint256"
        }
      ],
      "name": "getDateOfBirthOf",
      "outputs": [
        {
          "internalType": "string",
          "name": "",
          "type": "string"
        }
      ],
      "stateMutability": "view",
      "type": "function"
    },
    {
      "inputs": [
        {
          "internalType": "uint256",
          "name": "_tokenId",
          "type": "uint256"
        }
      ],
      "name": "getExpiryDateOf",
      "outputs": [
        {
          "internalType": "string",
          "name": "",
          "type": "string"
        }
      ],
      "stateMutability": "view",
      "type": "function"
    },
    {
      "inputs": [
        {
          "internalType": "uint256",
          "name": "_tokenId",
          "type": "uint256"
        }
      ],
      "name": "getGenderOf",
      "outputs": [
        {
          "internalType": "string",
          "name": "",
          "type": "string"
        }
      ],
      "stateMutability": "view",
      "type": "function"
    },
    {
      "inputs": [
        {
          "internalType": "uint256",
          "name": "_tokenId",
          "type": "uint256"
        }
      ],
      "name": "getIssuingStateOf",
      "outputs": [
        {
          "internalType": "string",
          "name": "",
          "type": "string"
        }
      ],
      "stateMutability": "view",
      "type": "function"
    },
    {
      "inputs": [
        {
          "internalType": "uint256",
          "name": "_tokenId",
          "type": "uint256"
        }
      ],
      "name": "getNameOf",
      "outputs": [
        {
          "internalType": "string",
          "name": "",
          "type": "string"
        }
      ],
      "stateMutability": "view",
      "type": "function"
    },
    {
      "inputs": [
        {
          "internalType": "uint256",
          "name": "_tokenId",
          "type": "uint256"
        }
      ],
      "name": "getNationalityOf",
      "outputs": [
        {
          "internalType": "string",
          "name": "",
          "type": "string"
        }
      ],
      "stateMutability": "view",
      "type": "function"
    },
    {
      "inputs": [
        {
          "internalType": "uint256",
          "name": "_tokenId",
          "type": "uint256"
        }
      ],
      "name": "getOlderThanOf",
      "outputs": [
        {
          "internalType": "string",
          "name": "",
          "type": "string"
        }
      ],
      "stateMutability": "view",
      "type": "function"
    },
    {
      "inputs": [
        {
          "internalType": "uint256",
          "name": "_tokenId",
          "type": "uint256"
        }
      ],
      "name": "getPassportNumberOf",
      "outputs": [
        {
          "internalType": "string",
          "name": "",
          "type": "string"
        }
      ],
      "stateMutability": "view",
      "type": "function"
    },
    {
      "inputs": [
        {
          "internalType": "address",
          "name": "owner",
          "type": "address"
        },
        {
          "internalType": "address",
          "name": "operator",
          "type": "address"
        }
      ],
      "name": "isApprovedForAll",
      "outputs": [
        {
          "internalType": "bool",
          "name": "",
          "type": "bool"
        }
      ],
      "stateMutability": "view",
      "type": "function"
    },
    {
      "inputs": [
        {
          "internalType": "string",
          "name": "date",
          "type": "string"
        }
      ],
      "name": "isExpired",
      "outputs": [
        {
          "internalType": "bool",
          "name": "",
          "type": "bool"
        }
      ],
      "stateMutability": "view",
      "type": "function"
    },
    {
      "inputs": [
        {
          "internalType": "string",
          "name": "a",
          "type": "string"
        },
        {
          "internalType": "string",
          "name": "b",
          "type": "string"
        }
      ],
      "name": "isStringEqual",
      "outputs": [
        {
          "internalType": "bool",
          "name": "",
          "type": "bool"
        }
      ],
      "stateMutability": "pure",
      "type": "function"
    },
    {
      "inputs": [
        {
          "components": [
            {
              "internalType": "uint256",
              "name": "nullifier",
              "type": "uint256"
            },
            {
              "internalType": "uint256[3]",
              "name": "revealedData_packed",
              "type": "uint256[3]"
            },
            {
              "internalType": "uint256",
              "name": "attestation_id",
              "type": "uint256"
            },
            {
              "internalType": "uint256",
              "name": "merkle_root",
              "type": "uint256"
            },
            {
              "internalType": "uint256",
              "name": "scope",
              "type": "uint256"
            },
            {
              "internalType": "uint256[6]",
              "name": "current_date",
              "type": "uint256[6]"
            },
            {
              "internalType": "uint256",
              "name": "user_identifier",
              "type": "uint256"
            },
            {
              "internalType": "uint256[2]",
              "name": "a",
              "type": "uint256[2]"
            },
            {
              "internalType": "uint256[2][2]",
              "name": "b",
              "type": "uint256[2][2]"
            },
            {
              "internalType": "uint256[2]",
              "name": "c",
              "type": "uint256[2]"
            }
          ],
          "internalType": "struct SBT.SBTProof",
          "name": "proof",
          "type": "tuple"
        }
      ],
      "name": "mint",
      "outputs": [],
      "stateMutability": "nonpayable",
      "type": "function"
    },
    {
      "inputs": [],
      "name": "name",
      "outputs": [
        {
          "internalType": "string",
          "name": "",
          "type": "string"
        }
      ],
      "stateMutability": "view",
      "type": "function"
    },
    {
      "inputs": [
        {
          "internalType": "uint256",
          "name": "",
          "type": "uint256"
        }
      ],
      "name": "nullifiers",
      "outputs": [
        {
          "internalType": "bool",
          "name": "",
          "type": "bool"
        }
      ],
      "stateMutability": "view",
      "type": "function"
    },
    {
      "inputs": [],
      "name": "owner",
      "outputs": [
        {
          "internalType": "address",
          "name": "",
          "type": "address"
        }
      ],
      "stateMutability": "view",
      "type": "function"
    },
    {
      "inputs": [
        {
          "internalType": "uint256",
          "name": "tokenId",
          "type": "uint256"
        }
      ],
      "name": "ownerOf",
      "outputs": [
        {
          "internalType": "address",
          "name": "",
          "type": "address"
        }
      ],
      "stateMutability": "view",
      "type": "function"
    },
    {
      "inputs": [],
      "name": "register",
      "outputs": [
        {
          "internalType": "contract IRegister",
          "name": "",
          "type": "address"
        }
      ],
      "stateMutability": "view",
      "type": "function"
    },
    {
      "inputs": [],
      "name": "renounceOwnership",
      "outputs": [],
      "stateMutability": "nonpayable",
      "type": "function"
    },
    {
      "inputs": [
        {
          "internalType": "address",
          "name": "from",
          "type": "address"
        },
        {
          "internalType": "address",
          "name": "to",
          "type": "address"
        },
        {
          "internalType": "uint256",
          "name": "tokenId",
          "type": "uint256"
        }
      ],
      "name": "safeTransferFrom",
      "outputs": [],
      "stateMutability": "nonpayable",
      "type": "function"
    },
    {
      "inputs": [
        {
          "internalType": "address",
          "name": "from",
          "type": "address"
        },
        {
          "internalType": "address",
          "name": "to",
          "type": "address"
        },
        {
          "internalType": "uint256",
          "name": "tokenId",
          "type": "uint256"
        },
        {
          "internalType": "bytes",
          "name": "data",
          "type": "bytes"
        }
      ],
      "name": "safeTransferFrom",
      "outputs": [],
      "stateMutability": "nonpayable",
      "type": "function"
    },
    {
      "inputs": [
        {
          "internalType": "address",
          "name": "operator",
          "type": "address"
        },
        {
          "internalType": "bool",
          "name": "approved",
          "type": "bool"
        }
      ],
      "name": "setApprovalForAll",
      "outputs": [],
      "stateMutability": "nonpayable",
      "type": "function"
    },
    {
      "inputs": [
        {
          "internalType": "uint256[12]",
          "name": "input",
          "type": "uint256[12]"
        }
      ],
      "name": "sliceFirstThree",
      "outputs": [
        {
          "internalType": "uint256[3]",
          "name": "",
          "type": "uint256[3]"
        }
      ],
      "stateMutability": "pure",
      "type": "function"
    },
    {
      "inputs": [
        {
          "internalType": "bytes",
          "name": "str",
          "type": "bytes"
        },
        {
          "internalType": "uint256",
          "name": "startIndex",
          "type": "uint256"
        },
        {
          "internalType": "uint256",
          "name": "endIndex",
          "type": "uint256"
        }
      ],
      "name": "substring",
      "outputs": [
        {
          "internalType": "bytes",
          "name": "",
          "type": "bytes"
        }
      ],
      "stateMutability": "pure",
      "type": "function"
    },
    {
      "inputs": [
        {
          "internalType": "bytes4",
          "name": "interfaceId",
          "type": "bytes4"
        }
      ],
      "name": "supportsInterface",
      "outputs": [
        {
          "internalType": "bool",
          "name": "",
          "type": "bool"
        }
      ],
      "stateMutability": "view",
      "type": "function"
    },
    {
      "inputs": [],
      "name": "symbol",
      "outputs": [
        {
          "internalType": "string",
          "name": "",
          "type": "string"
        }
      ],
      "stateMutability": "view",
      "type": "function"
    },
    {
      "inputs": [
        {
          "internalType": "uint256",
          "name": "index",
          "type": "uint256"
        }
      ],
      "name": "tokenByIndex",
      "outputs": [
        {
          "internalType": "uint256",
          "name": "",
          "type": "uint256"
        }
      ],
      "stateMutability": "view",
      "type": "function"
    },
    {
      "inputs": [
        {
          "internalType": "address",
          "name": "owner",
          "type": "address"
        },
        {
          "internalType": "uint256",
          "name": "index",
          "type": "uint256"
        }
      ],
      "name": "tokenOfOwnerByIndex",
      "outputs": [
        {
          "internalType": "uint256",
          "name": "",
          "type": "uint256"
        }
      ],
      "stateMutability": "view",
      "type": "function"
    },
    {
      "inputs": [
        {
          "internalType": "uint256",
          "name": "_tokenId",
          "type": "uint256"
        }
      ],
      "name": "tokenURI",
      "outputs": [
        {
          "internalType": "string",
          "name": "",
          "type": "string"
        }
      ],
      "stateMutability": "view",
      "type": "function"
    },
    {
      "inputs": [],
      "name": "totalSupply",
      "outputs": [
        {
          "internalType": "uint256",
          "name": "",
          "type": "uint256"
        }
      ],
      "stateMutability": "view",
      "type": "function"
    },
    {
      "inputs": [
        {
          "internalType": "address",
          "name": "from",
          "type": "address"
        },
        {
          "internalType": "address",
          "name": "to",
          "type": "address"
        },
        {
          "internalType": "uint256",
          "name": "tokenId",
          "type": "uint256"
        }
      ],
      "name": "transferFrom",
      "outputs": [],
      "stateMutability": "nonpayable",
      "type": "function"
    },
    {
      "inputs": [
        {
          "internalType": "address",
          "name": "newOwner",
          "type": "address"
        }
      ],
      "name": "transferOwnership",
      "outputs": [],
      "stateMutability": "nonpayable",
      "type": "function"
    },
    {
      "inputs": [],
      "name": "verifier",
      "outputs": [
        {
          "internalType": "contract Verifier_disclose",
          "name": "",
          "type": "address"
        }
      ],
      "stateMutability": "view",
      "type": "function"
    }
  ],
  "bytecode": "0x60c06040523480156200001157600080fd5b506040516200461f3803806200461f8339810160408190526200003491620007bf565b858585858585858560006200004a838262000902565b50600162000059828262000902565b5050506200007662000070620000d760201b60201c565b620000db565b60a08490526001600160a01b03838116608052600b80546001600160a01b031990811685841617909155600c8054909116918316919091179055620000ba6200012d565b620000c53362000603565b505050505050505050505050620009ce565b3390565b600a80546001600160a01b038381166001600160a01b0319831681179093556040519116919082907f8be0079c531659141344cd1fd0a4f28419497f9722a3daafe3b4186f6b6457e090600090a35050565b6040805160c081018252600d608082019081526c69737375696e675f737461746560981b60a08301528152600260208201526004918101829052600060608201819052600e805460018101825591528151919202600080516020620045ff83398151915201908190620001a1908262000902565b506020828101516001808401919091556040808501516002850155606094850151600390940193909355825160c081018452600460808201818152636e616d6560e01b60a08401528252600593820193909352602b93810193909352928201839052600e805493840181556000528151919202600080516020620045ff8339815191520190819062000234908262000902565b50602082810151600180840191909155604080850151600280860191909155606095860151600390950194909455805160c081018252600f608082019081526e3830b9b9b837b93a2fb73ab6b132b960891b60a08301528152602c9381019390935260349083015292810191909152600e8054928301815560005280519091600402600080516020620045ff83398151915201908190620002d6908262000902565b506020828101516001808401919091556040808501516002850155606094850151600394850155805160c081018252600b608082019081526a6e6174696f6e616c69747960a81b60a0830152815260369381019390935260389083015292810191909152600e8054928301815560005280519091600402600080516020620045ff833981519152019081906200036d908262000902565b506020828101516001808401919091556040808501516002850155606094850151600390940193909355825160c081018452600d608082019081526c0c8c2e8cabedeccbec4d2e4e8d609b1b60a08301528152603992810192909252603e928201929092526004928101839052600e805492830181556000528051909291909102600080516020620045ff833981519152019081906200040e908262000902565b506020828101516001808401919091556040808501516002850155606094850151600390940193909355825160c0810184526006608082019081526533b2b73232b960d11b60a0830152815291820183905281830192909252600592810192909252600e8054918201815560005281516004909102600080516020620045ff83398151915201908190620004a3908262000902565b506020828101516001808401919091556040808501516002850155606094850151600390940193909355825160c081018452600b608082019081526a6578706972795f6461746560a81b60a08301528152604192810192909252604692820192909252600692810192909252600e8054918201815560005281516004909102600080516020620045ff8339815191520190819062000542908262000902565b506020828101516001808401919091556040808501516002850155606094850151600390940193909355825160c081018452600a608082019081526937b63232b92fba3430b760b11b60a08301528152605892810192909252605992820192909252600792810192909252600e8054918201815560005281516004909102600080516020620045ff83398151915201908190620005e0908262000902565b506020820151816001015560408201518160020155606082015181600301555050565b6200060d62000686565b6001600160a01b038116620006785760405162461bcd60e51b815260206004820152602660248201527f4f776e61626c653a206e6577206f776e657220697320746865207a65726f206160448201526564647265737360d01b60648201526084015b60405180910390fd5b6200068381620000db565b50565b600a546001600160a01b03163314620006e25760405162461bcd60e51b815260206004820181905260248201527f4f776e61626c653a2063616c6c6572206973206e6f7420746865206f776e657260448201526064016200066f565b565b634e487b7160e01b600052604160045260246000fd5b600082601f8301126200070c57600080fd5b81516001600160401b0380821115620007295762000729620006e4565b604051601f8301601f19908116603f01168101908282118183101715620007545762000754620006e4565b816040528381526020925086838588010111156200077157600080fd5b600091505b8382101562000795578582018301518183018401529082019062000776565b600093810190920192909252949350505050565b6001600160a01b03811681146200068357600080fd5b60008060008060008060c08789031215620007d957600080fd5b86516001600160401b0380821115620007f157600080fd5b620007ff8a838b01620006fa565b975060208901519150808211156200081657600080fd5b506200082589828a01620006fa565b9550506040870151935060608701516200083f81620007a9565b60808801519093506200085281620007a9565b60a08801519092506200086581620007a9565b809150509295509295509295565b600181811c908216806200088857607f821691505b602082108103620008a957634e487b7160e01b600052602260045260246000fd5b50919050565b601f821115620008fd57600081815260208120601f850160051c81016020861015620008d85750805b601f850160051c820191505b81811015620008f957828155600101620008e4565b5050505b505050565b81516001600160401b038111156200091e576200091e620006e4565b62000936816200092f845462000873565b84620008af565b602080601f8311600181146200096e5760008415620009555750858301515b600019600386901b1c1916600185901b178555620008f9565b600085815260208120601f198616915b828110156200099f578886015182559484019460019091019084016200097e565b5085821015620009be5787850151600019600388901b60f8161c191681555b5050505050600190811b01905550565b60805160a051613c04620009fb60003960006114a401526000818161034201526115f30152613c046000f3fe608060405234801561001057600080fd5b506004361061023d5760003560e01c8063715018a61161013b578063c64fafbc116100b8578063e985e9c51161007c578063e985e9c514610521578063f03637ca1461055d578063f2fde38b14610570578063f6809cc514610583578063fcf27f601461059657600080fd5b8063c64fafbc146104b2578063c87b56dd146104c5578063d21e82ab146104d8578063dc54daf0146104fb578063ddc1f9761461050e57600080fd5b806395d89b41116100ff57806395d89b411461044e578063a22cb46514610456578063b04e3a3b14610469578063b4b45db31461048c578063b88d4fde1461049f57600080fd5b8063715018a6146103fc57806375e1b17e1461040457806385d2b28d146104175780638da5cb5b1461042a57806393c9707d1461043b57600080fd5b806323b872dd116101c957806342842e0e1161018d57806342842e0e1461039d5780634cd1ad32146103b05780634f6ccce7146103c35780636352211e146103d657806370a08231146103e957600080fd5b806323b872dd1461032a5780632b7ac3f31461033d5780632cd8a74a146103645780632f745c59146103775780633a41515f1461038a57600080fd5b8063081812fc11610210578063081812fc146102a5578063095ea7b3146102d057806318160ddd146102e55780631a32c702146102f75780631aa3a0081461031757600080fd5b806301ffc9a7146102425780630620f98c1461026a57806306fdde031461027d5780630702032d14610292575b600080fd5b610255610250366004612e87565b6105a9565b60405190151581526020015b60405180910390f35b610255610278366004612f6e565b6105d4565b61028561062d565b6040516102619190613021565b6102856102a0366004613034565b6106bf565b6102b86102b3366004613034565b610764565b6040516001600160a01b039091168152602001610261565b6102e36102de366004613069565b61078b565b005b6008545b604051908152602001610261565b61030a610305366004613093565b6108a5565b6040516102619190613111565b600c546102b8906001600160a01b031681565b6102e3610338366004613142565b610908565b6102b87f000000000000000000000000000000000000000000000000000000000000000081565b610285610372366004613034565b610939565b6102e9610385366004613069565b610951565b600b546102b8906001600160a01b031681565b6102e36103ab366004613142565b6109e7565b6102856103be36600461317e565b610a02565b6102e96103d1366004613034565b610ace565b6102b86103e4366004613034565b610b61565b6102e96103f73660046131cb565b610bc1565b6102e3610c47565b610285610412366004613034565b610c5b565b610285610425366004613034565b610c73565b600a546001600160a01b03166102b8565b610285610449366004613034565b610c8b565b610285610ca3565b6102e36104643660046131f4565b610cb2565b61047c610477366004613034565b610cc1565b604051610261949392919061322b565b61028561049a366004613034565b610d89565b6102e36104ad36600461325a565b610da1565b6102556104c03660046132c1565b610dd9565b6102856104d3366004613034565b610e6c565b6102556104e6366004613034565b600d6020526000908152604090205460ff1681565b6102856105093660046132f5565b6112ef565b6102e361051c366004613372565b6113f0565b61025561052f36600461338b565b6001600160a01b03918216600090815260056020908152604080832093909416825291909152205460ff1690565b61028561056b366004613034565b611ab2565b6102e361057e3660046131cb565b611aca565b610285610591366004613034565b611b43565b6102e96105a43660046133be565b611b59565b60006001600160e01b0319821663780e9d6360e01b14806105ce57506105ce82611c57565b92915050565b6000816040516020016105e79190613416565b604051602081830303815290604052805190602001208360405160200161060e9190613416565b6040516020818303038152906040528051906020012014905092915050565b60606000805461063c90613432565b80601f016020809104026020016040519081016040528092919081815260200182805461066890613432565b80156106b55780601f1061068a576101008083540402835291602001916106b5565b820191906000526020600020905b81548152906001019060200180831161069857829003601f168201915b5050505050905090565b6000818152600f6020526040902060609060035b0180546106df90613432565b80601f016020809104026020016040519081016040528092919081815260200182805461070b90613432565b80156107585780601f1061072d57610100808354040283529160200191610758565b820191906000526020600020905b81548152906001019060200180831161073b57829003601f168201915b50505050509050919050565b600061076f82611ca7565b506000908152600460205260409020546001600160a01b031690565b600061079682610b61565b9050806001600160a01b0316836001600160a01b0316036108085760405162461bcd60e51b815260206004820152602160248201527f4552433732313a20617070726f76616c20746f2063757272656e74206f776e656044820152603960f91b60648201526084015b60405180910390fd5b336001600160a01b03821614806108245750610824813361052f565b6108965760405162461bcd60e51b815260206004820152603d60248201527f4552433732313a20617070726f76652063616c6c6572206973206e6f7420746f60448201527f6b656e206f776e6572206f7220617070726f76656420666f7220616c6c00000060648201526084016107ff565b6108a08383611d06565b505050565b6108ad612e35565b6108b5612e35565b60005b6003811015610901578381600c81106108d3576108d3613466565b60200201518282600381106108ea576108ea613466565b6020020152806108f981613492565b9150506108b8565b5092915050565b6109123382611d74565b61092e5760405162461bcd60e51b81526004016107ff906134ab565b6108a0838383611df2565b6000818152600f6020526040902060609060046106d3565b600061095c83610bc1565b82106109be5760405162461bcd60e51b815260206004820152602b60248201527f455243373231456e756d657261626c653a206f776e657220696e646578206f7560448201526a74206f6620626f756e647360a81b60648201526084016107ff565b506001600160a01b03919091166000908152600660209081526040808320938352929052205490565b6108a083838360405180602001604052806000815250610da1565b6060836000610a1185856134f8565b6001600160401b03811115610a2857610a28612eab565b6040519080825280601f01601f191660200182016040528015610a52576020820181803683370190505b509050845b84811015610ac457828181518110610a7157610a71613466565b01602001516001600160f81b03191682610a8b88846134f8565b81518110610a9b57610a9b613466565b60200101906001600160f81b031916908160001a90535080610abc81613492565b915050610a57565b5095945050505050565b6000610ad960085490565b8210610b3c5760405162461bcd60e51b815260206004820152602c60248201527f455243373231456e756d657261626c653a20676c6f62616c20696e646578206f60448201526b7574206f6620626f756e647360a01b60648201526084016107ff565b60088281548110610b4f57610b4f613466565b90600052602060002001549050919050565b6000818152600260205260408120546001600160a01b0316806105ce5760405162461bcd60e51b8152602060048201526018602482015277115490cdcc8c4e881a5b9d985b1a59081d1bdad95b88125160421b60448201526064016107ff565b60006001600160a01b038216610c2b5760405162461bcd60e51b815260206004820152602960248201527f4552433732313a2061646472657373207a65726f206973206e6f7420612076616044820152683634b21037bbb732b960b91b60648201526084016107ff565b506001600160a01b031660009081526003602052604090205490565b610c4f611f63565b610c596000611fbd565b565b6000818152600f6020526040902060609060066106d3565b6000818152600f6020526040902060609060076106d3565b6000818152600f6020526040902060609060056106d3565b60606001805461063c90613432565b610cbd33838361200f565b5050565b600e8181548110610cd157600080fd5b9060005260206000209060040201600091509050806000018054610cf490613432565b80601f0160208091040260200160405190810160405280929190818152602001828054610d2090613432565b8015610d6d5780601f10610d4257610100808354040283529160200191610d6d565b820191906000526020600020905b815481529060010190602001808311610d5057829003601f168201915b5050505050908060010154908060020154908060030154905084565b6000818152600f6020526040902060609060026106d3565b610dab3383611d74565b610dc75760405162461bcd60e51b81526004016107ff906134ab565b610dd3848484846120dd565b50505050565b6000610de482612110565b15610df157506000919050565b600b54604051633f02ed7560e21b81526000916001600160a01b03169063fc0bb5d490610e22908690600401613021565b602060405180830381865afa158015610e3f573d6000803e3d6000fd5b505050506040513d601f19601f82011682018060405250810190610e63919061350b565b42119392505050565b6000818152600260205260409020546060906001600160a01b0316610eeb5760405162461bcd60e51b815260206004820152602f60248201527f4552433732314d657461646174613a2055524920717565727920666f72206e6f60448201526e3732bc34b9ba32b73a103a37b5b2b760891b60648201526084016107ff565b6000828152600f602090815260408083208151610120810190925290918290810182600886835b82821015610fb5578382018054610f2890613432565b80601f0160208091040260200160405190810160405280929190818152602001828054610f5490613432565b8015610fa15780601f10610f7657610100808354040283529160200191610fa1565b820191906000526020600020905b815481529060010190602001808311610f8457829003601f168201915b505050505081526020019060010190610f12565b50505091525050604051707b202261747472696275746573223a205b60781b602082015290915060009060310160408051601f19818403018152828201909152600d82526c49737375696e6720537461746560981b6020830152835190925061102791839160005b6020020151612167565b60408051808201909152600a8152694669727374204e616d6560b01b6020820152835191925061105b91839190600161101d565b6040805180820190915260098152684c617374204e616d6560b81b6020820152835191925061108e91839190600161101d565b60408051808201909152600f81526e2830b9b9b837b93a10273ab6b132b960891b602082015283519192506110c791839190600261101d565b60408051808201909152600b81526a4e6174696f6e616c69747960a81b602082015283519192506110fc91839190600361101d565b60408051808201909152600d81526c088c2e8ca40decc40c4d2e4e8d609b1b6020820152835191925061113391839190600461101d565b60408051808201909152600681526523b2b73232b960d11b6020820152835191925061116391839190600561101d565b60408051808201909152600b81526a457870697279206461746560a81b6020820152835191925061119891839190600661101d565b604080518082019091526007815266115e1c1a5c995960ca1b602082015283519192506111c991839190600661101d565b60408051808201909152600a81526927b63232b9102a3430b760b11b602082015283519192506111fd91839190600761101d565b604051600b60fa1b602082015290915060210160405160208183030381529060405280519060200120816001835161123591906134f8565b8151811061124557611245613466565b60209101810151604080516001600160f81b03199092168284015280516001818403018152602190920190528051910120036112925761128f816000600184516103be91906134f8565b90505b8061129c856121ae565b6040516020016112ad929190613524565b60405160208183030381529060405290506112c781612240565b6040516020016112d79190613658565b60405160208183030381529060405292505050919050565b6040805160608082018352601f8083526020830152601c828401528251605a808252608082019094529092600091906020820181803683370190505090506000805b60038110156113e657600086826003811061134e5761134e613466565b6020020151905060005b85836003811061136a5761136a613466565b602002015160ff168160ff1610156113d1578160ff1660f81b85858061138f90613492565b9650815181106113a1576113a1613466565b60200101906001600160f81b031916908160001a90535060089190911c90806113c98161369d565b915050611358565b505080806113de90613492565b915050611331565b5090949350505050565b600c5460405163030fc05d60e21b815260a083013560048201526001600160a01b0390911690630c3f017490602401602060405180830381865afa15801561143c573d6000803e3d6000fd5b505050506040513d601f19601f8201168201806040525081019061146091906136bc565b6114a25760405162461bcd60e51b8152602060048201526013602482015272125b9d985b1a59081b595c9adb19481c9bdbdd606a1b60448201526064016107ff565b7f00000000000000000000000000000000000000000000000000000000000000008160c00135146115055760405162461bcd60e51b815260206004820152600d60248201526c496e76616c69642073636f706560981b60448201526064016107ff565b61150d612e53565b60005b600681101561155c578260e001816006811061152e5761152e613466565b602002013582826006811061154557611545613466565b60200201528061155481613492565b915050611510565b50600061156882611b59565b905061157762015180426134f8565b8110158015611592575061158e42620151806136d9565b8111155b6115f15760405162461bcd60e51b815260206004820152602a60248201527f43757272656e742064617465206973206e6f742077697468696e207468652076604482015269616c69642072616e676560b01b60648201526084016107ff565b7f00000000000000000000000000000000000000000000000000000000000000006001600160a01b0316638d15f88f846101c00185610200018661028001604051806101c00160405280896000013581526020018960200160006003811061165b5761165b613466565b602002013581526020018960200160016003811061167b5761167b613466565b602002013581526020018960200160026003811061169b5761169b613466565b60200201358152602001896080013581526020018960a0013581526020018960c0013581526020018960e0016000600681106116d9576116d9613466565b602002013581526020018960e0016001600681106116f9576116f9613466565b602002013581526020018960e00160026006811061171957611719613466565b602002013581526020018960e00160036006811061173957611739613466565b602002013581526020018960e00160046006811061175957611759613466565b602002013581526020018960e00160056006811061177957611779613466565b60200201358152602001896101a001358152506040518563ffffffff1660e01b81526004016117ab94939291906136ec565b602060405180830381865afa1580156117c8573d6000803e3d6000fd5b505050506040513d601f19601f820116820180604052508101906117ec91906136bc565b6118285760405162461bcd60e51b815260206004820152600d60248201526c24b73b30b634b210283937b7b360991b60448201526064016107ff565b82356000908152600d60205260408120805460ff191660011790556101a08401359061185360085490565b905061185f82826123a6565b60006118968660200160038060200260405190810160405280929190826003602002808284376000920191909152506112ef915050565b6000838152600f602052604081209192505b600e54811015611aa8576000600e82815481106118c7576118c7613466565b90600052602060002090600402016040518060800160405290816000820180546118f090613432565b80601f016020809104026020016040519081016040528092919081815260200182805461191c90613432565b80156119695780601f1061193e57610100808354040283529160200191611969565b820191906000526020600020905b81548152906001019060200180831161194c57829003601f168201915b50505050508152602001600182015481526020016002820154815260200160038201548152505090506000816020015182604001516119a891906134f8565b6119b39060016136d9565b6001600160401b038111156119ca576119ca612eab565b6040519080825280601f01601f1916602001820160405280156119f4576020820181803683370190505b5060208301519091505b82604001518111611a7057858181518110611a1b57611a1b613466565b602001015160f81c60f81b82846020015183611a3791906134f8565b81518110611a4757611a47613466565b60200101906001600160f81b031916908160001a90535080611a6881613492565b9150506119fe565b508080858560088110611a8557611a85613466565b0190611a9190826137a8565b505050508080611aa090613492565b9150506118a8565b5050505050505050565b6000818152600f6020526040902060609060016106d3565b611ad2611f63565b6001600160a01b038116611b375760405162461bcd60e51b815260206004820152602660248201527f4f776e61626c653a206e6577206f776e657220697320746865207a65726f206160448201526564647265737360d01b60648201526084016107ff565b611b4081611fbd565b50565b6000818152600f602052604081206060916106d3565b6040805160208101909152600080825290815b6006811015611bdc5781600a858360068110611b8a57611b8a613466565b6020020151611b99919061387d565b611ba49060306136d9565b60f81b604051602001611bb8929190613891565b60405160208183030381529060405291508080611bd490613492565b915050611b6c565b50600b54604051633f02ed7560e21b81526000916001600160a01b03169063fc0bb5d490611c0e908590600401613021565b602060405180830381865afa158015611c2b573d6000803e3d6000fd5b505050506040513d601f19601f82011682018060405250810190611c4f919061350b565b949350505050565b60006001600160e01b031982166380ac58cd60e01b1480611c8857506001600160e01b03198216635b5e139f60e01b145b806105ce57506301ffc9a760e01b6001600160e01b03198316146105ce565b6000818152600260205260409020546001600160a01b0316611b405760405162461bcd60e51b8152602060048201526018602482015277115490cdcc8c4e881a5b9d985b1a59081d1bdad95b88125160421b60448201526064016107ff565b600081815260046020526040902080546001600160a01b0319166001600160a01b0384169081179091558190611d3b82610b61565b6001600160a01b03167f8c5be1e5ebec7d5bd14f71427d1e84f3dd0314c0f7b2291e5b200ac8c7c3b92560405160405180910390a45050565b600080611d8083610b61565b9050806001600160a01b0316846001600160a01b03161480611dc757506001600160a01b0380821660009081526005602090815260408083209388168352929052205460ff165b80611c4f5750836001600160a01b0316611de084610764565b6001600160a01b031614949350505050565b826001600160a01b0316611e0582610b61565b6001600160a01b031614611e2b5760405162461bcd60e51b81526004016107ff906138c0565b6001600160a01b038216611e8d5760405162461bcd60e51b8152602060048201526024808201527f4552433732313a207472616e7366657220746f20746865207a65726f206164646044820152637265737360e01b60648201526084016107ff565b611e9a838383600161253f565b826001600160a01b0316611ead82610b61565b6001600160a01b031614611ed35760405162461bcd60e51b81526004016107ff906138c0565b600081815260046020908152604080832080546001600160a01b03199081169091556001600160a01b0387811680865260038552838620805460001901905590871680865283862080546001019055868652600290945282852080549092168417909155905184937fddf252ad1be2c89b69c2b068fc378daa952ba7f163c4a11628f55a4df523b3ef91a4505050565b600a546001600160a01b03163314610c595760405162461bcd60e51b815260206004820181905260248201527f4f776e61626c653a2063616c6c6572206973206e6f7420746865206f776e657260448201526064016107ff565b600a80546001600160a01b038381166001600160a01b0319831681179093556040519116919082907f8be0079c531659141344cd1fd0a4f28419497f9722a3daafe3b4186f6b6457e090600090a35050565b816001600160a01b0316836001600160a01b0316036120705760405162461bcd60e51b815260206004820152601960248201527f4552433732313a20617070726f766520746f2063616c6c65720000000000000060448201526064016107ff565b6001600160a01b03838116600081815260056020908152604080832094871680845294825291829020805460ff191686151590811790915591519182527f17307eab39ab6107e8899845ad3d59bd9653f200f220920489ca2b5937696c31910160405180910390a3505050565b6120e8848484611df2565b6120f4848484846125bb565b610dd35760405162461bcd60e51b81526004016107ff90613905565b6000805b825181101561215e5782818151811061212f5761212f613466565b01602001516001600160f81b0319161561214c5750600092915050565b8061215681613492565b915050612114565b50600192915050565b606061217282612110565b6121a657838361218285856126bc565b60405160200161219493929190613957565b60405160208183030381529060405293505b509192915050565b606060006121bb83612a99565b60010190506000816001600160401b038111156121da576121da612eab565b6040519080825280601f01601f191660200182016040528015612204576020820181803683370190505b5090508181016020015b600019016f181899199a1a9b1b9c1cb0b131b232b360811b600a86061a8153600a850494508461220e57509392505050565b6060815160000361225f57505060408051602081019091526000815290565b6000604051806060016040528060408152602001613bb8604091399050600060038451600261228e91906136d9565b61229891906139e1565b6122a39060046139f5565b905060006122b28260206136d9565b6001600160401b038111156122c9576122c9612eab565b6040519080825280601f01601f1916602001820160405280156122f3576020820181803683370190505b509050818152600183018586518101602084015b818310156123615760039283018051603f601282901c811687015160f890811b8552600c83901c8216880151811b6001860152600683901c8216880151811b60028601529116860151901b93820193909352600401612307565b60038951066001811461237b576002811461238c57612398565b613d3d60f01b600119830152612398565b603d60f81b6000198301525b509398975050505050505050565b6001600160a01b0382166123fc5760405162461bcd60e51b815260206004820181905260248201527f4552433732313a206d696e7420746f20746865207a65726f206164647265737360448201526064016107ff565b6000818152600260205260409020546001600160a01b0316156124615760405162461bcd60e51b815260206004820152601c60248201527f4552433732313a20746f6b656e20616c7265616479206d696e7465640000000060448201526064016107ff565b61246f60008383600161253f565b6000818152600260205260409020546001600160a01b0316156124d45760405162461bcd60e51b815260206004820152601c60248201527f4552433732313a20746f6b656e20616c7265616479206d696e7465640000000060448201526064016107ff565b6001600160a01b038216600081815260036020908152604080832080546001019055848352600290915280822080546001600160a01b0319168417905551839291907fddf252ad1be2c89b69c2b068fc378daa952ba7f163c4a11628f55a4df523b3ef908290a45050565b61254b84848484612b71565b6001600160a01b03841615610dd35760405162461bcd60e51b815260206004820152603060248201527f43616e6e6f74207472616e73666572202d2050726f6f66206f6620506173737060448201526f1bdc9d081a5cc81cdbdd5b189bdd5b9960821b60648201526084016107ff565b60006001600160a01b0384163b156126b157604051630a85bd0160e11b81526001600160a01b0385169063150b7a02906125ff903390899088908890600401613a0c565b6020604051808303816000875af192505050801561263a575060408051601f3d908101601f1916820190925261263791810190613a49565b60015b612697573d808015612668576040519150601f19603f3d011682016040523d82523d6000602084013e61266d565b606091505b50805160000361268f5760405162461bcd60e51b81526004016107ff90613905565b805181602001fd5b6001600160e01b031916630a85bd0160e11b149050611c4f565b506001949350505050565b60606126ed836040518060400160405280600d81526020016c49737375696e6720537461746560981b8152506105d4565b806127205750612720836040518060400160405280600b81526020016a4e6174696f6e616c69747960a81b8152506105d4565b156127a157600b5460405163028143ed60e01b81526001600160a01b039091169063028143ed90612755908590600401613021565b600060405180830381865afa158015612772573d6000803e3d6000fd5b505050506040513d6000823e601f3d908101601f1916820160405261279a9190810190613aab565b90506105ce565b6127cd836040518060400160405280600a8152602001694669727374204e616d6560b01b8152506105d4565b1561286857600b54604051630481e68160e11b81526001600160a01b0390911690630903cd0290612802908590600401613021565b600060405180830381865afa15801561281f573d6000803e3d6000fd5b505050506040513d6000823e601f3d908101601f191682016040526128479190810190613adf565b60008151811061285957612859613466565b602002602001015190506105ce565b61289383604051806040016040528060098152602001684c617374204e616d6560b81b8152506105d4565b1561291f57600b54604051630481e68160e11b81526001600160a01b0390911690630903cd02906128c8908590600401613021565b600060405180830381865afa1580156128e5573d6000803e3d6000fd5b505050506040513d6000823e601f3d908101601f1916820160405261290d9190810190613adf565b60018151811061285957612859613466565b61294e836040518060400160405280600d81526020016c088c2e8ca40decc40c4d2e4e8d609b1b8152506105d4565b806129815750612981836040518060400160405280600b81526020016a457870697279206461746560a81b8152506105d4565b156129b657600b54604051635d84387760e11b81526001600160a01b039091169063bb0870ee90612755908590600401613021565b6129e2836040518060400160405280600a81526020016927b63232b9102a3430b760b11b8152506105d4565b15612a1757600b546040516318a80a6960e31b81526001600160a01b039091169063c540534890612755908590600401613021565b612a408360405180604001604052806007815260200166115e1c1a5c995960ca1b8152506105d4565b15612a9257612a4e82610dd9565b612a7257604051806040016040528060028152602001614e6f60f01b81525061279a565b5060408051808201909152600381526259657360e81b60208201526105ce565b50806105ce565b60008072184f03e93ff9f4daa797ed6e38ed64bf6a1f0160401b8310612ad85772184f03e93ff9f4daa797ed6e38ed64bf6a1f0160401b830492506040015b6d04ee2d6d415b85acef81000000008310612b04576d04ee2d6d415b85acef8100000000830492506020015b662386f26fc100008310612b2257662386f26fc10000830492506010015b6305f5e1008310612b3a576305f5e100830492506008015b6127108310612b4e57612710830492506004015b60648310612b60576064830492506002015b600a83106105ce5760010192915050565b6001811115612be05760405162461bcd60e51b815260206004820152603560248201527f455243373231456e756d657261626c653a20636f6e7365637574697665207472604482015274185b9cd9995c9cc81b9bdd081cdd5c1c1bdc9d1959605a1b60648201526084016107ff565b816001600160a01b038516612c3c57612c3781600880546000838152600960205260408120829055600182018355919091527ff3f7a9fe364faab93b216da50a3214154f22a0a2b415b23a84c8169e8b636ee30155565b612c5f565b836001600160a01b0316856001600160a01b031614612c5f57612c5f8582612ca5565b6001600160a01b038416612c7b57612c7681612d42565b612c9e565b846001600160a01b0316846001600160a01b031614612c9e57612c9e8482612df1565b5050505050565b60006001612cb284610bc1565b612cbc91906134f8565b600083815260076020526040902054909150808214612d0f576001600160a01b03841660009081526006602090815260408083208584528252808320548484528184208190558352600790915290208190555b5060009182526007602090815260408084208490556001600160a01b039094168352600681528383209183525290812055565b600854600090612d54906001906134f8565b60008381526009602052604081205460088054939450909284908110612d7c57612d7c613466565b906000526020600020015490508060088381548110612d9d57612d9d613466565b6000918252602080832090910192909255828152600990915260408082208490558582528120556008805480612dd557612dd5613ba1565b6001900381819060005260206000200160009055905550505050565b6000612dfc83610bc1565b6001600160a01b039093166000908152600660209081526040808320868452825280832085905593825260079052919091209190915550565b60405180606001604052806003906020820280368337509192915050565b6040518060c001604052806006906020820280368337509192915050565b6001600160e01b031981168114611b4057600080fd5b600060208284031215612e9957600080fd5b8135612ea481612e71565b9392505050565b634e487b7160e01b600052604160045260246000fd5b604051601f8201601f191681016001600160401b0381118282101715612ee957612ee9612eab565b604052919050565b60006001600160401b03821115612f0a57612f0a612eab565b50601f01601f191660200190565b600082601f830112612f2957600080fd5b8135612f3c612f3782612ef1565b612ec1565b818152846020838601011115612f5157600080fd5b816020850160208301376000918101602001919091529392505050565b60008060408385031215612f8157600080fd5b82356001600160401b0380821115612f9857600080fd5b612fa486838701612f18565b93506020850135915080821115612fba57600080fd5b50612fc785828601612f18565b9150509250929050565b60005b83811015612fec578181015183820152602001612fd4565b50506000910152565b6000815180845261300d816020860160208601612fd1565b601f01601f19169290920160200192915050565b602081526000612ea46020830184612ff5565b60006020828403121561304657600080fd5b5035919050565b80356001600160a01b038116811461306457600080fd5b919050565b6000806040838503121561307c57600080fd5b6130858361304d565b946020939093013593505050565b60006101808083850312156130a757600080fd5b83601f8401126130b657600080fd5b6040518181018181106001600160401b03821117156130d7576130d7612eab565b6040529083019080858311156130ec57600080fd5b845b838110156131065780358252602091820191016130ee565b509095945050505050565b60608101818360005b600381101561313957815183526020928301929091019060010161311a565b50505092915050565b60008060006060848603121561315757600080fd5b6131608461304d565b925061316e6020850161304d565b9150604084013590509250925092565b60008060006060848603121561319357600080fd5b83356001600160401b038111156131a957600080fd5b6131b586828701612f18565b9660208601359650604090950135949350505050565b6000602082840312156131dd57600080fd5b612ea48261304d565b8015158114611b4057600080fd5b6000806040838503121561320757600080fd5b6132108361304d565b91506020830135613220816131e6565b809150509250929050565b60808152600061323e6080830187612ff5565b6020830195909552506040810192909252606090910152919050565b6000806000806080858703121561327057600080fd5b6132798561304d565b93506132876020860161304d565b92506040850135915060608501356001600160401b038111156132a957600080fd5b6132b587828801612f18565b91505092959194509250565b6000602082840312156132d357600080fd5b81356001600160401b038111156132e957600080fd5b611c4f84828501612f18565b60006060828403121561330757600080fd5b82601f83011261331657600080fd5b604051606081018181106001600160401b038211171561333857613338612eab565b60405280606084018581111561334d57600080fd5b845b8181101561336757803583526020928301920161334f565b509195945050505050565b60006102c0828403121561338557600080fd5b50919050565b6000806040838503121561339e57600080fd5b6133a78361304d565b91506133b56020840161304d565b90509250929050565b600060c082840312156133d057600080fd5b82601f8301126133df57600080fd5b60405160c081018181106001600160401b038211171561340157613401612eab565b6040528060c084018581111561334d57600080fd5b60008251613428818460208701612fd1565b9190910192915050565b600181811c9082168061344657607f821691505b60208210810361338557634e487b7160e01b600052602260045260246000fd5b634e487b7160e01b600052603260045260246000fd5b634e487b7160e01b600052601160045260246000fd5b6000600182016134a4576134a461347c565b5060010190565b6020808252602d908201527f4552433732313a2063616c6c6572206973206e6f7420746f6b656e206f776e6560408201526c1c881bdc88185c1c1c9bdd9959609a1b606082015260800190565b818103818111156105ce576105ce61347c565b60006020828403121561351d57600080fd5b5051919050565b60008351613536818460208801612fd1565b80830190507f5d2c226465736372697074696f6e223a202250726f6f66206f6620506173737081527f6f72742067756172616e7465657320706f7373657373696f6e206f662061207660208201527f616c69642070617373706f72742e222c2265787465726e616c5f75726c223a2060408201527f2268747470733a2f2f70726f6f666f6670617373706f72742e636f6d222c226960608201527f6d616765223a202268747470733a2f2f692e696d6775722e636f6d2f396b766560808201527f74696a2e706e67222c226e616d65223a202250726f6f66206f6620506173737060a0820152646f7274202360d81b60c0820152835161363d8160c5840160208801612fd1565b61227d60f01b60c5929091019182015260c701949350505050565b7f646174613a6170706c69636174696f6e2f6a736f6e3b6261736536342c00000081526000825161369081601d850160208701612fd1565b91909101601d0192915050565b600060ff821660ff81036136b3576136b361347c565b60010192915050565b6000602082840312156136ce57600080fd5b8151612ea4816131e6565b808201808211156105ce576105ce61347c565b6102c081016040808784378083018660005b600281101561371b578382843791830191908301906001016136fe565b505050808560c08501375061010082018360005b600e81101561374e57815183526020928301929091019060010161372f565b50505095945050505050565b601f8211156108a057600081815260208120601f850160051c810160208610156137815750805b601f850160051c820191505b818110156137a05782815560010161378d565b505050505050565b81516001600160401b038111156137c1576137c1612eab565b6137d5816137cf8454613432565b8461375a565b602080601f83116001811461380a57600084156137f25750858301515b600019600386901b1c1916600185901b1785556137a0565b600085815260208120601f198616915b828110156138395788860151825594840194600190910190840161381a565b50858210156138575787850151600019600388901b60f8161c191681555b5050505050600190811b01905550565b634e487b7160e01b600052601260045260246000fd5b60008261388c5761388c613867565b500690565b600083516138a3818460208801612fd1565b6001600160f81b0319939093169190920190815260010192915050565b60208082526025908201527f4552433732313a207472616e736665722066726f6d20696e636f72726563742060408201526437bbb732b960d91b606082015260800190565b60208082526032908201527f4552433732313a207472616e7366657220746f206e6f6e20455243373231526560408201527131b2b4bb32b91034b6b83632b6b2b73a32b960711b606082015260800190565b60008451613969818460208901612fd1565b6f3d913a3930b4ba2fba3cb832911d101160811b9083019081528451613996816010840160208901612fd1565b6c111610113b30b63ab2911d101160991b6010929091019182015283516139c481601d840160208801612fd1565b62089f4b60ea1b601d929091019182015260200195945050505050565b6000826139f0576139f0613867565b500490565b80820281158282048414176105ce576105ce61347c565b6001600160a01b0385811682528416602082015260408101839052608060608201819052600090613a3f90830184612ff5565b9695505050505050565b600060208284031215613a5b57600080fd5b8151612ea481612e71565b600082601f830112613a7757600080fd5b8151613a85612f3782612ef1565b818152846020838601011115613a9a57600080fd5b611c4f826020830160208701612fd1565b600060208284031215613abd57600080fd5b81516001600160401b03811115613ad357600080fd5b611c4f84828501613a66565b60006020808385031215613af257600080fd5b82516001600160401b0380821115613b0957600080fd5b818501915085601f830112613b1d57600080fd5b815181811115613b2f57613b2f612eab565b8060051b613b3e858201612ec1565b9182528381018501918581019089841115613b5857600080fd5b86860192505b83831015613b9457825185811115613b765760008081fd5b613b848b89838a0101613a66565b8352509186019190860190613b5e565b9998505050505050505050565b634e487b7160e01b600052603160045260246000fdfe4142434445464748494a4b4c4d4e4f505152535455565758595a6162636465666768696a6b6c6d6e6f707172737475767778797a303132333435363738392b2fa164736f6c6343000812000abb7b4a454dc3493923482f07822329ed19e8244eff582cc204f8554c3620c3fd",
  "linkReferences": {},
  "deployedLinkReferences": {}
}