{
  "_format": "hh-sol-artifact-1",
  "contractName": "Groth16Verifier",
  "sourceName": "contracts/Verifier.sol",
  "abi": [
    {
      "inputs": [
        {
          "internalType": "uint256[2]",
          "name": "_pA",
          "type": "uint256[2]"
        },
        {
          "internalType": "uint256[2][2]",
          "name": "_pB",
          "type": "uint256[2][2]"
        },
        {
          "internalType": "uint256[2]",
          "name": "_pC",
          "type": "uint256[2]"
        },
        {
          "internalType": "uint256[16]",
          "name": "_pubSignals",
          "type": "uint256[16]"
        }
      ],
      "name": "verifyProof",
      "outputs": [
        {
          "internalType": "bool",
          "name": "",
          "type": "bool"
        }
      ],
      "stateMutability": "view",
      "type": "function"
    }
  ],
  "bytecode": "0x608060405234801561001057600080fd5b50610b91806100206000396000f3fe608060405234801561001057600080fd5b506004361061002b5760003560e01c8063c82febf514610030575b600080fd5b61004a60048036038101906100459190610abc565b610060565b6040516100579190610b40565b60405180910390f35b6000610944565b7f30644e72e131a029b85045b68181585d97816a916871ca8d3c208c16d87cfd478110610098576000805260206000f35b50565b600060405183815284602082015285604082015260408160608360076107d05a03fa9150816100ce576000805260206000f35b825160408201526020830151606082015260408360808360066107d05a03fa9150816100fe576000805260206000f35b505050505050565b600060808601600087017f0ad4104ba0cab26e17a390c2297e5930790fe2138c4965fa33a92c6efb1ce61181527f2f25144c009fda8ee383ef224c934e7f6df65425132809ae464ff31ac891734760208201526101a960008801357f22afda344f3fa9caa050472eedf614641a3dc81bffaacd4fbe374447e8713c527f0785808d31f021c38a389a35384e87a0c483cc6665f1fb11fd8cb6220ab68a6c8461009b565b6101f960208801357f11885e413266172e3aee33cfdd2bfa186b52178bcf1cefaea78062c05722107d7f26756d1fcadd13849941c067839540f95b0ee5614c0ea6436a0b1371c61918028461009b565b61024960408801357f14034f89a294ea4bcb70f8a05f38319d25b7876baeeb2a1cf1d953be05023c4f7f014b60dec736fc8ef91c82345c2872f10e4f9e1e2a45419a91dfc6f3bf48a5008461009b565b61029960608801357f15b66475b701246e5afeb0fef2c8b1766992b6c862af6343ff7695defcb466b97f0f7f42f9ce4d9e86b9cde0c0a508655c8c79bc0a684a3fc7e31736926bd3164e8461009b565b6102e860808801357e9f8254f248559f4f9347784214ede9a9aa8f08c8ed859b42c55941f6ebac4d7f1f7aa8bbe543dc53d9efab5d487a2f462881d366f25ddf0d5e38747333195eca8461009b565b61033860a08801357f224f0eea46b164e5fd8793f81110dd606a17a916695f431dd9a82930337be6467f05b94074736f283d880c3adc6ca902dd9509466e817281f32b70103f5b5c426c8461009b565b61038860c08801357f121cf7452967876d6eb025f7713bf8392f39e7d8f82e653fbd7b3a4286f04d8e7f2648cf8ce91f5074123ea29d363f00ff58345fa0cf8854cee6b3cdb9cd06f2518461009b565b6103d860e08801357f207375b930a98fe9cbbeb3eb1fe8cff0ec58733416b0385826b0c5203addb82a7f106036e1ef36d5bcc9419747eb69833e04a8835d8eda804a0ce30273e6511d928461009b565b6104296101008801357f2773127f6766e3dfee9d345806c72cd2892e2b3a7c5f0c9c80a894b8e718dde47f1fab68875dd34949d9531c866809371111b147f288eb3fb0e0c516ae9c4d763e8461009b565b61047a6101208801357f18e0b48b621d672b8afb675eeba9ee68d33a71ac5b84e839b1350ff832e2731d7f10ab6d5e5bbf2815c7b436af60a20c885d0aded20f41b5aff518343aa32fe8e28461009b565b6104cb6101408801357f08534d6feb186a62091134bc726c2a6d0ba479bee663ad9702ef4c5931d454897f1d67bf83c43954992a44732500ee24ca44c594d914e6dd0dd722428250170b668461009b565b61051c6101608801357f18cff185263b89e2d1f0a745c7edcae4a6126402cad1205d90aea5ab53f1da167f147e05d126df37c08cf603b77b624feb87a8d33c333dff3f3e1b886aac27fb778461009b565b61056d6101808801357f01acfec350b849fd019997e649774c9795fff3f4af624586841f42181f252eb87f05be1ef6bbed0f7942c562bd8ceb15491221a5176d4709c58f156f65c51018268461009b565b6105be6101a08801357f0723950b7af06aebfcdab4bf96923795f95ea0fa86454831287358be15bf4a397f23b332764411bcec1aad32817dda66a3bfb502a4a0c92494736137c3f9aa010a8461009b565b61060f6101c08801357f26a47a8df4e6edda06f707b27f3b150bf90cb49d52fa68fbb1f57efc30d642777f18ee382f9056082dd010bb84da6fcdcae6fd0b0a86d9922cba113b823b7b0d118461009b565b6106606101e08801357f1d9ed1b6b90a7f3fd9724dd10b98ccfbde0404ad4dd751ff54949274461fe6ff7f10a9f28b202c0acbeb9b877b5ebe348312df9e093190df0eee947f50ffd5c5288461009b565b833582527f30644e72e131a029b85045b68181585d97816a916871ca8d3c208c16d87cfd4760208501357f30644e72e131a029b85045b68181585d97816a916871ca8d3c208c16d87cfd4703066020830152843560408301526020850135606083015260408501356080830152606085013560a08301527f2d4d9aa7e302d9df41749d5507949d05dbea33fbb16c643b22f599a2be6df2e260c08301527f14bedd503c37ceb061d8ec60209fe345ce89830a19230301f076caff004d192660e08301527f0967032fcbf776d1afc985f88877f182d38480a653f2decaa9794cbc3bf3060c6101008301527f0e187847ad4c798374d0d6732bf501847dd68bc0e071241e0213bc7fc13db7ab6101208301527f304cfbd1e08a704a99f5e847d93f8c3caafddec46b7a0d379da69a4d112346a76101408301527f1739c1b1a457a8c7313123d24d2f9192f896b7c63eea05a9d57f06547ad0cec8610160830152600088015161018083015260206000018801516101a08301527f198e9393920d483a7260bfb731fb5d25f1aa493335a9e71297e485b7aef312c26101c08301527f1800deef121f1e76426a00665e5c4479674322d4f75edadd46debd5cd992f6ed6101e08301527f090689d0585ff075ec9e99ad690c3395bc4b313370b38ef355acdadcd122975b6102008301527f12c85ea5db8c6deb4aab71808dcb408fe3d1e7690c43d37b4ce6cc0166fa7daa610220830152853561024083015260208601356102608301527f06b76293cf35b72a20c4fffc4ab28caeaa5ae8f64cc8070b43338438a029b6f56102808301527f193d0f805b6ec194eb2187404ba043fece36d69dd6067f18d8763be558aee3456102a08301527f0a9273b89d0ae9da5bec2d2f630f1a300f977b6944c966a823a5a07e6a8fa0c96102c08301527f0eb9832a1e845357b501641062252c973a0c732eeea825da71874172b577cdc36102e08301526020826103008460086107d05a03fa82518116935050505095945050505050565b604051610380810160405261095c6000840135610067565b6109696020840135610067565b6109766040840135610067565b6109836060840135610067565b6109906080840135610067565b61099d60a0840135610067565b6109aa60c0840135610067565b6109b760e0840135610067565b6109c5610100840135610067565b6109d3610120840135610067565b6109e1610140840135610067565b6109ef610160840135610067565b6109fd610180840135610067565b610a0b6101a0840135610067565b610a196101c0840135610067565b610a276101e0840135610067565b610a35610200840135610067565b610a42818486888a610106565b8060005260206000f35b600080fd5b600080fd5b600081905082602060020282011115610a7257610a71610a51565b5b92915050565b600081905082604060020282011115610a9457610a93610a51565b5b92915050565b600081905082602060100282011115610ab657610ab5610a51565b5b92915050565b6000806000806103008587031215610ad757610ad6610a4c565b5b6000610ae587828801610a56565b9450506040610af687828801610a78565b93505060c0610b0787828801610a56565b925050610100610b1987828801610a9a565b91505092959194509250565b60008115159050919050565b610b3a81610b25565b82525050565b6000602082019050610b556000830184610b31565b9291505056fea2646970667358221220fabdd52d87b935245becd20b84cb4f13f30bfa03881c5ba28c64a9d70b26bd4064736f6c63430008120033",
  "linkReferences": {},
  "deployedLinkReferences": {}
}