{
  "_format": "hh-sol-artifact-1",
  "contractName": "Groth16Verifier",
  "sourceName": "contracts/Verifier.sol",
  "abi": [
    {
      "inputs": [
        {
          "internalType": "uint256[2]",
          "name": "_pA",
          "type": "uint256[2]"
        },
        {
          "internalType": "uint256[2][2]",
          "name": "_pB",
          "type": "uint256[2][2]"
        },
        {
          "internalType": "uint256[2]",
          "name": "_pC",
          "type": "uint256[2]"
        },
        {
          "internalType": "uint256[6]",
          "name": "_pubSignals",
          "type": "uint256[6]"
        }
      ],
      "name": "verifyProof",
      "outputs": [
        {
          "internalType": "bool",
          "name": "",
          "type": "bool"
        }
      ],
      "stateMutability": "view",
      "type": "function"
    }
  ],
  "bytecode": "0x608060405234801561001057600080fd5b506107df806100206000396000f3fe608060405234801561001057600080fd5b506004361061002b5760003560e01c8063f398789b14610030575b600080fd5b61004a6004803603810190610045919061070a565b610060565b604051610057919061078e565b60405180910390f35b600061061d565b7f30644e72e131a029b85045b68181585d97816a916871ca8d3c208c16d87cfd478110610098576000805260206000f35b50565b600060405183815284602082015285604082015260408160608360076107d05a03fa9150816100ce576000805260206000f35b825160408201526020830151606082015260408360808360066107d05a03fa9150816100fe576000805260206000f35b505050505050565b600060808601600087017f1973951e3206379f4b6cb9ed31fd07e9addd1ce68ab96ad19772c7d0158cba9c81527f2d6c822a71336962fd88a2bcfa2fae9728d345b1f8ac02ef42e6732363fb16fa60208201526101a960008801357f1c4ff48dd08344e7d8ec93176ac4b4a89c3007053fa3762c07c59db1e7c8224f7f0af2a778dd1b8e999ceedf5a3b70df4ca2b6b49b25ab2a7c9946ad6a9286b0d18461009b565b6101f960208801357f2df91f17d37221f3be246a89e8ffe13b9ccc0afdcf80d5fcd343a347ad34b6fa7f2382d5ad4ebe78eeacc64bfebf7ca7e04154e5d09f7dd947d1e96db07e844c4b8461009b565b61024960408801357f06a4be12318195066a5b96da729b895ffb35d15f0da863bc589ad87dc92a59b37f25c6c85b5e06226e16bf0ce04b41e24a9e70443959a839e140381ee36b4973498461009b565b61029960608801357f0898eec5cc579d3a7213b2b38afaaf269613f60f231f788ffa2499be402c23757f18eb6d35340d98950203d516789960e1cbebd23d7fcef9836185fedc73c607088461009b565b6102e960808801357f05c16a0090bf91c1f53f7bd71a0016b99fb8ece9f11b5413a8916a89efc903407f1acc863422c39f57de8944287a183732c41d986e2da7298415f5157351852aaf8461009b565b61033960a08801357f2332aaf5f84f1f039f292c20fa042012f30899bafa18afbaf85f96385cbe0e617f258b4482fa5d1c1267315e5f6bbc023dc6a8fc810ab8a419b787949efcc1a9868461009b565b833582527f30644e72e131a029b85045b68181585d97816a916871ca8d3c208c16d87cfd4760208501357f30644e72e131a029b85045b68181585d97816a916871ca8d3c208c16d87cfd4703066020830152843560408301526020850135606083015260408501356080830152606085013560a08301527f2d4d9aa7e302d9df41749d5507949d05dbea33fbb16c643b22f599a2be6df2e260c08301527f14bedd503c37ceb061d8ec60209fe345ce89830a19230301f076caff004d192660e08301527f0967032fcbf776d1afc985f88877f182d38480a653f2decaa9794cbc3bf3060c6101008301527f0e187847ad4c798374d0d6732bf501847dd68bc0e071241e0213bc7fc13db7ab6101208301527f304cfbd1e08a704a99f5e847d93f8c3caafddec46b7a0d379da69a4d112346a76101408301527f1739c1b1a457a8c7313123d24d2f9192f896b7c63eea05a9d57f06547ad0cec8610160830152600088015161018083015260206000018801516101a08301527f198e9393920d483a7260bfb731fb5d25f1aa493335a9e71297e485b7aef312c26101c08301527f1800deef121f1e76426a00665e5c4479674322d4f75edadd46debd5cd992f6ed6101e08301527f090689d0585ff075ec9e99ad690c3395bc4b313370b38ef355acdadcd122975b6102008301527f12c85ea5db8c6deb4aab71808dcb408fe3d1e7690c43d37b4ce6cc0166fa7daa610220830152853561024083015260208601356102608301527f13093cf285e0d3af1aeb57953666538e5ff8be9effe1b4ff9301356e36ef27ca6102808301527f1a575a2a1e4cb4f452b1c815184e71c51e5a3c44b11c691aed0b39de518b1aed6102a08301527f06f6b931a88f43f1964418344340a23d286ddd6232a87cb9dc48038c4d10fcc86102c08301527f04c9c9a1061ee327db8022d3dfaa997d65fb46266c4a11620664967c2c98ddb96102e08301526020826103008460086107d05a03fa82518116935050505095945050505050565b60405161038081016040526106356000840135610067565b6106426020840135610067565b61064f6040840135610067565b61065c6060840135610067565b6106696080840135610067565b61067660a0840135610067565b61068360c0840135610067565b610690818486888a610106565b8060005260206000f35b600080fd5b600080fd5b6000819050826020600202820111156106c0576106bf61069f565b5b92915050565b6000819050826040600202820111156106e2576106e161069f565b5b92915050565b6000819050826020600602820111156107045761070361069f565b5b92915050565b6000806000806101c085870312156107255761072461069a565b5b6000610733878288016106a4565b9450506040610744878288016106c6565b93505060c0610755878288016106a4565b925050610100610767878288016106e8565b91505092959194509250565b60008115159050919050565b61078881610773565b82525050565b60006020820190506107a3600083018461077f565b9291505056fea2646970667358221220f90502a2cdc1be3aae6482c9ad4fd05fbce27381eff1b8971a25df2c50f3a0bd64736f6c63430008120033",
  "linkReferences": {},
  "deployedLinkReferences": {}
}