{
  "_format": "hh-sol-artifact-1",
  "contractName": "Groth16Verifier",
  "sourceName": "contracts/Verifier.sol",
  "abi": [
    {
      "inputs": [
        {
          "internalType": "uint256[2]",
          "name": "_pA",
          "type": "uint256[2]"
        },
        {
          "internalType": "uint256[2][2]",
          "name": "_pB",
          "type": "uint256[2][2]"
        },
        {
          "internalType": "uint256[2]",
          "name": "_pC",
          "type": "uint256[2]"
        },
        {
          "internalType": "uint256[16]",
          "name": "_pubSignals",
          "type": "uint256[16]"
        }
      ],
      "name": "verifyProof",
      "outputs": [
        {
          "internalType": "bool",
          "name": "",
          "type": "bool"
        }
      ],
      "stateMutability": "view",
      "type": "function"
    }
  ],
  "bytecode": "0x608060405234801561001057600080fd5b50610b92806100206000396000f3fe608060405234801561001057600080fd5b506004361061002b5760003560e01c8063c82febf514610030575b600080fd5b61004a60048036038101906100459190610abd565b610060565b6040516100579190610b41565b60405180910390f35b6000610945565b7f30644e72e131a029b85045b68181585d97816a916871ca8d3c208c16d87cfd478110610098576000805260206000f35b50565b600060405183815284602082015285604082015260408160608360076107d05a03fa9150816100ce576000805260206000f35b825160408201526020830151606082015260408360808360066107d05a03fa9150816100fe576000805260206000f35b505050505050565b600060808601600087017f1b5297260a965e84a18d4dcf67193ad9e5941e482e37d7a8c7124d19cea4f9b681527f13c4b609a458c723aa589ba3c51402e56e1eda7dc441ca83dbdd19543723460660208201526101a960008801357f22e24ced226fa2349cf768b6062c63d1c7310d954103d97608ba5d262dc3f9bc7f078026109604dc9cc18c37cc6ed83eb7a70f13e7b4a9f8b0529eb1b3a41ec9af8461009b565b6101f960208801357f1edb8d1b18377311ee0bef60e924e10a390247796b2592a0cbefa4e72ff8e2397f11e84fa4deb75a055bb9f01718a7f2f3e6817b21665d91decb5d9603b34dbe4a8461009b565b61024960408801357f2d03f97c82badc052d3f6bac221fa849fd8b4ab31776c3d3d320cb7a3f4036277f0f2eaa802ea8461881b4e403e2190c7232d85be1ebf6b391b12af3386647faaa8461009b565b61029960608801357f2687b2cf6fe1e61e0aab297629979b84e28ced6fddab29e055a5dfdaa81748167f114a1c8d2bc9cd353176d5e2d31d6944082bc34a6919d97d70689f4f9035ff398461009b565b6102e960808801357f26fc44745f6026ef7b2bc4ad7381009ea3b11aa6ac3e1e55c00e86abe4b21a8a7f14a00c66e27d3b381415195e754790dcc7246351fd4e7864ec94f468e184479b8461009b565b61033960a08801357f2757022e408976c392d5f09144918cae891f6adaa48d3f7fea4b167a8ed660c37f21a35e76b36c984e0aa70a0b2906b33caa9e6ed21d1b482b38670330bead2b4f8461009b565b61038960c08801357f2598bf32ef243200119aa2de8f9c6d5da1f7d469f481d111a3bdfcc67b11ac0e7f2454700f9a45267241a07e4e111e1ca58e0de630d88c82eee08ca7db1304e6d38461009b565b6103d960e08801357f1917385492376f04b4ba5df39c7ae83b2f2795b6e3d38089a821134b9fffc0aa7f24a0125521b665b8aba672dc06d9409b366cc6a6976a8dce86dacdf06fba93818461009b565b61042a6101008801357f26fa95b7e183a02dfa53eb8bc6ad1d11d7f02122007ba1dd7ac79c1c68c0ce6e7f2d2c82b07eed82c21e410ff0049caf8f55fc9ca5341a8f7d0f4fa00ae3a221fe8461009b565b61047b6101208801357f0c53b9d4bdc2b772b01212fe199527ef035d5e6107f3d3bb7066a4667cdbe2277f0c99f764809dd733e0174e0c82bb40c898e8d9072fa09c1efe0309c809ab87c98461009b565b6104cc6101408801357f1d653e30b436c89bdd309f274fcc379fc963bb1ecb9ff4a965558fb9c1893fee7f1086adc4fbf74d59d3d2ee4a17e6121f5c4824e80bdb7b33446702c4eb61595c8461009b565b61051d6101608801357f069e71d914e4ca5c02f03fa47aae07c6d78914e6bcbf049bda635e616e76e63e7f0fc0d693011bbca035251d088e9e8877569732e38fa4b73a3a7542610e3f24978461009b565b61056e6101808801357f105f439891955b8038c4c9dde2b4d89e007c5119bff9986d4beae2850e083d0c7f1cf8b02a9355355f2dd71cf05d87cc6748e7995557551cc497f924934feee4a88461009b565b6105bf6101a08801357f0e4184e890a4207ff4a9489776be98a66417139e025c9f9c73e0d8a054211fe67f140da169490a13b378a2376b9600fba4dcfe5113c85d43e41224e7c6713fce178461009b565b6106106101c08801357f1f00d8d21551d78019bc29e7a17f41ac1f8a5a5c4633ddb7e765a13f724cb1717f2a42dfcd2d10b903edffa8eaf50b46293419539b7380c3c03a773ba80c059b3c8461009b565b6106616101e08801357f1ede3b977af183af4e515d978949ff53699f8873649fd951819ca10833bd6f0d7f0716114c41addfcbf08d5f47cbe0386ee9c53ac85eb47c7452c7f569611aaee48461009b565b833582527f30644e72e131a029b85045b68181585d97816a916871ca8d3c208c16d87cfd4760208501357f30644e72e131a029b85045b68181585d97816a916871ca8d3c208c16d87cfd4703066020830152843560408301526020850135606083015260408501356080830152606085013560a08301527f2d4d9aa7e302d9df41749d5507949d05dbea33fbb16c643b22f599a2be6df2e260c08301527f14bedd503c37ceb061d8ec60209fe345ce89830a19230301f076caff004d192660e08301527f0967032fcbf776d1afc985f88877f182d38480a653f2decaa9794cbc3bf3060c6101008301527f0e187847ad4c798374d0d6732bf501847dd68bc0e071241e0213bc7fc13db7ab6101208301527f304cfbd1e08a704a99f5e847d93f8c3caafddec46b7a0d379da69a4d112346a76101408301527f1739c1b1a457a8c7313123d24d2f9192f896b7c63eea05a9d57f06547ad0cec8610160830152600088015161018083015260206000018801516101a08301527f198e9393920d483a7260bfb731fb5d25f1aa493335a9e71297e485b7aef312c26101c08301527f1800deef121f1e76426a00665e5c4479674322d4f75edadd46debd5cd992f6ed6101e08301527f090689d0585ff075ec9e99ad690c3395bc4b313370b38ef355acdadcd122975b6102008301527f12c85ea5db8c6deb4aab71808dcb408fe3d1e7690c43d37b4ce6cc0166fa7daa610220830152853561024083015260208601356102608301527f0e96cf2c0c81272ee76d19db71d7384c55457b441be610f8c75fc6806efc0ca96102808301527f27bd4e784263f76cf4cda2f52a66fc01d7ddacb3ad93bbb1027fbafe9c6067876102a08301527f1459f82b4b17c8731c101d7915c5773b9fd9110ae8c6bbdb99e4c9a415aff1996102c08301527f304c4dbfdb0531622d26d879ece758f838e7c26c655b7f4d46f09c99d6e239336102e08301526020826103008460086107d05a03fa82518116935050505095945050505050565b604051610380810160405261095d6000840135610067565b61096a6020840135610067565b6109776040840135610067565b6109846060840135610067565b6109916080840135610067565b61099e60a0840135610067565b6109ab60c0840135610067565b6109b860e0840135610067565b6109c6610100840135610067565b6109d4610120840135610067565b6109e2610140840135610067565b6109f0610160840135610067565b6109fe610180840135610067565b610a0c6101a0840135610067565b610a1a6101c0840135610067565b610a286101e0840135610067565b610a36610200840135610067565b610a43818486888a610106565b8060005260206000f35b600080fd5b600080fd5b600081905082602060020282011115610a7357610a72610a52565b5b92915050565b600081905082604060020282011115610a9557610a94610a52565b5b92915050565b600081905082602060100282011115610ab757610ab6610a52565b5b92915050565b6000806000806103008587031215610ad857610ad7610a4d565b5b6000610ae687828801610a57565b9450506040610af787828801610a79565b93505060c0610b0887828801610a57565b925050610100610b1a87828801610a9b565b91505092959194509250565b60008115159050919050565b610b3b81610b26565b82525050565b6000602082019050610b566000830184610b32565b9291505056fea2646970667358221220e716cbe3d04d4fbed7af16497ed886f29b7ddb6e12476d822ad2ea029986c47164736f6c63430008120033",
  "linkReferences": {},
  "deployedLinkReferences": {}
}