{
  "_format": "hh-sol-artifact-1",
  "contractName": "ProofOfPassport",
  "sourceName": "contracts/ProofOfPassport.sol",
  "abi": [
    {
      "inputs": [
        {
          "internalType": "contract Groth16Verifier",
          "name": "v",
          "type": "address"
        },
        {
          "internalType": "contract Formatter",
          "name": "f",
          "type": "address"
        },
        {
          "internalType": "contract Registry",
          "name": "r",
          "type": "address"
        }
      ],
      "stateMutability": "nonpayable",
      "type": "constructor"
    },
    {
      "anonymous": false,
      "inputs": [
        {
          "indexed": true,
          "internalType": "address",
          "name": "owner",
          "type": "address"
        },
        {
          "indexed": true,
          "internalType": "address",
          "name": "approved",
          "type": "address"
        },
        {
          "indexed": true,
          "internalType": "uint256",
          "name": "tokenId",
          "type": "uint256"
        }
      ],
      "name": "Approval",
      "type": "event"
    },
    {
      "anonymous": false,
      "inputs": [
        {
          "indexed": true,
          "internalType": "address",
          "name": "owner",
          "type": "address"
        },
        {
          "indexed": true,
          "internalType": "address",
          "name": "operator",
          "type": "address"
        },
        {
          "indexed": false,
          "internalType": "bool",
          "name": "approved",
          "type": "bool"
        }
      ],
      "name": "ApprovalForAll",
      "type": "event"
    },
    {
      "anonymous": false,
      "inputs": [
        {
          "indexed": true,
          "internalType": "address",
          "name": "previousOwner",
          "type": "address"
        },
        {
          "indexed": true,
          "internalType": "address",
          "name": "newOwner",
          "type": "address"
        }
      ],
      "name": "OwnershipTransferred",
      "type": "event"
    },
    {
      "anonymous": false,
      "inputs": [
        {
          "indexed": true,
          "internalType": "address",
          "name": "from",
          "type": "address"
        },
        {
          "indexed": true,
          "internalType": "address",
          "name": "to",
          "type": "address"
        },
        {
          "indexed": true,
          "internalType": "uint256",
          "name": "tokenId",
          "type": "uint256"
        }
      ],
      "name": "Transfer",
      "type": "event"
    },
    {
      "inputs": [
        {
          "internalType": "address",
          "name": "to",
          "type": "address"
        },
        {
          "internalType": "uint256",
          "name": "tokenId",
          "type": "uint256"
        }
      ],
      "name": "approve",
      "outputs": [],
      "stateMutability": "nonpayable",
      "type": "function"
    },
    {
      "inputs": [
        {
          "internalType": "uint256",
          "name": "",
          "type": "uint256"
        }
      ],
      "name": "attributePositions",
      "outputs": [
        {
          "internalType": "string",
          "name": "name",
          "type": "string"
        },
        {
          "internalType": "uint256",
          "name": "start",
          "type": "uint256"
        },
        {
          "internalType": "uint256",
          "name": "end",
          "type": "uint256"
        },
        {
          "internalType": "uint256",
          "name": "index",
          "type": "uint256"
        }
      ],
      "stateMutability": "view",
      "type": "function"
    },
    {
      "inputs": [
        {
          "internalType": "address",
          "name": "owner",
          "type": "address"
        }
      ],
      "name": "balanceOf",
      "outputs": [
        {
          "internalType": "uint256",
          "name": "",
          "type": "uint256"
        }
      ],
      "stateMutability": "view",
      "type": "function"
    },
    {
      "inputs": [
        {
          "internalType": "uint256[3]",
          "name": "publicSignals",
          "type": "uint256[3]"
        }
      ],
      "name": "fieldElementsToBytes",
      "outputs": [
        {
          "internalType": "bytes",
          "name": "",
          "type": "bytes"
        }
      ],
      "stateMutability": "pure",
      "type": "function"
    },
    {
      "inputs": [],
      "name": "formatter",
      "outputs": [
        {
          "internalType": "contract Formatter",
          "name": "",
          "type": "address"
        }
      ],
      "stateMutability": "view",
      "type": "function"
    },
    {
      "inputs": [
        {
          "internalType": "uint256",
          "name": "tokenId",
          "type": "uint256"
        }
      ],
      "name": "getApproved",
      "outputs": [
        {
          "internalType": "address",
          "name": "",
          "type": "address"
        }
      ],
      "stateMutability": "view",
      "type": "function"
    },
    {
      "inputs": [
        {
          "internalType": "uint256[6]",
          "name": "dateNum",
          "type": "uint256[6]"
        }
      ],
      "name": "getCurrentTimestamp",
      "outputs": [
        {
          "internalType": "uint256",
          "name": "",
          "type": "uint256"
        }
      ],
      "stateMutability": "view",
      "type": "function"
    },
    {
      "inputs": [
        {
          "internalType": "uint256",
          "name": "_tokenId",
          "type": "uint256"
        }
      ],
      "name": "getDateOfBirthOf",
      "outputs": [
        {
          "internalType": "string",
          "name": "",
          "type": "string"
        }
      ],
      "stateMutability": "view",
      "type": "function"
    },
    {
      "inputs": [
        {
          "internalType": "uint256",
          "name": "_tokenId",
          "type": "uint256"
        }
      ],
      "name": "getExpiryDateOf",
      "outputs": [
        {
          "internalType": "string",
          "name": "",
          "type": "string"
        }
      ],
      "stateMutability": "view",
      "type": "function"
    },
    {
      "inputs": [
        {
          "internalType": "uint256",
          "name": "_tokenId",
          "type": "uint256"
        }
      ],
      "name": "getGenderOf",
      "outputs": [
        {
          "internalType": "string",
          "name": "",
          "type": "string"
        }
      ],
      "stateMutability": "view",
      "type": "function"
    },
    {
      "inputs": [
        {
          "internalType": "uint256",
          "name": "_tokenId",
          "type": "uint256"
        }
      ],
      "name": "getIssuingStateOf",
      "outputs": [
        {
          "internalType": "string",
          "name": "",
          "type": "string"
        }
      ],
      "stateMutability": "view",
      "type": "function"
    },
    {
      "inputs": [
        {
          "internalType": "uint256",
          "name": "_tokenId",
          "type": "uint256"
        }
      ],
      "name": "getNameOf",
      "outputs": [
        {
          "internalType": "string",
          "name": "",
          "type": "string"
        }
      ],
      "stateMutability": "view",
      "type": "function"
    },
    {
      "inputs": [
        {
          "internalType": "uint256",
          "name": "_tokenId",
          "type": "uint256"
        }
      ],
      "name": "getNationalityOf",
      "outputs": [
        {
          "internalType": "string",
          "name": "",
          "type": "string"
        }
      ],
      "stateMutability": "view",
      "type": "function"
    },
    {
      "inputs": [
        {
          "internalType": "uint256",
          "name": "_tokenId",
          "type": "uint256"
        }
      ],
      "name": "getOlderThanOf",
      "outputs": [
        {
          "internalType": "string",
          "name": "",
          "type": "string"
        }
      ],
      "stateMutability": "view",
      "type": "function"
    },
    {
      "inputs": [
        {
          "internalType": "uint256",
          "name": "_tokenId",
          "type": "uint256"
        }
      ],
      "name": "getPassportNumberOf",
      "outputs": [
        {
          "internalType": "string",
          "name": "",
          "type": "string"
        }
      ],
      "stateMutability": "view",
      "type": "function"
    },
    {
      "inputs": [
        {
          "internalType": "address",
          "name": "owner",
          "type": "address"
        },
        {
          "internalType": "address",
          "name": "operator",
          "type": "address"
        }
      ],
      "name": "isApprovedForAll",
      "outputs": [
        {
          "internalType": "bool",
          "name": "",
          "type": "bool"
        }
      ],
      "stateMutability": "view",
      "type": "function"
    },
    {
      "inputs": [
        {
          "internalType": "string",
          "name": "date",
          "type": "string"
        }
      ],
      "name": "isExpired",
      "outputs": [
        {
          "internalType": "bool",
          "name": "",
          "type": "bool"
        }
      ],
      "stateMutability": "view",
      "type": "function"
    },
    {
      "inputs": [
        {
          "internalType": "string",
          "name": "a",
          "type": "string"
        },
        {
          "internalType": "string",
          "name": "b",
          "type": "string"
        }
      ],
      "name": "isStringEqual",
      "outputs": [
        {
          "internalType": "bool",
          "name": "",
          "type": "bool"
        }
      ],
      "stateMutability": "pure",
      "type": "function"
    },
    {
      "inputs": [
        {
          "internalType": "uint256[2]",
          "name": "a",
          "type": "uint256[2]"
        },
        {
          "internalType": "uint256[2][2]",
          "name": "b",
          "type": "uint256[2][2]"
        },
        {
          "internalType": "uint256[2]",
          "name": "c",
          "type": "uint256[2]"
        },
        {
          "internalType": "uint256[12]",
          "name": "inputs",
          "type": "uint256[12]"
        }
      ],
      "name": "mint",
      "outputs": [],
      "stateMutability": "nonpayable",
      "type": "function"
    },
    {
      "inputs": [],
      "name": "name",
      "outputs": [
        {
          "internalType": "string",
          "name": "",
          "type": "string"
        }
      ],
      "stateMutability": "view",
      "type": "function"
    },
    {
      "inputs": [
        {
          "internalType": "uint256",
          "name": "",
          "type": "uint256"
        }
      ],
      "name": "nullifiers",
      "outputs": [
        {
          "internalType": "bool",
          "name": "",
          "type": "bool"
        }
      ],
      "stateMutability": "view",
      "type": "function"
    },
    {
      "inputs": [],
      "name": "owner",
      "outputs": [
        {
          "internalType": "address",
          "name": "",
          "type": "address"
        }
      ],
      "stateMutability": "view",
      "type": "function"
    },
    {
      "inputs": [
        {
          "internalType": "uint256",
          "name": "tokenId",
          "type": "uint256"
        }
      ],
      "name": "ownerOf",
      "outputs": [
        {
          "internalType": "address",
          "name": "",
          "type": "address"
        }
      ],
      "stateMutability": "view",
      "type": "function"
    },
    {
      "inputs": [],
      "name": "registry",
      "outputs": [
        {
          "internalType": "contract Registry",
          "name": "",
          "type": "address"
        }
      ],
      "stateMutability": "view",
      "type": "function"
    },
    {
      "inputs": [],
      "name": "renounceOwnership",
      "outputs": [],
      "stateMutability": "nonpayable",
      "type": "function"
    },
    {
      "inputs": [
        {
          "internalType": "address",
          "name": "from",
          "type": "address"
        },
        {
          "internalType": "address",
          "name": "to",
          "type": "address"
        },
        {
          "internalType": "uint256",
          "name": "tokenId",
          "type": "uint256"
        }
      ],
      "name": "safeTransferFrom",
      "outputs": [],
      "stateMutability": "nonpayable",
      "type": "function"
    },
    {
      "inputs": [
        {
          "internalType": "address",
          "name": "from",
          "type": "address"
        },
        {
          "internalType": "address",
          "name": "to",
          "type": "address"
        },
        {
          "internalType": "uint256",
          "name": "tokenId",
          "type": "uint256"
        },
        {
          "internalType": "bytes",
          "name": "data",
          "type": "bytes"
        }
      ],
      "name": "safeTransferFrom",
      "outputs": [],
      "stateMutability": "nonpayable",
      "type": "function"
    },
    {
      "inputs": [
        {
          "internalType": "address",
          "name": "operator",
          "type": "address"
        },
        {
          "internalType": "bool",
          "name": "approved",
          "type": "bool"
        }
      ],
      "name": "setApprovalForAll",
      "outputs": [],
      "stateMutability": "nonpayable",
      "type": "function"
    },
    {
      "inputs": [
        {
          "internalType": "uint256[12]",
          "name": "input",
          "type": "uint256[12]"
        }
      ],
      "name": "sliceFirstThree",
      "outputs": [
        {
          "internalType": "uint256[3]",
          "name": "",
          "type": "uint256[3]"
        }
      ],
      "stateMutability": "pure",
      "type": "function"
    },
    {
      "inputs": [
        {
          "internalType": "bytes",
          "name": "str",
          "type": "bytes"
        },
        {
          "internalType": "uint256",
          "name": "startIndex",
          "type": "uint256"
        },
        {
          "internalType": "uint256",
          "name": "endIndex",
          "type": "uint256"
        }
      ],
      "name": "substring",
      "outputs": [
        {
          "internalType": "bytes",
          "name": "",
          "type": "bytes"
        }
      ],
      "stateMutability": "pure",
      "type": "function"
    },
    {
      "inputs": [
        {
          "internalType": "bytes4",
          "name": "interfaceId",
          "type": "bytes4"
        }
      ],
      "name": "supportsInterface",
      "outputs": [
        {
          "internalType": "bool",
          "name": "",
          "type": "bool"
        }
      ],
      "stateMutability": "view",
      "type": "function"
    },
    {
      "inputs": [],
      "name": "symbol",
      "outputs": [
        {
          "internalType": "string",
          "name": "",
          "type": "string"
        }
      ],
      "stateMutability": "view",
      "type": "function"
    },
    {
      "inputs": [
        {
          "internalType": "uint256",
          "name": "index",
          "type": "uint256"
        }
      ],
      "name": "tokenByIndex",
      "outputs": [
        {
          "internalType": "uint256",
          "name": "",
          "type": "uint256"
        }
      ],
      "stateMutability": "view",
      "type": "function"
    },
    {
      "inputs": [
        {
          "internalType": "address",
          "name": "owner",
          "type": "address"
        },
        {
          "internalType": "uint256",
          "name": "index",
          "type": "uint256"
        }
      ],
      "name": "tokenOfOwnerByIndex",
      "outputs": [
        {
          "internalType": "uint256",
          "name": "",
          "type": "uint256"
        }
      ],
      "stateMutability": "view",
      "type": "function"
    },
    {
      "inputs": [
        {
          "internalType": "uint256",
          "name": "_tokenId",
          "type": "uint256"
        }
      ],
      "name": "tokenURI",
      "outputs": [
        {
          "internalType": "string",
          "name": "",
          "type": "string"
        }
      ],
      "stateMutability": "view",
      "type": "function"
    },
    {
      "inputs": [],
      "name": "totalSupply",
      "outputs": [
        {
          "internalType": "uint256",
          "name": "",
          "type": "uint256"
        }
      ],
      "stateMutability": "view",
      "type": "function"
    },
    {
      "inputs": [
        {
          "internalType": "address",
          "name": "from",
          "type": "address"
        },
        {
          "internalType": "address",
          "name": "to",
          "type": "address"
        },
        {
          "internalType": "uint256",
          "name": "tokenId",
          "type": "uint256"
        }
      ],
      "name": "transferFrom",
      "outputs": [],
      "stateMutability": "nonpayable",
      "type": "function"
    },
    {
      "inputs": [
        {
          "internalType": "address",
          "name": "newOwner",
          "type": "address"
        }
      ],
      "name": "transferOwnership",
      "outputs": [],
      "stateMutability": "nonpayable",
      "type": "function"
    },
    {
      "inputs": [],
      "name": "verifier",
      "outputs": [
        {
          "internalType": "contract Groth16Verifier",
          "name": "",
          "type": "address"
        }
      ],
      "stateMutability": "view",
      "type": "function"
    }
  ],
  "bytecode": "0x60a0346200071757601f620042e438819003918201601f191683019291906001600160401b038411838510176200060f578160609284926040968752833981010312620007175780516001600160a01b038116810362000717576020820151916001600160a01b03831683036200071757830151906001600160a01b038216820362000717576200008f6200073c565b600f81526e141c9bdbd993d994185cdcdc1bdc9d608a1b90816020820152620000b76200073c565b600f815260208101929092528051906001600160401b0382116200060f5760005490600182811c921680156200070c575b6020831014620005ee5781601f849311620006a9575b50602090601f8311600114620006315760009262000625575b50508160011b916000199060031b1c1916176000555b8051906001600160401b0382116200060f5760015490600182811c9216801562000604575b6020831014620005ee5781601f8493116200058a575b50602090601f8311600114620005105760009262000504575b50508160011b916000199060031b1c1916176001555b620001a2336200075c565b608052600b80546001600160a01b039384166001600160a01b031991821617909155600c80549290931691161790556200021f620001df6200071c565b620001e96200073c565b600d81526c69737375696e675f737461746560981b602082015281526002602082015260048382015260006060820152620007a5565b620002646200022d6200071c565b620002376200073c565b60048152636e616d6560e01b6020820152815260056020820152602b8382015260016060820152620007a5565b620002b4620002726200071c565b6200027c6200073c565b600f81526e3830b9b9b837b93a2fb73ab6b132b960891b60208201528152602c602082015260348382015260026060820152620007a5565b62000300620002c26200071c565b620002cc6200073c565b600b81526a6e6174696f6e616c69747960a81b602082015281526036602082015260388382015260036060820152620007a5565b6200034e6200030e6200071c565b620003186200073c565b600d81526c0c8c2e8cabedeccbec4d2e4e8d609b1b6020820152815260396020820152603e8382015260046060820152620007a5565b620003936200035c6200071c565b620003666200073c565b600681526533b2b73232b960d11b60208201528152826020820152828082015260056060820152620007a5565b620003df620003a16200071c565b620003ab6200073c565b600b81526a6578706972795f6461746560a81b602082015281526041602082015260468382015260066060820152620007a5565b6200042a620003ed6200071c565b620003f76200073c565b600a81526937b63232b92fba3430b760b11b602082015281526058602082015260598382015260076060820152620007a5565b600a54336001600160a01b0390911603620004c15733156200046f5762000451336200075c565b516139109081620009948239608051818181610a1301526123f10152f35b5162461bcd60e51b815260206004820152602660248201527f4f776e61626c653a206e6577206f776e657220697320746865207a65726f206160448201526564647265737360d01b6064820152608490fd5b5162461bcd60e51b815260206004820181905260248201527f4f776e61626c653a2063616c6c6572206973206e6f7420746865206f776e65726044820152606490fd5b01519050388062000181565b60016000908152600080516020620042c48339815191529350601f198516905b81811062000571575090846001959493921062000557575b505050811b0160015562000197565b015160001960f88460031b161c1916905538808062000548565b9293602060018192878601518155019501930162000530565b6001600052909150600080516020620042c4833981519152601f840160051c81019160208510620005e3575b90601f859493920160051c01905b818110620005d3575062000168565b60008155849350600101620005c4565b9091508190620005b6565b634e487b7160e01b600052602260045260246000fd5b91607f169162000152565b634e487b7160e01b600052604160045260246000fd5b01519050388062000117565b6000808052600080516020620042a48339815191529350601f198516905b81811062000690575090846001959493921062000676575b505050811b016000556200012d565b015160001960f88460031b161c1916905538808062000667565b929360206001819287860151815501950193016200064f565b60008052909150600080516020620042a4833981519152601f840160051c8101916020851062000701575b90601f859493920160051c01905b818110620006f15750620000fe565b60008155849350600101620006e2565b9091508190620006d4565b91607f1691620000e8565b600080fd5b60405190608082016001600160401b038111838210176200060f57604052565b60408051919082016001600160401b038111838210176200060f57604052565b600a80546001600160a01b039283166001600160a01b0319821681179092559091167f8be0079c531659141344cd1fd0a4f28419497f9722a3daafe3b4186f6b6457e0600080a3565b90600e54680100000000000000008110156200060f5760019283820180600e558210156200097d57600e600090815281518051909560029490941b7fbb7b4a454dc3493923482f07822329ed19e8244eff582cc204f8554c3620c3fd019391602091906001600160401b038211620009695785548481811c911680156200095e575b848210146200094a57601f8111620008ff575b508290601f8311600114620008945791809160039798996060979695949262000888575b505060001982881b1c191690831b1786555b82015190850155604081015160028501550151910155565b0151905038806200085e565b90601f198316878352848320925b818110620008e95750918391600398999a879695606099989510620008d0575b505050811b01865562000870565b0151600019838a1b60f8161c19169055388080620008c2565b8a830151845592860192918501918501620008a2565b868252838220601f840160051c8101918585106200093f575b601f0160051c019085905b828110620009335750506200083a565b83815501859062000923565b909150819062000918565b634e487b7160e01b82526022600452602482fd5b90607f169062000827565b634e487b7160e01b81526041600452602490fd5b634e487b7160e01b600052603260045260246000fdfe6080604052600436101561001257600080fd5b60003560e01c806301ffc9a7146102875780630620f98c1461028257806306fdde031461027d5780630702032d14610278578063081812fc14610273578063095ea7b31461026e57806318160ddd146102695780631a32c7021461026457806323b872dd1461025f578063245d109e1461025a5780632b7ac3f3146102555780632cd8a74a146102505780632f745c591461024b5780633a41515f1461024657806342842e0e146102415780634cd1ad321461023c5780634f6ccce7146102375780636352211e1461023257806370a082311461022d578063715018a61461022857806375e1b17e146102235780637b1039991461021e57806385d2b28d146102195780638da5cb5b1461021457806393c9707d1461020f57806395d89b411461020a578063a22cb46514610205578063b04e3a3b14610200578063b4b45db3146101fb578063b88d4fde146101f6578063c64fafbc146101f1578063c87b56dd146101ec578063d21e82ab146101e7578063dc54daf0146101e2578063e985e9c5146101dd578063f03637ca146101d8578063f2fde38b146101d3578063f6809cc5146101ce5763fcf27f60146101c957600080fd5b611800565b6117d4565b61170b565b6116dc565b61167f565b611628565b6115f7565b61123c565b611202565b6111b4565b611185565b611117565b610ef8565b610e49565b610e1a565b610df1565b610dc2565b610d99565b610d6a565b610d0c565b610ce1565b610cc3565b610c18565b610b75565b610b4d565b610b24565b610a71565b610a42565b6109fd565b61097f565b61088e565b6107d6565b610774565b61069e565b610642565b6105ff565b61051c565b610460565b6102a3565b6001600160e01b031981160361029e57565b600080fd5b3461029e57602036600319011261029e5760206004356102c28161028c565b63ffffffff60e01b1663780e9d6360e01b81149081156102e8575b506040519015158152f35b6380ac58cd60e01b81149150811561031a575b8115610309575b50386102dd565b6301ffc9a760e01b14905038610302565b635b5e139f60e01b811491506102fb565b634e487b7160e01b600052604160045260246000fd5b61018081019081106001600160401b0382111761035d57604052565b61032b565b604081019081106001600160401b0382111761035d57604052565b602081019081106001600160401b0382111761035d57604052565b606081019081106001600160401b0382111761035d57604052565b60c081019081106001600160401b0382111761035d57604052565b90601f801991011681019081106001600160401b0382111761035d57604052565b604051906103fc82610398565b565b6001600160401b03811161035d57601f01601f191660200190565b81601f8201121561029e57803590610430826103fe565b9261043e60405194856103ce565b8284526020838301011161029e57816000926020809301838601378301015290565b3461029e57604036600319011261029e576001600160401b0360043581811161029e57610491903690600401610419565b9060243590811161029e576020916104b06104b6923690600401610419565b90612e58565b6040519015158152f35b60005b8381106104d35750506000910152565b81810151838201526020016104c3565b906020916104fc815180928185528580860191016104c0565b601f01601f1916010190565b9060206105199281815201906104e3565b90565b3461029e576000806003193601126105fc576040519080805461053e81611039565b808552916001918083169081156105d25750600114610578575b61057485610568818703826103ce565b60405191829182610508565b0390f35b80809450527f290decd9548b62a8d60345a988386fc84ba6bc95484008f6362f93160ef3e5635b8284106105ba57505050810160200161056882610574610558565b8054602085870181019190915290930192810161059f565b8695506105749693506020925061056894915060ff191682840152151560051b8201019293610558565b80fd5b3461029e57602036600319011261029e57600435600052600f60205261057461062e6003604060002001611073565b6040519182916020835260208301906104e3565b3461029e57602036600319011261029e576020610660600435611a07565b6040516001600160a01b039091168152f35b600435906001600160a01b038216820361029e57565b602435906001600160a01b038216820361029e57565b3461029e57604036600319011261029e576106b7610672565b6024356106c381611972565b916001600160a01b038084169082168114610725576106f5936106f09133149081156106f7575b50611995565b611d9b565b005b6001600160a01b0316600090815260056020908152604080832033845290915290205460ff169050386106ea565b60405162461bcd60e51b815260206004820152602160248201527f4552433732313a20617070726f76616c20746f2063757272656e74206f776e656044820152603960f91b6064820152608490fd5b3461029e57600036600319011261029e576020600854604051908152f35b80610123121561029e57604051906107a982610341565b8161028491821161029e57610104905b8282106107c65750505090565b81358152602091820191016107b9565b3461029e5761018036600319011261029e57366023121561029e576040516107fd81610341565b6101848136821161029e576004905b8282106108495761081c846128f1565b60405190600090825b6003831061083257606084f35b600190825181526020809101920192019190610825565b813581526020918201910161080c565b606090600319011261029e576001600160a01b0390600435828116810361029e5791602435908116810361029e579060443590565b3461029e576106f561089f36610859565b916108b26108ad8433611b55565b611a45565b611c27565b806023121561029e57604051906108cd82610362565b81604491821161029e576004905b8282106108e85750505090565b81358152602091820191016108db565b8060e3121561029e576040519061090e82610362565b8161010491821161029e5760c4905b82821061092a5750505090565b813581526020918201910161091d565b9080601f8301121561029e576040519161095383610362565b82906040810192831161029e57905b82821061096f5750505090565b8135815260209182019101610962565b3461029e5761028036600319011261029e5761099a366108b7565b366063121561029e5760409081516109b181610362565b60c48136821161029e576044905b8282106109e4576106f585856109d4366108f8565b906109de36610792565b926123c2565b602086916109f2368561093a565b8152019101906109bf565b3461029e57600036600319011261029e576040517f00000000000000000000000000000000000000000000000000000000000000006001600160a01b03168152602090f35b3461029e57602036600319011261029e57600435600052600f60205261057461062e6004604060002001611073565b3461029e57604036600319011261029e57610a8a610672565b60243590610a97816118af565b821015610acb576001600160a01b031660009081526006602090815260408083209383529281529082902054915191825290f35b60405162461bcd60e51b815260206004820152602b60248201527f455243373231456e756d657261626c653a206f776e657220696e646578206f7560448201526a74206f6620626f756e647360a81b6064820152608490fd5b3461029e57600036600319011261029e57600b546040516001600160a01b039091168152602090f35b3461029e576106f5610b5e36610859565b9060405192610b6c8461037d565b60008452611aba565b3461029e57606036600319011261029e576004356001600160401b03811161029e57610ba5903690600401610419565b60243590604435828103818111610c1357610bbf90612232565b91835b828110610bd757604051806105748682610508565b6001600160f81b0319610bea8284612264565b511690858103818111610c1357610c08610c0e9360001a9187612264565b536120bc565b610bc2565b6120a6565b3461029e57602036600319011261029e57600435600854811015610c695760086000527ff3f7a9fe364faab93b216da50a3214154f22a0a2b415b23a84c8169e8b636ee30154604051908152602090f35b60405162461bcd60e51b815260206004820152602c60248201527f455243373231456e756d657261626c653a20676c6f62616c20696e646578206f60448201526b7574206f6620626f756e647360a01b6064820152608490fd5b3461029e57602036600319011261029e576020610660600435611972565b3461029e57602036600319011261029e576020610d04610cff610672565b6118af565b604051908152f35b3461029e576000806003193601126105fc57610d26611857565b600a80546001600160a01b0319811690915581906001600160a01b03167f8be0079c531659141344cd1fd0a4f28419497f9722a3daafe3b4186f6b6457e08280a380f35b3461029e57602036600319011261029e57600435600052600f60205261057461062e6006604060002001611073565b3461029e57600036600319011261029e57600c546040516001600160a01b039091168152602090f35b3461029e57602036600319011261029e57600435600052600f60205261057461062e6007604060002001611073565b3461029e57600036600319011261029e57600a546040516001600160a01b039091168152602090f35b3461029e57602036600319011261029e57600435600052600f60205261057461062e6005604060002001611073565b3461029e576000806003193601126105fc5760405190806001805491610e6e83611039565b808652928281169081156105d25750600114610e945761057485610568818703826103ce565b92508083527fb10e2d527612073b26eecdfd717e6a320cf44b4afac2b0732d9fcbe2b7fa0cf65b828410610ed657505050810160200161056882610574610558565b80546020858701810191909152909301928101610ebb565b8015150361029e57565b3461029e57604036600319011261029e57610f11610672565b602435610f1d81610eee565b6001600160a01b03821691338314610f9f5781610f5c610f6d9233600052600560205260406000209060018060a01b0316600052602052604060002090565b9060ff801983541691151516179055565b604051901515815233907f17307eab39ab6107e8899845ad3d59bd9653f200f220920489ca2b5937696c3190602090a3005b60405162461bcd60e51b815260206004820152601960248201527f4552433732313a20617070726f766520746f2063616c6c6572000000000000006044820152606490fd5b634e487b7160e01b600052603260045260246000fd5b600e5481101561103457600e60005260021b7fbb7b4a454dc3493923482f07822329ed19e8244eff582cc204f8554c3620c3fd0190600090565b610fe4565b90600182811c92168015611069575b602083101461105357565b634e487b7160e01b600052602260045260246000fd5b91607f1691611048565b906040519182600082549261108784611039565b9081845260019485811690816000146110f457506001146110b1575b50506103fc925003836103ce565b9093915060005260209081600020936000915b8183106110dc5750506103fc935082010138806110a3565b855488840185015294850194879450918301916110c4565b9150506103fc94506020925060ff191682840152151560051b82010138806110a3565b3461029e57602036600319011261029e57600435600e5481101561029e5761114161117191610ffa565b5061114b81611073565b9060018101549060036002820154910154906040519485946080865260808601906104e3565b926020850152604084015260608301520390f35b3461029e57602036600319011261029e57600435600052600f60205261057461062e6002604060002001611073565b3461029e57608036600319011261029e576111cd610672565b6111d5610688565b606435916001600160401b03831161029e576111f86106f5933690600401610419565b9160443591611aba565b3461029e57602036600319011261029e576004356001600160401b03811161029e576104b66112376020923690600401610419565b612c66565b3461029e5760208060031936011261029e576004356000818152600260205260409020546001600160a01b0316151561127490612ef5565b61128881600052600f602052604060002090565b61129190612f59565b60408051707b202261747472696275746573223a205b60781b858201908152819003600e1981018252601f1994929391906112cf90601101826103ce565b8151516112da612fc3565b6112e392613287565b8151602001516112f1612fec565b6112fa92613287565b815160200151611308613012565b61131192613287565b81516040015161131f613037565b61132892613287565b815160600151611336613062565b61133f92613287565b81516080015161134d613089565b61135692613287565b815160a001516113646130b2565b61136d92613287565b815160c0015161137b6130d4565b61138492613287565b815160c001516113926130fb565b61139b92613287565b905160e001516113a961311e565b6113b292613287565b9283516113be90612132565b6113c89085612264565b516001600160f81b03191683516001600160f81b03199091168682019081529080600183010383810182526113fd90826103ce565b5190208351600b60fa1b87820190815290806001830103848101825261142390826103ce565b51902014946115b961158861146561157a61155a986115c5976105749b6115cf575b61156061145461156e92613144565b61155a8c519687958b870190612cf3565b7f5d2c226465736372697074696f6e223a202250726f6f66206f6620506173737081527f6f72742067756172616e7465657320706f7373657373696f6e206f662061207660208201527f616c69642070617373706f72742e222c2265787465726e616c5f75726c223a2060408201527f2268747470733a2f2f70726f6f666f6670617373706f72742e636f6d222c226960608201527f6d616765223a202268747470733a2f2f692e696d6775722e636f6d2f396b766560808201527f74696a2e706e67222c226e616d65223a202250726f6f66206f6620506173737060a0820152646f7274202360d81b60c082015260c50190565b90612cf3565b61227d60f01b815260020190565b038681018352826103ce565b6115838161384d565b61375f565b85519687938401601d907f646174613a6170706c69636174696f6e2f6a736f6e3b6261736536342c00000081520190565b039081018452836103ce565b5191829182610508565b906115606114546115ed836115e761156e9551612132565b90612ead565b9392505050611445565b3461029e57602036600319011261029e57600435600052600d602052602060ff604060002054166040519015158152f35b3461029e57606036600319011261029e57366023121561029e5760405161164e81610398565b60648136821161029e576004905b82821061166f5761057461056885612831565b813581526020918201910161165c565b3461029e57604036600319011261029e57602060ff6116d061169f610672565b6116a7610688565b6001600160a01b0391821660009081526005865260408082209290931681526020919091522090565b54166040519015158152f35b3461029e57602036600319011261029e57600435600052600f60205261057461062e6001604060002001611073565b3461029e57602036600319011261029e57611724610672565b61172c611857565b6001600160a01b0390811690811561178057600a54826bffffffffffffffffffffffff60a01b821617600a55167f8be0079c531659141344cd1fd0a4f28419497f9722a3daafe3b4186f6b6457e0600080a3005b60405162461bcd60e51b815260206004820152602660248201527f4f776e61626c653a206e6577206f776e657220697320746865207a65726f206160448201526564647265737360d01b6064820152608490fd5b3461029e57602036600319011261029e57600435600052600f60205261057461062e6040600020611073565b3461029e5760c036600319011261029e57366023121561029e57604051611826816103b3565b60c48136821161029e576020926004905b8382106118485784610d0484612d2e565b81358152908401908401611837565b600a546001600160a01b0316330361186b57565b606460405162461bcd60e51b815260206004820152602060248201527f4f776e61626c653a2063616c6c6572206973206e6f7420746865206f776e65726044820152fd5b6001600160a01b031680156118cf57600052600360205260406000205490565b60405162461bcd60e51b815260206004820152602960248201527f4552433732313a2061646472657373207a65726f206973206e6f7420612076616044820152683634b21037bbb732b960b91b6064820152608490fd5b1561192d57565b60405162461bcd60e51b815260206004820152601860248201527f4552433732313a20696e76616c696420746f6b656e20494400000000000000006044820152606490fd5b6000908152600260205260409020546001600160a01b0316610519811515611926565b1561199c57565b60405162461bcd60e51b815260206004820152603d60248201527f4552433732313a20617070726f76652063616c6c6572206973206e6f7420746f60448201527f6b656e206f776e6572206f7220617070726f76656420666f7220616c6c0000006064820152608490fd5b600081815260026020526040902054611a2a906001600160a01b03161515611926565b6000908152600460205260409020546001600160a01b031690565b15611a4c57565b60405162461bcd60e51b815260206004820152602d60248201527f4552433732313a2063616c6c6572206973206e6f7420746f6b656e206f776e6560448201526c1c881bdc88185c1c1c9bdd9959609a1b6064820152608490fd5b60405190611ab48261037d565b60008252565b90611ade939291611ace6108ad8433611b55565b611ad9838383611c27565b611e81565b15611ae557565b60405162461bcd60e51b815280611afe60048201611b02565b0390fd5b60809060208152603260208201527f4552433732313a207472616e7366657220746f206e6f6e20455243373231526560408201527131b2b4bb32b91034b6b83632b6b2b73a32b960711b60608201520190565b6001600160a01b0380611b6784611972565b169281831692848414948515611b9d575b50508315611b87575b50505090565b611b9391929350611a07565b1614388080611b81565b60009081526005602090815260408083206001600160a01b03949094168352929052205460ff1693503880611b78565b15611bd457565b60405162461bcd60e51b815260206004820152602560248201527f4552433732313a207472616e736665722066726f6d20696e636f72726563742060448201526437bbb732b960d91b6064820152608490fd5b611c4b90611c3484611972565b6001600160a01b0382811693909182168414611bcd565b8316928315611d4a57611cc982611c668784611d23966129a7565b611c8885611c82611c768a611972565b6001600160a01b031690565b14611bcd565b611caf611c9f886000526004602052604060002090565b80546001600160a01b0319169055565b6001600160a01b0316600090815260036020526040902090565b80546000190190556001600160a01b038116600090815260036020526040902060018154019055611d04856000526002602052604060002090565b80546001600160a01b0319166001600160a01b03909216919091179055565b7fddf252ad1be2c89b69c2b068fc378daa952ba7f163c4a11628f55a4df523b3ef600080a4565b60405162461bcd60e51b8152602060048201526024808201527f4552433732313a207472616e7366657220746f20746865207a65726f206164646044820152637265737360e01b6064820152608490fd5b600082815260046020526040902080546001600160a01b0319166001600160a01b0383161790556001600160a01b0380611dd484611972565b169116907f8c5be1e5ebec7d5bd14f71427d1e84f3dd0314c0f7b2291e5b200ac8c7c3b925600080a4565b9081602091031261029e57516105198161028c565b6001600160a01b039182168152911660208201526040810191909152608060608201819052610519929101906104e3565b6040513d6000823e3d90fd5b3d15611e7c573d90611e62826103fe565b91611e7060405193846103ce565b82523d6000602084013e565b606090565b92909190823b15611f3b57611eb4926020926000604051809681958294630a85bd0160e11b9a8b85523360048601611e14565b03926001600160a01b03165af160009181611f0b575b50611efd57611ed7611e51565b80519081611ef85760405162461bcd60e51b815280611afe60048201611b02565b602001fd5b6001600160e01b0319161490565b611f2d91925060203d8111611f34575b611f2581836103ce565b810190611dff565b9038611eca565b503d611f1b565b50505050600190565b9081602091031261029e575161051981610eee565b6000915b60028310611f6a57505050565b600190825181526020809101920192019190611f5d565b919493929094611f9683610280810197611f59565b600060408481015b60028310611fe6575050505090611fbc6101009260c0830190611f59565b01906000915b600c8310611fcf57505050565b600190825181526020809101920192019190611fc2565b60208282611ff76001948851611f59565b01940192019192611f9e565b1561200a57565b60405162461bcd60e51b815260206004820152600d60248201526c24b73b30b634b210283937b7b360991b6044820152606490fd5b90600c8110156110345760051b0190565b1561205757565b60405162461bcd60e51b8152602060048201526013602482015272125b9d985b1a59081b595c9adb19481c9bdbdd606a1b6044820152606490fd5b6040519061209f826103b3565b60c0368337565b634e487b7160e01b600052601160045260246000fd5b6000198114610c135760010190565b6006019081600611610c1357565b90620151808201809211610c1357565b9060018201809211610c1357565b6030019081603011610c1357565b9060028201809211610c1357565b9060208201809211610c1357565b9060068110156110345760051b0190565b600019810191908211610c1357565b6201517f19810191908211610c1357565b91908203918211610c1357565b1561216657565b60405162461bcd60e51b815260206004820152602a60248201527f43757272656e742064617465206973206e6f742077697468696e207468652076604482015269616c69642072616e676560b01b6064820152608490fd5b90604051608081018181106001600160401b0382111761035d576040526060600382946121ea81611073565b845260018101546020850152600281015460408501520154910152565b60405190608082018281106001600160401b0382111761035d57604052605a82526060366020840137565b9061223c826103fe565b61224960405191826103ce565b828152809261225a601f19916103fe565b0190602036910137565b908151811015611034570160200190565b6008821015611034570190600090565b90601f811161229357505050565b600091825260208220906020601f850160051c830194106122cf575b601f0160051c01915b8281106122c457505050565b8181556001016122b8565b90925082906122af565b909291926123ac5782516001600160401b03811161035d57612305816122ff8454611039565b84612285565b602080601f8311600114612341575081929394600092612336575b50508160011b916000199060031b1c1916179055565b015190503880612320565b90601f1983169561235785600052602060002090565b926000905b8882106123945750508360019596971061237b575b505050811b019055565b015160001960f88460031b161c19169055388080612371565b8060018596829496860151815501950193019061235c565b634e487b7160e01b600052600060045260246000fd5b6123ed9094939294836040968751938492839263465d607d60e11b8452602097889660048601611f81565b03817f00000000000000000000000000000000000000000000000000000000000000006001600160a01b03165afa80156126915761243391600091612696575b50612003565b600c5461247390829061244e906001600160a01b0316611c76565b608085015190875180809581946306c8442b60e01b8352600483019190602083019252565b03915afa80156126915761248f91600091612664575b50612050565b612497612092565b60005b6006811061263857506124af6124cd91612d2e565b6124b842612141565b8110159081612625575b50949193929461215f565b60a0840151612541906125309061252b906124f0906001600160a01b0316611c76565b966124fe60085480996126ff565b6125266125196060830151600052600d602052604060002090565b805460ff19166001179055565b6128f1565b612831565b94600052600f602052604060002090565b9360005b600e5481101561261d5761256161255b82610ffa565b506121be565b958387019586519461258861258361257e848c0198895190612152565b6120e9565b612232565b9686515b895181116125d157806125b36125a56125cc938a612264565b516001600160f81b03191690565b610c086125c18b5184612152565b9160001a918c612264565b61258c565b5097509761260e9195506125f46126139493976125ee858a612275565b906122d9565b516126086126028489612275565b50611073565b90613896565b6120bc565b9491939294612545565b505050915050565b9050612630426120d9565b1015386124c2565b8061264e61264861265f936120cb565b8661203f565b516126598285612121565b526120bc565b61249a565b6126849150833d851161268a575b61267c81836103ce565b810190611f44565b38612489565b503d612672565b611e45565b6126ad9150833d851161268a5761267c81836103ce565b3861242d565b156126ba57565b60405162461bcd60e51b815260206004820152601c60248201527f4552433732313a20746f6b656e20616c7265616479206d696e746564000000006044820152606490fd5b6001600160a01b0381169081156127cb576000838152600260205260409020546127a3919061273a906001600160a01b031615155b156126b3565b61274384612b1c565b61274d8482612ae4565b600084815260026020526040902054612770906001600160a01b03161515612734565b6001600160a01b038116600090815260036020526040902060018154019055611d04846000526002602052604060002090565b60007fddf252ad1be2c89b69c2b068fc378daa952ba7f163c4a11628f55a4df523b3ef8180a4565b606460405162461bcd60e51b815260206004820152602060248201527f4552433732313a206d696e7420746f20746865207a65726f20616464726573736044820152fd5b9060038110156110345760051b0190565b60ff1660ff8114610c135760010190565b6128396103ef565b601f815290601f6020830152601c6040830152612854612207565b91600091825b60038110612869575050505090565b909294612879828596949661280f565b51906000915b61289c61289661288f868a61280f565b5160ff1690565b60ff1690565b60ff841610156128db576128d5906128b3896120bc565b986128cb60ff60f81b8360f81b1660001a9188612264565b5360081c92612820565b9161287f565b509593916128ec91509492946120bc565b61285a565b90606060405161290081610398565b36903760405161290f81610398565b606036823760005b6003811061292457509150565b8061293261293d928661203f565b51612659828561280f565b612917565b1561294957565b60405162461bcd60e51b815260206004820152603060248201527f43616e6e6f74207472616e73666572202d2050726f6f66206f6620506173737060448201526f1bdc9d081a5cc81cdbdd5b189bdd5b9960821b6064820152608490fd5b916001600160a01b0380841680159392918415612a01576103fc95506129cc83612b1c565b8316806129e45750506129df9150612b79565b612942565b036129f1575b5050612942565b6129fa91612ae4565b38806129ea565b8084168203612a15575b6103fc95506129cc565b612a1e866118af565b600019810196908711610c13576103fc96612a7b60009286845260076020526040842054838103612a8b575b5083612a60886000526007602052604060002090565b556001600160a01b0316600090815260066020526040902090565b9082526020526040812055612a0b565b868552600660205260408520848652602052612add6040862054612ac18460018060a01b03166000526006602052604060002090565b8388526020528060408820556000526007602052604060002090565b5538612a4a565b604090612af0816118af565b9260009160018060a01b0316825260066020528282208483526020528083832055815260076020522055565b600854816000526009602052806040600020556801000000000000000081101561035d5760018101806008558110156110345760086000527ff3f7a9fe364faab93b216da50a3214154f22a0a2b415b23a84c8169e8b636ee30155565b6008805460001992838201828111610c13576000928284526009602052806040852054921015611034578484527ff3f7a9fe364faab93b216da50a3214154f22a0a2b415b23a84c8169e8b636ee2928382015491831015611034578492612c15612c269388865280837ff3f7a9fe364faab93b216da50a3214154f22a0a2b415b23a84c8169e8b636ee301556000526009602052604060002090565b556000526009602052604060002090565b558254938415612c43578401938085101561103457838352015555565b634e487b7160e01b83526031600452602483fd5b9081602091031261029e575190565b612c6f81612e16565b612ced576020612ca69160018060a01b03600b54166040518080958194633f02ed7560e21b835286600484015260248301906104e3565b03915afa90811561269157600091612cbf575b50421190565b612ce0915060203d8111612ce6575b612cd881836103ce565b810190612c57565b38612cb9565b503d612cce565b50600090565b90612d06602092828151948592016104c0565b0190565b602090612d2060019493828151948592016104c0565b019060ff60f81b1681520190565b612d36611aa7565b9060005b60068110612da9575050600b54612d7b91602091612d60906001600160a01b0316611c76565b6040518080958194633f02ed7560e21b835260048301610508565b03915afa90811561269157600091612d91575090565b610519915060203d8111612ce657612cd881836103ce565b909291612e0d90612e07612de6612dd6612896612dd1612dc9888b612121565b51600a900690565b6120f7565b60f81b6001600160f81b03191690565b91612df960405193849260208401612d0a565b03601f1981018352826103ce565b916120bc565b92909192612d3a565b6000805b8251811015612e50576001600160f81b0319612e368285612264565b5116612e4a57612e45906120bc565b612e1a565b50905090565b505050600190565b9060405191602092612e86848281612e7981830196878151938492016104c0565b81010380845201826103ce565b51902091612ea6604051918281612e7981830196878151938492016104c0565b5190201490565b90612eb781612232565b91600090815b838110612ecb575050505090565b612ef0906001600160f81b0319612ee28285612264565b5116841a610c088288612264565b612ebd565b15612efc57565b60405162461bcd60e51b815260206004820152602f60248201527f4552433732314d657461646174613a2055524920717565727920666f72206e6f60448201526e3732bc34b9ba32b73a103a37b5b2b760891b6064820152608490fd5b9060405191602092838101916001600160401b03948284108685111761035d578360405282956101208401908582109082111761035d57604052600090845b60088310612fa7575050505052565b6001828192612fb587611073565b815201940192019192612f98565b60405190612fd082610362565b600d82526c49737375696e6720537461746560981b6020830152565b60405190612ff982610362565b600a8252694669727374204e616d6560b01b6020830152565b6040519061301f82610362565b60098252684c617374204e616d6560b81b6020830152565b6040519061304482610362565b600f82526e2830b9b9b837b93a10273ab6b132b960891b6020830152565b6040519061306f82610362565b600b82526a4e6174696f6e616c69747960a81b6020830152565b6040519061309682610362565b600d82526c088c2e8ca40decc40c4d2e4e8d609b1b6020830152565b604051906130bf82610362565b600682526523b2b73232b960d11b6020830152565b604051906130e182610362565b600b82526a457870697279206461746560a81b6020830152565b6040519061310882610362565b6007825266115e1c1a5c995960ca1b6020830152565b6040519061312b82610362565b600a82526927b63232b9102a3430b760b11b6020830152565b806000917a184f03e93ff9f4daa797ed6e38ed64bf6a1f01000000000000000080821015613279575b506d04ee2d6d415b85acef81000000008083101561326a575b50662386f26fc100008083101561325b575b506305f5e1008083101561324c575b506127108083101561323d575b50606482101561322d575b600a80921015613223575b6001908160216131db828701612232565b95860101905b6131ed575b5050505090565b600019019083906f181899199a1a9b1b9c1cb0b131b232b360811b8282061a83530491821561321e579190826131e1565b6131e6565b91600101916131ca565b91906064600291049101916131bf565b600491939204910191386131b4565b600891939204910191386131a7565b60109193920491019138613198565b60209193920491019138613186565b60409350810491503861316d565b9161329181612e16565b1561329b57505090565b81926132ac6040926105199461348f565b93825194859183516132c6816020968780880191016104c0565b83016f3d913a3930b4ba2fba3cb832911d101160811b858201526132f382518093876030850191016104c0565b016c111610113b30b63ab2911d101160991b603082015261331d8251809386603d850191016104c0565b0162089f4b60ea1b603d82015203908101845201826103ce565b6040519061334482610362565b60028252614e6f60f01b6020830152565b6040519061336282610362565b600382526259657360e81b6020830152565b81601f8201121561029e57805161338a816103fe565b9261339860405194856103ce565b8184526020828401011161029e5761051991602080850191016104c0565b9060208282031261029e5781516001600160401b03811161029e576105199201613374565b90602090818382031261029e5782516001600160401b039384821161029e570181601f8201121561029e5780519380851161035d578460051b9060405195613425868401886103ce565b865284808701928401019380851161029e57858401925b85841061344d575050505050505090565b835183811161029e578791613467848480948a0101613374565b81520193019261343c565b8051600110156110345760400190565b8051156110345760200190565b6134a061349a612fc3565b82612e58565b80156136d7575b156135155750600b546134e4916000916134c9906001600160a01b0316611c76565b604051808095819463028143ed60e01b835260048301610508565b03915afa908115612691576000916134fa575090565b610519913d8091833e61350d81836103ce565b8101906133b6565b61352061349a612fec565b1561359e5750600b5461355d91600091613542906001600160a01b0316611c76565b6040518080958194630481e68160e11b835260048301610508565b03915afa8015612691576135799160009161357d575b50613482565b5190565b613598913d8091833e61359081836103ce565b8101906133db565b38613573565b6135a961349a613012565b156136005750600b546135cb91600091613542906001600160a01b0316611c76565b03915afa801561269157613579916000916135e7575b50613472565b6135fa913d8091833e61359081836103ce565b386135e1565b61360b61349a613089565b80156136c6575b1561364f5750600b546134e491600091613634906001600160a01b0316611c76565b6040518080958194635d84387760e11b835260048301610508565b61365a61349a61311e565b156136975750600b546134e49160009161367c906001600160a01b0316611c76565b60405180809581946318a80a6960e31b835260048301610508565b6136a3906104b06130fb565b15610519576136b190612c66565b156136be57610519613355565b610519613337565b506136d261349a6130d4565b613612565b506136e361349a613062565b6134a7565b604051906136f582610398565b604082527f6768696a6b6c6d6e6f707172737475767778797a303132333435363738392b2f6040837f4142434445464748494a4b4c4d4e4f505152535455565758595a61626364656660208201520152565b600281901b91906001600160fe1b03811603610c1357565b8051156138445761376e6136e8565b61378a61378561377e8451612105565b6003900490565b613747565b9161379761258384612113565b92835280815182019060208501935b8282106137e8575050506003905106806001146137d7576002146137c8575090565b603d60f81b6000199091015290565b50613d3d60f01b6001199091015290565b90919360049060038094019384516001603f81818460121c16880101519260f893841b8652828282600c1c1689010151841b8387015282828260061c1689010151841b60028701521686010151901b90820152019391906137a6565b50610519611aa7565b612df961387b6103fc9260405192839163104c13eb60e21b60208401526020602484015260448301906104e3565b600080916020815191016a636f6e736f6c652e6c6f675afa50565b61387b6138c891612df96103fc94604051948593634b5c427760e01b60208601526040602486015260648501906104e3565b838103602319016044850152906104e356fea2646970667358221220dbb2ba19f8b954d37e1165fa2641f13bf6a52aaddeef3f3b246a25516112c62064736f6c63430008120033290decd9548b62a8d60345a988386fc84ba6bc95484008f6362f93160ef3e563b10e2d527612073b26eecdfd717e6a320cf44b4afac2b0732d9fcbe2b7fa0cf6",
  "linkReferences": {},
  "deployedLinkReferences": {}
}