{
  "_format": "hh-sol-artifact-1",
  "contractName": "ProofOfPassport",
  "sourceName": "contracts/ProofOfPassport.sol",
  "abi": [
    {
      "inputs": [
        {
          "internalType": "contract Groth16Verifier",
          "name": "v",
          "type": "address"
        },
        {
          "internalType": "contract Formatter",
          "name": "f",
          "type": "address"
        },
        {
          "internalType": "contract Registry",
          "name": "r",
          "type": "address"
        }
      ],
      "stateMutability": "nonpayable",
      "type": "constructor"
    },
    {
      "anonymous": false,
      "inputs": [
        {
          "indexed": true,
          "internalType": "address",
          "name": "owner",
          "type": "address"
        },
        {
          "indexed": true,
          "internalType": "address",
          "name": "approved",
          "type": "address"
        },
        {
          "indexed": true,
          "internalType": "uint256",
          "name": "tokenId",
          "type": "uint256"
        }
      ],
      "name": "Approval",
      "type": "event"
    },
    {
      "anonymous": false,
      "inputs": [
        {
          "indexed": true,
          "internalType": "address",
          "name": "owner",
          "type": "address"
        },
        {
          "indexed": true,
          "internalType": "address",
          "name": "operator",
          "type": "address"
        },
        {
          "indexed": false,
          "internalType": "bool",
          "name": "approved",
          "type": "bool"
        }
      ],
      "name": "ApprovalForAll",
      "type": "event"
    },
    {
      "anonymous": false,
      "inputs": [
        {
          "indexed": true,
          "internalType": "address",
          "name": "previousOwner",
          "type": "address"
        },
        {
          "indexed": true,
          "internalType": "address",
          "name": "newOwner",
          "type": "address"
        }
      ],
      "name": "OwnershipTransferred",
      "type": "event"
    },
    {
      "anonymous": false,
      "inputs": [
        {
          "indexed": true,
          "internalType": "address",
          "name": "from",
          "type": "address"
        },
        {
          "indexed": true,
          "internalType": "address",
          "name": "to",
          "type": "address"
        },
        {
          "indexed": true,
          "internalType": "uint256",
          "name": "tokenId",
          "type": "uint256"
        }
      ],
      "name": "Transfer",
      "type": "event"
    },
    {
      "inputs": [
        {
          "internalType": "address",
          "name": "to",
          "type": "address"
        },
        {
          "internalType": "uint256",
          "name": "tokenId",
          "type": "uint256"
        }
      ],
      "name": "approve",
      "outputs": [],
      "stateMutability": "nonpayable",
      "type": "function"
    },
    {
      "inputs": [
        {
          "internalType": "uint256",
          "name": "",
          "type": "uint256"
        }
      ],
      "name": "attributePositions",
      "outputs": [
        {
          "internalType": "string",
          "name": "name",
          "type": "string"
        },
        {
          "internalType": "uint256",
          "name": "start",
          "type": "uint256"
        },
        {
          "internalType": "uint256",
          "name": "end",
          "type": "uint256"
        },
        {
          "internalType": "uint256",
          "name": "index",
          "type": "uint256"
        }
      ],
      "stateMutability": "view",
      "type": "function"
    },
    {
      "inputs": [
        {
          "internalType": "address",
          "name": "owner",
          "type": "address"
        }
      ],
      "name": "balanceOf",
      "outputs": [
        {
          "internalType": "uint256",
          "name": "",
          "type": "uint256"
        }
      ],
      "stateMutability": "view",
      "type": "function"
    },
    {
      "inputs": [
        {
          "internalType": "uint256[3]",
          "name": "publicSignals",
          "type": "uint256[3]"
        }
      ],
      "name": "fieldElementsToBytes",
      "outputs": [
        {
          "internalType": "bytes",
          "name": "",
          "type": "bytes"
        }
      ],
      "stateMutability": "pure",
      "type": "function"
    },
    {
      "inputs": [],
      "name": "formatter",
      "outputs": [
        {
          "internalType": "contract Formatter",
          "name": "",
          "type": "address"
        }
      ],
      "stateMutability": "view",
      "type": "function"
    },
    {
      "inputs": [
        {
          "internalType": "uint256",
          "name": "tokenId",
          "type": "uint256"
        }
      ],
      "name": "getApproved",
      "outputs": [
        {
          "internalType": "address",
          "name": "",
          "type": "address"
        }
      ],
      "stateMutability": "view",
      "type": "function"
    },
    {
      "inputs": [
        {
          "internalType": "uint256[6]",
          "name": "dateNum",
          "type": "uint256[6]"
        }
      ],
      "name": "getCurrentTimestamp",
      "outputs": [
        {
          "internalType": "uint256",
          "name": "",
          "type": "uint256"
        }
      ],
      "stateMutability": "view",
      "type": "function"
    },
    {
      "inputs": [
        {
          "internalType": "uint256",
          "name": "_tokenId",
          "type": "uint256"
        }
      ],
      "name": "getDateOfBirthOf",
      "outputs": [
        {
          "internalType": "string",
          "name": "",
          "type": "string"
        }
      ],
      "stateMutability": "view",
      "type": "function"
    },
    {
      "inputs": [
        {
          "internalType": "uint256",
          "name": "_tokenId",
          "type": "uint256"
        }
      ],
      "name": "getExpiryDateOf",
      "outputs": [
        {
          "internalType": "string",
          "name": "",
          "type": "string"
        }
      ],
      "stateMutability": "view",
      "type": "function"
    },
    {
      "inputs": [
        {
          "internalType": "uint256",
          "name": "_tokenId",
          "type": "uint256"
        }
      ],
      "name": "getGenderOf",
      "outputs": [
        {
          "internalType": "string",
          "name": "",
          "type": "string"
        }
      ],
      "stateMutability": "view",
      "type": "function"
    },
    {
      "inputs": [
        {
          "internalType": "uint256",
          "name": "_tokenId",
          "type": "uint256"
        }
      ],
      "name": "getIssuingStateOf",
      "outputs": [
        {
          "internalType": "string",
          "name": "",
          "type": "string"
        }
      ],
      "stateMutability": "view",
      "type": "function"
    },
    {
      "inputs": [
        {
          "internalType": "uint256",
          "name": "_tokenId",
          "type": "uint256"
        }
      ],
      "name": "getNameOf",
      "outputs": [
        {
          "internalType": "string",
          "name": "",
          "type": "string"
        }
      ],
      "stateMutability": "view",
      "type": "function"
    },
    {
      "inputs": [
        {
          "internalType": "uint256",
          "name": "_tokenId",
          "type": "uint256"
        }
      ],
      "name": "getNationalityOf",
      "outputs": [
        {
          "internalType": "string",
          "name": "",
          "type": "string"
        }
      ],
      "stateMutability": "view",
      "type": "function"
    },
    {
      "inputs": [
        {
          "internalType": "uint256",
          "name": "_tokenId",
          "type": "uint256"
        }
      ],
      "name": "getOlderThanOf",
      "outputs": [
        {
          "internalType": "string",
          "name": "",
          "type": "string"
        }
      ],
      "stateMutability": "view",
      "type": "function"
    },
    {
      "inputs": [
        {
          "internalType": "uint256",
          "name": "_tokenId",
          "type": "uint256"
        }
      ],
      "name": "getPassportNumberOf",
      "outputs": [
        {
          "internalType": "string",
          "name": "",
          "type": "string"
        }
      ],
      "stateMutability": "view",
      "type": "function"
    },
    {
      "inputs": [
        {
          "internalType": "address",
          "name": "owner",
          "type": "address"
        },
        {
          "internalType": "address",
          "name": "operator",
          "type": "address"
        }
      ],
      "name": "isApprovedForAll",
      "outputs": [
        {
          "internalType": "bool",
          "name": "",
          "type": "bool"
        }
      ],
      "stateMutability": "view",
      "type": "function"
    },
    {
      "inputs": [
        {
          "internalType": "uint256",
          "name": "_tokenId",
          "type": "uint256"
        }
      ],
      "name": "isExpired",
      "outputs": [
        {
          "internalType": "bool",
          "name": "",
          "type": "bool"
        }
      ],
      "stateMutability": "view",
      "type": "function"
    },
    {
      "inputs": [
        {
          "internalType": "uint256[2]",
          "name": "a",
          "type": "uint256[2]"
        },
        {
          "internalType": "uint256[2][2]",
          "name": "b",
          "type": "uint256[2][2]"
        },
        {
          "internalType": "uint256[2]",
          "name": "c",
          "type": "uint256[2]"
        },
        {
          "internalType": "uint256[12]",
          "name": "inputs",
          "type": "uint256[12]"
        }
      ],
      "name": "mint",
      "outputs": [],
      "stateMutability": "nonpayable",
      "type": "function"
    },
    {
      "inputs": [],
      "name": "name",
      "outputs": [
        {
          "internalType": "string",
          "name": "",
          "type": "string"
        }
      ],
      "stateMutability": "view",
      "type": "function"
    },
    {
      "inputs": [
        {
          "internalType": "uint256",
          "name": "",
          "type": "uint256"
        }
      ],
      "name": "nullifiers",
      "outputs": [
        {
          "internalType": "bool",
          "name": "",
          "type": "bool"
        }
      ],
      "stateMutability": "view",
      "type": "function"
    },
    {
      "inputs": [],
      "name": "owner",
      "outputs": [
        {
          "internalType": "address",
          "name": "",
          "type": "address"
        }
      ],
      "stateMutability": "view",
      "type": "function"
    },
    {
      "inputs": [
        {
          "internalType": "uint256",
          "name": "tokenId",
          "type": "uint256"
        }
      ],
      "name": "ownerOf",
      "outputs": [
        {
          "internalType": "address",
          "name": "",
          "type": "address"
        }
      ],
      "stateMutability": "view",
      "type": "function"
    },
    {
      "inputs": [],
      "name": "registry",
      "outputs": [
        {
          "internalType": "contract Registry",
          "name": "",
          "type": "address"
        }
      ],
      "stateMutability": "view",
      "type": "function"
    },
    {
      "inputs": [],
      "name": "renounceOwnership",
      "outputs": [],
      "stateMutability": "nonpayable",
      "type": "function"
    },
    {
      "inputs": [
        {
          "internalType": "address",
          "name": "from",
          "type": "address"
        },
        {
          "internalType": "address",
          "name": "to",
          "type": "address"
        },
        {
          "internalType": "uint256",
          "name": "tokenId",
          "type": "uint256"
        }
      ],
      "name": "safeTransferFrom",
      "outputs": [],
      "stateMutability": "nonpayable",
      "type": "function"
    },
    {
      "inputs": [
        {
          "internalType": "address",
          "name": "from",
          "type": "address"
        },
        {
          "internalType": "address",
          "name": "to",
          "type": "address"
        },
        {
          "internalType": "uint256",
          "name": "tokenId",
          "type": "uint256"
        },
        {
          "internalType": "bytes",
          "name": "data",
          "type": "bytes"
        }
      ],
      "name": "safeTransferFrom",
      "outputs": [],
      "stateMutability": "nonpayable",
      "type": "function"
    },
    {
      "inputs": [
        {
          "internalType": "address",
          "name": "operator",
          "type": "address"
        },
        {
          "internalType": "bool",
          "name": "approved",
          "type": "bool"
        }
      ],
      "name": "setApprovalForAll",
      "outputs": [],
      "stateMutability": "nonpayable",
      "type": "function"
    },
    {
      "inputs": [
        {
          "internalType": "uint256[12]",
          "name": "input",
          "type": "uint256[12]"
        }
      ],
      "name": "sliceFirstThree",
      "outputs": [
        {
          "internalType": "uint256[3]",
          "name": "",
          "type": "uint256[3]"
        }
      ],
      "stateMutability": "pure",
      "type": "function"
    },
    {
      "inputs": [
        {
          "internalType": "bytes4",
          "name": "interfaceId",
          "type": "bytes4"
        }
      ],
      "name": "supportsInterface",
      "outputs": [
        {
          "internalType": "bool",
          "name": "",
          "type": "bool"
        }
      ],
      "stateMutability": "view",
      "type": "function"
    },
    {
      "inputs": [],
      "name": "symbol",
      "outputs": [
        {
          "internalType": "string",
          "name": "",
          "type": "string"
        }
      ],
      "stateMutability": "view",
      "type": "function"
    },
    {
      "inputs": [
        {
          "internalType": "uint256",
          "name": "index",
          "type": "uint256"
        }
      ],
      "name": "tokenByIndex",
      "outputs": [
        {
          "internalType": "uint256",
          "name": "",
          "type": "uint256"
        }
      ],
      "stateMutability": "view",
      "type": "function"
    },
    {
      "inputs": [
        {
          "internalType": "address",
          "name": "owner",
          "type": "address"
        },
        {
          "internalType": "uint256",
          "name": "index",
          "type": "uint256"
        }
      ],
      "name": "tokenOfOwnerByIndex",
      "outputs": [
        {
          "internalType": "uint256",
          "name": "",
          "type": "uint256"
        }
      ],
      "stateMutability": "view",
      "type": "function"
    },
    {
      "inputs": [
        {
          "internalType": "uint256",
          "name": "_tokenId",
          "type": "uint256"
        }
      ],
      "name": "tokenURI",
      "outputs": [
        {
          "internalType": "string",
          "name": "",
          "type": "string"
        }
      ],
      "stateMutability": "view",
      "type": "function"
    },
    {
      "inputs": [],
      "name": "totalSupply",
      "outputs": [
        {
          "internalType": "uint256",
          "name": "",
          "type": "uint256"
        }
      ],
      "stateMutability": "view",
      "type": "function"
    },
    {
      "inputs": [
        {
          "internalType": "address",
          "name": "from",
          "type": "address"
        },
        {
          "internalType": "address",
          "name": "to",
          "type": "address"
        },
        {
          "internalType": "uint256",
          "name": "tokenId",
          "type": "uint256"
        }
      ],
      "name": "transferFrom",
      "outputs": [],
      "stateMutability": "nonpayable",
      "type": "function"
    },
    {
      "inputs": [
        {
          "internalType": "address",
          "name": "newOwner",
          "type": "address"
        }
      ],
      "name": "transferOwnership",
      "outputs": [],
      "stateMutability": "nonpayable",
      "type": "function"
    },
    {
      "inputs": [],
      "name": "verifier",
      "outputs": [
        {
          "internalType": "contract Groth16Verifier",
          "name": "",
          "type": "address"
        }
      ],
      "stateMutability": "view",
      "type": "function"
    }
  ],
  "bytecode": "0x60a0346200071757601f62003f4338819003918201601f191683019291906001600160401b038411838510176200060f578160609284926040968752833981010312620007175780516001600160a01b038116810362000717576020820151916001600160a01b03831683036200071757830151906001600160a01b038216820362000717576200008f6200073c565b600f81526e141c9bdbd993d994185cdcdc1bdc9d608a1b90816020820152620000b76200073c565b600f815260208101929092528051906001600160401b0382116200060f5760005490600182811c921680156200070c575b6020831014620005ee5781601f849311620006a9575b50602090601f8311600114620006315760009262000625575b50508160011b916000199060031b1c1916176000555b8051906001600160401b0382116200060f5760015490600182811c9216801562000604575b6020831014620005ee5781601f8493116200058a575b50602090601f8311600114620005105760009262000504575b50508160011b916000199060031b1c1916176001555b620001a2336200075c565b608052600b80546001600160a01b039384166001600160a01b031991821617909155600c80549290931691161790556200021f620001df6200071c565b620001e96200073c565b600d81526c69737375696e675f737461746560981b602082015281526002602082015260048382015260006060820152620007a5565b620002646200022d6200071c565b620002376200073c565b60048152636e616d6560e01b6020820152815260056020820152602b8382015260016060820152620007a5565b620002b4620002726200071c565b6200027c6200073c565b600f81526e3830b9b9b837b93a2fb73ab6b132b960891b60208201528152602c602082015260348382015260026060820152620007a5565b62000300620002c26200071c565b620002cc6200073c565b600b81526a6e6174696f6e616c69747960a81b602082015281526036602082015260388382015260036060820152620007a5565b6200034e6200030e6200071c565b620003186200073c565b600d81526c0c8c2e8cabedeccbec4d2e4e8d609b1b6020820152815260396020820152603e8382015260046060820152620007a5565b620003936200035c6200071c565b620003666200073c565b600681526533b2b73232b960d11b60208201528152826020820152828082015260056060820152620007a5565b620003df620003a16200071c565b620003ab6200073c565b600b81526a6578706972795f6461746560a81b602082015281526041602082015260468382015260066060820152620007a5565b6200042a620003ed6200071c565b620003f76200073c565b600a81526937b63232b92fba3430b760b11b602082015281526058602082015260598382015260076060820152620007a5565b600a54336001600160a01b0390911603620004c15733156200046f5762000451336200075c565b5161356f908162000994823960805181818161094d01526125f10152f35b5162461bcd60e51b815260206004820152602660248201527f4f776e61626c653a206e6577206f776e657220697320746865207a65726f206160448201526564647265737360d01b6064820152608490fd5b5162461bcd60e51b815260206004820181905260248201527f4f776e61626c653a2063616c6c6572206973206e6f7420746865206f776e65726044820152606490fd5b01519050388062000181565b6001600090815260008051602062003f238339815191529350601f198516905b81811062000571575090846001959493921062000557575b505050811b0160015562000197565b015160001960f88460031b161c1916905538808062000548565b9293602060018192878601518155019501930162000530565b600160005290915060008051602062003f23833981519152601f840160051c81019160208510620005e3575b90601f859493920160051c01905b818110620005d3575062000168565b60008155849350600101620005c4565b9091508190620005b6565b634e487b7160e01b600052602260045260246000fd5b91607f169162000152565b634e487b7160e01b600052604160045260246000fd5b01519050388062000117565b600080805260008051602062003f038339815191529350601f198516905b81811062000690575090846001959493921062000676575b505050811b016000556200012d565b015160001960f88460031b161c1916905538808062000667565b929360206001819287860151815501950193016200064f565b6000805290915060008051602062003f03833981519152601f840160051c8101916020851062000701575b90601f859493920160051c01905b818110620006f15750620000fe565b60008155849350600101620006e2565b9091508190620006d4565b91607f1691620000e8565b600080fd5b60405190608082016001600160401b038111838210176200060f57604052565b60408051919082016001600160401b038111838210176200060f57604052565b600a80546001600160a01b039283166001600160a01b0319821681179092559091167f8be0079c531659141344cd1fd0a4f28419497f9722a3daafe3b4186f6b6457e0600080a3565b90600e54680100000000000000008110156200060f5760019283820180600e558210156200097d57600e600090815281518051909560029490941b7fbb7b4a454dc3493923482f07822329ed19e8244eff582cc204f8554c3620c3fd019391602091906001600160401b038211620009695785548481811c911680156200095e575b848210146200094a57601f8111620008ff575b508290601f8311600114620008945791809160039798996060979695949262000888575b505060001982881b1c191690831b1786555b82015190850155604081015160028501550151910155565b0151905038806200085e565b90601f198316878352848320925b818110620008e95750918391600398999a879695606099989510620008d0575b505050811b01865562000870565b0151600019838a1b60f8161c19169055388080620008c2565b8a830151845592860192918501918501620008a2565b868252838220601f840160051c8101918585106200093f575b601f0160051c019085905b828110620009335750506200083a565b83815501859062000923565b909150819062000918565b634e487b7160e01b82526022600452602482fd5b90607f169062000827565b634e487b7160e01b81526041600452602490fd5b634e487b7160e01b600052603260045260246000fdfe6080604052600436101561001257600080fd5b60003560e01c806301ffc9a71461026757806306fdde03146102625780630702032d1461025d578063081812fc14610258578063095ea7b31461025357806318160ddd1461024e5780631a32c7021461024957806323b872dd14610244578063245d109e1461023f5780632b7ac3f31461023a5780632cd8a74a146102355780632f745c59146102305780633a41515f1461022b57806342842e0e146102265780634f6ccce7146102215780636352211e1461021c57806370a0823114610217578063715018a61461021257806375e1b17e1461020d5780637b1039991461020857806385d2b28d146102035780638da5cb5b146101fe57806393c9707d146101f957806395d89b41146101f4578063a22cb465146101ef578063b04e3a3b146101ea578063b4b45db3146101e5578063b88d4fde146101e0578063c87b56dd146101db578063d21e82ab146101d6578063d9548e53146101d1578063dc54daf0146101cc578063e985e9c5146101c7578063f03637ca146101c2578063f2fde38b146101bd578063f6809cc5146101b85763fcf27f60146101b357600080fd5b611a16565b6119ea565b611921565b6118f2565b611895565b61183e565b611816565b6117e5565b6110ee565b611066565b61101c565b610fae565b610d8f565b610ce0565b610cb1565b610c88565b610c59565b610c30565b610c01565b610ba3565b610b78565b610b5a565b610aaf565b610a87565b610a5e565b6109ab565b61097c565b610937565b6108b9565b6107c8565b610710565b6105bf565b6104e9565b61048d565b61044a565b610367565b610283565b6001600160e01b031981160361027e57565b600080fd5b3461027e57602036600319011261027e5760206004356102a28161026c565b63ffffffff60e01b1663780e9d6360e01b81149081156102c8575b506040519015158152f35b6380ac58cd60e01b8114915081156102fa575b81156102e9575b50386102bd565b6301ffc9a760e01b149050386102e2565b635b5e139f60e01b811491506102db565b60005b83811061031e5750506000910152565b818101518382015260200161030e565b906020916103478151809281855285808601910161030b565b601f01601f1916010190565b90602061036492818152019061032e565b90565b3461027e57600080600319360112610447576040519080805461038981610ed0565b8085529160019180831690811561041d57506001146103c3575b6103bf856103b38187038261069c565b60405191829182610353565b0390f35b80809450527f290decd9548b62a8d60345a988386fc84ba6bc95484008f6362f93160ef3e5635b8284106104055750505081016020016103b3826103bf6103a3565b805460208587018101919091529093019281016103ea565b8695506103bf969350602092506103b394915060ff191682840152151560051b82010192936103a3565b80fd5b3461027e57602036600319011261027e57600435600052600f6020526103bf6104796003604060002001610f0a565b60405191829160208352602083019061032e565b3461027e57602036600319011261027e5760206104ab600435611c1d565b6040516001600160a01b039091168152f35b600435906001600160a01b038216820361027e57565b602435906001600160a01b038216820361027e57565b3461027e57604036600319011261027e576105026104bd565b60243561050e81611b88565b916001600160a01b038084169082168114610570576105409361053b913314908115610542575b50611bab565b611fa5565b005b6001600160a01b0316600090815260056020908152604080832033845290915290205460ff16905038610535565b60405162461bcd60e51b815260206004820152602160248201527f4552433732313a20617070726f76616c20746f2063757272656e74206f776e656044820152603960f91b6064820152608490fd5b3461027e57600036600319011261027e576020600854604051908152f35b634e487b7160e01b600052604160045260246000fd5b602081019081106001600160401b0382111761060e57604052565b6105dd565b61010081019081106001600160401b0382111761060e57604052565b61018081019081106001600160401b0382111761060e57604052565b604081019081106001600160401b0382111761060e57604052565b606081019081106001600160401b0382111761060e57604052565b60c081019081106001600160401b0382111761060e57604052565b90601f801991011681019081106001600160401b0382111761060e57604052565b604051906106ca82610666565b565b80610123121561027e57604051906106e38261062f565b8161028491821161027e57610104905b8282106107005750505090565b81358152602091820191016106f3565b3461027e5761018036600319011261027e57366023121561027e576040516107378161062f565b6101848136821161027e576004905b8282106107835761075684612af2565b60405190600090825b6003831061076c57606084f35b60019082518152602080910192019201919061075f565b8135815260209182019101610746565b606090600319011261027e576001600160a01b0390600435828116810361027e5791602435908116810361027e579060443590565b3461027e576105406107d936610793565b916107ec6107e78433611d6b565b611c5b565b611e3d565b806023121561027e57604051906108078261064b565b81604491821161027e576004905b8282106108225750505090565b8135815260209182019101610815565b8060e3121561027e57604051906108488261064b565b8161010491821161027e5760c4905b8282106108645750505090565b8135815260209182019101610857565b9080601f8301121561027e576040519161088d8361064b565b82906040810192831161027e57905b8282106108a95750505090565b813581526020918201910161089c565b3461027e5761028036600319011261027e576108d4366107f1565b366063121561027e5760409081516108eb8161064b565b60c48136821161027e576044905b82821061091e57610540858561090e36610832565b90610918366106cc565b926125c2565b6020869161092c3685610874565b8152019101906108f9565b3461027e57600036600319011261027e576040517f00000000000000000000000000000000000000000000000000000000000000006001600160a01b03168152602090f35b3461027e57602036600319011261027e57600435600052600f6020526103bf6104796004604060002001610f0a565b3461027e57604036600319011261027e576109c46104bd565b602435906109d181611ac5565b821015610a05576001600160a01b031660009081526006602090815260408083209383529281529082902054915191825290f35b60405162461bcd60e51b815260206004820152602b60248201527f455243373231456e756d657261626c653a206f776e657220696e646578206f7560448201526a74206f6620626f756e647360a81b6064820152608490fd5b3461027e57600036600319011261027e57600b546040516001600160a01b039091168152602090f35b3461027e57610540610a9836610793565b9060405192610aa6846105f3565b60008452611cd0565b3461027e57602036600319011261027e57600435600854811015610b005760086000527ff3f7a9fe364faab93b216da50a3214154f22a0a2b415b23a84c8169e8b636ee30154604051908152602090f35b60405162461bcd60e51b815260206004820152602c60248201527f455243373231456e756d657261626c653a20676c6f62616c20696e646578206f60448201526b7574206f6620626f756e647360a01b6064820152608490fd5b3461027e57602036600319011261027e5760206104ab600435611b88565b3461027e57602036600319011261027e576020610b9b610b966104bd565b611ac5565b604051908152f35b3461027e5760008060031936011261044757610bbd611a6d565b600a80546001600160a01b0319811690915581906001600160a01b03167f8be0079c531659141344cd1fd0a4f28419497f9722a3daafe3b4186f6b6457e08280a380f35b3461027e57602036600319011261027e57600435600052600f6020526103bf6104796006604060002001610f0a565b3461027e57600036600319011261027e57600c546040516001600160a01b039091168152602090f35b3461027e57602036600319011261027e57600435600052600f6020526103bf6104796007604060002001610f0a565b3461027e57600036600319011261027e57600a546040516001600160a01b039091168152602090f35b3461027e57602036600319011261027e57600435600052600f6020526103bf6104796005604060002001610f0a565b3461027e576000806003193601126104475760405190806001805491610d0583610ed0565b8086529282811690811561041d5750600114610d2b576103bf856103b38187038261069c565b92508083527fb10e2d527612073b26eecdfd717e6a320cf44b4afac2b0732d9fcbe2b7fa0cf65b828410610d6d5750505081016020016103b3826103bf6103a3565b80546020858701810191909152909301928101610d52565b8015150361027e57565b3461027e57604036600319011261027e57610da86104bd565b602435610db481610d85565b6001600160a01b03821691338314610e365781610df3610e049233600052600560205260406000209060018060a01b0316600052602052604060002090565b9060ff801983541691151516179055565b604051901515815233907f17307eab39ab6107e8899845ad3d59bd9653f200f220920489ca2b5937696c3190602090a3005b60405162461bcd60e51b815260206004820152601960248201527f4552433732313a20617070726f766520746f2063616c6c6572000000000000006044820152606490fd5b634e487b7160e01b600052603260045260246000fd5b600e54811015610ecb57600e60005260021b7fbb7b4a454dc3493923482f07822329ed19e8244eff582cc204f8554c3620c3fd0190600090565b610e7b565b90600182811c92168015610f00575b6020831014610eea57565b634e487b7160e01b600052602260045260246000fd5b91607f1691610edf565b9060405191826000825492610f1e84610ed0565b908184526001948581169081600014610f8b5750600114610f48575b50506106ca9250038361069c565b9093915060005260209081600020936000915b818310610f735750506106ca93508201013880610f3a565b85548884018501529485019487945091830191610f5b565b9150506106ca94506020925060ff191682840152151560051b8201013880610f3a565b3461027e57602036600319011261027e57600435600e5481101561027e57610fd861100891610e91565b50610fe281610f0a565b90600181015490600360028201549101549060405194859460808652608086019061032e565b926020850152604084015260608301520390f35b3461027e57602036600319011261027e57600435600052600f6020526103bf6104796002604060002001610f0a565b6001600160401b03811161060e57601f01601f191660200190565b3461027e57608036600319011261027e5761107f6104bd565b6110876104d3565b606435916001600160401b03831161027e573660238401121561027e578260040135916110b38361104b565b926110c1604051948561069c565b808452366024828701011161027e5760208160009260246105409801838801378501015260443591611cd0565b3461027e57602036600319011261027e5760048035600081815260026020526040902054909190611129906001600160a01b03161515612e58565b61114561114083600052600f602052604060002090565b612ebc565b91611159835151611154612f07565b6134df565b600b546111a79061117a906001600160a01b03165b6001600160a01b031690565b91611186855160200190565b5194604094855196630481e68160e11b885287806000968793858301610353565b0381885afa93841561175857809781956117bb575b50825151958751968288806111de63028143ed60e01b94858352888301610353565b0381855afa97881561175857839861179b575b50611215908386519160608c840151930151908c5194859283928352898301610353565b0381865afa91821561175857849261177f575b50855160800151938a5181818061124c635d84387760e11b998a83528b8301610353565b0381885afa94851561175857611289978d92849761175d575b50908392918a519860c060a08b01519a015193519a8b948593849384528301610353565b03915afa958615611758578196611734575b506112a588613190565b159050611726576112b4613008565b955b5160e00151966112c59061303e565b8a51707b202261747472696275746573223a205b60781b60208201529b8c9a91999160318c017f7b2274726169745f74797065223a202249737375696e67205374617465222c20815269113b30b63ab2911d101160b11b6020820152602a0161132d91613027565b7f227d2c7b2274726169745f74797065223a202246697273744e616d65222c20228152683b30b63ab2911d101160b91b602082015260290161136e91613027565b7f227d2c7b2274726169745f74797065223a20224c6173744e616d65222c20227681526730b63ab2911d101160c11b60208201526028016113ae91613027565b7f227d2c7b2274726169745f74797065223a202250617373706f7274204e756d6281526e32b9111610113b30b63ab2911d101160891b6020820152602f016113f591613027565b7f227d2c7b2274726169745f74797065223a20224e6174696f6e616c697479222c81526a10113b30b63ab2911d101160a91b6020820152602b0161143891613027565b7f227d2c7b2274726169745f74797065223a202244617465206f6620626972746881526c111610113b30b63ab2911d101160991b6020820152602d0161147d91613027565b7f227d2c7b2274726169745f74797065223a202247656e646572222c202276616c8152653ab2911d101160d11b60208201526026016114bb91613027565b7f227d2c7b2274726169745f74797065223a20224578706972792064617465222c81526a10113b30b63ab2911d101160a91b6020820152602b016114fe91613027565b7f227d2c7b2274726169745f74797065223a202245787069726564222c20227661815266363ab2911d101160c91b602082015260270161153d91613027565b7f227d2c7b2274726169745f74797065223a20224f6c646572205468616e222c20815269113b30b63ab2911d101160b11b6020820152602a0161157f91613027565b61227d60f01b815260020161174b60f21b81526002017f226465736372697074696f6e223a202250726f6f66206f662050617373706f7281527f742067756172616e7465657320706f7373657373696f6e206f6620612076616c60208201527f69642070617373706f72742e222c2265787465726e616c5f75726c223a20226860408201527f747470733a2f2f6769746875622e636f6d2f7a6b2d70617373706f72742f707260608201527f6f6f662d6f662d70617373706f7274222c22696d616765223a2022687474707360808201527f3a2f2f692e696d6775722e636f6d2f396b766574696a2e706e67222c226e616d60a08201527f65223a202250726f6f66206f662050617373706f72742023000000000000000060c082015260d8016116a891613027565b61227d60f01b81526002010391601f199283810182526116c8908261069c565b6116d1906133f1565b81517f646174613a6170706c69636174696f6e2f6a736f6e3b6261736536342c000000602082015292908390603d820161170a91613027565b03908101835261171a908361069c565b516103bf819282610353565b61172e612fea565b956112b6565b6117519196503d8088833e611749818361069c565b810190612fc5565b943861129b565b61204f565b849392919750611776903d8086833e611749818361069c565b96909192611265565b6117949192503d8086833e611749818361069c565b9038611228565b6112159198506117b4903d8086833e611749818361069c565b97906111f1565b9094506117db9197503d8086833e6117d3818361069c565b810190612f82565b96909693386111bc565b3461027e57602036600319011261027e57600435600052600d602052602060ff604060002054166040519015158152f35b3461027e57602036600319011261027e576020611834600435613190565b6040519015158152f35b3461027e57606036600319011261027e57366023121561027e5760405161186481610666565b60648136821161027e576004905b828210611885576103bf61047985612a32565b8135815260209182019101611872565b3461027e57604036600319011261027e57602060ff6118e66118b56104bd565b6118bd6104d3565b6001600160a01b0391821660009081526005865260408082209290931681526020919091522090565b54166040519015158152f35b3461027e57602036600319011261027e57600435600052600f6020526103bf6104796001604060002001610f0a565b3461027e57602036600319011261027e5761193a6104bd565b611942611a6d565b6001600160a01b0390811690811561199657600a54826bffffffffffffffffffffffff60a01b821617600a55167f8be0079c531659141344cd1fd0a4f28419497f9722a3daafe3b4186f6b6457e0600080a3005b60405162461bcd60e51b815260206004820152602660248201527f4f776e61626c653a206e6577206f776e657220697320746865207a65726f206160448201526564647265737360d01b6064820152608490fd5b3461027e57602036600319011261027e57600435600052600f6020526103bf6104796040600020610f0a565b3461027e5760c036600319011261027e57366023121561027e57604051611a3c81610681565b60c48136821161027e576020926004905b838210611a5e5784610b9b84613292565b81358152908401908401611a4d565b600a546001600160a01b03163303611a8157565b606460405162461bcd60e51b815260206004820152602060248201527f4f776e61626c653a2063616c6c6572206973206e6f7420746865206f776e65726044820152fd5b6001600160a01b03168015611ae557600052600360205260406000205490565b60405162461bcd60e51b815260206004820152602960248201527f4552433732313a2061646472657373207a65726f206973206e6f7420612076616044820152683634b21037bbb732b960b91b6064820152608490fd5b15611b4357565b60405162461bcd60e51b815260206004820152601860248201527f4552433732313a20696e76616c696420746f6b656e20494400000000000000006044820152606490fd5b6000908152600260205260409020546001600160a01b0316610364811515611b3c565b15611bb257565b60405162461bcd60e51b815260206004820152603d60248201527f4552433732313a20617070726f76652063616c6c6572206973206e6f7420746f60448201527f6b656e206f776e6572206f7220617070726f76656420666f7220616c6c0000006064820152608490fd5b600081815260026020526040902054611c40906001600160a01b03161515611b3c565b6000908152600460205260409020546001600160a01b031690565b15611c6257565b60405162461bcd60e51b815260206004820152602d60248201527f4552433732313a2063616c6c6572206973206e6f7420746f6b656e206f776e6560448201526c1c881bdc88185c1c1c9bdd9959609a1b6064820152608490fd5b60405190611cca826105f3565b60008252565b90611cf4939291611ce46107e78433611d6b565b611cef838383611e3d565b61208b565b15611cfb57565b60405162461bcd60e51b815280611d1460048201611d18565b0390fd5b60809060208152603260208201527f4552433732313a207472616e7366657220746f206e6f6e20455243373231526560408201527131b2b4bb32b91034b6b83632b6b2b73a32b960711b60608201520190565b6001600160a01b0380611d7d84611b88565b169281831692848414948515611db3575b50508315611d9d575b50505090565b611da991929350611c1d565b1614388080611d97565b60009081526005602090815260408083206001600160a01b03949094168352929052205460ff1693503880611d8e565b15611dea57565b60405162461bcd60e51b815260206004820152602560248201527f4552433732313a207472616e736665722066726f6d20696e636f72726563742060448201526437bbb732b960d91b6064820152608490fd5b611e6190611e4a84611b88565b6001600160a01b0382811693909182168414611de3565b8316928315611f5457611ed382611e7c8784611f2d96612ba8565b611e9285611e8c61116e8a611b88565b14611de3565b611eb9611ea9886000526004602052604060002090565b80546001600160a01b0319169055565b6001600160a01b0316600090815260036020526040902090565b80546000190190556001600160a01b038116600090815260036020526040902060018154019055611f0e856000526002602052604060002090565b80546001600160a01b0319166001600160a01b03909216919091179055565b7fddf252ad1be2c89b69c2b068fc378daa952ba7f163c4a11628f55a4df523b3ef600080a4565b60405162461bcd60e51b8152602060048201526024808201527f4552433732313a207472616e7366657220746f20746865207a65726f206164646044820152637265737360e01b6064820152608490fd5b600082815260046020526040902080546001600160a01b0319166001600160a01b0383161790556001600160a01b0380611fde84611b88565b169116907f8c5be1e5ebec7d5bd14f71427d1e84f3dd0314c0f7b2291e5b200ac8c7c3b925600080a4565b9081602091031261027e57516103648161026c565b6001600160a01b0391821681529116602082015260408101919091526080606082018190526103649291019061032e565b6040513d6000823e3d90fd5b3d15612086573d9061206c8261104b565b9161207a604051938461069c565b82523d6000602084013e565b606090565b92909190823b15612145576120be926020926000604051809681958294630a85bd0160e11b9a8b8552336004860161201e565b03926001600160a01b03165af160009181612115575b50612107576120e161205b565b805190816121025760405162461bcd60e51b815280611d1460048201611d18565b602001fd5b6001600160e01b0319161490565b61213791925060203d811161213e575b61212f818361069c565b810190612009565b90386120d4565b503d612125565b50505050600190565b9081602091031261027e575161036481610d85565b6000915b6002831061217457505050565b600190825181526020809101920192019190612167565b9194939290946121a083610280810197612163565b600060408481015b600283106121f05750505050906121c66101009260c0830190612163565b01906000915b600c83106121d957505050565b6001908251815260208091019201920191906121cc565b602082826122016001948851612163565b019401920191926121a8565b1561221457565b60405162461bcd60e51b815260206004820152600d60248201526c24b73b30b634b210283937b7b360991b6044820152606490fd5b90600c811015610ecb5760051b0190565b1561226157565b60405162461bcd60e51b8152602060048201526013602482015272125b9d985b1a59081b595c9adb19481c9bdbdd606a1b6044820152606490fd5b604051906122a982610681565b60c0368337565b634e487b7160e01b600052601160045260246000fd5b60001981146122d55760010190565b6122b0565b60060190816006116122d557565b906201518082018092116122d557565b90600182018092116122d557565b60300190816030116122d557565b90600282018092116122d557565b90602082018092116122d557565b906006811015610ecb5760051b0190565b6201517f198101919082116122d557565b919082039182116122d557565b1561236657565b60405162461bcd60e51b815260206004820152602a60248201527f43757272656e742064617465206973206e6f742077697468696e207468652076604482015269616c69642072616e676560b01b6064820152608490fd5b90604051608081018181106001600160401b0382111761060e576040526060600382946123ea81610f0a565b845260018101546020850152600281015460408501520154910152565b60405190608082018281106001600160401b0382111761060e57604052605a82526060366020840137565b9061243c8261104b565b612449604051918261069c565b828152809261245a601f199161104b565b0190602036910137565b908151811015610ecb570160200190565b6008821015610ecb570190600090565b90601f811161249357505050565b600091825260208220906020601f850160051c830194106124cf575b601f0160051c01915b8281106124c457505050565b8181556001016124b8565b90925082906124af565b909291926125ac5782516001600160401b03811161060e57612505816124ff8454610ed0565b84612485565b602080601f8311600114612541575081929394600092612536575b50508160011b916000199060031b1c1916179055565b015190503880612520565b90601f1983169561255785600052602060002090565b926000905b8882106125945750508360019596971061257b575b505050811b019055565b015160001960f88460031b161c19169055388080612571565b8060018596829496860151815501950193019061255c565b634e487b7160e01b600052600060045260246000fd5b6125ed9094939294836040968751938492839263465d607d60e11b845260209788966004860161218b565b03817f00000000000000000000000000000000000000000000000000000000000000006001600160a01b03165afa80156117585761263391600091612897575b5061220d565b600c5461267390829061264e906001600160a01b031661116e565b608085015190875180809581946306c8442b60e01b8352600483019190602083019252565b03915afa80156117585761268f9160009161286a575b5061225a565b61269761229c565b60005b6006811061283e57506126af6126cd91613292565b6126b842612341565b811015908161282b575b50949193929461235f565b60a0840151612741906127309061272b906126f0906001600160a01b031661116e565b966126fe6008548099612900565b6127266127196060830151600052600d602052604060002090565b805460ff19166001179055565b612af2565b612a32565b94600052600f602052604060002090565b9360005b600e548110156128235761276161275b82610e91565b506123be565b958387019586519461278861278361277e848c0198895190612352565b6122f8565b612432565b9686515b895181116127d757806127b36127a56127d2938a612464565b516001600160f81b03191690565b6127cc6127c18b5184612352565b9160001a918c612464565b536122c6565b61278c565b509750976128149195506127fa6128199493976127f4858a612475565b906124d9565b5161280e6128088489612475565b50610f0a565b906134df565b6122c6565b9491939294612745565b505050915050565b9050612836426122e8565b1015386126c2565b8061285461284e612865936122da565b86612249565b5161285f8285612330565b526122c6565b61269a565b61288a9150833d8511612890575b612882818361069c565b81019061214e565b38612689565b503d612878565b6128ae9150833d851161289057612882818361069c565b3861262d565b156128bb57565b60405162461bcd60e51b815260206004820152601c60248201527f4552433732313a20746f6b656e20616c7265616479206d696e746564000000006044820152606490fd5b6001600160a01b0381169081156129cc576000838152600260205260409020546129a4919061293b906001600160a01b031615155b156128b4565b61294484612d1d565b61294e8482612ce5565b600084815260026020526040902054612971906001600160a01b03161515612935565b6001600160a01b038116600090815260036020526040902060018154019055611f0e846000526002602052604060002090565b60007fddf252ad1be2c89b69c2b068fc378daa952ba7f163c4a11628f55a4df523b3ef8180a4565b606460405162461bcd60e51b815260206004820152602060248201527f4552433732313a206d696e7420746f20746865207a65726f20616464726573736044820152fd5b906003811015610ecb5760051b0190565b60ff1660ff81146122d55760010190565b612a3a6106bd565b601f815290601f6020830152601c6040830152612a55612407565b91600091825b60038110612a6a575050505090565b909294612a7a8285969496612a10565b51906000915b612a9d612a97612a90868a612a10565b5160ff1690565b60ff1690565b60ff84161015612adc57612ad690612ab4896122c6565b98612acc60ff60f81b8360f81b1660001a9188612464565b5360081c92612a21565b91612a80565b50959391612aed91509492946122c6565b612a5b565b906060604051612b0181610666565b369037604051612b1081610666565b606036823760005b60038110612b2557509150565b80612b33612b3e9286612249565b5161285f8285612a10565b612b18565b15612b4a57565b60405162461bcd60e51b815260206004820152603060248201527f43616e6e6f74207472616e73666572202d2050726f6f66206f6620506173737060448201526f1bdc9d081a5cc81cdbdd5b189bdd5b9960821b6064820152608490fd5b916001600160a01b0380841680159392918415612c02576106ca9550612bcd83612d1d565b831680612be5575050612be09150612d7a565b612b43565b03612bf2575b5050612b43565b612bfb91612ce5565b3880612beb565b8084168203612c16575b6106ca9550612bcd565b612c1f86611ac5565b6000198101969087116122d5576106ca96612c7c60009286845260076020526040842054838103612c8c575b5083612c61886000526007602052604060002090565b556001600160a01b0316600090815260066020526040902090565b9082526020526040812055612c0c565b868552600660205260408520848652602052612cde6040862054612cc28460018060a01b03166000526006602052604060002090565b8388526020528060408820556000526007602052604060002090565b5538612c4b565b604090612cf181611ac5565b9260009160018060a01b0316825260066020528282208483526020528083832055815260076020522055565b600854816000526009602052806040600020556801000000000000000081101561060e576001810180600855811015610ecb5760086000527ff3f7a9fe364faab93b216da50a3214154f22a0a2b415b23a84c8169e8b636ee30155565b60088054600019928382018281116122d5576000928284526009602052806040852054921015610ecb578484527ff3f7a9fe364faab93b216da50a3214154f22a0a2b415b23a84c8169e8b636ee2928382015491831015610ecb578492612e16612e279388865280837ff3f7a9fe364faab93b216da50a3214154f22a0a2b415b23a84c8169e8b636ee301556000526009602052604060002090565b556000526009602052604060002090565b558254938415612e445784019380851015610ecb57838352015555565b634e487b7160e01b83526031600452602483fd5b15612e5f57565b60405162461bcd60e51b815260206004820152602f60248201527f4552433732314d657461646174613a2055524920717565727920666f72206e6f60448201526e3732bc34b9ba32b73a103a37b5b2b760891b6064820152608490fd5b9060405191612eca836105f3565b8260405191612ed883610613565b6000835b60088210612eea5750505052565b600160208192612ef986610f0a565b815201930191019091612edc565b60405190612f148261064b565b601982527f49737375696e6720737461746520696e20746f6b656e555249000000000000006020830152565b81601f8201121561027e578051612f568161104b565b92612f64604051948561069c565b8184526020828401011161027e57610364916020808501910161030b565b91909160408184031261027e578051926001600160401b039384811161027e5781612fae918401612f40565b93602083015190811161027e576103649201612f40565b9060208282031261027e5781516001600160401b03811161027e576103649201612f40565b60405190612ff78261064b565b60028252614e6f60f01b6020830152565b604051906130158261064b565b600382526259657360e81b6020830152565b9061303a6020928281519485920161030b565b0190565b806000917a184f03e93ff9f4daa797ed6e38ed64bf6a1f01000000000000000080821015613173575b506d04ee2d6d415b85acef810000000080831015613164575b50662386f26fc1000080831015613155575b506305f5e10080831015613146575b5061271080831015613137575b506064821015613127575b600a8092101561311d575b6001908160216130d5828701612432565b95860101905b6130e7575b5050505090565b600019019083906f181899199a1a9b1b9c1cb0b131b232b360811b8282061a835304918215613118579190826130db565b6130e0565b91600101916130c4565b91906064600291049101916130b9565b600491939204910191386130ae565b600891939204910191386130a1565b60109193920491019138613092565b60209193920491019138613080565b604093508104915038613067565b9081602091031261027e575190565b6000526020600f81526040600020816040516131ab816105f3565b604051926131b884610613565b6000845b6008821061324d57505050829052600b54613206929060c0906131e7906001600160a01b031661116e565b910151906040518080958194633f02ed7560e21b835260048301610353565b03915afa91821561175857600092613220575b5050421190565b61323f9250803d10613246575b613237818361069c565b810190613181565b3880613219565b503d61322d565b829394600192939161325f8493610f0a565b815201930191018593926131bc565b602090613284600194938281519485920161030b565b019060ff60f81b1681520190565b61329a611cbd565b9060005b6006811061330d575050600b546132df916020916132c4906001600160a01b031661116e565b6040518080958194633f02ed7560e21b835260048301610353565b03915afa908115611758576000916132f5575090565b610364915060203d811161324657613237818361069c565b9092916133719061336b61334a61333a612a9761333561332d888b612330565b51600a900690565b612306565b60f81b6001600160f81b03191690565b9161335d6040519384926020840161326e565b03601f19810183528261069c565b916122c6565b9290919261329e565b6040519061338782610666565b604082527f6768696a6b6c6d6e6f707172737475767778797a303132333435363738392b2f6040837f4142434445464748494a4b4c4d4e4f505152535455565758595a61626364656660208201520152565b600281901b91906001600160fe1b038116036122d557565b8051156134d65761340061337a565b61341c6134176134108451612314565b6003900490565b6133d9565b9161342961278384612322565b92835280815182019060208501935b82821061347a575050506003905106806001146134695760021461345a575090565b603d60f81b6000199091015290565b50613d3d60f01b6001199091015290565b90919360049060038094019384516001603f81818460121c16880101519260f893841b8652828282600c1c1689010151841b8387015282828260061c1689010151841b60028701521686010151901b9082015201939190613438565b50610364611cbd565b6000919061335d61352684936040519283916135146020840196634b5c427760e01b885260406024860152606485019061032e565b8381036023190160448501529061032e565b51906a636f6e736f6c652e6c6f675afa5056fea2646970667358221220287ffe552d872cae0f68207a59f08280633c1d8e4fac4222de2a8c61855ed9b064736f6c63430008120033290decd9548b62a8d60345a988386fc84ba6bc95484008f6362f93160ef3e563b10e2d527612073b26eecdfd717e6a320cf44b4afac2b0732d9fcbe2b7fa0cf6",
  "linkReferences": {},
  "deployedLinkReferences": {}
}