{
  "_format": "hh-sol-artifact-1",
  "contractName": "Airdrop",
  "sourceName": "contracts/example/Airdrop.sol",
  "abi": [
    {
      "inputs": [
        {
          "internalType": "address",
          "name": "_identityVerificationHub",
          "type": "address"
        },
        {
          "internalType": "address",
          "name": "_identityRegistry",
          "type": "address"
        },
        {
          "internalType": "uint256",
          "name": "_scope",
          "type": "uint256"
        },
        {
          "internalType": "uint256",
          "name": "_attestationId",
          "type": "uint256"
        },
        {
          "internalType": "address",
          "name": "_token",
          "type": "address"
        },
        {
          "internalType": "uint256",
          "name": "_targetRootTimestamp",
          "type": "uint256"
        },
        {
          "internalType": "bool",
          "name": "_olderThanEnabled",
          "type": "bool"
        },
        {
          "internalType": "uint256",
          "name": "_olderThan",
          "type": "uint256"
        },
        {
          "internalType": "bool",
          "name": "_forbiddenCountriesEnabled",
          "type": "bool"
        },
        {
          "internalType": "uint256[4]",
          "name": "_forbiddenCountriesListPacked",
          "type": "uint256[4]"
        },
        {
          "internalType": "bool[3]",
          "name": "_ofacEnabled",
          "type": "bool[3]"
        }
      ],
      "stateMutability": "nonpayable",
      "type": "constructor"
    },
    {
      "inputs": [],
      "name": "AlreadyClaimed",
      "type": "error"
    },
    {
      "inputs": [],
      "name": "ClaimNotOpen",
      "type": "error"
    },
    {
      "inputs": [],
      "name": "InvalidAttestationId",
      "type": "error"
    },
    {
      "inputs": [],
      "name": "InvalidProof",
      "type": "error"
    },
    {
      "inputs": [],
      "name": "InvalidScope",
      "type": "error"
    },
    {
      "inputs": [],
      "name": "InvalidTimestamp",
      "type": "error"
    },
    {
      "inputs": [],
      "name": "InvalidUserIdentifier",
      "type": "error"
    },
    {
      "inputs": [
        {
          "internalType": "address",
          "name": "nonRegisteredAddress",
          "type": "address"
        }
      ],
      "name": "NotRegistered",
      "type": "error"
    },
    {
      "inputs": [
        {
          "internalType": "address",
          "name": "owner",
          "type": "address"
        }
      ],
      "name": "OwnableInvalidOwner",
      "type": "error"
    },
    {
      "inputs": [
        {
          "internalType": "address",
          "name": "account",
          "type": "address"
        }
      ],
      "name": "OwnableUnauthorizedAccount",
      "type": "error"
    },
    {
      "inputs": [],
      "name": "RegisteredNullifier",
      "type": "error"
    },
    {
      "inputs": [],
      "name": "RegistrationNotClosed",
      "type": "error"
    },
    {
      "inputs": [],
      "name": "RegistrationNotOpen",
      "type": "error"
    },
    {
      "inputs": [
        {
          "internalType": "address",
          "name": "token",
          "type": "address"
        }
      ],
      "name": "SafeERC20FailedOperation",
      "type": "error"
    },
    {
      "anonymous": false,
      "inputs": [],
      "name": "ClaimClose",
      "type": "event"
    },
    {
      "anonymous": false,
      "inputs": [],
      "name": "ClaimOpen",
      "type": "event"
    },
    {
      "anonymous": false,
      "inputs": [
        {
          "indexed": false,
          "internalType": "uint256",
          "name": "index",
          "type": "uint256"
        },
        {
          "indexed": false,
          "internalType": "address",
          "name": "account",
          "type": "address"
        },
        {
          "indexed": false,
          "internalType": "uint256",
          "name": "amount",
          "type": "uint256"
        }
      ],
      "name": "Claimed",
      "type": "event"
    },
    {
      "anonymous": false,
      "inputs": [
        {
          "indexed": true,
          "internalType": "address",
          "name": "previousOwner",
          "type": "address"
        },
        {
          "indexed": true,
          "internalType": "address",
          "name": "newOwner",
          "type": "address"
        }
      ],
      "name": "OwnershipTransferred",
      "type": "event"
    },
    {
      "anonymous": false,
      "inputs": [],
      "name": "RegistrationClose",
      "type": "event"
    },
    {
      "anonymous": false,
      "inputs": [],
      "name": "RegistrationOpen",
      "type": "event"
    },
    {
      "anonymous": false,
      "inputs": [
        {
          "indexed": true,
          "internalType": "uint256",
          "name": "registeredUserIdentifier",
          "type": "uint256"
        },
        {
          "indexed": true,
          "internalType": "uint256",
          "name": "nullifier",
          "type": "uint256"
        }
      ],
      "name": "UserIdentifierRegistered",
      "type": "event"
    },
    {
      "inputs": [
        {
          "internalType": "uint256",
          "name": "index",
          "type": "uint256"
        },
        {
          "internalType": "uint256",
          "name": "amount",
          "type": "uint256"
        },
        {
          "internalType": "bytes32[]",
          "name": "merkleProof",
          "type": "bytes32[]"
        }
      ],
      "name": "claim",
      "outputs": [],
      "stateMutability": "nonpayable",
      "type": "function"
    },
    {
      "inputs": [
        {
          "internalType": "address",
          "name": "",
          "type": "address"
        }
      ],
      "name": "claimed",
      "outputs": [
        {
          "internalType": "bool",
          "name": "",
          "type": "bool"
        }
      ],
      "stateMutability": "view",
      "type": "function"
    },
    {
      "inputs": [],
      "name": "closeClaim",
      "outputs": [],
      "stateMutability": "nonpayable",
      "type": "function"
    },
    {
      "inputs": [],
      "name": "closeRegistration",
      "outputs": [],
      "stateMutability": "nonpayable",
      "type": "function"
    },
    {
      "inputs": [],
      "name": "getAttestationId",
      "outputs": [
        {
          "internalType": "uint256",
          "name": "",
          "type": "uint256"
        }
      ],
      "stateMutability": "view",
      "type": "function"
    },
    {
      "inputs": [
        {
          "internalType": "uint256",
          "name": "nullifier",
          "type": "uint256"
        }
      ],
      "name": "getNullifier",
      "outputs": [
        {
          "internalType": "uint256",
          "name": "",
          "type": "uint256"
        }
      ],
      "stateMutability": "view",
      "type": "function"
    },
    {
      "inputs": [],
      "name": "getScope",
      "outputs": [
        {
          "internalType": "uint256",
          "name": "",
          "type": "uint256"
        }
      ],
      "stateMutability": "view",
      "type": "function"
    },
    {
      "inputs": [],
      "name": "getVerificationConfig",
      "outputs": [
        {
          "components": [
            {
              "internalType": "bool",
              "name": "olderThanEnabled",
              "type": "bool"
            },
            {
              "internalType": "uint256",
              "name": "olderThan",
              "type": "uint256"
            },
            {
              "internalType": "bool",
              "name": "forbiddenCountriesEnabled",
              "type": "bool"
            },
            {
              "internalType": "uint256[4]",
              "name": "forbiddenCountriesListPacked",
              "type": "uint256[4]"
            },
            {
              "internalType": "bool[3]",
              "name": "ofacEnabled",
              "type": "bool[3]"
            }
          ],
          "internalType": "struct IPassportAirdropRoot.VerificationConfig",
          "name": "",
          "type": "tuple"
        }
      ],
      "stateMutability": "view",
      "type": "function"
    },
    {
      "inputs": [],
      "name": "isClaimOpen",
      "outputs": [
        {
          "internalType": "bool",
          "name": "",
          "type": "bool"
        }
      ],
      "stateMutability": "view",
      "type": "function"
    },
    {
      "inputs": [
        {
          "internalType": "address",
          "name": "registeredAddress",
          "type": "address"
        }
      ],
      "name": "isRegistered",
      "outputs": [
        {
          "internalType": "bool",
          "name": "",
          "type": "bool"
        }
      ],
      "stateMutability": "view",
      "type": "function"
    },
    {
      "inputs": [],
      "name": "isRegistrationOpen",
      "outputs": [
        {
          "internalType": "bool",
          "name": "",
          "type": "bool"
        }
      ],
      "stateMutability": "view",
      "type": "function"
    },
    {
      "inputs": [],
      "name": "merkleRoot",
      "outputs": [
        {
          "internalType": "bytes32",
          "name": "",
          "type": "bytes32"
        }
      ],
      "stateMutability": "view",
      "type": "function"
    },
    {
      "inputs": [],
      "name": "openClaim",
      "outputs": [],
      "stateMutability": "nonpayable",
      "type": "function"
    },
    {
      "inputs": [],
      "name": "openRegistration",
      "outputs": [],
      "stateMutability": "nonpayable",
      "type": "function"
    },
    {
      "inputs": [],
      "name": "owner",
      "outputs": [
        {
          "internalType": "address",
          "name": "",
          "type": "address"
        }
      ],
      "stateMutability": "view",
      "type": "function"
    },
    {
      "inputs": [
        {
          "components": [
            {
              "internalType": "uint256[2]",
              "name": "a",
              "type": "uint256[2]"
            },
            {
              "internalType": "uint256[2][2]",
              "name": "b",
              "type": "uint256[2][2]"
            },
            {
              "internalType": "uint256[2]",
              "name": "c",
              "type": "uint256[2]"
            },
            {
              "internalType": "uint256[21]",
              "name": "pubSignals",
              "type": "uint256[21]"
            }
          ],
          "internalType": "struct IVcAndDiscloseCircuitVerifier.VcAndDiscloseProof",
          "name": "proof",
          "type": "tuple"
        }
      ],
      "name": "registerAddress",
      "outputs": [],
      "stateMutability": "nonpayable",
      "type": "function"
    },
    {
      "inputs": [],
      "name": "renounceOwnership",
      "outputs": [],
      "stateMutability": "nonpayable",
      "type": "function"
    },
    {
      "inputs": [
        {
          "internalType": "bytes32",
          "name": "_merkleRoot",
          "type": "bytes32"
        }
      ],
      "name": "setMerkleRoot",
      "outputs": [],
      "stateMutability": "nonpayable",
      "type": "function"
    },
    {
      "inputs": [
        {
          "components": [
            {
              "internalType": "bool",
              "name": "olderThanEnabled",
              "type": "bool"
            },
            {
              "internalType": "uint256",
              "name": "olderThan",
              "type": "uint256"
            },
            {
              "internalType": "bool",
              "name": "forbiddenCountriesEnabled",
              "type": "bool"
            },
            {
              "internalType": "uint256[4]",
              "name": "forbiddenCountriesListPacked",
              "type": "uint256[4]"
            },
            {
              "internalType": "bool[3]",
              "name": "ofacEnabled",
              "type": "bool[3]"
            }
          ],
          "internalType": "struct IPassportAirdropRoot.VerificationConfig",
          "name": "newVerificationConfig",
          "type": "tuple"
        }
      ],
      "name": "setVerificationConfig",
      "outputs": [],
      "stateMutability": "nonpayable",
      "type": "function"
    },
    {
      "inputs": [],
      "name": "token",
      "outputs": [
        {
          "internalType": "contract IERC20",
          "name": "",
          "type": "address"
        }
      ],
      "stateMutability": "view",
      "type": "function"
    },
    {
      "inputs": [
        {
          "internalType": "address",
          "name": "newOwner",
          "type": "address"
        }
      ],
      "name": "transferOwnership",
      "outputs": [],
      "stateMutability": "nonpayable",
      "type": "function"
    }
  ],
  "bytecode": "0x61014060405234801561001157600080fd5b506040516119ee3803806119ee833981016040819052610030916102f1565b336001600160a01b038c811660e0528b166101005260808a905260a089905260c08790526000805460ff19908116881515179091556001869055600280549091168515151790558b8b8b8b8a8a8a8a8a8a61008e6003836004610152565b5061009c6007826003610190565b5050506001600160a01b03891697506100d7965050505050505057604051631e4fbdf760e01b81526000600482015260240160405180910390fd5b6100e081610100565b5050506001600160a01b0390941661012052506103e99650505050505050565b600a80546001600160a01b038381166001600160a01b0319831681179093556040519116919082907f8be0079c531659141344cd1fd0a4f28419497f9722a3daafe3b4186f6b6457e090600090a35050565b8260048101928215610180579160200282015b82811115610180578251825591602001919060010190610165565b5061018c929150610219565b5090565b6001830191839082156101805791602002820160005b838211156101e357835183826101000a81548160ff02191690831515021790555092602001926001016020816000010492830192600103026101a6565b80156102105782816101000a81549060ff02191690556001016020816000010492830192600103026101e3565b505061018c9291505b5b8082111561018c576000815560010161021a565b80516001600160a01b038116811461024557600080fd5b919050565b8051801515811461024557600080fd5b604051601f8201601f191681016001600160401b038111828210171561029057634e487b7160e01b600052604160045260246000fd5b604052919050565b600082601f8301126102a957600080fd5b6102b3606061025a565b8060608401858111156102c557600080fd5b845b818110156102e6576102d88161024a565b8452602093840193016102c7565b509095945050505050565b60008060008060008060008060008060006102008c8e03121561031357600080fd5b61031c8c61022e565b9a5061032a60208d0161022e565b60408d015160608e0151919b509950975061034760808d0161022e565b60a08d0151909750955061035d60c08d0161024a565b60e08d015190955093506103746101008d0161024a565b92508c61013f8d011261038657600080fd5b610390608061025a565b808e6101a08f0111156103a257600080fd5b6101208e015b6101a08f018110156103c45780518352602092830192016103a8565b5092506103d790508d6101a08e01610298565b90509295989b509295989b9093969950565b60805160a05160c05160e051610100516101205161159a61045460003960008181610309015261067701526000610ac601526000610951015260008181610a640152610a9c01526000818161017001526108ad01526000818161023b015261082e015261159a6000f3fe608060405234801561001057600080fd5b50600436106101365760003560e01c80638d7d2d3a116100b8578063c3c5a5471161007c578063c3c5a5471461027a578063c884ef83146102a6578063d06e4ee7146102c9578063e97aea1a146102d1578063f2fde38b146102f1578063fc0c546a1461030457600080fd5b80638d7d2d3a146102015780638da5cb5b14610214578063951cfa4714610239578063ae0b51df1461025f578063c2fc94a11461027257600080fd5b80632eb4a7ab116100ff5780632eb4a7ab146101c8578063715018a6146101d15780637ab2af2b146101d95780637cb64759146101e65780637dc673bc146101f957600080fd5b80623bc35c1461013b5780630510077d14610150578063158e8f851461016e57806324fd26521461019e578063293cdbf1146101c0575b600080fd5b61014e610149366004610f9c565b61032b565b005b610158610393565b60405161016591906110ab565b60405180910390f35b7f00000000000000000000000000000000000000000000000000000000000000005b604051908152602001610165565b600d546101b090610100900460ff1681565b6040519015158152602001610165565b61014e610459565b610190600b5481565b61014e61049b565b600d546101b09060ff1681565b61014e6101f43660046110fc565b6104af565b61014e6104bc565b61014e61020f3660046111b6565b6104f9565b600a546001600160a01b03165b6040516001600160a01b039091168152602001610165565b7f0000000000000000000000000000000000000000000000000000000000000000610190565b61014e61026d366004611269565b610529565b61014e6106e4565b6101b061028836600461132f565b6001600160a01b031660009081526009602052604090205460ff1690565b6101b06102b436600461132f565b600c6020526000908152604090205460ff1681565b61014e610722565b6101906102df3660046110fc565b60009081526008602052604090205490565b61014e6102ff36600461132f565b610762565b6102217f000000000000000000000000000000000000000000000000000000000000000081565b6103336107a0565b80516000805491151560ff19928316178155602083015160015560408301516002805491151591909316179091556060820151829190610377906003906004610d34565b50608082015161038d9060078301906003610d72565b50505050565b61039b610dff565b6040805160a0810182526000805460ff908116151583526001546020840152600254161515828401528251608081019384905291929091606084019160039060049082845b8154815260200190600101908083116103e0575050509183525050604080516060810191829052602090920191906007840190600390826000855b825461010083900a900460ff16151581526020600192830181810494850194909303909202910180841161041b579050505050505081525050905090565b6104616107a0565b600d805461ff0019166101001790556040517f0a1c1f14fb576fdcf33dc5fa27868e61fd4447b0e37a37413baac599860ce15190600090a1565b6104a36107a0565b6104ad60006107cd565b565b6104b76107a0565b600b55565b6104c46107a0565b600d805460ff191690556040517f288d754f7e5984845916eb8e61674ddebd6ad70a1b2aca6c47c5deb70b59be2590600090a1565b600d5460ff1661051c5760405163153745d360e01b815260040160405180910390fd5b6105258161081f565b5050565b600d5460ff161561054d5760405163697e379b60e01b815260040160405180910390fd5b600d54610100900460ff16610575576040516335b43c0360e11b815260040160405180910390fd5b336000908152600c602052604090205460ff16156105a657604051630c8d9eab60e31b815260040160405180910390fd5b3360009081526009602052604090205460ff166105dd5760405163bfc6c33760e01b81523360048201526024015b60405180910390fd5b6040805160208082018690523360601b6bffffffffffffffffffffffff19168284015260548083018690528351808403909101815260749092019092528051910120600b5461062e90839083610be1565b61064b576040516309bde33960e01b815260040160405180910390fd5b61066a336000908152600c60205260409020805460ff19166001179055565b61069e6001600160a01b037f0000000000000000000000000000000000000000000000000000000000000000163385610bf7565b604080518581523360208201529081018490527f4ec90e965519d92681267467f775ada5bd214aa92c0dc93d90a5e880ce9ed0269060600160405180910390a150505050565b6106ec6107a0565b600d805461ff00191690556040517fd9cdc0c7d0e14acb34ad43d7476a560503dbdee12d1d6185e8edbb420b3dfd5790600090a1565b61072a6107a0565b600d805460ff191660011790556040517f79ca010d28c7a51d53028fb1d0e0b0e1e129832dcc1bb4be0ae511096051c65190600090a1565b61076a6107a0565b6001600160a01b03811661079457604051631e4fbdf760e01b8152600060048201526024016105d4565b61079d816107cd565b50565b600a546001600160a01b031633146104ad5760405163118cdaa760e01b81523360048201526024016105d4565b600a80546001600160a01b038381166001600160a01b0319831681179093556040519116919082907f8be0079c531659141344cd1fd0a4f28419497f9722a3daafe3b4186f6b6457e090600090a35050565b606081015161026001516000907f00000000000000000000000000000000000000000000000000000000000000001461086b5760405163725a844f60e01b815260040160405180910390fd5b606082015160e00151600090815260086020526040902054156108a157604051631165e35160e11b815260040160405180910390fd5b606082015161010001517f0000000000000000000000000000000000000000000000000000000000000000146108ea576040516309763aff60e11b815260040160405180910390fd5b606082015161028001516000036109145760405163f0c426db60e01b815260040160405180910390fd5b6040805160c0810182526000805460ff90811615158352600154602084015260025416151582840152825160808101909352916001600160a01b037f0000000000000000000000000000000000000000000000000000000000000000169163d1ea63a2916060820190600360048282826020028201915b81548152602001906001019080831161098b57505050918352505060408051606081019182905260209092019190600790600390826000855b825461010083900a900460ff1615158152602060019283018181049485019490930390920291018084116109c457905050505050508152602001868152506040518263ffffffff1660e01b8152600401610a1e9190611391565b61018060405180830381865afa158015610a3c573d6000803e3d6000fd5b505050506040513d601f19601f82011682018060405250810190610a6091906114ee565b90507f000000000000000000000000000000000000000000000000000000000000000015610b5c57608081015160405163ede12d9f60e01b81527f0000000000000000000000000000000000000000000000000000000000000000916001600160a01b037f0000000000000000000000000000000000000000000000000000000000000000169163ede12d9f91610afd9160040190815260200190565b602060405180830381865afa158015610b1a573d6000803e3d6000fd5b505050506040513d601f19601f82011682018060405250810190610b3e9190611574565b14610b5c5760405163b7d0949760e01b815260040160405180910390fd5b6060838101805161028090810151928401805160009081526008602090815260408083209690965584519093015181526009909252929020805460ff1916600117905590519051601460200201516040517fad6acfd310a8e8e3e0942ab383e1cc0eb70bd08613de2f8b2aca878a3de9eaf090600090a3505060600151610280015190565b600082610bee8584610c4e565b14949350505050565b604080516001600160a01b038416602482015260448082018490528251808303909101815260649091019091526020810180516001600160e01b031663a9059cbb60e01b179052610c49908490610c91565b505050565b600081815b8451811015610c8957610c7f82868381518110610c7257610c72611358565b6020026020010151610d02565b9150600101610c53565b509392505050565b600080602060008451602086016000885af180610cb4576040513d6000823e3d81fd5b50506000513d91508115610ccc578060011415610cd9565b6001600160a01b0384163b155b1561038d57604051635274afe760e01b81526001600160a01b03851660048201526024016105d4565b6000818310610d1e576000828152602084905260409020610d2d565b60008381526020839052604090205b9392505050565b8260048101928215610d62579160200282015b82811115610d62578251825591602001919060010190610d47565b50610d6e929150610e3d565b5090565b600183019183908215610d625791602002820160005b83821115610dc557835183826101000a81548160ff0219169083151502179055509260200192600101602081600001049283019260010302610d88565b8015610df25782816101000a81549060ff0219169055600101602081600001049283019260010302610dc5565b5050610d6e929150610e3d565b6040518060a0016040528060001515815260200160008152602001600015158152602001610e2b610e52565b8152602001610e38610e70565b905290565b5b80821115610d6e5760008155600101610e3e565b60405180608001604052806004906020820280368337509192915050565b60405180606001604052806003906020820280368337509192915050565b634e487b7160e01b600052604160045260246000fd5b60405160a0810167ffffffffffffffff81118282101715610ec757610ec7610e8e565b60405290565b6040516080810167ffffffffffffffff81118282101715610ec757610ec7610e8e565b60405160e0810167ffffffffffffffff81118282101715610ec757610ec7610e8e565b604051601f8201601f1916810167ffffffffffffffff81118282101715610f3c57610f3c610e8e565b604052919050565b80358015158114610f5457600080fd5b919050565b6000610f656080610f13565b9050806080830184811115610f7957600080fd5b835b81811015610f93578035835260209283019201610f7b565b50505092915050565b6000610140828403128015610fb057600080fd5b506000610fbb610ea4565b610fc484610f44565b815260208481013590820152610fdc60408501610f44565b604082015284607f850112610fef578182fd5b610ffc8560608601610f59565b60608201528460ff85011261100f578182fd5b6110196060610f13565b8061014086018781111561102b578485fd5b60e0870194505b808510156110545761104385610f44565b835260209485019490920191611032565b50608083015250949350505050565b8060005b600481101561038d578151845260209384019390910190600101611067565b8060005b600381101561038d578151151584526020938401939091019060010161108a565b6000610140820190508251151582526020830151602083015260408301511515604083015260608301516110e26060840182611063565b5060808301516110f560e0840182611086565b5092915050565b60006020828403121561110e57600080fd5b5035919050565b600082601f83011261112657600080fd5b60006111326040610f13565b905080604084018581111561114657600080fd5b845b81811015611160578035835260209283019201611148565b509195945050505050565b600082601f83011261117c57600080fd5b60006102a061118a81610f13565b91508301818582111561119c57600080fd5b845b8281101561116057803582526020918201910161119e565b60006103a08284031280156111ca57600080fd5b5060006111d5610ecd565b6111df8585611115565b815284605f8501126111ef578182fd5b60406111fa81610f13565b8060c087018881111561120b578586fd5b6040880195505b80861015611235576112248987611115565b835294830194602090920191611212565b8160208601526112458982611115565b60408601525050505061125c85610100860161116b565b6060820152949350505050565b60008060006060848603121561127e57600080fd5b8335925060208401359150604084013567ffffffffffffffff8111156112a357600080fd5b8401601f810186136112b457600080fd5b803567ffffffffffffffff8111156112ce576112ce610e8e565b8060051b6112de60208201610f13565b918252602081840181019290810190898411156112fa57600080fd5b6020850194505b8385101561132057843580835260209586019590935090910190611301565b80955050505050509250925092565b60006020828403121561134157600080fd5b81356001600160a01b0381168114610d2d57600080fd5b634e487b7160e01b600052603260045260246000fd5b8060005b600281101561038d578151845260209384019390910190600101611372565b60006104e0820190508251151582526020830151602083015260408301511515604083015260608301516113c86060840182611063565b5060808301516113db60e0840182611086565b5060a08301516113f06101408401825161136e565b6020810151610180840160005b60028110156114275761141182845161136e565b60209290920191604091909101906001016113fd565b505050604081015161143d61020085018261136e565b5060600151610240830160005b6015811015610f9357825182526020928301929091019060010161144a565b60006114756060610f13565b905080606083018481111561148957600080fd5b835b81811015610f9357805183526020928301920161148b565b600082601f8301126114b457600080fd5b60006114c06080610f13565b90508060808401858111156114d457600080fd5b845b818110156111605780518352602092830192016114d6565b600061018082840312801561150257600080fd5b50600061150d610ef0565b835181526020808501519082015260408085015190820152606080850151908201526080808501519082015260bf84018513611547578182fd5b6115548560a08601611469565b60a08201526115678561010086016114a3565b60c0820152949350505050565b60006020828403121561158657600080fd5b505191905056fea164736f6c634300081c000a",
  "linkReferences": {},
  "deployedLinkReferences": {}
}