{
  "_format": "hh-sol-artifact-1",
  "contractName": "Airdrop",
  "sourceName": "contracts/example/Airdrop.sol",
  "abi": [
    {
      "inputs": [
        {
          "internalType": "address",
          "name": "_identityVerificationHub",
          "type": "address"
        },
        {
          "internalType": "address",
          "name": "_identityRegistry",
          "type": "address"
        },
        {
          "internalType": "uint256",
          "name": "_scope",
          "type": "uint256"
        },
        {
          "internalType": "uint256",
          "name": "_attestationId",
          "type": "uint256"
        },
        {
          "internalType": "address",
          "name": "_token",
          "type": "address"
        },
        {
          "internalType": "uint256",
          "name": "_targetRootTimestamp",
          "type": "uint256"
        },
        {
          "internalType": "bool",
          "name": "_olderThanEnabled",
          "type": "bool"
        },
        {
          "internalType": "uint256",
          "name": "_olderThan",
          "type": "uint256"
        },
        {
          "internalType": "bool",
          "name": "_forbiddenCountriesEnabled",
          "type": "bool"
        },
        {
          "internalType": "uint256",
          "name": "_forbiddenCountriesListPacked",
          "type": "uint256"
        },
        {
          "internalType": "bool",
          "name": "_ofacEnabled",
          "type": "bool"
        }
      ],
      "stateMutability": "nonpayable",
      "type": "constructor"
    },
    {
      "inputs": [],
      "name": "AlreadyClaimed",
      "type": "error"
    },
    {
      "inputs": [],
      "name": "ClaimNotOpen",
      "type": "error"
    },
    {
      "inputs": [],
      "name": "InvalidAttestationId",
      "type": "error"
    },
    {
      "inputs": [],
      "name": "InvalidProof",
      "type": "error"
    },
    {
      "inputs": [],
      "name": "InvalidScope",
      "type": "error"
    },
    {
      "inputs": [],
      "name": "InvalidTimestamp",
      "type": "error"
    },
    {
      "inputs": [
        {
          "internalType": "address",
          "name": "nonRegisteredAddress",
          "type": "address"
        }
      ],
      "name": "NotRegistered",
      "type": "error"
    },
    {
      "inputs": [
        {
          "internalType": "address",
          "name": "owner",
          "type": "address"
        }
      ],
      "name": "OwnableInvalidOwner",
      "type": "error"
    },
    {
      "inputs": [
        {
          "internalType": "address",
          "name": "account",
          "type": "address"
        }
      ],
      "name": "OwnableUnauthorizedAccount",
      "type": "error"
    },
    {
      "inputs": [],
      "name": "RegisteredNullifier",
      "type": "error"
    },
    {
      "inputs": [],
      "name": "RegistrationNotClosed",
      "type": "error"
    },
    {
      "inputs": [],
      "name": "RegistrationNotOpen",
      "type": "error"
    },
    {
      "inputs": [
        {
          "internalType": "address",
          "name": "token",
          "type": "address"
        }
      ],
      "name": "SafeERC20FailedOperation",
      "type": "error"
    },
    {
      "anonymous": false,
      "inputs": [],
      "name": "ClaimClose",
      "type": "event"
    },
    {
      "anonymous": false,
      "inputs": [],
      "name": "ClaimOpen",
      "type": "event"
    },
    {
      "anonymous": false,
      "inputs": [
        {
          "indexed": false,
          "internalType": "uint256",
          "name": "index",
          "type": "uint256"
        },
        {
          "indexed": false,
          "internalType": "address",
          "name": "account",
          "type": "address"
        },
        {
          "indexed": false,
          "internalType": "uint256",
          "name": "amount",
          "type": "uint256"
        }
      ],
      "name": "Claimed",
      "type": "event"
    },
    {
      "anonymous": false,
      "inputs": [
        {
          "indexed": true,
          "internalType": "address",
          "name": "previousOwner",
          "type": "address"
        },
        {
          "indexed": true,
          "internalType": "address",
          "name": "newOwner",
          "type": "address"
        }
      ],
      "name": "OwnershipTransferred",
      "type": "event"
    },
    {
      "anonymous": false,
      "inputs": [],
      "name": "RegistrationClose",
      "type": "event"
    },
    {
      "anonymous": false,
      "inputs": [],
      "name": "RegistrationOpen",
      "type": "event"
    },
    {
      "anonymous": false,
      "inputs": [
        {
          "indexed": true,
          "internalType": "uint256",
          "name": "registeredUserIdentifier",
          "type": "uint256"
        },
        {
          "indexed": true,
          "internalType": "uint256",
          "name": "nullifier",
          "type": "uint256"
        }
      ],
      "name": "UserIdentifierRegistered",
      "type": "event"
    },
    {
      "inputs": [
        {
          "internalType": "uint256",
          "name": "index",
          "type": "uint256"
        },
        {
          "internalType": "uint256",
          "name": "amount",
          "type": "uint256"
        },
        {
          "internalType": "bytes32[]",
          "name": "merkleProof",
          "type": "bytes32[]"
        }
      ],
      "name": "claim",
      "outputs": [],
      "stateMutability": "nonpayable",
      "type": "function"
    },
    {
      "inputs": [
        {
          "internalType": "address",
          "name": "",
          "type": "address"
        }
      ],
      "name": "claimed",
      "outputs": [
        {
          "internalType": "bool",
          "name": "",
          "type": "bool"
        }
      ],
      "stateMutability": "view",
      "type": "function"
    },
    {
      "inputs": [],
      "name": "closeClaim",
      "outputs": [],
      "stateMutability": "nonpayable",
      "type": "function"
    },
    {
      "inputs": [],
      "name": "closeRegistration",
      "outputs": [],
      "stateMutability": "nonpayable",
      "type": "function"
    },
    {
      "inputs": [],
      "name": "getAttestationId",
      "outputs": [
        {
          "internalType": "uint256",
          "name": "",
          "type": "uint256"
        }
      ],
      "stateMutability": "view",
      "type": "function"
    },
    {
      "inputs": [
        {
          "internalType": "uint256",
          "name": "nullifier",
          "type": "uint256"
        }
      ],
      "name": "getNullifier",
      "outputs": [
        {
          "internalType": "uint256",
          "name": "",
          "type": "uint256"
        }
      ],
      "stateMutability": "view",
      "type": "function"
    },
    {
      "inputs": [],
      "name": "getScope",
      "outputs": [
        {
          "internalType": "uint256",
          "name": "",
          "type": "uint256"
        }
      ],
      "stateMutability": "view",
      "type": "function"
    },
    {
      "inputs": [],
      "name": "getVerificationConfig",
      "outputs": [
        {
          "components": [
            {
              "internalType": "bool",
              "name": "olderThanEnabled",
              "type": "bool"
            },
            {
              "internalType": "uint256",
              "name": "olderThan",
              "type": "uint256"
            },
            {
              "internalType": "bool",
              "name": "forbiddenCountriesEnabled",
              "type": "bool"
            },
            {
              "internalType": "uint256",
              "name": "forbiddenCountriesListPacked",
              "type": "uint256"
            },
            {
              "internalType": "bool",
              "name": "ofacEnabled",
              "type": "bool"
            }
          ],
          "internalType": "struct IPassportAirdropRoot.VerificationConfig",
          "name": "",
          "type": "tuple"
        }
      ],
      "stateMutability": "view",
      "type": "function"
    },
    {
      "inputs": [],
      "name": "isClaimOpen",
      "outputs": [
        {
          "internalType": "bool",
          "name": "",
          "type": "bool"
        }
      ],
      "stateMutability": "view",
      "type": "function"
    },
    {
      "inputs": [
        {
          "internalType": "address",
          "name": "registeredAddress",
          "type": "address"
        }
      ],
      "name": "isRegistered",
      "outputs": [
        {
          "internalType": "bool",
          "name": "",
          "type": "bool"
        }
      ],
      "stateMutability": "view",
      "type": "function"
    },
    {
      "inputs": [],
      "name": "isRegistrationOpen",
      "outputs": [
        {
          "internalType": "bool",
          "name": "",
          "type": "bool"
        }
      ],
      "stateMutability": "view",
      "type": "function"
    },
    {
      "inputs": [],
      "name": "merkleRoot",
      "outputs": [
        {
          "internalType": "bytes32",
          "name": "",
          "type": "bytes32"
        }
      ],
      "stateMutability": "view",
      "type": "function"
    },
    {
      "inputs": [],
      "name": "openClaim",
      "outputs": [],
      "stateMutability": "nonpayable",
      "type": "function"
    },
    {
      "inputs": [],
      "name": "openRegistration",
      "outputs": [],
      "stateMutability": "nonpayable",
      "type": "function"
    },
    {
      "inputs": [],
      "name": "owner",
      "outputs": [
        {
          "internalType": "address",
          "name": "",
          "type": "address"
        }
      ],
      "stateMutability": "view",
      "type": "function"
    },
    {
      "inputs": [
        {
          "components": [
            {
              "internalType": "uint256[2]",
              "name": "a",
              "type": "uint256[2]"
            },
            {
              "internalType": "uint256[2][2]",
              "name": "b",
              "type": "uint256[2][2]"
            },
            {
              "internalType": "uint256[2]",
              "name": "c",
              "type": "uint256[2]"
            },
            {
              "internalType": "uint256[16]",
              "name": "pubSignals",
              "type": "uint256[16]"
            }
          ],
          "internalType": "struct IVcAndDiscloseCircuitVerifier.VcAndDiscloseProof",
          "name": "proof",
          "type": "tuple"
        }
      ],
      "name": "registerAddress",
      "outputs": [],
      "stateMutability": "nonpayable",
      "type": "function"
    },
    {
      "inputs": [],
      "name": "renounceOwnership",
      "outputs": [],
      "stateMutability": "nonpayable",
      "type": "function"
    },
    {
      "inputs": [
        {
          "internalType": "bytes32",
          "name": "_merkleRoot",
          "type": "bytes32"
        }
      ],
      "name": "setMerkleRoot",
      "outputs": [],
      "stateMutability": "nonpayable",
      "type": "function"
    },
    {
      "inputs": [
        {
          "components": [
            {
              "internalType": "bool",
              "name": "olderThanEnabled",
              "type": "bool"
            },
            {
              "internalType": "uint256",
              "name": "olderThan",
              "type": "uint256"
            },
            {
              "internalType": "bool",
              "name": "forbiddenCountriesEnabled",
              "type": "bool"
            },
            {
              "internalType": "uint256",
              "name": "forbiddenCountriesListPacked",
              "type": "uint256"
            },
            {
              "internalType": "bool",
              "name": "ofacEnabled",
              "type": "bool"
            }
          ],
          "internalType": "struct IPassportAirdropRoot.VerificationConfig",
          "name": "newVerificationConfig",
          "type": "tuple"
        }
      ],
      "name": "setVerificationConfig",
      "outputs": [],
      "stateMutability": "nonpayable",
      "type": "function"
    },
    {
      "inputs": [],
      "name": "token",
      "outputs": [
        {
          "internalType": "contract IERC20",
          "name": "",
          "type": "address"
        }
      ],
      "stateMutability": "view",
      "type": "function"
    },
    {
      "inputs": [
        {
          "internalType": "address",
          "name": "newOwner",
          "type": "address"
        }
      ],
      "name": "transferOwnership",
      "outputs": [],
      "stateMutability": "nonpayable",
      "type": "function"
    }
  ],
  "bytecode": "0x61014060405234801561001157600080fd5b506040516129a63803806129a683398181016040528101906100339190610464565b61004161035860201b60201c565b8b8b8b8b8a8a8a8a8a8a61006567a6348f70771ecbf060c01b61036060201b60201c565b61007f67f452d12e6bb6e9ea60c01b61036060201b60201c565b8973ffffffffffffffffffffffffffffffffffffffff1660e08173ffffffffffffffffffffffffffffffffffffffff16815250506100cd67f826f9c6c9e7a3a660c01b61036060201b60201c565b8873ffffffffffffffffffffffffffffffffffffffff166101008173ffffffffffffffffffffffffffffffffffffffff168152505061011c67055c1f69b916f88f60c01b61036060201b60201c565b876080818152505061013e6783a1daa86080164f60c01b61036060201b60201c565b8660a08181525050610160679230dff99ed48dcb60c01b61036060201b60201c565b8560c081815250506101826713efe0260374779860c01b61036060201b60201c565b846000800160006101000a81548160ff0219169083151502179055506101b86788833e6b727d8ee060c01b61036060201b60201c565b836000600101819055506101dc671014c4b7960ab47860c01b61036060201b60201c565b82600060020160006101000a81548160ff021916908315150217905550610213677443932ac042fc1f60c01b61036060201b60201c565b816000600301819055506102376737b35075b019c09b60c01b61036060201b60201c565b80600060040160006101000a81548160ff02191690831515021790555050505050505050505050600073ffffffffffffffffffffffffffffffffffffffff168173ffffffffffffffffffffffffffffffffffffffff16036102d05760006040517f1e4fbdf70000000000000000000000000000000000000000000000000000000081526004016102c7919061052b565b60405180910390fd5b6102df8161036360201b60201c565b506102fa67fd3405986aeec2ab60c01b61042960201b60201c565b61031366af442e89124edb60c01b61042960201b60201c565b8673ffffffffffffffffffffffffffffffffffffffff166101208173ffffffffffffffffffffffffffffffffffffffff16815250505050505050505050505050610544565b600033905090565b50565b6000600760009054906101000a900473ffffffffffffffffffffffffffffffffffffffff16905081600760006101000a81548173ffffffffffffffffffffffffffffffffffffffff021916908373ffffffffffffffffffffffffffffffffffffffff1602179055508173ffffffffffffffffffffffffffffffffffffffff168173ffffffffffffffffffffffffffffffffffffffff167f8be0079c531659141344cd1fd0a4f28419497f9722a3daafe3b4186f6b6457e060405160405180910390a35050565b50565b60008151905060018060a01b038116811461044657600080fd5b919050565b600081519050801515811461045f57600080fd5b919050565b60008060008060008060008060008060006101608c8e03121561048657600080fd5b61048f8c61042c565b9a5061049d60208d0161042c565b9950600060408d0151905080995050600060608d01519050809850506104c560808d0161042c565b9650600060a08d01519050809650506104e060c08d0161044b565b9450600060e08d01519050809450506104fc6101008d0161044b565b925060006101208d01519050809250506105196101408d0161044b565b90509295989b509295989b9093969950565b600060208201905060018060a01b038316825292915050565b60805160a05160c05160e05161010051610120516123f76105af60003960008181610d98015261115401526000611742015260006115870152600081816116bf015261172101526000818161047501526114c901526000818161080a015261132301526123f76000f3fe608060405234801561001057600080fd5b50600436106101375760003560e01c80638da5cb5b116100b8578063c3c5a5471161007c578063c3c5a547146102a6578063c884ef83146102d6578063d06e4ee714610306578063e97aea1a14610310578063f2fde38b14610340578063fc0c546a1461035c57610137565b80638da5cb5b14610228578063951cfa4714610246578063a47fd90514610264578063ae0b51df14610280578063c2fc94a11461029c57610137565b806363cdd26b116100ff57806363cdd26b146101be578063715018a6146101da5780637ab2af2b146101e45780637cb64759146102025780637dc673bc1461021e57610137565b80630510077d1461013c578063158e8f851461015a57806324fd265214610178578063293cdbf1146101965780632eb4a7ab146101a0575b600080fd5b61014461037a565b6040516101519190611c63565b60405180910390f35b610162610435565b60405161016f9190611ca3565b60405180910390f35b610180610499565b60405161018d9190611cb4565b60405180910390f35b61019e6104ac565b005b6101a8610575565b6040516101b59190611cc7565b60405180910390f35b6101d860048036038101906101d39190611d9f565b61057b565b005b6101e261064e565b005b6101ec610662565b6040516101f99190611cb4565b60405180910390f35b61021c60048036038101906102179190611e3b565b610675565b005b6102266106d7565b005b6102306107a0565b60405161023d9190611e5d565b60405180910390f35b61024e6107ca565b60405161025b9190611ca3565b60405180910390f35b61027e60048036038101906102799190611f48565b61082e565b005b61029a60048036038101906102959190612009565b610921565b005b6102a4610e45565b005b6102c060048036038101906102bb91906120e7565b610f0e565b6040516102cd9190611cb4565b60405180910390f35b6102f060048036038101906102eb91906120e7565b610f8a565b6040516102fd9190611cb4565b60405180910390f35b61030e610faa565b005b61032a60048036038101906103259190612119565b611073565b6040516103379190611ca3565b60405180910390f35b61035a600480360381019061035591906120e7565b6110cc565b005b610364611152565b604051610371919061213b565b60405180910390f35b610382611c2e565b61039667e3e9c6e8a4ace33c60c01b611176565b6103aa678d5deb2946daae0560c01b611176565b6103be67c4233f0c04b249ed60c01b611176565b60006040518060a00160405290816000820160009054906101000a900460ff16151515158152602001600182015481526020016002820160009054906101000a900460ff16151515158152602001600382015481526020016004820160009054906101000a900460ff161515151581525050905090565b600061044b67568c8ed8b3c9dc7660c01b611176565b61045f67e1db4d209f54ffe960c01b611176565b61047367743cdd815abaa2ee60c01b611176565b7f0000000000000000000000000000000000000000000000000000000000000000905090565b600a60019054906101000a900460ff1681565b6104c067478bfd6ae9af69c960c01b611176565b6104c8611179565b6104dc6788ea394e2f1393e760c01b611176565b6104f067a628b37cce38632060c01b611176565b61050467e9cb3bce668da3b060c01b611176565b6001600a60016101000a81548160ff02191690831515021790555061053367844958ef9fb0a89360c01b611176565b61054767a85bfda05ae3b12760c01b611176565b7f0a1c1f14fb576fdcf33dc5fa27868e61fd4447b0e37a37413baac599860ce15160405160405180910390a1565b60085481565b61058f6705aa4d04f98e774e60c01b611176565b610597611179565b6105ab67f4514bcc57544bb960c01b611176565b6105bf6732b9f6797e6aa4a760c01b611176565b6105d266ca924e55d4ce4f60c01b611176565b806000808201518160000160006101000a81548160ff0219169083151502179055506020820151816001015560408201518160020160006101000a81548160ff0219169083151502179055506060820151816003015560808201518160040160006101000a81548160ff02191690831515021790555090505050565b610656611179565b6106606000611200565b565b600a60009054906101000a900460ff1681565b6106896798cad8672182fa1960c01b611176565b610691611179565b6106a5675578c2151aeb96bc60c01b611176565b6106b967e5f4277641cc998f60c01b611176565b6106cd67a4c150a263ec83cd60c01b611176565b8060088190555050565b6106eb673bb7502baadbe0d660c01b611176565b6106f3611179565b61070767b0e689c1477b948160c01b611176565b61071b672aebeecbec92626160c01b611176565b61072f679c68e970dfa1c60b60c01b611176565b6000600a60006101000a81548160ff02191690831515021790555061075e67dd32bba283f2d9b660c01b611176565b610772678831767d61adf4f760c01b611176565b7f288d754f7e5984845916eb8e61674ddebd6ad70a1b2aca6c47c5deb70b59be2560405160405180910390a1565b6000600760009054906101000a900473ffffffffffffffffffffffffffffffffffffffff16905090565b60006107e067dfefdcde51d8ba3d60c01b611176565b6107f467f28191012cf7575360c01b611176565b61080867df4d61477714b2e160c01b611176565b7f0000000000000000000000000000000000000000000000000000000000000000905090565b6108426760d31af08743a14f60c01b611176565b6108566799e3519ec072929b60c01b611176565b61086a67a4d56f3f3fe6628660c01b611176565b600a60009054906101000a900460ff166108d8576108926705348248d735e00260c01b611176565b6108a667c199a736d53e542960c01b611176565b6040517f153745d300000000000000000000000000000000000000000000000000000000815260040160405180910390fd5b6108ec670c8834aa94536e9760c01b611176565b61090067f45456395b41d34260c01b611176565b61091467727f578fe74a636d60c01b611176565b61091d816112c6565b5050565b61093567779c9b26a225ada160c01b611176565b61094967ad1bb537e09e348660c01b611176565b61095d676ddc2f9b6ed6a13d60c01b611176565b600a60009054906101000a900460ff16156109cc5761098667513be2f149a7ae5260c01b611176565b61099a675ad8cb200e4d171360c01b611176565b6040517f697e379b00000000000000000000000000000000000000000000000000000000815260040160405180910390fd5b6109e067d984c07be484ac2b60c01b611176565b6109f467b30992bd01b5a22e60c01b611176565b610a086705b88e02d4567b9160c01b611176565b600a60019054906101000a900460ff16610a7657610a3067ef762b74045dc22360c01b611176565b610a446727f5766855ae398c60c01b611176565b6040517f6b68780600000000000000000000000000000000000000000000000000000000815260040160405180910390fd5b610a8a677f32fda28066eb9960c01b611176565b610a9e678fae54824331338960c01b611176565b610ab2679ca81e3d1d6b0d1b60c01b611176565b600960003373ffffffffffffffffffffffffffffffffffffffff1673ffffffffffffffffffffffffffffffffffffffff16815260200190815260200160002060009054906101000a900460ff1615610b5e57610b1867937cabde409997a160c01b611176565b610b2c67bc0677c9dfa36ae860c01b611176565b6040517f646cf55800000000000000000000000000000000000000000000000000000000815260040160405180910390fd5b610b72676fd9ee24c7a006b660c01b611176565b610b86670d7d4f2c2d1de81e60c01b611176565b610b9a67b54d58ce72c7890960c01b611176565b600660003373ffffffffffffffffffffffffffffffffffffffff16815260200190815260200160002060009054906101000a900460ff16610c3a57610be967ef0ba9411c771ec460c01b611176565b610bfd670b76f3bfae41ca4360c01b611176565b336040517fbfc6c337000000000000000000000000000000000000000000000000000000008152600401610c319190611e5d565b60405180910390fd5b610c4e67187b0dd7aa0b1fb460c01b611176565b610c62670e243dc2bbc5d73b60c01b611176565b610c7667206344dd8ef8d28d60c01b611176565b6000833384604051602001610c8d93929190612154565b604051602081830303815290604052805190602001209050610cb967412adc251a88e7c060c01b611176565b610ccd6747bd89305fe2dd5460c01b611176565b610cda82600854836119d6565b610d2457610cf267b7ee9a6f05160a3b60c01b611176565b6040517f09bde33900000000000000000000000000000000000000000000000000000000815260040160405180910390fd5b610d38678d583a90370c0f7160c01b611176565b610d4c67080ff8e93f3037e960c01b611176565b610d6067227ece0ff54624a560c01b611176565b610d69846119ed565b610d7d67f4ad886deb17048260c01b611176565b610d9167d03f415cd6ed3c1560c01b611176565b610ddc33847f000000000000000000000000000000000000000000000000000000000000000073ffffffffffffffffffffffffffffffffffffffff16611a709092919063ffffffff16565b610df067fc23107b0527cd8a60c01b611176565b610e0467e57c008cbc37592760c01b611176565b7f4ec90e965519d92681267467f775ada5bd214aa92c0dc93d90a5e880ce9ed026843385604051610e3793929190612185565b60405180910390a150505050565b610e59678c093a5761bf49b560c01b611176565b610e61611179565b610e7567ece80a449808a72360c01b611176565b610e896730096360d4230cb060c01b611176565b610e9d6799d07baea5bd8c2a60c01b611176565b6000600a60016101000a81548160ff021916908315150217905550610ecc678712bbf7ccee7df960c01b611176565b610ee067a1add89a0470c6a960c01b611176565b7fd9cdc0c7d0e14acb34ad43d7476a560503dbdee12d1d6185e8edbb420b3dfd5760405160405180910390a1565b6000610f2467126fd6e8622c9b9760c01b611176565b610f3867d70ba6a65d123fd160c01b611176565b610f4c6763e2e72d9df8992c60c01b611176565b600660008373ffffffffffffffffffffffffffffffffffffffff16815260200190815260200160002060009054906101000a900460ff169050919050565b60096020528060005260406000206000915054906101000a900460ff1681565b610fbe67bec222b02ea1680c60c01b611176565b610fc6611179565b610fda67cc9ef77c0899457760c01b611176565b610fee679ffc03cabfd237ee60c01b611176565b61100267b2455c042ac321c560c01b611176565b6001600a60006101000a81548160ff02191690831515021790555061103167e3dcc6adcb3aa0a160c01b611176565b611045674222a5298c025d4360c01b611176565b7f79ca010d28c7a51d53028fb1d0e0b0e1e129832dcc1bb4be0ae511096051c65160405160405180910390a1565b600061108967a2d6eb29f4bf02b960c01b611176565b61109d6701d21babfcad460c60c01b611176565b6110b167d0294acaca1049a860c01b611176565b60056000838152602001908152602001600020549050919050565b6110d4611179565b600073ffffffffffffffffffffffffffffffffffffffff168173ffffffffffffffffffffffffffffffffffffffff16036111465760006040517f1e4fbdf700000000000000000000000000000000000000000000000000000000815260040161113d9190611e5d565b60405180910390fd5b61114f81611200565b50565b7f000000000000000000000000000000000000000000000000000000000000000081565b50565b611181611aef565b73ffffffffffffffffffffffffffffffffffffffff1661119f6107a0565b73ffffffffffffffffffffffffffffffffffffffff16146111fe576111c2611aef565b6040517f118cdaa70000000000000000000000000000000000000000000000000000000081526004016111f59190611e5d565b60405180910390fd5b565b6000600760009054906101000a900473ffffffffffffffffffffffffffffffffffffffff16905081600760006101000a81548173ffffffffffffffffffffffffffffffffffffffff021916908373ffffffffffffffffffffffffffffffffffffffff1602179055508173ffffffffffffffffffffffffffffffffffffffff168173ffffffffffffffffffffffffffffffffffffffff167f8be0079c531659141344cd1fd0a4f28419497f9722a3daafe3b4186f6b6457e060405160405180910390a35050565b60006112dc67609b8ba95874a81960c01b611af7565b6112f067efe428ae91aca15d60c01b611af7565b61130467fe200d87a5756ec960c01b611af7565b8160600151600e6010811061131c5761131b6121ac565b5b60200201517f0000000000000000000000000000000000000000000000000000000000000000146113a15761135b6776508ece7e7dfe3060c01b611af7565b61136f67116f0a703f7a801760c01b611af7565b6040517f725a844f00000000000000000000000000000000000000000000000000000000815260040160405180910390fd5b6113b567b8c2e408ef0279e760c01b611af7565b6113c96753e8cba52e5d426960c01b611af7565b6113dd67a76c8942630cbae460c01b611af7565b60006005600084606001516004601081106113fb576113fa6121ac565b5b60200201518152602001908152602001600020541461146e57611428678541784851eedda760c01b611af7565b61143c67931e9a7e97b2355460c01b611af7565b6040517f22cbc6a200000000000000000000000000000000000000000000000000000000815260040160405180910390fd5b611482674923b61c978d811860c01b611af7565b6114966717cfa81a498ef8e260c01b611af7565b6114aa67e0708fe6398dc8e360c01b611af7565b81606001516005601081106114c2576114c16121ac565b5b60200201517f0000000000000000000000000000000000000000000000000000000000000000146115475761150167488aafd0045cdc9560c01b611af7565b61151567bee7dd10e09971d360c01b611af7565b6040517f12ec75fe00000000000000000000000000000000000000000000000000000000815260040160405180910390fd5b61155b67040a99d76df025d460c01b611af7565b61156f67c11f23739d4f470260c01b611af7565b61158367f60be875ac4c0d8f60c01b611af7565b60007f000000000000000000000000000000000000000000000000000000000000000073ffffffffffffffffffffffffffffffffffffffff166337bd5ff86040518060c001604052806000800160009054906101000a900460ff16151581526020016000600101548152602001600060020160009054906101000a900460ff16151581526020016000600301548152602001600060040160009054906101000a900460ff1615158152602001868152506040518263ffffffff1660e01b815260040161164f91906121f0565b61012060405180830381865afa15801561166d573d6000803e3d6000fd5b505050506040513d601f19601f8201168201806040525081019061169191906122c8565b90506116a767c3b1b18fba0bfba760c01b611af7565b6116bb67da0f7d850ad2b10360c01b611af7565b60007f000000000000000000000000000000000000000000000000000000000000000014611856576116f7679ba4ea072870ec9a60c01b611af7565b61170b67cc180aa2eb77680a60c01b611af7565b61171f672865a83a5e67e56860c01b611af7565b7f00000000000000000000000000000000000000000000000000000000000000007f000000000000000000000000000000000000000000000000000000000000000073ffffffffffffffffffffffffffffffffffffffff1663ede12d9f83608001516040518263ffffffff1660e01b815260040161179d9190611ca3565b602060405180830381865afa1580156117ba573d6000803e3d6000fd5b505050506040513d601f19601f820116820180604052508101906117de91906123a8565b1461183d576117f7671bc544e0f4cd10b160c01b611af7565b61180b67f1c4382ac414dec260c01b611af7565b6040517fb7d0949700000000000000000000000000000000000000000000000000000000815260040160405180910390fd5b61185167366f6ae292cb25cc60c01b611af7565b61186b565b61186a6721e71f789e57b1bd60c01b611af7565b5b61187f674f3a33e30cf56dff60c01b611af7565b8260600151600f60108110611897576118966121ac565b5b60200201516005600083606001518152602001908152602001600020819055506118cb6738834bf9dde1bc9a60c01b611af7565b6001600660008560600151600f601081106118e9576118e86121ac565b5b6020020151815260200190815260200160002060006101000a81548160ff02191690831515021790555061192767d7067c0b766a58ef60c01b611af7565b61193b67dc9e0d578958c40660c01b611af7565b80606001518360600151600f60108110611958576119576121ac565b5b60200201517fad6acfd310a8e8e3e0942ab383e1cc0eb70bd08613de2f8b2aca878a3de9eaf060405160405180910390a361199d6707aefaf796e1717f60c01b611af7565b6119b1678673b9603467ca8360c01b611af7565b8260600151600f601081106119c9576119c86121ac565b5b6020020151915050919050565b6000826119e38584611afa565b1490509392505050565b611a0167ac5bb661b7aeaddf60c01b611176565b611a1567d7ce8d6a73d48e1560c01b611176565b6001600960003373ffffffffffffffffffffffffffffffffffffffff1673ffffffffffffffffffffffffffffffffffffffff16815260200190815260200160002060006101000a81548160ff02191690831515021790555050565b611aea838473ffffffffffffffffffffffffffffffffffffffff1663a9059cbb8585604051602401611aa39291906123ca565b604051602081830303815290604052915060e01b6020820180517bffffffffffffffffffffffffffffffffffffffffffffffffffffffff8381831617835250505050611b4a565b505050565b600033905090565b50565b60008082905060005b8451811015611b3f57611b3082868381518110611b2357611b226121ac565b5b6020026020010151611bec565b91508080600101915050611b03565b508091505092915050565b600080602060008451602086016000885af180611b6d576040513d6000823e3d81fd5b503d9150600051905060008214611b88576001811415611ba4565b60008473ffffffffffffffffffffffffffffffffffffffff163b145b15611be657836040517f5274afe7000000000000000000000000000000000000000000000000000000008152600401611bdd9190611e5d565b60405180910390fd5b50505050565b6000818310611c0457611bff8284611c17565b611c0f565b611c0e8383611c17565b5b905092915050565b600082600052816020526040600020905092915050565b6040518060a0016040528060001515815260200160008152602001600015158152602001600081526020016000151581525090565b600060a082019050825115158252602083015160208301526040830151151560408301526060830151606083015260808301511515608083015292915050565b600060208201905082825292915050565b6000602082019050821515825292915050565b600060208201905082825292915050565b634e487b7160e01b600052604160045260246000fd5b600060405190506080810181811067ffffffffffffffff82111715611d1657611d15611cd8565b5b806040525090565b6000604051905060e0810181811067ffffffffffffffff82111715611d4657611d45611cd8565b5b806040525090565b60006040519050601f19601f830116810181811067ffffffffffffffff82111715611d7c57611d7b611cd8565b5b8060405250919050565b6000813590508015158114611d9a57600080fd5b919050565b600060a0828403128015611db257600080fd5b60009050506000604051905060a0810181811067ffffffffffffffff82111715611ddf57611dde611cd8565b5b8060405250611ded83611d86565b815260006020840135905080602083015250611e0b60408401611d86565b604082015260006060840135905080606083015250611e2c60808401611d86565b60808201528091505092915050565b600060208284031215611e4d57600080fd5b6000823590508091505092915050565b600060208201905060018060a01b038316825292915050565b600082601f830112611e8757600080fd5b6000806040905050611e996040611d4e565b9050806040840185811115611ead57600080fd5b845b81811015611ed25760008135905080845250602083019250602081019050611eaf565b5050508091505092915050565b600082601f830112611ef057600080fd5b6000806102009050611f0181611d4e565b915081818501915085821115611f1657600080fd5b845b82811015611f3b5760008135905080835250602082019150602081019050611f18565b5050508091505092915050565b6000610300828403128015611f5c57600080fd5b60009050611f68611cee565b611f728585611e76565b815284605f850112611f82578182fd5b81828390505060409050611f966040611d4e565b8060c0870188811115611fa7578586fd5b6040880195505b80861015611fd257611fc08987611e76565b83526020830192508386019550611fae565b816020860152611fe28982611e76565b604086015250505050611ff9856101008601611edf565b6060820152809250505092915050565b60008060006060848603121561201e57600080fd5b6000843590508093505060006020850135905080925050604084013567ffffffffffffffff81111561204f57600080fd5b808501905085601f82011261206357600080fd5b803567ffffffffffffffff81111561207e5761207d611cd8565b5b8060051b61208e60208201611d4e565b808382526020820191506020838601019350898411156120ad57600080fd5b6020850194505b838510156120d85760009250843592508282526020820191506020850194506120b4565b80955050505050509250925092565b6000602082840312156120f957600080fd5b813560018060a01b038116811461210f57600080fd5b8091505092915050565b60006020828403121561212b57600080fd5b6000823590508091505092915050565b600060208201905060018060a01b038316825292915050565b8381526bffffffffffffffffffffffff198360601b1660208201528160348201526000605482019050949350505050565b600060608201905084825260018060a01b0384166020830152826040830152949350505050565b634e487b7160e01b600052603260045260246000fd5b8060005b60028110156121ea57815184526020840193506020820191506001810190506121c6565b50505050565b60006103a082019050825115158252602083015160208301526040830151151560408301526060830151606083015260808301511515608083015260a083015161223e60a0840182516121c2565b602081015160e0840160005b60028110156122755761225e8284516121c2565b60408201915060208301925060018101905061224a565b505050604081015161228b6101608501826121c2565b50606081015190506101a0830160005b60108110156122bf578251825260208201915060208301925060018101905061229b565b50505092915050565b60006101208284031280156122dc57600080fd5b600090506122e8611d1e565b8184519050808252508160208501519050806020830152508160408501519050806040830152508160608501519050806060830152508160808501519050806080830152508460bf85011261233b578182fd5b81828390505060609050506123506060611d4e565b80610100860187811115612362578485fd5b60a087015b8181101561238957858151905080855250602084019350602081019050612367565b508160a0850152805194505050508160c0820152809250505092915050565b6000602082840312156123ba57600080fd5b6000825190508091505092915050565b600060408201905060018060a01b0384168252826020830152939250505056fea164736f6c634300081c000a",
  "linkReferences": {},
  "deployedLinkReferences": {}
}