{
  "_format": "hh-sol-artifact-1",
  "contractName": "IdentityRegistryImplV1",
  "sourceName": "contracts/registry/IdentityRegistryImplV1.sol",
  "abi": [
    {
      "inputs": [],
      "stateMutability": "nonpayable",
      "type": "constructor"
    },
    {
      "inputs": [
        {
          "internalType": "address",
          "name": "target",
          "type": "address"
        }
      ],
      "name": "AddressEmptyCode",
      "type": "error"
    },
    {
      "inputs": [
        {
          "internalType": "address",
          "name": "implementation",
          "type": "address"
        }
      ],
      "name": "ERC1967InvalidImplementation",
      "type": "error"
    },
    {
      "inputs": [],
      "name": "ERC1967NonPayable",
      "type": "error"
    },
    {
      "inputs": [],
      "name": "FailedCall",
      "type": "error"
    },
    {
      "inputs": [],
      "name": "HUB_NOT_SET",
      "type": "error"
    },
    {
      "inputs": [],
      "name": "InvalidInitialization",
      "type": "error"
    },
    {
      "inputs": [],
      "name": "LeafAlreadyExists",
      "type": "error"
    },
    {
      "inputs": [],
      "name": "LeafCannotBeZero",
      "type": "error"
    },
    {
      "inputs": [],
      "name": "LeafDoesNotExist",
      "type": "error"
    },
    {
      "inputs": [],
      "name": "LeafGreaterThanSnarkScalarField",
      "type": "error"
    },
    {
      "inputs": [],
      "name": "NotInitializing",
      "type": "error"
    },
    {
      "inputs": [],
      "name": "ONLY_HUB_CAN_ACCESS",
      "type": "error"
    },
    {
      "inputs": [
        {
          "internalType": "address",
          "name": "owner",
          "type": "address"
        }
      ],
      "name": "OwnableInvalidOwner",
      "type": "error"
    },
    {
      "inputs": [
        {
          "internalType": "address",
          "name": "account",
          "type": "address"
        }
      ],
      "name": "OwnableUnauthorizedAccount",
      "type": "error"
    },
    {
      "inputs": [],
      "name": "REGISTERED_COMMITMENT",
      "type": "error"
    },
    {
      "inputs": [],
      "name": "UUPSUnauthorizedCallContext",
      "type": "error"
    },
    {
      "inputs": [
        {
          "internalType": "bytes32",
          "name": "slot",
          "type": "bytes32"
        }
      ],
      "name": "UUPSUnsupportedProxiableUUID",
      "type": "error"
    },
    {
      "inputs": [],
      "name": "WrongSiblingNodes",
      "type": "error"
    },
    {
      "anonymous": false,
      "inputs": [
        {
          "indexed": true,
          "internalType": "bytes32",
          "name": "attestationId",
          "type": "bytes32"
        },
        {
          "indexed": true,
          "internalType": "uint256",
          "name": "nullifier",
          "type": "uint256"
        },
        {
          "indexed": true,
          "internalType": "uint256",
          "name": "commitment",
          "type": "uint256"
        },
        {
          "indexed": false,
          "internalType": "uint256",
          "name": "timestamp",
          "type": "uint256"
        },
        {
          "indexed": false,
          "internalType": "uint256",
          "name": "imtRoot",
          "type": "uint256"
        },
        {
          "indexed": false,
          "internalType": "uint256",
          "name": "imtIndex",
          "type": "uint256"
        }
      ],
      "name": "CommitmentRegistered",
      "type": "event"
    },
    {
      "anonymous": false,
      "inputs": [
        {
          "indexed": false,
          "internalType": "uint256",
          "name": "cscaRoot",
          "type": "uint256"
        }
      ],
      "name": "CscaRootUpdated",
      "type": "event"
    },
    {
      "anonymous": false,
      "inputs": [
        {
          "indexed": true,
          "internalType": "bytes32",
          "name": "attestationId",
          "type": "bytes32"
        },
        {
          "indexed": true,
          "internalType": "uint256",
          "name": "nullifier",
          "type": "uint256"
        },
        {
          "indexed": true,
          "internalType": "uint256",
          "name": "commitment",
          "type": "uint256"
        },
        {
          "indexed": false,
          "internalType": "uint256",
          "name": "timestamp",
          "type": "uint256"
        },
        {
          "indexed": false,
          "internalType": "uint256",
          "name": "imtRoot",
          "type": "uint256"
        },
        {
          "indexed": false,
          "internalType": "uint256",
          "name": "imtIndex",
          "type": "uint256"
        }
      ],
      "name": "DevCommitmentRegistered",
      "type": "event"
    },
    {
      "anonymous": false,
      "inputs": [
        {
          "indexed": true,
          "internalType": "uint256",
          "name": "oldLeaf",
          "type": "uint256"
        },
        {
          "indexed": false,
          "internalType": "uint256",
          "name": "imtRoot",
          "type": "uint256"
        },
        {
          "indexed": false,
          "internalType": "uint256",
          "name": "timestamp",
          "type": "uint256"
        }
      ],
      "name": "DevCommitmentRemoved",
      "type": "event"
    },
    {
      "anonymous": false,
      "inputs": [
        {
          "indexed": true,
          "internalType": "uint256",
          "name": "oldLeaf",
          "type": "uint256"
        },
        {
          "indexed": true,
          "internalType": "uint256",
          "name": "newLeaf",
          "type": "uint256"
        },
        {
          "indexed": false,
          "internalType": "uint256",
          "name": "imtRoot",
          "type": "uint256"
        },
        {
          "indexed": false,
          "internalType": "uint256",
          "name": "timestamp",
          "type": "uint256"
        }
      ],
      "name": "DevCommitmentUpdated",
      "type": "event"
    },
    {
      "anonymous": false,
      "inputs": [
        {
          "indexed": true,
          "internalType": "uint256",
          "name": "commitment",
          "type": "uint256"
        },
        {
          "indexed": false,
          "internalType": "uint256",
          "name": "imtRoot",
          "type": "uint256"
        },
        {
          "indexed": false,
          "internalType": "uint256",
          "name": "imtIndex",
          "type": "uint256"
        }
      ],
      "name": "DevDscKeyCommitmentRegistered",
      "type": "event"
    },
    {
      "anonymous": false,
      "inputs": [
        {
          "indexed": true,
          "internalType": "uint256",
          "name": "oldLeaf",
          "type": "uint256"
        },
        {
          "indexed": false,
          "internalType": "uint256",
          "name": "imtRoot",
          "type": "uint256"
        }
      ],
      "name": "DevDscKeyCommitmentRemoved",
      "type": "event"
    },
    {
      "anonymous": false,
      "inputs": [
        {
          "indexed": true,
          "internalType": "uint256",
          "name": "commitment",
          "type": "uint256"
        },
        {
          "indexed": false,
          "internalType": "bool",
          "name": "state",
          "type": "bool"
        }
      ],
      "name": "DevDscKeyCommitmentStateChanged",
      "type": "event"
    },
    {
      "anonymous": false,
      "inputs": [
        {
          "indexed": true,
          "internalType": "uint256",
          "name": "oldLeaf",
          "type": "uint256"
        },
        {
          "indexed": true,
          "internalType": "uint256",
          "name": "newLeaf",
          "type": "uint256"
        },
        {
          "indexed": false,
          "internalType": "uint256",
          "name": "imtRoot",
          "type": "uint256"
        }
      ],
      "name": "DevDscKeyCommitmentUpdated",
      "type": "event"
    },
    {
      "anonymous": false,
      "inputs": [
        {
          "indexed": true,
          "internalType": "bytes32",
          "name": "attestationId",
          "type": "bytes32"
        },
        {
          "indexed": true,
          "internalType": "uint256",
          "name": "nullifier",
          "type": "uint256"
        },
        {
          "indexed": false,
          "internalType": "bool",
          "name": "state",
          "type": "bool"
        }
      ],
      "name": "DevNullifierStateChanged",
      "type": "event"
    },
    {
      "anonymous": false,
      "inputs": [
        {
          "indexed": true,
          "internalType": "uint256",
          "name": "commitment",
          "type": "uint256"
        },
        {
          "indexed": false,
          "internalType": "uint256",
          "name": "timestamp",
          "type": "uint256"
        },
        {
          "indexed": false,
          "internalType": "uint256",
          "name": "imtRoot",
          "type": "uint256"
        },
        {
          "indexed": false,
          "internalType": "uint256",
          "name": "imtIndex",
          "type": "uint256"
        }
      ],
      "name": "DscKeyCommitmentRegistered",
      "type": "event"
    },
    {
      "anonymous": false,
      "inputs": [
        {
          "indexed": false,
          "internalType": "address",
          "name": "hub",
          "type": "address"
        }
      ],
      "name": "HubUpdated",
      "type": "event"
    },
    {
      "anonymous": false,
      "inputs": [
        {
          "indexed": false,
          "internalType": "uint64",
          "name": "version",
          "type": "uint64"
        }
      ],
      "name": "Initialized",
      "type": "event"
    },
    {
      "anonymous": false,
      "inputs": [
        {
          "indexed": false,
          "internalType": "uint256",
          "name": "nameAndDobOfacRoot",
          "type": "uint256"
        }
      ],
      "name": "NameAndDobOfacRootUpdated",
      "type": "event"
    },
    {
      "anonymous": false,
      "inputs": [
        {
          "indexed": false,
          "internalType": "uint256",
          "name": "nameAndYobOfacRoot",
          "type": "uint256"
        }
      ],
      "name": "NameAndYobOfacRootUpdated",
      "type": "event"
    },
    {
      "anonymous": false,
      "inputs": [
        {
          "indexed": true,
          "internalType": "address",
          "name": "previousOwner",
          "type": "address"
        },
        {
          "indexed": true,
          "internalType": "address",
          "name": "newOwner",
          "type": "address"
        }
      ],
      "name": "OwnershipTransferStarted",
      "type": "event"
    },
    {
      "anonymous": false,
      "inputs": [
        {
          "indexed": true,
          "internalType": "address",
          "name": "previousOwner",
          "type": "address"
        },
        {
          "indexed": true,
          "internalType": "address",
          "name": "newOwner",
          "type": "address"
        }
      ],
      "name": "OwnershipTransferred",
      "type": "event"
    },
    {
      "anonymous": false,
      "inputs": [
        {
          "indexed": false,
          "internalType": "uint256",
          "name": "passportNoOfacRoot",
          "type": "uint256"
        }
      ],
      "name": "PassportNoOfacRootUpdated",
      "type": "event"
    },
    {
      "anonymous": false,
      "inputs": [
        {
          "indexed": false,
          "internalType": "address",
          "name": "hub",
          "type": "address"
        }
      ],
      "name": "RegistryInitialized",
      "type": "event"
    },
    {
      "anonymous": false,
      "inputs": [
        {
          "indexed": true,
          "internalType": "address",
          "name": "implementation",
          "type": "address"
        }
      ],
      "name": "Upgraded",
      "type": "event"
    },
    {
      "inputs": [],
      "name": "UPGRADE_INTERFACE_VERSION",
      "outputs": [
        {
          "internalType": "string",
          "name": "",
          "type": "string"
        }
      ],
      "stateMutability": "view",
      "type": "function"
    },
    {
      "inputs": [],
      "name": "acceptOwnership",
      "outputs": [],
      "stateMutability": "nonpayable",
      "type": "function"
    },
    {
      "inputs": [
        {
          "internalType": "uint256",
          "name": "root",
          "type": "uint256"
        }
      ],
      "name": "checkCscaRoot",
      "outputs": [
        {
          "internalType": "bool",
          "name": "",
          "type": "bool"
        }
      ],
      "stateMutability": "view",
      "type": "function"
    },
    {
      "inputs": [
        {
          "internalType": "uint256",
          "name": "root",
          "type": "uint256"
        }
      ],
      "name": "checkDscKeyCommitmentMerkleRoot",
      "outputs": [
        {
          "internalType": "bool",
          "name": "",
          "type": "bool"
        }
      ],
      "stateMutability": "view",
      "type": "function"
    },
    {
      "inputs": [
        {
          "internalType": "uint256",
          "name": "root",
          "type": "uint256"
        }
      ],
      "name": "checkIdentityCommitmentRoot",
      "outputs": [
        {
          "internalType": "bool",
          "name": "",
          "type": "bool"
        }
      ],
      "stateMutability": "view",
      "type": "function"
    },
    {
      "inputs": [
        {
          "internalType": "uint256",
          "name": "passportNoRoot",
          "type": "uint256"
        },
        {
          "internalType": "uint256",
          "name": "nameAndDobRoot",
          "type": "uint256"
        },
        {
          "internalType": "uint256",
          "name": "nameAndYobRoot",
          "type": "uint256"
        }
      ],
      "name": "checkOfacRoots",
      "outputs": [
        {
          "internalType": "bool",
          "name": "",
          "type": "bool"
        }
      ],
      "stateMutability": "view",
      "type": "function"
    },
    {
      "inputs": [
        {
          "internalType": "uint256",
          "name": "dscCommitment",
          "type": "uint256"
        }
      ],
      "name": "devAddDscKeyCommitment",
      "outputs": [],
      "stateMutability": "nonpayable",
      "type": "function"
    },
    {
      "inputs": [
        {
          "internalType": "bytes32",
          "name": "attestationId",
          "type": "bytes32"
        },
        {
          "internalType": "uint256",
          "name": "nullifier",
          "type": "uint256"
        },
        {
          "internalType": "uint256",
          "name": "commitment",
          "type": "uint256"
        }
      ],
      "name": "devAddIdentityCommitment",
      "outputs": [],
      "stateMutability": "nonpayable",
      "type": "function"
    },
    {
      "inputs": [
        {
          "internalType": "uint256",
          "name": "dscCommitment",
          "type": "uint256"
        },
        {
          "internalType": "bool",
          "name": "state",
          "type": "bool"
        }
      ],
      "name": "devChangeDscKeyCommitmentState",
      "outputs": [],
      "stateMutability": "nonpayable",
      "type": "function"
    },
    {
      "inputs": [
        {
          "internalType": "bytes32",
          "name": "attestationId",
          "type": "bytes32"
        },
        {
          "internalType": "uint256",
          "name": "nullifier",
          "type": "uint256"
        },
        {
          "internalType": "bool",
          "name": "state",
          "type": "bool"
        }
      ],
      "name": "devChangeNullifierState",
      "outputs": [],
      "stateMutability": "nonpayable",
      "type": "function"
    },
    {
      "inputs": [
        {
          "internalType": "uint256",
          "name": "oldLeaf",
          "type": "uint256"
        },
        {
          "internalType": "uint256[]",
          "name": "siblingNodes",
          "type": "uint256[]"
        }
      ],
      "name": "devRemoveCommitment",
      "outputs": [],
      "stateMutability": "nonpayable",
      "type": "function"
    },
    {
      "inputs": [
        {
          "internalType": "uint256",
          "name": "oldLeaf",
          "type": "uint256"
        },
        {
          "internalType": "uint256[]",
          "name": "siblingNodes",
          "type": "uint256[]"
        }
      ],
      "name": "devRemoveDscKeyCommitment",
      "outputs": [],
      "stateMutability": "nonpayable",
      "type": "function"
    },
    {
      "inputs": [
        {
          "internalType": "uint256",
          "name": "oldLeaf",
          "type": "uint256"
        },
        {
          "internalType": "uint256",
          "name": "newLeaf",
          "type": "uint256"
        },
        {
          "internalType": "uint256[]",
          "name": "siblingNodes",
          "type": "uint256[]"
        }
      ],
      "name": "devUpdateCommitment",
      "outputs": [],
      "stateMutability": "nonpayable",
      "type": "function"
    },
    {
      "inputs": [
        {
          "internalType": "uint256",
          "name": "oldLeaf",
          "type": "uint256"
        },
        {
          "internalType": "uint256",
          "name": "newLeaf",
          "type": "uint256"
        },
        {
          "internalType": "uint256[]",
          "name": "siblingNodes",
          "type": "uint256[]"
        }
      ],
      "name": "devUpdateDscKeyCommitment",
      "outputs": [],
      "stateMutability": "nonpayable",
      "type": "function"
    },
    {
      "inputs": [],
      "name": "getCscaRoot",
      "outputs": [
        {
          "internalType": "uint256",
          "name": "",
          "type": "uint256"
        }
      ],
      "stateMutability": "view",
      "type": "function"
    },
    {
      "inputs": [
        {
          "internalType": "uint256",
          "name": "commitment",
          "type": "uint256"
        }
      ],
      "name": "getDscKeyCommitmentIndex",
      "outputs": [
        {
          "internalType": "uint256",
          "name": "",
          "type": "uint256"
        }
      ],
      "stateMutability": "view",
      "type": "function"
    },
    {
      "inputs": [],
      "name": "getDscKeyCommitmentMerkleRoot",
      "outputs": [
        {
          "internalType": "uint256",
          "name": "",
          "type": "uint256"
        }
      ],
      "stateMutability": "view",
      "type": "function"
    },
    {
      "inputs": [],
      "name": "getDscKeyCommitmentTreeSize",
      "outputs": [
        {
          "internalType": "uint256",
          "name": "",
          "type": "uint256"
        }
      ],
      "stateMutability": "view",
      "type": "function"
    },
    {
      "inputs": [
        {
          "internalType": "uint256",
          "name": "commitment",
          "type": "uint256"
        }
      ],
      "name": "getIdentityCommitmentIndex",
      "outputs": [
        {
          "internalType": "uint256",
          "name": "",
          "type": "uint256"
        }
      ],
      "stateMutability": "view",
      "type": "function"
    },
    {
      "inputs": [],
      "name": "getIdentityCommitmentMerkleRoot",
      "outputs": [
        {
          "internalType": "uint256",
          "name": "",
          "type": "uint256"
        }
      ],
      "stateMutability": "view",
      "type": "function"
    },
    {
      "inputs": [],
      "name": "getIdentityCommitmentMerkleTreeSize",
      "outputs": [
        {
          "internalType": "uint256",
          "name": "",
          "type": "uint256"
        }
      ],
      "stateMutability": "view",
      "type": "function"
    },
    {
      "inputs": [],
      "name": "getNameAndDobOfacRoot",
      "outputs": [
        {
          "internalType": "uint256",
          "name": "",
          "type": "uint256"
        }
      ],
      "stateMutability": "view",
      "type": "function"
    },
    {
      "inputs": [],
      "name": "getNameAndYobOfacRoot",
      "outputs": [
        {
          "internalType": "uint256",
          "name": "",
          "type": "uint256"
        }
      ],
      "stateMutability": "view",
      "type": "function"
    },
    {
      "inputs": [],
      "name": "getPassportNoOfacRoot",
      "outputs": [
        {
          "internalType": "uint256",
          "name": "",
          "type": "uint256"
        }
      ],
      "stateMutability": "view",
      "type": "function"
    },
    {
      "inputs": [],
      "name": "hub",
      "outputs": [
        {
          "internalType": "address",
          "name": "",
          "type": "address"
        }
      ],
      "stateMutability": "view",
      "type": "function"
    },
    {
      "inputs": [
        {
          "internalType": "address",
          "name": "_hub",
          "type": "address"
        }
      ],
      "name": "initialize",
      "outputs": [],
      "stateMutability": "nonpayable",
      "type": "function"
    },
    {
      "inputs": [
        {
          "internalType": "uint256",
          "name": "commitment",
          "type": "uint256"
        }
      ],
      "name": "isRegisteredDscKeyCommitment",
      "outputs": [
        {
          "internalType": "bool",
          "name": "",
          "type": "bool"
        }
      ],
      "stateMutability": "view",
      "type": "function"
    },
    {
      "inputs": [
        {
          "internalType": "bytes32",
          "name": "attestationId",
          "type": "bytes32"
        },
        {
          "internalType": "uint256",
          "name": "nullifier",
          "type": "uint256"
        }
      ],
      "name": "nullifiers",
      "outputs": [
        {
          "internalType": "bool",
          "name": "",
          "type": "bool"
        }
      ],
      "stateMutability": "view",
      "type": "function"
    },
    {
      "inputs": [],
      "name": "owner",
      "outputs": [
        {
          "internalType": "address",
          "name": "",
          "type": "address"
        }
      ],
      "stateMutability": "view",
      "type": "function"
    },
    {
      "inputs": [],
      "name": "pendingOwner",
      "outputs": [
        {
          "internalType": "address",
          "name": "",
          "type": "address"
        }
      ],
      "stateMutability": "view",
      "type": "function"
    },
    {
      "inputs": [],
      "name": "proxiableUUID",
      "outputs": [
        {
          "internalType": "bytes32",
          "name": "",
          "type": "bytes32"
        }
      ],
      "stateMutability": "view",
      "type": "function"
    },
    {
      "inputs": [
        {
          "internalType": "bytes32",
          "name": "attestationId",
          "type": "bytes32"
        },
        {
          "internalType": "uint256",
          "name": "nullifier",
          "type": "uint256"
        },
        {
          "internalType": "uint256",
          "name": "commitment",
          "type": "uint256"
        }
      ],
      "name": "registerCommitment",
      "outputs": [],
      "stateMutability": "nonpayable",
      "type": "function"
    },
    {
      "inputs": [
        {
          "internalType": "uint256",
          "name": "dscCommitment",
          "type": "uint256"
        }
      ],
      "name": "registerDscKeyCommitment",
      "outputs": [],
      "stateMutability": "nonpayable",
      "type": "function"
    },
    {
      "inputs": [],
      "name": "renounceOwnership",
      "outputs": [],
      "stateMutability": "nonpayable",
      "type": "function"
    },
    {
      "inputs": [
        {
          "internalType": "uint256",
          "name": "root",
          "type": "uint256"
        }
      ],
      "name": "rootTimestamps",
      "outputs": [
        {
          "internalType": "uint256",
          "name": "",
          "type": "uint256"
        }
      ],
      "stateMutability": "view",
      "type": "function"
    },
    {
      "inputs": [
        {
          "internalType": "address",
          "name": "newOwner",
          "type": "address"
        }
      ],
      "name": "transferOwnership",
      "outputs": [],
      "stateMutability": "nonpayable",
      "type": "function"
    },
    {
      "inputs": [
        {
          "internalType": "uint256",
          "name": "newCscaRoot",
          "type": "uint256"
        }
      ],
      "name": "updateCscaRoot",
      "outputs": [],
      "stateMutability": "nonpayable",
      "type": "function"
    },
    {
      "inputs": [
        {
          "internalType": "address",
          "name": "newHubAddress",
          "type": "address"
        }
      ],
      "name": "updateHub",
      "outputs": [],
      "stateMutability": "nonpayable",
      "type": "function"
    },
    {
      "inputs": [
        {
          "internalType": "uint256",
          "name": "newNameAndDobOfacRoot",
          "type": "uint256"
        }
      ],
      "name": "updateNameAndDobOfacRoot",
      "outputs": [],
      "stateMutability": "nonpayable",
      "type": "function"
    },
    {
      "inputs": [
        {
          "internalType": "uint256",
          "name": "newNameAndYobOfacRoot",
          "type": "uint256"
        }
      ],
      "name": "updateNameAndYobOfacRoot",
      "outputs": [],
      "stateMutability": "nonpayable",
      "type": "function"
    },
    {
      "inputs": [
        {
          "internalType": "uint256",
          "name": "newPassportNoOfacRoot",
          "type": "uint256"
        }
      ],
      "name": "updatePassportNoOfacRoot",
      "outputs": [],
      "stateMutability": "nonpayable",
      "type": "function"
    },
    {
      "inputs": [
        {
          "internalType": "address",
          "name": "newImplementation",
          "type": "address"
        },
        {
          "internalType": "bytes",
          "name": "data",
          "type": "bytes"
        }
      ],
      "name": "upgradeToAndCall",
      "outputs": [],
      "stateMutability": "payable",
      "type": "function"
    }
  ],
  "bytecode": "0x60a06040523060805234801561001457600080fd5b5061001d610022565b6100d4565b7ff0c57e16840df040f15088dc2f81fe391c3923bec73e23a9662efc9c229c6a00805468010000000000000000900460ff16156100725760405163f92ee8a960e01b815260040160405180910390fd5b80546001600160401b03908116146100d15780546001600160401b0319166001600160401b0390811782556040519081527fc7f505b2f371ae2175ee4913f4499e1f2633a7b5936321eed1cdaeb6115181d29060200160405180910390a15b50565b6080516124546100fd6000396000818161134001528181611369015261157201526124546000f3fe6080604052600436106102515760003560e01c8063935fc12111610139578063c4d66de8116100b6578063ede12d9f1161007a578063ede12d9f14610695578063f2fde38b146106b5578063fbf08da9146106d5578063fc20a024146106f5578063fcceca2e14610715578063fd05ecd81461072a57600080fd5b8063c4d66de814610616578063c9c17b3f14610636578063d78ff6f514610656578063d9e508f91461066b578063e30c39781461068057600080fd5b8063ad3cb1cc116100fd578063ad3cb1cc14610563578063addee776146105a1578063aedba93c146105c1578063b1f643d5146105d6578063b3ccecb8146105f657600080fd5b8063935fc121146104c357806398966e3c146104e35780639a85d40a146105035780639fc1e42314610523578063ad26e6751461054357600080fd5b80634f1ef286116101d257806379ba50971161019657806379ba509714610424578063885811951461043957806388b7b189146104595780638da5cb5b146104795780638e39da031461048e5780639190d52b146104a357600080fd5b80634f1ef286146103bd57806352d1902d146103d057806364567e8a146103e5578063715018a6146103fa578063785b61a11461040f57600080fd5b80631f299f57116102195780631f299f571461031b578063365a86fc1461033b5780634378cb5314610368578063445257da146103885780634bf4dc7a146103a857600080fd5b806304175757146102565780630bc19639146102785780630f48a159146102985780631465ff7f146102b85780631bcc023d146102ed575b600080fd5b34801561026257600080fd5b50610276610271366004611f17565b61074a565b005b34801561028457600080fd5b50610276610293366004611f7c565b610796565b3480156102a457600080fd5b506102766102b3366004611fc8565b61080c565b3480156102c457600080fd5b506102d86102d3366004611f17565b610870565b60405190151581526020015b60405180910390f35b3480156102f957600080fd5b5061030d610308366004611f17565b610886565b6040519081526020016102e4565b34801561032757600080fd5b5061027661033636600461202b565b6108a1565b34801561034757600080fd5b50610350610908565b6040516001600160a01b0390911681526020016102e4565b34801561037457600080fd5b50610276610383366004611fc8565b610922565b34801561039457600080fd5b506102766103a3366004611f17565b610991565b3480156103b457600080fd5b5061030d610a91565b6102766103cb366004612084565b610ab1565b3480156103dc57600080fd5b5061030d610ad0565b3480156103f157600080fd5b5061030d610aed565b34801561040657600080fd5b50610276610afe565b34801561041b57600080fd5b5061030d610b12565b34801561043057600080fd5b50610276610b23565b34801561044557600080fd5b5061027661045436600461214e565b610b70565b34801561046557600080fd5b50610276610474366004611f17565b610be2565b34801561048557600080fd5b50610350610c27565b34801561049a57600080fd5b5061030d610c5c565b3480156104af57600080fd5b506102766104be366004611f17565b610c6d565b3480156104cf57600080fd5b506102d86104de366004612183565b610cb2565b3480156104ef57600080fd5b5061030d6104fe366004611f17565b610ce5565b34801561050f57600080fd5b5061027661051e366004612183565b610cfa565b34801561052f57600080fd5b506102d861053e366004611f17565b610e2a565b34801561054f57600080fd5b5061027661055e366004612183565b610e4b565b34801561056f57600080fd5b50610594604051806040016040528060058152602001640352e302e360dc1b81525081565b6040516102e491906121d3565b3480156105ad57600080fd5b506102d86105bc366004612206565b610ef0565b3480156105cd57600080fd5b5061030d610f1b565b3480156105e257600080fd5b506102766105f1366004611f17565b610f2c565b34801561060257600080fd5b50610276610611366004611f7c565b610f6f565b34801561062257600080fd5b50610276610631366004612228565b610fc2565b34801561064257600080fd5b50610276610651366004611f17565b61110d565b34801561066257600080fd5b5061030d61118b565b34801561067757600080fd5b5061030d6111ab565b34801561068c57600080fd5b506103506111bc565b3480156106a157600080fd5b5061030d6106b0366004611f17565b6111e5565b3480156106c157600080fd5b506102766106d0366004612228565b611202565b3480156106e157600080fd5b506102766106f0366004612228565b611287565b34801561070157600080fd5b506102d8610710366004611f17565b6112e5565b34801561072157600080fd5b5061030d611305565b34801561073657600080fd5b506102d8610745366004611f17565b611316565b610752611335565b61075a6113da565b603e8190556040518181527f87d8854d1c0c0b003f583208b9159303fa9142991a5a585d71c6816ac83f2b85906020015b60405180910390a150565b61079e611335565b6107a66113da565b60006107b5603385858561140c565b600081815260376020908152604091829020429081905582518481529182015291925085917f8814493b3599188c61d7bf20585a0355af60987c540db9988392ae830a54c64a91015b60405180910390a250505050565b610814611335565b61081c6113da565b600061082c603986868686611423565b905083857f0bb5433e87cfc429682aadc2e217fe3b6915922eb25540401aaa64d0b8eaa1c08360405161086191815260200190565b60405180910390a35050505050565b600061087a611335565b5060415481145b919050565b6000610890611335565b61089b60398361143c565b92915050565b6108a9611335565b6108b16113da565b6000828152603d6020908152604091829020805460ff1916841515908117909155915191825283917f11e1b30cd0b6eab7020e0fbd635ef39b211bda7696dfd324caaef4f1ae9cd315910160405180910390a25050565b6000610912611335565b506032546001600160a01b031690565b61092a611335565b6109326113da565b6000610942603386868686611423565b6000818152603760209081526040918290204290819055825184815291820152919250859187917f9d5851adacc1956f388355223351dad2704088fae99b36711607250dd9afe3fc9101610861565b610999611335565b6032546001600160a01b03166109c2576040516309ff533360e31b815260040160405180910390fd5b6032546001600160a01b031633146109ed5760405163ba0318cb60e01b815260040160405180910390fd5b6000818152603d602052604090205460ff1615610a1c5760405162d2b3f360e21b815260040160405180910390fd5b6000818152603d60205260408120805460ff19166001179055603980549190610a459084611489565b604080514281526020810183905290810184905290915083907f8fd1e12daf7bbc111604e9312366b73b92a65058cc13768ee02edf176ab7ba8e906060015b60405180910390a2505050565b6000610a9b611335565b5060345460009081526035602052604090205490565b610ab9611335565b610ac282611495565b610acc82826114a5565b5050565b6000610ada611567565b5060008051602061240883398151915290565b6000610af7611335565b5060335490565b610b066113da565b610b1060006115b0565b565b6000610b1c611335565b50603e5490565b3380610b2d6111bc565b6001600160a01b031614610b645760405163118cdaa760e01b81526001600160a01b03821660048201526024015b60405180910390fd5b610b6d816115b0565b50565b610b78611335565b610b806113da565b6000838152603860209081526040808320858452825291829020805460ff19168415159081179091559151918252839185917ffdea0e3abaa4a1f72ff03f918d65910a9e2ce74814cfc21561b188db582bbe15910160405180910390a3505050565b610bea611335565b610bf26113da565b60418190556040518181527f02dd6b96a8b84ff5245724a410a499208af7b8fb2150fa85f297ae005f48ecc79060200161078b565b6000807f9016d09d72d40fdae2fd8ceac6b6234c7706214fd39c1cd1e609a0528c1993005b546001600160a01b031692915050565b6000610c66611335565b5060405490565b610c75611335565b610c7d6113da565b603f8190556040518181527ffda5e872a2c1f81f7dd5c92d643b71a12c2c8ed9b6a078b9ffe6556b073af4839060200161078b565b6000610cbc611335565b83603e54148015610cce575082603f54145b8015610cdb575081604054145b90505b9392505050565b6000610cef611335565b61089b60338361143c565b610d02611335565b6032546001600160a01b0316610d2b576040516309ff533360e31b815260040160405180910390fd5b6032546001600160a01b03163314610d565760405163ba0318cb60e01b815260040160405180910390fd5b600083815260386020908152604080832085845290915290205460ff1615610d905760405162d2b3f360e21b815260040160405180910390fd5b60008381526038602090815260408083208584529091528120805460ff19166001179055603380549190610dc49084611489565b600081815260376020908152604091829020429081905582519081529081018390529081018490529091508390859087907feb119b7270209cdf8b25ab82dcae1e1f269d3244ed481853debf439b49415dff906060015b60405180910390a45050505050565b6000610e34611335565b50603a546000908152603b60205260409020541490565b610e53611335565b610e5b6113da565b60008381526038602090815260408083208584529091528120805460ff19166001179055610e8a603383611489565b6000818152603760205260408120429055909150610ea960338461143c565b60408051428152602081018590529081018290529091508390859087907ffc5b28a97d17b16ee3dd749eecd0a602288e98dc57b251e77a8095147f8366b590606001610e1b565b6000610efa611335565b50600091825260386020908152604080842092845291905290205460ff1690565b6000610f25611335565b5060415490565b610f34611335565b610f3c6113da565b6040818155518181527f7a2fa8ef510a9f68cafe4002842e97d72e1a7f0dc316a661fbccbd8ebe9864129060200161078b565b610f77611335565b610f7f6113da565b6000610f8e603985858561140c565b9050837fdb059cfc380ead4900d342dc84f5f44bfa83e73439c4740ba3a13b1b12e0ba26826040516107fe91815260200190565b7ff0c57e16840df040f15088dc2f81fe391c3923bec73e23a9662efc9c229c6a008054600160401b810460ff16159067ffffffffffffffff166000811580156110085750825b905060008267ffffffffffffffff1660011480156110255750303b155b905081158015611033575080155b156110515760405163f92ee8a960e01b815260040160405180910390fd5b845467ffffffffffffffff19166001178555831561107b57845460ff60401b1916600160401b1785555b6110836115e8565b6040516001600160a01b03871681527f43dcf2166be267d8f6dc31580b9b1a605fddb5259a48dddd50b0348ac38fb24e9060200160405180910390a1831561110557845460ff60401b19168555604051600181527fc7f505b2f371ae2175ee4913f4499e1f2633a7b5936321eed1cdaeb6115181d29060200160405180910390a15b505050505050565b611115611335565b61111d6113da565b6000818152603d60205260408120805460ff19166001179055611141603983611489565b9050600061115060398461143c565b604080518481526020810183905291925084917f324818d8d34a2d439a57172d0cccad7d8476d81b3cb18a43969b503ebe973da89101610a84565b6000611195611335565b50603a546000908152603b602052604090205490565b60006111b5611335565b50603f5490565b6000807f237e158222e3e6968b72b9db0d8043aacf074ad9f650f0d1606b4d82ee432c00610c4c565b60006111ef611335565b5060009081526037602052604090205490565b61120a6113da565b7f237e158222e3e6968b72b9db0d8043aacf074ad9f650f0d1606b4d82ee432c0080546001600160a01b0319166001600160a01b038316908117825561124e610c27565b6001600160a01b03167f38d16b8cac22d99fc7c124b9cd0de2d3fa1faef420bfe791d8c362d765e2270060405160405180910390a35050565b61128f611335565b6112976113da565b603280546001600160a01b0319166001600160a01b0383169081179091556040519081527f5b4b08c1a8c9cb40687a2bb0a22c161920757446a2a35c3c2856ec693946d4f09060200161078b565b60006112ef611335565b506000908152603d602052604090205460ff1690565b600061130f611335565b5060395490565b6000611320611335565b50600090815260376020526040902054151590565b306001600160a01b037f00000000000000000000000000000000000000000000000000000000000000001614806113bc57507f00000000000000000000000000000000000000000000000000000000000000006001600160a01b03166113b0600080516020612408833981519152546001600160a01b031690565b6001600160a01b031614155b15610b105760405163703e46dd60e11b815260040160405180910390fd5b336113e3610c27565b6001600160a01b031614610b105760405163118cdaa760e01b8152336004820152602401610b5b565b600061141a85858585611601565b95945050505050565b6000611432868686868661160d565b9695505050505050565b6000818152600383016020526040812054810361146c57604051631c811d5b60e21b815260040160405180910390fd5b6000828152600384016020526040902054610cde90600190612259565b6000610cde8383611a7d565b61149d611335565b610b6d6113da565b816001600160a01b03166352d1902d6040518163ffffffff1660e01b8152600401602060405180830381865afa9250505080156114ff575060408051601f3d908101601f191682019092526114fc9181019061226c565b60015b61152757604051634c9c8ce360e01b81526001600160a01b0383166004820152602401610b5b565b600080516020612408833981519152811461155857604051632a87526960e21b815260048101829052602401610b5b565b6115628383611c46565b505050565b306001600160a01b037f00000000000000000000000000000000000000000000000000000000000000001614610b105760405163703e46dd60e11b815260040160405180910390fd5b7f237e158222e3e6968b72b9db0d8043aacf074ad9f650f0d1606b4d82ee432c0080546001600160a01b0319168155610acc82611c9c565b6115f0611d0d565b6115f933611d56565b610b10611d67565b600061141a8585600086865b6000600080516020612428833981519152841061163d576040516361c0541760e11b815260040160405180910390fd5b600085815260038701602052604090205461166b57604051631c811d5b60e21b815260040160405180910390fd5b60008481526003870160205260409020541561169a576040516312c50cad60e11b815260040160405180910390fd5b60006116a6878761143c565b8754909150859087906000906116be90600190612259565b60018b0154909150600090815b818110156119f4578087901c60011660010361187e576000805160206124288339815191528a8a8581811061170257611702612285565b9050602002013510611727576040516361c0541760e11b815260040160405180910390fd5b73__$75f79a42d9bcbdbb69ad79ebd80f556f39$__63561558fe60405180604001604052808d8d8881811061175e5761175e612285565b905060200201358152602001898152506040518263ffffffff1660e01b815260040161178a919061229b565b602060405180830381865af41580156117a7573d6000803e3d6000fd5b505050506040513d601f19601f820116820180604052508101906117cb919061226c565b955073__$75f79a42d9bcbdbb69ad79ebd80f556f39$__63561558fe60405180604001604052808d8d8881811061180457611804612285565b905060200201358152602001888152506040518263ffffffff1660e01b8152600401611830919061229b565b602060405180830381865af415801561184d573d6000803e3d6000fd5b505050506040513d601f19601f82011682018060405250810190611871919061226c565b94508260010192506119ec565b86811c84821c146119d8576000805160206124288339815191528a8a858181106118aa576118aa612285565b90506020020135106118cf576040516361c0541760e11b815260040160405180910390fd5b73__$75f79a42d9bcbdbb69ad79ebd80f556f39$__63561558fe60405180604001604052808981526020018d8d8881811061190c5761190c612285565b905060200201358152506040518263ffffffff1660e01b8152600401611932919061229b565b602060405180830381865af415801561194f573d6000803e3d6000fd5b505050506040513d601f19601f82011682018060405250810190611973919061226c565b955073__$75f79a42d9bcbdbb69ad79ebd80f556f39$__63561558fe60405180604001604052808881526020018d8d888181106119b2576119b2612285565b905060200201358152506040518263ffffffff1660e01b8152600401611830919061229b565b600083815260028e01602052604090208690555b6001016116cb565b5060018c0154600090815260028d0160205260409020548414611a2a57604051631fd4986360e11b815260040160405180910390fd5b600081815260028d01602052604090208590558915611a5c5760008b815260038d016020526040808220548c83529120555b505050600088815260038a0160205260408120555091505095945050505050565b60006000805160206124288339815191528210611aad576040516361c0541760e11b815260040160405180910390fd5b81600003611ace576040516314b48df160e11b815260040160405180910390fd5b600082815260038401602052604090205415611afd576040516312c50cad60e11b815260040160405180910390fd5b825460018085015490611b119083906122cc565b611b1c8260026123c6565b1015611b2e57611b2b816123d2565b90505b600185018190558360005b82811015611c0b578084901c600116600103611bef57604080518082018252600083815260028a0160209081529083902054825281018490529051632b0aac7f60e11b815273__$75f79a42d9bcbdbb69ad79ebd80f556f39$__9163561558fe91611ba7919060040161229b565b602060405180830381865af4158015611bc4573d6000803e3d6000fd5b505050506040513d601f19601f82011682018060405250810190611be8919061226c565b9150611c03565b600081815260028801602052604090208290555b600101611b39565b50611c15836123d2565b8087556000928352600287016020908152604080852084905596845260039097019096529390209390935550919050565b611c4f82611d6f565b6040516001600160a01b038316907fbc7cd75a20ee27fd9adebab32041f755214dbc6bffa90cc0225b39da2e5c2d3b90600090a2805115611c94576115628282611dd4565b610acc611e41565b7f9016d09d72d40fdae2fd8ceac6b6234c7706214fd39c1cd1e609a0528c19930080546001600160a01b031981166001600160a01b03848116918217845560405192169182907f8be0079c531659141344cd1fd0a4f28419497f9722a3daafe3b4186f6b6457e090600090a3505050565b7ff0c57e16840df040f15088dc2f81fe391c3923bec73e23a9662efc9c229c6a0054600160401b900460ff16610b1057604051631afcd79f60e31b815260040160405180910390fd5b611d5e611d0d565b610b6d81611e60565b610b10611d0d565b806001600160a01b03163b600003611da557604051634c9c8ce360e01b81526001600160a01b0382166004820152602401610b5b565b60008051602061240883398151915280546001600160a01b0319166001600160a01b0392909216919091179055565b6060600080846001600160a01b031684604051611df191906123eb565b600060405180830381855af49150503d8060008114611e2c576040519150601f19603f3d011682016040523d82523d6000602084013e611e31565b606091505b509150915061141a858383611e92565b3415610b105760405163b398979f60e01b815260040160405180910390fd5b611e68611d0d565b6001600160a01b038116610b6457604051631e4fbdf760e01b815260006004820152602401610b5b565b606082611ea757611ea282611eee565b610cde565b8151158015611ebe57506001600160a01b0384163b155b15611ee757604051639996b31560e01b81526001600160a01b0385166004820152602401610b5b565b5080610cde565b805115611efe5780518082602001fd5b60405163d6bda27560e01b815260040160405180910390fd5b600060208284031215611f2957600080fd5b5035919050565b60008083601f840112611f4257600080fd5b50813567ffffffffffffffff811115611f5a57600080fd5b6020830191508360208260051b8501011115611f7557600080fd5b9250929050565b600080600060408486031215611f9157600080fd5b83359250602084013567ffffffffffffffff811115611faf57600080fd5b611fbb86828701611f30565b9497909650939450505050565b60008060008060608587031215611fde57600080fd5b8435935060208501359250604085013567ffffffffffffffff81111561200357600080fd5b61200f87828801611f30565b95989497509550505050565b8035801515811461088157600080fd5b6000806040838503121561203e57600080fd5b8235915061204e6020840161201b565b90509250929050565b80356001600160a01b038116811461088157600080fd5b634e487b7160e01b600052604160045260246000fd5b6000806040838503121561209757600080fd5b6120a083612057565b9150602083013567ffffffffffffffff8111156120bc57600080fd5b8301601f810185136120cd57600080fd5b803567ffffffffffffffff8111156120e7576120e761206e565b604051601f8201601f19908116603f0116810167ffffffffffffffff811182821017156121165761211661206e565b60405281815282820160200187101561212e57600080fd5b816020840160208301376000602083830101528093505050509250929050565b60008060006060848603121561216357600080fd5b833592506020840135915061217a6040850161201b565b90509250925092565b60008060006060848603121561219857600080fd5b505081359360208301359350604090920135919050565b60005b838110156121ca5781810151838201526020016121b2565b50506000910152565b60208152600082518060208401526121f28160408501602087016121af565b601f01601f19169190910160400192915050565b6000806040838503121561221957600080fd5b50508035926020909101359150565b60006020828403121561223a57600080fd5b610cde82612057565b634e487b7160e01b600052601160045260246000fd5b8181038181111561089b5761089b612243565b60006020828403121561227e57600080fd5b5051919050565b634e487b7160e01b600052603260045260246000fd5b60408101818360005b60028110156122c35781518352602092830192909101906001016122a4565b50505092915050565b8082018082111561089b5761089b612243565b6001815b600184111561231a578085048111156122fe576122fe612243565b600184161561230c57908102905b60019390931c9280026122e3565b935093915050565b6000826123315750600161089b565b8161233e5750600061089b565b8160018114612354576002811461235e5761237a565b600191505061089b565b60ff84111561236f5761236f612243565b50506001821b61089b565b5060208310610133831016604e8410600b841016171561239d575081810a61089b565b6123aa60001984846122df565b80600019048211156123be576123be612243565b029392505050565b6000610cde8383612322565b6000600182016123e4576123e4612243565b5060010190565b600082516123fd8184602087016121af565b919091019291505056fe360894a13ba1a3210667c828492db98dca3e2076cc3735a920a3ca505d382bbc30644e72e131a029b85045b68181585d2833e84879b9709143e1f593f0000001a164736f6c634300081c000a",
  "linkReferences": {
    "poseidon-solidity/PoseidonT3.sol": {
      "PoseidonT3": [
        {
          "length": 20,
          "start": 6182
        },
        {
          "length": 20,
          "start": 6348
        },
        {
          "length": 20,
          "start": 6606
        },
        {
          "length": 20,
          "start": 6772
        },
        {
          "length": 20,
          "start": 7293
        }
      ]
    }
  },
  "deployedLinkReferences": {
    "poseidon-solidity/PoseidonT3.sol": {
      "PoseidonT3": [
        {
          "length": 20,
          "start": 5929
        },
        {
          "length": 20,
          "start": 6095
        },
        {
          "length": 20,
          "start": 6353
        },
        {
          "length": 20,
          "start": 6519
        },
        {
          "length": 20,
          "start": 7040
        }
      ]
    }
  }
}