{
  "_format": "hh-sol-artifact-1",
  "contractName": "IdentityVerificationHubImplV1",
  "sourceName": "contracts/IdentityVerificationHubImplV1.sol",
  "abi": [
    {
      "inputs": [],
      "stateMutability": "nonpayable",
      "type": "constructor"
    },
    {
      "inputs": [
        {
          "internalType": "address",
          "name": "target",
          "type": "address"
        }
      ],
      "name": "AddressEmptyCode",
      "type": "error"
    },
    {
      "inputs": [],
      "name": "CURRENT_DATE_NOT_IN_VALID_RANGE",
      "type": "error"
    },
    {
      "inputs": [
        {
          "internalType": "address",
          "name": "implementation",
          "type": "address"
        }
      ],
      "name": "ERC1967InvalidImplementation",
      "type": "error"
    },
    {
      "inputs": [],
      "name": "ERC1967NonPayable",
      "type": "error"
    },
    {
      "inputs": [],
      "name": "FailedCall",
      "type": "error"
    },
    {
      "inputs": [],
      "name": "INSUFFICIENT_CHARCODE_LEN",
      "type": "error"
    },
    {
      "inputs": [],
      "name": "INVALID_COMMITMENT_ROOT",
      "type": "error"
    },
    {
      "inputs": [],
      "name": "INVALID_CSCA_ROOT",
      "type": "error"
    },
    {
      "inputs": [],
      "name": "INVALID_DSC_PROOF",
      "type": "error"
    },
    {
      "inputs": [],
      "name": "INVALID_FORBIDDEN_COUNTRIES",
      "type": "error"
    },
    {
      "inputs": [],
      "name": "INVALID_OFAC",
      "type": "error"
    },
    {
      "inputs": [],
      "name": "INVALID_OFAC_ROOT",
      "type": "error"
    },
    {
      "inputs": [],
      "name": "INVALID_OLDER_THAN",
      "type": "error"
    },
    {
      "inputs": [],
      "name": "INVALID_REGISTER_PROOF",
      "type": "error"
    },
    {
      "inputs": [],
      "name": "INVALID_REVEALED_DATA_TYPE",
      "type": "error"
    },
    {
      "inputs": [],
      "name": "INVALID_VC_AND_DISCLOSE_PROOF",
      "type": "error"
    },
    {
      "inputs": [],
      "name": "InvalidAsciiCode",
      "type": "error"
    },
    {
      "inputs": [],
      "name": "InvalidDateLength",
      "type": "error"
    },
    {
      "inputs": [],
      "name": "InvalidInitialization",
      "type": "error"
    },
    {
      "inputs": [],
      "name": "LENGTH_MISMATCH",
      "type": "error"
    },
    {
      "inputs": [],
      "name": "NO_VERIFIER_SET",
      "type": "error"
    },
    {
      "inputs": [],
      "name": "NotInitializing",
      "type": "error"
    },
    {
      "inputs": [
        {
          "internalType": "address",
          "name": "owner",
          "type": "address"
        }
      ],
      "name": "OwnableInvalidOwner",
      "type": "error"
    },
    {
      "inputs": [
        {
          "internalType": "address",
          "name": "account",
          "type": "address"
        }
      ],
      "name": "OwnableUnauthorizedAccount",
      "type": "error"
    },
    {
      "inputs": [],
      "name": "UUPSUnauthorizedCallContext",
      "type": "error"
    },
    {
      "inputs": [
        {
          "internalType": "bytes32",
          "name": "slot",
          "type": "bytes32"
        }
      ],
      "name": "UUPSUnsupportedProxiableUUID",
      "type": "error"
    },
    {
      "anonymous": false,
      "inputs": [
        {
          "indexed": false,
          "internalType": "uint256",
          "name": "typeId",
          "type": "uint256"
        },
        {
          "indexed": false,
          "internalType": "address",
          "name": "verifier",
          "type": "address"
        }
      ],
      "name": "DscCircuitVerifierUpdated",
      "type": "event"
    },
    {
      "anonymous": false,
      "inputs": [
        {
          "indexed": false,
          "internalType": "address",
          "name": "registry",
          "type": "address"
        },
        {
          "indexed": false,
          "internalType": "address",
          "name": "vcAndDiscloseCircuitVerifier",
          "type": "address"
        },
        {
          "indexed": false,
          "internalType": "uint256[]",
          "name": "registerCircuitVerifierIds",
          "type": "uint256[]"
        },
        {
          "indexed": false,
          "internalType": "address[]",
          "name": "registerCircuitVerifiers",
          "type": "address[]"
        },
        {
          "indexed": false,
          "internalType": "uint256[]",
          "name": "dscCircuitVerifierIds",
          "type": "uint256[]"
        },
        {
          "indexed": false,
          "internalType": "address[]",
          "name": "dscCircuitVerifiers",
          "type": "address[]"
        }
      ],
      "name": "HubInitialized",
      "type": "event"
    },
    {
      "anonymous": false,
      "inputs": [
        {
          "indexed": false,
          "internalType": "uint64",
          "name": "version",
          "type": "uint64"
        }
      ],
      "name": "Initialized",
      "type": "event"
    },
    {
      "anonymous": false,
      "inputs": [
        {
          "indexed": true,
          "internalType": "address",
          "name": "previousOwner",
          "type": "address"
        },
        {
          "indexed": true,
          "internalType": "address",
          "name": "newOwner",
          "type": "address"
        }
      ],
      "name": "OwnershipTransferStarted",
      "type": "event"
    },
    {
      "anonymous": false,
      "inputs": [
        {
          "indexed": true,
          "internalType": "address",
          "name": "previousOwner",
          "type": "address"
        },
        {
          "indexed": true,
          "internalType": "address",
          "name": "newOwner",
          "type": "address"
        }
      ],
      "name": "OwnershipTransferred",
      "type": "event"
    },
    {
      "anonymous": false,
      "inputs": [
        {
          "indexed": false,
          "internalType": "uint256",
          "name": "typeId",
          "type": "uint256"
        },
        {
          "indexed": false,
          "internalType": "address",
          "name": "verifier",
          "type": "address"
        }
      ],
      "name": "RegisterCircuitVerifierUpdated",
      "type": "event"
    },
    {
      "anonymous": false,
      "inputs": [
        {
          "indexed": false,
          "internalType": "address",
          "name": "registry",
          "type": "address"
        }
      ],
      "name": "RegistryUpdated",
      "type": "event"
    },
    {
      "anonymous": false,
      "inputs": [
        {
          "indexed": true,
          "internalType": "address",
          "name": "implementation",
          "type": "address"
        }
      ],
      "name": "Upgraded",
      "type": "event"
    },
    {
      "anonymous": false,
      "inputs": [
        {
          "indexed": false,
          "internalType": "address",
          "name": "vcAndDiscloseCircuitVerifier",
          "type": "address"
        }
      ],
      "name": "VcAndDiscloseCircuitUpdated",
      "type": "event"
    },
    {
      "inputs": [],
      "name": "UPGRADE_INTERFACE_VERSION",
      "outputs": [
        {
          "internalType": "string",
          "name": "",
          "type": "string"
        }
      ],
      "stateMutability": "view",
      "type": "function"
    },
    {
      "inputs": [],
      "name": "acceptOwnership",
      "outputs": [],
      "stateMutability": "nonpayable",
      "type": "function"
    },
    {
      "inputs": [
        {
          "internalType": "uint256[]",
          "name": "typeIds",
          "type": "uint256[]"
        },
        {
          "internalType": "address[]",
          "name": "verifierAddresses",
          "type": "address[]"
        }
      ],
      "name": "batchUpdateDscCircuitVerifiers",
      "outputs": [],
      "stateMutability": "nonpayable",
      "type": "function"
    },
    {
      "inputs": [
        {
          "internalType": "uint256[]",
          "name": "typeIds",
          "type": "uint256[]"
        },
        {
          "internalType": "address[]",
          "name": "verifierAddresses",
          "type": "address[]"
        }
      ],
      "name": "batchUpdateRegisterCircuitVerifiers",
      "outputs": [],
      "stateMutability": "nonpayable",
      "type": "function"
    },
    {
      "inputs": [
        {
          "internalType": "uint256",
          "name": "forbiddenCountriesListPacked",
          "type": "uint256"
        }
      ],
      "name": "getReadableForbiddenCountries",
      "outputs": [
        {
          "internalType": "string[10]",
          "name": "",
          "type": "string[10]"
        }
      ],
      "stateMutability": "view",
      "type": "function"
    },
    {
      "inputs": [
        {
          "internalType": "uint256[3]",
          "name": "revealedDataPacked",
          "type": "uint256[3]"
        },
        {
          "internalType": "enum IIdentityVerificationHubV1.RevealedDataType[]",
          "name": "types",
          "type": "uint8[]"
        }
      ],
      "name": "getReadableRevealedData",
      "outputs": [
        {
          "components": [
            {
              "internalType": "string",
              "name": "issuingState",
              "type": "string"
            },
            {
              "internalType": "string[]",
              "name": "name",
              "type": "string[]"
            },
            {
              "internalType": "string",
              "name": "passportNumber",
              "type": "string"
            },
            {
              "internalType": "string",
              "name": "nationality",
              "type": "string"
            },
            {
              "internalType": "string",
              "name": "dateOfBirth",
              "type": "string"
            },
            {
              "internalType": "string",
              "name": "gender",
              "type": "string"
            },
            {
              "internalType": "string",
              "name": "expiryDate",
              "type": "string"
            },
            {
              "internalType": "uint256",
              "name": "olderThan",
              "type": "uint256"
            },
            {
              "internalType": "uint256",
              "name": "ofac",
              "type": "uint256"
            }
          ],
          "internalType": "struct IIdentityVerificationHubV1.ReadableRevealedData",
          "name": "",
          "type": "tuple"
        }
      ],
      "stateMutability": "view",
      "type": "function"
    },
    {
      "inputs": [
        {
          "internalType": "address",
          "name": "registryAddress",
          "type": "address"
        },
        {
          "internalType": "address",
          "name": "vcAndDiscloseCircuitVerifierAddress",
          "type": "address"
        },
        {
          "internalType": "uint256[]",
          "name": "registerCircuitVerifierIds",
          "type": "uint256[]"
        },
        {
          "internalType": "address[]",
          "name": "registerCircuitVerifierAddresses",
          "type": "address[]"
        },
        {
          "internalType": "uint256[]",
          "name": "dscCircuitVerifierIds",
          "type": "uint256[]"
        },
        {
          "internalType": "address[]",
          "name": "dscCircuitVerifierAddresses",
          "type": "address[]"
        }
      ],
      "name": "initialize",
      "outputs": [],
      "stateMutability": "nonpayable",
      "type": "function"
    },
    {
      "inputs": [],
      "name": "owner",
      "outputs": [
        {
          "internalType": "address",
          "name": "",
          "type": "address"
        }
      ],
      "stateMutability": "view",
      "type": "function"
    },
    {
      "inputs": [],
      "name": "pendingOwner",
      "outputs": [
        {
          "internalType": "address",
          "name": "",
          "type": "address"
        }
      ],
      "stateMutability": "view",
      "type": "function"
    },
    {
      "inputs": [],
      "name": "proxiableUUID",
      "outputs": [
        {
          "internalType": "bytes32",
          "name": "",
          "type": "bytes32"
        }
      ],
      "stateMutability": "view",
      "type": "function"
    },
    {
      "inputs": [
        {
          "internalType": "uint256",
          "name": "dscCircuitVerifierId",
          "type": "uint256"
        },
        {
          "components": [
            {
              "internalType": "uint256[2]",
              "name": "a",
              "type": "uint256[2]"
            },
            {
              "internalType": "uint256[2][2]",
              "name": "b",
              "type": "uint256[2][2]"
            },
            {
              "internalType": "uint256[2]",
              "name": "c",
              "type": "uint256[2]"
            },
            {
              "internalType": "uint256[2]",
              "name": "pubSignals",
              "type": "uint256[2]"
            }
          ],
          "internalType": "struct IDscCircuitVerifier.DscCircuitProof",
          "name": "dscCircuitProof",
          "type": "tuple"
        }
      ],
      "name": "registerDscKeyCommitment",
      "outputs": [],
      "stateMutability": "nonpayable",
      "type": "function"
    },
    {
      "inputs": [
        {
          "internalType": "uint256",
          "name": "registerCircuitVerifierId",
          "type": "uint256"
        },
        {
          "components": [
            {
              "internalType": "uint256[2]",
              "name": "a",
              "type": "uint256[2]"
            },
            {
              "internalType": "uint256[2][2]",
              "name": "b",
              "type": "uint256[2][2]"
            },
            {
              "internalType": "uint256[2]",
              "name": "c",
              "type": "uint256[2]"
            },
            {
              "internalType": "uint256[3]",
              "name": "pubSignals",
              "type": "uint256[3]"
            }
          ],
          "internalType": "struct IRegisterCircuitVerifier.RegisterCircuitProof",
          "name": "registerCircuitProof",
          "type": "tuple"
        }
      ],
      "name": "registerPassportCommitment",
      "outputs": [],
      "stateMutability": "nonpayable",
      "type": "function"
    },
    {
      "inputs": [],
      "name": "registry",
      "outputs": [
        {
          "internalType": "address",
          "name": "",
          "type": "address"
        }
      ],
      "stateMutability": "view",
      "type": "function"
    },
    {
      "inputs": [],
      "name": "renounceOwnership",
      "outputs": [],
      "stateMutability": "nonpayable",
      "type": "function"
    },
    {
      "inputs": [
        {
          "internalType": "uint256",
          "name": "typeId",
          "type": "uint256"
        }
      ],
      "name": "sigTypeToDscCircuitVerifiers",
      "outputs": [
        {
          "internalType": "address",
          "name": "",
          "type": "address"
        }
      ],
      "stateMutability": "view",
      "type": "function"
    },
    {
      "inputs": [
        {
          "internalType": "uint256",
          "name": "typeId",
          "type": "uint256"
        }
      ],
      "name": "sigTypeToRegisterCircuitVerifiers",
      "outputs": [
        {
          "internalType": "address",
          "name": "",
          "type": "address"
        }
      ],
      "stateMutability": "view",
      "type": "function"
    },
    {
      "inputs": [
        {
          "internalType": "address",
          "name": "newOwner",
          "type": "address"
        }
      ],
      "name": "transferOwnership",
      "outputs": [],
      "stateMutability": "nonpayable",
      "type": "function"
    },
    {
      "inputs": [
        {
          "internalType": "uint256",
          "name": "typeId",
          "type": "uint256"
        },
        {
          "internalType": "address",
          "name": "verifierAddress",
          "type": "address"
        }
      ],
      "name": "updateDscVerifier",
      "outputs": [],
      "stateMutability": "nonpayable",
      "type": "function"
    },
    {
      "inputs": [
        {
          "internalType": "uint256",
          "name": "typeId",
          "type": "uint256"
        },
        {
          "internalType": "address",
          "name": "verifierAddress",
          "type": "address"
        }
      ],
      "name": "updateRegisterCircuitVerifier",
      "outputs": [],
      "stateMutability": "nonpayable",
      "type": "function"
    },
    {
      "inputs": [
        {
          "internalType": "address",
          "name": "registryAddress",
          "type": "address"
        }
      ],
      "name": "updateRegistry",
      "outputs": [],
      "stateMutability": "nonpayable",
      "type": "function"
    },
    {
      "inputs": [
        {
          "internalType": "address",
          "name": "vcAndDiscloseCircuitVerifierAddress",
          "type": "address"
        }
      ],
      "name": "updateVcAndDiscloseCircuit",
      "outputs": [],
      "stateMutability": "nonpayable",
      "type": "function"
    },
    {
      "inputs": [
        {
          "internalType": "address",
          "name": "newImplementation",
          "type": "address"
        },
        {
          "internalType": "bytes",
          "name": "data",
          "type": "bytes"
        }
      ],
      "name": "upgradeToAndCall",
      "outputs": [],
      "stateMutability": "payable",
      "type": "function"
    },
    {
      "inputs": [],
      "name": "vcAndDiscloseCircuitVerifier",
      "outputs": [
        {
          "internalType": "address",
          "name": "",
          "type": "address"
        }
      ],
      "stateMutability": "view",
      "type": "function"
    },
    {
      "inputs": [
        {
          "components": [
            {
              "internalType": "bool",
              "name": "olderThanEnabled",
              "type": "bool"
            },
            {
              "internalType": "uint256",
              "name": "olderThan",
              "type": "uint256"
            },
            {
              "internalType": "bool",
              "name": "forbiddenCountriesEnabled",
              "type": "bool"
            },
            {
              "internalType": "uint256",
              "name": "forbiddenCountriesListPacked",
              "type": "uint256"
            },
            {
              "internalType": "bool",
              "name": "ofacEnabled",
              "type": "bool"
            },
            {
              "components": [
                {
                  "internalType": "uint256[2]",
                  "name": "a",
                  "type": "uint256[2]"
                },
                {
                  "internalType": "uint256[2][2]",
                  "name": "b",
                  "type": "uint256[2][2]"
                },
                {
                  "internalType": "uint256[2]",
                  "name": "c",
                  "type": "uint256[2]"
                },
                {
                  "internalType": "uint256[16]",
                  "name": "pubSignals",
                  "type": "uint256[16]"
                }
              ],
              "internalType": "struct IVcAndDiscloseCircuitVerifier.VcAndDiscloseProof",
              "name": "vcAndDiscloseProof",
              "type": "tuple"
            }
          ],
          "internalType": "struct IIdentityVerificationHubV1.VcAndDiscloseHubProof",
          "name": "proof",
          "type": "tuple"
        }
      ],
      "name": "verifyVcAndDisclose",
      "outputs": [
        {
          "components": [
            {
              "internalType": "uint256",
              "name": "attestationId",
              "type": "uint256"
            },
            {
              "internalType": "uint256",
              "name": "scope",
              "type": "uint256"
            },
            {
              "internalType": "uint256",
              "name": "userIdentifier",
              "type": "uint256"
            },
            {
              "internalType": "uint256",
              "name": "nullifier",
              "type": "uint256"
            },
            {
              "internalType": "uint256",
              "name": "identityCommitmentRoot",
              "type": "uint256"
            },
            {
              "internalType": "uint256[3]",
              "name": "revealedDataPacked",
              "type": "uint256[3]"
            },
            {
              "internalType": "uint256",
              "name": "forbiddenCountriesListPacked",
              "type": "uint256"
            }
          ],
          "internalType": "struct IIdentityVerificationHubV1.VcAndDiscloseVerificationResult",
          "name": "",
          "type": "tuple"
        }
      ],
      "stateMutability": "view",
      "type": "function"
    }
  ],
  "bytecode": "0x60a06040523073ffffffffffffffffffffffffffffffffffffffff1660809073ffffffffffffffffffffffffffffffffffffffff1681525034801561004357600080fd5b5061005e67f58c1eb2f63e800260c01b6100a460201b60201c565b61007766b932472d26b6a460c01b6100a460201b60201c565b6100916725b8de7580c6e42860c01b6100a460201b60201c565b61009f6100a760201b60201c565b6101ec565b50565b60006100b76101ab60201b60201c565b90508060000160089054906101000a900460ff1615610102576040517ff92ee8a900000000000000000000000000000000000000000000000000000000815260040160405180910390fd5b67ffffffffffffffff80168160000160009054906101000a900467ffffffffffffffff1667ffffffffffffffff16146101a85767ffffffffffffffff8160000160006101000a81548167ffffffffffffffff021916908367ffffffffffffffff1602179055507fc7f505b2f371ae2175ee4913f4499e1f2633a7b5936321eed1cdaeb6115181d267ffffffffffffffff60405161019f91906101d3565b60405180910390a15b50565b60007ff0c57e16840df040f15088dc2f81fe391c3923bec73e23a9662efc9c229c6a00905090565b600060208201905060018060401b038316825292915050565b6080516178c2610215600039600081816126ff01528181612754015261424701526178c26000f3fe60806040526004361061014b5760003560e01c80637798200a116100b6578063e42208af1161006f578063e42208af14610449578063e6db96b714610486578063f015f579146104af578063f2fde38b146104d8578063f559df1314610501578063f6c9f6291461052a5761014b565b80637798200a1461035b57806379ba5097146103865780637b1039991461039d5780638da5cb5b146103c8578063ad3cb1cc146103f3578063e30c39781461041e5761014b565b806330aec59e1161010857806330aec59e1461026e57806337bd5ff8146102975780633d098d8b146102d45780634f1ef286146102fd57806352d1902d14610319578063715018a6146103445761014b565b806304fcccd1146101505780630ae1b2c0146101795780631a5da6c8146101a2578063253f254b146101cb5780632b26ef50146101f45780632ee85c3e14610231575b600080fd5b34801561015c57600080fd5b5061017760048036038101906101729190616907565b610567565b005b34801561018557600080fd5b506101a0600480360381019061019b91906169b2565b6106d6565b005b3480156101ae57600080fd5b506101c960048036038101906101c491906169b2565b610801565b005b3480156101d757600080fd5b506101f260048036038101906101ed91906169d5565b61092c565b005b34801561020057600080fd5b5061021b60048036038101906102169190616a30565b610a6b565b6040516102289190616bac565b60405180910390f35b34801561023d57600080fd5b5061025860048036038101906102539190616ca1565b61111a565b6040516102659190616cc3565b60405180910390f35b34801561027a57600080fd5b50610295600480360381019061029091906169d5565b6111c3565b005b3480156102a357600080fd5b506102be60048036038101906102b99190616ced565b611302565b6040516102cb9190616e17565b60405180910390f35b3480156102e057600080fd5b506102fb60048036038101906102f69190616e70565b6115ad565b005b61031760048036038101906103129190616efc565b6116f8565b005b34801561032557600080fd5b5061032e611717565b60405161033b9190616fab565b60405180910390f35b34801561035057600080fd5b5061035961174a565b005b34801561036757600080fd5b5061037061175e565b60405161037d9190616cc3565b60405180910390f35b34801561039257600080fd5b5061039b6117f4565b005b3480156103a957600080fd5b506103b2611883565b6040516103bf9190616cc3565b60405180910390f35b3480156103d457600080fd5b506103dd611919565b6040516103ea9190616cc3565b60405180910390f35b3480156103ff57600080fd5b50610408611951565b6040516104159190616fbc565b60405180910390f35b34801561042a57600080fd5b5061043361198a565b6040516104409190616cc3565b60405180910390f35b34801561045557600080fd5b50610470600480360381019061046b9190616ca1565b6119c2565b60405161047d9190616cc3565b60405180910390f35b34801561049257600080fd5b506104ad60048036038101906104a891906170ce565b611a6b565b005b3480156104bb57600080fd5b506104d660048036038101906104d191906171fb565b61206a565b005b3480156104e457600080fd5b506104ff60048036038101906104fa91906169b2565b612312565b005b34801561050d57600080fd5b50610528600480360381019061052391906171fb565b6123ce565b005b34801561053657600080fd5b50610551600480360381019061054c9190616ca1565b612676565b60405161055e9190617277565b60405180910390f35b61057b671114be956eeadcfa60c01b6126fa565b6105836126fd565b6105976722babaa68570f10a60c01b6126fa565b6105ab673912cd373087ea7b60c01b6126fa565b6105bf6777a8141f4ca6bf9f60c01b6126fa565b6105d367c13fedccde87083960c01b6126fa565b6105dd82826127e3565b6105f167a59acba1d9ffa08260c01b6126fa565b61060567372ee93ed106172560c01b6126fa565b603260009054906101000a900473ffffffffffffffffffffffffffffffffffffffff1673ffffffffffffffffffffffffffffffffffffffff16639a85d40a600160001b83606001516000600381106106605761065f6172d3565b5b6020020151846060015160016003811061067d5761067c6172d3565b5b60200201516040518463ffffffff1660e01b81526004016106a0939291906172e9565b600060405180830381600087803b1580156106ba57600080fd5b505af11580156106ce573d6000803e3d6000fd5b505050505050565b6106ea67fecc7a43f2e8d21760c01b6126fa565b6106f26126fd565b61070667ba6fb6e733ed746d60c01b6126fa565b61071a6791009cc0c8f1f58160c01b6126fa565b610722612ba2565b610736679c60faf8558dcfeb60c01b6126fa565b61074a67255f8cffc5b518a260c01b6126fa565b61075e67b8f43db1aae0c1c460c01b6126fa565b80603360006101000a81548173ffffffffffffffffffffffffffffffffffffffff021916908373ffffffffffffffffffffffffffffffffffffffff1602179055506107b36786adeaf0805151bd60c01b6126fa565b6107c76756b03967e668d4a760c01b6126fa565b7f668ec257b00a7e1390c2dc2aed8dc1530b91cd9e36167e4991d705cd3d2fe65e816040516107f69190616cc3565b60405180910390a150565b6108156793ca9b842e73f15860c01b6126fa565b61081d6126fd565b61083167ab76bf20f98cb2cd60c01b6126fa565b61084567c0e5bd34019ee41e60c01b6126fa565b61084d612ba2565b61086167d0a8ec6b4e06e5b760c01b6126fa565b61087567ac19c9de2e1d1b3060c01b6126fa565b610889671866e748a3cf181860c01b6126fa565b80603260006101000a81548173ffffffffffffffffffffffffffffffffffffffff021916908373ffffffffffffffffffffffffffffffffffffffff1602179055506108de67d0e260bc7f16cdc860c01b6126fa565b6108f267a00bd507241cfeda60c01b6126fa565b7fd6ceddf6d2a22f21c7c81675c518004eff43bc5c8a6fc32a0b748e69d58671cd816040516109219190616cc3565b60405180910390a150565b610940677e21cf1694ba14d260c01b6126fa565b6109486126fd565b61095c67d446e524ea506fd860c01b6126fa565b610970678b8317b155190e7f60c01b6126fa565b610978612ba2565b61098c678ddfca8d2dffacdb60c01b6126fa565b6109a067fb752e6a447d119c60c01b6126fa565b6109b467c8e2ce82471bc3e660c01b6126fa565b806034600084815260200190815260200160002060006101000a81548173ffffffffffffffffffffffffffffffffffffffff021916908373ffffffffffffffffffffffffffffffffffffffff160217905550610a1a67c896e9eef569363660c01b6126fa565b610a2e674786740ff7e6650960c01b6126fa565b7f2bdbcbf49383457c270bf05734cc8d74acb8a5788f0dc6384a715680f6a4dbcf8282604051610a5f929190617308565b60405180910390a15050565b610a736165a4565b610a876758a4adaa398e94cb60c01b6126fa565b610a8f6126fd565b610aa3674f02456a31a204c660c01b6126fa565b610ab767af94eb0697a5059060c01b6126fa565b610acb67fc083ea5312d0dff60c01b6126fa565b610adf676fcc41375fb3d12860c01b6126fa565b6000610aea84612c29565b9050610b0067ebb1acec0298868360c01b6126fa565b610b1467a8c89be040cc2f2a60c01b6126fa565b610b1c6165a4565b610b30673a7ba5f8f86f92fe60c01b6126fa565b610b4467a845029ea6e893bf60c01b6126fa565b60005b84518110156110e657610b646778d302852dcf1b2860c01b6126fa565b610b7867fd4f5411e445325760c01b6126fa565b6000858281518110610b8d57610b8c6172d3565b5b60200260200101519050610bab6708635542aa58dc2560c01b6126fa565b610bbf67aca258d1603a1cfa60c01b6126fa565b60006008811115610bd357610bd2617328565b5b816008811115610be657610be5617328565b5b03610c2957610bff6776b019143c82483c60c01b6126fa565b610c1367b194e3ae63e75b8e60c01b6126fa565b610c1c84612ed2565b83600001819052506110d8565b610c3d674c918ca06fbd597b60c01b6126fa565b610c51672980da3467ff963060c01b6126fa565b60016008811115610c6557610c64617328565b5b816008811115610c7857610c77617328565b5b03610cbb57610c9167f86087dfb02df3cf60c01b6126fa565b610ca5675303b97fbf9e0d8c60c01b6126fa565b610cae84612f24565b83602001819052506110d7565b610ccf679bc57a2217ab250f60c01b6126fa565b610ce3674aafa5a1d9eb77bf60c01b6126fa565b60026008811115610cf757610cf6617328565b5b816008811115610d0a57610d09617328565b5b03610d4d57610d2367862ad7b64a60c38260c01b6126fa565b610d3767f034e61ef153f46660c01b6126fa565b610d4084612f7e565b83604001819052506110d6565b610d6167167b6dcbcce7cd1560c01b6126fa565b610d756705a111307cdc02f660c01b6126fa565b60036008811115610d8957610d88617328565b5b816008811115610d9c57610d9b617328565b5b03610ddf57610db56794716fa18daf22ae60c01b6126fa565b610dc9670e12263ad04a097e60c01b6126fa565b610dd284612fd0565b83606001819052506110d5565b610df367527421ac146799be60c01b6126fa565b610e076770da30212878a37560c01b6126fa565b60046008811115610e1b57610e1a617328565b5b816008811115610e2e57610e2d617328565b5b03610e7157610e4767bdd27cf94d01856a60c01b6126fa565b610e5b67e99615b85200b09760c01b6126fa565b610e6484613022565b83608001819052506110d4565b610e8567de5b83ec3857246c60c01b6126fa565b610e99679d74842a9610d4bb60c01b6126fa565b60056008811115610ead57610eac617328565b5b816008811115610ec057610ebf617328565b5b03610f0357610ed9676aeafb4a5654858b60c01b6126fa565b610eed67718258462cf51cba60c01b6126fa565b610ef68461307c565b8360a001819052506110d3565b610f1767589f8ebf8ec2651060c01b6126fa565b610f2b67b1fa679c7f6ec78d60c01b6126fa565b60066008811115610f3f57610f3e617328565b5b816008811115610f5257610f51617328565b5b03610f9557610f6b671f507ad70bde87ea60c01b6126fa565b610f7f677c1d469d6fcb0fc960c01b6126fa565b610f88846130cd565b8360c001819052506110d2565b610fa9672ddd4a52b79af76b60c01b6126fa565b610fbd67f25789489b3d540160c01b6126fa565b60076008811115610fd157610fd0617328565b5b816008811115610fe457610fe3617328565b5b0361102857610ffd67c4c95b91d9fff1c760c01b6126fa565b61101167e2ff9a089515546760c01b6126fa565b61101a84613127565b8360e00181815250506110d1565b61103c675e2faecbc941dcd660c01b6126fa565b611050672e89d7dd9f822a0260c01b6126fa565b60088081111561106357611062617328565b5b81600881111561107657611075617328565b5b036110bb5761108f67dc06657204efc7e260c01b6126fa565b6110a367c40a207e870076d060c01b6126fa565b6110ac846131e8565b836101000181815250506110d0565b6110cf67f66f4e5ffc9bcca360c01b6126fa565b5b5b5b5b5b5b5b5b5b508080600101915050610b47565b506110fb67d42610111fc6f84d60c01b6126fa565b61110f67f3cb295ad8f194bb60c01b6126fa565b809250505092915050565b600061113067a350d9695cfbd03560c01b6126fa565b6111386126fd565b61114c670675103d6128bc6c60c01b6126fa565b611160672873d9c540c06d6660c01b6126fa565b61117467b2119e072ffe195f60c01b6126fa565b61118867e85773b56125de0660c01b6126fa565b6035600083815260200190815260200160002060009054906101000a900473ffffffffffffffffffffffffffffffffffffffff169050919050565b6111d76777978d6f9c5dac4460c01b6126fa565b6111df6126fd565b6111f367fc26d2262749a2c860c01b6126fa565b611207674f3c625711e16ead60c01b6126fa565b61120f612ba2565b6112236774801ad429b44ef160c01b6126fa565b61123767cb47bd402c507f5360c01b6126fa565b61124b672586bc4528cadd9160c01b6126fa565b806035600084815260200190815260200160002060006101000a81548173ffffffffffffffffffffffffffffffffffffffff021916908373ffffffffffffffffffffffffffffffffffffffff1602179055506112b167271529f39c8299cd60c01b6126fa565b6112c567b2a720a5624f1c9d60c01b6126fa565b7f02c7aeb52f414fb9b4dfa6100f38185b5e12b184349218c18700bc39423bedc982826040516112f6929190617308565b60405180910390a15050565b61130a6165f0565b61131e67a5788d70260340c760c01b6126fa565b6113266126fd565b61133a6730364405f4a4a25160c01b6126fa565b61134e672f1320809b49a76e60c01b6126fa565b61136267d16daf0df98d207960c01b6126fa565b61137667e52f8968ad5310b160c01b6126fa565b61137e6165f0565b611392677fc635677639192760c01b6126fa565b61139b83613252565b8160800181815250506113b867f0877842137b08f460c01b6126fa565b6113cc67ffcbae0b612c966760c01b6126fa565b60005b6003811015611445576113ec678b54b55a1f4b4a9f60c01b6126fa565b8360a00151606001518160006114029190617354565b60108110611413576114126172d3565b5b60200201518260a00151826003811061142f5761142e6172d3565b5b60200201818152505080806001019150506113cf565b5061145a67a0c994aa4ec0b55160c01b6126fa565b8260a0015160600151600360108110611476576114756172d3565b5b60200201518160c001818152505061149867912356dd982558c160c01b6126fa565b8260a00151606001516004601081106114b4576114b36172d3565b5b60200201518160600181815250506114d6677cc044082da849db60c01b6126fa565b8260a00151606001516005601081106114f2576114f16172d3565b5b6020020151816000018181525050611514677206b6a64528147160c01b6126fa565b8260a0015160600151600f601081106115305761152f6172d3565b5b602002015181604001818152505061155267c7390657a4e6648a60c01b6126fa565b8260a0015160600151600e6010811061156e5761156d6172d3565b5b602002015181602001818152505061159067b62a88e52819ca7760c01b6126fa565b6115a467bcec193b526cca2360c01b6126fa565b80915050919050565b6115c16725feb63994577ee260c01b6126fa565b6115c96126fd565b6115dd67dee99dd89ac0489060c01b6126fa565b6115f167aebce1f1a2c784c160c01b6126fa565b611605672f0d2037ad08337960c01b6126fa565b6116196747b2395d1c8143f760c01b6126fa565b6116238282613cf1565b61163767317d563063b9de9460c01b6126fa565b61164b67097b70715ce4806260c01b6126fa565b603260009054906101000a900473ffffffffffffffffffffffffffffffffffffffff1673ffffffffffffffffffffffffffffffffffffffff1663445257da82606001516000600281106116a1576116a06172d3565b5b60200201516040518263ffffffff1660e01b81526004016116c29190617372565b600060405180830381600087803b1580156116dc57600080fd5b505af11580156116f0573d6000803e3d6000fd5b505050505050565b6117006126fd565b611709826140b0565b6117138282614126565b5050565b6000611721614245565b7f360894a13ba1a3210667c828492db98dca3e2076cc3735a920a3ca505d382bbc60001b905090565b611752612ba2565b61175c60006142cc565b565b60006117746724c5a01d888fbc1d60c01b6126fa565b61177c6126fd565b61179067f299d4b5bf75659e60c01b6126fa565b6117a4677cd83bd1ffb4cd4960c01b6126fa565b6117b8678b9990c042caaba460c01b6126fa565b6117cc67e816338da7a3505d60c01b6126fa565b603360009054906101000a900473ffffffffffffffffffffffffffffffffffffffff16905090565b60006117fe61430c565b90508073ffffffffffffffffffffffffffffffffffffffff1661181f61198a565b73ffffffffffffffffffffffffffffffffffffffff161461187757806040517f118cdaa700000000000000000000000000000000000000000000000000000000815260040161186e9190616cc3565b60405180910390fd5b611880816142cc565b50565b6000611899671305b7bee820d46360c01b6126fa565b6118a16126fd565b6118b567ebd3a04d1d83154260c01b6126fa565b6118c967bead008ea27576d560c01b6126fa565b6118dd673f8a1db7f9ca2fae60c01b6126fa565b6118f167ba99418ab1793fd460c01b6126fa565b603260009054906101000a900473ffffffffffffffffffffffffffffffffffffffff16905090565b600080611924614314565b90508060000160009054906101000a900473ffffffffffffffffffffffffffffffffffffffff1691505090565b6040518060400160405280600581526020017f352e302e3000000000000000000000000000000000000000000000000000000081525081565b60008061199561433c565b90508060000160009054906101000a900473ffffffffffffffffffffffffffffffffffffffff1691505090565b60006119d8672f8c7126e654f45360c01b6126fa565b6119e06126fd565b6119f4670edcf3aad7a43a7360c01b6126fa565b611a0867fc98692e61f786f460c01b6126fa565b611a1c6758b919b5b75adc5260c01b6126fa565b611a3067cfc375637070994660c01b6126fa565b6034600083815260200190815260200160002060009054906101000a900473ffffffffffffffffffffffffffffffffffffffff169050919050565b611a7f676d664b4574ddc76f60c01b6126fa565b6000611a89614364565b905060008160000160089054906101000a900460ff1615905060008260000160009054906101000a900467ffffffffffffffff1690506000808267ffffffffffffffff16148015611ad75750825b9050600060018367ffffffffffffffff16148015611b0c575060003073ffffffffffffffffffffffffffffffffffffffff163b145b905081158015611b1a575080155b15611b51576040517ff92ee8a900000000000000000000000000000000000000000000000000000000815260040160405180910390fd5b60018560000160006101000a81548167ffffffffffffffff021916908367ffffffffffffffff1602179055508315611ba15760018560000160086101000a81548160ff0219169083151502179055505b611bb567651eda0bc9afd0b460c01b6126fa565b611bc9675e93d5773172dd2d60c01b6126fa565b611bdd67fff0c31d66d4a54160c01b6126fa565b611bf167c93ada143968fa5260c01b6126fa565b611bf961438c565b611c0d67bf809a34ec79afed60c01b6126fa565b8a603260006101000a81548173ffffffffffffffffffffffffffffffffffffffff021916908373ffffffffffffffffffffffffffffffffffffffff160217905550611c626732754c298c7d438860c01b6126fa565b89603360006101000a81548173ffffffffffffffffffffffffffffffffffffffff021916908373ffffffffffffffffffffffffffffffffffffffff160217905550611cb767fa6514969606914e60c01b6126fa565b611ccb673d4677984ed256f660c01b6126fa565b8751895114611d2e57611ce867171673d5242c3f0d60c01b6126fa565b611cfc671a34d7f012b0478f60c01b6126fa565b6040517f899ef10d00000000000000000000000000000000000000000000000000000000815260040160405180910390fd5b611d4267cc26d17c0dbb93e160c01b6126fa565b611d566775c73d28c01a54bd60c01b6126fa565b611d6a6785a5c8f0c6b52e1360c01b6126fa565b8551875114611dcd57611d87678ef8fb078dbb0cbc60c01b6126fa565b611d9b671d5402af547c360c60c01b6126fa565b6040517f899ef10d00000000000000000000000000000000000000000000000000000000815260040160405180910390fd5b611de167a81a118092f25bfc60c01b6126fa565b611df56797183bf4674dd90060c01b6126fa565b611e096775965afc4ce2869d60c01b6126fa565b60005b8951811015611ebc57611e2967f8db4a672da0da2460c01b6126fa565b888181518110611e3c57611e3b6172d3565b5b6020026020010151603460008c8481518110611e5b57611e5a6172d3565b5b6020026020010151815260200190815260200160002060006101000a81548173ffffffffffffffffffffffffffffffffffffffff021916908373ffffffffffffffffffffffffffffffffffffffff1602179055508080600101915050611e0c565b50611ed06620a3f1bcaef9b260c01b6126fa565b611ee46780be60a307b6516660c01b6126fa565b60005b8751811015611f9757611f04675e9bbf282cc38ff660c01b6126fa565b868181518110611f1757611f166172d3565b5b6020026020010151603560008a8481518110611f3657611f356172d3565b5b6020026020010151815260200190815260200160002060006101000a81548173ffffffffffffffffffffffffffffffffffffffff021916908373ffffffffffffffffffffffffffffffffffffffff1602179055508080600101915050611ee7565b50611fac6753f3878b904df05760c01b6126fa565b611fc067328371d6716a9fd060c01b6126fa565b7f5a70813cf1b6cd11d1164e9788f7d124185bf692c3197538d52d6067953d318f8b8b8b8b8b8b604051611ff996959493929190617411565b60405180910390a1831561205d5760008560000160086101000a81548160ff0219169083151502179055507fc7f505b2f371ae2175ee4913f4499e1f2633a7b5936321eed1cdaeb6115181d260016040516120549190617488565b60405180910390a15b5050505050505050505050565b61207e67cc43c8ad247dd59e60c01b6126fa565b6120866126fd565b61209a674b4693922c50b95260c01b6126fa565b6120ae675deeb174ce2ce8c860c01b6126fa565b6120b6612ba2565b6120ca674c6cd80bca8ccd4660c01b6126fa565b6120de674b043323800f3c8560c01b6126fa565b6120f26705cdb0a80880e08360c01b6126fa565b612106673cfd3895b7b62b6660c01b6126fa565b81819050848490501461216d57612127673f8e3bae843945e360c01b6126fa565b61213b679793dded69007c2c60c01b6126fa565b6040517f899ef10d00000000000000000000000000000000000000000000000000000000815260040160405180910390fd5b612181670226ad35650e69d160c01b6126fa565b612195671dd3cd3971c52f2060c01b6126fa565b6121a96713f19527b768495560c01b6126fa565b60005b8484905081101561230b576121cb672c9c9911439c329a60c01b6126fa565b8282828181106121de576121dd6172d3565b5b90506020020160208101906121f391906169b2565b6035600087878581811061220a576122096172d3565b5b90506020020135815260200190815260200160002060006101000a81548173ffffffffffffffffffffffffffffffffffffffff021916908373ffffffffffffffffffffffffffffffffffffffff16021790555061227167172fb9e75e7eb6c460c01b6126fa565b61228567ac7c8c399b59200660c01b6126fa565b7f02c7aeb52f414fb9b4dfa6100f38185b5e12b184349218c18700bc39423bedc98585838181106122b9576122b86172d3565b5b905060200201358484848181106122d3576122d26172d3565b5b90506020020160208101906122e891906169b2565b6040516122f6929190617308565b60405180910390a180806001019150506121ac565b5050505050565b61231a612ba2565b600061232461433c565b9050818160000160006101000a81548173ffffffffffffffffffffffffffffffffffffffff021916908373ffffffffffffffffffffffffffffffffffffffff1602179055508173ffffffffffffffffffffffffffffffffffffffff16612388611919565b73ffffffffffffffffffffffffffffffffffffffff167f38d16b8cac22d99fc7c124b9cd0de2d3fa1faef420bfe791d8c362d765e2270060405160405180910390a35050565b6123e26706ba1a6612a6f33e60c01b6126fa565b6123ea6126fd565b6123fe6776ec1970d7ef19ae60c01b6126fa565b612412673050e5850767c32560c01b6126fa565b61241a612ba2565b61242e67df3eadfd27c6a69960c01b6126fa565b612442670a8c2861f7987e7f60c01b6126fa565b61245667bbb1ce67977d5e0a60c01b6126fa565b61246a672bba869db5f177fb60c01b6126fa565b8181905084849050146124d15761248b67839dd1107b2b341360c01b6126fa565b61249f67716c79abe3ea31d360c01b6126fa565b6040517f899ef10d00000000000000000000000000000000000000000000000000000000815260040160405180910390fd5b6124e567a7da7f4d26d70d9760c01b6126fa565b6124f967fa844bbf24a7bbf360c01b6126fa565b61250d67f55cee35e9d81e3460c01b6126fa565b60005b8484905081101561266f5761252f672a877d41b9e04b4360c01b6126fa565b828282818110612542576125416172d3565b5b905060200201602081019061255791906169b2565b6034600087878581811061256e5761256d6172d3565b5b90506020020135815260200190815260200160002060006101000a81548173ffffffffffffffffffffffffffffffffffffffff021916908373ffffffffffffffffffffffffffffffffffffffff1602179055506125d56769399beef89a54b860c01b6126fa565b6125e96720946519bef3bb1660c01b6126fa565b7f2bdbcbf49383457c270bf05734cc8d74acb8a5788f0dc6384a715680f6a4dbcf85858381811061261d5761261c6172d3565b5b90506020020135848484818110612637576126366172d3565b5b905060200201602081019061264c91906169b2565b60405161265a929190617308565b60405180910390a18080600101915050612510565b5050505050565b61267e616633565b61269267d03aeb61e289a7da60c01b6126fa565b61269a6126fd565b6126ae67d7becbb3c98baed160c01b6126fa565b6126c267a1bd3c972f4da8d560c01b6126fa565b6126d6677b9cf55088680df360c01b6126fa565b6126ea67f94a4811304eb75260c01b6126fa565b6126f382614433565b9050919050565b50565b7f000000000000000000000000000000000000000000000000000000000000000073ffffffffffffffffffffffffffffffffffffffff163073ffffffffffffffffffffffffffffffffffffffff1614806127aa57507f000000000000000000000000000000000000000000000000000000000000000073ffffffffffffffffffffffffffffffffffffffff166127916145e5565b73ffffffffffffffffffffffffffffffffffffffff1614155b156127e1576040517fe07c8dba00000000000000000000000000000000000000000000000000000000815260040160405180910390fd5b565b6127f7673adaf434d07744c660c01b6126fa565b61280b671e3ee85c11546a8160c01b6126fa565b61281f67f2de2b4c5ba33b1f60c01b6126fa565b60006034600084815260200190815260200160002060009054906101000a900473ffffffffffffffffffffffffffffffffffffffff16905061286b67c176df07576ac28260c01b6126fa565b61287f67302f34e17817e59960c01b6126fa565b600073ffffffffffffffffffffffffffffffffffffffff168173ffffffffffffffffffffffffffffffffffffffff160361290d576128c767e21e6e3f6b1f4cd360c01b6126fa565b6128db67a98e6a15417b398e60c01b6126fa565b6040517f8e727f4600000000000000000000000000000000000000000000000000000000815260040160405180910390fd5b61292167532ec6c9826ad83160c01b6126fa565b61293567056913fe7a3cdd2560c01b6126fa565b61294967e59b73086ad09e1460c01b6126fa565b603260009054906101000a900473ffffffffffffffffffffffffffffffffffffffff1673ffffffffffffffffffffffffffffffffffffffff16639fc1e423836060015160026003811061299f5761299e6172d3565b5b60200201516040518263ffffffff1660e01b81526004016129c09190617372565b602060405180830381865afa1580156129dd573d6000803e3d6000fd5b505050506040513d601f19601f82011682018060405250810190612a0191906174a3565b612a5f57612a19676cc546221319b80d60c01b6126fa565b612a2d67814fb81bac98fd6560c01b6126fa565b6040517f5290660100000000000000000000000000000000000000000000000000000000815260040160405180910390fd5b612a7367f8dda70c64e04c6f60c01b6126fa565b612a8767fa9ac32dd676e00c60c01b6126fa565b612a9b67246ed7ea885e343760c01b6126fa565b8073ffffffffffffffffffffffffffffffffffffffff166311479fea83600001518460200151856040015186606001516040518563ffffffff1660e01b8152600401612aea949392919061752d565b602060405180830381865afa158015612b07573d6000803e3d6000fd5b505050506040513d601f19601f82011682018060405250810190612b2b91906174a3565b612b8957612b4367e0299caa53b9628960c01b6126fa565b612b5767dfab135d47c9592960c01b6126fa565b6040517f9003ac4d00000000000000000000000000000000000000000000000000000000815260040160405180910390fd5b612b9d6718afeb661d49ce2560c01b6126fa565b505050565b612baa61430c565b73ffffffffffffffffffffffffffffffffffffffff16612bc8611919565b73ffffffffffffffffffffffffffffffffffffffff1614612c2757612beb61430c565b6040517f118cdaa7000000000000000000000000000000000000000000000000000000008152600401612c1e9190616cc3565b60405180910390fd5b565b6060612c3f671293b8457941275160c01b61463c565b612c5367b1ddc5f1318babf160c01b61463c565b612c6767ee147972ab49172360c01b61463c565b60006040518060600160405280601f60ff168152602001601f60ff168152602001601d60ff168152509050612ca667307c0486c92a19e260c01b61463c565b612cba675628e1728d1520d260c01b61463c565b6000605b67ffffffffffffffff811115612cd757612cd66166c2565b5b6040519080825280601f01601f191660200182016040528015612d095781602001600182028036833780820191505090505b509050612d206772e80fb9143b838760c01b61463c565b612d346777d0205b6ac120e760c01b61463c565b6000612d4a673fbf51b55c0b344060c01b61463c565b612d5e6732ca9f5680a1d6a660c01b61463c565b60005b6003811015612e9e57612d7e6766fcdcd0acc097d360c01b61463c565b612d9267c028d68299e69dcb60c01b61463c565b6000868260038110612da757612da66172d3565b5b60200201519050612dc2675a0e2881fee2747560c01b61463c565b612dd667316df5662946248e60c01b61463c565b60005b858360038110612dec57612deb6172d3565b5b602002015160ff168160ff161015612e8f57612e1267765aa0cbedc6416560c01b61463c565b60ff821660f81b858580612e2590617571565b965081518110612e3857612e376172d3565b5b60200101907effffffffffffffffffffffffffffffffffffffffffffffffffffffffffffff1916908160001a905350612e7b674abb0dcb2a71063a60c01b61463c565b600882901c91508080600101915050612dd9565b50508080600101915050612d61565b50612eb367a8ab557a841ec6cd60c01b61463c565b612ec7671e27182000c7899e60c01b61463c565b819350505050919050565b6060612ee867217e3b2a4a6d855860c01b61463f565b612efc6795b54d685bd8c3ca60c01b61463f565b612f1067a5f46e9a74d63b2b60c01b61463f565b612f1d8260026004614642565b9050919050565b6060612f3a67bda9c8eb7ab5932160c01b61463f565b612f4e674a2bfbd05f4dc74f60c01b61463f565b612f62679e251d4313539fa860c01b61463f565b612f77612f72836005602b614642565b614881565b9050919050565b6060612f94679f6ec93b6688d0e960c01b61463f565b612fa8673ef235c0c62da37560c01b61463f565b612fbc6725b3fb320016519760c01b61463f565b612fc982602c6034614642565b9050919050565b6060612fe6670a0de6a3caa70c3e60c01b61463f565b612ffa67a1946939c60d39be60c01b61463f565b61300e67d6d6f8ce2dad529460c01b61463f565b61301b8260366038614642565b9050919050565b606061303867f6b122c4eff3600760c01b61463f565b61304c6759728dab138abddf60c01b61463f565b613060674a78f3e4eb25210160c01b61463f565b613075613070836039603e614642565b614e2a565b9050919050565b6060613092675d0c7e5de763ae5660c01b61463f565b6130a66777ad014cdbace3e360c01b61463f565b6130ba67c4359c8cda2c9f5660c01b61463f565b6130c682604080614642565b9050919050565b60606130e3677e692e1d7098a7a060c01b61463f565b6130f767b2b974bd0eeb76e160c01b61463f565b61310b674bb53c78c7160fc160c01b61463f565b61312061311b8360416046614642565b614e2a565b9050919050565b600061313d6761e60333fe752da360c01b61463f565b61315167e7fa47036d4605f460c01b61463f565b6131656780dd2b587e84778d60c01b61463f565b61319e82600160586131779190617354565b81518110613188576131876172d3565b5b602001015160f81c60f81b60f81c60ff16614fe0565b600a6131cd846058815181106131b7576131b66172d3565b5b602001015160f81c60f81b60f81c60ff16614fe0565b6131d7919061758f565b6131e19190617354565b9050919050565b60006131fe673740a981e266c9d160c01b61463f565b613212674d1b3a12a8a2390160c01b61463f565b61322667e6931d50e85d89e260c01b61463f565b81605a8151811061323a576132396172d3565b5b602001015160f81c60f81b60f81c60ff169050919050565b60006132686787b6df4de1203a5f60c01b6126fa565b61327c67f3cdf173b8f2400660c01b6126fa565b61329067186e51713917613560c01b6126fa565b603260009054906101000a900473ffffffffffffffffffffffffffffffffffffffff1673ffffffffffffffffffffffffffffffffffffffff1663fd05ecd88360a00151606001516006601081106132ea576132e96172d3565b5b60200201516040518263ffffffff1660e01b815260040161330b9190617372565b602060405180830381865afa158015613328573d6000803e3d6000fd5b505050506040513d601f19601f8201168201806040525081019061334c91906174a3565b6133aa5761336467100cf0904277819b60c01b6126fa565b613378670b3d474e9ed7f01060c01b6126fa565b6040517f5290660100000000000000000000000000000000000000000000000000000000815260040160405180910390fd5b6133be672ed2e154f32ed32860c01b6126fa565b6133d26765a5d9e685d65c9f60c01b6126fa565b6133e6672c435c9f6c33915f60c01b6126fa565b6133ee61665b565b61340267df07d74c29ece2b160c01b6126fa565b6134166766991d21dc3c20ca60c01b6126fa565b60005b600681101561348b576134366702bfe0e71d2fc0d660c01b6126fa565b8360a001516060015181600761344c9190617354565b6010811061345d5761345c6172d3565b5b6020020151828260068110613475576134746172d3565b5b6020020181815250508080600101915050613419565b506134a067ca978179a51ee21360c01b6126fa565b6134b467a9abb5379e4c7bf460c01b6126fa565b60006134bf82615114565b90506134d567cd05498795d3df2860c01b6126fa565b6134e9672601a8150135010f60c01b6126fa565b6001620151806134f7615279565b61350191906175b1565b61350b9190617354565b8110801561352957506135286719a1c178f9c84bd360c01b6152d6565b5b80613570575060016201518061353d615279565b6135479190617354565b61355191906175b1565b8111801561356f575061356e67ac91ce664ea155e760c01b6152d6565b5b5b156135cf576135896769340a921158488160c01b6126fa565b61359d6778b65dfcb0b15ca560c01b6126fa565b6040517fed8cf9ff00000000000000000000000000000000000000000000000000000000815260040160405180910390fd5b6135e367c0e4f03c5db5894260c01b6126fa565b6135f7676dea3de0374a68b860c01b6126fa565b61360b6766caac6f41f8e7fa60c01b6126fa565b61361361667d565b6136276715cb91d87d644eec60c01b6126fa565b61363a6658eda5825363ab60c01b6126fa565b60005b60038110156136af5761365a67610cd8c8277f9bf960c01b6126fa565b8560a00151606001518160006136709190617354565b60108110613681576136806172d3565b5b6020020151828260038110613699576136986172d3565b5b602002018181525050808060010191505061363d565b506136c4674f5479b6b05d3b7960c01b6126fa565b6136d867bba3c43b226844ff60c01b6126fa565b8460000151156137ab576136f667977edfb89588dc7e60c01b6126fa565b61370a6760b8623fb13b69d460c01b6126fa565b61371e670f5b50368b757bdc60c01b6126fa565b61373461372a82612c29565b86602001516152e1565b6137925761374c674b698e9b69458cd560c01b6126fa565b61376067e7ebe2e23064108a60c01b6126fa565b6040517ff0e539b900000000000000000000000000000000000000000000000000000000815260040160405180910390fd5b6137a667521272f77735252160c01b6126fa565b6137c0565b6137bf67cadd73bd3f3d879160c01b6126fa565b5b6137d4673f26e00961f0dd3160c01b6126fa565b6137e8675a90feb8f732face60c01b6126fa565b846080015115613a0c5761380667d0b826849e48f53760c01b6126fa565b61381a67dfc42674fe1b614a60c01b6126fa565b61382e677575ca80619d801a60c01b6126fa565b61383f61383a82612c29565b615333565b61389d576138576706e6c50acf6cf94360c01b6126fa565b61386b67dd349923a38eb77d60c01b6126fa565b6040517f71b125ed00000000000000000000000000000000000000000000000000000000815260040160405180910390fd5b6138b167485be196cc4ff72660c01b6126fa565b6138c567de552a91829f37c560c01b6126fa565b6138d9676b834a2f08a2e68e60c01b6126fa565b603260009054906101000a900473ffffffffffffffffffffffffffffffffffffffff1673ffffffffffffffffffffffffffffffffffffffff1663a2d96afa8660a0015160600151600d60108110613933576139326172d3565b5b60200201516040518263ffffffff1660e01b81526004016139549190617372565b602060405180830381865afa158015613971573d6000803e3d6000fd5b505050506040513d601f19601f8201168201806040525081019061399591906174a3565b6139f3576139ad6715ae9fc9e68538ed60c01b6126fa565b6139c1670b12d5f5da4fb2dd60c01b6126fa565b6040517f1ce3d3ca00000000000000000000000000000000000000000000000000000000815260040160405180910390fd5b613a0767036aceb53e2a0e0a60c01b6126fa565b613a21565b613a20676921933a427636eb60c01b6126fa565b5b613a35679f2d649a2cb3404b60c01b6126fa565b613a496741b47cbe33cd310f60c01b6126fa565b846040015115613b2d57613a676708923436facb573a60c01b6126fa565b613a7b6730f7337d085bbfb660c01b6126fa565b613a8f670f1a41bf9e39786c60c01b6126fa565b8460a0015160600151600360108110613aab57613aaa6172d3565b5b6020020151856060015114613b1457613ace6702556d9e872e5e8e60c01b6126fa565b613ae267c03f8760bb347be860c01b6126fa565b6040517fbf21b11c00000000000000000000000000000000000000000000000000000000815260040160405180910390fd5b613b286778aa0c2cd61b376e60c01b6126fa565b613b42565b613b4167a12a55b4e2bc7d8060c01b6126fa565b5b613b566709cfa4aae3219dee60c01b6126fa565b613b6a67c680d7197e57647e60c01b6126fa565b603360009054906101000a900473ffffffffffffffffffffffffffffffffffffffff1673ffffffffffffffffffffffffffffffffffffffff1663c82febf58660a00151600001518760a00151602001518860a00151604001518960a00151606001516040518563ffffffff1660e01b8152600401613beb94939291906175cf565b602060405180830381865afa158015613c08573d6000803e3d6000fd5b505050506040513d601f19601f82011682018060405250810190613c2c91906174a3565b613c8a57613c4467865c47e374af2aaf60c01b6126fa565b613c586760888bf7934762f960c01b6126fa565b6040517fd4d37a7a00000000000000000000000000000000000000000000000000000000815260040160405180910390fd5b613c9e67e6d556adc8234d6060c01b6126fa565b613cb26730cdd60138f0e2d860c01b6126fa565b613cc6673c5b67663e4c19d160c01b6126fa565b8460a0015160600151600660108110613ce257613ce16172d3565b5b60200201519350505050919050565b613d0567224792280af989f260c01b6126fa565b613d1967da5005aef1f4563c60c01b6126fa565b613d2d6780dceb8a7daaf54860c01b6126fa565b60006035600084815260200190815260200160002060009054906101000a900473ffffffffffffffffffffffffffffffffffffffff169050613d796706d3cd7771648cb260c01b6126fa565b613d8d67c05de1d4d75f6d7860c01b6126fa565b600073ffffffffffffffffffffffffffffffffffffffff168173ffffffffffffffffffffffffffffffffffffffff1603613e1b57613dd567b81c3a9978d2f25160c01b6126fa565b613de967a2237a958228822b60c01b6126fa565b6040517f8e727f4600000000000000000000000000000000000000000000000000000000815260040160405180910390fd5b613e2f6779d855eb0917625a60c01b6126fa565b613e43679b90f27f788a5d9b60c01b6126fa565b613e57678436046fa7a76a8b60c01b6126fa565b603260009054906101000a900473ffffffffffffffffffffffffffffffffffffffff1673ffffffffffffffffffffffffffffffffffffffff16631465ff7f8360600151600160028110613ead57613eac6172d3565b5b60200201516040518263ffffffff1660e01b8152600401613ece9190617372565b602060405180830381865afa158015613eeb573d6000803e3d6000fd5b505050506040513d601f19601f82011682018060405250810190613f0f91906174a3565b613f6d57613f2767c12e2a75f52f4cbb60c01b6126fa565b613f3b677847882ec65ebea960c01b6126fa565b6040517fa294ad3c00000000000000000000000000000000000000000000000000000000815260040160405180910390fd5b613f816786e1f5c0c14ba6a560c01b6126fa565b613f95670fa81eb7ba854f7560c01b6126fa565b613fa967a140dca8f5ee634060c01b6126fa565b8073ffffffffffffffffffffffffffffffffffffffff1663f5c9d69e83600001518460200151856040015186606001516040518563ffffffff1660e01b8152600401613ff89493929190617635565b602060405180830381865afa158015614015573d6000803e3d6000fd5b505050506040513d601f19601f8201168201806040525081019061403991906174a3565b61409757614051679920c2bf68c0206960c01b6126fa565b61406567f5939819bdf92fe960c01b6126fa565b6040517f6a86dd7600000000000000000000000000000000000000000000000000000000815260040160405180910390fd5b6140ab6735c318a10e71415c60c01b6126fa565b505050565b6140c467d8f0d29ecacc10eb60c01b615384565b6140cc6126fd565b6140e0670b539c2173a47a3e60c01b615384565b6140f366f3676e88c4d29560c01b615384565b6140fb612ba2565b61410f67e5b0075aed42bd5160c01b615384565b6141236738edf3b809982c7460c01b615384565b50565b8173ffffffffffffffffffffffffffffffffffffffff166352d1902d6040518163ffffffff1660e01b8152600401602060405180830381865afa92505050801561418e57506040513d601f19601f8201168201806040525081019061418b9190617679565b60015b6141cf57816040517f4c9c8ce30000000000000000000000000000000000000000000000000000000081526004016141c69190616cc3565b60405180910390fd5b7f360894a13ba1a3210667c828492db98dca3e2076cc3735a920a3ca505d382bbc60001b811461423657806040517faa1d49a400000000000000000000000000000000000000000000000000000000815260040161422d9190616fab565b60405180910390fd5b6142408383615387565b505050565b7f000000000000000000000000000000000000000000000000000000000000000073ffffffffffffffffffffffffffffffffffffffff163073ffffffffffffffffffffffffffffffffffffffff16146142ca576040517fe07c8dba00000000000000000000000000000000000000000000000000000000815260040160405180910390fd5b565b60006142d661433c565b90508060000160006101000a81549073ffffffffffffffffffffffffffffffffffffffff0219169055614308826153fa565b5050565b600033905090565b60007f9016d09d72d40fdae2fd8ceac6b6234c7706214fd39c1cd1e609a0528c199300905090565b60007f237e158222e3e6968b72b9db0d8043aacf074ad9f650f0d1606b4d82ee432c00905090565b60007ff0c57e16840df040f15088dc2f81fe391c3923bec73e23a9662efc9c229c6a00905090565b6143a067e0ac6f8267a12b2360c01b615384565b6143a86154d1565b6143bc67a98a64a67183a89d60c01b615384565b6143d067f51291f25f6e150960c01b615384565b6143e46717cdabef0ba9179f60c01b615384565b6143f8674799014289b2c02e60c01b615384565b61440133615511565b61441567a6aa6b32c4b3a17360c01b615384565b61442967254191c608b62dee60c01b615384565b614431615525565b565b61443b616633565b61444f672134c8c012f274c660c01b61463c565b61446367430a57af399a15d860c01b61463c565b6144776702642a0c577f17ec60c01b61463c565b60005b600a8110156145b757614497677f05cec5cf0c991760c01b61463c565b6144ab6721e7d8d2e6aa1bb860c01b61463c565b60006003826144ba919061758f565b90506144d0678d97f1d00a3381ea60c01b61463c565b6144e467539d65ed38a49bad60c01b61463c565b60006008826144f3919061758f565b90506145096709ab05aa61d4eefc60c01b61463c565b61451d67843b1a958974fd0e60c01b61463c565b600062ffffff905061453967313e62389215f37460c01b61463c565b61454d67e8b671285d63e91e60c01b61463c565b6000818388901c16905061456b676e88902dbd1c943f60c01b61463c565b8060405160200161457c9190617695565b6040516020818303038152906040528686600a811061459e5761459d6172d3565b5b602002018190525050505050808060010191505061447a565b506145cc6790559e5362e19c6a60c01b61463c565b6145e06775c164f1fbe93ac560c01b61463c565b919050565b60006146137f360894a13ba1a3210667c828492db98dca3e2076cc3735a920a3ca505d382bbc60001b61552f565b60000160009054906101000a900473ffffffffffffffffffffffffffffffffffffffff16905090565b50565b50565b606061465867b00932d9359174cf60c01b61463f565b61466c67e23771a5ea38203060c01b61463f565b61468067e735418538f6533b60c01b61463f565b818451116146e25761469c67d772dab58e6aefe360c01b61463f565b6146b067e0122fb49e68157360c01b61463f565b6040517ffe9a439f00000000000000000000000000000000000000000000000000000000815260040160405180910390fd5b6146f667fdfecbcaed5ac59260c01b61463f565b61470a6795ac8500de95825860c01b61463f565b61471e67a217e154bb48ca8960c01b61463f565b60006001848461472e91906175b1565b6147389190617354565b67ffffffffffffffff811115614751576147506166c2565b5b6040519080825280601f01601f1916602001820160405280156147835781602001600182028036833780820191505090505b50905061479a676c3f208dc942bec560c01b61463f565b6147ae67519b46e93656e8cb60c01b61463f565b60008490505b83811161484d576147cf67f3be6ccae142862060c01b61463f565b8581815181106147e2576147e16172d3565b5b602001015160f81c60f81b8286836147fa91906175b1565b8151811061480b5761480a6172d3565b5b60200101907effffffffffffffffffffffffffffffffffffffffffffffffffffffffffffff1916908160001a905350808061484590617571565b9150506147b4565b5061486267cab7336016d978b060c01b61463f565b61487667d88e5073ce061e5f60c01b61463f565b809150509392505050565b6060614897675ad13b61d906ef6e60c01b61463c565b6148ab67b7b2905bf4e2996e60c01b61463c565b6148bf6745fa75c9dcf64e2f60c01b61463c565b60008290506148d867ce6224aa2e4a7c8f60c01b61463c565b6148ec67d4f4a7928de354f260c01b61463c565b606061490267cc7346c77637fd5360c01b61463c565b614916679e64637ce805f02560c01b61463c565b606061492c67ccc261b337e9ce6c60c01b61463c565b61494067f328a53b55bafe0e60c01b61463c565b6000600267ffffffffffffffff81111561495d5761495c6166c2565b5b60405190808252806020026020018201604052801561499057816020015b606081526020019060019003908161497b5790505b5090506149a7679a4cf17653154ff460c01b61463c565b6149bb670750c674a23fe51860c01b61463c565b60006149d167acb1bad8a90611e860c01b61463c565b6149e56724f5e4f6feb205aa60c01b61463c565b5b845181108015614a5557507f3c00000000000000000000000000000000000000000000000000000000000000858281518110614a2557614a246172d3565b5b602001015160f81c60f81b7effffffffffffffffffffffffffffffffffffffffffffffffffffffffffffff191614155b15614ad657614a6e67a26cbafff05ba90260c01b61463c565b82858281518110614a8257614a816172d3565b5b602001015160f81c60f81b604051602001614a9e9291906176b1565b6040516020818303038152906040529250614ac3677f9667f0c47b715660c01b61463c565b8080614ace90617571565b9150506149e6565b614aea67fcc00a7b68eb195d60c01b61463c565b600281614af79190617354565b9050614b0d675aa72b5101bf018f60c01b61463c565b614b2167a1e0ef0c7da17d6160c01b61463c565b5b8451811015614d8d57614b3f6753f832b4b389ec9460c01b61463c565b614b536751cef83e29f72b9960c01b61463c565b7f3c00000000000000000000000000000000000000000000000000000000000000858281518110614b8757614b866172d3565b5b602001015160f81c60f81b7effffffffffffffffffffffffffffffffffffffffffffffffffffffffffffff191603614cfc57614bcd673240e82b1845d22360c01b61463c565b614be1672ee878dc4e64bcd560c01b61463c565b614bf56724c4ea9c1ab7759060c01b61463c565b8451600182614c049190617354565b108015614c7b57507f3c0000000000000000000000000000000000000000000000000000000000000085600183614c3b9190617354565b81518110614c4c57614c4b6172d3565b5b602001015160f81c60f81b7effffffffffffffffffffffffffffffffffffffffffffffffffffffffffffff1916145b15614cad57614c9467f2ab5800afc6174060c01b61463c565b614ca8676b7161afb83b4e6460c01b61463c565b614d8d565b614cc167f9e57b9ff30f97ac60c01b61463c565b614cd567246162538295fa4d60c01b61463c565b83604051602001614ce691906176df565b6040516020818303038152906040529350614d66565b614d106763e2550b333b575460c01b61463c565b614d2467b2aacd69a879e65d60c01b61463c565b83858281518110614d3857614d376172d3565b5b602001015160f81c60f81b604051602001614d549291906176b1565b60405160208183030381529060405293505b614d7a67c0df0bbcd082795f60c01b61463c565b8080614d8590617571565b915050614b22565b614da16759f77b9a7d38625160c01b61463c565b8382600081518110614db657614db56172d3565b5b6020026020010181905250614dd567deae9e25cc98fdb760c01b61463c565b8282600181518110614dea57614de96172d3565b5b6020026020010181905250614e0967941fa338c0a194a460c01b61463c565b614e1d677b82f6c4faff1e1c60c01b61463c565b8195505050505050919050565b6060614e4067437d9d470d9eb97060c01b61463c565b614e5467c21aba8a96950b3460c01b61463c565b614e6867d2df5956a51dd69460c01b61463c565b6006825114614ecb57614e85674cd666bcf384e35f60c01b61463c565b614e9967b9704398292310e160c01b61463c565b6040517fb337595300000000000000000000000000000000000000000000000000000000815260040160405180910390fd5b614edf67393aa17e1463b65360c01b61463c565b614ef367f787807dd9d9fa6b60c01b61463c565b614f0767a8e8b623a488a23260c01b61463c565b6000614f168360006002615539565b9050614f2c678c3b4b52c2e8806060c01b61463c565b614f4067d269a5d603bdeb9360c01b61463c565b6000614f4f8460026004615539565b9050614f65675ff241e8b9639f4b60c01b61463c565b614f7967e080d8914e234eb960c01b61463c565b6000614f888560046006615539565b9050614f9e67fa33a1643fcff57260c01b61463c565b614fb267ef33ffaa1377968b60c01b61463c565b808284604051602001614fc793929190617726565b6040516020818303038152906040529350505050919050565b6000614ff6673c972566951e3a6b60c01b61463c565b61500a67a14df49e213782e660c01b61463c565b61501e6795d4b2af9c24315b60c01b61463c565b60308210801561503e575061503d6760f64194247e478260c01b6156f7565b5b806150655750603982118015615064575061506367fad36784cb9ec65f60c01b6156f7565b5b5b156150c45761507e6774e40db6d5dea70d60c01b61463c565b615092673290d1bb84ba335e60c01b61463c565b6040517ff1ebec9600000000000000000000000000000000000000000000000000000000815260040160405180910390fd5b6150d867c9328cb038efef3a60c01b61463c565b6150ec6775994092733d72a460c01b61463c565b61510067bfd369c97a9c08cb60c01b61463c565b60308261510d91906175b1565b9050919050565b600061512a67ffaecc124d11874260c01b61463c565b61513e679901c432c2a06fe160c01b61463c565b61515267cc9174c098ceaff660c01b61463c565b600060405180602001604052806000815250905061517a676ec1cd4217efaecd60c01b61463c565b61518e67253a28b324844a2e60c01b61463c565b60005b6006811015615211576151ae6794c550979a22800560c01b61463c565b81600a8583600681106151c4576151c36172d3565b5b60200201516151d391906177c6565b60306151df9190617354565b60f81b6040516020016151f39291906177ee565b60405160208183030381529060405291508080600101915050615191565b5061522667c558f631a772f79460c01b61463c565b61523a672f1bb5f8ca0d394a60c01b61463c565b600061524582615702565b905061525b67aa4bd5607740a5e860c01b61463c565b61526f676cc8019392460ae660c01b61463c565b8092505050919050565b600061528f67d6743433c8ad9bf760c01b6126fa565b6152a3672438b083272c5ef660c01b6126fa565b6152b767df493efb91744d3960c01b6126fa565b62015180426152c691906177c6565b426152d191906175b1565b905090565b600060019050919050565b60006152f76733f4a66c75ee30dc60c01b61463f565b61530b67254bb7bbdfd92cee60c01b61463f565b61531f6713a59143bdd7e1be60c01b61463f565b8161532984613127565b1015905092915050565b600061534967b7d36f4e42aab37360c01b61463f565b61535d671d2f1e369a0a815f60c01b61463f565b615371670ca154d266a5b38f60c01b61463f565b600161537c836131e8565b149050919050565b50565b615390826158c4565b8173ffffffffffffffffffffffffffffffffffffffff167fbc7cd75a20ee27fd9adebab32041f755214dbc6bffa90cc0225b39da2e5c2d3b60405160405180910390a26000815111156153ed576153e78282615991565b506153f6565b6153f5615a15565b5b5050565b6000615404614314565b905060008160000160009054906101000a900473ffffffffffffffffffffffffffffffffffffffff169050828260000160006101000a81548173ffffffffffffffffffffffffffffffffffffffff021916908373ffffffffffffffffffffffffffffffffffffffff1602179055508273ffffffffffffffffffffffffffffffffffffffff168173ffffffffffffffffffffffffffffffffffffffff167f8be0079c531659141344cd1fd0a4f28419497f9722a3daafe3b4186f6b6457e060405160405180910390a3505050565b6154d9615a52565b61550f576040517fd7e6bcf800000000000000000000000000000000000000000000000000000000815260040160405180910390fd5b565b6155196154d1565b61552281615a72565b50565b61552d6154d1565b565b6000819050919050565b606061554f67c469446f54dfaa2960c01b61463c565b61556367ee0bcac072269e4860c01b61463c565b61557767da8b96edb113084f60c01b61463c565b6000849050615590673d974b8a68aa831560c01b61463c565b6155a467abe542875d59fdf660c01b61463c565b600084846155b291906175b1565b67ffffffffffffffff8111156155cb576155ca6166c2565b5b6040519080825280601f01601f1916602001820160405280156155fd5781602001600182028036833780820191505090505b509050615614671f18c3307bc8b9fb60c01b61463c565b61562867924021671440e20660c01b61463c565b60008590505b848110156156c25761564a67f8bd57fe89b47da760c01b61463c565b82818151811061565d5761565c6172d3565b5b602001015160f81c60f81b82878361567591906175b1565b81518110615686576156856172d3565b5b60200101907effffffffffffffffffffffffffffffffffffffffffffffffffffffffffffff1916908160001a905350808060010191505061562e565b506156d7670e1eb9ddafe97f9f60c01b61463c565b6156eb67589c706b4988f97960c01b61463c565b80925050509392505050565b600060019050919050565b600061571867b5f0611ff68b7eac60c01b61463c565b61572c6708ebc61f7cdb7e5760c01b61463c565b6157406779c40c4e073999fd60c01b61463c565b60068251146157a35761575d6762192f23964986cd60c01b61463c565b6157716760a39969f38150a260c01b61463c565b6040517fb337595300000000000000000000000000000000000000000000000000000000815260040160405180910390fd5b6157b767924ffdbab976a0b060c01b61463c565b6157cb677eeff8f68e3611f560c01b61463c565b6157df6763478c56897407ca60c01b61463c565b60006107d06157f96157f48560006002615539565b615af8565b6158039190617354565b905061581967fee22076ccb9c4d760c01b61463c565b61582d677c20e47ab4c9a10760c01b61463c565b600061584461583f8560026004615539565b615af8565b905061585a6708f1676d8ebf27fb60c01b61463c565b61586e6780b450c079a45ec460c01b61463c565b60006158856158808660046006615539565b615af8565b905061589b67544bf250e85d101960c01b61463c565b6158af67037a3c1489bf3f3260c01b61463c565b6158ba838383615d04565b9350505050919050565b60008173ffffffffffffffffffffffffffffffffffffffff163b0361592057806040517f4c9c8ce30000000000000000000000000000000000000000000000000000000081526004016159179190616cc3565b60405180910390fd5b8061594d7f360894a13ba1a3210667c828492db98dca3e2076cc3735a920a3ca505d382bbc60001b61552f565b60000160006101000a81548173ffffffffffffffffffffffffffffffffffffffff021916908373ffffffffffffffffffffffffffffffffffffffff16021790555050565b60606000808473ffffffffffffffffffffffffffffffffffffffff16846040516159bb919061781c565b600060405180830381855af49150503d80600081146159f6576040519150601f19603f3d011682016040523d82523d6000602084013e6159fb565b606091505b5091509150615a0b8583836162f0565b9250505092915050565b6000341115615a50576040517fb398979f00000000000000000000000000000000000000000000000000000000815260040160405180910390fd5b565b6000615a5c614364565b60000160089054906101000a900460ff16905090565b615a7a6154d1565b600073ffffffffffffffffffffffffffffffffffffffff168173ffffffffffffffffffffffffffffffffffffffff1603615aec5760006040517f1e4fbdf7000000000000000000000000000000000000000000000000000000008152600401615ae39190616cc3565b60405180910390fd5b615af5816142cc565b50565b6000615b0e67eb5fa529226574af60c01b61463c565b615b2267f6a76270f277d8c560c01b61463c565b615b36676cd4a98e94d7b27760c01b61463c565b6000829050615b4f671ea38b7e26ed8aeb60c01b61463c565b615b6367933eeffe9eb4f08660c01b61463c565b6000815103615bb257615b80672395f37f4c33580a60c01b61463c565b615b9467bc8b92a639658c2160c01b61463c565b615ba867bfcd42e022c4781660c01b61463c565b6000915050615cff565b615bc66768fe95d3396e01e060c01b61463c565b615bda675a97478f3cfef9ab60c01b61463c565b615bee67b53114cc7e50755260c01b61463c565b6000615c04679ece3c80d0f938c660c01b61463c565b615c1867098b937e72eb1a5b60c01b61463c565b6000615c2e67c65f7838f1d64c2060c01b61463c565b615c4267156e15e3c014ef5d60c01b61463c565b60005b8351811015615ccf57615c626763c9aa2e2da445ac60c01b61463c565b6030848281518110615c7757615c766172d3565b5b602001015160f81c60f81b60f81c60ff16615c9291906175b1565b9250615ca867adf3a83f34d8859860c01b61463c565b82600a83615cb6919061758f565b615cc09190617354565b91508080600101915050615c45565b50615ce4677c4a361a715f79b760c01b61463c565b615cf8675b2c6a4d53628ba460c01b61463c565b8093505050505b919050565b6000615d1a67cc46e6c375b553ef60c01b61463c565b615d2e67f2888a13d7ba1a7260c01b61463c565b615d4267bc84877062c88eeb60c01b61463c565b6000615d586776a033596208246d60c01b61463c565b615d6c67913f6bc322d1f3fb60c01b61463c565b6107b290505b848161ffff161015615e4557615d926746848d3780efeceb60c01b61463c565b615da667cf6e9ca31cc5d1cc60c01b61463c565b615db38161ffff1661637f565b15615df757615dcc67801627fb5ee9128f60c01b61463c565b615de0672d1bed6c57a9941360c01b61463c565b6301e2850082615df09190617354565b9150615e32565b615e0b67d2d3dc7b4a30151160c01b61463c565b615e1f677a02b726338c198a60c01b61463c565b6301e1338082615e2f9190617354565b91505b8080615e3d9061783a565b915050615d72565b615e596781bf8826581b5a6d60c01b61463c565b615e6d6748399b0f554cd08660c01b61463c565b615e7561669f565b615e89671af10570229b5eb660c01b61463c565b601f816000600c8110615e9f57615e9e6172d3565b5b602002019060ff16908160ff1681525050615ec467fa090b679608723360c01b61463c565b615ed867dfa12f3421ac78e860c01b61463c565b615ee18661637f565b15615f3a57615efa671ddaeacb61b1545d60c01b61463c565b615f0e67a0de6ae42c7081fc60c01b61463c565b601d816001600c8110615f2457615f236172d3565b5b602002019060ff16908160ff1681525050615f8a565b615f4e67a653018fce53d10460c01b61463c565b615f6267c6f3c9be5a3f209060c01b61463c565b601c816001600c8110615f7857615f776172d3565b5b602002019060ff16908160ff16815250505b615f9e6717cf7a58e3c3d85460c01b61463c565b601f816002600c8110615fb457615fb36172d3565b5b602002019060ff16908160ff1681525050615fd967927cd86c322062f260c01b61463c565b601e816003600c8110615fef57615fee6172d3565b5b602002019060ff16908160ff168152505061601467af36a2082331ca7060c01b61463c565b601f816004600c811061602a576160296172d3565b5b602002019060ff16908160ff168152505061604f673012834b9ed533ed60c01b61463c565b601e816005600c8110616065576160646172d3565b5b602002019060ff16908160ff168152505061608a67d090619abcceeb9d60c01b61463c565b601f816006600c81106160a05761609f6172d3565b5b602002019060ff16908160ff16815250506160c567fa1c2c82bac5878160c01b61463c565b601f816007600c81106160db576160da6172d3565b5b602002019060ff16908160ff1681525050616100671cbfb0afa94210b860c01b61463c565b601e816008600c8110616116576161156172d3565b5b602002019060ff16908160ff168152505061613b679431a2cf456e2dbd60c01b61463c565b601f816009600c8110616151576161506172d3565b5b602002019060ff16908160ff168152505061617667de220b188fa61f8b60c01b61463c565b601e81600a600c811061618c5761618b6172d3565b5b602002019060ff16908160ff16815250506161b167e302952a3e31ea0860c01b61463c565b601f81600b600c81106161c7576161c66172d3565b5b602002019060ff16908160ff16815250506161ec677cf2e81bc15427f060c01b61463c565b61620067489d480656515e9d60c01b61463c565b600191505b848261ffff16101561628357616225672951dd256aa4a83860c01b61463c565b6201518081600184616237919061785f565b61ffff16600c811061624c5761624b6172d3565b5b602002015160ff1661625e9190617887565b62ffffff168361626e9190617354565b9250818061627b9061783a565b925050616205565b6162976758624e4496e6646e60c01b61463c565b620151806001856162a891906175b1565b6162b2919061758f565b836162bd9190617354565b92506162d3675c6798fa7cacbd2560c01b61463c565b6162e767658098ec8670b90e60c01b61463c565b50509392505050565b606082616305576163008261655f565b616377565b6000825114801561632d575060008473ffffffffffffffffffffffffffffffffffffffff163b145b1561636f57836040517f9996b3150000000000000000000000000000000000000000000000000000000081526004016163669190616cc3565b60405180910390fd5b819050616378565b5b9392505050565b6000616395674b68b6f03c63e84060c01b61463c565b6163a967a895a0223f1c650f60c01b61463c565b6163bd67f88e8721902485b860c01b61463c565b60006004836163cc91906177c6565b14616416576163e56796ecdc261eeb9e3a60c01b61463c565b6163f967fa9dcd23a223f2c160c01b61463c565b61640d67f9e0ce68e1c4f70860c01b61463c565b6000905061655a565b61642a6719631b9d4647558c60c01b61463c565b61643e67649d4d927f6fa89760c01b61463c565b600060648361644d91906177c6565b146164975761646667b53325897fe9696f60c01b61463c565b61647a6723f5d2a1282e177860c01b61463c565b61648e670573950c9cdc9e2260c01b61463c565b6001905061655a565b6164ab673b20b8c3b36f225860c01b61463c565b6164bf6773fc66e9c24d74a760c01b61463c565b6000610190836164cf91906177c6565b14616519576164e8674e10d003807fb74160c01b61463c565b6164fc67a442204c2da7b11a60c01b61463c565b616510676c791d4310f09c8f60c01b61463c565b6000905061655a565b61652d67ac1c75e4793c565660c01b61463c565b61654167c0ad33d9db07dcdd60c01b61463c565b6165556729df8aef8cb6e34b60c01b61463c565b600190505b919050565b6000815111156165725780518082602001fd5b6040517fd6bda27500000000000000000000000000000000000000000000000000000000815260040160405180910390fd5b6040518061012001604052806060815260200160608152602001606081526020016060815260200160608152602001606081526020016060815260200160008152602001600081525090565b6040518060e00160405280600081526020016000815260200160008152602001600081526020016000815260200161662661667d565b8152602001600081525090565b604051806101400160405280600a905b60608152602001906001900390816166435790505090565b6040518060c00160405280600690602082028036833780820191505090505090565b6040518060600160405280600390602082028036833780820191505090505090565b604051806101800160405280600c90602082028036833780820191505090505090565b634e487b7160e01b600052604160045260246000fd5b600060405190506080810181811067ffffffffffffffff82111715616700576166ff6166c2565b5b806040525090565b6000604051905060c0810181811067ffffffffffffffff821117156167305761672f6166c2565b5b806040525090565b60006040519050601f19601f830116810181811067ffffffffffffffff82111715616766576167656166c2565b5b8060405250919050565b60008060009050610200905061678581616738565b91508181840191508482111561679a57600080fd5b835b828110156167bf576000813590508083525060208201915060208101905061679c565b50505092915050565b600082601f8301126167d957600080fd5b60008060409050506167eb6040616738565b90508060408401858111156167ff57600080fd5b845b818110156168245760008135905080845250602083019250602081019050616801565b5050508091505092915050565b600082601f83011261684257600080fd5b6000806000905050604090506168586040616738565b80608085018681111561686a57600080fd5b855b818110156168905761687e88826167c8565b8452602084019350848101905061686c565b505080935050505092915050565b600082601f8301126168af57600080fd5b60008060609050506168c16060616738565b90508060608401858111156168d557600080fd5b845b818110156168fa57600081359050808452506020830192506020810190506168d7565b5050508091505092915050565b60008082840361018081121561691c57600080fd5b60008435905080935050610160601f198201121561693957600080fd5b506169426166d8565b61694f85602086016167c8565b815261695e8560608601616831565b60208201526169708560e086016167c8565b604082015261698385610120860161689e565b6060820152809150509250929050565b60008135905060018060a01b03811681146169ad57600080fd5b919050565b6000602082840312156169c457600080fd5b6169cd82616993565b905092915050565b600080604083850312156169e857600080fd5b600083359050809250506169fe60208401616993565b90509250929050565b600067ffffffffffffffff821115616a2257616a216166c2565b5b60208260051b019050919050565b60008060808385031215616a4357600080fd5b616a4d848461689e565b9150606083013567ffffffffffffffff811115616a6957600080fd5b808401905084601f820112616a7d57600080fd5b8035616a90616a8b82616a07565b616738565b8082825260208201915060208360051b850101925087831115616ab257600080fd5b6020840193505b82841015616ae557833560098110616ad057600080fd5b80835250602082019150602084019350616ab9565b809450505050509250929050565b60005b83811015616b11578082015181840152602081019050616af6565b50600083830152505050565b60008151808452616b35816020860160208601616af3565b6020601f19601f83011685010191505092915050565b600082825180855260208501945060208160051b8301016020850160005b83811015616b9e57601f19858403018852616b85838351616b1d565b9250602082019150602088019750600181019050616b69565b505080935050505092915050565b60208152600082516101206020840152616bca610140840182616b1d565b90506020840151601f19848303016040850152616be78282616b4b565b9150506040840151601f19848303016060850152616c058282616b1d565b9150506060840151601f19848303016080850152616c238282616b1d565b9150506080840151601f198483030160a0850152616c418282616b1d565b91505060a0840151601f198483030160c0850152616c5f8282616b1d565b91505060c0840151601f198483030160e0850152616c7d8282616b1d565b91505060e08401516101008401526101008401516101208401528091505092915050565b600060208284031215616cb357600080fd5b6000823590508091505092915050565b600060208201905060018060a01b038316825292915050565b8015158114616cea57600080fd5b50565b60008183036103a081128015616d0257600080fd5b60009050616d0e616708565b8435616d1981616cdc565b808252508160208601359050806020830152506040850135616d3a81616cdc565b806040830152508160608601359050806060830152506080850135616d5e81616cdc565b80608083015250610300609f1984011215616d77578182fd5b616d7f6166d8565b9250616d8e8660a087016167c8565b8352616d9d8660e08701616831565b6020840152616db08661016087016167c8565b6040840152856101bf860112616dc4578182fd5b616dd2866101a08701616770565b60608401528260a082015280935050505092915050565b8060005b6003811015616e115781518452602084019350602082019150600181019050616ded565b50505050565b600061012082019050825182526020830151602083015260408301516040830152606083015160608301526080830151608083015260a0830151616e5e60a0840182616de9565b5060c083015161010083015292915050565b600080828403610160811215616e8557600080fd5b60008435905080935050610140601f1982011215616ea257600080fd5b50616eab6166d8565b616eb885602086016167c8565b8152616ec78560608601616831565b6020820152616ed98560e086016167c8565b6040820152616eec8561012086016167c8565b6060820152809150509250929050565b60008060408385031215616f0f57600080fd5b616f1883616993565b9150602083013567ffffffffffffffff811115616f3457600080fd5b808401905084601f820112616f4857600080fd5b803567ffffffffffffffff811115616f6357616f626166c2565b5b616f766020601f19601f84011601616738565b818152866020838501011115616f8b57600080fd5b816020840160208301376000602083830101528093505050509250929050565b600060208201905082825292915050565b602081526000616fcf6020830184616b1d565b905092915050565b600082601f830112616fe857600080fd5b8135616ffb616ff682616a07565b616738565b8082825260208201915060208360051b86010192508583111561701d57600080fd5b602085015b838110156170455760008135905080845250602083019250602081019050617022565b5080935050505092915050565b600082601f83011261706357600080fd5b813561707661707182616a07565b616738565b8082825260208201915060208360051b86010192508583111561709857600080fd5b602085015b838110156170c1576170ae81616993565b835260208301925060208101905061709d565b5080935050505092915050565b60008060008060008060c087890312156170e757600080fd5b6170f087616993565b95506170fe60208801616993565b9450604087013567ffffffffffffffff81111561711a57600080fd5b61712689828a01616fd7565b945050606087013567ffffffffffffffff81111561714357600080fd5b61714f89828a01617052565b935050608087013567ffffffffffffffff81111561716c57600080fd5b61717889828a01616fd7565b92505060a087013567ffffffffffffffff81111561719557600080fd5b6171a189828a01617052565b9150509295509295509295565b60008083601f8401126171c057600080fd5b8235905067ffffffffffffffff8111156171d957600080fd5b6020830191508360208260051b85010111156171f457600080fd5b9250929050565b6000806000806040858703121561721157600080fd5b843567ffffffffffffffff81111561722857600080fd5b617234878288016171ae565b91508095505080935050602085013567ffffffffffffffff81111561725857600080fd5b617264878288016171ae565b9150809350508091505092959194509250565b6000602082016020835280819050610160840191508460005b600a8110156172c657601f198685030183526172ad848351616b1d565b9350602082019150602083019250600181019050617290565b5050508091505092915050565b634e487b7160e01b600052603260045260246000fd5b6000606082019050848252836020830152826040830152949350505050565b600060408201905083825260018060a01b03831660208301529392505050565b634e487b7160e01b600052602160045260246000fd5b634e487b7160e01b600052601160045260246000fd5b600082820190508082111561736c5761736b61733e565b5b92915050565b600060208201905082825292915050565b600081518084526020840193506020830160005b828110156173ba5781518652602086019550602082019150600181019050617397565b50505082905092915050565b600081518084526020840193506020830160005b828110156174055760018060a01b0382511686526020860195506020820191506001810190506173da565b50505082905092915050565b60018060a01b038716815260018060a01b038616602082015260c06040820152600061744060c0830187617383565b828103606084015261745281876173c6565b905082810360808401526174668186617383565b905082810360a084015261747a81856173c6565b915050979650505050505050565b600060208201905067ffffffffffffffff8316825292915050565b6000602082840312156174b557600080fd5b81516174c081616cdc565b8091505092915050565b8060005b60028110156174f257815184526020840193506020820191506001810190506174ce565b50505050565b8060005b6002811015617527576175108483516174ca565b6040840193506020820191506001810190506174fc565b50505050565b60006101608201905061754082876174ca565b61754d60408301866174f8565b61755a60c08301856174ca565b617568610100830184616de9565b95945050505050565b6000801982036175845761758361733e565b5b600182019050919050565b6000828202905081810483148215176175ab576175aa61733e565b5b92915050565b60008282039050818111156175c9576175c861733e565b5b92915050565b6000610300820190506175e282876174ca565b6175ef60408301866174f8565b6175fc60c08301856174ca565b61010082018360005b60108110156176295781518352602083019250602082019150600181019050617605565b50505095945050505050565b60006101408201905061764882876174ca565b61765560408301866174f8565b61766260c08301856174ca565b6176706101008301846174ca565b95945050505050565b60006020828403121561768b57600080fd5b8151905092915050565b62ffffff60e81b8260e81b168152600060038201905092915050565b600083516176c3818460208801616af3565b808301905060ff60f81b84168152600181019150509392505050565b600082516176f1818460208701616af3565b80830190507f200000000000000000000000000000000000000000000000000000000000000081526001810191505092915050565b60008451617738818460208901616af3565b80830190507f2d0000000000000000000000000000000000000000000000000000000000000081528451617773816001840160208901616af3565b8082019150507f2d00000000000000000000000000000000000000000000000000000000000000600182015283516177b2816002840160208801616af3565b600180828401010192505050949350505050565b6000826177e357634e487b7160e01b600052601260045260246000fd5b828206905092915050565b60008351617800818460208801616af3565b808301905060ff60f81b84168152600181019150509392505050565b6000825161782e818460208701616af3565b80830191505092915050565b600061ffff821661ffff81036178535761785261733e565b5b60018101915050919050565b600061ffff831661ffff831603905061ffff8111156178815761788061733e565b5b92915050565b600062ffffff831662ffffff83160262ffffff811691508082146178ae576178ad61733e565b5b509291505056fea164736f6c634300081c000a",
  "linkReferences": {},
  "deployedLinkReferences": {}
}