{
  "_format": "hh-sol-artifact-1",
  "contractName": "IdentityRegistryImplV1",
  "sourceName": "contracts/registry/IdentityRegistryImplV1.sol",
  "abi": [
    {
      "inputs": [],
      "stateMutability": "nonpayable",
      "type": "constructor"
    },
    {
      "inputs": [
        {
          "internalType": "address",
          "name": "target",
          "type": "address"
        }
      ],
      "name": "AddressEmptyCode",
      "type": "error"
    },
    {
      "inputs": [
        {
          "internalType": "address",
          "name": "implementation",
          "type": "address"
        }
      ],
      "name": "ERC1967InvalidImplementation",
      "type": "error"
    },
    {
      "inputs": [],
      "name": "ERC1967NonPayable",
      "type": "error"
    },
    {
      "inputs": [],
      "name": "FailedCall",
      "type": "error"
    },
    {
      "inputs": [],
      "name": "HUB_NOT_SET",
      "type": "error"
    },
    {
      "inputs": [],
      "name": "InvalidInitialization",
      "type": "error"
    },
    {
      "inputs": [],
      "name": "LeafAlreadyExists",
      "type": "error"
    },
    {
      "inputs": [],
      "name": "LeafCannotBeZero",
      "type": "error"
    },
    {
      "inputs": [],
      "name": "LeafDoesNotExist",
      "type": "error"
    },
    {
      "inputs": [],
      "name": "LeafGreaterThanSnarkScalarField",
      "type": "error"
    },
    {
      "inputs": [],
      "name": "NotInitializing",
      "type": "error"
    },
    {
      "inputs": [],
      "name": "ONLY_HUB_CAN_ACCESS",
      "type": "error"
    },
    {
      "inputs": [
        {
          "internalType": "address",
          "name": "owner",
          "type": "address"
        }
      ],
      "name": "OwnableInvalidOwner",
      "type": "error"
    },
    {
      "inputs": [
        {
          "internalType": "address",
          "name": "account",
          "type": "address"
        }
      ],
      "name": "OwnableUnauthorizedAccount",
      "type": "error"
    },
    {
      "inputs": [],
      "name": "REGISTERED_COMMITMENT",
      "type": "error"
    },
    {
      "inputs": [],
      "name": "UUPSUnauthorizedCallContext",
      "type": "error"
    },
    {
      "inputs": [
        {
          "internalType": "bytes32",
          "name": "slot",
          "type": "bytes32"
        }
      ],
      "name": "UUPSUnsupportedProxiableUUID",
      "type": "error"
    },
    {
      "inputs": [],
      "name": "WrongSiblingNodes",
      "type": "error"
    },
    {
      "anonymous": false,
      "inputs": [
        {
          "indexed": true,
          "internalType": "bytes32",
          "name": "attestationId",
          "type": "bytes32"
        },
        {
          "indexed": true,
          "internalType": "uint256",
          "name": "nullifier",
          "type": "uint256"
        },
        {
          "indexed": true,
          "internalType": "uint256",
          "name": "commitment",
          "type": "uint256"
        },
        {
          "indexed": false,
          "internalType": "uint256",
          "name": "timestamp",
          "type": "uint256"
        },
        {
          "indexed": false,
          "internalType": "uint256",
          "name": "imtRoot",
          "type": "uint256"
        },
        {
          "indexed": false,
          "internalType": "uint256",
          "name": "imtIndex",
          "type": "uint256"
        }
      ],
      "name": "CommitmentRegistered",
      "type": "event"
    },
    {
      "anonymous": false,
      "inputs": [
        {
          "indexed": false,
          "internalType": "uint256",
          "name": "cscaRoot",
          "type": "uint256"
        }
      ],
      "name": "CscaRootUpdated",
      "type": "event"
    },
    {
      "anonymous": false,
      "inputs": [
        {
          "indexed": true,
          "internalType": "bytes32",
          "name": "attestationId",
          "type": "bytes32"
        },
        {
          "indexed": true,
          "internalType": "uint256",
          "name": "nullifier",
          "type": "uint256"
        },
        {
          "indexed": true,
          "internalType": "uint256",
          "name": "commitment",
          "type": "uint256"
        },
        {
          "indexed": false,
          "internalType": "uint256",
          "name": "timestamp",
          "type": "uint256"
        },
        {
          "indexed": false,
          "internalType": "uint256",
          "name": "imtRoot",
          "type": "uint256"
        },
        {
          "indexed": false,
          "internalType": "uint256",
          "name": "imtIndex",
          "type": "uint256"
        }
      ],
      "name": "DevCommitmentRegistered",
      "type": "event"
    },
    {
      "anonymous": false,
      "inputs": [
        {
          "indexed": true,
          "internalType": "uint256",
          "name": "oldLeaf",
          "type": "uint256"
        },
        {
          "indexed": false,
          "internalType": "uint256",
          "name": "imtRoot",
          "type": "uint256"
        },
        {
          "indexed": false,
          "internalType": "uint256",
          "name": "timestamp",
          "type": "uint256"
        }
      ],
      "name": "DevCommitmentRemoved",
      "type": "event"
    },
    {
      "anonymous": false,
      "inputs": [
        {
          "indexed": true,
          "internalType": "uint256",
          "name": "oldLeaf",
          "type": "uint256"
        },
        {
          "indexed": true,
          "internalType": "uint256",
          "name": "newLeaf",
          "type": "uint256"
        },
        {
          "indexed": false,
          "internalType": "uint256",
          "name": "imtRoot",
          "type": "uint256"
        },
        {
          "indexed": false,
          "internalType": "uint256",
          "name": "timestamp",
          "type": "uint256"
        }
      ],
      "name": "DevCommitmentUpdated",
      "type": "event"
    },
    {
      "anonymous": false,
      "inputs": [
        {
          "indexed": true,
          "internalType": "uint256",
          "name": "commitment",
          "type": "uint256"
        },
        {
          "indexed": false,
          "internalType": "uint256",
          "name": "imtRoot",
          "type": "uint256"
        },
        {
          "indexed": false,
          "internalType": "uint256",
          "name": "imtIndex",
          "type": "uint256"
        }
      ],
      "name": "DevDscKeyCommitmentRegistered",
      "type": "event"
    },
    {
      "anonymous": false,
      "inputs": [
        {
          "indexed": true,
          "internalType": "uint256",
          "name": "oldLeaf",
          "type": "uint256"
        },
        {
          "indexed": false,
          "internalType": "uint256",
          "name": "imtRoot",
          "type": "uint256"
        }
      ],
      "name": "DevDscKeyCommitmentRemoved",
      "type": "event"
    },
    {
      "anonymous": false,
      "inputs": [
        {
          "indexed": true,
          "internalType": "uint256",
          "name": "commitment",
          "type": "uint256"
        },
        {
          "indexed": false,
          "internalType": "bool",
          "name": "state",
          "type": "bool"
        }
      ],
      "name": "DevDscKeyCommitmentStateChanged",
      "type": "event"
    },
    {
      "anonymous": false,
      "inputs": [
        {
          "indexed": true,
          "internalType": "uint256",
          "name": "oldLeaf",
          "type": "uint256"
        },
        {
          "indexed": true,
          "internalType": "uint256",
          "name": "newLeaf",
          "type": "uint256"
        },
        {
          "indexed": false,
          "internalType": "uint256",
          "name": "imtRoot",
          "type": "uint256"
        }
      ],
      "name": "DevDscKeyCommitmentUpdated",
      "type": "event"
    },
    {
      "anonymous": false,
      "inputs": [
        {
          "indexed": true,
          "internalType": "bytes32",
          "name": "attestationId",
          "type": "bytes32"
        },
        {
          "indexed": true,
          "internalType": "uint256",
          "name": "nullifier",
          "type": "uint256"
        },
        {
          "indexed": false,
          "internalType": "bool",
          "name": "state",
          "type": "bool"
        }
      ],
      "name": "DevNullifierStateChanged",
      "type": "event"
    },
    {
      "anonymous": false,
      "inputs": [
        {
          "indexed": true,
          "internalType": "uint256",
          "name": "commitment",
          "type": "uint256"
        },
        {
          "indexed": false,
          "internalType": "uint256",
          "name": "timestamp",
          "type": "uint256"
        },
        {
          "indexed": false,
          "internalType": "uint256",
          "name": "imtRoot",
          "type": "uint256"
        },
        {
          "indexed": false,
          "internalType": "uint256",
          "name": "imtIndex",
          "type": "uint256"
        }
      ],
      "name": "DscKeyCommitmentRegistered",
      "type": "event"
    },
    {
      "anonymous": false,
      "inputs": [
        {
          "indexed": false,
          "internalType": "address",
          "name": "hub",
          "type": "address"
        }
      ],
      "name": "HubUpdated",
      "type": "event"
    },
    {
      "anonymous": false,
      "inputs": [
        {
          "indexed": false,
          "internalType": "uint64",
          "name": "version",
          "type": "uint64"
        }
      ],
      "name": "Initialized",
      "type": "event"
    },
    {
      "anonymous": false,
      "inputs": [
        {
          "indexed": false,
          "internalType": "uint256",
          "name": "ofacRoot",
          "type": "uint256"
        }
      ],
      "name": "OfacRootUpdated",
      "type": "event"
    },
    {
      "anonymous": false,
      "inputs": [
        {
          "indexed": true,
          "internalType": "address",
          "name": "previousOwner",
          "type": "address"
        },
        {
          "indexed": true,
          "internalType": "address",
          "name": "newOwner",
          "type": "address"
        }
      ],
      "name": "OwnershipTransferStarted",
      "type": "event"
    },
    {
      "anonymous": false,
      "inputs": [
        {
          "indexed": true,
          "internalType": "address",
          "name": "previousOwner",
          "type": "address"
        },
        {
          "indexed": true,
          "internalType": "address",
          "name": "newOwner",
          "type": "address"
        }
      ],
      "name": "OwnershipTransferred",
      "type": "event"
    },
    {
      "anonymous": false,
      "inputs": [
        {
          "indexed": false,
          "internalType": "address",
          "name": "hub",
          "type": "address"
        }
      ],
      "name": "RegistryInitialized",
      "type": "event"
    },
    {
      "anonymous": false,
      "inputs": [
        {
          "indexed": true,
          "internalType": "address",
          "name": "implementation",
          "type": "address"
        }
      ],
      "name": "Upgraded",
      "type": "event"
    },
    {
      "inputs": [],
      "name": "UPGRADE_INTERFACE_VERSION",
      "outputs": [
        {
          "internalType": "string",
          "name": "",
          "type": "string"
        }
      ],
      "stateMutability": "view",
      "type": "function"
    },
    {
      "inputs": [],
      "name": "acceptOwnership",
      "outputs": [],
      "stateMutability": "nonpayable",
      "type": "function"
    },
    {
      "inputs": [
        {
          "internalType": "uint256",
          "name": "root",
          "type": "uint256"
        }
      ],
      "name": "checkCscaRoot",
      "outputs": [
        {
          "internalType": "bool",
          "name": "",
          "type": "bool"
        }
      ],
      "stateMutability": "view",
      "type": "function"
    },
    {
      "inputs": [
        {
          "internalType": "uint256",
          "name": "root",
          "type": "uint256"
        }
      ],
      "name": "checkDscKeyCommitmentMerkleRoot",
      "outputs": [
        {
          "internalType": "bool",
          "name": "",
          "type": "bool"
        }
      ],
      "stateMutability": "view",
      "type": "function"
    },
    {
      "inputs": [
        {
          "internalType": "uint256",
          "name": "root",
          "type": "uint256"
        }
      ],
      "name": "checkIdentityCommitmentRoot",
      "outputs": [
        {
          "internalType": "bool",
          "name": "",
          "type": "bool"
        }
      ],
      "stateMutability": "view",
      "type": "function"
    },
    {
      "inputs": [
        {
          "internalType": "uint256",
          "name": "root",
          "type": "uint256"
        }
      ],
      "name": "checkOfacRoot",
      "outputs": [
        {
          "internalType": "bool",
          "name": "",
          "type": "bool"
        }
      ],
      "stateMutability": "view",
      "type": "function"
    },
    {
      "inputs": [
        {
          "internalType": "uint256",
          "name": "dscCommitment",
          "type": "uint256"
        }
      ],
      "name": "devAddDscKeyCommitment",
      "outputs": [],
      "stateMutability": "nonpayable",
      "type": "function"
    },
    {
      "inputs": [
        {
          "internalType": "bytes32",
          "name": "attestationId",
          "type": "bytes32"
        },
        {
          "internalType": "uint256",
          "name": "nullifier",
          "type": "uint256"
        },
        {
          "internalType": "uint256",
          "name": "commitment",
          "type": "uint256"
        }
      ],
      "name": "devAddIdentityCommitment",
      "outputs": [],
      "stateMutability": "nonpayable",
      "type": "function"
    },
    {
      "inputs": [
        {
          "internalType": "uint256",
          "name": "dscCommitment",
          "type": "uint256"
        },
        {
          "internalType": "bool",
          "name": "state",
          "type": "bool"
        }
      ],
      "name": "devChangeDscKeyCommitmentState",
      "outputs": [],
      "stateMutability": "nonpayable",
      "type": "function"
    },
    {
      "inputs": [
        {
          "internalType": "bytes32",
          "name": "attestationId",
          "type": "bytes32"
        },
        {
          "internalType": "uint256",
          "name": "nullifier",
          "type": "uint256"
        },
        {
          "internalType": "bool",
          "name": "state",
          "type": "bool"
        }
      ],
      "name": "devChangeNullifierState",
      "outputs": [],
      "stateMutability": "nonpayable",
      "type": "function"
    },
    {
      "inputs": [
        {
          "internalType": "uint256",
          "name": "oldLeaf",
          "type": "uint256"
        },
        {
          "internalType": "uint256[]",
          "name": "siblingNodes",
          "type": "uint256[]"
        }
      ],
      "name": "devRemoveCommitment",
      "outputs": [],
      "stateMutability": "nonpayable",
      "type": "function"
    },
    {
      "inputs": [
        {
          "internalType": "uint256",
          "name": "oldLeaf",
          "type": "uint256"
        },
        {
          "internalType": "uint256[]",
          "name": "siblingNodes",
          "type": "uint256[]"
        }
      ],
      "name": "devRemoveDscKeyCommitment",
      "outputs": [],
      "stateMutability": "nonpayable",
      "type": "function"
    },
    {
      "inputs": [
        {
          "internalType": "uint256",
          "name": "oldLeaf",
          "type": "uint256"
        },
        {
          "internalType": "uint256",
          "name": "newLeaf",
          "type": "uint256"
        },
        {
          "internalType": "uint256[]",
          "name": "siblingNodes",
          "type": "uint256[]"
        }
      ],
      "name": "devUpdateCommitment",
      "outputs": [],
      "stateMutability": "nonpayable",
      "type": "function"
    },
    {
      "inputs": [
        {
          "internalType": "uint256",
          "name": "oldLeaf",
          "type": "uint256"
        },
        {
          "internalType": "uint256",
          "name": "newLeaf",
          "type": "uint256"
        },
        {
          "internalType": "uint256[]",
          "name": "siblingNodes",
          "type": "uint256[]"
        }
      ],
      "name": "devUpdateDscKeyCommitment",
      "outputs": [],
      "stateMutability": "nonpayable",
      "type": "function"
    },
    {
      "inputs": [],
      "name": "getCscaRoot",
      "outputs": [
        {
          "internalType": "uint256",
          "name": "",
          "type": "uint256"
        }
      ],
      "stateMutability": "view",
      "type": "function"
    },
    {
      "inputs": [
        {
          "internalType": "uint256",
          "name": "commitment",
          "type": "uint256"
        }
      ],
      "name": "getDscKeyCommitmentIndex",
      "outputs": [
        {
          "internalType": "uint256",
          "name": "",
          "type": "uint256"
        }
      ],
      "stateMutability": "view",
      "type": "function"
    },
    {
      "inputs": [],
      "name": "getDscKeyCommitmentMerkleRoot",
      "outputs": [
        {
          "internalType": "uint256",
          "name": "",
          "type": "uint256"
        }
      ],
      "stateMutability": "view",
      "type": "function"
    },
    {
      "inputs": [],
      "name": "getDscKeyCommitmentTreeSize",
      "outputs": [
        {
          "internalType": "uint256",
          "name": "",
          "type": "uint256"
        }
      ],
      "stateMutability": "view",
      "type": "function"
    },
    {
      "inputs": [
        {
          "internalType": "uint256",
          "name": "commitment",
          "type": "uint256"
        }
      ],
      "name": "getIdentityCommitmentIndex",
      "outputs": [
        {
          "internalType": "uint256",
          "name": "",
          "type": "uint256"
        }
      ],
      "stateMutability": "view",
      "type": "function"
    },
    {
      "inputs": [],
      "name": "getIdentityCommitmentMerkleRoot",
      "outputs": [
        {
          "internalType": "uint256",
          "name": "",
          "type": "uint256"
        }
      ],
      "stateMutability": "view",
      "type": "function"
    },
    {
      "inputs": [],
      "name": "getIdentityCommitmentMerkleTreeSize",
      "outputs": [
        {
          "internalType": "uint256",
          "name": "",
          "type": "uint256"
        }
      ],
      "stateMutability": "view",
      "type": "function"
    },
    {
      "inputs": [],
      "name": "getOfacRoot",
      "outputs": [
        {
          "internalType": "uint256",
          "name": "",
          "type": "uint256"
        }
      ],
      "stateMutability": "view",
      "type": "function"
    },
    {
      "inputs": [],
      "name": "hub",
      "outputs": [
        {
          "internalType": "address",
          "name": "",
          "type": "address"
        }
      ],
      "stateMutability": "view",
      "type": "function"
    },
    {
      "inputs": [
        {
          "internalType": "address",
          "name": "_hub",
          "type": "address"
        }
      ],
      "name": "initialize",
      "outputs": [],
      "stateMutability": "nonpayable",
      "type": "function"
    },
    {
      "inputs": [
        {
          "internalType": "uint256",
          "name": "commitment",
          "type": "uint256"
        }
      ],
      "name": "isRegisteredDscKeyCommitment",
      "outputs": [
        {
          "internalType": "bool",
          "name": "",
          "type": "bool"
        }
      ],
      "stateMutability": "view",
      "type": "function"
    },
    {
      "inputs": [
        {
          "internalType": "bytes32",
          "name": "attestationId",
          "type": "bytes32"
        },
        {
          "internalType": "uint256",
          "name": "nullifier",
          "type": "uint256"
        }
      ],
      "name": "nullifiers",
      "outputs": [
        {
          "internalType": "bool",
          "name": "",
          "type": "bool"
        }
      ],
      "stateMutability": "view",
      "type": "function"
    },
    {
      "inputs": [],
      "name": "owner",
      "outputs": [
        {
          "internalType": "address",
          "name": "",
          "type": "address"
        }
      ],
      "stateMutability": "view",
      "type": "function"
    },
    {
      "inputs": [],
      "name": "pendingOwner",
      "outputs": [
        {
          "internalType": "address",
          "name": "",
          "type": "address"
        }
      ],
      "stateMutability": "view",
      "type": "function"
    },
    {
      "inputs": [],
      "name": "proxiableUUID",
      "outputs": [
        {
          "internalType": "bytes32",
          "name": "",
          "type": "bytes32"
        }
      ],
      "stateMutability": "view",
      "type": "function"
    },
    {
      "inputs": [
        {
          "internalType": "bytes32",
          "name": "attestationId",
          "type": "bytes32"
        },
        {
          "internalType": "uint256",
          "name": "nullifier",
          "type": "uint256"
        },
        {
          "internalType": "uint256",
          "name": "commitment",
          "type": "uint256"
        }
      ],
      "name": "registerCommitment",
      "outputs": [],
      "stateMutability": "nonpayable",
      "type": "function"
    },
    {
      "inputs": [
        {
          "internalType": "uint256",
          "name": "dscCommitment",
          "type": "uint256"
        }
      ],
      "name": "registerDscKeyCommitment",
      "outputs": [],
      "stateMutability": "nonpayable",
      "type": "function"
    },
    {
      "inputs": [],
      "name": "renounceOwnership",
      "outputs": [],
      "stateMutability": "nonpayable",
      "type": "function"
    },
    {
      "inputs": [
        {
          "internalType": "uint256",
          "name": "root",
          "type": "uint256"
        }
      ],
      "name": "rootTimestamps",
      "outputs": [
        {
          "internalType": "uint256",
          "name": "",
          "type": "uint256"
        }
      ],
      "stateMutability": "view",
      "type": "function"
    },
    {
      "inputs": [
        {
          "internalType": "address",
          "name": "newOwner",
          "type": "address"
        }
      ],
      "name": "transferOwnership",
      "outputs": [],
      "stateMutability": "nonpayable",
      "type": "function"
    },
    {
      "inputs": [
        {
          "internalType": "uint256",
          "name": "newCscaRoot",
          "type": "uint256"
        }
      ],
      "name": "updateCscaRoot",
      "outputs": [],
      "stateMutability": "nonpayable",
      "type": "function"
    },
    {
      "inputs": [
        {
          "internalType": "address",
          "name": "newHubAddress",
          "type": "address"
        }
      ],
      "name": "updateHub",
      "outputs": [],
      "stateMutability": "nonpayable",
      "type": "function"
    },
    {
      "inputs": [
        {
          "internalType": "uint256",
          "name": "newOfacRoot",
          "type": "uint256"
        }
      ],
      "name": "updateOfacRoot",
      "outputs": [],
      "stateMutability": "nonpayable",
      "type": "function"
    },
    {
      "inputs": [
        {
          "internalType": "address",
          "name": "newImplementation",
          "type": "address"
        },
        {
          "internalType": "bytes",
          "name": "data",
          "type": "bytes"
        }
      ],
      "name": "upgradeToAndCall",
      "outputs": [],
      "stateMutability": "payable",
      "type": "function"
    }
  ],
  "bytecode": "0x60a06040523073ffffffffffffffffffffffffffffffffffffffff1660809073ffffffffffffffffffffffffffffffffffffffff1681525034801561004357600080fd5b5061005e675e2c674f21e20ae060c01b6100a560201b60201c565b61007867cbb2b409ceb418fa60c01b6100a560201b60201c565b610092675ded50764305273760c01b6100a560201b60201c565b6100a06100a860201b60201c565b6101ed565b50565b60006100b86101ac60201b60201c565b90508060000160089054906101000a900460ff1615610103576040517ff92ee8a900000000000000000000000000000000000000000000000000000000815260040160405180910390fd5b67ffffffffffffffff80168160000160009054906101000a900467ffffffffffffffff1667ffffffffffffffff16146101a95767ffffffffffffffff8160000160006101000a81548167ffffffffffffffff021916908367ffffffffffffffff1602179055507fc7f505b2f371ae2175ee4913f4499e1f2633a7b5936321eed1cdaeb6115181d267ffffffffffffffff6040516101a091906101d4565b60405180910390a15b50565b60007ff0c57e16840df040f15088dc2f81fe391c3923bec73e23a9662efc9c229c6a00905090565b600060208201905060018060401b038316825292915050565b6080516145eb61021660003960008181612b9301528181612be8015261301001526145eb6000f3fe6080604052600436106102255760003560e01c80639a85d40a11610123578063c9c17b3f116100ab578063f2fde38b1161006f578063f2fde38b146107e2578063fbf08da91461080b578063fc20a02414610834578063fcceca2e14610871578063fd05ecd81461089c57610225565b8063c9c17b3f146106fb578063d78ff6f514610724578063dae172841461074f578063e30c39781461077a578063ede12d9f146107a557610225565b8063ad3cb1cc116100f2578063ad3cb1cc14610616578063addee77614610641578063aedba93c1461067e578063b3ccecb8146106a9578063c4d66de8146106d257610225565b80639a85d40a1461054a5780639fc1e42314610573578063a2d96afa146105b0578063ad26e675146105ed57610225565b80634bf4dc7a116101b157806379ba50971161017557806379ba509714610479578063885811951461049057806388b7b189146104b95780638da5cb5b146104e257806398966e3c1461050d57610225565b80634bf4dc7a146103c55780634f1ef286146103f057806352d1902d1461040c57806364567e8a14610437578063715018a61461046257610225565b80631f299f57116101f85780631f299f57146102f6578063365a86fc1461031f5780634378cb531461034a578063445257da14610373578063468488281461039c57610225565b80630bc196391461022a5780630f48a159146102535780631465ff7f1461027c5780631bcc023d146102b9575b600080fd5b34801561023657600080fd5b50610251600480360381019061024c9190613faf565b6108d9565b005b34801561025f57600080fd5b5061027a60048036038101906102759190614005565b610a1a565b005b34801561028857600080fd5b506102a3600480360381019061029e919061406b565b610b30565b6040516102b0919061408d565b60405180910390f35b3480156102c557600080fd5b506102e060048036038101906102db919061406b565b610baa565b6040516102ed91906140a0565b60405180910390f35b34801561030257600080fd5b5061031d600480360381019061031891906140ca565b610c33565b005b34801561032b57600080fd5b50610334610d4a565b60405161034191906140fc565b60405180910390f35b34801561035657600080fd5b50610371600480360381019061036c9190614005565b610de0565b005b34801561037f57600080fd5b5061039a6004803603810190610395919061406b565b610f23565b005b3480156103a857600080fd5b506103c360048036038101906103be919061406b565b611320565b005b3480156103d157600080fd5b506103da611411565b6040516103e791906140a0565b60405180910390f35b61040a6004803603810190610405919061414a565b61148e565b005b34801561041857600080fd5b506104216114ad565b60405161042e919061421c565b60405180910390f35b34801561044357600080fd5b5061044c6114e0565b60405161045991906140a0565b60405180910390f35b34801561046e57600080fd5b50610477611559565b005b34801561048557600080fd5b5061048e61156d565b005b34801561049c57600080fd5b506104b760048036038101906104b2919061422d565b6115fc565b005b3480156104c557600080fd5b506104e060048036038101906104db919061406b565b611726565b005b3480156104ee57600080fd5b506104f7611817565b60405161050491906140fc565b60405180910390f35b34801561051957600080fd5b50610534600480360381019061052f919061406b565b61184f565b60405161054191906140a0565b60405180910390f35b34801561055657600080fd5b50610571600480360381019061056c919061426e565b6118d8565b005b34801561057f57600080fd5b5061059a6004803603810190610595919061406b565b611d27565b6040516105a7919061408d565b60405180910390f35b3480156105bc57600080fd5b506105d760048036038101906105d2919061406b565b611da8565b6040516105e4919061408d565b60405180910390f35b3480156105f957600080fd5b50610614600480360381019061060f919061426e565b611e22565b005b34801561062257600080fd5b5061062b611ff7565b60405161063891906142d8565b60405180910390f35b34801561064d57600080fd5b506106686004803603810190610663919061430d565b612030565b604051610675919061408d565b60405180910390f35b34801561068a57600080fd5b506106936120d8565b6040516106a091906140a0565b60405180910390f35b3480156106b557600080fd5b506106d060048036038101906106cb9190613faf565b61214e565b005b3480156106de57600080fd5b506106f960048036038101906106f4919061433e565b612261565b005b34801561070757600080fd5b50610722600480360381019061071d919061406b565b6124c6565b005b34801561073057600080fd5b50610739612658565b60405161074691906140a0565b60405180910390f35b34801561075b57600080fd5b506107646126d5565b60405161077191906140a0565b60405180910390f35b34801561078657600080fd5b5061078f61274b565b60405161079c91906140fc565b60405180910390f35b3480156107b157600080fd5b506107cc60048036038101906107c7919061406b565b612783565b6040516107d991906140a0565b60405180910390f35b3480156107ee57600080fd5b506108096004803603810190610804919061433e565b61280c565b005b34801561081757600080fd5b50610832600480360381019061082d919061433e565b6128c8565b005b34801561084057600080fd5b5061085b6004803603810190610856919061406b565b6129f2565b604051610868919061408d565b60405180910390f35b34801561087d57600080fd5b50610886612a88565b60405161089391906140a0565b60405180910390f35b3480156108a857600080fd5b506108c360048036038101906108be919061406b565b612b01565b6040516108d0919061408d565b60405180910390f35b6108ed6747d224eaed8fdefa60c01b612b8e565b6108f5612b91565b610909677a0d41f7d991d3f460c01b612b8e565b61091d676510d8444565fbac60c01b612b8e565b610925612c77565b610939678e8f01d1656cc86a60c01b612b8e565b61094d674af09702b69f237b60c01b612b8e565b6109616747b8227aad9100f360c01b612b8e565b61097567f29d30b5ccb9b63260c01b612b8e565b60006109846033858585612cfe565b905061099a674870de5d37bd533e60c01b612b8e565b4260376000838152602001908152602001600020819055506109c6677a1c7d05b19748cb60c01b612b8e565b6109da6737c856a607543c5e60c01b612b8e565b837f8814493b3599188c61d7bf20585a0355af60987c540db9988392ae830a54c64a8242604051610a0c929190614361565b60405180910390a250505050565b610a2e67168bd1418689167c60c01b612b8e565b610a36612b91565b610a4a67ffa997f2c0fefe1460c01b612b8e565b610a5e67956e9fb4bc06f55b60c01b612b8e565b610a66612c77565b610a7a679acb618fd0324e8960c01b612b8e565b610a8e672e8cf9687420c9d560c01b612b8e565b610aa267660813db14a63b1560c01b612b8e565b610ab6675a7f7c33326f834860c01b612b8e565b6000610ac6603986868686612d49565b9050610adc6769a35e98325e940960c01b612b8e565b610af0679a94f3239b43aa2160c01b612b8e565b83857f0bb5433e87cfc429682aadc2e217fe3b6915922eb25540401aaa64d0b8eaa1c083604051610b2191906140a0565b60405180910390a35050505050565b6000610b46678ccc97fcef9c45aa60c01b612b8e565b610b4e612b91565b610b62672559f950775cd15060c01b612b8e565b610b766751098760e8b47f0e60c01b612b8e565b610b8a67cc55366bd49f45fc60c01b612b8e565b610b9e6771fc502c3831129060c01b612b8e565b81603f54149050919050565b6000610bc06725848398c564cb6b60c01b612b8e565b610bc8612b91565b610bdc675fc0fa3f05e5cb3160c01b612b8e565b610bf067a7ebbf5cd6be898860c01b612b8e565b610c0467a65bc4c19664155a60c01b612b8e565b610c18673229e6a2799de3dd60c01b612b8e565b610c2c826039612d9790919063ffffffff16565b9050919050565b610c47672626db755a9a18c860c01b612b8e565b610c4f612b91565b610c6367a825230cd5a827da60c01b612b8e565b610c77674f89c88b1b2f288260c01b612b8e565b610c7f612c77565b610c936783166c8b5fec2c5d60c01b612b8e565b610ca7677c1c669a8bc20d9d60c01b612b8e565b610cbb67e780a4fa141dbd1660c01b612b8e565b80603d600084815260200190815260200160002060006101000a81548160ff021916908315150217905550610cfa67d6b05face79a583860c01b612b8e565b610d0e67f369124ba42e7cbf60c01b612b8e565b817f11e1b30cd0b6eab7020e0fbd635ef39b211bda7696dfd324caaef4f1ae9cd31582604051610d3e919061408d565b60405180910390a25050565b6000610d6067282b2eb253906d9b60c01b612b8e565b610d68612b91565b610d7c670835965f058e93c160c01b612b8e565b610d9067e36a0feda0bb3dc360c01b612b8e565b610da467bda9a9a23bd89fb060c01b612b8e565b610db867c35dbabbd058f12a60c01b612b8e565b603260009054906101000a900473ffffffffffffffffffffffffffffffffffffffff16905090565b610df467888fb611f6131ceb60c01b612b8e565b610dfc612b91565b610e0f66c47bf37b6418a060c01b612b8e565b610e23677628c12832a5730d60c01b612b8e565b610e2b612c77565b610e3f6725b87c73a1faf97360c01b612b8e565b610e53675c30188f120af69460c01b612b8e565b610e676710d9ba47875fbc5460c01b612b8e565b610e7b6773ba8094eaf105d660c01b612b8e565b6000610e8b603386868686612d49565b9050610ea16719a7c7afb0f1fab660c01b612b8e565b426037600083815260200190815260200160002081905550610ecd67a0a84baba5ac66c160c01b612b8e565b610ee167a798f937a6b164ac60c01b612b8e565b83857f9d5851adacc1956f388355223351dad2704088fae99b36711607250dd9afe3fc8342604051610f14929190614361565b60405180910390a35050505050565b610f37674e09eab85aee02f560c01b612b8e565b610f3f612b91565b610f5367df0965c20791ede860c01b612b8e565b610f67673570a22c33c99fc960c01b612b8e565b610f7b67e30a777e3323d7e660c01b612b8e565b610f8f67b84f07349bd8c1fb60c01b612b8e565b610fa3677c8815ed1262215660c01b612b8e565b600073ffffffffffffffffffffffffffffffffffffffff16603260009054906101000a900473ffffffffffffffffffffffffffffffffffffffff1673ffffffffffffffffffffffffffffffffffffffff160361103f5761100d677d4b6f79cee130a260c01b612b8e565b6040517f4ffa999800000000000000000000000000000000000000000000000000000000815260040160405180910390fd5b61105367bbbf2920f7e1e25460c01b612b8e565b6110676775cf14f1aa48cf5760c01b612b8e565b61107b671712b0ba3d00ee8960c01b612b8e565b603260009054906101000a900473ffffffffffffffffffffffffffffffffffffffff1673ffffffffffffffffffffffffffffffffffffffff163373ffffffffffffffffffffffffffffffffffffffff1614611116576110e467cb68e9aeddd7c7ba60c01b612b8e565b6040517fba0318cb00000000000000000000000000000000000000000000000000000000815260040160405180910390fd5b61112a67721724a17362fae360c01b612b8e565b61113e67d010e9bb8d0abd5560c01b612b8e565b61115267b6726fac07bd2e8c60c01b612b8e565b61116667338d8fd35369b9f060c01b612b8e565b61117a6755eff3ba80dd4cd960c01b612b8e565b61118e67011a25621e99fc7260c01b612b8e565b603d600082815260200190815260200160002060009054906101000a900460ff16156111fa576111c8672d605faa979c5a8860c01b612b8e565b6040517f034acfcc00000000000000000000000000000000000000000000000000000000815260040160405180910390fd5b61120e67790484af998f6b1860c01b612b8e565b611222671c939d36e93c8fc760c01b612b8e565b6001603d600083815260200190815260200160002060006101000a81548160ff0219169083151502179055506112626713cfad0b82d85a9760c01b612b8e565b61127667e0c47e6fb564d56a60c01b612b8e565b60006039600001549050611294677ce2d4f555f5c5b960c01b612b8e565b6112a867372f4111b1af87a160c01b612b8e565b60006112b5603984612e11565b90506112cb67ae689f958908553160c01b612b8e565b6112df67572bd63645ba926860c01b612b8e565b827f8fd1e12daf7bbc111604e9312366b73b92a65058cc13768ee02edf176ab7ba8e42838560405161131393929190614379565b60405180910390a2505050565b61133467496be8a0cbdca95d60c01b612b8e565b61133c612b91565b61135067cdd16bb4c941c85460c01b612b8e565b611364671b9d68b9697e3cb760c01b612b8e565b61136c612c77565b61138067ea91da2c12f12e9a60c01b612b8e565b61139467cb69dfc9559b3e1160c01b612b8e565b6113a8677573f378c41c82aa60c01b612b8e565b80603e819055506113c36787f4abf12f8cef7860c01b612b8e565b6113d767ce835b15f6eaff2160c01b612b8e565b7f0c41fd3785aff20856f2aeb2c4a07c8e38c082cc060d0ee00a770fedb8219b9d8160405161140691906140a0565b60405180910390a150565b6000611427678c60789f5e4c581260c01b612b8e565b61142f612b91565b6114436737abcda9b9d4643b60c01b612b8e565b6114576769b022cd7734c0fc60c01b612b8e565b61146b67e2e2c87001891ca360c01b612b8e565b61147f67f3318a5f648a56ee60c01b612b8e565b6114896033612e56565b905090565b611496612b91565b61149f82612e79565b6114a98282612eef565b5050565b60006114b761300e565b7f360894a13ba1a3210667c828492db98dca3e2076cc3735a920a3ca505d382bbc60001b905090565b60006114f667d0b5174ce87dda7a60c01b612b8e565b6114fe612b91565b611512677ad13fbe6d591b6f60c01b612b8e565b61152667721e5ef960f376b960c01b612b8e565b61153a672e65fa02d9b05deb60c01b612b8e565b61154e678c08e0ff84c8342260c01b612b8e565b603360000154905090565b611561612c77565b61156b6000613095565b565b60006115776130d5565b90508073ffffffffffffffffffffffffffffffffffffffff1661159861274b565b73ffffffffffffffffffffffffffffffffffffffff16146115f057806040517f118cdaa70000000000000000000000000000000000000000000000000000000081526004016115e791906140fc565b60405180910390fd5b6115f981613095565b50565b6116106752335d1209904edf60c01b612b8e565b611618612b91565b61162c672afb19b4792e75c460c01b612b8e565b6116406753612c058db44a6960c01b612b8e565b611648612c77565b61165c677bfe409d240547dd60c01b612b8e565b61167067b70c9ef86ccbe17460c01b612b8e565b61168467e9ea7a7847d6692e60c01b612b8e565b8060386000858152602001908152602001600020600084815260200190815260200160002060006101000a81548160ff0219169083151502179055506116d467ff06dd4d62bfd8e560c01b612b8e565b6116e8674430dc096d0e285560c01b612b8e565b81837ffdea0e3abaa4a1f72ff03f918d65910a9e2ce74814cfc21561b188db582bbe1583604051611719919061408d565b60405180910390a3505050565b61173a679c1c6cc4fa94e2df60c01b612b8e565b611742612b91565b61175667ec29705ad7b89c6660c01b612b8e565b61176a67c4fccf826ac9dfd260c01b612b8e565b611772612c77565b61178667cda1311fd1f059f760c01b612b8e565b61179a675c5872c7169a112260c01b612b8e565b6117ae677bac0c1edda47d6b60c01b612b8e565b80603f819055506117c967c2d1e51fcc0bf4c260c01b612b8e565b6117dd67f2f8b2da370b363360c01b612b8e565b7f02dd6b96a8b84ff5245724a410a499208af7b8fb2150fa85f297ae005f48ecc78160405161180c91906140a0565b60405180910390a150565b6000806118226130dd565b90508060000160009054906101000a900473ffffffffffffffffffffffffffffffffffffffff1691505090565b6000611865679e88b5e8f0b58a5760c01b612b8e565b61186d612b91565b611881670873b9c11070f6c660c01b612b8e565b6118956798d8068fee357bc760c01b612b8e565b6118a967c9eaf68688c97fe560c01b612b8e565b6118bd67b3d9991d90d26e1160c01b612b8e565b6118d1826033612d9790919063ffffffff16565b9050919050565b6118ec677150bc6d75e26ff160c01b612b8e565b6118f4612b91565b6119086766eb980c310d039b60c01b612b8e565b61191c6785d939c71283a75f60c01b612b8e565b61193067e30a777e3323d7e660c01b612b8e565b61194467b84f07349bd8c1fb60c01b612b8e565b611958677c8815ed1262215660c01b612b8e565b600073ffffffffffffffffffffffffffffffffffffffff16603260009054906101000a900473ffffffffffffffffffffffffffffffffffffffff1673ffffffffffffffffffffffffffffffffffffffff16036119f4576119c2677d4b6f79cee130a260c01b612b8e565b6040517f4ffa999800000000000000000000000000000000000000000000000000000000815260040160405180910390fd5b611a0867bbbf2920f7e1e25460c01b612b8e565b611a1c6775cf14f1aa48cf5760c01b612b8e565b611a30671712b0ba3d00ee8960c01b612b8e565b603260009054906101000a900473ffffffffffffffffffffffffffffffffffffffff1673ffffffffffffffffffffffffffffffffffffffff163373ffffffffffffffffffffffffffffffffffffffff1614611acb57611a9967cb68e9aeddd7c7ba60c01b612b8e565b6040517fba0318cb00000000000000000000000000000000000000000000000000000000815260040160405180910390fd5b611adf67721724a17362fae360c01b612b8e565b611af367d010e9bb8d0abd5560c01b612b8e565b611b0767eea7adf75011c4d660c01b612b8e565b611b1b67bfd0b2e6c478559c60c01b612b8e565b611b2f67c2860ca54e1364c960c01b612b8e565b611b4367a71a3fe6bb32500b60c01b612b8e565b60386000848152602001908152602001600020600083815260200190815260200160002060009054906101000a900460ff1615611bc057611b8e674126bd3cf5b352b760c01b612b8e565b6040517f034acfcc00000000000000000000000000000000000000000000000000000000815260040160405180910390fd5b611bd46792fa20564844080560c01b612b8e565b611be86720031017e24cf37a60c01b612b8e565b600160386000858152602001908152602001600020600084815260200190815260200160002060006101000a81548160ff021916908315150217905550611c39672c0946696c6867ed60c01b612b8e565b611c4d6714b3a21ba7d968b360c01b612b8e565b60006033600001549050611c6b671c72cb94aa1fc8e560c01b612b8e565b611c7f674340d091da67e9bd60c01b612b8e565b6000611c8c603384612e11565b9050611ca267c95642dcfe6062ac60c01b612b8e565b426037600083815260200190815260200160002081905550611cce67b87b164b86d2aea660c01b612b8e565b611ce267f03a9188fd70b4c160c01b612b8e565b8284867feb119b7270209cdf8b25ab82dcae1e1f269d3244ed481853debf439b49415dff428587604051611d1893929190614379565b60405180910390a45050505050565b6000611d3d67186c7bdcc0c39aaf60c01b612b8e565b611d45612b91565b611d596780facb155ffe728960c01b612b8e565b611d6d67fba64fcd1f1c7efa60c01b612b8e565b611d816715a999276543344b60c01b612b8e565b611d9567c7c5cef1be15f87f60c01b612b8e565b81611da06039612e56565b149050919050565b6000611dbe6706e06c2c3e16f02760c01b612b8e565b611dc6612b91565b611dda67b90b5f3c1ae4e42e60c01b612b8e565b611dee674b0a0673d85cdfad60c01b612b8e565b611e02673d37d7514dfe1e0360c01b612b8e565b611e16675efa11d6c3a70b4360c01b612b8e565b81603e54149050919050565b611e366705bf57eea5bb4a1560c01b612b8e565b611e3e612b91565b611e5267d9d6228eb404659f60c01b612b8e565b611e6667d7e9ebfdddf6aa2360c01b612b8e565b611e6e612c77565b611e82671613fd83959c8f3a60c01b612b8e565b611e9667fe1238591a982cfe60c01b612b8e565b611eaa67957817c2a557c2e360c01b612b8e565b600160386000858152602001908152602001600020600084815260200190815260200160002060006101000a81548160ff021916908315150217905550611efb6758373d7a6f77b4a160c01b612b8e565b611f0f678f5f55e710a078c160c01b612b8e565b6000611f1c603383612e11565b9050611f32670171d6fba312e40860c01b612b8e565b426037600083815260200190815260200160002081905550611f5e67897ecda87bf3202660c01b612b8e565b611f72679de64c32630ef97660c01b612b8e565b6000611f88836033612d9790919063ffffffff16565b9050611f9e674b7d0be59c41d7c860c01b612b8e565b611fb2671727fb653f611d4960c01b612b8e565b8284867ffc5b28a97d17b16ee3dd749eecd0a602288e98dc57b251e77a8095147f8366b5428686604051611fe893929190614379565b60405180910390a45050505050565b6040518060400160405280600581526020017f352e302e3000000000000000000000000000000000000000000000000000000081525081565b600061204667ae60b06f7fd0133160c01b612b8e565b61204e612b91565b6120626755e03f6e9ea6612960c01b612b8e565b61207667e1e6163ed8dbd90860c01b612b8e565b61208a67f83c55feeccbce5060c01b612b8e565b61209e67cdf6a2df72dce98d60c01b612b8e565b60386000848152602001908152602001600020600083815260200190815260200160002060009054906101000a900460ff16905092915050565b60006120ee67d0a49c156ef914ce60c01b612b8e565b6120f6612b91565b61210a6746d83decb990960560c01b612b8e565b61211e679d6f63d2f5f6cbf060c01b612b8e565b61213267f136a5609bbbf5f160c01b612b8e565b612146678ad7b5fff2c40c0260c01b612b8e565b603f54905090565b61216267244d1f9a5248990860c01b612b8e565b61216a612b91565b61217e67dfdaabf2b417919d60c01b612b8e565b6121926739f774717e7d24c260c01b612b8e565b61219a612c77565b6121ae6785463ed742195e4460c01b612b8e565b6121c2671a429fb83224380760c01b612b8e565b6121d6676ab077265807169d60c01b612b8e565b6121ea67ca3bd307debfceab60c01b612b8e565b60006121f96039858585612cfe565b905061220f67810716be501c778360c01b612b8e565b61222367e014582340dae3a960c01b612b8e565b837fdb059cfc380ead4900d342dc84f5f44bfa83e73439c4740ba3a13b1b12e0ba268260405161225391906140a0565b60405180910390a250505050565b61227567dd9e8577133c972860c01b612b8e565b600061227f613105565b905060008160000160089054906101000a900460ff1615905060008260000160009054906101000a900467ffffffffffffffff1690506000808267ffffffffffffffff161480156122cd5750825b9050600060018367ffffffffffffffff16148015612302575060003073ffffffffffffffffffffffffffffffffffffffff163b145b905081158015612310575080155b15612347576040517ff92ee8a900000000000000000000000000000000000000000000000000000000815260040160405180910390fd5b60018560000160006101000a81548167ffffffffffffffff021916908367ffffffffffffffff16021790555083156123975760018560000160086101000a81548160ff0219169083151502179055505b6123ab67a2071c6268a4996260c01b612b8e565b6123bf6713fca23055609a2b60c01b612b8e565b6123d36712b0b9d61843f37b60c01b612b8e565b6123e76701a8b6833c2061c060c01b612b8e565b6123ef61312d565b61240367b83ac0cf5b758e8660c01b612b8e565b61241767678d23ca24f2199160c01b612b8e565b61242b673b464c5fe46e178d60c01b612b8e565b7f43dcf2166be267d8f6dc31580b9b1a605fddb5259a48dddd50b0348ac38fb24e8660405161245a91906140fc565b60405180910390a183156124be5760008560000160086101000a81548160ff0219169083151502179055507fc7f505b2f371ae2175ee4913f4499e1f2633a7b5936321eed1cdaeb6115181d260016040516124b59190614398565b60405180910390a15b505050505050565b6124da67d3c7c961ad009f4060c01b612b8e565b6124e2612b91565b6124f667747ea7f91318ae1260c01b612b8e565b61250a67e50c4458b6e8ab4c60c01b612b8e565b612512612c77565b6125266780f294b2fee861e160c01b612b8e565b61253a679ee36756283241df60c01b612b8e565b61254e67c495377633a595b860c01b612b8e565b6001603d600083815260200190815260200160002060006101000a81548160ff02191690831515021790555061258e674aa4a9372ffd64a360c01b612b8e565b6125a2677ec06e9b020ef26960c01b612b8e565b60006125af603983612e11565b90506125c567e26f5a5be0d5b41060c01b612b8e565b6125d96776dc47b310776e9b60c01b612b8e565b60006125ef836039612d9790919063ffffffff16565b905061260567d6d1ebaece58ecf860c01b612b8e565b61261967083f1824ec41454360c01b612b8e565b827f324818d8d34a2d439a57172d0cccad7d8476d81b3cb18a43969b503ebe973da8838360405161264b929190614361565b60405180910390a2505050565b600061266e67ace044b8f44b8c8760c01b612b8e565b612676612b91565b61268a67cf956da9ffdb96dc60c01b612b8e565b61269e6717563159f8ad0f8360c01b612b8e565b6126b267443cd9a52274034f60c01b612b8e565b6126c667d49a1756fcacf42060c01b612b8e565b6126d06039612e56565b905090565b60006126eb67de4c6a075336045e60c01b612b8e565b6126f3612b91565b61270767ddfc8a2bd6dc5aac60c01b612b8e565b61271b67179d8e3b4f98dd3d60c01b612b8e565b61272f67351c303add01b89660c01b612b8e565b612743677844c567cced58b960c01b612b8e565b603e54905090565b6000806127566131d4565b90508060000160009054906101000a900473ffffffffffffffffffffffffffffffffffffffff1691505090565b600061279967fef438d8cf7988ee60c01b612b8e565b6127a1612b91565b6127b5673309a557fd91a5bb60c01b612b8e565b6127c967bc582553a0b9fb0660c01b612b8e565b6127dd67d3233b9ca43cdbb460c01b612b8e565b6127f167ea6dc30f0e110a0b60c01b612b8e565b60376000838152602001908152602001600020549050919050565b612814612c77565b600061281e6131d4565b9050818160000160006101000a81548173ffffffffffffffffffffffffffffffffffffffff021916908373ffffffffffffffffffffffffffffffffffffffff1602179055508173ffffffffffffffffffffffffffffffffffffffff16612882611817565b73ffffffffffffffffffffffffffffffffffffffff167f38d16b8cac22d99fc7c124b9cd0de2d3fa1faef420bfe791d8c362d765e2270060405160405180910390a35050565b6128dc6750389c74b7bf9e7c60c01b612b8e565b6128e4612b91565b6128f867b01b206536549c3460c01b612b8e565b61290c673f4b0fdf2cfa9ca760c01b612b8e565b612914612c77565b6129276636bfba280aa0cc60c01b612b8e565b61293b67e696ed46f1e51e0460c01b612b8e565b61294f6745817c6f081c843160c01b612b8e565b80603260006101000a81548173ffffffffffffffffffffffffffffffffffffffff021916908373ffffffffffffffffffffffffffffffffffffffff1602179055506129a46754ff03a68402ada560c01b612b8e565b6129b8674656b381a23bac2660c01b612b8e565b7f5b4b08c1a8c9cb40687a2bb0a22c161920757446a2a35c3c2856ec693946d4f0816040516129e791906140fc565b60405180910390a150565b6000612a086718c81a68fba446e760c01b612b8e565b612a10612b91565b612a246732a3fac07fe863d260c01b612b8e565b612a3867bbf17bc1136124f160c01b612b8e565b612a4c67c9e885d2a6250c7460c01b612b8e565b612a606785b56725657c26f860c01b612b8e565b603d600083815260200190815260200160002060009054906101000a900460ff169050919050565b6000612a9e67c82f4c622a61e7c360c01b612b8e565b612aa6612b91565b612aba679733827ef4becc4f60c01b612b8e565b612ace671482fbaaf15f6ec060c01b612b8e565b612ae26709d7affdb6b272b260c01b612b8e565b612af66773ece27f648e086b60c01b612b8e565b603960000154905090565b6000612b1767b681a7c16fe858b060c01b612b8e565b612b1f612b91565b612b3367e3c875fe6bff13ad60c01b612b8e565b612b4767f5ac031266aaed0e60c01b612b8e565b612b5b67e406dcb2b54f85f360c01b612b8e565b612b6f67748975b7e6bf864f60c01b612b8e565b6000603760008481526020019081526020016000205414159050919050565b50565b7f000000000000000000000000000000000000000000000000000000000000000073ffffffffffffffffffffffffffffffffffffffff163073ffffffffffffffffffffffffffffffffffffffff161480612c3e57507f000000000000000000000000000000000000000000000000000000000000000073ffffffffffffffffffffffffffffffffffffffff16612c256131fc565b73ffffffffffffffffffffffffffffffffffffffff1614155b15612c75576040517fe07c8dba00000000000000000000000000000000000000000000000000000000815260040160405180910390fd5b565b612c7f6130d5565b73ffffffffffffffffffffffffffffffffffffffff16612c9d611817565b73ffffffffffffffffffffffffffffffffffffffff1614612cfc57612cc06130d5565b6040517f118cdaa7000000000000000000000000000000000000000000000000000000008152600401612cf391906140fc565b60405180910390fd5b565b6000612d146751a8769b4bf9947060c01b612b8e565b612d28676064de369cbe8ba360c01b612b8e565b612d3f84848488613253909392919063ffffffff16565b9050949350505050565b6000612d5f67a53df565a135c7fc60c01b612b8e565b612d73671c9d915c5c2b5c6f60c01b612b8e565b612d8c858585858a61326d90949392919063ffffffff16565b905095945050505050565b6000808360030160008481526020019081526020016000205403612de7576040517f7204756c00000000000000000000000000000000000000000000000000000000815260040160405180910390fd5b600183600301600084815260200190815260200160002054612e0991906143c9565b905092915050565b6000612e27670c304ccb36b5961360c01b612b8e565b612e3b671f83be192e14484b60c01b612b8e565b612e4e828461382390919063ffffffff16565b905092915050565b600081600201600083600101548152602001908152602001600020549050919050565b612e8d67d8f0d29ecacc10eb60c01b613a82565b612e95612b91565b612ea9670b539c2173a47a3e60c01b613a82565b612ebc66f3676e88c4d29560c01b613a82565b612ec4612c77565b612ed867e5b0075aed42bd5160c01b613a82565b612eec6738edf3b809982c7460c01b613a82565b50565b8173ffffffffffffffffffffffffffffffffffffffff166352d1902d6040518163ffffffff1660e01b8152600401602060405180830381865afa925050508015612f5757506040513d601f19601f82011682018060405250810190612f5491906143e7565b60015b612f9857816040517f4c9c8ce3000000000000000000000000000000000000000000000000000000008152600401612f8f91906140fc565b60405180910390fd5b7f360894a13ba1a3210667c828492db98dca3e2076cc3735a920a3ca505d382bbc60001b8114612fff57806040517faa1d49a4000000000000000000000000000000000000000000000000000000008152600401612ff6919061421c565b60405180910390fd5b6130098383613a85565b505050565b7f000000000000000000000000000000000000000000000000000000000000000073ffffffffffffffffffffffffffffffffffffffff163073ffffffffffffffffffffffffffffffffffffffff1614613093576040517fe07c8dba00000000000000000000000000000000000000000000000000000000815260040160405180910390fd5b565b600061309f6131d4565b90508060000160006101000a81549073ffffffffffffffffffffffffffffffffffffffff02191690556130d182613af8565b5050565b600033905090565b60007f9016d09d72d40fdae2fd8ceac6b6234c7706214fd39c1cd1e609a0528c199300905090565b60007ff0c57e16840df040f15088dc2f81fe391c3923bec73e23a9662efc9c229c6a00905090565b61314167e0ac6f8267a12b2360c01b613a82565b613149613bcf565b61315d67a98a64a67183a89d60c01b613a82565b61317167f51291f25f6e150960c01b613a82565b6131856717cdabef0ba9179f60c01b613a82565b613199674799014289b2c02e60c01b613a82565b6131a233613c0f565b6131b667a6aa6b32c4b3a17360c01b613a82565b6131ca67254191c608b62dee60c01b613a82565b6131d2613c23565b565b60007f237e158222e3e6968b72b9db0d8043aacf074ad9f650f0d1606b4d82ee432c00905090565b600061322a7f360894a13ba1a3210667c828492db98dca3e2076cc3735a920a3ca505d382bbc60001b613c2d565b60000160009054906101000a900473ffffffffffffffffffffffffffffffffffffffff16905090565b600061326385856000868661326d565b9050949350505050565b60007f30644e72e131a029b85045b68181585d2833e84879b9709143e1f593f000000184106132c8576040517fc380a82e00000000000000000000000000000000000000000000000000000000815260040160405180910390fd5b6132d28686613c37565b613308576040517f7204756c00000000000000000000000000000000000000000000000000000000815260040160405180910390fd5b6133128685613c37565b15613349576040517f258a195a00000000000000000000000000000000000000000000000000000000815260040160405180910390fd5b60006133558787612d97565b905060008590506000879050600060018a6000015461337491906143c9565b90506000808b60010154905060005b81811015613762576001808289901c1603613563577f30644e72e131a029b85045b68181585d2833e84879b9709143e1f593f00000018a8a858181106133cc576133cb614403565b5b905060200201351061340a576040517fc380a82e00000000000000000000000000000000000000000000000000000000815260040160405180910390fd5b73__$75f79a42d9bcbdbb69ad79ebd80f556f39$__63561558fe60405180604001604052808d8d8881811061344257613441614403565b5b905060200201358152602001898152506040518263ffffffff1660e01b815260040161346e9190614419565b602060405180830381865af415801561348b573d6000803e3d6000fd5b505050506040513d601f19601f820116820180604052508101906134af9190614456565b955073__$75f79a42d9bcbdbb69ad79ebd80f556f39$__63561558fe60405180604001604052808d8d888181106134e9576134e8614403565b5b905060200201358152602001888152506040518263ffffffff1660e01b81526004016135159190614419565b602060405180830381865af4158015613532573d6000803e3d6000fd5b505050506040513d601f19601f820116820180604052508101906135569190614456565b9450826001019250613757565b8084901c8188901c1461373b577f30644e72e131a029b85045b68181585d2833e84879b9709143e1f593f00000018a8a858181106135a4576135a3614403565b5b90506020020135106135e2576040517fc380a82e00000000000000000000000000000000000000000000000000000000815260040160405180910390fd5b73__$75f79a42d9bcbdbb69ad79ebd80f556f39$__63561558fe60405180604001604052808981526020018d8d888181106136205761361f614403565b5b905060200201358152506040518263ffffffff1660e01b81526004016136469190614419565b602060405180830381865af4158015613663573d6000803e3d6000fd5b505050506040513d601f19601f820116820180604052508101906136879190614456565b955073__$75f79a42d9bcbdbb69ad79ebd80f556f39$__63561558fe60405180604001604052808881526020018d8d888181106136c7576136c6614403565b5b905060200201358152506040518263ffffffff1660e01b81526004016136ed9190614419565b602060405180830381865af415801561370a573d6000803e3d6000fd5b505050506040513d601f19601f8201168201806040525081019061372e9190614456565b9450826001019250613756565b858d6002016000858152602001908152602001600020819055505b5b806001019050613383565b5061376c8c612e56565b84146137a4576040517f3fa930c600000000000000000000000000000000000000000000000000000000815260040160405180910390fd5b848c60020160008381526020019081526020016000208190555060008a146137f6578b60030160008c8152602001908152602001600020548c60030160008c8152602001908152602001600020819055505b60008c60030160008d81526020019081526020016000208190555084965050505050505095945050505050565b60007f30644e72e131a029b85045b68181585d2833e84879b9709143e1f593f0000001821061387e576040517fc380a82e00000000000000000000000000000000000000000000000000000000815260040160405180910390fd5b600082036138b8576040517f29691be200000000000000000000000000000000000000000000000000000000815260040160405180910390fd5b6138c28383613c37565b156138f9576040517f258a195a00000000000000000000000000000000000000000000000000000000815260040160405180910390fd5b6000836000015490506000846001015490506001826139189190614472565b816002613925919061458e565b10156139385780613935906145a2565b90505b808560010181905550600084905060005b82811015613a2c576001808286901c1603613a065773__$75f79a42d9bcbdbb69ad79ebd80f556f39$__63561558fe60405180604001604052808a6002016000868152602001908152602001600020548152602001858152506040518263ffffffff1660e01b81526004016139be9190614419565b602060405180830381865af41580156139db573d6000803e3d6000fd5b505050506040513d601f19601f820116820180604052508101906139ff9190614456565b9150613a21565b81876002016000838152602001908152602001600020819055505b806001019050613949565b5082613a37906145a2565b92508286600001819055508086600201600084815260200190815260200160002081905550828660030160008781526020019081526020016000208190555080935050505092915050565b50565b613a8e82613c5a565b8173ffffffffffffffffffffffffffffffffffffffff167fbc7cd75a20ee27fd9adebab32041f755214dbc6bffa90cc0225b39da2e5c2d3b60405160405180910390a2600081511115613aeb57613ae58282613d27565b50613af4565b613af3613dab565b5b5050565b6000613b026130dd565b905060008160000160009054906101000a900473ffffffffffffffffffffffffffffffffffffffff169050828260000160006101000a81548173ffffffffffffffffffffffffffffffffffffffff021916908373ffffffffffffffffffffffffffffffffffffffff1602179055508273ffffffffffffffffffffffffffffffffffffffff168173ffffffffffffffffffffffffffffffffffffffff167f8be0079c531659141344cd1fd0a4f28419497f9722a3daafe3b4186f6b6457e060405160405180910390a3505050565b613bd7613de8565b613c0d576040517fd7e6bcf800000000000000000000000000000000000000000000000000000000815260040160405180910390fd5b565b613c17613bcf565b613c2081613e08565b50565b613c2b613bcf565b565b6000819050919050565b600080836003016000848152602001908152602001600020541415905092915050565b60008173ffffffffffffffffffffffffffffffffffffffff163b03613cb657806040517f4c9c8ce3000000000000000000000000000000000000000000000000000000008152600401613cad91906140fc565b60405180910390fd5b80613ce37f360894a13ba1a3210667c828492db98dca3e2076cc3735a920a3ca505d382bbc60001b613c2d565b60000160006101000a81548173ffffffffffffffffffffffffffffffffffffffff021916908373ffffffffffffffffffffffffffffffffffffffff16021790555050565b60606000808473ffffffffffffffffffffffffffffffffffffffff1684604051613d5191906145c0565b600060405180830381855af49150503d8060008114613d8c576040519150601f19603f3d011682016040523d82523d6000602084013e613d91565b606091505b5091509150613da1858383613e8e565b9250505092915050565b6000341115613de6576040517fb398979f00000000000000000000000000000000000000000000000000000000815260040160405180910390fd5b565b6000613df2613105565b60000160089054906101000a900460ff16905090565b613e10613bcf565b600073ffffffffffffffffffffffffffffffffffffffff168173ffffffffffffffffffffffffffffffffffffffff1603613e825760006040517f1e4fbdf7000000000000000000000000000000000000000000000000000000008152600401613e7991906140fc565b60405180910390fd5b613e8b81613095565b50565b606082613ea357613e9e82613f1d565b613f15565b60008251148015613ecb575060008473ffffffffffffffffffffffffffffffffffffffff163b145b15613f0d57836040517f9996b315000000000000000000000000000000000000000000000000000000008152600401613f0491906140fc565b60405180910390fd5b819050613f16565b5b9392505050565b600081511115613f305780518082602001fd5b6040517fd6bda27500000000000000000000000000000000000000000000000000000000815260040160405180910390fd5b60008083601f840112613f7457600080fd5b8235905067ffffffffffffffff811115613f8d57600080fd5b6020830191508360208260051b8501011115613fa857600080fd5b9250929050565b600080600060408486031215613fc457600080fd5b60008435905080935050602084013567ffffffffffffffff811115613fe857600080fd5b613ff486828701613f62565b915080935050809150509250925092565b6000806000806060858703121561401b57600080fd5b6000853590508094505060006020860135905080935050604085013567ffffffffffffffff81111561404c57600080fd5b61405887828801613f62565b9150809350508091505092959194509250565b60006020828403121561407d57600080fd5b6000823590508091505092915050565b6000602082019050821515825292915050565b600060208201905082825292915050565b60008135905080151581146140c557600080fd5b919050565b600080604083850312156140dd57600080fd5b600083359050809250506140f3602084016140b1565b90509250929050565b600060208201905060018060a01b038316825292915050565b60008135905060018060a01b038116811461412f57600080fd5b919050565b634e487b7160e01b600052604160045260246000fd5b6000806040838503121561415d57600080fd5b61416683614115565b9150602083013567ffffffffffffffff81111561418257600080fd5b808401905084601f82011261419657600080fd5b803567ffffffffffffffff8111156141b1576141b0614134565b5b604051601f19603f601f19601f8501160116810181811067ffffffffffffffff821117156141e2576141e1614134565b5b80604052508181528660208385010111156141fc57600080fd5b816020840160208301376000602083830101528093505050509250929050565b600060208201905082825292915050565b60008060006060848603121561424257600080fd5b6000843590508093505060006020850135905080925050614265604085016140b1565b90509250925092565b60008060006060848603121561428357600080fd5b6000843590508093505060006020850135905080925050600060408501359050809150509250925092565b60005b838110156142cc5780820151818401526020810190506142b1565b50600083830152505050565b60208152600082518060208401526142f78160408501602087016142ae565b6040601f19601f83011684010191505092915050565b6000806040838503121561432057600080fd5b60008335905080925050600060208401359050809150509250929050565b60006020828403121561435057600080fd5b61435982614115565b905092915050565b60006040820190508382528260208301529392505050565b6000606082019050848252836020830152826040830152949350505050565b600060208201905067ffffffffffffffff8316825292915050565b634e487b7160e01b600052601160045260246000fd5b60008282039050818111156143e1576143e06143b3565b5b92915050565b6000602082840312156143f957600080fd5b8151905092915050565b634e487b7160e01b600052603260045260246000fd5b6000604082019050818290508360005b600281101561444d5781518352602083019250602082019150600181019050614429565b50505092915050565b60006020828403121561446857600080fd5b8151905092915050565b600082820190508082111561448a576144896143b3565b5b92915050565b600080600191508290505b60018411156144d6578085048111156144b7576144b66143b3565b5b60018416156144c65780820291505b80810290508360011c935061449b565b935093915050565b6000826144ee5760019050614588565b816144fc5760009050614588565b8160018114614512576002811461451c5761453a565b6001915050614588565b60ff84111561452e5761452d6143b3565b5b6001841b915050614588565b5060208310610133831016604e8410600b841016171561455e5782820a9050614588565b61456b6000198484614490565b80600019048211156145805761457f6143b3565b5b808202925050505b92915050565b600061459a83836144de565b905092915050565b6000801982036145b5576145b46143b3565b5b600182019050919050565b600082516145d28184602087016142ae565b8083019150509291505056fea164736f6c634300081c000a",
  "linkReferences": {
    "poseidon-solidity/PoseidonT3.sol": {
      "PoseidonT3": [
        {
          "length": 20,
          "start": 13858
        },
        {
          "length": 20,
          "start": 14025
        },
        {
          "length": 20,
          "start": 14330
        },
        {
          "length": 20,
          "start": 14497
        },
        {
          "length": 20,
          "start": 15222
        }
      ]
    }
  },
  "deployedLinkReferences": {
    "poseidon-solidity/PoseidonT3.sol": {
      "PoseidonT3": [
        {
          "length": 20,
          "start": 13324
        },
        {
          "length": 20,
          "start": 13491
        },
        {
          "length": 20,
          "start": 13796
        },
        {
          "length": 20,
          "start": 13963
        },
        {
          "length": 20,
          "start": 14688
        }
      ]
    }
  }
}