{
  "_format": "hh-sol-artifact-1",
  "contractName": "IdentityVerificationHubImplV1",
  "sourceName": "contracts/IdentityVerificationHubImplV1.sol",
  "abi": [
    {
      "inputs": [],
      "stateMutability": "nonpayable",
      "type": "constructor"
    },
    {
      "inputs": [
        {
          "internalType": "address",
          "name": "target",
          "type": "address"
        }
      ],
      "name": "AddressEmptyCode",
      "type": "error"
    },
    {
      "inputs": [],
      "name": "CURRENT_DATE_NOT_IN_VALID_RANGE",
      "type": "error"
    },
    {
      "inputs": [
        {
          "internalType": "address",
          "name": "implementation",
          "type": "address"
        }
      ],
      "name": "ERC1967InvalidImplementation",
      "type": "error"
    },
    {
      "inputs": [],
      "name": "ERC1967NonPayable",
      "type": "error"
    },
    {
      "inputs": [],
      "name": "FailedCall",
      "type": "error"
    },
    {
      "inputs": [],
      "name": "INSUFFICIENT_CHARCODE_LEN",
      "type": "error"
    },
    {
      "inputs": [],
      "name": "INVALID_COMMITMENT_ROOT",
      "type": "error"
    },
    {
      "inputs": [],
      "name": "INVALID_CSCA_ROOT",
      "type": "error"
    },
    {
      "inputs": [],
      "name": "INVALID_DSC_PROOF",
      "type": "error"
    },
    {
      "inputs": [],
      "name": "INVALID_FORBIDDEN_COUNTRIES",
      "type": "error"
    },
    {
      "inputs": [],
      "name": "INVALID_OFAC",
      "type": "error"
    },
    {
      "inputs": [],
      "name": "INVALID_OFAC_ROOT",
      "type": "error"
    },
    {
      "inputs": [],
      "name": "INVALID_OLDER_THAN",
      "type": "error"
    },
    {
      "inputs": [],
      "name": "INVALID_REGISTER_PROOF",
      "type": "error"
    },
    {
      "inputs": [],
      "name": "INVALID_REVEALED_DATA_TYPE",
      "type": "error"
    },
    {
      "inputs": [],
      "name": "INVALID_VC_AND_DISCLOSE_PROOF",
      "type": "error"
    },
    {
      "inputs": [],
      "name": "InvalidAsciiCode",
      "type": "error"
    },
    {
      "inputs": [],
      "name": "InvalidDateDigit",
      "type": "error"
    },
    {
      "inputs": [],
      "name": "InvalidDateLength",
      "type": "error"
    },
    {
      "inputs": [],
      "name": "InvalidDayRange",
      "type": "error"
    },
    {
      "inputs": [],
      "name": "InvalidFieldElement",
      "type": "error"
    },
    {
      "inputs": [],
      "name": "InvalidInitialization",
      "type": "error"
    },
    {
      "inputs": [],
      "name": "InvalidMonthRange",
      "type": "error"
    },
    {
      "inputs": [],
      "name": "InvalidYearRange",
      "type": "error"
    },
    {
      "inputs": [],
      "name": "LENGTH_MISMATCH",
      "type": "error"
    },
    {
      "inputs": [],
      "name": "NO_VERIFIER_SET",
      "type": "error"
    },
    {
      "inputs": [],
      "name": "NotInitializing",
      "type": "error"
    },
    {
      "inputs": [
        {
          "internalType": "address",
          "name": "owner",
          "type": "address"
        }
      ],
      "name": "OwnableInvalidOwner",
      "type": "error"
    },
    {
      "inputs": [
        {
          "internalType": "address",
          "name": "account",
          "type": "address"
        }
      ],
      "name": "OwnableUnauthorizedAccount",
      "type": "error"
    },
    {
      "inputs": [],
      "name": "UUPSUnauthorizedCallContext",
      "type": "error"
    },
    {
      "inputs": [
        {
          "internalType": "bytes32",
          "name": "slot",
          "type": "bytes32"
        }
      ],
      "name": "UUPSUnsupportedProxiableUUID",
      "type": "error"
    },
    {
      "anonymous": false,
      "inputs": [
        {
          "indexed": false,
          "internalType": "uint256",
          "name": "typeId",
          "type": "uint256"
        },
        {
          "indexed": false,
          "internalType": "address",
          "name": "verifier",
          "type": "address"
        }
      ],
      "name": "DscCircuitVerifierUpdated",
      "type": "event"
    },
    {
      "anonymous": false,
      "inputs": [
        {
          "indexed": false,
          "internalType": "address",
          "name": "registry",
          "type": "address"
        },
        {
          "indexed": false,
          "internalType": "address",
          "name": "vcAndDiscloseCircuitVerifier",
          "type": "address"
        },
        {
          "indexed": false,
          "internalType": "uint256[]",
          "name": "registerCircuitVerifierIds",
          "type": "uint256[]"
        },
        {
          "indexed": false,
          "internalType": "address[]",
          "name": "registerCircuitVerifiers",
          "type": "address[]"
        },
        {
          "indexed": false,
          "internalType": "uint256[]",
          "name": "dscCircuitVerifierIds",
          "type": "uint256[]"
        },
        {
          "indexed": false,
          "internalType": "address[]",
          "name": "dscCircuitVerifiers",
          "type": "address[]"
        }
      ],
      "name": "HubInitialized",
      "type": "event"
    },
    {
      "anonymous": false,
      "inputs": [
        {
          "indexed": false,
          "internalType": "uint64",
          "name": "version",
          "type": "uint64"
        }
      ],
      "name": "Initialized",
      "type": "event"
    },
    {
      "anonymous": false,
      "inputs": [
        {
          "indexed": true,
          "internalType": "address",
          "name": "previousOwner",
          "type": "address"
        },
        {
          "indexed": true,
          "internalType": "address",
          "name": "newOwner",
          "type": "address"
        }
      ],
      "name": "OwnershipTransferStarted",
      "type": "event"
    },
    {
      "anonymous": false,
      "inputs": [
        {
          "indexed": true,
          "internalType": "address",
          "name": "previousOwner",
          "type": "address"
        },
        {
          "indexed": true,
          "internalType": "address",
          "name": "newOwner",
          "type": "address"
        }
      ],
      "name": "OwnershipTransferred",
      "type": "event"
    },
    {
      "anonymous": false,
      "inputs": [
        {
          "indexed": false,
          "internalType": "uint256",
          "name": "typeId",
          "type": "uint256"
        },
        {
          "indexed": false,
          "internalType": "address",
          "name": "verifier",
          "type": "address"
        }
      ],
      "name": "RegisterCircuitVerifierUpdated",
      "type": "event"
    },
    {
      "anonymous": false,
      "inputs": [
        {
          "indexed": false,
          "internalType": "address",
          "name": "registry",
          "type": "address"
        }
      ],
      "name": "RegistryUpdated",
      "type": "event"
    },
    {
      "anonymous": false,
      "inputs": [
        {
          "indexed": true,
          "internalType": "address",
          "name": "implementation",
          "type": "address"
        }
      ],
      "name": "Upgraded",
      "type": "event"
    },
    {
      "anonymous": false,
      "inputs": [
        {
          "indexed": false,
          "internalType": "address",
          "name": "vcAndDiscloseCircuitVerifier",
          "type": "address"
        }
      ],
      "name": "VcAndDiscloseCircuitUpdated",
      "type": "event"
    },
    {
      "inputs": [],
      "name": "UPGRADE_INTERFACE_VERSION",
      "outputs": [
        {
          "internalType": "string",
          "name": "",
          "type": "string"
        }
      ],
      "stateMutability": "view",
      "type": "function"
    },
    {
      "inputs": [],
      "name": "acceptOwnership",
      "outputs": [],
      "stateMutability": "nonpayable",
      "type": "function"
    },
    {
      "inputs": [
        {
          "internalType": "uint256[]",
          "name": "typeIds",
          "type": "uint256[]"
        },
        {
          "internalType": "address[]",
          "name": "verifierAddresses",
          "type": "address[]"
        }
      ],
      "name": "batchUpdateDscCircuitVerifiers",
      "outputs": [],
      "stateMutability": "nonpayable",
      "type": "function"
    },
    {
      "inputs": [
        {
          "internalType": "uint256[]",
          "name": "typeIds",
          "type": "uint256[]"
        },
        {
          "internalType": "address[]",
          "name": "verifierAddresses",
          "type": "address[]"
        }
      ],
      "name": "batchUpdateRegisterCircuitVerifiers",
      "outputs": [],
      "stateMutability": "nonpayable",
      "type": "function"
    },
    {
      "inputs": [
        {
          "internalType": "uint256[4]",
          "name": "forbiddenCountriesListPacked",
          "type": "uint256[4]"
        }
      ],
      "name": "getReadableForbiddenCountries",
      "outputs": [
        {
          "internalType": "string[40]",
          "name": "",
          "type": "string[40]"
        }
      ],
      "stateMutability": "view",
      "type": "function"
    },
    {
      "inputs": [
        {
          "internalType": "uint256[3]",
          "name": "revealedDataPacked",
          "type": "uint256[3]"
        },
        {
          "internalType": "enum IIdentityVerificationHubV1.RevealedDataType[]",
          "name": "types",
          "type": "uint8[]"
        }
      ],
      "name": "getReadableRevealedData",
      "outputs": [
        {
          "components": [
            {
              "internalType": "string",
              "name": "issuingState",
              "type": "string"
            },
            {
              "internalType": "string[]",
              "name": "name",
              "type": "string[]"
            },
            {
              "internalType": "string",
              "name": "passportNumber",
              "type": "string"
            },
            {
              "internalType": "string",
              "name": "nationality",
              "type": "string"
            },
            {
              "internalType": "string",
              "name": "dateOfBirth",
              "type": "string"
            },
            {
              "internalType": "string",
              "name": "gender",
              "type": "string"
            },
            {
              "internalType": "string",
              "name": "expiryDate",
              "type": "string"
            },
            {
              "internalType": "uint256",
              "name": "olderThan",
              "type": "uint256"
            },
            {
              "internalType": "uint256",
              "name": "passportNoOfac",
              "type": "uint256"
            },
            {
              "internalType": "uint256",
              "name": "nameAndDobOfac",
              "type": "uint256"
            },
            {
              "internalType": "uint256",
              "name": "nameAndYobOfac",
              "type": "uint256"
            }
          ],
          "internalType": "struct IIdentityVerificationHubV1.ReadableRevealedData",
          "name": "",
          "type": "tuple"
        }
      ],
      "stateMutability": "view",
      "type": "function"
    },
    {
      "inputs": [
        {
          "internalType": "address",
          "name": "registryAddress",
          "type": "address"
        },
        {
          "internalType": "address",
          "name": "vcAndDiscloseCircuitVerifierAddress",
          "type": "address"
        },
        {
          "internalType": "uint256[]",
          "name": "registerCircuitVerifierIds",
          "type": "uint256[]"
        },
        {
          "internalType": "address[]",
          "name": "registerCircuitVerifierAddresses",
          "type": "address[]"
        },
        {
          "internalType": "uint256[]",
          "name": "dscCircuitVerifierIds",
          "type": "uint256[]"
        },
        {
          "internalType": "address[]",
          "name": "dscCircuitVerifierAddresses",
          "type": "address[]"
        }
      ],
      "name": "initialize",
      "outputs": [],
      "stateMutability": "nonpayable",
      "type": "function"
    },
    {
      "inputs": [],
      "name": "owner",
      "outputs": [
        {
          "internalType": "address",
          "name": "",
          "type": "address"
        }
      ],
      "stateMutability": "view",
      "type": "function"
    },
    {
      "inputs": [],
      "name": "pendingOwner",
      "outputs": [
        {
          "internalType": "address",
          "name": "",
          "type": "address"
        }
      ],
      "stateMutability": "view",
      "type": "function"
    },
    {
      "inputs": [],
      "name": "proxiableUUID",
      "outputs": [
        {
          "internalType": "bytes32",
          "name": "",
          "type": "bytes32"
        }
      ],
      "stateMutability": "view",
      "type": "function"
    },
    {
      "inputs": [
        {
          "internalType": "uint256",
          "name": "dscCircuitVerifierId",
          "type": "uint256"
        },
        {
          "components": [
            {
              "internalType": "uint256[2]",
              "name": "a",
              "type": "uint256[2]"
            },
            {
              "internalType": "uint256[2][2]",
              "name": "b",
              "type": "uint256[2][2]"
            },
            {
              "internalType": "uint256[2]",
              "name": "c",
              "type": "uint256[2]"
            },
            {
              "internalType": "uint256[2]",
              "name": "pubSignals",
              "type": "uint256[2]"
            }
          ],
          "internalType": "struct IDscCircuitVerifier.DscCircuitProof",
          "name": "dscCircuitProof",
          "type": "tuple"
        }
      ],
      "name": "registerDscKeyCommitment",
      "outputs": [],
      "stateMutability": "nonpayable",
      "type": "function"
    },
    {
      "inputs": [
        {
          "internalType": "uint256",
          "name": "registerCircuitVerifierId",
          "type": "uint256"
        },
        {
          "components": [
            {
              "internalType": "uint256[2]",
              "name": "a",
              "type": "uint256[2]"
            },
            {
              "internalType": "uint256[2][2]",
              "name": "b",
              "type": "uint256[2][2]"
            },
            {
              "internalType": "uint256[2]",
              "name": "c",
              "type": "uint256[2]"
            },
            {
              "internalType": "uint256[3]",
              "name": "pubSignals",
              "type": "uint256[3]"
            }
          ],
          "internalType": "struct IRegisterCircuitVerifier.RegisterCircuitProof",
          "name": "registerCircuitProof",
          "type": "tuple"
        }
      ],
      "name": "registerPassportCommitment",
      "outputs": [],
      "stateMutability": "nonpayable",
      "type": "function"
    },
    {
      "inputs": [],
      "name": "registry",
      "outputs": [
        {
          "internalType": "address",
          "name": "",
          "type": "address"
        }
      ],
      "stateMutability": "view",
      "type": "function"
    },
    {
      "inputs": [],
      "name": "renounceOwnership",
      "outputs": [],
      "stateMutability": "nonpayable",
      "type": "function"
    },
    {
      "inputs": [
        {
          "internalType": "uint256",
          "name": "typeId",
          "type": "uint256"
        }
      ],
      "name": "sigTypeToDscCircuitVerifiers",
      "outputs": [
        {
          "internalType": "address",
          "name": "",
          "type": "address"
        }
      ],
      "stateMutability": "view",
      "type": "function"
    },
    {
      "inputs": [
        {
          "internalType": "uint256",
          "name": "typeId",
          "type": "uint256"
        }
      ],
      "name": "sigTypeToRegisterCircuitVerifiers",
      "outputs": [
        {
          "internalType": "address",
          "name": "",
          "type": "address"
        }
      ],
      "stateMutability": "view",
      "type": "function"
    },
    {
      "inputs": [
        {
          "internalType": "address",
          "name": "newOwner",
          "type": "address"
        }
      ],
      "name": "transferOwnership",
      "outputs": [],
      "stateMutability": "nonpayable",
      "type": "function"
    },
    {
      "inputs": [
        {
          "internalType": "uint256",
          "name": "typeId",
          "type": "uint256"
        },
        {
          "internalType": "address",
          "name": "verifierAddress",
          "type": "address"
        }
      ],
      "name": "updateDscVerifier",
      "outputs": [],
      "stateMutability": "nonpayable",
      "type": "function"
    },
    {
      "inputs": [
        {
          "internalType": "uint256",
          "name": "typeId",
          "type": "uint256"
        },
        {
          "internalType": "address",
          "name": "verifierAddress",
          "type": "address"
        }
      ],
      "name": "updateRegisterCircuitVerifier",
      "outputs": [],
      "stateMutability": "nonpayable",
      "type": "function"
    },
    {
      "inputs": [
        {
          "internalType": "address",
          "name": "registryAddress",
          "type": "address"
        }
      ],
      "name": "updateRegistry",
      "outputs": [],
      "stateMutability": "nonpayable",
      "type": "function"
    },
    {
      "inputs": [
        {
          "internalType": "address",
          "name": "vcAndDiscloseCircuitVerifierAddress",
          "type": "address"
        }
      ],
      "name": "updateVcAndDiscloseCircuit",
      "outputs": [],
      "stateMutability": "nonpayable",
      "type": "function"
    },
    {
      "inputs": [
        {
          "internalType": "address",
          "name": "newImplementation",
          "type": "address"
        },
        {
          "internalType": "bytes",
          "name": "data",
          "type": "bytes"
        }
      ],
      "name": "upgradeToAndCall",
      "outputs": [],
      "stateMutability": "payable",
      "type": "function"
    },
    {
      "inputs": [],
      "name": "vcAndDiscloseCircuitVerifier",
      "outputs": [
        {
          "internalType": "address",
          "name": "",
          "type": "address"
        }
      ],
      "stateMutability": "view",
      "type": "function"
    },
    {
      "inputs": [
        {
          "components": [
            {
              "internalType": "bool",
              "name": "olderThanEnabled",
              "type": "bool"
            },
            {
              "internalType": "uint256",
              "name": "olderThan",
              "type": "uint256"
            },
            {
              "internalType": "bool",
              "name": "forbiddenCountriesEnabled",
              "type": "bool"
            },
            {
              "internalType": "uint256[4]",
              "name": "forbiddenCountriesListPacked",
              "type": "uint256[4]"
            },
            {
              "internalType": "bool[3]",
              "name": "ofacEnabled",
              "type": "bool[3]"
            },
            {
              "components": [
                {
                  "internalType": "uint256[2]",
                  "name": "a",
                  "type": "uint256[2]"
                },
                {
                  "internalType": "uint256[2][2]",
                  "name": "b",
                  "type": "uint256[2][2]"
                },
                {
                  "internalType": "uint256[2]",
                  "name": "c",
                  "type": "uint256[2]"
                },
                {
                  "internalType": "uint256[21]",
                  "name": "pubSignals",
                  "type": "uint256[21]"
                }
              ],
              "internalType": "struct IVcAndDiscloseCircuitVerifier.VcAndDiscloseProof",
              "name": "vcAndDiscloseProof",
              "type": "tuple"
            }
          ],
          "internalType": "struct IIdentityVerificationHubV1.VcAndDiscloseHubProof",
          "name": "proof",
          "type": "tuple"
        }
      ],
      "name": "verifyVcAndDisclose",
      "outputs": [
        {
          "components": [
            {
              "internalType": "uint256",
              "name": "attestationId",
              "type": "uint256"
            },
            {
              "internalType": "uint256",
              "name": "scope",
              "type": "uint256"
            },
            {
              "internalType": "uint256",
              "name": "userIdentifier",
              "type": "uint256"
            },
            {
              "internalType": "uint256",
              "name": "nullifier",
              "type": "uint256"
            },
            {
              "internalType": "uint256",
              "name": "identityCommitmentRoot",
              "type": "uint256"
            },
            {
              "internalType": "uint256[3]",
              "name": "revealedDataPacked",
              "type": "uint256[3]"
            },
            {
              "internalType": "uint256[4]",
              "name": "forbiddenCountriesListPacked",
              "type": "uint256[4]"
            }
          ],
          "internalType": "struct IIdentityVerificationHubV1.VcAndDiscloseVerificationResult",
          "name": "",
          "type": "tuple"
        }
      ],
      "stateMutability": "view",
      "type": "function"
    }
  ],
  "bytecode": "0x60a06040523060805234801561001457600080fd5b5061001d610022565b6100d4565b7ff0c57e16840df040f15088dc2f81fe391c3923bec73e23a9662efc9c229c6a00805468010000000000000000900460ff16156100725760405163f92ee8a960e01b815260040160405180910390fd5b80546001600160401b03908116146100d15780546001600160401b0319166001600160401b0390811782556040519081527fc7f505b2f371ae2175ee4913f4499e1f2633a7b5936321eed1cdaeb6115181d29060200160405180910390a15b50565b6080516141a26100fd600039600081816111c0015281816111e901526118bd01526141a26000f3fe60806040526004361061014b5760003560e01c806379ba5097116100b6578063e30c39781161006f578063e30c3978146103b7578063e42208af146103cc578063e6db96b7146103ec578063f015f5791461040c578063f2fde38b1461042c578063f559df131461044c57600080fd5b806379ba5097146102e05780637b103999146102f55780638da5cb5b1461030a578063a02592d81461031f578063ad3cb1cc1461034c578063d1ea63a21461038a57600080fd5b806330aec59e1161010857806330aec59e146102405780633d098d8b146102605780634f1ef2861461028057806352d1902d14610293578063715018a6146102b65780637798200a146102cb57600080fd5b806304fcccd1146101505780630ae1b2c0146101725780631a5da6c814610192578063253f254b146101b25780632b26ef50146101d25780632ee85c3e14610208575b600080fd5b34801561015c57600080fd5b5061017061016b36600461333e565b61046c565b005b34801561017e57600080fd5b5061017061018d3660046133db565b6104fb565b34801561019e57600080fd5b506101706101ad3660046133db565b610560565b3480156101be57600080fd5b506101706101cd3660046133f6565b6105be565b3480156101de57600080fd5b506101f26101ed366004613445565b610635565b6040516101ff91906135a0565b60405180910390f35b34801561021457600080fd5b506102286102233660046136ad565b610889565b6040516001600160a01b0390911681526020016101ff565b34801561024c57600080fd5b5061017061025b3660046133f6565b6108b2565b34801561026c57600080fd5b5061017061027b3660046136c6565b610921565b61017061028e36600461373c565b61096b565b34801561029f57600080fd5b506102a861098a565b6040519081526020016101ff565b3480156102c257600080fd5b506101706109a7565b3480156102d757600080fd5b506102286109bb565b3480156102ec57600080fd5b506101706109d5565b34801561030157600080fd5b50610228610a22565b34801561031657600080fd5b50610228610a3c565b34801561032b57600080fd5b5061033f61033a366004613816565b610a71565b6040516101ff9190613832565b34801561035857600080fd5b5061037d604051806040016040528060058152602001640352e302e360dc1b81525081565b6040516101ff9190613877565b34801561039657600080fd5b506103aa6103a5366004613947565b610a8a565b6040516101ff9190613a41565b3480156103c357600080fd5b50610228610ba5565b3480156103d857600080fd5b506102286103e73660046136ad565b610bce565b3480156103f857600080fd5b50610170610407366004613b81565b610bf4565b34801561041857600080fd5b50610170610427366004613ca8565b610eb5565b34801561043857600080fd5b506101706104473660046133db565b610ff6565b34801561045857600080fd5b50610170610467366004613ca8565b61107b565b6104746111b5565b61047e828261125a565b60325460608201518051602090910151604051634d42ea0560e11b815260016004820152602481019290925260448201526001600160a01b0390911690639a85d40a906064015b600060405180830381600087803b1580156104df57600080fd5b505af11580156104f3573d6000803e3d6000fd5b505050505050565b6105036111b5565b61050b6113ca565b603380546001600160a01b0319166001600160a01b0383169081179091556040519081527f668ec257b00a7e1390c2dc2aed8dc1530b91cd9e36167e4991d705cd3d2fe65e906020015b60405180910390a150565b6105686111b5565b6105706113ca565b603280546001600160a01b0319166001600160a01b0383169081179091556040519081527fd6ceddf6d2a22f21c7c81675c518004eff43bc5c8a6fc32a0b748e69d58671cd90602001610555565b6105c66111b5565b6105ce6113ca565b60008281526034602090815260409182902080546001600160a01b0319166001600160a01b0385169081179091558251858152918201527f2bdbcbf49383457c270bf05734cc8d74acb8a5788f0dc6384a715680f6a4dbcf91015b60405180910390a15050565b61063d613087565b6106456111b5565b6000610650846113fc565b905061065a613087565b60005b845181101561087e57600085828151811061067a5761067a613d17565b602002602001015190506000600a81111561069757610697613d2d565b81600a8111156106a9576106a9613d2d565b036106be576106b784611555565b8352610875565b600181600a8111156106d2576106d2613d2d565b036106ea576106e084611564565b6020840152610875565b600281600a8111156106fe576106fe613d2d565b036107165761070c8461157b565b6040840152610875565b600381600a81111561072a5761072a613d2d565b03610742576107388461158a565b6060840152610875565b600481600a81111561075657610756613d2d565b0361076e5761076484611599565b6080840152610875565b600581600a81111561078257610782613d2d565b0361079a57610790846115b0565b60a0840152610875565b600681600a8111156107ae576107ae613d2d565b036107c6576107bc846115be565b60c0840152610875565b600781600a8111156107da576107da613d2d565b036107f2576107e8846115d0565b60e0840152610875565b600881600a81111561080657610806613d2d565b0361081f576108148461162a565b610100840152610875565b600981600a81111561083357610833613d2d565b0361084c576108418461164d565b610120840152610875565b600a81600a81111561086057610860613d2d565b036108755761086e8461166c565b6101408401525b5060010161065d565b509150505b92915050565b60006108936111b5565b506000818152603560205260409020546001600160a01b03165b919050565b6108ba6111b5565b6108c26113ca565b60008281526035602090815260409182902080546001600160a01b0319166001600160a01b0385169081179091558251858152918201527f02c7aeb52f414fb9b4dfa6100f38185b5e12b184349218c18700bc39423bedc99101610629565b6109296111b5565b610933828261167b565b6032546060820151516040516322292bed60e11b815260048101919091526001600160a01b039091169063445257da906024016104c5565b6109736111b5565b61097c826117e5565b61098682826117f5565b5050565b60006109946118b2565b5060008051602061415683398151915290565b6109af6113ca565b6109b960006118fb565b565b60006109c56111b5565b506033546001600160a01b031690565b33806109df610ba5565b6001600160a01b031614610a165760405163118cdaa760e01b81526001600160a01b03821660048201526024015b60405180910390fd5b610a1f816118fb565b50565b6000610a2c6111b5565b506032546001600160a01b031690565b6000807f9016d09d72d40fdae2fd8ceac6b6234c7706214fd39c1cd1e609a0528c1993005b546001600160a01b031692915050565b610a796130e1565b610a816111b5565b61088382611933565b610a92613109565b610a9a6111b5565b610aa2613109565b610aab83611bac565b608082015260005b6003811015610b085760a084015160600151610ad0826000613d59565b60158110610ae057610ae0613d17565b60200201518260a001518260038110610afb57610afb613d17565b6020020152600101610ab3565b5060005b6004811015610b615760a084015160600151610b29826003613d59565b60158110610b3957610b39613d17565b60200201518260c001518260048110610b5457610b54613d17565b6020020152600101610b0c565b5060a092909201805160609081015160e001518482015281518101516101000151845281518101516102800151604085015290510151610260015160208301525090565b6000807f237e158222e3e6968b72b9db0d8043aacf074ad9f650f0d1606b4d82ee432c00610a61565b6000610bd86111b5565b506000908152603460205260409020546001600160a01b031690565b7ff0c57e16840df040f15088dc2f81fe391c3923bec73e23a9662efc9c229c6a008054600160401b810460ff1615906001600160401b0316600081158015610c395750825b90506000826001600160401b03166001148015610c555750303b155b905081158015610c63575080155b15610c815760405163f92ee8a960e01b815260040160405180910390fd5b845467ffffffffffffffff191660011785558315610cab57845460ff60401b1916600160401b1785555b610cb3612014565b603280546001600160a01b03808e166001600160a01b03199283161790925560338054928d16929091169190911790558751895114610d055760405163899ef10d60e01b815260040160405180910390fd5b8551875114610d275760405163899ef10d60e01b815260040160405180910390fd5b60005b8951811015610da357888181518110610d4557610d45613d17565b6020026020010151603460008c8481518110610d6357610d63613d17565b602090810291909101810151825281019190915260400160002080546001600160a01b0319166001600160a01b0392909216919091179055600101610d2a565b5060005b8751811015610e2057868181518110610dc257610dc2613d17565b6020026020010151603560008a8481518110610de057610de0613d17565b602090810291909101810151825281019190915260400160002080546001600160a01b0319166001600160a01b0392909216919091179055600101610da7565b507f5a70813cf1b6cd11d1164e9788f7d124185bf692c3197538d52d6067953d318f8b8b8b8b8b8b604051610e5a96959493929190613de3565b60405180910390a18315610ea857845460ff60401b19168555604051600181527fc7f505b2f371ae2175ee4913f4499e1f2633a7b5936321eed1cdaeb6115181d29060200160405180910390a15b5050505050505050505050565b610ebd6111b5565b610ec56113ca565b828114610ee55760405163899ef10d60e01b815260040160405180910390fd5b60005b83811015610fef57828282818110610f0257610f02613d17565b9050602002016020810190610f1791906133db565b60356000878785818110610f2d57610f2d613d17565b90506020020135815260200190815260200160002060006101000a8154816001600160a01b0302191690836001600160a01b031602179055507f02c7aeb52f414fb9b4dfa6100f38185b5e12b184349218c18700bc39423bedc9858583818110610f9957610f99613d17565b90506020020135848484818110610fb257610fb2613d17565b9050602002016020810190610fc791906133db565b604080519283526001600160a01b0390911660208301520160405180910390a1600101610ee8565b5050505050565b610ffe6113ca565b7f237e158222e3e6968b72b9db0d8043aacf074ad9f650f0d1606b4d82ee432c0080546001600160a01b0319166001600160a01b0383169081178255611042610a3c565b6001600160a01b03167f38d16b8cac22d99fc7c124b9cd0de2d3fa1faef420bfe791d8c362d765e2270060405160405180910390a35050565b6110836111b5565b61108b6113ca565b8281146110ab5760405163899ef10d60e01b815260040160405180910390fd5b60005b83811015610fef578282828181106110c8576110c8613d17565b90506020020160208101906110dd91906133db565b603460008787858181106110f3576110f3613d17565b90506020020135815260200190815260200160002060006101000a8154816001600160a01b0302191690836001600160a01b031602179055507f2bdbcbf49383457c270bf05734cc8d74acb8a5788f0dc6384a715680f6a4dbcf85858381811061115f5761115f613d17565b9050602002013584848481811061117857611178613d17565b905060200201602081019061118d91906133db565b604080519283526001600160a01b0390911660208301520160405180910390a16001016110ae565b306001600160a01b037f000000000000000000000000000000000000000000000000000000000000000016148061123c57507f00000000000000000000000000000000000000000000000000000000000000006001600160a01b0316611230600080516020614156833981519152546001600160a01b031690565b6001600160a01b031614155b156109b95760405163703e46dd60e11b815260040160405180910390fd5b6000828152603460205260409020546001600160a01b031680611290576040516347393fa360e11b815260040160405180910390fd5b60325460608301516040908101519051639fc1e42360e01b815260048101919091526001600160a01b0390911690639fc1e42390602401602060405180830381865afa1580156112e4573d6000803e3d6000fd5b505050506040513d601f19601f820116820180604052508101906113089190613e56565b61132557604051635290660160e01b815260040160405180910390fd5b806001600160a01b03166311479fea83600001518460200151856040015186606001516040518563ffffffff1660e01b81526004016113679493929190613ec4565b602060405180830381865afa158015611384573d6000803e3d6000fd5b505050506040513d601f19601f820116820180604052508101906113a89190613e56565b6113c557604051639003ac4d60e01b815260040160405180910390fd5b505050565b336113d3610a3c565b6001600160a01b0316146109b95760405163118cdaa760e01b8152336004820152602401610a0d565b805160609060008051602061417683398151915211158061142f5750602082015160008051602061417683398151915211155b8061144c5750604082015160008051602061417683398151915211155b1561146a57604051633ae4ed6b60e01b815260040160405180910390fd5b60408051606081018252601f80825260208201819052818301528151605d808252608082019093529091600091906020820181803683370190505090506000805b600381101561154b5760008682600381106114c8576114c8613d17565b6020020151905060005b8583600381106114e4576114e4613d17565b602002015160ff168160ff161015611541578160ff1660f81b85858061150990613efb565b96508151811061151b5761151b613d17565b60200101906001600160f81b031916908160001a90535060089190911c906001016114d2565b50506001016114ab565b5090949350505050565b6060610883826002600461202d565b6060610883611576836005602b61202d565b612124565b606061088382602c603461202d565b6060610883826036603861202d565b60606108836115ab836039603e61202d565b61233a565b60606108838260408061202d565b60606108836115ab836041604661202d565b60006115ff826115e260586001613d59565b815181106115f2576115f2613d17565b016020015160f81c612595565b611615836058815181106115f2576115f2613d17565b61162090600a613f14565b6108839190613d59565b600081605a8151811061163f5761163f613d17565b016020015160f81c92915050565b60008161165c605a6001613d59565b8151811061163f5761163f613d17565b60008161165c605a6002613d59565b6000828152603560205260409020546001600160a01b0316806116b1576040516347393fa360e11b815260040160405180910390fd5b603254606083015160200151604051631465ff7f60e01b815260048101919091526001600160a01b0390911690631465ff7f90602401602060405180830381865afa158015611704573d6000803e3d6000fd5b505050506040513d601f19601f820116820180604052508101906117289190613e56565b611745576040516328a52b4f60e21b815260040160405180910390fd5b806001600160a01b031663f5c9d69e83600001518460200151856040015186606001516040518563ffffffff1660e01b81526004016117879493929190613f2b565b602060405180830381865afa1580156117a4573d6000803e3d6000fd5b505050506040513d601f19601f820116820180604052508101906117c89190613e56565b6113c5576040516335436ebb60e11b815260040160405180910390fd5b6117ed6111b5565b610a1f6113ca565b816001600160a01b03166352d1902d6040518163ffffffff1660e01b8152600401602060405180830381865afa92505050801561184f575060408051601f3d908101601f1916820190925261184c91810190613f62565b60015b61187757604051634c9c8ce360e01b81526001600160a01b0383166004820152602401610a0d565b60008051602061415683398151915281146118a857604051632a87526960e21b815260048101829052602401610a0d565b6113c583836125cf565b306001600160a01b037f000000000000000000000000000000000000000000000000000000000000000016146109b95760405163703e46dd60e11b815260040160405180910390fd5b7f237e158222e3e6968b72b9db0d8043aacf074ad9f650f0d1606b4d82ee432c0080546001600160a01b031916815561098682612625565b61193b6130e1565b60005b60048110156119935760008051602061417683398151915283826004811061196857611968613d17565b60200201511061198b57604051633ae4ed6b60e01b815260040160405180910390fd5b60010161193e565b5060005b6028811015611ba65760006119ad826003613f14565b905060206119bc826002613d59565b1015611a285760006119cf826008613f14565b855160405190821c60e881901b6001600160e81b031916602083015291925062ffffff91821690602301604051602081830303815290604052868660288110611a1a57611a1a613d17565b602002015250611b9d915050565b6020811015611b1b576000611a3e826020613f7b565b90506000611a4d826003613f7b565b90506000611a5c846008613f14565b905060006001611a6d856008613f14565b6001901b611a7b9190613f7b565b8851909150821c81166000806001611a94876008613f14565b6001901b611aa29190613f7b565b60208c0151909150821c8116600084611abc8a6008613f14565b83901b17905080604051602001611ae6919060e89190911b6001600160e81b031916815260030190565b6040516020818303038152906040528c8c60288110611b0757611b07613d17565b602002015250611b9d975050505050505050565b6000611b28602083613f7b565b90506000611b37826008613f14565b905062ffffff600081838960016020020151901c16905080604051602001611b72919060e89190911b6001600160e81b031916815260030190565b604051602081830303815290604052878760288110611b9357611b93613d17565b6020020152505050505b50600101611997565b50919050565b60325460a0820151606001516101200151604051631fa0bd9b60e31b815260048101919091526000916001600160a01b03169063fd05ecd890602401602060405180830381865afa158015611c05573d6000803e3d6000fd5b505050506040513d601f19601f82011682018060405250810190611c299190613e56565b611c4657604051635290660160e01b815260040160405180910390fd5b611c4e613151565b60005b6006811015611ca25760a084015160600151611c6e82600a613d59565b60158110611c7e57611c7e613d17565b6020020151828260068110611c9557611c95613d17565b6020020152600101611c51565b506000611cae82612696565b905062015180611cbc61276f565b611cc69190613f7b565b611cd1906001613d59565b811080611cfd57506001611ce361276f565b611cf09062015180613d59565b611cfa9190613f7b565b81115b15611d1b5760405163ed8cf9ff60e01b815260040160405180910390fd5b611d2361316f565b60005b6003811015611d775760a086015160600151611d43826000613d59565b60158110611d5357611d53613d17565b6020020151828260038110611d6a57611d6a613d17565b6020020152600101611d26565b50845115611db257611d95611d8b826113fc565b866020015161278d565b611db25760405163f0e539b960e01b815260040160405180910390fd5b60808501515180611dc857506080850151602001515b80611dd857506080850151604001515b15611ed757611e03611de9826113fc565b6080870151805160208201516040909201519091906127a2565b611e20576040516371b125ed60e01b815260040160405180910390fd5b60325460a0860151606001516102008101516102208201516102409092015160405163935fc12160e01b81526004810192909252602482019290925260448101919091526001600160a01b039091169063935fc12190606401602060405180830381865afa158015611e96573d6000803e3d6000fd5b505050506040513d601f19601f82011682018060405250810190611eba9190613e56565b611ed757604051630e71e9e560e11b815260040160405180910390fd5b846040015115611f595760005b6004811015611f575760a086015160600151611f01826003613d59565b60158110611f1157611f11613d17565b602002015186606001518260048110611f2c57611f2c613d17565b602002015114611f4f57604051632fc86c4760e21b815260040160405180910390fd5b600101611ee4565b505b60335460a0860151805160208201516040808401516060909401519051632ef5e03f60e11b81526001600160a01b0390951694635debc07e94611fa29493929091600401613f8e565b602060405180830381865afa158015611fbf573d6000803e3d6000fd5b505050506040513d601f19601f82011682018060405250810190611fe39190613e56565b61200057604051636a69bd3d60e11b815260040160405180910390fd5b5050505060a0015160600151610120015190565b61201c6127fa565b61202533612843565b6109b9612854565b6060818451116120505760405163fe9a439f60e01b815260040160405180910390fd5b600061205c8484613f7b565b612067906001613d59565b6001600160401b0381111561207e5761207e6131ca565b6040519080825280601f01601f1916602001820160405280156120a8576020820181803683370190505b509050835b838111612119578581815181106120c6576120c6613d17565b01602001516001600160f81b031916826120e08784613f7b565b815181106120f0576120f0613d17565b60200101906001600160f81b031916908160001a9053508061211181613efb565b9150506120ad565b5090505b9392505050565b6040805160028082526060828101909352839183918291600091816020015b606081526020019060019003908161214357905050905060005b845181108015612192575084818151811061217a5761217a613d17565b6020910101516001600160f81b031916600f60fa1b14155b156121ea57828582815181106121aa576121aa613d17565b602001015160f81c60f81b6040516020016121c6929190613feb565b604051602081830303815290604052925080806121e290613efb565b91505061215d565b6121f5600282613d59565b90505b84518110156122f25784818151811061221357612213613d17565b01602001516001600160f81b031916600f60fa1b0361229f578451612239826001613d59565b10801561227457508461224d826001613d59565b8151811061225d5761225d613d17565b6020910101516001600160f81b031916600f60fa1b145b6122f25783604051602001612289919061401a565b60405160208183030381529060405293506122e0565b838582815181106122b2576122b2613d17565b602001015160f81c60f81b6040516020016122ce929190613feb565b60405160208183030381529060405293505b806122ea81613efb565b9150506121f8565b838260008151811061230657612306613d17565b6020026020010181905250828260018151811061232557612325613d17565b60209081029190910101525095945050505050565b805160609082906006146123615760405163b337595360e01b815260040160405180910390fd5b603160f81b8160028151811061237957612379613d17565b01602001516001600160f81b03191611806123e85750806002815181106123a2576123a2613d17565b6020910101516001600160f81b031916603160f81b1480156123e85750601960f91b816003815181106123d7576123d7613d17565b01602001516001600160f81b031916115b15612406576040516304bcc4f160e31b815260040160405180910390fd5b603360f81b8160048151811061241e5761241e613d17565b01602001516001600160f81b031916118061248d57508060048151811061244757612447613d17565b6020910101516001600160f81b031916603360f81b14801561248d5750603160f81b8160058151811061247c5761247c613d17565b01602001516001600160f81b031916115b156124ab57604051638930acef60e01b815260040160405180910390fd5b60005b600681101561253257600360fc1b8282815181106124ce576124ce613d17565b01602001516001600160f81b031916108061250c5750603960f81b8282815181106124fb576124fb613d17565b01602001516001600160f81b031916115b1561252a576040516378f5f64b60e11b815260040160405180910390fd5b6001016124ae565b506000612542846000600261285c565b90506000612553856002600461285c565b90506000612564866004600661285c565b905080828460405160200161257b9392919061403f565b604051602081830303815290604052945050505050919050565b600060308210806125a65750603982115b156125c4576040516378f5f64b60e11b815260040160405180910390fd5b610883603083613f7b565b6125d88261291e565b6040516001600160a01b038316907fbc7cd75a20ee27fd9adebab32041f755214dbc6bffa90cc0225b39da2e5c2d3b90600090a280511561261d576113c58282612983565b6109866129f0565b7f9016d09d72d40fdae2fd8ceac6b6234c7706214fd39c1cd1e609a0528c19930080546001600160a01b031981166001600160a01b03848116918217845560405192169182907f8be0079c531659141344cd1fd0a4f28419497f9722a3daafe3b4186f6b6457e090600090a3505050565b6000805b60068110156126e35760098382600681106126b7576126b7613d17565b602002015111156126db576040516305ebe05560e21b815260040160405180910390fd5b60010161269a565b50604080516020810190915260008082525b600681101561275b5781600a85836006811061271357612713613d17565b6020020151612722919061409e565b61272d906030613d59565b60f81b604051602001612741929190613feb565b60408051601f1981840301815291905291506001016126f5565b50600061276782612a0f565b949350505050565b600061277e620151804261409e565b6127889042613f7b565b905090565b600081612799846115d0565b10159392505050565b60008315806127b957506127b58561162a565b6001145b80156127d557508215806127d557506127d18561164d565b6001145b80156127f157508115806127f157506127ed8561166c565b6001145b95945050505050565b7ff0c57e16840df040f15088dc2f81fe391c3923bec73e23a9662efc9c229c6a0054600160401b900460ff166109b957604051631afcd79f60e31b815260040160405180910390fd5b61284b6127fa565b610a1f81612c6a565b6109b96127fa565b606083600061286b8585613f7b565b6001600160401b03811115612882576128826131ca565b6040519080825280601f01601f1916602001820160405280156128ac576020820181803683370190505b509050845b84811015612914578281815181106128cb576128cb613d17565b01602001516001600160f81b031916826128e58884613f7b565b815181106128f5576128f5613d17565b60200101906001600160f81b031916908160001a9053506001016128b1565b5095945050505050565b806001600160a01b03163b60000361295457604051634c9c8ce360e01b81526001600160a01b0382166004820152602401610a0d565b60008051602061415683398151915280546001600160a01b0319166001600160a01b0392909216919091179055565b6060600080846001600160a01b0316846040516129a091906140c0565b600060405180830381855af49150503d80600081146129db576040519150601f19603f3d011682016040523d82523d6000602084013e6129e0565b606091505b50915091506127f1858383612c9c565b34156109b95760405163b398979f60e01b815260040160405180910390fd5b80516000908290600614612a365760405163b337595360e01b815260040160405180910390fd5b603160f81b81600281518110612a4e57612a4e613d17565b01602001516001600160f81b0319161180612abd575080600281518110612a7757612a77613d17565b6020910101516001600160f81b031916603160f81b148015612abd5750601960f91b81600381518110612aac57612aac613d17565b01602001516001600160f81b031916115b15612adb576040516304bcc4f160e31b815260040160405180910390fd5b603360f81b81600481518110612af357612af3613d17565b01602001516001600160f81b0319161180612b62575080600481518110612b1c57612b1c613d17565b6020910101516001600160f81b031916603360f81b148015612b625750603160f81b81600581518110612b5157612b51613d17565b01602001516001600160f81b031916115b15612b8057604051638930acef60e01b815260040160405180910390fd5b60005b6006811015612c0757600360fc1b828281518110612ba357612ba3613d17565b01602001516001600160f81b0319161080612be15750603960f81b828281518110612bd057612bd0613d17565b01602001516001600160f81b031916115b15612bff576040516378f5f64b60e11b815260040160405180910390fd5b600101612b83565b506000612c1f612c1a856000600261285c565b612cf8565b612c2b906107d0613d59565b90506000612c3f612c1a866002600461285c565b90506000612c53612c1a876004600661285c565b9050612c60838383612dd0565b9695505050505050565b612c726127fa565b6001600160a01b038116610a1657604051631e4fbdf760e01b815260006004820152602401610a0d565b606082612cb157612cac82612fdc565b61211d565b8151158015612cc857506001600160a01b0384163b155b15612cf157604051639996b31560e01b81526001600160a01b0385166004820152602401610a0d565b508061211d565b805160009082908203612d0e5750600092915050565b60008060005b8351811015612dc7576030848281518110612d3157612d31613d17565b016020015160f81c1080612d5e57506039848281518110612d5457612d54613d17565b016020015160f81c115b15612d7c576040516378f5f64b60e11b815260040160405180910390fd5b6030848281518110612d9057612d90613d17565b0160200151612da2919060f81c6140dc565b60ff16925082612db383600a613f14565b612dbd9190613d59565b9150600101612d14565b50949350505050565b6000806107b2851080612de4575061083485115b15612e02576040516305bd032560e21b815260040160405180910390fd5b6001841080612e115750600c84115b15612e2f576040516304bcc4f160e31b815260040160405180910390fd5b506107b25b848161ffff161015612e8a57612e4d8161ffff16613005565b15612e6757612e606301e2850083613d59565b9150612e78565b612e756301e1338083613d59565b91505b80612e82816140f5565b915050612e34565b612e9261318d565b601f8152612e9f86613005565b15612eb057601d6020820152612eb8565b601c60208201525b601f60408201819052601e606083018190526080830182905260a0830181905260c0830182905260e08301829052610100830181905261012083018290526101408301526101608201526001841080612f33575080612f18600187613f7b565b600c8110612f2857612f28613d17565b602002015160ff1684115b15612f5157604051638930acef60e01b815260040160405180910390fd5b600191505b848261ffff161015612fba5780612f6e600184614116565b61ffff16600c8110612f8257612f82613d17565b6020020151612f979060ff1662015180614130565b612fa69062ffffff1684613d59565b925081612fb2816140f5565b925050612f56565b612fc5600185613f7b565b612fd29062015180613f14565b612c609084613d59565b805115612fec5780518082602001fd5b60405163d6bda27560e01b815260040160405180910390fd5b60006107b2821080613018575061083482115b15613036576040516305bd032560e21b815260040160405180910390fd5b61304160048361409e565b1561304e57506000919050565b61305960648361409e565b1561306657506001919050565b6130726101908361409e565b1561307f57506000919050565b506001919050565b60405180610160016040528060608152602001606081526020016060815260200160608152602001606081526020016060815260200160608152602001600081526020016000815260200160008152602001600081525090565b6040518061050001604052806028905b60608152602001906001900390816130f15790505090565b6040518060e00160405280600081526020016000815260200160008152602001600081526020016000815260200161313f61316f565b815260200161314c6131ac565b905290565b6040518060c001604052806006906020820280368337509192915050565b60405180606001604052806003906020820280368337509192915050565b604051806101800160405280600c906020820280368337509192915050565b60405180608001604052806004906020820280368337509192915050565b634e487b7160e01b600052604160045260246000fd5b604051608081016001600160401b0381118282101715613202576132026131ca565b60405290565b60405160c081016001600160401b0381118282101715613202576132026131ca565b604051601f8201601f191681016001600160401b0381118282101715613252576132526131ca565b604052919050565b600082601f83011261326b57600080fd5b6000613277604061322a565b905080604084018581111561328b57600080fd5b845b818110156132a557803583526020928301920161328d565b509195945050505050565b600082601f8301126132c157600080fd5b60406132cc8161322a565b8060808501868111156132de57600080fd5b855b81811015613301576132f2888261325a565b845260209093019284016132e0565b50909695505050505050565b600082601f83011261331e57600080fd5b600061332a606061322a565b905080606084018581111561328b57600080fd5b60008082840361018081121561335357600080fd5b83359250610160601f198201121561336a57600080fd5b506133736131e0565b613380856020860161325a565b815261338f85606086016132b0565b60208201526133a18560e0860161325a565b60408201526133b485610120860161330d565b6060820152809150509250929050565b80356001600160a01b03811681146108ad57600080fd5b6000602082840312156133ed57600080fd5b61211d826133c4565b6000806040838503121561340957600080fd5b82359150613419602084016133c4565b90509250929050565b60006001600160401b0382111561343b5761343b6131ca565b5060051b60200190565b6000806080838503121561345857600080fd5b613462848461330d565b915060608301356001600160401b0381111561347d57600080fd5b8301601f8101851361348e57600080fd5b80356134a161349c82613422565b61322a565b8082825260208201915060208360051b8501019250878311156134c357600080fd5b6020840193505b828410156134f2578335600b81106134e157600080fd5b8252602093840193909101906134ca565b809450505050509250929050565b60005b8381101561351b578181015183820152602001613503565b50506000910152565b6000815180845261353c816020860160208601613500565b601f01601f19169290920160200192915050565b600082825180855260208501945060208160051b8301016020850160005b8381101561330157601f1985840301885261358a838351613524565b602098890198909350919091019060010161356e565b602081526000825161016060208401526135be610180840182613524565b90506020840151601f198483030160408501526135db8282613550565b9150506040840151601f198483030160608501526135f98282613524565b9150506060840151601f198483030160808501526136178282613524565b9150506080840151601f198483030160a08501526136358282613524565b91505060a0840151601f198483030160c08501526136538282613524565b91505060c0840151601f198483030160e08501526136718282613524565b91505060e08401516101008401526101008401516101208401526101208401516101408401526101408401516101608401528091505092915050565b6000602082840312156136bf57600080fd5b5035919050565b6000808284036101608112156136db57600080fd5b83359250610140601f19820112156136f257600080fd5b506136fb6131e0565b613708856020860161325a565b815261371785606086016132b0565b60208201526137298560e0860161325a565b60408201526133b485610120860161325a565b6000806040838503121561374f57600080fd5b613758836133c4565b915060208301356001600160401b0381111561377357600080fd5b8301601f8101851361378457600080fd5b80356001600160401b0381111561379d5761379d6131ca565b6137b0601f8201601f191660200161322a565b8181528660208385010111156137c557600080fd5b816020840160208301376000602083830101528093505050509250929050565b600082601f8301126137f657600080fd5b6000613802608061322a565b905080608084018581111561328b57600080fd5b60006080828403121561382857600080fd5b61211d83836137e5565b6020808252600090610520830190830184835b60288110156132a557601f19868503018352613862848351613524565b93506020928301929190910190600101613845565b60208152600061211d6020830184613524565b8015158114610a1f57600080fd5b60006103a082840312156138ab57600080fd5b6138b36131e0565b90506138bf838361325a565b81526138ce83604084016132b0565b60208201526138e08360c0840161325a565b604082015260008361011f8401126138f6578081fd5b806102a06139038161322a565b9150508091506103a084018581111561391b57600080fd5b61010085015b81811015613939578035845260209384019301613921565b505060608301525092915050565b60006104e082840312801561395b57600080fd5b506000613966613208565b83356139718161388a565b815260208481013590820152604084013561398b8161388a565b604082015261399d85606086016137e5565b60608201528460ff8501126139b0578182fd5b6139ba606061322a565b806101408601878111156139cc578485fd5b60e0870194505b808510156139f75784356139e68161388a565b8352602094850194909201916139d3565b816080850152613a078882613898565b60a085015250919695505050505050565b8060005b6003811015613a3b578151845260209384019390910190600101613a1c565b50505050565b600061018082019050825182526020830151602083015260408301516040830152606083015160608301526080830151608083015260a0830151613a8860a0840182613a18565b5060c0830151610100830160005b6004811015613ab5578251825260209283019290910190600101613a96565b50505092915050565b600082601f830112613acf57600080fd5b8135613add61349c82613422565b8082825260208201915060208360051b860101925085831115613aff57600080fd5b602085015b83811015612914578035835260209283019201613b04565b600082601f830112613b2d57600080fd5b8135613b3b61349c82613422565b8082825260208201915060208360051b860101925085831115613b5d57600080fd5b602085015b8381101561291457613b73816133c4565b835260209283019201613b62565b60008060008060008060c08789031215613b9a57600080fd5b613ba3876133c4565b9550613bb1602088016133c4565b945060408701356001600160401b03811115613bcc57600080fd5b613bd889828a01613abe565b94505060608701356001600160401b03811115613bf457600080fd5b613c0089828a01613b1c565b93505060808701356001600160401b03811115613c1c57600080fd5b613c2889828a01613abe565b92505060a08701356001600160401b03811115613c4457600080fd5b613c5089828a01613b1c565b9150509295509295509295565b60008083601f840112613c6f57600080fd5b5081356001600160401b03811115613c8657600080fd5b6020830191508360208260051b8501011115613ca157600080fd5b9250929050565b60008060008060408587031215613cbe57600080fd5b84356001600160401b03811115613cd457600080fd5b613ce087828801613c5d565b90955093505060208501356001600160401b03811115613cff57600080fd5b613d0b87828801613c5d565b95989497509550505050565b634e487b7160e01b600052603260045260246000fd5b634e487b7160e01b600052602160045260246000fd5b634e487b7160e01b600052601160045260246000fd5b8082018082111561088357610883613d43565b600081518084526020840193506020830160005b82811015613d9e578151865260209586019590910190600101613d80565b5093949350505050565b600081518084526020840193506020830160005b82811015613d9e5781516001600160a01b0316865260209586019590910190600101613dbc565b6001600160a01b0387811682528616602082015260c060408201819052600090613e0f90830187613d6c565b8281036060840152613e218187613da8565b90508281036080840152613e358186613d6c565b905082810360a0840152613e498185613da8565b9998505050505050505050565b600060208284031215613e6857600080fd5b815161211d8161388a565b8060005b6002811015613a3b578151845260209384019390910190600101613e77565b8060005b6002811015613a3b57613eae848351613e73565b6040939093019260209190910190600101613e9a565b6101608101613ed38287613e73565b613ee06040830186613e96565b613eed60c0830185613e73565b6127f1610100830184613a18565b600060018201613f0d57613f0d613d43565b5060010190565b808202811582820484141761088357610883613d43565b6101408101613f3a8287613e73565b613f476040830186613e96565b613f5460c0830185613e73565b6127f1610100830184613e73565b600060208284031215613f7457600080fd5b5051919050565b8181038181111561088357610883613d43565b6103a08101613f9d8287613e73565b613faa6040830186613e96565b613fb760c0830185613e73565b61010082018360005b6015811015613fdf578151835260209283019290910190600101613fc0565b50505095945050505050565b60008351613ffd818460208801613500565b6001600160f81b0319939093169190920190815260010192915050565b6000825161402c818460208701613500565b600160fd1b920191825250600101919050565b60008451614051818460208901613500565b602d60f81b908301908152845161406f816001840160208901613500565b602d60f81b600192909101918201528351614091816002840160208801613500565b0160020195945050505050565b6000826140bb57634e487b7160e01b600052601260045260246000fd5b500690565b600082516140d2818460208701613500565b9190910192915050565b60ff828116828216039081111561088357610883613d43565b600061ffff821661ffff810361410d5761410d613d43565b60010192915050565b61ffff828116828216039081111561088357610883613d43565b62ffffff818116838216029081169081811461414e5761414e613d43565b509291505056fe360894a13ba1a3210667c828492db98dca3e2076cc3735a920a3ca505d382bbc30644e72e131a029b85045b68181585d2833e84879b9709143e1f593f0000001a164736f6c634300081c000a",
  "linkReferences": {},
  "deployedLinkReferences": {}
}