{
  "_format": "hh-sol-artifact-1",
  "contractName": "MockImplRoot",
  "sourceName": "contracts/tests/testImplRoot.sol",
  "abi": [
    {
      "inputs": [
        {
          "internalType": "address",
          "name": "target",
          "type": "address"
        }
      ],
      "name": "AddressEmptyCode",
      "type": "error"
    },
    {
      "inputs": [
        {
          "internalType": "address",
          "name": "implementation",
          "type": "address"
        }
      ],
      "name": "ERC1967InvalidImplementation",
      "type": "error"
    },
    {
      "inputs": [],
      "name": "ERC1967NonPayable",
      "type": "error"
    },
    {
      "inputs": [],
      "name": "FailedCall",
      "type": "error"
    },
    {
      "inputs": [],
      "name": "InvalidInitialization",
      "type": "error"
    },
    {
      "inputs": [],
      "name": "NotInitializing",
      "type": "error"
    },
    {
      "inputs": [
        {
          "internalType": "address",
          "name": "owner",
          "type": "address"
        }
      ],
      "name": "OwnableInvalidOwner",
      "type": "error"
    },
    {
      "inputs": [
        {
          "internalType": "address",
          "name": "account",
          "type": "address"
        }
      ],
      "name": "OwnableUnauthorizedAccount",
      "type": "error"
    },
    {
      "inputs": [],
      "name": "UUPSUnauthorizedCallContext",
      "type": "error"
    },
    {
      "inputs": [
        {
          "internalType": "bytes32",
          "name": "slot",
          "type": "bytes32"
        }
      ],
      "name": "UUPSUnsupportedProxiableUUID",
      "type": "error"
    },
    {
      "anonymous": false,
      "inputs": [
        {
          "indexed": false,
          "internalType": "uint64",
          "name": "version",
          "type": "uint64"
        }
      ],
      "name": "Initialized",
      "type": "event"
    },
    {
      "anonymous": false,
      "inputs": [
        {
          "indexed": true,
          "internalType": "address",
          "name": "previousOwner",
          "type": "address"
        },
        {
          "indexed": true,
          "internalType": "address",
          "name": "newOwner",
          "type": "address"
        }
      ],
      "name": "OwnershipTransferStarted",
      "type": "event"
    },
    {
      "anonymous": false,
      "inputs": [
        {
          "indexed": true,
          "internalType": "address",
          "name": "previousOwner",
          "type": "address"
        },
        {
          "indexed": true,
          "internalType": "address",
          "name": "newOwner",
          "type": "address"
        }
      ],
      "name": "OwnershipTransferred",
      "type": "event"
    },
    {
      "anonymous": false,
      "inputs": [
        {
          "indexed": true,
          "internalType": "address",
          "name": "implementation",
          "type": "address"
        }
      ],
      "name": "Upgraded",
      "type": "event"
    },
    {
      "inputs": [],
      "name": "UPGRADE_INTERFACE_VERSION",
      "outputs": [
        {
          "internalType": "string",
          "name": "",
          "type": "string"
        }
      ],
      "stateMutability": "view",
      "type": "function"
    },
    {
      "inputs": [],
      "name": "acceptOwnership",
      "outputs": [],
      "stateMutability": "nonpayable",
      "type": "function"
    },
    {
      "inputs": [],
      "name": "exposed__ImplRoot_init",
      "outputs": [],
      "stateMutability": "nonpayable",
      "type": "function"
    },
    {
      "inputs": [
        {
          "internalType": "address",
          "name": "initialOwner",
          "type": "address"
        }
      ],
      "name": "exposed__Ownable_init",
      "outputs": [],
      "stateMutability": "nonpayable",
      "type": "function"
    },
    {
      "inputs": [
        {
          "internalType": "address",
          "name": "newImplementation",
          "type": "address"
        }
      ],
      "name": "exposed_authorizeUpgrade",
      "outputs": [],
      "stateMutability": "nonpayable",
      "type": "function"
    },
    {
      "inputs": [],
      "name": "owner",
      "outputs": [
        {
          "internalType": "address",
          "name": "",
          "type": "address"
        }
      ],
      "stateMutability": "view",
      "type": "function"
    },
    {
      "inputs": [],
      "name": "pendingOwner",
      "outputs": [
        {
          "internalType": "address",
          "name": "",
          "type": "address"
        }
      ],
      "stateMutability": "view",
      "type": "function"
    },
    {
      "inputs": [],
      "name": "proxiableUUID",
      "outputs": [
        {
          "internalType": "bytes32",
          "name": "",
          "type": "bytes32"
        }
      ],
      "stateMutability": "view",
      "type": "function"
    },
    {
      "inputs": [],
      "name": "renounceOwnership",
      "outputs": [],
      "stateMutability": "nonpayable",
      "type": "function"
    },
    {
      "inputs": [
        {
          "internalType": "address",
          "name": "newOwner",
          "type": "address"
        }
      ],
      "name": "transferOwnership",
      "outputs": [],
      "stateMutability": "nonpayable",
      "type": "function"
    },
    {
      "inputs": [
        {
          "internalType": "address",
          "name": "newImplementation",
          "type": "address"
        },
        {
          "internalType": "bytes",
          "name": "data",
          "type": "bytes"
        }
      ],
      "name": "upgradeToAndCall",
      "outputs": [],
      "stateMutability": "payable",
      "type": "function"
    }
  ],
  "bytecode": "0x60a060405230608052348015601357600080fd5b50608051610b8e61003d600039600081816104ba015281816104e301526106310152610b8e6000f3fe60806040526004361061009c5760003560e01c80638da5cb5b116100645780638da5cb5b14610128578063aa6b62cb14610155578063ad3cb1cc1461016a578063e30c3978146101a8578063f2fde38b146101bd578063fd510c16146101dd57600080fd5b80632ed0e952146100a15780634f1ef286146100c357806352d1902d146100d6578063715018a6146100fe57806379ba509714610113575b600080fd5b3480156100ad57600080fd5b506100c16100bc3660046109da565b6101fd565b005b6100c16100d1366004610a0b565b61030d565b3480156100e257600080fd5b506100eb61032c565b6040519081526020015b60405180910390f35b34801561010a57600080fd5b506100c1610349565b34801561011f57600080fd5b506100c161035d565b34801561013457600080fd5b5061013d6103aa565b6040516001600160a01b0390911681526020016100f5565b34801561016157600080fd5b506100c16103df565b34801561017657600080fd5b5061019b604051806040016040528060058152602001640352e302e360dc1b81525081565b6040516100f59190610af9565b3480156101b457600080fd5b5061013d6103e7565b3480156101c957600080fd5b506100c16101d83660046109da565b610410565b3480156101e957600080fd5b506100c16101f83660046109da565b610495565b7ff0c57e16840df040f15088dc2f81fe391c3923bec73e23a9662efc9c229c6a008054600160401b810460ff16159067ffffffffffffffff166000811580156102435750825b905060008267ffffffffffffffff1660011480156102605750303b155b90508115801561026e575080155b1561028c5760405163f92ee8a960e01b815260040160405180910390fd5b845467ffffffffffffffff1916600117855583156102b657845460ff60401b1916600160401b1785555b6102bf8661049e565b831561030557845460ff60401b19168555604051600181527fc7f505b2f371ae2175ee4913f4499e1f2633a7b5936321eed1cdaeb6115181d29060200160405180910390a15b505050505050565b6103156104af565b61031e82610554565b6103288282610564565b5050565b6000610336610626565b50600080516020610b6283398151915290565b61035161066f565b61035b60006106a1565b565b33806103676103e7565b6001600160a01b03161461039e5760405163118cdaa760e01b81526001600160a01b03821660048201526024015b60405180910390fd5b6103a7816106a1565b50565b6000807f9016d09d72d40fdae2fd8ceac6b6234c7706214fd39c1cd1e609a0528c1993005b546001600160a01b031692915050565b61035b6106d9565b6000807f237e158222e3e6968b72b9db0d8043aacf074ad9f650f0d1606b4d82ee432c006103cf565b61041861066f565b7f237e158222e3e6968b72b9db0d8043aacf074ad9f650f0d1606b4d82ee432c0080546001600160a01b0319166001600160a01b038316908117825561045c6103aa565b6001600160a01b03167f38d16b8cac22d99fc7c124b9cd0de2d3fa1faef420bfe791d8c362d765e2270060405160405180910390a35050565b6103a781610554565b6104a66106f2565b6103a78161073b565b306001600160a01b037f000000000000000000000000000000000000000000000000000000000000000016148061053657507f00000000000000000000000000000000000000000000000000000000000000006001600160a01b031661052a600080516020610b62833981519152546001600160a01b031690565b6001600160a01b031614155b1561035b5760405163703e46dd60e11b815260040160405180910390fd5b61055c6104af565b6103a761066f565b816001600160a01b03166352d1902d6040518163ffffffff1660e01b8152600401602060405180830381865afa9250505080156105be575060408051601f3d908101601f191682019092526105bb91810190610b2c565b60015b6105e657604051634c9c8ce360e01b81526001600160a01b0383166004820152602401610395565b600080516020610b62833981519152811461061757604051632a87526960e21b815260048101829052602401610395565b610621838361076d565b505050565b306001600160a01b037f0000000000000000000000000000000000000000000000000000000000000000161461035b5760405163703e46dd60e11b815260040160405180910390fd5b336106786103aa565b6001600160a01b03161461035b5760405163118cdaa760e01b8152336004820152602401610395565b7f237e158222e3e6968b72b9db0d8043aacf074ad9f650f0d1606b4d82ee432c0080546001600160a01b0319168155610328826107c3565b6106e16106f2565b6106ea3361049e565b61035b610834565b7ff0c57e16840df040f15088dc2f81fe391c3923bec73e23a9662efc9c229c6a0054600160401b900460ff1661035b57604051631afcd79f60e31b815260040160405180910390fd5b6107436106f2565b6001600160a01b03811661039e57604051631e4fbdf760e01b815260006004820152602401610395565b6107768261083c565b6040516001600160a01b038316907fbc7cd75a20ee27fd9adebab32041f755214dbc6bffa90cc0225b39da2e5c2d3b90600090a28051156107bb5761062182826108a1565b610328610917565b7f9016d09d72d40fdae2fd8ceac6b6234c7706214fd39c1cd1e609a0528c19930080546001600160a01b031981166001600160a01b03848116918217845560405192169182907f8be0079c531659141344cd1fd0a4f28419497f9722a3daafe3b4186f6b6457e090600090a3505050565b61035b6106f2565b806001600160a01b03163b60000361087257604051634c9c8ce360e01b81526001600160a01b0382166004820152602401610395565b600080516020610b6283398151915280546001600160a01b0319166001600160a01b0392909216919091179055565b6060600080846001600160a01b0316846040516108be9190610b45565b600060405180830381855af49150503d80600081146108f9576040519150601f19603f3d011682016040523d82523d6000602084013e6108fe565b606091505b509150915061090e858383610936565b95945050505050565b341561035b5760405163b398979f60e01b815260040160405180910390fd5b60608261094b5761094682610995565b61098e565b815115801561096257506001600160a01b0384163b155b1561098b57604051639996b31560e01b81526001600160a01b0385166004820152602401610395565b50805b9392505050565b8051156109a55780518082602001fd5b60405163d6bda27560e01b815260040160405180910390fd5b80356001600160a01b03811681146109d557600080fd5b919050565b6000602082840312156109ec57600080fd5b61098e826109be565b634e487b7160e01b600052604160045260246000fd5b60008060408385031215610a1e57600080fd5b610a27836109be565b9150602083013567ffffffffffffffff811115610a4357600080fd5b8301601f81018513610a5457600080fd5b803567ffffffffffffffff811115610a6e57610a6e6109f5565b604051601f8201601f19908116603f0116810167ffffffffffffffff81118282101715610a9d57610a9d6109f5565b604052818152828201602001871015610ab557600080fd5b816020840160208301376000602083830101528093505050509250929050565b60005b83811015610af0578181015183820152602001610ad8565b50506000910152565b6020815260008251806020840152610b18816040850160208701610ad5565b601f01601f19169190910160400192915050565b600060208284031215610b3e57600080fd5b5051919050565b60008251610b57818460208701610ad5565b919091019291505056fe360894a13ba1a3210667c828492db98dca3e2076cc3735a920a3ca505d382bbca164736f6c634300081c000a",
  "linkReferences": {},
  "deployedLinkReferences": {}
}