{
  "_format": "hh-sol-artifact-1",
  "contractName": "MockImplRoot",
  "sourceName": "contracts/tests/testImplRoot.sol",
  "abi": [
    {
      "inputs": [
        {
          "internalType": "address",
          "name": "target",
          "type": "address"
        }
      ],
      "name": "AddressEmptyCode",
      "type": "error"
    },
    {
      "inputs": [
        {
          "internalType": "address",
          "name": "implementation",
          "type": "address"
        }
      ],
      "name": "ERC1967InvalidImplementation",
      "type": "error"
    },
    {
      "inputs": [],
      "name": "ERC1967NonPayable",
      "type": "error"
    },
    {
      "inputs": [],
      "name": "FailedCall",
      "type": "error"
    },
    {
      "inputs": [],
      "name": "InvalidInitialization",
      "type": "error"
    },
    {
      "inputs": [],
      "name": "NotInitializing",
      "type": "error"
    },
    {
      "inputs": [
        {
          "internalType": "address",
          "name": "owner",
          "type": "address"
        }
      ],
      "name": "OwnableInvalidOwner",
      "type": "error"
    },
    {
      "inputs": [
        {
          "internalType": "address",
          "name": "account",
          "type": "address"
        }
      ],
      "name": "OwnableUnauthorizedAccount",
      "type": "error"
    },
    {
      "inputs": [],
      "name": "UUPSUnauthorizedCallContext",
      "type": "error"
    },
    {
      "inputs": [
        {
          "internalType": "bytes32",
          "name": "slot",
          "type": "bytes32"
        }
      ],
      "name": "UUPSUnsupportedProxiableUUID",
      "type": "error"
    },
    {
      "anonymous": false,
      "inputs": [
        {
          "indexed": false,
          "internalType": "uint64",
          "name": "version",
          "type": "uint64"
        }
      ],
      "name": "Initialized",
      "type": "event"
    },
    {
      "anonymous": false,
      "inputs": [
        {
          "indexed": true,
          "internalType": "address",
          "name": "previousOwner",
          "type": "address"
        },
        {
          "indexed": true,
          "internalType": "address",
          "name": "newOwner",
          "type": "address"
        }
      ],
      "name": "OwnershipTransferStarted",
      "type": "event"
    },
    {
      "anonymous": false,
      "inputs": [
        {
          "indexed": true,
          "internalType": "address",
          "name": "previousOwner",
          "type": "address"
        },
        {
          "indexed": true,
          "internalType": "address",
          "name": "newOwner",
          "type": "address"
        }
      ],
      "name": "OwnershipTransferred",
      "type": "event"
    },
    {
      "anonymous": false,
      "inputs": [
        {
          "indexed": true,
          "internalType": "address",
          "name": "implementation",
          "type": "address"
        }
      ],
      "name": "Upgraded",
      "type": "event"
    },
    {
      "inputs": [],
      "name": "UPGRADE_INTERFACE_VERSION",
      "outputs": [
        {
          "internalType": "string",
          "name": "",
          "type": "string"
        }
      ],
      "stateMutability": "view",
      "type": "function"
    },
    {
      "inputs": [],
      "name": "acceptOwnership",
      "outputs": [],
      "stateMutability": "nonpayable",
      "type": "function"
    },
    {
      "inputs": [],
      "name": "exposed__ImplRoot_init",
      "outputs": [],
      "stateMutability": "nonpayable",
      "type": "function"
    },
    {
      "inputs": [
        {
          "internalType": "address",
          "name": "initialOwner",
          "type": "address"
        }
      ],
      "name": "exposed__Ownable_init",
      "outputs": [],
      "stateMutability": "nonpayable",
      "type": "function"
    },
    {
      "inputs": [
        {
          "internalType": "address",
          "name": "newImplementation",
          "type": "address"
        }
      ],
      "name": "exposed_authorizeUpgrade",
      "outputs": [],
      "stateMutability": "nonpayable",
      "type": "function"
    },
    {
      "inputs": [],
      "name": "owner",
      "outputs": [
        {
          "internalType": "address",
          "name": "",
          "type": "address"
        }
      ],
      "stateMutability": "view",
      "type": "function"
    },
    {
      "inputs": [],
      "name": "pendingOwner",
      "outputs": [
        {
          "internalType": "address",
          "name": "",
          "type": "address"
        }
      ],
      "stateMutability": "view",
      "type": "function"
    },
    {
      "inputs": [],
      "name": "proxiableUUID",
      "outputs": [
        {
          "internalType": "bytes32",
          "name": "",
          "type": "bytes32"
        }
      ],
      "stateMutability": "view",
      "type": "function"
    },
    {
      "inputs": [],
      "name": "renounceOwnership",
      "outputs": [],
      "stateMutability": "nonpayable",
      "type": "function"
    },
    {
      "inputs": [
        {
          "internalType": "address",
          "name": "newOwner",
          "type": "address"
        }
      ],
      "name": "transferOwnership",
      "outputs": [],
      "stateMutability": "nonpayable",
      "type": "function"
    },
    {
      "inputs": [
        {
          "internalType": "address",
          "name": "newImplementation",
          "type": "address"
        },
        {
          "internalType": "bytes",
          "name": "data",
          "type": "bytes"
        }
      ],
      "name": "upgradeToAndCall",
      "outputs": [],
      "stateMutability": "payable",
      "type": "function"
    }
  ],
  "bytecode": "0x60a06040523073ffffffffffffffffffffffffffffffffffffffff1660809073ffffffffffffffffffffffffffffffffffffffff16815250348015604257600080fd5b5060805161132061006c600039600081816107450152818161079a01526109c001526113206000f3fe60806040526004361061009c5760003560e01c80638da5cb5b116100645780638da5cb5b1461013f578063aa6b62cb1461016a578063ad3cb1cc14610181578063e30c3978146101ac578063f2fde38b146101d7578063fd510c16146102005761009c565b80632ed0e952146100a15780634f1ef286146100ca57806352d1902d146100e6578063715018a61461011157806379ba509714610128575b600080fd5b3480156100ad57600080fd5b506100c860048036038101906100c3919061112a565b610229565b005b6100e460048036038101906100df9190611163565b61041c565b005b3480156100f257600080fd5b506100fb61043b565b6040516101089190611235565b60405180910390f35b34801561011d57600080fd5b5061012661046e565b005b34801561013457600080fd5b5061013d610482565b005b34801561014b57600080fd5b50610154610511565b6040516101619190611246565b60405180910390f35b34801561017657600080fd5b5061017f610549565b005b34801561018d57600080fd5b5061019661058f565b6040516101a39190611289565b60405180910390f35b3480156101b857600080fd5b506101c16105c8565b6040516101ce9190611246565b60405180910390f35b3480156101e357600080fd5b506101fe60048036038101906101f9919061112a565b610600565b005b34801561020c57600080fd5b506102276004803603810190610222919061112a565b6106bc565b005b61023d67745f20ad4e8f8ffc60c01b610704565b6000610247610707565b905060008160000160089054906101000a900460ff1615905060008260000160009054906101000a900467ffffffffffffffff1690506000808267ffffffffffffffff161480156102955750825b9050600060018367ffffffffffffffff161480156102ca575060003073ffffffffffffffffffffffffffffffffffffffff163b145b9050811580156102d8575080155b1561030f576040517ff92ee8a900000000000000000000000000000000000000000000000000000000815260040160405180910390fd5b60018560000160006101000a81548167ffffffffffffffff021916908367ffffffffffffffff160217905550831561035f5760018560000160086101000a81548160ff0219169083151502179055505b6103736721de7b5615900e6660c01b610704565b6103876767f45114254d338d60c01b610704565b61039b676d5b012121b7c86b60c01b610704565b6103af67b6c8639f8965502660c01b610704565b6103b88661072f565b83156104145760008560000160086101000a81548160ff0219169083151502179055507fc7f505b2f371ae2175ee4913f4499e1f2633a7b5936321eed1cdaeb6115181d2600160405161040b91906112be565b60405180910390a15b505050505050565b610424610743565b61042d82610829565b610437828261089f565b5050565b60006104456109be565b7f360894a13ba1a3210667c828492db98dca3e2076cc3735a920a3ca505d382bbc60001b905090565b610476610a45565b6104806000610acc565b565b600061048c610b0c565b90508073ffffffffffffffffffffffffffffffffffffffff166104ad6105c8565b73ffffffffffffffffffffffffffffffffffffffff161461050557806040517f118cdaa70000000000000000000000000000000000000000000000000000000081526004016104fc9190611246565b60405180910390fd5b61050e81610acc565b50565b60008061051c610b14565b90508060000160009054906101000a900473ffffffffffffffffffffffffffffffffffffffff1691505090565b61055d67c707bd8f933e924560c01b610704565b610571672de512f1eb96fc8360c01b610704565b610585675aab740c1c737d9660c01b610704565b61058d610b3c565b565b6040518060400160405280600581526020017f352e302e3000000000000000000000000000000000000000000000000000000081525081565b6000806105d3610be3565b90508060000160009054906101000a900473ffffffffffffffffffffffffffffffffffffffff1691505090565b610608610a45565b6000610612610be3565b9050818160000160006101000a81548173ffffffffffffffffffffffffffffffffffffffff021916908373ffffffffffffffffffffffffffffffffffffffff1602179055508173ffffffffffffffffffffffffffffffffffffffff16610676610511565b73ffffffffffffffffffffffffffffffffffffffff167f38d16b8cac22d99fc7c124b9cd0de2d3fa1faef420bfe791d8c362d765e2270060405160405180910390a35050565b6106d067410d64bfc43ee15d60c01b610704565b6106e46711d89c24b4e834bb60c01b610704565b6106f86709b7cb928269995860c01b610704565b61070181610829565b50565b50565b60007ff0c57e16840df040f15088dc2f81fe391c3923bec73e23a9662efc9c229c6a00905090565b610737610c0b565b61074081610c4b565b50565b7f000000000000000000000000000000000000000000000000000000000000000073ffffffffffffffffffffffffffffffffffffffff163073ffffffffffffffffffffffffffffffffffffffff1614806107f057507f000000000000000000000000000000000000000000000000000000000000000073ffffffffffffffffffffffffffffffffffffffff166107d7610cd1565b73ffffffffffffffffffffffffffffffffffffffff1614155b15610827576040517fe07c8dba00000000000000000000000000000000000000000000000000000000815260040160405180910390fd5b565b61083d67d8f0d29ecacc10eb60c01b610d28565b610845610743565b610859670b539c2173a47a3e60c01b610d28565b61086c66f3676e88c4d29560c01b610d28565b610874610a45565b61088867e5b0075aed42bd5160c01b610d28565b61089c6738edf3b809982c7460c01b610d28565b50565b8173ffffffffffffffffffffffffffffffffffffffff166352d1902d6040518163ffffffff1660e01b8152600401602060405180830381865afa92505050801561090757506040513d601f19601f8201168201806040525081019061090491906112d9565b60015b61094857816040517f4c9c8ce300000000000000000000000000000000000000000000000000000000815260040161093f9190611246565b60405180910390fd5b7f360894a13ba1a3210667c828492db98dca3e2076cc3735a920a3ca505d382bbc60001b81146109af57806040517faa1d49a40000000000000000000000000000000000000000000000000000000081526004016109a69190611235565b60405180910390fd5b6109b98383610d2b565b505050565b7f000000000000000000000000000000000000000000000000000000000000000073ffffffffffffffffffffffffffffffffffffffff163073ffffffffffffffffffffffffffffffffffffffff1614610a43576040517fe07c8dba00000000000000000000000000000000000000000000000000000000815260040160405180910390fd5b565b610a4d610b0c565b73ffffffffffffffffffffffffffffffffffffffff16610a6b610511565b73ffffffffffffffffffffffffffffffffffffffff1614610aca57610a8e610b0c565b6040517f118cdaa7000000000000000000000000000000000000000000000000000000008152600401610ac19190611246565b60405180910390fd5b565b6000610ad6610be3565b90508060000160006101000a81549073ffffffffffffffffffffffffffffffffffffffff0219169055610b0882610d9e565b5050565b600033905090565b60007f9016d09d72d40fdae2fd8ceac6b6234c7706214fd39c1cd1e609a0528c199300905090565b610b5067e0ac6f8267a12b2360c01b610d28565b610b58610c0b565b610b6c67a98a64a67183a89d60c01b610d28565b610b8067f51291f25f6e150960c01b610d28565b610b946717cdabef0ba9179f60c01b610d28565b610ba8674799014289b2c02e60c01b610d28565b610bb13361072f565b610bc567a6aa6b32c4b3a17360c01b610d28565b610bd967254191c608b62dee60c01b610d28565b610be1610e75565b565b60007f237e158222e3e6968b72b9db0d8043aacf074ad9f650f0d1606b4d82ee432c00905090565b610c13610e7f565b610c49576040517fd7e6bcf800000000000000000000000000000000000000000000000000000000815260040160405180910390fd5b565b610c53610c0b565b600073ffffffffffffffffffffffffffffffffffffffff168173ffffffffffffffffffffffffffffffffffffffff1603610cc55760006040517f1e4fbdf7000000000000000000000000000000000000000000000000000000008152600401610cbc9190611246565b60405180910390fd5b610cce81610acc565b50565b6000610cff7f360894a13ba1a3210667c828492db98dca3e2076cc3735a920a3ca505d382bbc60001b610e9f565b60000160009054906101000a900473ffffffffffffffffffffffffffffffffffffffff16905090565b50565b610d3482610ea9565b8173ffffffffffffffffffffffffffffffffffffffff167fbc7cd75a20ee27fd9adebab32041f755214dbc6bffa90cc0225b39da2e5c2d3b60405160405180910390a2600081511115610d9157610d8b8282610f76565b50610d9a565b610d99610ffa565b5b5050565b6000610da8610b14565b905060008160000160009054906101000a900473ffffffffffffffffffffffffffffffffffffffff169050828260000160006101000a81548173ffffffffffffffffffffffffffffffffffffffff021916908373ffffffffffffffffffffffffffffffffffffffff1602179055508273ffffffffffffffffffffffffffffffffffffffff168173ffffffffffffffffffffffffffffffffffffffff167f8be0079c531659141344cd1fd0a4f28419497f9722a3daafe3b4186f6b6457e060405160405180910390a3505050565b610e7d610c0b565b565b6000610e89610707565b60000160089054906101000a900460ff16905090565b6000819050919050565b60008173ffffffffffffffffffffffffffffffffffffffff163b03610f0557806040517f4c9c8ce3000000000000000000000000000000000000000000000000000000008152600401610efc9190611246565b60405180910390fd5b80610f327f360894a13ba1a3210667c828492db98dca3e2076cc3735a920a3ca505d382bbc60001b610e9f565b60000160006101000a81548173ffffffffffffffffffffffffffffffffffffffff021916908373ffffffffffffffffffffffffffffffffffffffff16021790555050565b60606000808473ffffffffffffffffffffffffffffffffffffffff1684604051610fa091906112f5565b600060405180830381855af49150503d8060008114610fdb576040519150601f19603f3d011682016040523d82523d6000602084013e610fe0565b606091505b5091509150610ff0858383611037565b9250505092915050565b6000341115611035576040517fb398979f00000000000000000000000000000000000000000000000000000000815260040160405180910390fd5b565b60608261104c57611047826110c6565b6110be565b60008251148015611074575060008473ffffffffffffffffffffffffffffffffffffffff163b145b156110b657836040517f9996b3150000000000000000000000000000000000000000000000000000000081526004016110ad9190611246565b60405180910390fd5b8190506110bf565b5b9392505050565b6000815111156110d95780518082602001fd5b6040517fd6bda27500000000000000000000000000000000000000000000000000000000815260040160405180910390fd5b60008135905060018060a01b038116811461112557600080fd5b919050565b60006020828403121561113c57600080fd5b6111458261110b565b905092915050565b634e487b7160e01b600052604160045260246000fd5b6000806040838503121561117657600080fd5b61117f8361110b565b9150602083013567ffffffffffffffff81111561119b57600080fd5b808401905084601f8201126111af57600080fd5b803567ffffffffffffffff8111156111ca576111c961114d565b5b604051601f19603f601f19601f8501160116810181811067ffffffffffffffff821117156111fb576111fa61114d565b5b806040525081815286602083850101111561121557600080fd5b816020840160208301376000602083830101528093505050509250929050565b600060208201905082825292915050565b600060208201905060018060a01b038316825292915050565b60005b8381101561127d578082015181840152602081019050611262565b50600083830152505050565b60208152600082518060208401526112a881604085016020870161125f565b6040601f19601f83011684010191505092915050565b600060208201905067ffffffffffffffff8316825292915050565b6000602082840312156112eb57600080fd5b8151905092915050565b6000825161130781846020870161125f565b8083019150509291505056fea164736f6c634300081c000a",
  "linkReferences": {},
  "deployedLinkReferences": {}
}