{
  "_format": "hh-sol-artifact-1",
  "contractName": "PCR0Manager",
  "sourceName": "contracts/utils/PCR0Manager.sol",
  "abi": [
    {
      "inputs": [],
      "stateMutability": "nonpayable",
      "type": "constructor"
    },
    {
      "inputs": [
        {
          "internalType": "address",
          "name": "owner",
          "type": "address"
        }
      ],
      "name": "OwnableInvalidOwner",
      "type": "error"
    },
    {
      "inputs": [
        {
          "internalType": "address",
          "name": "account",
          "type": "address"
        }
      ],
      "name": "OwnableUnauthorizedAccount",
      "type": "error"
    },
    {
      "anonymous": false,
      "inputs": [
        {
          "indexed": true,
          "internalType": "address",
          "name": "previousOwner",
          "type": "address"
        },
        {
          "indexed": true,
          "internalType": "address",
          "name": "newOwner",
          "type": "address"
        }
      ],
      "name": "OwnershipTransferred",
      "type": "event"
    },
    {
      "anonymous": false,
      "inputs": [
        {
          "indexed": true,
          "internalType": "bytes32",
          "name": "key",
          "type": "bytes32"
        }
      ],
      "name": "PCR0Added",
      "type": "event"
    },
    {
      "anonymous": false,
      "inputs": [
        {
          "indexed": true,
          "internalType": "bytes32",
          "name": "key",
          "type": "bytes32"
        }
      ],
      "name": "PCR0Removed",
      "type": "event"
    },
    {
      "inputs": [
        {
          "internalType": "bytes",
          "name": "pcr0",
          "type": "bytes"
        }
      ],
      "name": "addPCR0",
      "outputs": [],
      "stateMutability": "nonpayable",
      "type": "function"
    },
    {
      "inputs": [
        {
          "internalType": "bytes",
          "name": "pcr0",
          "type": "bytes"
        }
      ],
      "name": "isPCR0Set",
      "outputs": [
        {
          "internalType": "bool",
          "name": "exists",
          "type": "bool"
        }
      ],
      "stateMutability": "view",
      "type": "function"
    },
    {
      "inputs": [],
      "name": "owner",
      "outputs": [
        {
          "internalType": "address",
          "name": "",
          "type": "address"
        }
      ],
      "stateMutability": "view",
      "type": "function"
    },
    {
      "inputs": [
        {
          "internalType": "bytes32",
          "name": "",
          "type": "bytes32"
        }
      ],
      "name": "pcr0Mapping",
      "outputs": [
        {
          "internalType": "bool",
          "name": "",
          "type": "bool"
        }
      ],
      "stateMutability": "view",
      "type": "function"
    },
    {
      "inputs": [
        {
          "internalType": "bytes",
          "name": "pcr0",
          "type": "bytes"
        }
      ],
      "name": "removePCR0",
      "outputs": [],
      "stateMutability": "nonpayable",
      "type": "function"
    },
    {
      "inputs": [],
      "name": "renounceOwnership",
      "outputs": [],
      "stateMutability": "nonpayable",
      "type": "function"
    },
    {
      "inputs": [
        {
          "internalType": "address",
          "name": "newOwner",
          "type": "address"
        }
      ],
      "name": "transferOwnership",
      "outputs": [],
      "stateMutability": "nonpayable",
      "type": "function"
    }
  ],
  "bytecode": "0x6080604052348015600f57600080fd5b503380603557604051631e4fbdf760e01b81526000600482015260240160405180910390fd5b603c816041565b506091565b600080546001600160a01b038381166001600160a01b0319831681178455604051919092169283917f8be0079c531659141344cd1fd0a4f28419497f9722a3daafe3b4186f6b6457e09190a35050565b61051b806100a06000396000f3fe608060405234801561001057600080fd5b506004361061007d5760003560e01c80638da5cb5b1161005b5780638da5cb5b146100d75780639c4ab810146100f2578063cea2504514610105578063f2fde38b1461011857600080fd5b80633b4e2523146100825780635e647c96146100aa578063715018a6146100cd575b600080fd5b610095610090366004610412565b61012b565b60405190151581526020015b60405180910390f35b6100956100b8366004610486565b60016020526000908152604090205460ff1681565b6100d561018a565b005b6000546040516001600160a01b0390911681526020016100a1565b6100d5610100366004610412565b61019e565b6100d5610113366004610412565b610280565b6100d561012636600461049f565b610357565b6000603082146101565760405162461bcd60e51b815260040161014d906104cf565b60405180910390fd5b600083836040516101689291906104fe565b604080519182900390912060009081526001602052205460ff16949350505050565b610192610395565b61019c60006103c2565b565b6101a6610395565b603081146101c65760405162461bcd60e51b815260040161014d906104cf565b600082826040516101d89291906104fe565b604080519182900390912060008181526001602052919091205490915060ff16156102385760405162461bcd60e51b815260206004820152601060248201526f1410d48c08185b1c9958591e481cd95d60821b604482015260640161014d565b6000818152600160208190526040808320805460ff19169092179091555182917f1bce6ee18d8bd049771efd8d5f32ef6eccf2f172c66b2e13bea702c7b46b192691a2505050565b610288610395565b603081146102a85760405162461bcd60e51b815260040161014d906104cf565b600082826040516102ba9291906104fe565b604080519182900390912060008181526001602052919091205490915060ff166103155760405162461bcd60e51b815260206004820152600c60248201526b1410d48c081b9bdd081cd95d60a21b604482015260640161014d565b600081815260016020526040808220805460ff191690555182917f40460254c1f301a02d103e067d802cb9005a9c7cc513c8d13da6098ba4c3d41891a2505050565b61035f610395565b6001600160a01b03811661038957604051631e4fbdf760e01b81526000600482015260240161014d565b610392816103c2565b50565b6000546001600160a01b0316331461019c5760405163118cdaa760e01b815233600482015260240161014d565b600080546001600160a01b038381166001600160a01b0319831681178455604051919092169283917f8be0079c531659141344cd1fd0a4f28419497f9722a3daafe3b4186f6b6457e09190a35050565b6000806020838503121561042557600080fd5b823567ffffffffffffffff81111561043c57600080fd5b8301601f8101851361044d57600080fd5b803567ffffffffffffffff81111561046457600080fd5b85602082840101111561047657600080fd5b6020919091019590945092505050565b60006020828403121561049857600080fd5b5035919050565b6000602082840312156104b157600080fd5b81356001600160a01b03811681146104c857600080fd5b9392505050565b60208082526015908201527450435230206d75737420626520343820627974657360581b604082015260600190565b818382376000910190815291905056fea164736f6c634300081c000a",
  "linkReferences": {},
  "deployedLinkReferences": {}
}