{
  "_format": "hh-sol-artifact-1",
  "contractName": "TestFormatter",
  "sourceName": "contracts/tests/testFormatter.sol",
  "abi": [
    {
      "inputs": [],
      "name": "InvalidAsciiCode",
      "type": "error"
    },
    {
      "inputs": [],
      "name": "InvalidDateLength",
      "type": "error"
    },
    {
      "inputs": [
        {
          "internalType": "string",
          "name": "date",
          "type": "string"
        }
      ],
      "name": "testDateToUnixTimestamp",
      "outputs": [
        {
          "internalType": "uint256",
          "name": "",
          "type": "uint256"
        }
      ],
      "stateMutability": "pure",
      "type": "function"
    },
    {
      "inputs": [
        {
          "internalType": "uint256",
          "name": "publicSignal",
          "type": "uint256"
        }
      ],
      "name": "testExtractForbiddenCountriesFromPacked",
      "outputs": [
        {
          "internalType": "string[10]",
          "name": "",
          "type": "string[10]"
        }
      ],
      "stateMutability": "pure",
      "type": "function"
    },
    {
      "inputs": [
        {
          "internalType": "uint256[3]",
          "name": "publicSignals",
          "type": "uint256[3]"
        }
      ],
      "name": "testFieldElementsToBytes",
      "outputs": [
        {
          "internalType": "bytes",
          "name": "",
          "type": "bytes"
        }
      ],
      "stateMutability": "pure",
      "type": "function"
    },
    {
      "inputs": [
        {
          "internalType": "string",
          "name": "date",
          "type": "string"
        }
      ],
      "name": "testFormatDate",
      "outputs": [
        {
          "internalType": "string",
          "name": "",
          "type": "string"
        }
      ],
      "stateMutability": "pure",
      "type": "function"
    },
    {
      "inputs": [
        {
          "internalType": "string",
          "name": "input",
          "type": "string"
        }
      ],
      "name": "testFormatName",
      "outputs": [
        {
          "internalType": "string[]",
          "name": "",
          "type": "string[]"
        }
      ],
      "stateMutability": "pure",
      "type": "function"
    },
    {
      "inputs": [
        {
          "internalType": "uint256",
          "name": "year",
          "type": "uint256"
        }
      ],
      "name": "testIsLeapYear",
      "outputs": [
        {
          "internalType": "bool",
          "name": "",
          "type": "bool"
        }
      ],
      "stateMutability": "pure",
      "type": "function"
    },
    {
      "inputs": [
        {
          "internalType": "uint256",
          "name": "numAscii",
          "type": "uint256"
        }
      ],
      "name": "testNumAsciiToUint",
      "outputs": [
        {
          "internalType": "uint256",
          "name": "",
          "type": "uint256"
        }
      ],
      "stateMutability": "pure",
      "type": "function"
    },
    {
      "inputs": [
        {
          "internalType": "string",
          "name": "value",
          "type": "string"
        }
      ],
      "name": "testParseDatePart",
      "outputs": [
        {
          "internalType": "uint256",
          "name": "",
          "type": "uint256"
        }
      ],
      "stateMutability": "pure",
      "type": "function"
    },
    {
      "inputs": [
        {
          "internalType": "uint256[6]",
          "name": "dateNum",
          "type": "uint256[6]"
        }
      ],
      "name": "testProofDateToUnixTimestamp",
      "outputs": [
        {
          "internalType": "uint256",
          "name": "",
          "type": "uint256"
        }
      ],
      "stateMutability": "pure",
      "type": "function"
    },
    {
      "inputs": [
        {
          "internalType": "string",
          "name": "str",
          "type": "string"
        },
        {
          "internalType": "uint256",
          "name": "startIndex",
          "type": "uint256"
        },
        {
          "internalType": "uint256",
          "name": "endIndex",
          "type": "uint256"
        }
      ],
      "name": "testSubstring",
      "outputs": [
        {
          "internalType": "string",
          "name": "",
          "type": "string"
        }
      ],
      "stateMutability": "pure",
      "type": "function"
    },
    {
      "inputs": [
        {
          "internalType": "uint256",
          "name": "year",
          "type": "uint256"
        },
        {
          "internalType": "uint256",
          "name": "month",
          "type": "uint256"
        },
        {
          "internalType": "uint256",
          "name": "day",
          "type": "uint256"
        }
      ],
      "name": "testToTimestamp",
      "outputs": [
        {
          "internalType": "uint256",
          "name": "",
          "type": "uint256"
        }
      ],
      "stateMutability": "pure",
      "type": "function"
    }
  ],
  "bytecode": "0x6080604052348015600f57600080fd5b5061290f8061001f6000396000f3fe608060405234801561001057600080fd5b50600436106100a95760003560e01c806371cfab571161007157806371cfab571461019e57806382c5b992146101ce57806387dbff92146101fe5780638abc59251461022e578063d491195e1461025e578063f42898c51461028e576100a9565b806310e93133146100ae57806324fd56d9146100de5780635c45a03b1461010e57806365258cd51461013e578063695cf33d1461016e575b600080fd5b6100c860048036038101906100c391906122ed565b6102be565b6040516100d5919061232b565b60405180910390f35b6100f860048036038101906100f3919061233c565b61030c565b604051610105919061232b565b60405180910390f35b6101286004803603810190610123919061235e565b61035a565b604051610135919061232b565b60405180910390f35b610158600480360381019061015391906123d9565b6103a8565b604051610165919061248d565b60405180910390f35b6101886004803603810190610183919061233c565b6103fa565b60405161019591906124a8565b60405180910390f35b6101b860048036038101906101b39190612504565b61044e565b6040516101c5919061232b565b60405180910390f35b6101e860048036038101906101e391906122ed565b6104a0565b6040516101f5919061248d565b60405180910390f35b6102186004803603810190610213919061233c565b6104ee565b6040516102259190612544565b60405180910390f35b610248600480360381019061024391906122ed565b61053c565b604051610255919061232b565b60405180910390f35b61027860048036038101906102739190612557565b61058a565b60405161028591906125d2565b60405180910390f35b6102a860048036038101906102a391906122ed565b6105d8565b6040516102b591906125ed565b60405180910390f35b60006102d4672c1433e70ee13ad060c01b610626565b6102e867b88572de3a11873660c01b610626565b6102fc671006425141ace20060c01b610626565b61030582610629565b9050919050565b600061032267f9c4492fd47de45460c01b610626565b61033667bc55aaabaac1c5db60c01b610626565b61034a67d318e350e9c0490960c01b610626565b61035382610835565b9050919050565b60006103706708be01f3d48127bf60c01b610626565b6103846744f4a525cb60ccf360c01b610626565b6103986735509468a82b14a460c01b610626565b6103a182610969565b9050919050565b60606103be674d046970ee77fa3b60c01b610626565b6103d2670edfdf203d231a9560c01b610626565b6103e6671eba163dd50a001460c01b610626565b6103f1848484610ace565b90509392505050565b6104026121e2565b61041667cda58d477b6bb63260c01b610626565b61042a677f37c653b482f91460c01b610626565b61043e67d461201d73a4c08060c01b610626565b61044782610c8c565b9050919050565b600061046467c41b0038b374c80860c01b610626565b610478678337b211f28bfe9360c01b610626565b61048c67de66c129c28f9cd060c01b610626565b610497848484610e3e565b90509392505050565b60606104b6678736d3920c1c0c5960c01b610626565b6104ca67fb1492ab0e9e65d460c01b610626565b6104de67400860c4ec89c80460c01b610626565b6104e78261142a565b9050919050565b600061050467315c0b11c177029560c01b610626565b61051867bb64f29078d4bedc60c01b610626565b61052c6778ecc2257b2b3a0260c01b610626565b610535826115e0565b9050919050565b600061055267c1c6d0e357ed86ea60c01b610626565b6105666763fc24b4a1e245d960c01b610626565b61057a670501dc8be5f51b9860c01b610626565b610583826117c0565b9050919050565b60606105a0673318b5f05733e82a60c01b610626565b6105b467b84886d9c17ba22560c01b610626565b6105c867820aa78a4233315360c01b610626565b6105d182611982565b9050919050565b60606105ee67f9b93d7f77fc751e60c01b610626565b61060267a6640f8eb8f07b3f60c01b610626565b610616672102a35a09adf66c60c01b610626565b61061f82611c2b565b9050919050565b50565b600061063f67eb5fa529226574af60c01b6121d4565b61065367f6a76270f277d8c560c01b6121d4565b610667676cd4a98e94d7b27760c01b6121d4565b6000829050610680671ea38b7e26ed8aeb60c01b6121d4565b61069467933eeffe9eb4f08660c01b6121d4565b60008151036106e3576106b1672395f37f4c33580a60c01b6121d4565b6106c567bc8b92a639658c2160c01b6121d4565b6106d967bfcd42e022c4781660c01b6121d4565b6000915050610830565b6106f76768fe95d3396e01e060c01b6121d4565b61070b675a97478f3cfef9ab60c01b6121d4565b61071f67b53114cc7e50755260c01b6121d4565b6000610735679ece3c80d0f938c660c01b6121d4565b61074967098b937e72eb1a5b60c01b6121d4565b600061075f67c65f7838f1d64c2060c01b6121d4565b61077367156e15e3c014ef5d60c01b6121d4565b60005b8351811015610800576107936763c9aa2e2da445ac60c01b6121d4565b60308482815181106107a8576107a7612658565b5b602001015160f81c60f81b60f81c60ff166107c39190612684565b92506107d967adf3a83f34d8859860c01b6121d4565b82600a836107e791906126a2565b6107f191906126c4565b91508080600101915050610776565b50610815677c4a361a715f79b760c01b6121d4565b610829675b2c6a4d53628ba460c01b6121d4565b8093505050505b919050565b600061084b673c972566951e3a6b60c01b6121d4565b61085f67a14df49e213782e660c01b6121d4565b6108736795d4b2af9c24315b60c01b6121d4565b60308210801561089357506108926760f64194247e478260c01b6121d7565b5b806108ba57506039821180156108b957506108b867fad36784cb9ec65f60c01b6121d7565b5b5b15610919576108d36774e40db6d5dea70d60c01b6121d4565b6108e7673290d1bb84ba335e60c01b6121d4565b6040517ff1ebec9600000000000000000000000000000000000000000000000000000000815260040160405180910390fd5b61092d67c9328cb038efef3a60c01b6121d4565b6109416775994092733d72a460c01b6121d4565b61095567bfd369c97a9c08cb60c01b6121d4565b6030826109629190612684565b9050919050565b600061097f67ffaecc124d11874260c01b6121d4565b610993679901c432c2a06fe160c01b6121d4565b6109a767cc9174c098ceaff660c01b6121d4565b60006040518060200160405280600081525090506109cf676ec1cd4217efaecd60c01b6121d4565b6109e367253a28b324844a2e60c01b6121d4565b60005b6006811015610a6657610a036794c550979a22800560c01b6121d4565b81600a858360068110610a1957610a18612658565b5b6020020151610a2891906126e2565b6030610a3491906126c4565b60f81b604051602001610a4892919061270a565b604051602081830303815290604052915080806001019150506109e6565b50610a7b67c558f631a772f79460c01b6121d4565b610a8f672f1bb5f8ca0d394a60c01b6121d4565b6000610a9a826117c0565b9050610ab067aa4bd5607740a5e860c01b6121d4565b610ac4676cc8019392460ae660c01b6121d4565b8092505050919050565b6060610ae467c469446f54dfaa2960c01b6121d4565b610af867ee0bcac072269e4860c01b6121d4565b610b0c67da8b96edb113084f60c01b6121d4565b6000849050610b25673d974b8a68aa831560c01b6121d4565b610b3967abe542875d59fdf660c01b6121d4565b60008484610b479190612684565b67ffffffffffffffff811115610b6057610b5f61222d565b5b6040519080825280601f01601f191660200182016040528015610b925781602001600182028036833780820191505090505b509050610ba9671f18c3307bc8b9fb60c01b6121d4565b610bbd67924021671440e20660c01b6121d4565b60008590505b84811015610c5757610bdf67f8bd57fe89b47da760c01b6121d4565b828181518110610bf257610bf1612658565b5b602001015160f81c60f81b828783610c0a9190612684565b81518110610c1b57610c1a612658565b5b60200101907effffffffffffffffffffffffffffffffffffffffffffffffffffffffffffff1916908160001a9053508080600101915050610bc3565b50610c6c670e1eb9ddafe97f9f60c01b6121d4565b610c8067589c706b4988f97960c01b6121d4565b80925050509392505050565b610c946121e2565b610ca8672134c8c012f274c660c01b6121d4565b610cbc67430a57af399a15d860c01b6121d4565b610cd06702642a0c577f17ec60c01b6121d4565b60005b600a811015610e1057610cf0677f05cec5cf0c991760c01b6121d4565b610d046721e7d8d2e6aa1bb860c01b6121d4565b6000600382610d1391906126a2565b9050610d29678d97f1d00a3381ea60c01b6121d4565b610d3d67539d65ed38a49bad60c01b6121d4565b6000600882610d4c91906126a2565b9050610d626709ab05aa61d4eefc60c01b6121d4565b610d7667843b1a958974fd0e60c01b6121d4565b600062ffffff9050610d9267313e62389215f37460c01b6121d4565b610da667e8b671285d63e91e60c01b6121d4565b6000818388901c169050610dc4676e88902dbd1c943f60c01b6121d4565b80604051602001610dd59190612738565b6040516020818303038152906040528686600a8110610df757610df6612658565b5b6020020181905250505050508080600101915050610cd3565b50610e256790559e5362e19c6a60c01b6121d4565b610e396775c164f1fbe93ac560c01b6121d4565b919050565b6000610e5467cc46e6c375b553ef60c01b6121d4565b610e6867f2888a13d7ba1a7260c01b6121d4565b610e7c67bc84877062c88eeb60c01b6121d4565b6000610e926776a033596208246d60c01b6121d4565b610ea667913f6bc322d1f3fb60c01b6121d4565b6107b290505b848161ffff161015610f7f57610ecc6746848d3780efeceb60c01b6121d4565b610ee067cf6e9ca31cc5d1cc60c01b6121d4565b610eed8161ffff166115e0565b15610f3157610f0667801627fb5ee9128f60c01b6121d4565b610f1a672d1bed6c57a9941360c01b6121d4565b6301e2850082610f2a91906126c4565b9150610f6c565b610f4567d2d3dc7b4a30151160c01b6121d4565b610f59677a02b726338c198a60c01b6121d4565b6301e1338082610f6991906126c4565b91505b8080610f7790612754565b915050610eac565b610f936781bf8826581b5a6d60c01b6121d4565b610fa76748399b0f554cd08660c01b6121d4565b610faf61220a565b610fc3671af10570229b5eb660c01b6121d4565b601f816000600c8110610fd957610fd8612658565b5b602002019060ff16908160ff1681525050610ffe67fa090b679608723360c01b6121d4565b61101267dfa12f3421ac78e860c01b6121d4565b61101b866115e0565b1561107457611034671ddaeacb61b1545d60c01b6121d4565b61104867a0de6ae42c7081fc60c01b6121d4565b601d816001600c811061105e5761105d612658565b5b602002019060ff16908160ff16815250506110c4565b61108867a653018fce53d10460c01b6121d4565b61109c67c6f3c9be5a3f209060c01b6121d4565b601c816001600c81106110b2576110b1612658565b5b602002019060ff16908160ff16815250505b6110d86717cf7a58e3c3d85460c01b6121d4565b601f816002600c81106110ee576110ed612658565b5b602002019060ff16908160ff168152505061111367927cd86c322062f260c01b6121d4565b601e816003600c811061112957611128612658565b5b602002019060ff16908160ff168152505061114e67af36a2082331ca7060c01b6121d4565b601f816004600c811061116457611163612658565b5b602002019060ff16908160ff1681525050611189673012834b9ed533ed60c01b6121d4565b601e816005600c811061119f5761119e612658565b5b602002019060ff16908160ff16815250506111c467d090619abcceeb9d60c01b6121d4565b601f816006600c81106111da576111d9612658565b5b602002019060ff16908160ff16815250506111ff67fa1c2c82bac5878160c01b6121d4565b601f816007600c811061121557611214612658565b5b602002019060ff16908160ff168152505061123a671cbfb0afa94210b860c01b6121d4565b601e816008600c81106112505761124f612658565b5b602002019060ff16908160ff1681525050611275679431a2cf456e2dbd60c01b6121d4565b601f816009600c811061128b5761128a612658565b5b602002019060ff16908160ff16815250506112b067de220b188fa61f8b60c01b6121d4565b601e81600a600c81106112c6576112c5612658565b5b602002019060ff16908160ff16815250506112eb67e302952a3e31ea0860c01b6121d4565b601f81600b600c811061130157611300612658565b5b602002019060ff16908160ff1681525050611326677cf2e81bc15427f060c01b6121d4565b61133a67489d480656515e9d60c01b6121d4565b600191505b848261ffff1610156113bd5761135f672951dd256aa4a83860c01b6121d4565b62015180816001846113719190612779565b61ffff16600c811061138657611385612658565b5b602002015160ff1661139891906127a1565b62ffffff16836113a891906126c4565b925081806113b590612754565b92505061133f565b6113d16758624e4496e6646e60c01b6121d4565b620151806001856113e29190612684565b6113ec91906126a2565b836113f791906126c4565b925061140d675c6798fa7cacbd2560c01b6121d4565b61142167658098ec8670b90e60c01b6121d4565b50509392505050565b606061144067437d9d470d9eb97060c01b6121d4565b61145467c21aba8a96950b3460c01b6121d4565b61146867d2df5956a51dd69460c01b6121d4565b60068251146114cb57611485674cd666bcf384e35f60c01b6121d4565b61149967b9704398292310e160c01b6121d4565b6040517fb337595300000000000000000000000000000000000000000000000000000000815260040160405180910390fd5b6114df67393aa17e1463b65360c01b6121d4565b6114f367f787807dd9d9fa6b60c01b6121d4565b61150767a8e8b623a488a23260c01b6121d4565b60006115168360006002610ace565b905061152c678c3b4b52c2e8806060c01b6121d4565b61154067d269a5d603bdeb9360c01b6121d4565b600061154f8460026004610ace565b9050611565675ff241e8b9639f4b60c01b6121d4565b61157967e080d8914e234eb960c01b6121d4565b60006115888560046006610ace565b905061159e67fa33a1643fcff57260c01b6121d4565b6115b267ef33ffaa1377968b60c01b6121d4565b8082846040516020016115c7939291906127cf565b6040516020818303038152906040529350505050919050565b60006115f6674b68b6f03c63e84060c01b6121d4565b61160a67a895a0223f1c650f60c01b6121d4565b61161e67f88e8721902485b860c01b6121d4565b600060048361162d91906126e2565b14611677576116466796ecdc261eeb9e3a60c01b6121d4565b61165a67fa9dcd23a223f2c160c01b6121d4565b61166e67f9e0ce68e1c4f70860c01b6121d4565b600090506117bb565b61168b6719631b9d4647558c60c01b6121d4565b61169f67649d4d927f6fa89760c01b6121d4565b60006064836116ae91906126e2565b146116f8576116c767b53325897fe9696f60c01b6121d4565b6116db6723f5d2a1282e177860c01b6121d4565b6116ef670573950c9cdc9e2260c01b6121d4565b600190506117bb565b61170c673b20b8c3b36f225860c01b6121d4565b6117206773fc66e9c24d74a760c01b6121d4565b60006101908361173091906126e2565b1461177a57611749674e10d003807fb74160c01b6121d4565b61175d67a442204c2da7b11a60c01b6121d4565b611771676c791d4310f09c8f60c01b6121d4565b600090506117bb565b61178e67ac1c75e4793c565660c01b6121d4565b6117a267c0ad33d9db07dcdd60c01b6121d4565b6117b66729df8aef8cb6e34b60c01b6121d4565b600190505b919050565b60006117d667b5f0611ff68b7eac60c01b6121d4565b6117ea6708ebc61f7cdb7e5760c01b6121d4565b6117fe6779c40c4e073999fd60c01b6121d4565b60068251146118615761181b6762192f23964986cd60c01b6121d4565b61182f6760a39969f38150a260c01b6121d4565b6040517fb337595300000000000000000000000000000000000000000000000000000000815260040160405180910390fd5b61187567924ffdbab976a0b060c01b6121d4565b611889677eeff8f68e3611f560c01b6121d4565b61189d6763478c56897407ca60c01b6121d4565b60006107d06118b76118b28560006002610ace565b610629565b6118c191906126c4565b90506118d767fee22076ccb9c4d760c01b6121d4565b6118eb677c20e47ab4c9a10760c01b6121d4565b60006119026118fd8560026004610ace565b610629565b90506119186708f1676d8ebf27fb60c01b6121d4565b61192c6780b450c079a45ec460c01b6121d4565b600061194361193e8660046006610ace565b610629565b905061195967544bf250e85d101960c01b6121d4565b61196d67037a3c1489bf3f3260c01b6121d4565b611978838383610e3e565b9350505050919050565b6060611998671293b8457941275160c01b6121d4565b6119ac67b1ddc5f1318babf160c01b6121d4565b6119c067ee147972ab49172360c01b6121d4565b60006040518060600160405280601f60ff168152602001601f60ff168152602001601d60ff1681525090506119ff67307c0486c92a19e260c01b6121d4565b611a13675628e1728d1520d260c01b6121d4565b6000605b67ffffffffffffffff811115611a3057611a2f61222d565b5b6040519080825280601f01601f191660200182016040528015611a625781602001600182028036833780820191505090505b509050611a796772e80fb9143b838760c01b6121d4565b611a8d6777d0205b6ac120e760c01b6121d4565b6000611aa3673fbf51b55c0b344060c01b6121d4565b611ab76732ca9f5680a1d6a660c01b6121d4565b60005b6003811015611bf757611ad76766fcdcd0acc097d360c01b6121d4565b611aeb67c028d68299e69dcb60c01b6121d4565b6000868260038110611b0057611aff612658565b5b60200201519050611b1b675a0e2881fee2747560c01b6121d4565b611b2f67316df5662946248e60c01b6121d4565b60005b858360038110611b4557611b44612658565b5b602002015160ff168160ff161015611be857611b6b67765aa0cbedc6416560c01b6121d4565b60ff821660f81b858580611b7e9061286f565b965081518110611b9157611b90612658565b5b60200101907effffffffffffffffffffffffffffffffffffffffffffffffffffffffffffff1916908160001a905350611bd4674abb0dcb2a71063a60c01b6121d4565b600882901c91508080600101915050611b32565b50508080600101915050611aba565b50611c0c67a8ab557a841ec6cd60c01b6121d4565b611c20671e27182000c7899e60c01b6121d4565b819350505050919050565b6060611c41675ad13b61d906ef6e60c01b6121d4565b611c5567b7b2905bf4e2996e60c01b6121d4565b611c696745fa75c9dcf64e2f60c01b6121d4565b6000829050611c8267ce6224aa2e4a7c8f60c01b6121d4565b611c9667d4f4a7928de354f260c01b6121d4565b6060611cac67cc7346c77637fd5360c01b6121d4565b611cc0679e64637ce805f02560c01b6121d4565b6060611cd667ccc261b337e9ce6c60c01b6121d4565b611cea67f328a53b55bafe0e60c01b6121d4565b6000600267ffffffffffffffff811115611d0757611d0661222d565b5b604051908082528060200260200182016040528015611d3a57816020015b6060815260200190600190039081611d255790505b509050611d51679a4cf17653154ff460c01b6121d4565b611d65670750c674a23fe51860c01b6121d4565b6000611d7b67acb1bad8a90611e860c01b6121d4565b611d8f6724f5e4f6feb205aa60c01b6121d4565b5b845181108015611dff57507f3c00000000000000000000000000000000000000000000000000000000000000858281518110611dcf57611dce612658565b5b602001015160f81c60f81b7effffffffffffffffffffffffffffffffffffffffffffffffffffffffffffff191614155b15611e8057611e1867a26cbafff05ba90260c01b6121d4565b82858281518110611e2c57611e2b612658565b5b602001015160f81c60f81b604051602001611e4892919061288d565b6040516020818303038152906040529250611e6d677f9667f0c47b715660c01b6121d4565b8080611e789061286f565b915050611d90565b611e9467fcc00a7b68eb195d60c01b6121d4565b600281611ea191906126c4565b9050611eb7675aa72b5101bf018f60c01b6121d4565b611ecb67a1e0ef0c7da17d6160c01b6121d4565b5b845181101561213757611ee96753f832b4b389ec9460c01b6121d4565b611efd6751cef83e29f72b9960c01b6121d4565b7f3c00000000000000000000000000000000000000000000000000000000000000858281518110611f3157611f30612658565b5b602001015160f81c60f81b7effffffffffffffffffffffffffffffffffffffffffffffffffffffffffffff1916036120a657611f77673240e82b1845d22360c01b6121d4565b611f8b672ee878dc4e64bcd560c01b6121d4565b611f9f6724c4ea9c1ab7759060c01b6121d4565b8451600182611fae91906126c4565b10801561202557507f3c0000000000000000000000000000000000000000000000000000000000000085600183611fe591906126c4565b81518110611ff657611ff5612658565b5b602001015160f81c60f81b7effffffffffffffffffffffffffffffffffffffffffffffffffffffffffffff1916145b156120575761203e67f2ab5800afc6174060c01b6121d4565b612052676b7161afb83b4e6460c01b6121d4565b612137565b61206b67f9e57b9ff30f97ac60c01b6121d4565b61207f67246162538295fa4d60c01b6121d4565b8360405160200161209091906128bb565b6040516020818303038152906040529350612110565b6120ba6763e2550b333b575460c01b6121d4565b6120ce67b2aacd69a879e65d60c01b6121d4565b838582815181106120e2576120e1612658565b5b602001015160f81c60f81b6040516020016120fe92919061288d565b60405160208183030381529060405293505b61212467c0df0bbcd082795f60c01b6121d4565b808061212f9061286f565b915050611ecc565b61214b6759f77b9a7d38625160c01b6121d4565b83826000815181106121605761215f612658565b5b602002602001018190525061217f67deae9e25cc98fdb760c01b6121d4565b828260018151811061219457612193612658565b5b60200260200101819052506121b367941fa338c0a194a460c01b6121d4565b6121c7677b82f6c4faff1e1c60c01b6121d4565b8195505050505050919050565b50565b600060019050919050565b604051806101400160405280600a905b60608152602001906001900390816121f25790505090565b604051806101800160405280600c90602082028036833780820191505090505090565b634e487b7160e01b600052604160045260246000fd5b60006040519050601f19601f830116810181811067ffffffffffffffff821117156122715761227061222d565b5b8060405250919050565b600082601f83011261228c57600080fd5b813567ffffffffffffffff8111156122a7576122a661222d565b5b6122ba6020601f19601f84011601612243565b8181528460208386010111156122cf57600080fd5b81602085016020830137600060208383010152809250505092915050565b6000602082840312156122ff57600080fd5b813567ffffffffffffffff81111561231657600080fd5b6123228482850161227b565b91505092915050565b600060208201905082825292915050565b60006020828403121561234e57600080fd5b6000823590508091505092915050565b600060c0828403121561237057600080fd5b600083601f840112612380578081fd5b808160c090505061239160c0612243565b905080915060c08401858111156123a757600080fd5b845b818110156123cc57600081359050808552506020840193506020810190506123a9565b5050809250505092915050565b6000806000606084860312156123ee57600080fd5b833567ffffffffffffffff81111561240557600080fd5b6124118682870161227b565b93505060006020850135905080925050600060408501359050809150509250925092565b60005b83811015612453578082015181840152602081019050612438565b50600083830152505050565b60008151808452612477816020860160208601612435565b6020601f19601f83011685010191505092915050565b6020815260006124a0602083018461245f565b905092915050565b6000602082016020835280819050610160840191508460005b600a8110156124f757601f198685030183526124de84835161245f565b93506020820191506020830192506001810190506124c1565b5050508091505092915050565b60008060006060848603121561251957600080fd5b6000843590508093505060006020850135905080925050600060408501359050809150509250925092565b6000602082019050821515825292915050565b60006060828403121561256957600080fd5b600083601f840112612579578081fd5b8081606090505061258a6060612243565b905080915060608401858111156125a057600080fd5b845b818110156125c557600081359050808552506020840193506020810190506125a2565b5050809250505092915050565b6020815260006125e5602083018461245f565b905092915050565b6000602082016020835280845180835260408501915060408160051b86010192506020860160005b8281101561264a57603f1987860301845261263185835161245f565b9450602082019150602084019350600181019050612615565b505050508091505092915050565b634e487b7160e01b600052603260045260246000fd5b634e487b7160e01b600052601160045260246000fd5b600082820390508181111561269c5761269b61266e565b5b92915050565b6000828202905081810483148215176126be576126bd61266e565b5b92915050565b60008282019050808211156126dc576126db61266e565b5b92915050565b6000826126ff57634e487b7160e01b600052601260045260246000fd5b828206905092915050565b6000835161271c818460208801612435565b808301905060ff60f81b84168152600181019150509392505050565b62ffffff60e81b8260e81b168152600060038201905092915050565b600061ffff821661ffff810361276d5761276c61266e565b5b60018101915050919050565b600061ffff831661ffff831603905061ffff81111561279b5761279a61266e565b5b92915050565b600062ffffff831662ffffff83160262ffffff811691508082146127c8576127c761266e565b5b5092915050565b600084516127e1818460208901612435565b80830190507f2d000000000000000000000000000000000000000000000000000000000000008152845161281c816001840160208901612435565b8082019150507f2d000000000000000000000000000000000000000000000000000000000000006001820152835161285b816002840160208801612435565b600180828401010192505050949350505050565b6000801982036128825761288161266e565b5b600182019050919050565b6000835161289f818460208801612435565b808301905060ff60f81b84168152600181019150509392505050565b600082516128cd818460208701612435565b80830190507f20000000000000000000000000000000000000000000000000000000000000008152600181019150509291505056fea164736f6c634300081c000a",
  "linkReferences": {},
  "deployedLinkReferences": {}
}