{
  "_format": "hh-sol-artifact-1",
  "contractName": "TestFormatter",
  "sourceName": "contracts/tests/testFormatter.sol",
  "abi": [
    {
      "inputs": [],
      "name": "InvalidAsciiCode",
      "type": "error"
    },
    {
      "inputs": [],
      "name": "InvalidDateDigit",
      "type": "error"
    },
    {
      "inputs": [],
      "name": "InvalidDateLength",
      "type": "error"
    },
    {
      "inputs": [],
      "name": "InvalidDayRange",
      "type": "error"
    },
    {
      "inputs": [],
      "name": "InvalidFieldElement",
      "type": "error"
    },
    {
      "inputs": [],
      "name": "InvalidMonthRange",
      "type": "error"
    },
    {
      "inputs": [],
      "name": "InvalidYearRange",
      "type": "error"
    },
    {
      "inputs": [
        {
          "internalType": "string",
          "name": "date",
          "type": "string"
        }
      ],
      "name": "testDateToUnixTimestamp",
      "outputs": [
        {
          "internalType": "uint256",
          "name": "",
          "type": "uint256"
        }
      ],
      "stateMutability": "pure",
      "type": "function"
    },
    {
      "inputs": [
        {
          "internalType": "uint256[4]",
          "name": "publicSignals",
          "type": "uint256[4]"
        }
      ],
      "name": "testExtractForbiddenCountriesFromPacked",
      "outputs": [
        {
          "internalType": "string[40]",
          "name": "",
          "type": "string[40]"
        }
      ],
      "stateMutability": "pure",
      "type": "function"
    },
    {
      "inputs": [
        {
          "internalType": "uint256[3]",
          "name": "publicSignals",
          "type": "uint256[3]"
        }
      ],
      "name": "testFieldElementsToBytes",
      "outputs": [
        {
          "internalType": "bytes",
          "name": "",
          "type": "bytes"
        }
      ],
      "stateMutability": "pure",
      "type": "function"
    },
    {
      "inputs": [
        {
          "internalType": "string",
          "name": "date",
          "type": "string"
        }
      ],
      "name": "testFormatDate",
      "outputs": [
        {
          "internalType": "string",
          "name": "",
          "type": "string"
        }
      ],
      "stateMutability": "pure",
      "type": "function"
    },
    {
      "inputs": [
        {
          "internalType": "string",
          "name": "input",
          "type": "string"
        }
      ],
      "name": "testFormatName",
      "outputs": [
        {
          "internalType": "string[]",
          "name": "",
          "type": "string[]"
        }
      ],
      "stateMutability": "pure",
      "type": "function"
    },
    {
      "inputs": [
        {
          "internalType": "uint256",
          "name": "year",
          "type": "uint256"
        }
      ],
      "name": "testIsLeapYear",
      "outputs": [
        {
          "internalType": "bool",
          "name": "",
          "type": "bool"
        }
      ],
      "stateMutability": "pure",
      "type": "function"
    },
    {
      "inputs": [
        {
          "internalType": "uint256",
          "name": "numAscii",
          "type": "uint256"
        }
      ],
      "name": "testNumAsciiToUint",
      "outputs": [
        {
          "internalType": "uint256",
          "name": "",
          "type": "uint256"
        }
      ],
      "stateMutability": "pure",
      "type": "function"
    },
    {
      "inputs": [
        {
          "internalType": "string",
          "name": "value",
          "type": "string"
        }
      ],
      "name": "testParseDatePart",
      "outputs": [
        {
          "internalType": "uint256",
          "name": "",
          "type": "uint256"
        }
      ],
      "stateMutability": "pure",
      "type": "function"
    },
    {
      "inputs": [
        {
          "internalType": "uint256[6]",
          "name": "dateNum",
          "type": "uint256[6]"
        }
      ],
      "name": "testProofDateToUnixTimestamp",
      "outputs": [
        {
          "internalType": "uint256",
          "name": "",
          "type": "uint256"
        }
      ],
      "stateMutability": "pure",
      "type": "function"
    },
    {
      "inputs": [
        {
          "internalType": "string",
          "name": "str",
          "type": "string"
        },
        {
          "internalType": "uint256",
          "name": "startIndex",
          "type": "uint256"
        },
        {
          "internalType": "uint256",
          "name": "endIndex",
          "type": "uint256"
        }
      ],
      "name": "testSubstring",
      "outputs": [
        {
          "internalType": "string",
          "name": "",
          "type": "string"
        }
      ],
      "stateMutability": "pure",
      "type": "function"
    },
    {
      "inputs": [
        {
          "internalType": "uint256",
          "name": "year",
          "type": "uint256"
        },
        {
          "internalType": "uint256",
          "name": "month",
          "type": "uint256"
        },
        {
          "internalType": "uint256",
          "name": "day",
          "type": "uint256"
        }
      ],
      "name": "testToTimestamp",
      "outputs": [
        {
          "internalType": "uint256",
          "name": "",
          "type": "uint256"
        }
      ],
      "stateMutability": "pure",
      "type": "function"
    }
  ],
  "bytecode": "0x6080604052348015600f57600080fd5b506117fc8061001f6000396000f3fe608060405234801561001057600080fd5b50600436106100a95760003560e01c806382c5b9921161007157806382c5b9921461012d57806387dbff92146101405780638abc592514610163578063cf0d1b5214610176578063d491195e14610196578063f42898c5146101a957600080fd5b806310e93133146100ae57806324fd56d9146100d45780635c45a03b146100e757806365258cd5146100fa57806371cfab571461011a575b600080fd5b6100c16100bc36600461132a565b6101c9565b6040519081526020015b60405180910390f35b6100c16100e236600461135f565b6101da565b6100c16100f5366004611378565b6101e5565b61010d6101083660046113e0565b6101f0565b6040516100cb919061147e565b6100c1610128366004611498565b610205565b61010d61013b36600461132a565b610212565b61015361014e36600461135f565b61021d565b60405190151581526020016100cb565b6100c161017136600461132a565b610228565b6101896101843660046114c4565b610233565b6040516100cb9190611507565b61010d6101a4366004611557565b610244565b6101bc6101b736600461132a565b61024f565b6040516100cb919061159a565b60006101d48261025a565b92915050565b60006101d482610332565b60006101d48261036c565b60606101fd84848461043d565b949350505050565b60006101fd848484610500565b60606101d482610716565b60006101d482610971565b60006101d4826109f3565b61023b61122c565b6101d482610c44565b60606101d482610ebd565b60606101d482611016565b8051600090829082036102705750600092915050565b60008060005b8351811015610329576030848281518110610293576102936115ff565b016020015160f81c10806102c0575060398482815181106102b6576102b66115ff565b016020015160f81c115b156102de576040516378f5f64b60e11b815260040160405180910390fd5b60308482815181106102f2576102f26115ff565b0160200151610304919060f81c61162b565b60ff1692508261031583600a611644565b61031f919061165b565b9150600101610276565b50949350505050565b600060308210806103435750603982115b15610361576040516378f5f64b60e11b815260040160405180910390fd5b6101d460308361166e565b6000805b60068110156103b957600983826006811061038d5761038d6115ff565b602002015111156103b1576040516305ebe05560e21b815260040160405180910390fd5b600101610370565b50604080516020810190915260008082525b60068110156104315781600a8583600681106103e9576103e96115ff565b60200201516103f89190611681565b61040390603061165b565b60f81b6040516020016104179291906116a3565b60408051601f1981840301815291905291506001016103cb565b5060006101fd826109f3565b606083600061044c858561166e565b67ffffffffffffffff81111561046457610464611273565b6040519080825280601f01601f19166020018201604052801561048e576020820181803683370190505b509050845b848110156104f6578281815181106104ad576104ad6115ff565b01602001516001600160f81b031916826104c7888461166e565b815181106104d7576104d76115ff565b60200101906001600160f81b031916908160001a905350600101610493565b5095945050505050565b6000806107b2851080610514575061083485115b15610532576040516305bd032560e21b815260040160405180910390fd5b60018410806105415750600c84115b1561055f576040516304bcc4f160e31b815260040160405180910390fd5b506107b25b848161ffff1610156105ba5761057d8161ffff16610971565b15610597576105906301e285008361165b565b91506105a8565b6105a56301e133808361165b565b91505b806105b2816116d2565b915050610564565b6105c2611254565b601f81526105cf86610971565b156105e057601d60208201526105e8565b601c60208201525b601f60408201819052601e606083018190526080830182905260a0830181905260c0830182905260e0830182905261010083018190526101208301829052610140830152610160820152600184108061066357508061064860018761166e565b600c8110610658576106586115ff565b602002015160ff1684115b1561068157604051638930acef60e01b815260040160405180910390fd5b600191505b848261ffff1610156106ea578061069e6001846116f3565b61ffff16600c81106106b2576106b26115ff565b60200201516106c79060ff166201518061170d565b6106d69062ffffff168461165b565b9250816106e2816116d2565b925050610686565b6106f560018561166e565b6107029062015180611644565b61070c908461165b565b9695505050505050565b8051606090829060061461073d5760405163b337595360e01b815260040160405180910390fd5b603160f81b81600281518110610755576107556115ff565b01602001516001600160f81b03191611806107c457508060028151811061077e5761077e6115ff565b6020910101516001600160f81b031916603160f81b1480156107c45750601960f91b816003815181106107b3576107b36115ff565b01602001516001600160f81b031916115b156107e2576040516304bcc4f160e31b815260040160405180910390fd5b603360f81b816004815181106107fa576107fa6115ff565b01602001516001600160f81b0319161180610869575080600481518110610823576108236115ff565b6020910101516001600160f81b031916603360f81b1480156108695750603160f81b81600581518110610858576108586115ff565b01602001516001600160f81b031916115b1561088757604051638930acef60e01b815260040160405180910390fd5b60005b600681101561090e57600360fc1b8282815181106108aa576108aa6115ff565b01602001516001600160f81b03191610806108e85750603960f81b8282815181106108d7576108d76115ff565b01602001516001600160f81b031916115b15610906576040516378f5f64b60e11b815260040160405180910390fd5b60010161088a565b50600061091e846000600261043d565b9050600061092f856002600461043d565b90506000610940866004600661043d565b905080828460405160200161095793929190611732565b604051602081830303815290604052945050505050919050565b60006107b2821080610984575061083482115b156109a2576040516305bd032560e21b815260040160405180910390fd5b6109ad600483611681565b156109ba57506000919050565b6109c5606483611681565b156109d257506001919050565b6109de61019083611681565b156109eb57506000919050565b506001919050565b80516000908290600614610a1a5760405163b337595360e01b815260040160405180910390fd5b603160f81b81600281518110610a3257610a326115ff565b01602001516001600160f81b0319161180610aa1575080600281518110610a5b57610a5b6115ff565b6020910101516001600160f81b031916603160f81b148015610aa15750601960f91b81600381518110610a9057610a906115ff565b01602001516001600160f81b031916115b15610abf576040516304bcc4f160e31b815260040160405180910390fd5b603360f81b81600481518110610ad757610ad76115ff565b01602001516001600160f81b0319161180610b46575080600481518110610b0057610b006115ff565b6020910101516001600160f81b031916603360f81b148015610b465750603160f81b81600581518110610b3557610b356115ff565b01602001516001600160f81b031916115b15610b6457604051638930acef60e01b815260040160405180910390fd5b60005b6006811015610beb57600360fc1b828281518110610b8757610b876115ff565b01602001516001600160f81b0319161080610bc55750603960f81b828281518110610bb457610bb46115ff565b01602001516001600160f81b031916115b15610be3576040516378f5f64b60e11b815260040160405180910390fd5b600101610b67565b506000610c03610bfe856000600261043d565b61025a565b610c0f906107d061165b565b90506000610c23610bfe866002600461043d565b90506000610c37610bfe876004600661043d565b905061070c838383610500565b610c4c61122c565b60005b6004811015610ca4576000805160206117d0833981519152838260048110610c7957610c796115ff565b602002015110610c9c57604051633ae4ed6b60e01b815260040160405180910390fd5b600101610c4f565b5060005b6028811015610eb7576000610cbe826003611644565b90506020610ccd82600261165b565b1015610d39576000610ce0826008611644565b855160405190821c60e881901b6001600160e81b031916602083015291925062ffffff91821690602301604051602081830303815290604052868660288110610d2b57610d2b6115ff565b602002015250610eae915050565b6020811015610e2c576000610d4f82602061166e565b90506000610d5e82600361166e565b90506000610d6d846008611644565b905060006001610d7e856008611644565b6001901b610d8c919061166e565b8851909150821c81166000806001610da5876008611644565b6001901b610db3919061166e565b60208c0151909150821c8116600084610dcd8a6008611644565b83901b17905080604051602001610df7919060e89190911b6001600160e81b031916815260030190565b6040516020818303038152906040528c8c60288110610e1857610e186115ff565b602002015250610eae975050505050505050565b6000610e3960208361166e565b90506000610e48826008611644565b905062ffffff600081838960016020020151901c16905080604051602001610e83919060e89190911b6001600160e81b031916815260030190565b604051602081830303815290604052878760288110610ea457610ea46115ff565b6020020152505050505b50600101610ca8565b50919050565b80516060906000805160206117d0833981519152111580610ef0575060208201516000805160206117d083398151915211155b80610f0d575060408201516000805160206117d083398151915211155b15610f2b57604051633ae4ed6b60e01b815260040160405180910390fd5b60408051606081018252601f80825260208201819052818301528151605d808252608082019093529091600091906020820181803683370190505090506000805b600381101561100c576000868260038110610f8957610f896115ff565b6020020151905060005b858360038110610fa557610fa56115ff565b602002015160ff168160ff161015611002578160ff1660f81b858580610fca90611791565b965081518110610fdc57610fdc6115ff565b60200101906001600160f81b031916908160001a90535060089190911c90600101610f93565b5050600101610f6c565b5090949350505050565b6040805160028082526060828101909352839183918291600091816020015b606081526020019060019003908161103557905050905060005b845181108015611084575084818151811061106c5761106c6115ff565b6020910101516001600160f81b031916600f60fa1b14155b156110dc578285828151811061109c5761109c6115ff565b602001015160f81c60f81b6040516020016110b89291906116a3565b604051602081830303815290604052925080806110d490611791565b91505061104f565b6110e760028261165b565b90505b84518110156111e457848181518110611105576111056115ff565b01602001516001600160f81b031916600f60fa1b0361119157845161112b82600161165b565b10801561116657508461113f82600161165b565b8151811061114f5761114f6115ff565b6020910101516001600160f81b031916600f60fa1b145b6111e4578360405160200161117b91906117aa565b60405160208183030381529060405293506111d2565b838582815181106111a4576111a46115ff565b602001015160f81c60f81b6040516020016111c09291906116a3565b60405160208183030381529060405293505b806111dc81611791565b9150506110ea565b83826000815181106111f8576111f86115ff565b60200260200101819052508282600181518110611217576112176115ff565b60209081029190910101525095945050505050565b6040518061050001604052806028905b606081526020019060019003908161123c5790505090565b604051806101800160405280600c906020820280368337509192915050565b634e487b7160e01b600052604160045260246000fd5b604051601f8201601f1916810167ffffffffffffffff811182821017156112b2576112b2611273565b604052919050565b600082601f8301126112cb57600080fd5b813567ffffffffffffffff8111156112e5576112e5611273565b6112f8601f8201601f1916602001611289565b81815284602083860101111561130d57600080fd5b816020850160208301376000918101602001919091529392505050565b60006020828403121561133c57600080fd5b813567ffffffffffffffff81111561135357600080fd5b6101fd848285016112ba565b60006020828403121561137157600080fd5b5035919050565b600060c0828403121561138a57600080fd5b600083601f84011261139a578081fd5b806113a560c0611289565b905080915060c08401858111156113bb57600080fd5b845b818110156113d55780358452602093840193016113bd565b509095945050505050565b6000806000606084860312156113f557600080fd5b833567ffffffffffffffff81111561140c57600080fd5b611418868287016112ba565b9660208601359650604090950135949350505050565b60005b83811015611449578181015183820152602001611431565b50506000910152565b6000815180845261146a81602086016020860161142e565b601f01601f19169290920160200192915050565b6020815260006114916020830184611452565b9392505050565b6000806000606084860312156114ad57600080fd5b505081359360208301359350604090920135919050565b6000608082840312156114d657600080fd5b600083601f8401126114e6578081fd5b806114f16080611289565b905080915060808401858111156113bb57600080fd5b6020808252600090610520830190830184835b602881101561154c57601f19868503018352611537848351611452565b9350602092830192919091019060010161151a565b509195945050505050565b60006060828403121561156957600080fd5b600083601f840112611579578081fd5b806115846060611289565b905080915060608401858111156113bb57600080fd5b6000602082016020835280845180835260408501915060408160051b86010192506020860160005b828110156115f357603f198786030184526115de858351611452565b945060209384019391909101906001016115c2565b50929695505050505050565b634e487b7160e01b600052603260045260246000fd5b634e487b7160e01b600052601160045260246000fd5b60ff82811682821603908111156101d4576101d4611615565b80820281158282048414176101d4576101d4611615565b808201808211156101d4576101d4611615565b818103818111156101d4576101d4611615565b60008261169e57634e487b7160e01b600052601260045260246000fd5b500690565b600083516116b581846020880161142e565b6001600160f81b0319939093169190920190815260010192915050565b600061ffff821661ffff81036116ea576116ea611615565b60010192915050565b61ffff82811682821603908111156101d4576101d4611615565b62ffffff818116838216029081169081811461172b5761172b611615565b5092915050565b6000845161174481846020890161142e565b602d60f81b908301908152845161176281600184016020890161142e565b602d60f81b60019290910191820152835161178481600284016020880161142e565b0160020195945050505050565b6000600182016117a3576117a3611615565b5060010190565b600082516117bc81846020870161142e565b600160fd1b92019182525060010191905056fe30644e72e131a029b85045b68181585d2833e84879b9709143e1f593f0000001a164736f6c634300081c000a",
  "linkReferences": {},
  "deployedLinkReferences": {}
}