{
  "_format": "hh-sol-artifact-1",
  "contractName": "TestCircuitAttributeHandler",
  "sourceName": "contracts/tests/testCircuitAttributeHandler.sol",
  "abi": [
    {
      "inputs": [],
      "name": "INSUFFICIENT_CHARCODE_LEN",
      "type": "error"
    },
    {
      "inputs": [],
      "name": "InvalidAsciiCode",
      "type": "error"
    },
    {
      "inputs": [],
      "name": "InvalidDateLength",
      "type": "error"
    },
    {
      "inputs": [],
      "name": "InvalidDayRange",
      "type": "error"
    },
    {
      "inputs": [],
      "name": "InvalidMonthRange",
      "type": "error"
    },
    {
      "inputs": [
        {
          "internalType": "bytes",
          "name": "charcodes",
          "type": "bytes"
        },
        {
          "internalType": "bool",
          "name": "checkPassportNo",
          "type": "bool"
        },
        {
          "internalType": "bool",
          "name": "checkNameAndDob",
          "type": "bool"
        },
        {
          "internalType": "bool",
          "name": "checkNameAndYob",
          "type": "bool"
        }
      ],
      "name": "testCompareOfac",
      "outputs": [
        {
          "internalType": "bool",
          "name": "",
          "type": "bool"
        }
      ],
      "stateMutability": "pure",
      "type": "function"
    },
    {
      "inputs": [
        {
          "internalType": "bytes",
          "name": "charcodes",
          "type": "bytes"
        },
        {
          "internalType": "uint256",
          "name": "olderThan",
          "type": "uint256"
        }
      ],
      "name": "testCompareOlderThan",
      "outputs": [
        {
          "internalType": "bool",
          "name": "",
          "type": "bool"
        }
      ],
      "stateMutability": "pure",
      "type": "function"
    },
    {
      "inputs": [
        {
          "internalType": "bytes",
          "name": "charcodes",
          "type": "bytes"
        },
        {
          "internalType": "uint256",
          "name": "start",
          "type": "uint256"
        },
        {
          "internalType": "uint256",
          "name": "end",
          "type": "uint256"
        }
      ],
      "name": "testExtractStringAttribute",
      "outputs": [
        {
          "internalType": "string",
          "name": "",
          "type": "string"
        }
      ],
      "stateMutability": "pure",
      "type": "function"
    },
    {
      "inputs": [
        {
          "internalType": "bytes",
          "name": "charcodes",
          "type": "bytes"
        }
      ],
      "name": "testGetDateOfBirth",
      "outputs": [
        {
          "internalType": "string",
          "name": "",
          "type": "string"
        }
      ],
      "stateMutability": "pure",
      "type": "function"
    },
    {
      "inputs": [
        {
          "internalType": "bytes",
          "name": "charcodes",
          "type": "bytes"
        }
      ],
      "name": "testGetExpiryDate",
      "outputs": [
        {
          "internalType": "string",
          "name": "",
          "type": "string"
        }
      ],
      "stateMutability": "pure",
      "type": "function"
    },
    {
      "inputs": [
        {
          "internalType": "bytes",
          "name": "charcodes",
          "type": "bytes"
        }
      ],
      "name": "testGetGender",
      "outputs": [
        {
          "internalType": "string",
          "name": "",
          "type": "string"
        }
      ],
      "stateMutability": "pure",
      "type": "function"
    },
    {
      "inputs": [
        {
          "internalType": "bytes",
          "name": "charcodes",
          "type": "bytes"
        }
      ],
      "name": "testGetIssuingState",
      "outputs": [
        {
          "internalType": "string",
          "name": "",
          "type": "string"
        }
      ],
      "stateMutability": "pure",
      "type": "function"
    },
    {
      "inputs": [
        {
          "internalType": "bytes",
          "name": "charcodes",
          "type": "bytes"
        }
      ],
      "name": "testGetName",
      "outputs": [
        {
          "internalType": "string[]",
          "name": "",
          "type": "string[]"
        }
      ],
      "stateMutability": "pure",
      "type": "function"
    },
    {
      "inputs": [
        {
          "internalType": "bytes",
          "name": "charcodes",
          "type": "bytes"
        }
      ],
      "name": "testGetNameAndDobOfac",
      "outputs": [
        {
          "internalType": "uint256",
          "name": "",
          "type": "uint256"
        }
      ],
      "stateMutability": "pure",
      "type": "function"
    },
    {
      "inputs": [
        {
          "internalType": "bytes",
          "name": "charcodes",
          "type": "bytes"
        }
      ],
      "name": "testGetNameAndYobOfac",
      "outputs": [
        {
          "internalType": "uint256",
          "name": "",
          "type": "uint256"
        }
      ],
      "stateMutability": "pure",
      "type": "function"
    },
    {
      "inputs": [
        {
          "internalType": "bytes",
          "name": "charcodes",
          "type": "bytes"
        }
      ],
      "name": "testGetNationality",
      "outputs": [
        {
          "internalType": "string",
          "name": "",
          "type": "string"
        }
      ],
      "stateMutability": "pure",
      "type": "function"
    },
    {
      "inputs": [
        {
          "internalType": "bytes",
          "name": "charcodes",
          "type": "bytes"
        }
      ],
      "name": "testGetOlderThan",
      "outputs": [
        {
          "internalType": "uint256",
          "name": "",
          "type": "uint256"
        }
      ],
      "stateMutability": "pure",
      "type": "function"
    },
    {
      "inputs": [
        {
          "internalType": "bytes",
          "name": "charcodes",
          "type": "bytes"
        }
      ],
      "name": "testGetPassportNoOfac",
      "outputs": [
        {
          "internalType": "uint256",
          "name": "",
          "type": "uint256"
        }
      ],
      "stateMutability": "pure",
      "type": "function"
    },
    {
      "inputs": [
        {
          "internalType": "bytes",
          "name": "charcodes",
          "type": "bytes"
        }
      ],
      "name": "testGetPassportNumber",
      "outputs": [
        {
          "internalType": "string",
          "name": "",
          "type": "string"
        }
      ],
      "stateMutability": "pure",
      "type": "function"
    }
  ],
  "bytecode": "0x6080604052348015600f57600080fd5b50610ee98061001f6000396000f3fe608060405234801561001057600080fd5b50600436106100ea5760003560e01c8063c2c8fba71161008c578063cc91c08d11610066578063cc91c08d146101ee578063e1a12b8514610201578063efee52bd14610214578063f202deeb1461022757600080fd5b8063c2c8fba7146101a8578063c4ddba41146101bb578063c74e6a4d146101ce57600080fd5b8063822c33f8116100c8578063822c33f81461014c57806384783a3f1461015f5780638a8b991e14610172578063ab3701801461018557600080fd5b806313320790146100ef57806355a521091461011857806367729dd914610139575b600080fd5b6101026100fd366004610b93565b61023a565b60405161010f9190610c18565b60405180910390f35b61012b610126366004610b93565b61024b565b60405190815260200161010f565b61012b610147366004610b93565b610256565b61010261015a366004610b93565b610261565b61010261016d366004610c2b565b61026c565b61012b610180366004610b93565b610281565b610198610193366004610c8e565b61028c565b604051901515815260200161010f565b6101026101b6366004610b93565b6102a3565b6101026101c9366004610b93565b6102ae565b6101e16101dc366004610b93565b6102b9565b60405161010f9190610cfd565b61012b6101fc366004610b93565b6102c4565b61010261020f366004610b93565b6102cf565b610198610222366004610d62565b6102da565b610102610235366004610b93565b6102ed565b6060610245826102f8565b92915050565b600061024582610307565b600061024582610334565b606061024582610343565b606061027984848461035a565b949350505050565b600061024582610450565b600061029a858585856104aa565b95945050505050565b606061024582610501565b606061024582610510565b606061024582610522565b600061024582610539565b60606102458261054e565b60006102e6838361055c565b9392505050565b606061024582610571565b6060610245826002600461035a565b600081610316605a6001610dbd565b8151811061032657610326610dd0565b016020015160f81c92915050565b600081610316605a6002610dbd565b6060610245610355836039603e61035a565b610580565b60608184511161037d5760405163fe9a439f60e01b815260040160405180910390fd5b60006103898484610de6565b610394906001610dbd565b67ffffffffffffffff8111156103ac576103ac610aee565b6040519080825280601f01601f1916602001820160405280156103d6576020820181803683370190505b509050835b838111610447578581815181106103f4576103f4610dd0565b01602001516001600160f81b0319168261040e8784610de6565b8151811061041e5761041e610dd0565b60200101906001600160f81b031916908160001a9053508061043f81610df9565b9150506103db565b50949350505050565b600061047f8261046260586001610dbd565b8151811061047257610472610dd0565b016020015160f81c6107db565b6104958360588151811061047257610472610dd0565b6104a090600a610e12565b6102459190610dbd565b60008315806104c157506104bd85610539565b6001145b80156104dd57508215806104dd57506104d985610307565b6001145b801561029a575081158061029a57506104f585610334565b60011495945050505050565b6060610245826036603861035a565b6060610245610355836041604661035a565b6060610245610534836005602b61035a565b610815565b600081605a8151811061032657610326610dd0565b60606102458260408061035a565b60008161056884610450565b10159392505050565b606061024582602c603461035a565b805160609082906006146105a75760405163b337595360e01b815260040160405180910390fd5b603160f81b816002815181106105bf576105bf610dd0565b01602001516001600160f81b031916118061062e5750806002815181106105e8576105e8610dd0565b6020910101516001600160f81b031916603160f81b14801561062e5750601960f91b8160038151811061061d5761061d610dd0565b01602001516001600160f81b031916115b1561064c576040516304bcc4f160e31b815260040160405180910390fd5b603360f81b8160048151811061066457610664610dd0565b01602001516001600160f81b03191611806106d357508060048151811061068d5761068d610dd0565b6020910101516001600160f81b031916603360f81b1480156106d35750603160f81b816005815181106106c2576106c2610dd0565b01602001516001600160f81b031916115b156106f157604051638930acef60e01b815260040160405180910390fd5b60005b600681101561077857600360fc1b82828151811061071457610714610dd0565b01602001516001600160f81b03191610806107525750603960f81b82828151811061074157610741610dd0565b01602001516001600160f81b031916115b15610770576040516378f5f64b60e11b815260040160405180910390fd5b6001016106f4565b5060006107888460006002610a2b565b905060006107998560026004610a2b565b905060006107aa8660046006610a2b565b90508082846040516020016107c193929190610e29565b604051602081830303815290604052945050505050919050565b600060308210806107ec5750603982115b1561080a576040516378f5f64b60e11b815260040160405180910390fd5b610245603083610de6565b6040805160028082526060828101909352839183918291600091816020015b606081526020019060019003908161083457905050905060005b845181108015610883575084818151811061086b5761086b610dd0565b6020910101516001600160f81b031916600f60fa1b14155b156108db578285828151811061089b5761089b610dd0565b602001015160f81c60f81b6040516020016108b7929190610e88565b604051602081830303815290604052925080806108d390610df9565b91505061084e565b6108e6600282610dbd565b90505b84518110156109e35784818151811061090457610904610dd0565b01602001516001600160f81b031916600f60fa1b0361099057845161092a826001610dbd565b10801561096557508461093e826001610dbd565b8151811061094e5761094e610dd0565b6020910101516001600160f81b031916600f60fa1b145b6109e3578360405160200161097a9190610eb7565b60405160208183030381529060405293506109d1565b838582815181106109a3576109a3610dd0565b602001015160f81c60f81b6040516020016109bf929190610e88565b60405160208183030381529060405293505b806109db81610df9565b9150506108e9565b83826000815181106109f7576109f7610dd0565b60200260200101819052508282600181518110610a1657610a16610dd0565b60209081029190910101525095945050505050565b6060836000610a3a8585610de6565b67ffffffffffffffff811115610a5257610a52610aee565b6040519080825280601f01601f191660200182016040528015610a7c576020820181803683370190505b509050845b84811015610ae457828181518110610a9b57610a9b610dd0565b01602001516001600160f81b03191682610ab58884610de6565b81518110610ac557610ac5610dd0565b60200101906001600160f81b031916908160001a905350600101610a81565b5095945050505050565b634e487b7160e01b600052604160045260246000fd5b600082601f830112610b1557600080fd5b813567ffffffffffffffff811115610b2f57610b2f610aee565b604051601f8201601f19908116603f0116810167ffffffffffffffff81118282101715610b5e57610b5e610aee565b604052818152838201602001851015610b7657600080fd5b816020850160208301376000918101602001919091529392505050565b600060208284031215610ba557600080fd5b813567ffffffffffffffff811115610bbc57600080fd5b61027984828501610b04565b60005b83811015610be3578181015183820152602001610bcb565b50506000910152565b60008151808452610c04816020860160208601610bc8565b601f01601f19169290920160200192915050565b6020815260006102e66020830184610bec565b600080600060608486031215610c4057600080fd5b833567ffffffffffffffff811115610c5757600080fd5b610c6386828701610b04565b9660208601359650604090950135949350505050565b80358015158114610c8957600080fd5b919050565b60008060008060808587031215610ca457600080fd5b843567ffffffffffffffff811115610cbb57600080fd5b610cc787828801610b04565b945050610cd660208601610c79565b9250610ce460408601610c79565b9150610cf260608601610c79565b905092959194509250565b6000602082016020835280845180835260408501915060408160051b86010192506020860160005b82811015610d5657603f19878603018452610d41858351610bec565b94506020938401939190910190600101610d25565b50929695505050505050565b60008060408385031215610d7557600080fd5b823567ffffffffffffffff811115610d8c57600080fd5b610d9885828601610b04565b95602094909401359450505050565b634e487b7160e01b600052601160045260246000fd5b8082018082111561024557610245610da7565b634e487b7160e01b600052603260045260246000fd5b8181038181111561024557610245610da7565b600060018201610e0b57610e0b610da7565b5060010190565b808202811582820484141761024557610245610da7565b60008451610e3b818460208901610bc8565b602d60f81b9083019081528451610e59816001840160208901610bc8565b602d60f81b600192909101918201528351610e7b816002840160208801610bc8565b0160020195945050505050565b60008351610e9a818460208801610bc8565b6001600160f81b0319939093169190920190815260010192915050565b60008251610ec9818460208701610bc8565b600160fd1b92019182525060010191905056fea164736f6c634300081c000a",
  "linkReferences": {},
  "deployedLinkReferences": {}
}