{
  "_format": "hh-sol-artifact-1",
  "contractName": "Verifier_dsc_sha256_rsa_65537_4096",
  "sourceName": "contracts/verifiers/dsc/Verifier_dsc_sha256_rsa_65537_4096.sol",
  "abi": [
    {
      "inputs": [
        {
          "internalType": "uint256[2]",
          "name": "_pA",
          "type": "uint256[2]"
        },
        {
          "internalType": "uint256[2][2]",
          "name": "_pB",
          "type": "uint256[2][2]"
        },
        {
          "internalType": "uint256[2]",
          "name": "_pC",
          "type": "uint256[2]"
        },
        {
          "internalType": "uint256[2]",
          "name": "_pubSignals",
          "type": "uint256[2]"
        }
      ],
      "name": "verifyProof",
      "outputs": [
        {
          "internalType": "bool",
          "name": "",
          "type": "bool"
        }
      ],
      "stateMutability": "view",
      "type": "function"
    }
  ],
  "bytecode": "0x6080604052348015600f57600080fd5b5061058b8061001f6000396000f3fe608060405234801561001057600080fd5b506004361061002b5760003560e01c8063f5c9d69e14610030575b600080fd5b61004361003e36600461051e565b610057565b604051901515815260200160405180910390f35b60006104c9565b7f30644e72e131a029b85045b68181585d2833e84879b9709143e1f593f0000001811061008f576000805260206000f35b50565b600060405183815284602082015285604082015260408160608360076107d05a03fa9150816100c5576000805260206000f35b825160408201526020830151606082015260408360808360066107d05a03fa915050806100f6576000805260206000f35b5050505050565b7f082b232c0277f03aa9f173343501ceb72a6e418661fda864bca3353b6f86a24a85527ecd97305d582546c58092712742a698c2cfc22a9e6bce49836880f9f755015f60208601526000608086018661019987357f1864ad6ea6f6eca81e16c3710bbb167a5963620fec4dd3f481be342b63521d317f2fc443c47b0ae30730acc48acdd334fcf35abec106c471c527b76e6c3a8d7c3184610092565b6101e960208801357f163eed1ce0ba92436181563b1d55a07c7e74494af9ea52c7acb4fac3784b28457f0a0bbe22c841f1b9680c4ae6abd7539ab60086351dffcd556483d114708fc83584610092565b50823581527f30644e72e131a029b85045b68181585d97816a916871ca8d3c208c16d87cfd4760208401357f30644e72e131a029b85045b68181585d97816a916871ca8d3c208c16d87cfd4703066020820152833560408201526020840135606082015260408401356080820152606084013560a08201527f2d4d9aa7e302d9df41749d5507949d05dbea33fbb16c643b22f599a2be6df2e260c08201527f14bedd503c37ceb061d8ec60209fe345ce89830a19230301f076caff004d192660e08201527f0967032fcbf776d1afc985f88877f182d38480a653f2decaa9794cbc3bf3060c6101008201527f0e187847ad4c798374d0d6732bf501847dd68bc0e071241e0213bc7fc13db7ab6101208201527f304cfbd1e08a704a99f5e847d93f8c3caafddec46b7a0d379da69a4d112346a76101408201527f1739c1b1a457a8c7313123d24d2f9192f896b7c63eea05a9d57f06547ad0cec8610160820152600087015161018082015260206000018701516101a08201527f198e9393920d483a7260bfb731fb5d25f1aa493335a9e71297e485b7aef312c26101c08201527f1800deef121f1e76426a00665e5c4479674322d4f75edadd46debd5cd992f6ed6101e08201527f090689d0585ff075ec9e99ad690c3395bc4b313370b38ef355acdadcd122975b6102008201527f12c85ea5db8c6deb4aab71808dcb408fe3d1e7690c43d37b4ce6cc0166fa7daa610220820152843561024082015260208501356102608201527f083f4ff185a1d434a12597ff85a815b6f7b3cab2cd4cb5431d0af50fe87c89bc6102808201527f2d5548fbe65252d59216d7afd4c6779ac588b9bd2d56c115def718fd629d1af96102a08201527f26864aa9e865e1dbcb63ec4afb876f212a63c9cf6d5dbbbc0ae637e95921f85c6102c08201527f1c63647166ded0eef0e81ff7127b9f729e748b5c6bca0b5b562ec80a06436fac6102e08201526020816103008360086107d05a03fa9051169695505050505050565b60405161038081016040526104e1600084013561005e565b6104ee602084013561005e565b6104fb818486888a6100fd565b90508060005260206000f35b806040810183101561051857600080fd5b92915050565b600080600080610140858703121561053557600080fd5b61053f8686610507565b935060c085018681111561055257600080fd5b6040860193506105628782610507565b925050610573866101008701610507565b90509295919450925056fea164736f6c634300081c000a",
  "linkReferences": {},
  "deployedLinkReferences": {}
}