{
  "_format": "hh-sol-artifact-1",
  "contractName": "Verifier_dsc_sha256_rsapss_65537_32_4096",
  "sourceName": "contracts/verifiers/local/dsc/Verifier_dsc_sha256_rsapss_65537_32_4096.sol",
  "abi": [
    {
      "inputs": [
        {
          "internalType": "uint256[2]",
          "name": "_pA",
          "type": "uint256[2]"
        },
        {
          "internalType": "uint256[2][2]",
          "name": "_pB",
          "type": "uint256[2][2]"
        },
        {
          "internalType": "uint256[2]",
          "name": "_pC",
          "type": "uint256[2]"
        },
        {
          "internalType": "uint256[2]",
          "name": "_pubSignals",
          "type": "uint256[2]"
        }
      ],
      "name": "verifyProof",
      "outputs": [
        {
          "internalType": "bool",
          "name": "",
          "type": "bool"
        }
      ],
      "stateMutability": "view",
      "type": "function"
    }
  ],
  "bytecode": "0x6080604052348015600f57600080fd5b506105e08061001f6000396000f3fe608060405234801561001057600080fd5b506004361061002b5760003560e01c8063f5c9d69e14610030575b600080fd5b61004a60048036038101906100459190610560565b610060565b60405161005791906105c0565b60405180910390f35b600061007667b55411c93256fb8b60c01b610542565b61008a67bdf4eb7f5c99ec7a60c01b610542565b610504565b7f30644e72e131a029b85045b68181585d2833e84879b9709143e1f593f000000181106100c0576000805260206000f35b50565b600060405183815284602082015285604082015260408160608360076107d05a03fa9150816100f6576000805260206000f35b825160408201526020830151606082015260408360808360066107d05a03fa91505080610127576000805260206000f35b5050505050565b600060808601600087017f1cdd0b4e325f1d94df100d84bf38239a74137b97c93f5c9db419bb1956f5c6f681527f2824c93b7a6d70ee2c76a3c892c94a337e2cf7ca36cd0d08d2340125eb63eb5360208201526101d060008801357f14f8d13e1211f63f0265d7d8c14ef5a4dbee08cf096f0450fb8f10edec22e44b7ebb2c10ed4fe06d02f9adb073b50642f1434c5553c97fcf6f66367fd7659cca846100c3565b61022060208801357f193f84b4a220e3293fe75c3066bd3aeffbba19913e1017d1003482e17db372a57f14ab0372ca40982d2198b4d45b4a4052d4cb45a266b254a04ffc313d25ecc53e846100c3565b50823581527f30644e72e131a029b85045b68181585d97816a916871ca8d3c208c16d87cfd4760208401357f30644e72e131a029b85045b68181585d97816a916871ca8d3c208c16d87cfd4703066020820152833560408201526020840135606082015260408401356080820152606084013560a08201527f2d4d9aa7e302d9df41749d5507949d05dbea33fbb16c643b22f599a2be6df2e260c08201527f14bedd503c37ceb061d8ec60209fe345ce89830a19230301f076caff004d192660e08201527f0967032fcbf776d1afc985f88877f182d38480a653f2decaa9794cbc3bf3060c6101008201527f0e187847ad4c798374d0d6732bf501847dd68bc0e071241e0213bc7fc13db7ab6101208201527f304cfbd1e08a704a99f5e847d93f8c3caafddec46b7a0d379da69a4d112346a76101408201527f1739c1b1a457a8c7313123d24d2f9192f896b7c63eea05a9d57f06547ad0cec8610160820152600087015161018082015260206000018701516101a08201527f198e9393920d483a7260bfb731fb5d25f1aa493335a9e71297e485b7aef312c26101c08201527f1800deef121f1e76426a00665e5c4479674322d4f75edadd46debd5cd992f6ed6101e08201527f090689d0585ff075ec9e99ad690c3395bc4b313370b38ef355acdadcd122975b6102008201527f12c85ea5db8c6deb4aab71808dcb408fe3d1e7690c43d37b4ce6cc0166fa7daa610220820152843561024082015260208501356102608201527f1612f0cf2795b3d168f627f16da695a4156c85dcd2f814a9a3d377b11c9cb20c6102808201527f0cb4b2ba15436b67fbdbd5d59c8403834fef71b7475353a015d9660718ade5176102a08201527f085621b2f647188695b12fc3b86182a0ad5d784820870ff6dc861c8a5d62489d6102c08201527f04de53cbd51f4958f335c0310206be05cb7398b0994ee5602a7017a2d313e4cc6102e08201526020816103008360086107d05a03fa815181169250505095945050505050565b604051610380810160405261051c600084013561008f565b610529602084013561008f565b610536818486888a61012e565b90508060005260206000f35b50565b60008190508260408301111561055a57600080fd5b92915050565b600080600080610140858703121561057757600080fd5b6105818686610545565b935060c085018681111561059457600080fd5b6040860193506105a48782610545565b9250506105b5866101008701610545565b905092959194509250565b600060208201905082151582529291505056fea164736f6c634300081c000a",
  "linkReferences": {},
  "deployedLinkReferences": {}
}