{
  "_format": "hh-sol-artifact-1",
  "contractName": "Verifier_register_sha384_sha384_sha384_ecdsa_brainpoolP384r1",
  "sourceName": "contracts/verifiers/local/register/Verifier_register_sha384_sha384_sha384_ecdsa_brainpoolP384r1.sol",
  "abi": [
    {
      "inputs": [
        {
          "internalType": "uint256[2]",
          "name": "_pA",
          "type": "uint256[2]"
        },
        {
          "internalType": "uint256[2][2]",
          "name": "_pB",
          "type": "uint256[2][2]"
        },
        {
          "internalType": "uint256[2]",
          "name": "_pC",
          "type": "uint256[2]"
        },
        {
          "internalType": "uint256[3]",
          "name": "_pubSignals",
          "type": "uint256[3]"
        }
      ],
      "name": "verifyProof",
      "outputs": [
        {
          "internalType": "bool",
          "name": "",
          "type": "bool"
        }
      ],
      "stateMutability": "view",
      "type": "function"
    }
  ],
  "bytecode": "0x6080604052348015600f57600080fd5b506106458061001f6000396000f3fe608060405234801561001057600080fd5b506004361061002b5760003560e01c806311479fea14610030575b600080fd5b61004a600480360381019061004591906105bd565b610060565b6040516100579190610625565b60405180910390f35b60006100766704582bcb0414d60260c01b61059f565b61008a672b565a142d344d2a60c01b61059f565b610554565b7f30644e72e131a029b85045b68181585d2833e84879b9709143e1f593f000000181106100c0576000805260206000f35b50565b600060405183815284602082015285604082015260408160608360076107d05a03fa9150816100f6576000805260206000f35b825160408201526020830151606082015260408360808360066107d05a03fa91505080610127576000805260206000f35b5050505050565b600060808601600087017f09509b48093e44476e7754a9c88210d91d0748c5ff7a116bac1eaf35bbed47d481527f07bd0c6d539fcbb84f83498f5b1e0aa6e7686c5c98299f01266295b7fd44e18160208201526101d060008801357f2543e6c72d9857667ecf4a0950158405960adbc588e0b3f165d944c8d123ad147e06b36630811deb10e3c303c2c937fa5d95d5184543e4f707da51a039f930a3846100c3565b61022060208801357f0a5a4f51facdbefc36fb8a5831b5ddd1e4c93fdea9660f097eaba2fbdd6e607d7f109a6962318888d37fc5642b6a7ff855fb1beb54be5923a4969b4786edfd8f1d846100c3565b61027060408801357f0ae60d16e1eabf8af425189b5f3f318329330e04d73f33bfc72957fc8d24cedf7f03778717fb73ca23d7034f1858d5ac7d2921fb3783a293e4d22fe63b23650d1a846100c3565b50823581527f30644e72e131a029b85045b68181585d97816a916871ca8d3c208c16d87cfd4760208401357f30644e72e131a029b85045b68181585d97816a916871ca8d3c208c16d87cfd4703066020820152833560408201526020840135606082015260408401356080820152606084013560a08201527f2d4d9aa7e302d9df41749d5507949d05dbea33fbb16c643b22f599a2be6df2e260c08201527f14bedd503c37ceb061d8ec60209fe345ce89830a19230301f076caff004d192660e08201527f0967032fcbf776d1afc985f88877f182d38480a653f2decaa9794cbc3bf3060c6101008201527f0e187847ad4c798374d0d6732bf501847dd68bc0e071241e0213bc7fc13db7ab6101208201527f304cfbd1e08a704a99f5e847d93f8c3caafddec46b7a0d379da69a4d112346a76101408201527f1739c1b1a457a8c7313123d24d2f9192f896b7c63eea05a9d57f06547ad0cec8610160820152600087015161018082015260206000018701516101a08201527f198e9393920d483a7260bfb731fb5d25f1aa493335a9e71297e485b7aef312c26101c08201527f1800deef121f1e76426a00665e5c4479674322d4f75edadd46debd5cd992f6ed6101e08201527f090689d0585ff075ec9e99ad690c3395bc4b313370b38ef355acdadcd122975b6102008201527f12c85ea5db8c6deb4aab71808dcb408fe3d1e7690c43d37b4ce6cc0166fa7daa610220820152843561024082015260208501356102608201527f1cf0aafa2d2f523f4325673405caeb23cd533262b8646297b694fe1d97109adf6102808201527f1b283d9f16fee3b2aebc69fd4791b633872bb7099a01655707b60cdaf0f5b6ef6102a08201527f268b6802a3e80d10ba891a5bd103c54a741b888338b3349a63730dcdf9a978346102c08201527f0bdb70a27dc170d13db302f734511430572f7073ea5a57b7f859a5f67ae5c10c6102e08201526020816103008360086107d05a03fa815181169250505095945050505050565b604051610380810160405261056c600084013561008f565b610579602084013561008f565b610586604084013561008f565b610593818486888a61012e565b90508060005260206000f35b50565b6000819050826040830111156105b757600080fd5b92915050565b60008060008061016085870312156105d457600080fd5b6105de86866105a2565b935060c08501868111156105f157600080fd5b60408601935061060187826105a2565b925050856101608601111561061557600080fd5b6101008501905092959194509250565b600060208201905082151582529291505056fea164736f6c634300081c000a",
  "linkReferences": {},
  "deployedLinkReferences": {}
}