{
  "_format": "hh-sol-artifact-1",
  "contractName": "Verifier_vc_and_disclose",
  "sourceName": "contracts/verifiers/disclose/Verifier_vc_and_disclose.sol",
  "abi": [
    {
      "inputs": [
        {
          "internalType": "uint256[2]",
          "name": "_pA",
          "type": "uint256[2]"
        },
        {
          "internalType": "uint256[2][2]",
          "name": "_pB",
          "type": "uint256[2][2]"
        },
        {
          "internalType": "uint256[2]",
          "name": "_pC",
          "type": "uint256[2]"
        },
        {
          "internalType": "uint256[18]",
          "name": "_pubSignals",
          "type": "uint256[18]"
        }
      ],
      "name": "verifyProof",
      "outputs": [
        {
          "internalType": "bool",
          "name": "",
          "type": "bool"
        }
      ],
      "stateMutability": "view",
      "type": "function"
    }
  ],
  "bytecode": "0x6080604052348015600f57600080fd5b50610b768061001f6000396000f3fe608060405234801561001057600080fd5b506004361061002b5760003560e01c80634483e72114610030575b600080fd5b61004361003e366004610b02565b610057565b604051901515815260200160405180910390f35b60006109d3565b7f30644e72e131a029b85045b68181585d2833e84879b9709143e1f593f0000001811061008f576000805260206000f35b50565b600060405183815284602082015285604082015260408160608360076107d05a03fa9150816100c5576000805260206000f35b825160408201526020830151606082015260408360808360066107d05a03fa915050806100f6576000805260206000f35b5050505050565b7f16ed46d1d7fcf277f2d67d6e2ea26f944483821634cd9a88fa830c369119b89d85527f2cb7669d528fc4629ff7c7c7ce8540ca5907ee3af1a944b1a266f961cf33077e60208601526000608086018661019a87357f153fd07b3ff4d805eec1b968fa0ef743f830212c83f18f8b154771e2747ac0c67f2bc2b05ead37157d64849014a648ab45d62fd95d54d14392be9c83245f3a253e84610092565b6101ea60208801357f066ec431de71ee125af4a5779770bd931b276b7cc85216efdf0f7386f47026ee7f22706cd64023fbb7d7246ba7c4d665905e531b6ab7775c3c8db1d95d299a30f284610092565b61023a60408801357f103b51141463ece8dc6372f74c5800f4469cfcd3a8915829ae3420803a4d4dfb7f03900a2827793d9aaea8da63f2d800c7ffdf2bd134c63ce3ec8aaad925c639ae84610092565b61028a60608801357f023e2e4cf733dc3baaeda49f54d79417426457a74f144e5d3c91ff09d101ba127f2a3d010059b741ce52bfbcc3c04b2aacccfd3a84e5a45539245eb7404fafdba384610092565b6102da60808801357f101a3b1700d7b2cce7e27d397a88b90993ffbf4b9bbfffb05bc873ae8980cf377f0e3ffb1876a1b35c3c1e73dc93616b1d6307dcc579840643d2322ff6d687da9884610092565b61032a60a08801357f2270d677540fbd817fac257cec8ffb56711fe3ccccee560e3ac178e716cda6d27f1daeba998004a6ea36a3e4be35c831d3f4ed64608d4657e4829d5979c177753e84610092565b61037a60c08801357f2a58f505bab23143212c434008672e8380da2879e148680cee3e2f66fd9886cf7f0b6f47dc15b53dc02aefde03c339ee65854289c961270794e396823c50506a3284610092565b6103ca60e08801357f2cb6e7255de5b4b1bbbfe67bbb679286368aad00a050670247b22618c60cb13b7f243536e5d9c0f3328e08bc448be8dbb7faf1a4cedb1b47e4b15ec83e148483aa84610092565b61041b6101008801357f19713274b3e093b5fdaffd5b865aca4a7ae3efc43c6c8b98bb5642c1be2f1df97f119c68d00407e5104aced4d5b96f800feac409ca7d64a740555a4a91f197f6ff84610092565b61046c6101208801357f0d7b545c10200b8b62ff09b03d9f86892021e1cd35ce3356ffd6851b8680dca87f275cc1ce4311aa30befb42d43cae124e730243b968b2af8a19d77445a673f7d984610092565b6104bd6101408801357f109483658d5a138284ece6434b55a07dda20d9f5b217208f8d12552dd9ef5d157f09a6eaf388499aa5faa60eaf13de932e4f1cbaa37876571ee47006d08478ae1a84610092565b61050e6101608801357f0e23abccf29aae75e4450e85b5a84ec3773b5025ccb39ad098ca21379a9e71397f2829ad6fc6b92b26ae9260a96164ce9e7d7709483fb3d89a7208c87047dacf5684610092565b61055f6101808801357f2499a412d9331b7f5563533ba44af138cf173c2ef4ed12f401d261332065a4b47f05d4db6208492167524df03b818f15be67380a74567cfe6b448f75dc4b960bdd84610092565b6105b06101a08801357f1e2c778201181907a72eb487ad54870574dad33cff86e8bcfe66ff67180a2f9b7f21838b3cbe6fb6fd029f7d39a661953ebf0c4123ef844af7154d58053206353584610092565b6106016101c08801357f0d521e28e1310415ce19a540ab083ec4919572e2c11b974a2f2cc3a42a41f1567f0865fa82911ba2c34539bdad241d6d7cd8adaea2b1db0da8f2f5c387dd43cb7484610092565b6106516101e08801357f0f66de1da5609b341302aff2b5b6137fbd1e069dc4216bdadfca0a1b62279c067e7908d3d16c4212d7be1b00d024ca6477e3fcea4a7d41be81c070b9eeb5ef2884610092565b6106a26102008801357f1be58088ff6c6c60d960937095974058567756ec96d2f5a8661492a519fa9e757f09d2ed9aad01172004314a18e1e526a6918fe90cf8120efc9c08384408a3638184610092565b6106f36102208801357f272eca157ce68f4354bdcbb06660430501dbb87131006e357edbe32097f087767f137f11f3fad5b682521ea4e5fe5d534e7bb30b6c36219d12eef856fefa6863cd84610092565b50823581527f30644e72e131a029b85045b68181585d97816a916871ca8d3c208c16d87cfd4760208401357f30644e72e131a029b85045b68181585d97816a916871ca8d3c208c16d87cfd4703066020820152833560408201526020840135606082015260408401356080820152606084013560a08201527f2d4d9aa7e302d9df41749d5507949d05dbea33fbb16c643b22f599a2be6df2e260c08201527f14bedd503c37ceb061d8ec60209fe345ce89830a19230301f076caff004d192660e08201527f0967032fcbf776d1afc985f88877f182d38480a653f2decaa9794cbc3bf3060c6101008201527f0e187847ad4c798374d0d6732bf501847dd68bc0e071241e0213bc7fc13db7ab6101208201527f304cfbd1e08a704a99f5e847d93f8c3caafddec46b7a0d379da69a4d112346a76101408201527f1739c1b1a457a8c7313123d24d2f9192f896b7c63eea05a9d57f06547ad0cec8610160820152600087015161018082015260206000018701516101a08201527f198e9393920d483a7260bfb731fb5d25f1aa493335a9e71297e485b7aef312c26101c08201527f1800deef121f1e76426a00665e5c4479674322d4f75edadd46debd5cd992f6ed6101e08201527f090689d0585ff075ec9e99ad690c3395bc4b313370b38ef355acdadcd122975b6102008201527f12c85ea5db8c6deb4aab71808dcb408fe3d1e7690c43d37b4ce6cc0166fa7daa610220820152843561024082015260208501356102608201527f1210e661ea30e9c6ebc836856528ac02b82c8b17c09623bb9e9f716cd2a324496102808201527f03ff373433491359adbd835bcb5c1b155a4fa46c6996fe835b2a2b07aa2510886102a08201527f1304f6c479e9eeda22b8b554e0475a2ce497e7c1ff44dfe1385627e9919a7aa16102c08201527f2f1d53d8ed69971dc33083a69f3b64988667b17e9581119b0ef10a1854fca26b6102e08201526020816103008360086107d05a03fa9051169695505050505050565b60405161038081016040526109eb600084013561005e565b6109f8602084013561005e565b610a05604084013561005e565b610a12606084013561005e565b610a1f608084013561005e565b610a2c60a084013561005e565b610a3960c084013561005e565b610a4660e084013561005e565b610a5461010084013561005e565b610a6261012084013561005e565b610a7061014084013561005e565b610a7e61016084013561005e565b610a8c61018084013561005e565b610a9a6101a084013561005e565b610aa86101c084013561005e565b610ab66101e084013561005e565b610ac461020084013561005e565b610ad261022084013561005e565b610adf818486888a6100fd565b90508060005260206000f35b8060408101831015610afc57600080fd5b92915050565b6000806000806103408587031215610b1957600080fd5b610b238686610aeb565b935060c0850186811115610b3657600080fd5b604086019350610b468782610aeb565b9250508561034086011115610b5a57600080fd5b5091949093509091610100019056fea164736f6c634300081c000a",
  "linkReferences": {},
  "deployedLinkReferences": {}
}