{
  "_format": "hh-sol-artifact-1",
  "contractName": "Verifier_register_sha256_sha256_sha256_rsa_65537_4096",
  "sourceName": "contracts/verifiers/local/register/Verifier_register_sha256_sha256_sha256_rsa_65537_4096.sol",
  "abi": [
    {
      "inputs": [
        {
          "internalType": "uint256[2]",
          "name": "_pA",
          "type": "uint256[2]"
        },
        {
          "internalType": "uint256[2][2]",
          "name": "_pB",
          "type": "uint256[2][2]"
        },
        {
          "internalType": "uint256[2]",
          "name": "_pC",
          "type": "uint256[2]"
        },
        {
          "internalType": "uint256[3]",
          "name": "_pubSignals",
          "type": "uint256[3]"
        }
      ],
      "name": "verifyProof",
      "outputs": [
        {
          "internalType": "bool",
          "name": "",
          "type": "bool"
        }
      ],
      "stateMutability": "view",
      "type": "function"
    }
  ],
  "bytecode": "0x6080604052348015600f57600080fd5b506106468061001f6000396000f3fe608060405234801561001057600080fd5b506004361061002b5760003560e01c806311479fea14610030575b600080fd5b61004a600480360381019061004591906105be565b610060565b6040516100579190610626565b60405180910390f35b60006100766793d70921301294e060c01b6105a0565b61008a67ed112ec3ccfb700f60c01b6105a0565b610555565b7f30644e72e131a029b85045b68181585d2833e84879b9709143e1f593f000000181106100c0576000805260206000f35b50565b600060405183815284602082015285604082015260408160608360076107d05a03fa9150816100f6576000805260206000f35b825160408201526020830151606082015260408360808360066107d05a03fa91505080610127576000805260206000f35b5050505050565b600060808601600087017f083fef2d439853a8415e8de5a95df5a31e688229a0c07d83aedc86d79d2167fa81527f0d2b8b218b46e104d3a4c21153dbbf78e4b7ee83f94033e4c653f634e967d4f760208201526101d160008801357f27a3464573b8f674cadd354d13929f2e8ac9d5612a8ef6489f3a5dcadf2226e87f252c15386371b1ee06f7cdaec40a5009469060c90053e26605bc53a2c65462d6846100c3565b61022160208801357f078dae7b6e4be021049c2e865faef91eb88e914e87ae6099a2b1ad4736b2216f7f0e2245e58837e29060ad5ab77d2c18d25749f8ffc415fc210944e9e4c2b5a0d3846100c3565b61027160408801357f150ce386a1867f96bd4891b0ccec3a2e39c1a41608651b98d161a5b0034540587f19ecc427f2fa65476d6c7377cf18522badbee4513e421e3d2c3a920319aba3c4846100c3565b50823581527f30644e72e131a029b85045b68181585d97816a916871ca8d3c208c16d87cfd4760208401357f30644e72e131a029b85045b68181585d97816a916871ca8d3c208c16d87cfd4703066020820152833560408201526020840135606082015260408401356080820152606084013560a08201527f2d4d9aa7e302d9df41749d5507949d05dbea33fbb16c643b22f599a2be6df2e260c08201527f14bedd503c37ceb061d8ec60209fe345ce89830a19230301f076caff004d192660e08201527f0967032fcbf776d1afc985f88877f182d38480a653f2decaa9794cbc3bf3060c6101008201527f0e187847ad4c798374d0d6732bf501847dd68bc0e071241e0213bc7fc13db7ab6101208201527f304cfbd1e08a704a99f5e847d93f8c3caafddec46b7a0d379da69a4d112346a76101408201527f1739c1b1a457a8c7313123d24d2f9192f896b7c63eea05a9d57f06547ad0cec8610160820152600087015161018082015260206000018701516101a08201527f198e9393920d483a7260bfb731fb5d25f1aa493335a9e71297e485b7aef312c26101c08201527f1800deef121f1e76426a00665e5c4479674322d4f75edadd46debd5cd992f6ed6101e08201527f090689d0585ff075ec9e99ad690c3395bc4b313370b38ef355acdadcd122975b6102008201527f12c85ea5db8c6deb4aab71808dcb408fe3d1e7690c43d37b4ce6cc0166fa7daa610220820152843561024082015260208501356102608201527f1ad0e5b002d55f06a3c2ef5ac12d3d62e9207371aa3834284c754188eb6728c86102808201527f19a5c9df1cbe8d210f3e92bb0d49a4764c89fd955c59f73869bc409f9752e69d6102a08201527f17cf311eaeb5c8aea65bd9b5fa48284bd75c904b84c702a494b8589f39352f866102c08201527f21ddfd033a626565ba0b92f6b3a16ed55a6a75066f064197153807ff845c34716102e08201526020816103008360086107d05a03fa815181169250505095945050505050565b604051610380810160405261056d600084013561008f565b61057a602084013561008f565b610587604084013561008f565b610594818486888a61012e565b90508060005260206000f35b50565b6000819050826040830111156105b857600080fd5b92915050565b60008060008061016085870312156105d557600080fd5b6105df86866105a3565b935060c08501868111156105f257600080fd5b60408601935061060287826105a3565b925050856101608601111561061657600080fd5b6101008501905092959194509250565b600060208201905082151582529291505056fea164736f6c634300081c000a",
  "linkReferences": {},
  "deployedLinkReferences": {}
}