{
  "_format": "hh-sol-artifact-1",
  "contractName": "VerifyAll",
  "sourceName": "contracts/sdk/VerifyAll.sol",
  "abi": [
    {
      "inputs": [
        {
          "internalType": "address",
          "name": "hubAddress",
          "type": "address"
        },
        {
          "internalType": "address",
          "name": "registryAddress",
          "type": "address"
        }
      ],
      "stateMutability": "nonpayable",
      "type": "constructor"
    },
    {
      "inputs": [
        {
          "internalType": "address",
          "name": "owner",
          "type": "address"
        }
      ],
      "name": "OwnableInvalidOwner",
      "type": "error"
    },
    {
      "inputs": [
        {
          "internalType": "address",
          "name": "account",
          "type": "address"
        }
      ],
      "name": "OwnableUnauthorizedAccount",
      "type": "error"
    },
    {
      "anonymous": false,
      "inputs": [
        {
          "indexed": true,
          "internalType": "address",
          "name": "previousOwner",
          "type": "address"
        },
        {
          "indexed": true,
          "internalType": "address",
          "name": "newOwner",
          "type": "address"
        }
      ],
      "name": "OwnershipTransferred",
      "type": "event"
    },
    {
      "inputs": [],
      "name": "hub",
      "outputs": [
        {
          "internalType": "contract IIdentityVerificationHubV1",
          "name": "",
          "type": "address"
        }
      ],
      "stateMutability": "view",
      "type": "function"
    },
    {
      "inputs": [],
      "name": "owner",
      "outputs": [
        {
          "internalType": "address",
          "name": "",
          "type": "address"
        }
      ],
      "stateMutability": "view",
      "type": "function"
    },
    {
      "inputs": [],
      "name": "registry",
      "outputs": [
        {
          "internalType": "contract IIdentityRegistryV1",
          "name": "",
          "type": "address"
        }
      ],
      "stateMutability": "view",
      "type": "function"
    },
    {
      "inputs": [],
      "name": "renounceOwnership",
      "outputs": [],
      "stateMutability": "nonpayable",
      "type": "function"
    },
    {
      "inputs": [
        {
          "internalType": "address",
          "name": "hubAddress",
          "type": "address"
        }
      ],
      "name": "setHub",
      "outputs": [],
      "stateMutability": "nonpayable",
      "type": "function"
    },
    {
      "inputs": [
        {
          "internalType": "address",
          "name": "registryAddress",
          "type": "address"
        }
      ],
      "name": "setRegistry",
      "outputs": [],
      "stateMutability": "nonpayable",
      "type": "function"
    },
    {
      "inputs": [
        {
          "internalType": "address",
          "name": "newOwner",
          "type": "address"
        }
      ],
      "name": "transferOwnership",
      "outputs": [],
      "stateMutability": "nonpayable",
      "type": "function"
    },
    {
      "inputs": [
        {
          "internalType": "uint256",
          "name": "targetRootTimestamp",
          "type": "uint256"
        },
        {
          "components": [
            {
              "internalType": "bool",
              "name": "olderThanEnabled",
              "type": "bool"
            },
            {
              "internalType": "uint256",
              "name": "olderThan",
              "type": "uint256"
            },
            {
              "internalType": "bool",
              "name": "forbiddenCountriesEnabled",
              "type": "bool"
            },
            {
              "internalType": "uint256[4]",
              "name": "forbiddenCountriesListPacked",
              "type": "uint256[4]"
            },
            {
              "internalType": "bool[3]",
              "name": "ofacEnabled",
              "type": "bool[3]"
            },
            {
              "components": [
                {
                  "internalType": "uint256[2]",
                  "name": "a",
                  "type": "uint256[2]"
                },
                {
                  "internalType": "uint256[2][2]",
                  "name": "b",
                  "type": "uint256[2][2]"
                },
                {
                  "internalType": "uint256[2]",
                  "name": "c",
                  "type": "uint256[2]"
                },
                {
                  "internalType": "uint256[21]",
                  "name": "pubSignals",
                  "type": "uint256[21]"
                }
              ],
              "internalType": "struct IVcAndDiscloseCircuitVerifier.VcAndDiscloseProof",
              "name": "vcAndDiscloseProof",
              "type": "tuple"
            }
          ],
          "internalType": "struct IIdentityVerificationHubV1.VcAndDiscloseHubProof",
          "name": "proof",
          "type": "tuple"
        },
        {
          "internalType": "enum IIdentityVerificationHubV1.RevealedDataType[]",
          "name": "types",
          "type": "uint8[]"
        }
      ],
      "name": "verifyAll",
      "outputs": [
        {
          "components": [
            {
              "internalType": "string",
              "name": "issuingState",
              "type": "string"
            },
            {
              "internalType": "string[]",
              "name": "name",
              "type": "string[]"
            },
            {
              "internalType": "string",
              "name": "passportNumber",
              "type": "string"
            },
            {
              "internalType": "string",
              "name": "nationality",
              "type": "string"
            },
            {
              "internalType": "string",
              "name": "dateOfBirth",
              "type": "string"
            },
            {
              "internalType": "string",
              "name": "gender",
              "type": "string"
            },
            {
              "internalType": "string",
              "name": "expiryDate",
              "type": "string"
            },
            {
              "internalType": "uint256",
              "name": "olderThan",
              "type": "uint256"
            },
            {
              "internalType": "uint256",
              "name": "passportNoOfac",
              "type": "uint256"
            },
            {
              "internalType": "uint256",
              "name": "nameAndDobOfac",
              "type": "uint256"
            },
            {
              "internalType": "uint256",
              "name": "nameAndYobOfac",
              "type": "uint256"
            }
          ],
          "internalType": "struct IIdentityVerificationHubV1.ReadableRevealedData",
          "name": "",
          "type": "tuple"
        },
        {
          "internalType": "bool",
          "name": "",
          "type": "bool"
        },
        {
          "internalType": "string",
          "name": "",
          "type": "string"
        }
      ],
      "stateMutability": "view",
      "type": "function"
    }
  ],
  "bytecode": "0x608060405234801561001057600080fd5b5060405161166838038061166883398101604081905261002f916100fc565b338061005557604051631e4fbdf760e01b81526000600482015260240160405180910390fd5b61005e81610090565b50600180546001600160a01b039384166001600160a01b0319918216179091556002805492909316911617905561012f565b600080546001600160a01b038381166001600160a01b0319831681178455604051919092169283917f8be0079c531659141344cd1fd0a4f28419497f9722a3daafe3b4186f6b6457e09190a35050565b80516001600160a01b03811681146100f757600080fd5b919050565b6000806040838503121561010f57600080fd5b610118836100e0565b9150610126602084016100e0565b90509250929050565b61152a8061013e6000396000f3fe608060405234801561001057600080fd5b50600436106100885760003560e01c80637cd0cf6e1161005b5780637cd0cf6e146100ed5780638da5cb5b1461010f578063a91ee0dc14610120578063f2fde38b1461013357600080fd5b806331962cdc1461008d578063365a86fc146100a2578063715018a6146100d25780637b103999146100da575b600080fd5b6100a061009b36600461093f565b610146565b005b6001546100b5906001600160a01b031681565b6040516001600160a01b0390911681526020015b60405180910390f35b6100a0610170565b6002546100b5906001600160a01b031681565b6101006100fb366004610cdf565b610184565b6040516100c993929190610e64565b6000546001600160a01b03166100b5565b6100a061012e36600461093f565b6107d1565b6100a061014136600461093f565b6107fb565b61014e61083e565b600180546001600160a01b0319166001600160a01b0392909216919091179055565b61017861083e565b610182600061086b565b565b6101e160405180610160016040528060608152602001606081526020016060815260200160608152602001606081526020016060815260200160608152602001600081526020016000815260200160008152602001600081525090565b600060606101ed6108bb565b6001546040516368f531d160e11b81526001600160a01b039091169063d1ea63a29061021d90899060040161106b565b61018060405180830381865afa925050508015610257575060408051601f3d908101601f1916820190925261025491810190611170565b60015b6105a6573d808015610285576040519150601f19603f3d011682016040523d82523d6000602084013e61028a565b606091505b50606060048251106104c457602082015163ad6f99ff60e01b6001600160e01b03198216016102f0576040518060400160405280601781526020017f494e56414c49445f434f4d4d49544d454e545f524f4f5400000000000000000081525091506104c2565b631273060160e01b6001600160e01b0319821601610345576040518060400160405280601f81526020017f43555252454e545f444154455f4e4f545f494e5f56414c49445f52414e47450081525091506104c2565b630f1ac64760e01b6001600160e01b031982160161038f576040518060400160405280601281526020017124a72b20a624a22fa7a62222a92faa2420a760711b81525091506104c2565b638e4eda1360e01b6001600160e01b03198216016103d3576040518060400160405280600c81526020016b494e56414c49445f4f46414360a01b81525091506104c2565b63718e161b60e11b6001600160e01b031982160161041c57604051806040016040528060118152602001701253959053125117d3d19050d7d493d3d5607a1b81525091506104c2565b63103793b960e21b6001600160e01b0319821601610471576040518060400160405280601b81526020017f494e56414c49445f464f5242494444454e5f434f554e5452494553000000000081525091506104c2565b63159642c360e11b6001600160e01b03198216016104c2576040518060400160405280601d81526020017f494e56414c49445f56435f414e445f444953434c4f53455f50524f4f4600000081525091505b505b604080516101808101825260006101608201818152825282518181526020818101909452909282019083610508565b60608152602001906001900390816104f35790505b5081526020016040518060200160405280600081525081526020016040518060200160405280600081525081526020016040518060200160405280600081525081526020016040518060200160405280600081525081526020016040518060200160405280600081525081526020016000815260200160018152602001600181526020016001815250905080600083965096509650505050506107c8565b9050861561072f57600254608082015160405163ede12d9f60e01b8152600481019190915288916001600160a01b03169063ede12d9f90602401602060405180830381865afa1580156105fd573d6000803e3d6000fd5b505050506040513d601f19601f8201168201806040525081019061062191906111f6565b1461072f5760408051610180810182526000610160820181815282528251818152602081810190945290928201908361066a565b60608152602001906001900390816106555790505b50815260200160405180602001604052806000815250815260200160405180602001604052806000815250815260200160405180602001604052806000815250815260200160405180602001604052806000815250815260200160405180602001604052806000815250815260200160008152602001600181526020016001815260200160018152509050806000604051806040016040528060118152602001700494e56414c49445f54494d455354414d5607c1b81525094509450945050506107c8565b60a08101516001546040516302b26ef560e41b81526000916001600160a01b031690632b26ef50906107679085908b9060040161120f565b600060405180830381865afa158015610784573d6000803e3d6000fd5b505050506040513d6000823e601f3d908101601f191682016040526107ac919081019061137e565b6040805160208101909152600081529096506001955093505050505b93509350939050565b6107d961083e565b600280546001600160a01b0319166001600160a01b0392909216919091179055565b61080361083e565b6001600160a01b03811661083257604051631e4fbdf760e01b8152600060048201526024015b60405180910390fd5b61083b8161086b565b50565b6000546001600160a01b031633146101825760405163118cdaa760e01b8152336004820152602401610829565b600080546001600160a01b038381166001600160a01b0319831681178455604051919092169283917f8be0079c531659141344cd1fd0a4f28419497f9722a3daafe3b4186f6b6457e09190a35050565b6040518060e0016040528060008152602001600081526020016000815260200160008152602001600081526020016108f1610903565b81526020016108fe610921565b905290565b60405180606001604052806003906020820280368337509192915050565b60405180608001604052806004906020820280368337509192915050565b60006020828403121561095157600080fd5b81356001600160a01b038116811461096857600080fd5b9392505050565b634e487b7160e01b600052604160045260246000fd5b604051608081016001600160401b03811182821017156109a7576109a761096f565b60405290565b60405160c081016001600160401b03811182821017156109a7576109a761096f565b60405160e081016001600160401b03811182821017156109a7576109a761096f565b60405161016081016001600160401b03811182821017156109a7576109a761096f565b604051601f8201601f191681016001600160401b0381118282101715610a3c57610a3c61096f565b604052919050565b80358015158114610a5457600080fd5b919050565b6000610a656080610a14565b9050806080830184811115610a7957600080fd5b835b81811015610a93578035835260209283019201610a7b565b50505092915050565b600082601f830112610aad57600080fd5b610ab76060610a14565b806060840185811115610ac957600080fd5b845b81811015610aea57610adc81610a44565b845260209384019301610acb565b509095945050505050565b600082601f830112610b0657600080fd5b6000610b126040610a14565b9050806040840185811115610b2657600080fd5b845b81811015610b40578035835260209283019201610b28565b509195945050505050565b600082601f830112610b5c57600080fd5b60006102a0610b6a81610a14565b915083018185821115610b7c57600080fd5b845b82811015610b40578035825260209182019101610b7e565b60006103a08284031215610ba957600080fd5b610bb1610985565b9050610bbd8383610af5565b815282605f830112610bce57600080fd5b6040610bd981610a14565b8060c0850186811115610beb57600080fd5b8386015b81811015610c1057610c018882610af5565b84526020909301928401610bef565b50816020860152610c218782610af5565b8486015250505050610c37836101008401610b4b565b606082015292915050565b60006001600160401b03821115610c5b57610c5b61096f565b5060051b60200190565b600082601f830112610c7657600080fd5b8135610c89610c8482610c42565b610a14565b8082825260208201915060208360051b860101925085831115610cab57600080fd5b602085015b83811015610cd5578035600b8110610cc757600080fd5b835260209283019201610cb0565b5095945050505050565b6000806000838503610520811215610cf657600080fd5b843593506104e0601f1982011215610d0d57600080fd5b50610d166109ad565b610d2260208601610a44565b815260408501356020820152610d3a60608601610a44565b604082015285609f860112610d4e57600080fd5b610d5b8660808701610a59565b6060820152610d6e866101008701610a9c565b6080820152610d81866101608701610b96565b60a082015291506105008401356001600160401b03811115610da257600080fd5b610dae86828701610c65565b9150509250925092565b60005b83811015610dd3578181015183820152602001610dbb565b50506000910152565b60008151808452610df4816020860160208601610db8565b601f01601f19169290920160200192915050565b600082825180855260208501945060208160051b8301016020850160005b83811015610e5857601f19858403018852610e42838351610ddc565b6020988901989093509190910190600101610e26565b50909695505050505050565b60608152600084516101606060840152610e826101c0840182610ddc565b90506020860151605f19848303016080850152610e9f8282610e08565b9150506040860151605f198483030160a0850152610ebd8282610ddc565b9150506060860151605f198483030160c0850152610edb8282610ddc565b9150506080860151605f198483030160e0850152610ef98282610ddc565b91505060a0860151605f1984830301610100850152610f188282610ddc565b91505060c0860151605f1984830301610120850152610f378282610ddc565b91505060e08601516101408401526101008601516101608401526101208601516101808401526101408601516101a0840152610f77602084018615159052565b8281036040840152610f898185610ddc565b9695505050505050565b8060005b6003811015610fb85781511515845260209384019390910190600101610f97565b50505050565b8060005b6002811015610fb8578151845260209384019390910190600101610fc2565b610fec828251610fbe565b60208101516040830160005b60028110156110225761100c828451610fbe565b6020929092019160409190910190600101610ff8565b505050604081015161103760c0840182610fbe565b506060810151610100830160005b6015811015611064578251825260209283019290910190600101611045565b5050505050565b60006104e0820190508251151582526020830151602083015260408301511515604083015260608301516060830160005b60048110156110bb57825182526020928301929091019060010161109c565b50505060808301516110d060e0840182610f93565b5060a08301516110e4610140840182610fe1565b5092915050565b60006110f76060610a14565b905080606083018481111561110b57600080fd5b835b81811015610a9357805183526020928301920161110d565b600082601f83011261113657600080fd5b60006111426080610a14565b905080608084018581111561115657600080fd5b845b81811015610b40578051835260209283019201611158565b600061018082840312801561118457600080fd5b50600061118f6109cf565b835181526020808501519082015260408085015190820152606080850151908201526080808501519082015260bf840185136111c9578182fd5b6111d68560a086016110eb565b60a08201526111e9856101008601611125565b60c0820152949350505050565b60006020828403121561120857600080fd5b5051919050565b6000608082018285835b6003811015611238578151835260209283019290910190600101611219565b50506080606085015250835190819052602084019060a084019060005b81811015610e58578351600b811061127d57634e487b7160e01b600052602160045260246000fd5b835260209384019390920191600101611255565b600082601f8301126112a257600080fd5b81516001600160401b038111156112bb576112bb61096f565b6112ce601f8201601f1916602001610a14565b8181528460208386010111156112e357600080fd5b6112f4826020830160208701610db8565b949350505050565b600082601f83011261130d57600080fd5b815161131b610c8482610c42565b8082825260208201915060208360051b86010192508583111561133d57600080fd5b602085015b83811015610cd55780516001600160401b0381111561136057600080fd5b61136f886020838a0101611291565b84525060209283019201611342565b60006020828403121561139057600080fd5b81516001600160401b038111156113a657600080fd5b820161016081850312156113b957600080fd5b6113c16109f1565b81516001600160401b038111156113d757600080fd5b6113e386828501611291565b82525060208201516001600160401b038111156113ff57600080fd5b61140b868285016112fc565b60208301525060408201516001600160401b0381111561142a57600080fd5b61143686828501611291565b60408301525060608201516001600160401b0381111561145557600080fd5b61146186828501611291565b60608301525060808201516001600160401b0381111561148057600080fd5b61148c86828501611291565b60808301525060a08201516001600160401b038111156114ab57600080fd5b6114b786828501611291565b60a08301525060c08201516001600160401b038111156114d657600080fd5b6114e286828501611291565b60c08301525060e08281015190820152610100808301519082015261012080830151908201526101409182015191810191909152939250505056fea164736f6c634300081c000a",
  "linkReferences": {},
  "deployedLinkReferences": {}
}