{
  "_format": "hh-sol-artifact-1",
  "contractName": "IdentityVerificationHubImplV1",
  "sourceName": "contracts/IdentityVerificationHubImplV1.sol",
  "abi": [
    {
      "inputs": [],
      "stateMutability": "nonpayable",
      "type": "constructor"
    },
    {
      "inputs": [
        {
          "internalType": "address",
          "name": "target",
          "type": "address"
        }
      ],
      "name": "AddressEmptyCode",
      "type": "error"
    },
    {
      "inputs": [],
      "name": "CURRENT_DATE_NOT_IN_VALID_RANGE",
      "type": "error"
    },
    {
      "inputs": [
        {
          "internalType": "address",
          "name": "implementation",
          "type": "address"
        }
      ],
      "name": "ERC1967InvalidImplementation",
      "type": "error"
    },
    {
      "inputs": [],
      "name": "ERC1967NonPayable",
      "type": "error"
    },
    {
      "inputs": [],
      "name": "FailedCall",
      "type": "error"
    },
    {
      "inputs": [],
      "name": "INSUFFICIENT_CHARCODE_LEN",
      "type": "error"
    },
    {
      "inputs": [],
      "name": "INVALID_COMMITMENT_ROOT",
      "type": "error"
    },
    {
      "inputs": [],
      "name": "INVALID_CSCA_ROOT",
      "type": "error"
    },
    {
      "inputs": [],
      "name": "INVALID_DSC_PROOF",
      "type": "error"
    },
    {
      "inputs": [],
      "name": "INVALID_FORBIDDEN_COUNTRIES",
      "type": "error"
    },
    {
      "inputs": [],
      "name": "INVALID_OFAC",
      "type": "error"
    },
    {
      "inputs": [],
      "name": "INVALID_OFAC_ROOT",
      "type": "error"
    },
    {
      "inputs": [],
      "name": "INVALID_OLDER_THAN",
      "type": "error"
    },
    {
      "inputs": [],
      "name": "INVALID_REGISTER_PROOF",
      "type": "error"
    },
    {
      "inputs": [],
      "name": "INVALID_REVEALED_DATA_TYPE",
      "type": "error"
    },
    {
      "inputs": [],
      "name": "INVALID_VC_AND_DISCLOSE_PROOF",
      "type": "error"
    },
    {
      "inputs": [],
      "name": "InvalidDateDigit",
      "type": "error"
    },
    {
      "inputs": [],
      "name": "InvalidDateLength",
      "type": "error"
    },
    {
      "inputs": [],
      "name": "InvalidDayRange",
      "type": "error"
    },
    {
      "inputs": [],
      "name": "InvalidFieldElement",
      "type": "error"
    },
    {
      "inputs": [],
      "name": "InvalidInitialization",
      "type": "error"
    },
    {
      "inputs": [],
      "name": "InvalidMonthRange",
      "type": "error"
    },
    {
      "inputs": [],
      "name": "InvalidYearRange",
      "type": "error"
    },
    {
      "inputs": [],
      "name": "LENGTH_MISMATCH",
      "type": "error"
    },
    {
      "inputs": [],
      "name": "NO_VERIFIER_SET",
      "type": "error"
    },
    {
      "inputs": [],
      "name": "NotInitializing",
      "type": "error"
    },
    {
      "inputs": [
        {
          "internalType": "address",
          "name": "owner",
          "type": "address"
        }
      ],
      "name": "OwnableInvalidOwner",
      "type": "error"
    },
    {
      "inputs": [
        {
          "internalType": "address",
          "name": "account",
          "type": "address"
        }
      ],
      "name": "OwnableUnauthorizedAccount",
      "type": "error"
    },
    {
      "inputs": [],
      "name": "UUPSUnauthorizedCallContext",
      "type": "error"
    },
    {
      "inputs": [
        {
          "internalType": "bytes32",
          "name": "slot",
          "type": "bytes32"
        }
      ],
      "name": "UUPSUnsupportedProxiableUUID",
      "type": "error"
    },
    {
      "anonymous": false,
      "inputs": [
        {
          "indexed": false,
          "internalType": "uint256",
          "name": "typeId",
          "type": "uint256"
        },
        {
          "indexed": false,
          "internalType": "address",
          "name": "verifier",
          "type": "address"
        }
      ],
      "name": "DscCircuitVerifierUpdated",
      "type": "event"
    },
    {
      "anonymous": false,
      "inputs": [
        {
          "indexed": false,
          "internalType": "address",
          "name": "registry",
          "type": "address"
        },
        {
          "indexed": false,
          "internalType": "address",
          "name": "vcAndDiscloseCircuitVerifier",
          "type": "address"
        },
        {
          "indexed": false,
          "internalType": "uint256[]",
          "name": "registerCircuitVerifierIds",
          "type": "uint256[]"
        },
        {
          "indexed": false,
          "internalType": "address[]",
          "name": "registerCircuitVerifiers",
          "type": "address[]"
        },
        {
          "indexed": false,
          "internalType": "uint256[]",
          "name": "dscCircuitVerifierIds",
          "type": "uint256[]"
        },
        {
          "indexed": false,
          "internalType": "address[]",
          "name": "dscCircuitVerifiers",
          "type": "address[]"
        }
      ],
      "name": "HubInitialized",
      "type": "event"
    },
    {
      "anonymous": false,
      "inputs": [
        {
          "indexed": false,
          "internalType": "uint64",
          "name": "version",
          "type": "uint64"
        }
      ],
      "name": "Initialized",
      "type": "event"
    },
    {
      "anonymous": false,
      "inputs": [
        {
          "indexed": true,
          "internalType": "address",
          "name": "previousOwner",
          "type": "address"
        },
        {
          "indexed": true,
          "internalType": "address",
          "name": "newOwner",
          "type": "address"
        }
      ],
      "name": "OwnershipTransferStarted",
      "type": "event"
    },
    {
      "anonymous": false,
      "inputs": [
        {
          "indexed": true,
          "internalType": "address",
          "name": "previousOwner",
          "type": "address"
        },
        {
          "indexed": true,
          "internalType": "address",
          "name": "newOwner",
          "type": "address"
        }
      ],
      "name": "OwnershipTransferred",
      "type": "event"
    },
    {
      "anonymous": false,
      "inputs": [
        {
          "indexed": false,
          "internalType": "uint256",
          "name": "typeId",
          "type": "uint256"
        },
        {
          "indexed": false,
          "internalType": "address",
          "name": "verifier",
          "type": "address"
        }
      ],
      "name": "RegisterCircuitVerifierUpdated",
      "type": "event"
    },
    {
      "anonymous": false,
      "inputs": [
        {
          "indexed": false,
          "internalType": "address",
          "name": "registry",
          "type": "address"
        }
      ],
      "name": "RegistryUpdated",
      "type": "event"
    },
    {
      "anonymous": false,
      "inputs": [
        {
          "indexed": true,
          "internalType": "address",
          "name": "implementation",
          "type": "address"
        }
      ],
      "name": "Upgraded",
      "type": "event"
    },
    {
      "anonymous": false,
      "inputs": [
        {
          "indexed": false,
          "internalType": "address",
          "name": "vcAndDiscloseCircuitVerifier",
          "type": "address"
        }
      ],
      "name": "VcAndDiscloseCircuitUpdated",
      "type": "event"
    },
    {
      "inputs": [],
      "name": "UPGRADE_INTERFACE_VERSION",
      "outputs": [
        {
          "internalType": "string",
          "name": "",
          "type": "string"
        }
      ],
      "stateMutability": "view",
      "type": "function"
    },
    {
      "inputs": [],
      "name": "acceptOwnership",
      "outputs": [],
      "stateMutability": "nonpayable",
      "type": "function"
    },
    {
      "inputs": [
        {
          "internalType": "uint256[]",
          "name": "typeIds",
          "type": "uint256[]"
        },
        {
          "internalType": "address[]",
          "name": "verifierAddresses",
          "type": "address[]"
        }
      ],
      "name": "batchUpdateDscCircuitVerifiers",
      "outputs": [],
      "stateMutability": "nonpayable",
      "type": "function"
    },
    {
      "inputs": [
        {
          "internalType": "uint256[]",
          "name": "typeIds",
          "type": "uint256[]"
        },
        {
          "internalType": "address[]",
          "name": "verifierAddresses",
          "type": "address[]"
        }
      ],
      "name": "batchUpdateRegisterCircuitVerifiers",
      "outputs": [],
      "stateMutability": "nonpayable",
      "type": "function"
    },
    {
      "inputs": [
        {
          "internalType": "uint256[4]",
          "name": "forbiddenCountriesListPacked",
          "type": "uint256[4]"
        }
      ],
      "name": "getReadableForbiddenCountries",
      "outputs": [
        {
          "internalType": "string[40]",
          "name": "",
          "type": "string[40]"
        }
      ],
      "stateMutability": "view",
      "type": "function"
    },
    {
      "inputs": [
        {
          "internalType": "uint256[3]",
          "name": "revealedDataPacked",
          "type": "uint256[3]"
        },
        {
          "internalType": "enum IIdentityVerificationHubV1.RevealedDataType[]",
          "name": "types",
          "type": "uint8[]"
        }
      ],
      "name": "getReadableRevealedData",
      "outputs": [
        {
          "components": [
            {
              "internalType": "string",
              "name": "issuingState",
              "type": "string"
            },
            {
              "internalType": "string[]",
              "name": "name",
              "type": "string[]"
            },
            {
              "internalType": "string",
              "name": "passportNumber",
              "type": "string"
            },
            {
              "internalType": "string",
              "name": "nationality",
              "type": "string"
            },
            {
              "internalType": "string",
              "name": "dateOfBirth",
              "type": "string"
            },
            {
              "internalType": "string",
              "name": "gender",
              "type": "string"
            },
            {
              "internalType": "string",
              "name": "expiryDate",
              "type": "string"
            },
            {
              "internalType": "uint256",
              "name": "olderThan",
              "type": "uint256"
            },
            {
              "internalType": "uint256",
              "name": "passportNoOfac",
              "type": "uint256"
            },
            {
              "internalType": "uint256",
              "name": "nameAndDobOfac",
              "type": "uint256"
            },
            {
              "internalType": "uint256",
              "name": "nameAndYobOfac",
              "type": "uint256"
            }
          ],
          "internalType": "struct IIdentityVerificationHubV1.ReadableRevealedData",
          "name": "",
          "type": "tuple"
        }
      ],
      "stateMutability": "view",
      "type": "function"
    },
    {
      "inputs": [
        {
          "internalType": "address",
          "name": "registryAddress",
          "type": "address"
        },
        {
          "internalType": "address",
          "name": "vcAndDiscloseCircuitVerifierAddress",
          "type": "address"
        },
        {
          "internalType": "uint256[]",
          "name": "registerCircuitVerifierIds",
          "type": "uint256[]"
        },
        {
          "internalType": "address[]",
          "name": "registerCircuitVerifierAddresses",
          "type": "address[]"
        },
        {
          "internalType": "uint256[]",
          "name": "dscCircuitVerifierIds",
          "type": "uint256[]"
        },
        {
          "internalType": "address[]",
          "name": "dscCircuitVerifierAddresses",
          "type": "address[]"
        }
      ],
      "name": "initialize",
      "outputs": [],
      "stateMutability": "nonpayable",
      "type": "function"
    },
    {
      "inputs": [],
      "name": "owner",
      "outputs": [
        {
          "internalType": "address",
          "name": "",
          "type": "address"
        }
      ],
      "stateMutability": "view",
      "type": "function"
    },
    {
      "inputs": [],
      "name": "pendingOwner",
      "outputs": [
        {
          "internalType": "address",
          "name": "",
          "type": "address"
        }
      ],
      "stateMutability": "view",
      "type": "function"
    },
    {
      "inputs": [],
      "name": "proxiableUUID",
      "outputs": [
        {
          "internalType": "bytes32",
          "name": "",
          "type": "bytes32"
        }
      ],
      "stateMutability": "view",
      "type": "function"
    },
    {
      "inputs": [
        {
          "internalType": "uint256",
          "name": "dscCircuitVerifierId",
          "type": "uint256"
        },
        {
          "components": [
            {
              "internalType": "uint256[2]",
              "name": "a",
              "type": "uint256[2]"
            },
            {
              "internalType": "uint256[2][2]",
              "name": "b",
              "type": "uint256[2][2]"
            },
            {
              "internalType": "uint256[2]",
              "name": "c",
              "type": "uint256[2]"
            },
            {
              "internalType": "uint256[2]",
              "name": "pubSignals",
              "type": "uint256[2]"
            }
          ],
          "internalType": "struct IDscCircuitVerifier.DscCircuitProof",
          "name": "dscCircuitProof",
          "type": "tuple"
        }
      ],
      "name": "registerDscKeyCommitment",
      "outputs": [],
      "stateMutability": "nonpayable",
      "type": "function"
    },
    {
      "inputs": [
        {
          "internalType": "uint256",
          "name": "registerCircuitVerifierId",
          "type": "uint256"
        },
        {
          "components": [
            {
              "internalType": "uint256[2]",
              "name": "a",
              "type": "uint256[2]"
            },
            {
              "internalType": "uint256[2][2]",
              "name": "b",
              "type": "uint256[2][2]"
            },
            {
              "internalType": "uint256[2]",
              "name": "c",
              "type": "uint256[2]"
            },
            {
              "internalType": "uint256[3]",
              "name": "pubSignals",
              "type": "uint256[3]"
            }
          ],
          "internalType": "struct IRegisterCircuitVerifier.RegisterCircuitProof",
          "name": "registerCircuitProof",
          "type": "tuple"
        }
      ],
      "name": "registerPassportCommitment",
      "outputs": [],
      "stateMutability": "nonpayable",
      "type": "function"
    },
    {
      "inputs": [],
      "name": "registry",
      "outputs": [
        {
          "internalType": "address",
          "name": "",
          "type": "address"
        }
      ],
      "stateMutability": "view",
      "type": "function"
    },
    {
      "inputs": [],
      "name": "renounceOwnership",
      "outputs": [],
      "stateMutability": "nonpayable",
      "type": "function"
    },
    {
      "inputs": [
        {
          "internalType": "uint256",
          "name": "typeId",
          "type": "uint256"
        }
      ],
      "name": "sigTypeToDscCircuitVerifiers",
      "outputs": [
        {
          "internalType": "address",
          "name": "",
          "type": "address"
        }
      ],
      "stateMutability": "view",
      "type": "function"
    },
    {
      "inputs": [
        {
          "internalType": "uint256",
          "name": "typeId",
          "type": "uint256"
        }
      ],
      "name": "sigTypeToRegisterCircuitVerifiers",
      "outputs": [
        {
          "internalType": "address",
          "name": "",
          "type": "address"
        }
      ],
      "stateMutability": "view",
      "type": "function"
    },
    {
      "inputs": [
        {
          "internalType": "address",
          "name": "newOwner",
          "type": "address"
        }
      ],
      "name": "transferOwnership",
      "outputs": [],
      "stateMutability": "nonpayable",
      "type": "function"
    },
    {
      "inputs": [
        {
          "internalType": "uint256",
          "name": "typeId",
          "type": "uint256"
        },
        {
          "internalType": "address",
          "name": "verifierAddress",
          "type": "address"
        }
      ],
      "name": "updateDscVerifier",
      "outputs": [],
      "stateMutability": "nonpayable",
      "type": "function"
    },
    {
      "inputs": [
        {
          "internalType": "uint256",
          "name": "typeId",
          "type": "uint256"
        },
        {
          "internalType": "address",
          "name": "verifierAddress",
          "type": "address"
        }
      ],
      "name": "updateRegisterCircuitVerifier",
      "outputs": [],
      "stateMutability": "nonpayable",
      "type": "function"
    },
    {
      "inputs": [
        {
          "internalType": "address",
          "name": "registryAddress",
          "type": "address"
        }
      ],
      "name": "updateRegistry",
      "outputs": [],
      "stateMutability": "nonpayable",
      "type": "function"
    },
    {
      "inputs": [
        {
          "internalType": "address",
          "name": "vcAndDiscloseCircuitVerifierAddress",
          "type": "address"
        }
      ],
      "name": "updateVcAndDiscloseCircuit",
      "outputs": [],
      "stateMutability": "nonpayable",
      "type": "function"
    },
    {
      "inputs": [
        {
          "internalType": "address",
          "name": "newImplementation",
          "type": "address"
        },
        {
          "internalType": "bytes",
          "name": "data",
          "type": "bytes"
        }
      ],
      "name": "upgradeToAndCall",
      "outputs": [],
      "stateMutability": "payable",
      "type": "function"
    },
    {
      "inputs": [],
      "name": "vcAndDiscloseCircuitVerifier",
      "outputs": [
        {
          "internalType": "address",
          "name": "",
          "type": "address"
        }
      ],
      "stateMutability": "view",
      "type": "function"
    },
    {
      "inputs": [
        {
          "components": [
            {
              "internalType": "bool",
              "name": "olderThanEnabled",
              "type": "bool"
            },
            {
              "internalType": "uint256",
              "name": "olderThan",
              "type": "uint256"
            },
            {
              "internalType": "bool",
              "name": "forbiddenCountriesEnabled",
              "type": "bool"
            },
            {
              "internalType": "uint256[4]",
              "name": "forbiddenCountriesListPacked",
              "type": "uint256[4]"
            },
            {
              "internalType": "bool[3]",
              "name": "ofacEnabled",
              "type": "bool[3]"
            },
            {
              "components": [
                {
                  "internalType": "uint256[2]",
                  "name": "a",
                  "type": "uint256[2]"
                },
                {
                  "internalType": "uint256[2][2]",
                  "name": "b",
                  "type": "uint256[2][2]"
                },
                {
                  "internalType": "uint256[2]",
                  "name": "c",
                  "type": "uint256[2]"
                },
                {
                  "internalType": "uint256[21]",
                  "name": "pubSignals",
                  "type": "uint256[21]"
                }
              ],
              "internalType": "struct IVcAndDiscloseCircuitVerifier.VcAndDiscloseProof",
              "name": "vcAndDiscloseProof",
              "type": "tuple"
            }
          ],
          "internalType": "struct IIdentityVerificationHubV1.VcAndDiscloseHubProof",
          "name": "proof",
          "type": "tuple"
        }
      ],
      "name": "verifyVcAndDisclose",
      "outputs": [
        {
          "components": [
            {
              "internalType": "uint256",
              "name": "attestationId",
              "type": "uint256"
            },
            {
              "internalType": "uint256",
              "name": "scope",
              "type": "uint256"
            },
            {
              "internalType": "uint256",
              "name": "userIdentifier",
              "type": "uint256"
            },
            {
              "internalType": "uint256",
              "name": "nullifier",
              "type": "uint256"
            },
            {
              "internalType": "uint256",
              "name": "identityCommitmentRoot",
              "type": "uint256"
            },
            {
              "internalType": "uint256[3]",
              "name": "revealedDataPacked",
              "type": "uint256[3]"
            },
            {
              "internalType": "uint256[4]",
              "name": "forbiddenCountriesListPacked",
              "type": "uint256[4]"
            }
          ],
          "internalType": "struct IIdentityVerificationHubV1.VcAndDiscloseVerificationResult",
          "name": "",
          "type": "tuple"
        }
      ],
      "stateMutability": "view",
      "type": "function"
    }
  ],
  "bytecode": "0x60a06040523060805234801561001457600080fd5b5061001d610022565b6100d4565b7ff0c57e16840df040f15088dc2f81fe391c3923bec73e23a9662efc9c229c6a00805468010000000000000000900460ff16156100725760405163f92ee8a960e01b815260040160405180910390fd5b80546001600160401b03908116146100d15780546001600160401b0319166001600160401b0390811782556040519081527fc7f505b2f371ae2175ee4913f4499e1f2633a7b5936321eed1cdaeb6115181d29060200160405180910390a15b50565b6080516140066100fd600039600081816111c0015281816111e901526118bd01526140066000f3fe60806040526004361061014b5760003560e01c806379ba5097116100b6578063e30c39781161006f578063e30c3978146103b7578063e42208af146103cc578063e6db96b7146103ec578063f015f5791461040c578063f2fde38b1461042c578063f559df131461044c57600080fd5b806379ba5097146102e05780637b103999146102f55780638da5cb5b1461030a578063a02592d81461031f578063ad3cb1cc1461034c578063d1ea63a21461038a57600080fd5b806330aec59e1161010857806330aec59e146102405780633d098d8b146102605780634f1ef2861461028057806352d1902d14610293578063715018a6146102b65780637798200a146102cb57600080fd5b806304fcccd1146101505780630ae1b2c0146101725780631a5da6c814610192578063253f254b146101b25780632b26ef50146101d25780632ee85c3e14610208575b600080fd5b34801561015c57600080fd5b5061017061016b3660046131a2565b61046c565b005b34801561017e57600080fd5b5061017061018d36600461323f565b6104fb565b34801561019e57600080fd5b506101706101ad36600461323f565b610560565b3480156101be57600080fd5b506101706101cd36600461325a565b6105be565b3480156101de57600080fd5b506101f26101ed3660046132a9565b610635565b6040516101ff9190613404565b60405180910390f35b34801561021457600080fd5b50610228610223366004613511565b610889565b6040516001600160a01b0390911681526020016101ff565b34801561024c57600080fd5b5061017061025b36600461325a565b6108b2565b34801561026c57600080fd5b5061017061027b36600461352a565b610921565b61017061028e3660046135a0565b61096b565b34801561029f57600080fd5b506102a861098a565b6040519081526020016101ff565b3480156102c257600080fd5b506101706109a7565b3480156102d757600080fd5b506102286109bb565b3480156102ec57600080fd5b506101706109d5565b34801561030157600080fd5b50610228610a22565b34801561031657600080fd5b50610228610a3c565b34801561032b57600080fd5b5061033f61033a36600461367a565b610a71565b6040516101ff9190613696565b34801561035857600080fd5b5061037d604051806040016040528060058152602001640352e302e360dc1b81525081565b6040516101ff91906136db565b34801561039657600080fd5b506103aa6103a53660046137ab565b610a8a565b6040516101ff91906138a5565b3480156103c357600080fd5b50610228610ba5565b3480156103d857600080fd5b506102286103e7366004613511565b610bce565b3480156103f857600080fd5b506101706104073660046139e5565b610bf4565b34801561041857600080fd5b50610170610427366004613b0c565b610eb5565b34801561043857600080fd5b5061017061044736600461323f565b610ff6565b34801561045857600080fd5b50610170610467366004613b0c565b61107b565b6104746111b5565b61047e828261125a565b60325460608201518051602090910151604051634d42ea0560e11b815260016004820152602481019290925260448201526001600160a01b0390911690639a85d40a906064015b600060405180830381600087803b1580156104df57600080fd5b505af11580156104f3573d6000803e3d6000fd5b505050505050565b6105036111b5565b61050b6113ca565b603380546001600160a01b0319166001600160a01b0383169081179091556040519081527f668ec257b00a7e1390c2dc2aed8dc1530b91cd9e36167e4991d705cd3d2fe65e906020015b60405180910390a150565b6105686111b5565b6105706113ca565b603280546001600160a01b0319166001600160a01b0383169081179091556040519081527fd6ceddf6d2a22f21c7c81675c518004eff43bc5c8a6fc32a0b748e69d58671cd90602001610555565b6105c66111b5565b6105ce6113ca565b60008281526034602090815260409182902080546001600160a01b0319166001600160a01b0385169081179091558251858152918201527f2bdbcbf49383457c270bf05734cc8d74acb8a5788f0dc6384a715680f6a4dbcf91015b60405180910390a15050565b61063d612eeb565b6106456111b5565b6000610650846113fc565b905061065a612eeb565b60005b845181101561087e57600085828151811061067a5761067a613b7b565b602002602001015190506000600a81111561069757610697613b91565b81600a8111156106a9576106a9613b91565b036106be576106b784611555565b8352610875565b600181600a8111156106d2576106d2613b91565b036106ea576106e084611564565b6020840152610875565b600281600a8111156106fe576106fe613b91565b036107165761070c8461157b565b6040840152610875565b600381600a81111561072a5761072a613b91565b03610742576107388461158a565b6060840152610875565b600481600a81111561075657610756613b91565b0361076e5761076484611599565b6080840152610875565b600581600a81111561078257610782613b91565b0361079a57610790846115b0565b60a0840152610875565b600681600a8111156107ae576107ae613b91565b036107c6576107bc846115be565b60c0840152610875565b600781600a8111156107da576107da613b91565b036107f2576107e8846115d0565b60e0840152610875565b600881600a81111561080657610806613b91565b0361081f576108148461162a565b610100840152610875565b600981600a81111561083357610833613b91565b0361084c576108418461164d565b610120840152610875565b600a81600a81111561086057610860613b91565b036108755761086e8461166c565b6101408401525b5060010161065d565b509150505b92915050565b60006108936111b5565b506000818152603560205260409020546001600160a01b03165b919050565b6108ba6111b5565b6108c26113ca565b60008281526035602090815260409182902080546001600160a01b0319166001600160a01b0385169081179091558251858152918201527f02c7aeb52f414fb9b4dfa6100f38185b5e12b184349218c18700bc39423bedc99101610629565b6109296111b5565b610933828261167b565b6032546060820151516040516322292bed60e11b815260048101919091526001600160a01b039091169063445257da906024016104c5565b6109736111b5565b61097c826117e5565b61098682826117f5565b5050565b60006109946118b2565b50600080516020613fba83398151915290565b6109af6113ca565b6109b960006118fb565b565b60006109c56111b5565b506033546001600160a01b031690565b33806109df610ba5565b6001600160a01b031614610a165760405163118cdaa760e01b81526001600160a01b03821660048201526024015b60405180910390fd5b610a1f816118fb565b50565b6000610a2c6111b5565b506032546001600160a01b031690565b6000807f9016d09d72d40fdae2fd8ceac6b6234c7706214fd39c1cd1e609a0528c1993005b546001600160a01b031692915050565b610a79612f45565b610a816111b5565b61088382611933565b610a92612f6d565b610a9a6111b5565b610aa2612f6d565b610aab83611bac565b608082015260005b6003811015610b085760a084015160600151610ad0826000613bbd565b60158110610ae057610ae0613b7b565b60200201518260a001518260038110610afb57610afb613b7b565b6020020152600101610ab3565b5060005b6004811015610b615760a084015160600151610b29826003613bbd565b60158110610b3957610b39613b7b565b60200201518260c001518260048110610b5457610b54613b7b565b6020020152600101610b0c565b5060a092909201805160609081015160e001518482015281518101516101000151845281518101516102800151604085015290510151610260015160208301525090565b6000807f237e158222e3e6968b72b9db0d8043aacf074ad9f650f0d1606b4d82ee432c00610a61565b6000610bd86111b5565b506000908152603460205260409020546001600160a01b031690565b7ff0c57e16840df040f15088dc2f81fe391c3923bec73e23a9662efc9c229c6a008054600160401b810460ff1615906001600160401b0316600081158015610c395750825b90506000826001600160401b03166001148015610c555750303b155b905081158015610c63575080155b15610c815760405163f92ee8a960e01b815260040160405180910390fd5b845467ffffffffffffffff191660011785558315610cab57845460ff60401b1916600160401b1785555b610cb3612014565b603280546001600160a01b03808e166001600160a01b03199283161790925560338054928d16929091169190911790558751895114610d055760405163899ef10d60e01b815260040160405180910390fd5b8551875114610d275760405163899ef10d60e01b815260040160405180910390fd5b60005b8951811015610da357888181518110610d4557610d45613b7b565b6020026020010151603460008c8481518110610d6357610d63613b7b565b602090810291909101810151825281019190915260400160002080546001600160a01b0319166001600160a01b0392909216919091179055600101610d2a565b5060005b8751811015610e2057868181518110610dc257610dc2613b7b565b6020026020010151603560008a8481518110610de057610de0613b7b565b602090810291909101810151825281019190915260400160002080546001600160a01b0319166001600160a01b0392909216919091179055600101610da7565b507f5a70813cf1b6cd11d1164e9788f7d124185bf692c3197538d52d6067953d318f8b8b8b8b8b8b604051610e5a96959493929190613c47565b60405180910390a18315610ea857845460ff60401b19168555604051600181527fc7f505b2f371ae2175ee4913f4499e1f2633a7b5936321eed1cdaeb6115181d29060200160405180910390a15b5050505050505050505050565b610ebd6111b5565b610ec56113ca565b828114610ee55760405163899ef10d60e01b815260040160405180910390fd5b60005b83811015610fef57828282818110610f0257610f02613b7b565b9050602002016020810190610f17919061323f565b60356000878785818110610f2d57610f2d613b7b565b90506020020135815260200190815260200160002060006101000a8154816001600160a01b0302191690836001600160a01b031602179055507f02c7aeb52f414fb9b4dfa6100f38185b5e12b184349218c18700bc39423bedc9858583818110610f9957610f99613b7b565b90506020020135848484818110610fb257610fb2613b7b565b9050602002016020810190610fc7919061323f565b604080519283526001600160a01b0390911660208301520160405180910390a1600101610ee8565b5050505050565b610ffe6113ca565b7f237e158222e3e6968b72b9db0d8043aacf074ad9f650f0d1606b4d82ee432c0080546001600160a01b0319166001600160a01b0383169081178255611042610a3c565b6001600160a01b03167f38d16b8cac22d99fc7c124b9cd0de2d3fa1faef420bfe791d8c362d765e2270060405160405180910390a35050565b6110836111b5565b61108b6113ca565b8281146110ab5760405163899ef10d60e01b815260040160405180910390fd5b60005b83811015610fef578282828181106110c8576110c8613b7b565b90506020020160208101906110dd919061323f565b603460008787858181106110f3576110f3613b7b565b90506020020135815260200190815260200160002060006101000a8154816001600160a01b0302191690836001600160a01b031602179055507f2bdbcbf49383457c270bf05734cc8d74acb8a5788f0dc6384a715680f6a4dbcf85858381811061115f5761115f613b7b565b9050602002013584848481811061117857611178613b7b565b905060200201602081019061118d919061323f565b604080519283526001600160a01b0390911660208301520160405180910390a16001016110ae565b306001600160a01b037f000000000000000000000000000000000000000000000000000000000000000016148061123c57507f00000000000000000000000000000000000000000000000000000000000000006001600160a01b0316611230600080516020613fba833981519152546001600160a01b031690565b6001600160a01b031614155b156109b95760405163703e46dd60e11b815260040160405180910390fd5b6000828152603460205260409020546001600160a01b031680611290576040516347393fa360e11b815260040160405180910390fd5b60325460608301516040908101519051639fc1e42360e01b815260048101919091526001600160a01b0390911690639fc1e42390602401602060405180830381865afa1580156112e4573d6000803e3d6000fd5b505050506040513d601f19601f820116820180604052508101906113089190613cba565b61132557604051635290660160e01b815260040160405180910390fd5b806001600160a01b03166311479fea83600001518460200151856040015186606001516040518563ffffffff1660e01b81526004016113679493929190613d28565b602060405180830381865afa158015611384573d6000803e3d6000fd5b505050506040513d601f19601f820116820180604052508101906113a89190613cba565b6113c557604051639003ac4d60e01b815260040160405180910390fd5b505050565b336113d3610a3c565b6001600160a01b0316146109b95760405163118cdaa760e01b8152336004820152602401610a0d565b8051606090600080516020613fda83398151915211158061142f57506020820151600080516020613fda83398151915211155b8061144c57506040820151600080516020613fda83398151915211155b1561146a57604051633ae4ed6b60e01b815260040160405180910390fd5b60408051606081018252601f80825260208201819052818301528151605d808252608082019093529091600091906020820181803683370190505090506000805b600381101561154b5760008682600381106114c8576114c8613b7b565b6020020151905060005b8583600381106114e4576114e4613b7b565b602002015160ff168160ff161015611541578160ff1660f81b85858061150990613d5f565b96508151811061151b5761151b613b7b565b60200101906001600160f81b031916908160001a90535060089190911c906001016114d2565b50506001016114ab565b5090949350505050565b6060610883826002600461202d565b6060610883611576836005602b61202d565b612124565b606061088382602c603461202d565b6060610883826036603861202d565b60606108836115ab836039603e61202d565b61233a565b60606108838260408061202d565b60606108836115ab836041604661202d565b60006115ff826115e260586001613bbd565b815181106115f2576115f2613b7b565b016020015160f81c61250d565b611615836058815181106115f2576115f2613b7b565b61162090600a613d78565b6108839190613bbd565b600081605a8151811061163f5761163f613b7b565b016020015160f81c92915050565b60008161165c605a6001613bbd565b8151811061163f5761163f613b7b565b60008161165c605a6002613bbd565b6000828152603560205260409020546001600160a01b0316806116b1576040516347393fa360e11b815260040160405180910390fd5b603254606083015160200151604051631465ff7f60e01b815260048101919091526001600160a01b0390911690631465ff7f90602401602060405180830381865afa158015611704573d6000803e3d6000fd5b505050506040513d601f19601f820116820180604052508101906117289190613cba565b611745576040516328a52b4f60e21b815260040160405180910390fd5b806001600160a01b031663f5c9d69e83600001518460200151856040015186606001516040518563ffffffff1660e01b81526004016117879493929190613d8f565b602060405180830381865afa1580156117a4573d6000803e3d6000fd5b505050506040513d601f19601f820116820180604052508101906117c89190613cba565b6113c5576040516335436ebb60e11b815260040160405180910390fd5b6117ed6111b5565b610a1f6113ca565b816001600160a01b03166352d1902d6040518163ffffffff1660e01b8152600401602060405180830381865afa92505050801561184f575060408051601f3d908101601f1916820190925261184c91810190613dc6565b60015b61187757604051634c9c8ce360e01b81526001600160a01b0383166004820152602401610a0d565b600080516020613fba83398151915281146118a857604051632a87526960e21b815260048101829052602401610a0d565b6113c5838361251a565b306001600160a01b037f000000000000000000000000000000000000000000000000000000000000000016146109b95760405163703e46dd60e11b815260040160405180910390fd5b7f237e158222e3e6968b72b9db0d8043aacf074ad9f650f0d1606b4d82ee432c0080546001600160a01b031916815561098682612570565b61193b612f45565b60005b600481101561199357600080516020613fda83398151915283826004811061196857611968613b7b565b60200201511061198b57604051633ae4ed6b60e01b815260040160405180910390fd5b60010161193e565b5060005b6028811015611ba65760006119ad826003613d78565b905060206119bc826002613bbd565b1015611a285760006119cf826008613d78565b855160405190821c60e881901b6001600160e81b031916602083015291925062ffffff91821690602301604051602081830303815290604052868660288110611a1a57611a1a613b7b565b602002015250611b9d915050565b6020811015611b1b576000611a3e826020613ddf565b90506000611a4d826003613ddf565b90506000611a5c846008613d78565b905060006001611a6d856008613d78565b6001901b611a7b9190613ddf565b8851909150821c81166000806001611a94876008613d78565b6001901b611aa29190613ddf565b60208c0151909150821c8116600084611abc8a6008613d78565b83901b17905080604051602001611ae6919060e89190911b6001600160e81b031916815260030190565b6040516020818303038152906040528c8c60288110611b0757611b07613b7b565b602002015250611b9d975050505050505050565b6000611b28602083613ddf565b90506000611b37826008613d78565b905062ffffff600081838960016020020151901c16905080604051602001611b72919060e89190911b6001600160e81b031916815260030190565b604051602081830303815290604052878760288110611b9357611b93613b7b565b6020020152505050505b50600101611997565b50919050565b60325460a0820151606001516101200151604051631fa0bd9b60e31b815260048101919091526000916001600160a01b03169063fd05ecd890602401602060405180830381865afa158015611c05573d6000803e3d6000fd5b505050506040513d601f19601f82011682018060405250810190611c299190613cba565b611c4657604051635290660160e01b815260040160405180910390fd5b611c4e612fb5565b60005b6006811015611ca25760a084015160600151611c6e82600a613bbd565b60158110611c7e57611c7e613b7b565b6020020151828260068110611c9557611c95613b7b565b6020020152600101611c51565b506000611cae826125e1565b905062015180611cbc6126ba565b611cc69190613ddf565b611cd1906001613bbd565b811080611cfd57506001611ce36126ba565b611cf09062015180613bbd565b611cfa9190613ddf565b81115b15611d1b5760405163ed8cf9ff60e01b815260040160405180910390fd5b611d23612fd3565b60005b6003811015611d775760a086015160600151611d43826000613bbd565b60158110611d5357611d53613b7b565b6020020151828260038110611d6a57611d6a613b7b565b6020020152600101611d26565b50845115611db257611d95611d8b826113fc565b86602001516126d8565b611db25760405163f0e539b960e01b815260040160405180910390fd5b60808501515180611dc857506080850151602001515b80611dd857506080850151604001515b15611ed757611e03611de9826113fc565b6080870151805160208201516040909201519091906126ed565b611e20576040516371b125ed60e01b815260040160405180910390fd5b60325460a0860151606001516102008101516102208201516102409092015160405163935fc12160e01b81526004810192909252602482019290925260448101919091526001600160a01b039091169063935fc12190606401602060405180830381865afa158015611e96573d6000803e3d6000fd5b505050506040513d601f19601f82011682018060405250810190611eba9190613cba565b611ed757604051630e71e9e560e11b815260040160405180910390fd5b846040015115611f595760005b6004811015611f575760a086015160600151611f01826003613bbd565b60158110611f1157611f11613b7b565b602002015186606001518260048110611f2c57611f2c613b7b565b602002015114611f4f57604051632fc86c4760e21b815260040160405180910390fd5b600101611ee4565b505b60335460a0860151805160208201516040808401516060909401519051632ef5e03f60e11b81526001600160a01b0390951694635debc07e94611fa29493929091600401613df2565b602060405180830381865afa158015611fbf573d6000803e3d6000fd5b505050506040513d601f19601f82011682018060405250810190611fe39190613cba565b61200057604051636a69bd3d60e11b815260040160405180910390fd5b5050505060a0015160600151610120015190565b61201c612745565b6120253361278e565b6109b961279f565b6060818451116120505760405163fe9a439f60e01b815260040160405180910390fd5b600061205c8484613ddf565b612067906001613bbd565b6001600160401b0381111561207e5761207e61302e565b6040519080825280601f01601f1916602001820160405280156120a8576020820181803683370190505b509050835b838111612119578581815181106120c6576120c6613b7b565b01602001516001600160f81b031916826120e08784613ddf565b815181106120f0576120f0613b7b565b60200101906001600160f81b031916908160001a9053508061211181613d5f565b9150506120ad565b5090505b9392505050565b6040805160028082526060828101909352839183918291600091816020015b606081526020019060019003908161214357905050905060005b845181108015612192575084818151811061217a5761217a613b7b565b6020910101516001600160f81b031916600f60fa1b14155b156121ea57828582815181106121aa576121aa613b7b565b602001015160f81c60f81b6040516020016121c6929190613e4f565b604051602081830303815290604052925080806121e290613d5f565b91505061215d565b6121f5600282613bbd565b90505b84518110156122f25784818151811061221357612213613b7b565b01602001516001600160f81b031916600f60fa1b0361229f578451612239826001613bbd565b10801561227457508461224d826001613bbd565b8151811061225d5761225d613b7b565b6020910101516001600160f81b031916600f60fa1b145b6122f257836040516020016122899190613e7e565b60405160208183030381529060405293506122e0565b838582815181106122b2576122b2613b7b565b602001015160f81c60f81b6040516020016122ce929190613e4f565b60405160208183030381529060405293505b806122ea81613d5f565b9150506121f8565b838260008151811061230657612306613b7b565b6020026020010181905250828260018151811061232557612325613b7b565b60209081029190910101525095945050505050565b805160609082906006146123615760405163b337595360e01b815260040160405180910390fd5b603160f81b8160028151811061237957612379613b7b565b01602001516001600160f81b03191611806123e85750806002815181106123a2576123a2613b7b565b6020910101516001600160f81b031916603160f81b1480156123e85750601960f91b816003815181106123d7576123d7613b7b565b01602001516001600160f81b031916115b15612406576040516304bcc4f160e31b815260040160405180910390fd5b603360f81b8160048151811061241e5761241e613b7b565b01602001516001600160f81b031916118061248d57508060048151811061244757612447613b7b565b6020910101516001600160f81b031916603360f81b14801561248d5750603160f81b8160058151811061247c5761247c613b7b565b01602001516001600160f81b031916115b156124ab57604051638930acef60e01b815260040160405180910390fd5b60006124ba84600060026127a7565b905060006124cb85600260046127a7565b905060006124dc86600460066127a7565b90508082846040516020016124f393929190613ea3565b604051602081830303815290604052945050505050919050565b6000610883603083613ddf565b61252382612869565b6040516001600160a01b038316907fbc7cd75a20ee27fd9adebab32041f755214dbc6bffa90cc0225b39da2e5c2d3b90600090a2805115612568576113c582826128ce565b61098661293b565b7f9016d09d72d40fdae2fd8ceac6b6234c7706214fd39c1cd1e609a0528c19930080546001600160a01b031981166001600160a01b03848116918217845560405192169182907f8be0079c531659141344cd1fd0a4f28419497f9722a3daafe3b4186f6b6457e090600090a3505050565b6000805b600681101561262e57600983826006811061260257612602613b7b565b60200201511115612626576040516305ebe05560e21b815260040160405180910390fd5b6001016125e5565b50604080516020810190915260008082525b60068110156126a65781600a85836006811061265e5761265e613b7b565b602002015161266d9190613f02565b612678906030613bbd565b60f81b60405160200161268c929190613e4f565b60408051601f198184030181529190529150600101612640565b5060006126b28261295a565b949350505050565b60006126c96201518042613f02565b6126d39042613ddf565b905090565b6000816126e4846115d0565b10159392505050565b600083158061270457506127008561162a565b6001145b80156127205750821580612720575061271c8561164d565b6001145b801561273c575081158061273c57506127388561166c565b6001145b95945050505050565b7ff0c57e16840df040f15088dc2f81fe391c3923bec73e23a9662efc9c229c6a0054600160401b900460ff166109b957604051631afcd79f60e31b815260040160405180910390fd5b612796612745565b610a1f81612b2d565b6109b9612745565b60608360006127b68585613ddf565b6001600160401b038111156127cd576127cd61302e565b6040519080825280601f01601f1916602001820160405280156127f7576020820181803683370190505b509050845b8481101561285f5782818151811061281657612816613b7b565b01602001516001600160f81b031916826128308884613ddf565b8151811061284057612840613b7b565b60200101906001600160f81b031916908160001a9053506001016127fc565b5095945050505050565b806001600160a01b03163b60000361289f57604051634c9c8ce360e01b81526001600160a01b0382166004820152602401610a0d565b600080516020613fba83398151915280546001600160a01b0319166001600160a01b0392909216919091179055565b6060600080846001600160a01b0316846040516128eb9190613f24565b600060405180830381855af49150503d8060008114612926576040519150601f19603f3d011682016040523d82523d6000602084013e61292b565b606091505b509150915061273c858383612b5f565b34156109b95760405163b398979f60e01b815260040160405180910390fd5b805160009082906006146129815760405163b337595360e01b815260040160405180910390fd5b603160f81b8160028151811061299957612999613b7b565b01602001516001600160f81b0319161180612a085750806002815181106129c2576129c2613b7b565b6020910101516001600160f81b031916603160f81b148015612a085750601960f91b816003815181106129f7576129f7613b7b565b01602001516001600160f81b031916115b15612a26576040516304bcc4f160e31b815260040160405180910390fd5b603360f81b81600481518110612a3e57612a3e613b7b565b01602001516001600160f81b0319161180612aad575080600481518110612a6757612a67613b7b565b6020910101516001600160f81b031916603360f81b148015612aad5750603160f81b81600581518110612a9c57612a9c613b7b565b01602001516001600160f81b031916115b15612acb57604051638930acef60e01b815260040160405180910390fd5b6000612ae2612add85600060026127a7565b612bbb565b612aee906107d0613bbd565b90506000612b02612add86600260046127a7565b90506000612b16612add87600460066127a7565b9050612b23838383612c34565b9695505050505050565b612b35612745565b6001600160a01b038116610a1657604051631e4fbdf760e01b815260006004820152602401610a0d565b606082612b7457612b6f82612e40565b61211d565b8151158015612b8b57506001600160a01b0384163b155b15612bb457604051639996b31560e01b81526001600160a01b0385166004820152602401610a0d565b508061211d565b805160009082908203612bd15750600092915050565b60008060005b8351811015612c2b576030848281518110612bf457612bf4613b7b565b0160200151612c06919060f81c613f40565b60ff16925082612c1783600a613d78565b612c219190613bbd565b9150600101612bd7565b50949350505050565b6000806107b2851080612c48575061083485115b15612c66576040516305bd032560e21b815260040160405180910390fd5b6001841080612c755750600c84115b15612c93576040516304bcc4f160e31b815260040160405180910390fd5b506107b25b848161ffff161015612cee57612cb18161ffff16612e69565b15612ccb57612cc46301e2850083613bbd565b9150612cdc565b612cd96301e1338083613bbd565b91505b80612ce681613f59565b915050612c98565b612cf6612ff1565b601f8152612d0386612e69565b15612d1457601d6020820152612d1c565b601c60208201525b601f60408201819052601e606083018190526080830182905260a0830181905260c0830182905260e08301829052610100830181905261012083018290526101408301526101608201526001841080612d97575080612d7c600187613ddf565b600c8110612d8c57612d8c613b7b565b602002015160ff1684115b15612db557604051638930acef60e01b815260040160405180910390fd5b600191505b848261ffff161015612e1e5780612dd2600184613f7a565b61ffff16600c8110612de657612de6613b7b565b6020020151612dfb9060ff1662015180613f94565b612e0a9062ffffff1684613bbd565b925081612e1681613f59565b925050612dba565b612e29600185613ddf565b612e369062015180613d78565b612b239084613bbd565b805115612e505780518082602001fd5b60405163d6bda27560e01b815260040160405180910390fd5b60006107b2821080612e7c575061083482115b15612e9a576040516305bd032560e21b815260040160405180910390fd5b612ea5600483613f02565b15612eb257506000919050565b612ebd606483613f02565b15612eca57506001919050565b612ed661019083613f02565b15612ee357506000919050565b506001919050565b60405180610160016040528060608152602001606081526020016060815260200160608152602001606081526020016060815260200160608152602001600081526020016000815260200160008152602001600081525090565b6040518061050001604052806028905b6060815260200190600190039081612f555790505090565b6040518060e001604052806000815260200160008152602001600081526020016000815260200160008152602001612fa3612fd3565b8152602001612fb0613010565b905290565b6040518060c001604052806006906020820280368337509192915050565b60405180606001604052806003906020820280368337509192915050565b604051806101800160405280600c906020820280368337509192915050565b60405180608001604052806004906020820280368337509192915050565b634e487b7160e01b600052604160045260246000fd5b604051608081016001600160401b03811182821017156130665761306661302e565b60405290565b60405160c081016001600160401b03811182821017156130665761306661302e565b604051601f8201601f191681016001600160401b03811182821017156130b6576130b661302e565b604052919050565b600082601f8301126130cf57600080fd5b60006130db604061308e565b90508060408401858111156130ef57600080fd5b845b818110156131095780358352602092830192016130f1565b509195945050505050565b600082601f83011261312557600080fd5b60406131308161308e565b80608085018681111561314257600080fd5b855b818110156131655761315688826130be565b84526020909301928401613144565b50909695505050505050565b600082601f83011261318257600080fd5b600061318e606061308e565b90508060608401858111156130ef57600080fd5b6000808284036101808112156131b757600080fd5b83359250610160601f19820112156131ce57600080fd5b506131d7613044565b6131e485602086016130be565b81526131f38560608601613114565b60208201526132058560e086016130be565b6040820152613218856101208601613171565b6060820152809150509250929050565b80356001600160a01b03811681146108ad57600080fd5b60006020828403121561325157600080fd5b61211d82613228565b6000806040838503121561326d57600080fd5b8235915061327d60208401613228565b90509250929050565b60006001600160401b0382111561329f5761329f61302e565b5060051b60200190565b600080608083850312156132bc57600080fd5b6132c68484613171565b915060608301356001600160401b038111156132e157600080fd5b8301601f810185136132f257600080fd5b803561330561330082613286565b61308e565b8082825260208201915060208360051b85010192508783111561332757600080fd5b6020840193505b82841015613356578335600b811061334557600080fd5b82526020938401939091019061332e565b809450505050509250929050565b60005b8381101561337f578181015183820152602001613367565b50506000910152565b600081518084526133a0816020860160208601613364565b601f01601f19169290920160200192915050565b600082825180855260208501945060208160051b8301016020850160005b8381101561316557601f198584030188526133ee838351613388565b60209889019890935091909101906001016133d2565b60208152600082516101606020840152613422610180840182613388565b90506020840151601f1984830301604085015261343f82826133b4565b9150506040840151601f1984830301606085015261345d8282613388565b9150506060840151601f1984830301608085015261347b8282613388565b9150506080840151601f198483030160a08501526134998282613388565b91505060a0840151601f198483030160c08501526134b78282613388565b91505060c0840151601f198483030160e08501526134d58282613388565b91505060e08401516101008401526101008401516101208401526101208401516101408401526101408401516101608401528091505092915050565b60006020828403121561352357600080fd5b5035919050565b60008082840361016081121561353f57600080fd5b83359250610140601f198201121561355657600080fd5b5061355f613044565b61356c85602086016130be565b815261357b8560608601613114565b602082015261358d8560e086016130be565b60408201526132188561012086016130be565b600080604083850312156135b357600080fd5b6135bc83613228565b915060208301356001600160401b038111156135d757600080fd5b8301601f810185136135e857600080fd5b80356001600160401b038111156136015761360161302e565b613614601f8201601f191660200161308e565b81815286602083850101111561362957600080fd5b816020840160208301376000602083830101528093505050509250929050565b600082601f83011261365a57600080fd5b6000613666608061308e565b90508060808401858111156130ef57600080fd5b60006080828403121561368c57600080fd5b61211d8383613649565b6020808252600090610520830190830184835b602881101561310957601f198685030183526136c6848351613388565b935060209283019291909101906001016136a9565b60208152600061211d6020830184613388565b8015158114610a1f57600080fd5b60006103a0828403121561370f57600080fd5b613717613044565b905061372383836130be565b81526137328360408401613114565b60208201526137448360c084016130be565b604082015260008361011f84011261375a578081fd5b806102a06137678161308e565b9150508091506103a084018581111561377f57600080fd5b61010085015b8181101561379d578035845260209384019301613785565b505060608301525092915050565b60006104e08284031280156137bf57600080fd5b5060006137ca61306c565b83356137d5816136ee565b81526020848101359082015260408401356137ef816136ee565b60408201526138018560608601613649565b60608201528460ff850112613814578182fd5b61381e606061308e565b80610140860187811115613830578485fd5b60e0870194505b8085101561385b57843561384a816136ee565b835260209485019490920191613837565b81608085015261386b88826136fc565b60a085015250919695505050505050565b8060005b600381101561389f578151845260209384019390910190600101613880565b50505050565b600061018082019050825182526020830151602083015260408301516040830152606083015160608301526080830151608083015260a08301516138ec60a084018261387c565b5060c0830151610100830160005b60048110156139195782518252602092830192909101906001016138fa565b50505092915050565b600082601f83011261393357600080fd5b813561394161330082613286565b8082825260208201915060208360051b86010192508583111561396357600080fd5b602085015b8381101561285f578035835260209283019201613968565b600082601f83011261399157600080fd5b813561399f61330082613286565b8082825260208201915060208360051b8601019250858311156139c157600080fd5b602085015b8381101561285f576139d781613228565b8352602092830192016139c6565b60008060008060008060c087890312156139fe57600080fd5b613a0787613228565b9550613a1560208801613228565b945060408701356001600160401b03811115613a3057600080fd5b613a3c89828a01613922565b94505060608701356001600160401b03811115613a5857600080fd5b613a6489828a01613980565b93505060808701356001600160401b03811115613a8057600080fd5b613a8c89828a01613922565b92505060a08701356001600160401b03811115613aa857600080fd5b613ab489828a01613980565b9150509295509295509295565b60008083601f840112613ad357600080fd5b5081356001600160401b03811115613aea57600080fd5b6020830191508360208260051b8501011115613b0557600080fd5b9250929050565b60008060008060408587031215613b2257600080fd5b84356001600160401b03811115613b3857600080fd5b613b4487828801613ac1565b90955093505060208501356001600160401b03811115613b6357600080fd5b613b6f87828801613ac1565b95989497509550505050565b634e487b7160e01b600052603260045260246000fd5b634e487b7160e01b600052602160045260246000fd5b634e487b7160e01b600052601160045260246000fd5b8082018082111561088357610883613ba7565b600081518084526020840193506020830160005b82811015613c02578151865260209586019590910190600101613be4565b5093949350505050565b600081518084526020840193506020830160005b82811015613c025781516001600160a01b0316865260209586019590910190600101613c20565b6001600160a01b0387811682528616602082015260c060408201819052600090613c7390830187613bd0565b8281036060840152613c858187613c0c565b90508281036080840152613c998186613bd0565b905082810360a0840152613cad8185613c0c565b9998505050505050505050565b600060208284031215613ccc57600080fd5b815161211d816136ee565b8060005b600281101561389f578151845260209384019390910190600101613cdb565b8060005b600281101561389f57613d12848351613cd7565b6040939093019260209190910190600101613cfe565b6101608101613d378287613cd7565b613d446040830186613cfa565b613d5160c0830185613cd7565b61273c61010083018461387c565b600060018201613d7157613d71613ba7565b5060010190565b808202811582820484141761088357610883613ba7565b6101408101613d9e8287613cd7565b613dab6040830186613cfa565b613db860c0830185613cd7565b61273c610100830184613cd7565b600060208284031215613dd857600080fd5b5051919050565b8181038181111561088357610883613ba7565b6103a08101613e018287613cd7565b613e0e6040830186613cfa565b613e1b60c0830185613cd7565b61010082018360005b6015811015613e43578151835260209283019290910190600101613e24565b50505095945050505050565b60008351613e61818460208801613364565b6001600160f81b0319939093169190920190815260010192915050565b60008251613e90818460208701613364565b600160fd1b920191825250600101919050565b60008451613eb5818460208901613364565b602d60f81b9083019081528451613ed3816001840160208901613364565b602d60f81b600192909101918201528351613ef5816002840160208801613364565b0160020195945050505050565b600082613f1f57634e487b7160e01b600052601260045260246000fd5b500690565b60008251613f36818460208701613364565b9190910192915050565b60ff828116828216039081111561088357610883613ba7565b600061ffff821661ffff8103613f7157613f71613ba7565b60010192915050565b61ffff828116828216039081111561088357610883613ba7565b62ffffff8181168382160290811690818114613fb257613fb2613ba7565b509291505056fe360894a13ba1a3210667c828492db98dca3e2076cc3735a920a3ca505d382bbc30644e72e131a029b85045b68181585d2833e84879b9709143e1f593f0000001a164736f6c634300081c000a",
  "linkReferences": {},
  "deployedLinkReferences": {}
}