{
  "_format": "hh-sol-artifact-1",
  "contractName": "Verifier_vc_and_disclose",
  "sourceName": "contracts/verifiers/disclose/Verifier_vc_and_disclose.sol",
  "abi": [
    {
      "inputs": [
        {
          "internalType": "uint256[2]",
          "name": "_pA",
          "type": "uint256[2]"
        },
        {
          "internalType": "uint256[2][2]",
          "name": "_pB",
          "type": "uint256[2][2]"
        },
        {
          "internalType": "uint256[2]",
          "name": "_pC",
          "type": "uint256[2]"
        },
        {
          "internalType": "uint256[21]",
          "name": "_pubSignals",
          "type": "uint256[21]"
        }
      ],
      "name": "verifyProof",
      "outputs": [
        {
          "internalType": "bool",
          "name": "",
          "type": "bool"
        }
      ],
      "stateMutability": "view",
      "type": "function"
    }
  ],
  "bytecode": "0x6080604052348015600f57600080fd5b50610c948061001f6000396000f3fe608060405234801561001057600080fd5b506004361061002b5760003560e01c80635debc07e14610030575b600080fd5b61004361003e366004610c20565b610057565b604051901515815260200160405180910390f35b6000610ac7565b7f30644e72e131a029b85045b68181585d2833e84879b9709143e1f593f0000001811061008f576000805260206000f35b50565b600060405183815284602082015285604082015260408160608360076107d05a03fa9150816100c5576000805260206000f35b825160408201526020830151606082015260408360808360066107d05a03fa915050806100f6576000805260206000f35b5050505050565b7f0c7b6a3660fffedea810d100419840ffe9877ea02d702ec987536d9caa871b7185527f2a9c819e1bbc23a9574066d043d0a61acbbdeb0b37c868954d8b783f5bc5ccb660208601526000608086018661019a87357f0f7ac1f8b45edfc6d6ebe3f65055215b3f79db84a88dd93b4bb1cff0975d22f27f03f971e96bfbfbf32c462ebd7f36de750b270e82e7857a043ab7a6929224466084610092565b6101ea60208801357f2f11ee27dbdc6294075d9d0f0ee77469f7d1de9b607f00ee49a0f2c7711bf1027f23b56c9d9c7d362c0be2843972a84debcc32c1e777dd823e91ea5ec3c45277e884610092565b61023a60408801357f25d1c2e0654ffd7bb011575bf431ad1896ea12a8ebf568ce94978281f9153b927f1e0e1ad90e3f1a41482b90d4fce214c589d5fc470ab5fc0b785629df9bfff92584610092565b61028a60608801357f1d9abd8abdc52c3ed53debf8f9e59b398c43137057c83f4149372936f114d5587f174dbf2b1aad5a81f642e6dec0ac45e0ea98f76c4f08f0f64479b90850fec20f84610092565b6102da60808801357f0a3001bb49ab5649dbe3f074f51b318894a51f129f7d44059d43c701fb0d5f0a7f1f0ec195df25809520d3a7a22b7b98fa50c81ccf3889041bf3701bd20e83dd1084610092565b61032a60a08801357f0b5293f3c91009653796620495aea86ae0457b062d27caee77c22f4501ca17dc7f012e02950a019c09e8cae185126c463b1604ba63789b181615d679e946cffca384610092565b61037a60c08801357f21f72700c3ce7e1da2c8194da49747f3c70069f7f8fe8268b9fb66f7837010ed7f2e51bcfe0397299fa16ae452b3b4ccd90849027a276ccb154cebdf81fa1e7b3984610092565b6103ca60e08801357f1dff400ef09acb5e398b98839eff95e9ef7379f8080f71f9cd9d50b11b1324c97f2ebd974d354ba69299f96c7d110d875bb0a328304aeb4ddb2081b906f00241f084610092565b61041b6101008801357f1d0336f69ed5e3db622473df73cb5bf205c4cc8bd9d225e0225feb558b71740f7f1aaf99125b3fed9ea702c5ab59c1d1bd0d4ef0092984e6338433e1a12d35c97184610092565b61046c6101208801357f08d8ff3bf5c4211d20a7f7632e7137ab2a01a3ee6e1b569c8bf3175424ad27207f06f9b0f7a44af82885651d3b7d67c1952b70dc195b0198ece2057187d141a4eb84610092565b6104bd6101408801357f19f7f659f57468ea191ad526a211c8facf37c0fc8ccf5d646012d95030023d827f199a82b7d26d48252f4e74affdc9f7cf2fb82088a2d8c70866273499668d4d0e84610092565b61050e6101608801357f1f5268fbdc743cc3302b821568b4605a51ceb5d009093aa1dbd03b5059c1a2b37f065ea0ba462fa6d53bf11d684ff325d100b5c8b2e726612289bdfc24af15e60e84610092565b61055f6101808801357f20bfd93e3fa23b5608b628db05764df4bb4a69e7612173e72b54e5df72b800d77f29bfa0e5d343f5c30fae7917a2a1eb9b5f7471460e31c72e75b343d16b3cfa6084610092565b6105b06101a08801357f12a2c88f97d727de2046d299b6c49da5ac6cc5f296a518ac957664b2585583707f0e8a8a0901fe0b5ad095a0c7933cac462d14255da1869cc0c9e7ace0f94cd9fe84610092565b6106016101c08801357f2be19b003ca7b6ed568b8b90fbb03851143f59998d562e92f5522feb1ce2da0a7f243360d901f4cf9314f474827cd16c961e31921a92002a845be926215d93ff9084610092565b6106526101e08801357f24fc96fd009bf036d874076e234bfdecf2265573fcdbfa0eab9bd5008e034fac7f0bdec8c125709c319330fea6fae7a62fb322f12db7b91ef8593e021c3d7d45cf84610092565b6106a36102008801357f1f7fcb69c627b84e00c4a04aafd76219736f054c61ea9152180da4c3d5315ab57f206395dc701c83864ececc403425044d239d028f8608e926065d0807f90091d084610092565b6106f46102208801357f2c411750dd602d5480c51c4bb27c950557f69c9951b31f1cbf3e91801f85dea57f1a509e0df5e492a8da41c08e2cf259485f477e02498a689849aeeec0239d76ec84610092565b6107456102408801357f2dda1b3b4ec37d4e96af06b6c50c11ca9c629fd59212164e1eba22de3232e36c7f1e34964a30d48210d3452cca93cf07dd552184697cff4093b6fdf36b2877b7f684610092565b6107966102608801357f0a0a2274eb9255311e8d0a8589822697a18c6cabead6162fb224e187789ca3c87f19f6844eadd893a3e81ebd83fdc81a8a8e9e5000102a6f6a010507a99d90f4f884610092565b6107e76102808801357f1bd338ad9253cebe7c1e924e5b90aee30ea4665dfe0db5b5821c5e68bd2725547f1962e4cebb6cf097414cae000a90d1be7cac768b4c69e2622b1ec32e7ec9f5cf84610092565b50823581527f30644e72e131a029b85045b68181585d97816a916871ca8d3c208c16d87cfd4760208401357f30644e72e131a029b85045b68181585d97816a916871ca8d3c208c16d87cfd4703066020820152833560408201526020840135606082015260408401356080820152606084013560a08201527f245229d9b076b3c0e8a4d70bde8c1cccffa08a9fae7557b165b3b0dbd653e2c760c08201527f253ec85988dbb84e46e94b5efa3373b47a000b4ac6c86b2d4b798d274a18230260e08201527f07090a82e8fabbd39299be24705b92cf208ee8b3487f6f2b39ff27978a29a1db6101008201527f2424bcc1f60a5472685fd50705b2809626e170120acaf441e133a2bd5e61d2446101208201527f0ae1135cffdaf227c5dc266740607aa930bc3bd92ddc2b135086d9da2dfd3e2a6101408201527f2b86859fd3d55c9d150fb3f0aeba798826493dd73d357ab0f9fdaced9fc81829610160820152600087015161018082015260206000018701516101a08201527f198e9393920d483a7260bfb731fb5d25f1aa493335a9e71297e485b7aef312c26101c08201527f1800deef121f1e76426a00665e5c4479674322d4f75edadd46debd5cd992f6ed6101e08201527f090689d0585ff075ec9e99ad690c3395bc4b313370b38ef355acdadcd122975b6102008201527f12c85ea5db8c6deb4aab71808dcb408fe3d1e7690c43d37b4ce6cc0166fa7daa610220820152843561024082015260208501356102608201527f094dc7dd033b0e65adb3353cc4eb1a4b57e24feec3dfbbbb09582969a37121ca6102808201527f0ba767e9c428d635a11b16b404a8b468f093dcac01892c5334d12e2ab74dbfa66102a08201527f190b12c1476bbfb8d9177993523ca6d9aeb85db0f09e2651bd801a7ece5520d56102c08201527f1622c393bfa6da47e4a94ecc6a82785822dff1f0a472af922d5786b2fcb307c16102e08201526020816103008360086107d05a03fa9051169695505050505050565b6040516103808101604052610adf600084013561005e565b610aec602084013561005e565b610af9604084013561005e565b610b06606084013561005e565b610b13608084013561005e565b610b2060a084013561005e565b610b2d60c084013561005e565b610b3a60e084013561005e565b610b4861010084013561005e565b610b5661012084013561005e565b610b6461014084013561005e565b610b7261016084013561005e565b610b8061018084013561005e565b610b8e6101a084013561005e565b610b9c6101c084013561005e565b610baa6101e084013561005e565b610bb861020084013561005e565b610bc661022084013561005e565b610bd461024084013561005e565b610be261026084013561005e565b610bf061028084013561005e565b610bfd818486888a6100fd565b90508060005260206000f35b8060408101831015610c1a57600080fd5b92915050565b6000806000806103a08587031215610c3757600080fd5b610c418686610c09565b935060c0850186811115610c5457600080fd5b604086019350610c648782610c09565b925050856103a086011115610c7857600080fd5b5091949093509091610100019056fea164736f6c634300081c000a",
  "linkReferences": {},
  "deployedLinkReferences": {}
}