{
  "_format": "hh-sol-artifact-1",
  "contractName": "ProofOfBaguette",
  "sourceName": "contracts/ProofOfBaguette.sol",
  "abi": [
    {
      "inputs": [
        {
          "internalType": "contract Verifier",
          "name": "v",
          "type": "address"
        }
      ],
      "stateMutability": "nonpayable",
      "type": "constructor"
    },
    {
      "anonymous": false,
      "inputs": [
        {
          "indexed": true,
          "internalType": "address",
          "name": "owner",
          "type": "address"
        },
        {
          "indexed": true,
          "internalType": "address",
          "name": "approved",
          "type": "address"
        },
        {
          "indexed": true,
          "internalType": "uint256",
          "name": "tokenId",
          "type": "uint256"
        }
      ],
      "name": "Approval",
      "type": "event"
    },
    {
      "anonymous": false,
      "inputs": [
        {
          "indexed": true,
          "internalType": "address",
          "name": "owner",
          "type": "address"
        },
        {
          "indexed": true,
          "internalType": "address",
          "name": "operator",
          "type": "address"
        },
        {
          "indexed": false,
          "internalType": "bool",
          "name": "approved",
          "type": "bool"
        }
      ],
      "name": "ApprovalForAll",
      "type": "event"
    },
    {
      "anonymous": false,
      "inputs": [
        {
          "indexed": true,
          "internalType": "address",
          "name": "previousOwner",
          "type": "address"
        },
        {
          "indexed": true,
          "internalType": "address",
          "name": "newOwner",
          "type": "address"
        }
      ],
      "name": "OwnershipTransferred",
      "type": "event"
    },
    {
      "anonymous": false,
      "inputs": [
        {
          "indexed": true,
          "internalType": "address",
          "name": "from",
          "type": "address"
        },
        {
          "indexed": true,
          "internalType": "address",
          "name": "to",
          "type": "address"
        },
        {
          "indexed": true,
          "internalType": "uint256",
          "name": "tokenId",
          "type": "uint256"
        }
      ],
      "name": "Transfer",
      "type": "event"
    },
    {
      "inputs": [
        {
          "internalType": "address",
          "name": "to",
          "type": "address"
        },
        {
          "internalType": "uint256",
          "name": "tokenId",
          "type": "uint256"
        }
      ],
      "name": "approve",
      "outputs": [],
      "stateMutability": "nonpayable",
      "type": "function"
    },
    {
      "inputs": [
        {
          "internalType": "address",
          "name": "owner",
          "type": "address"
        }
      ],
      "name": "balanceOf",
      "outputs": [
        {
          "internalType": "uint256",
          "name": "",
          "type": "uint256"
        }
      ],
      "stateMutability": "view",
      "type": "function"
    },
    {
      "inputs": [],
      "name": "cscaPubkey",
      "outputs": [
        {
          "internalType": "address",
          "name": "",
          "type": "address"
        }
      ],
      "stateMutability": "view",
      "type": "function"
    },
    {
      "inputs": [
        {
          "internalType": "uint256",
          "name": "tokenId",
          "type": "uint256"
        }
      ],
      "name": "getApproved",
      "outputs": [
        {
          "internalType": "address",
          "name": "",
          "type": "address"
        }
      ],
      "stateMutability": "view",
      "type": "function"
    },
    {
      "inputs": [
        {
          "internalType": "address",
          "name": "owner",
          "type": "address"
        },
        {
          "internalType": "address",
          "name": "operator",
          "type": "address"
        }
      ],
      "name": "isApprovedForAll",
      "outputs": [
        {
          "internalType": "bool",
          "name": "",
          "type": "bool"
        }
      ],
      "stateMutability": "view",
      "type": "function"
    },
    {
      "inputs": [
        {
          "internalType": "uint256[2]",
          "name": "a",
          "type": "uint256[2]"
        },
        {
          "internalType": "uint256[2][2]",
          "name": "b",
          "type": "uint256[2][2]"
        },
        {
          "internalType": "uint256[2]",
          "name": "c",
          "type": "uint256[2]"
        },
        {
          "internalType": "uint256[97]",
          "name": "inputs",
          "type": "uint256[97]"
        }
      ],
      "name": "mint",
      "outputs": [],
      "stateMutability": "nonpayable",
      "type": "function"
    },
    {
      "inputs": [],
      "name": "name",
      "outputs": [
        {
          "internalType": "string",
          "name": "",
          "type": "string"
        }
      ],
      "stateMutability": "view",
      "type": "function"
    },
    {
      "inputs": [],
      "name": "owner",
      "outputs": [
        {
          "internalType": "address",
          "name": "",
          "type": "address"
        }
      ],
      "stateMutability": "view",
      "type": "function"
    },
    {
      "inputs": [
        {
          "internalType": "uint256",
          "name": "tokenId",
          "type": "uint256"
        }
      ],
      "name": "ownerOf",
      "outputs": [
        {
          "internalType": "address",
          "name": "",
          "type": "address"
        }
      ],
      "stateMutability": "view",
      "type": "function"
    },
    {
      "inputs": [],
      "name": "renounceOwnership",
      "outputs": [],
      "stateMutability": "nonpayable",
      "type": "function"
    },
    {
      "inputs": [
        {
          "internalType": "address",
          "name": "from",
          "type": "address"
        },
        {
          "internalType": "address",
          "name": "to",
          "type": "address"
        },
        {
          "internalType": "uint256",
          "name": "tokenId",
          "type": "uint256"
        }
      ],
      "name": "safeTransferFrom",
      "outputs": [],
      "stateMutability": "nonpayable",
      "type": "function"
    },
    {
      "inputs": [
        {
          "internalType": "address",
          "name": "from",
          "type": "address"
        },
        {
          "internalType": "address",
          "name": "to",
          "type": "address"
        },
        {
          "internalType": "uint256",
          "name": "tokenId",
          "type": "uint256"
        },
        {
          "internalType": "bytes",
          "name": "data",
          "type": "bytes"
        }
      ],
      "name": "safeTransferFrom",
      "outputs": [],
      "stateMutability": "nonpayable",
      "type": "function"
    },
    {
      "inputs": [
        {
          "internalType": "address",
          "name": "operator",
          "type": "address"
        },
        {
          "internalType": "bool",
          "name": "approved",
          "type": "bool"
        }
      ],
      "name": "setApprovalForAll",
      "outputs": [],
      "stateMutability": "nonpayable",
      "type": "function"
    },
    {
      "inputs": [
        {
          "internalType": "address",
          "name": "_CSCApubKey",
          "type": "address"
        }
      ],
      "name": "setCSCApubKey",
      "outputs": [],
      "stateMutability": "nonpayable",
      "type": "function"
    },
    {
      "inputs": [
        {
          "internalType": "bytes4",
          "name": "interfaceId",
          "type": "bytes4"
        }
      ],
      "name": "supportsInterface",
      "outputs": [
        {
          "internalType": "bool",
          "name": "",
          "type": "bool"
        }
      ],
      "stateMutability": "view",
      "type": "function"
    },
    {
      "inputs": [],
      "name": "symbol",
      "outputs": [
        {
          "internalType": "string",
          "name": "",
          "type": "string"
        }
      ],
      "stateMutability": "view",
      "type": "function"
    },
    {
      "inputs": [
        {
          "internalType": "uint256",
          "name": "index",
          "type": "uint256"
        }
      ],
      "name": "tokenByIndex",
      "outputs": [
        {
          "internalType": "uint256",
          "name": "",
          "type": "uint256"
        }
      ],
      "stateMutability": "view",
      "type": "function"
    },
    {
      "inputs": [],
      "name": "tokenCounter",
      "outputs": [
        {
          "internalType": "uint256",
          "name": "_value",
          "type": "uint256"
        }
      ],
      "stateMutability": "view",
      "type": "function"
    },
    {
      "inputs": [
        {
          "internalType": "address",
          "name": "owner",
          "type": "address"
        },
        {
          "internalType": "uint256",
          "name": "index",
          "type": "uint256"
        }
      ],
      "name": "tokenOfOwnerByIndex",
      "outputs": [
        {
          "internalType": "uint256",
          "name": "",
          "type": "uint256"
        }
      ],
      "stateMutability": "view",
      "type": "function"
    },
    {
      "inputs": [
        {
          "internalType": "uint256",
          "name": "tokenId",
          "type": "uint256"
        }
      ],
      "name": "tokenURI",
      "outputs": [
        {
          "internalType": "string",
          "name": "",
          "type": "string"
        }
      ],
      "stateMutability": "view",
      "type": "function"
    },
    {
      "inputs": [],
      "name": "totalSupply",
      "outputs": [
        {
          "internalType": "uint256",
          "name": "",
          "type": "uint256"
        }
      ],
      "stateMutability": "view",
      "type": "function"
    },
    {
      "inputs": [
        {
          "internalType": "address",
          "name": "from",
          "type": "address"
        },
        {
          "internalType": "address",
          "name": "to",
          "type": "address"
        },
        {
          "internalType": "uint256",
          "name": "tokenId",
          "type": "uint256"
        }
      ],
      "name": "transferFrom",
      "outputs": [],
      "stateMutability": "nonpayable",
      "type": "function"
    },
    {
      "inputs": [
        {
          "internalType": "address",
          "name": "newOwner",
          "type": "address"
        }
      ],
      "name": "transferOwnership",
      "outputs": [],
      "stateMutability": "nonpayable",
      "type": "function"
    },
    {
      "inputs": [],
      "name": "verifier",
      "outputs": [
        {
          "internalType": "contract Verifier",
          "name": "",
          "type": "address"
        }
      ],
      "stateMutability": "view",
      "type": "function"
    }
  ],
  "bytecode": "0x60a06040526000600b60006101000a81548173ffffffffffffffffffffffffffffffffffffffff021916908373ffffffffffffffffffffffffffffffffffffffff1602179055503480156200005357600080fd5b506040516200409e3803806200409e8339818101604052810190620000799190620004d3565b6040518060400160405280600f81526020017f50726f6f664f6650617373706f727400000000000000000000000000000000008152506040518060400160405280600f81526020017f50726f6f664f6650617373706f727400000000000000000000000000000000008152508160009080519060200190620000fd929190620003a5565b50806001908051906020019062000116929190620003a5565b505050620001396200012d6200018560201b60201c565b6200018d60201b60201c565b8073ffffffffffffffffffffffffffffffffffffffff1660808173ffffffffffffffffffffffffffffffffffffffff16815250506200017e336200025360201b60201c565b5062000685565b600033905090565b6000600a60009054906101000a900473ffffffffffffffffffffffffffffffffffffffff16905081600a60006101000a81548173ffffffffffffffffffffffffffffffffffffffff021916908373ffffffffffffffffffffffffffffffffffffffff1602179055508173ffffffffffffffffffffffffffffffffffffffff168173ffffffffffffffffffffffffffffffffffffffff167f8be0079c531659141344cd1fd0a4f28419497f9722a3daafe3b4186f6b6457e060405160405180910390a35050565b62000263620002ea60201b60201c565b600073ffffffffffffffffffffffffffffffffffffffff168173ffffffffffffffffffffffffffffffffffffffff161415620002d6576040517f08c379a0000000000000000000000000000000000000000000000000000000008152600401620002cd906200058c565b60405180910390fd5b620002e7816200018d60201b60201c565b50565b620002fa6200018560201b60201c565b73ffffffffffffffffffffffffffffffffffffffff16620003206200037b60201b60201c565b73ffffffffffffffffffffffffffffffffffffffff161462000379576040517f08c379a00000000000000000000000000000000000000000000000000000000081526004016200037090620005fe565b60405180910390fd5b565b6000600a60009054906101000a900473ffffffffffffffffffffffffffffffffffffffff16905090565b828054620003b3906200064f565b90600052602060002090601f016020900481019282620003d7576000855562000423565b82601f10620003f257805160ff191683800117855562000423565b8280016001018555821562000423579182015b828111156200042257825182559160200191906001019062000405565b5b50905062000432919062000436565b5090565b5b808211156200045157600081600090555060010162000437565b5090565b600080fd5b600073ffffffffffffffffffffffffffffffffffffffff82169050919050565b600062000487826200045a565b9050919050565b60006200049b826200047a565b9050919050565b620004ad816200048e565b8114620004b957600080fd5b50565b600081519050620004cd81620004a2565b92915050565b600060208284031215620004ec57620004eb62000455565b5b6000620004fc84828501620004bc565b91505092915050565b600082825260208201905092915050565b7f4f776e61626c653a206e6577206f776e657220697320746865207a65726f206160008201527f6464726573730000000000000000000000000000000000000000000000000000602082015250565b60006200057460268362000505565b9150620005818262000516565b604082019050919050565b60006020820190508181036000830152620005a78162000565565b9050919050565b7f4f776e61626c653a2063616c6c6572206973206e6f7420746865206f776e6572600082015250565b6000620005e660208362000505565b9150620005f382620005ae565b602082019050919050565b600060208201905081810360008301526200061981620005d7565b9050919050565b7f4e487b7100000000000000000000000000000000000000000000000000000000600052602260045260246000fd5b600060028204905060018216806200066857607f821691505b602082108114156200067f576200067e62000620565b5b50919050565b6080516139f6620006a860003960008181610772015261083b01526139f66000f3fe608060405234801561001057600080fd5b50600436106101585760003560e01c80636352211e116100c3578063b88d4fde1161007c578063b88d4fde146103c5578063c87b56dd146103e1578063d082e38114610411578063e985e9c51461042f578063eba11e051461045f578063f2fde38b1461047d57610158565b80636352211e1461030357806370a0823114610333578063715018a6146103635780638da5cb5b1461036d57806395d89b411461038b578063a22cb465146103a957610158565b80632b7ac3f3116101155780632b7ac3f3146102315780632f745c591461024f5780633723d14a1461027f57806342842e0e1461029b5780634f6ccce7146102b757806354f96d52146102e757610158565b806301ffc9a71461015d57806306fdde031461018d578063081812fc146101ab578063095ea7b3146101db57806318160ddd146101f757806323b872dd14610215575b600080fd5b61017760048036038101906101729190612300565b610499565b6040516101849190612348565b60405180910390f35b610195610513565b6040516101a291906123fc565b60405180910390f35b6101c560048036038101906101c09190612454565b6105a5565b6040516101d291906124c2565b60405180910390f35b6101f560048036038101906101f09190612509565b6105eb565b005b6101ff610703565b60405161020c9190612558565b60405180910390f35b61022f600480360381019061022a9190612573565b610710565b005b610239610770565b6040516102469190612625565b60405180910390f35b61026960048036038101906102649190612509565b610794565b6040516102769190612558565b60405180910390f35b610299600480360381019061029491906128d8565b610839565b005b6102b560048036038101906102b09190612573565b61095c565b005b6102d160048036038101906102cc9190612454565b61097c565b6040516102de9190612558565b60405180910390f35b61030160048036038101906102fc9190612941565b6109ed565b005b61031d60048036038101906103189190612454565b610a39565b60405161032a91906124c2565b60405180910390f35b61034d60048036038101906103489190612941565b610ac0565b60405161035a9190612558565b60405180910390f35b61036b610b78565b005b610375610b8c565b60405161038291906124c2565b60405180910390f35b610393610bb6565b6040516103a091906123fc565b60405180910390f35b6103c360048036038101906103be919061299a565b610c48565b005b6103df60048036038101906103da9190612a8f565b610c5e565b005b6103fb60048036038101906103f69190612454565b610cc0565b60405161040891906123fc565b60405180910390f35b610419610d28565b6040516104269190612558565b60405180910390f35b61044960048036038101906104449190612b12565b610d34565b6040516104569190612348565b60405180910390f35b610467610dc8565b60405161047491906124c2565b60405180910390f35b61049760048036038101906104929190612941565b610dee565b005b60007f780e9d63000000000000000000000000000000000000000000000000000000007bffffffffffffffffffffffffffffffffffffffffffffffffffffffff1916827bffffffffffffffffffffffffffffffffffffffffffffffffffffffff1916148061050c575061050b82610e72565b5b9050919050565b60606000805461052290612b81565b80601f016020809104026020016040519081016040528092919081815260200182805461054e90612b81565b801561059b5780601f106105705761010080835404028352916020019161059b565b820191906000526020600020905b81548152906001019060200180831161057e57829003601f168201915b5050505050905090565b60006105b082610f54565b6004600083815260200190815260200160002060009054906101000a900473ffffffffffffffffffffffffffffffffffffffff169050919050565b60006105f682610a39565b90508073ffffffffffffffffffffffffffffffffffffffff168373ffffffffffffffffffffffffffffffffffffffff161415610667576040517f08c379a000000000000000000000000000000000000000000000000000000000815260040161065e90612c25565b60405180910390fd5b8073ffffffffffffffffffffffffffffffffffffffff16610686610f9f565b73ffffffffffffffffffffffffffffffffffffffff1614806106b557506106b4816106af610f9f565b610d34565b5b6106f4576040517f08c379a00000000000000000000000000000000000000000000000000000000081526004016106eb90612cb7565b60405180910390fd5b6106fe8383610fa7565b505050565b6000600880549050905090565b61072161071b610f9f565b82611060565b610760576040517f08c379a000000000000000000000000000000000000000000000000000000000815260040161075790612d49565b60405180910390fd5b61076b8383836110f5565b505050565b7f000000000000000000000000000000000000000000000000000000000000000081565b600061079f83610ac0565b82106107e0576040517f08c379a00000000000000000000000000000000000000000000000000000000081526004016107d790612ddb565b60405180910390fd5b600660008473ffffffffffffffffffffffffffffffffffffffff1673ffffffffffffffffffffffffffffffffffffffff168152602001908152602001600020600083815260200190815260200160002054905092915050565b7f000000000000000000000000000000000000000000000000000000000000000073ffffffffffffffffffffffffffffffffffffffff1663f7eb493c858585856040518563ffffffff1660e01b81526004016108989493929190613028565b60206040518083038186803b1580156108b057600080fd5b505afa1580156108c4573d6000803e3d6000fd5b505050506040513d601f19601f820116820180604052508101906108e89190613084565b610927576040517f08c379a000000000000000000000000000000000000000000000000000000000815260040161091e906130fd565b60405180910390fd5b60006001610935600c6113ef565b61093f919061314c565b905061094b33826113fd565b610955600c61161b565b5050505050565b61097783838360405180602001604052806000815250610c5e565b505050565b6000610986610703565b82106109c7576040517f08c379a00000000000000000000000000000000000000000000000000000000081526004016109be90613214565b60405180910390fd5b600882815481106109db576109da613234565b5b90600052602060002001549050919050565b6109f5611631565b80600b60006101000a81548173ffffffffffffffffffffffffffffffffffffffff021916908373ffffffffffffffffffffffffffffffffffffffff16021790555050565b600080610a45836116af565b9050600073ffffffffffffffffffffffffffffffffffffffff168173ffffffffffffffffffffffffffffffffffffffff161415610ab7576040517f08c379a0000000000000000000000000000000000000000000000000000000008152600401610aae906132af565b60405180910390fd5b80915050919050565b60008073ffffffffffffffffffffffffffffffffffffffff168273ffffffffffffffffffffffffffffffffffffffff161415610b31576040517f08c379a0000000000000000000000000000000000000000000000000000000008152600401610b2890613341565b60405180910390fd5b600360008373ffffffffffffffffffffffffffffffffffffffff1673ffffffffffffffffffffffffffffffffffffffff168152602001908152602001600020549050919050565b610b80611631565b610b8a60006116ec565b565b6000600a60009054906101000a900473ffffffffffffffffffffffffffffffffffffffff16905090565b606060018054610bc590612b81565b80601f0160208091040260200160405190810160405280929190818152602001828054610bf190612b81565b8015610c3e5780601f10610c1357610100808354040283529160200191610c3e565b820191906000526020600020905b815481529060010190602001808311610c2157829003601f168201915b5050505050905090565b610c5a610c53610f9f565b83836117b2565b5050565b610c6f610c69610f9f565b83611060565b610cae576040517f08c379a0000000000000000000000000000000000000000000000000000000008152600401610ca590612d49565b60405180910390fd5b610cba8484848461191f565b50505050565b6060610ccb82610f54565b6000610cd561197b565b90506000815111610cf55760405180602001604052806000815250610d20565b80610cff84611992565b604051602001610d1092919061339d565b6040516020818303038152906040525b915050919050565b600c8060000154905081565b6000600560008473ffffffffffffffffffffffffffffffffffffffff1673ffffffffffffffffffffffffffffffffffffffff16815260200190815260200160002060008373ffffffffffffffffffffffffffffffffffffffff1673ffffffffffffffffffffffffffffffffffffffff16815260200190815260200160002060009054906101000a900460ff16905092915050565b600b60009054906101000a900473ffffffffffffffffffffffffffffffffffffffff1681565b610df6611631565b600073ffffffffffffffffffffffffffffffffffffffff168173ffffffffffffffffffffffffffffffffffffffff161415610e66576040517f08c379a0000000000000000000000000000000000000000000000000000000008152600401610e5d90613433565b60405180910390fd5b610e6f816116ec565b50565b60007f80ac58cd000000000000000000000000000000000000000000000000000000007bffffffffffffffffffffffffffffffffffffffffffffffffffffffff1916827bffffffffffffffffffffffffffffffffffffffffffffffffffffffff19161480610f3d57507f5b5e139f000000000000000000000000000000000000000000000000000000007bffffffffffffffffffffffffffffffffffffffffffffffffffffffff1916827bffffffffffffffffffffffffffffffffffffffffffffffffffffffff1916145b80610f4d5750610f4c82611a6a565b5b9050919050565b610f5d81611ad4565b610f9c576040517f08c379a0000000000000000000000000000000000000000000000000000000008152600401610f93906132af565b60405180910390fd5b50565b600033905090565b816004600083815260200190815260200160002060006101000a81548173ffffffffffffffffffffffffffffffffffffffff021916908373ffffffffffffffffffffffffffffffffffffffff160217905550808273ffffffffffffffffffffffffffffffffffffffff1661101a83610a39565b73ffffffffffffffffffffffffffffffffffffffff167f8c5be1e5ebec7d5bd14f71427d1e84f3dd0314c0f7b2291e5b200ac8c7c3b92560405160405180910390a45050565b60008061106c83610a39565b90508073ffffffffffffffffffffffffffffffffffffffff168473ffffffffffffffffffffffffffffffffffffffff1614806110ae57506110ad8185610d34565b5b806110ec57508373ffffffffffffffffffffffffffffffffffffffff166110d4846105a5565b73ffffffffffffffffffffffffffffffffffffffff16145b91505092915050565b8273ffffffffffffffffffffffffffffffffffffffff1661111582610a39565b73ffffffffffffffffffffffffffffffffffffffff161461116b576040517f08c379a0000000000000000000000000000000000000000000000000000000008152600401611162906134c5565b60405180910390fd5b600073ffffffffffffffffffffffffffffffffffffffff168273ffffffffffffffffffffffffffffffffffffffff1614156111db576040517f08c379a00000000000000000000000000000000000000000000000000000000081526004016111d290613557565b60405180910390fd5b6111e88383836001611b15565b8273ffffffffffffffffffffffffffffffffffffffff1661120882610a39565b73ffffffffffffffffffffffffffffffffffffffff161461125e576040517f08c379a0000000000000000000000000000000000000000000000000000000008152600401611255906134c5565b60405180910390fd5b6004600082815260200190815260200160002060006101000a81549073ffffffffffffffffffffffffffffffffffffffff02191690556001600360008573ffffffffffffffffffffffffffffffffffffffff1673ffffffffffffffffffffffffffffffffffffffff168152602001908152602001600020600082825403925050819055506001600360008473ffffffffffffffffffffffffffffffffffffffff1673ffffffffffffffffffffffffffffffffffffffff16815260200190815260200160002060008282540192505081905550816002600083815260200190815260200160002060006101000a81548173ffffffffffffffffffffffffffffffffffffffff021916908373ffffffffffffffffffffffffffffffffffffffff160217905550808273ffffffffffffffffffffffffffffffffffffffff168473ffffffffffffffffffffffffffffffffffffffff167fddf252ad1be2c89b69c2b068fc378daa952ba7f163c4a11628f55a4df523b3ef60405160405180910390a46113ea8383836001611c75565b505050565b600081600001549050919050565b600073ffffffffffffffffffffffffffffffffffffffff168273ffffffffffffffffffffffffffffffffffffffff16141561146d576040517f08c379a0000000000000000000000000000000000000000000000000000000008152600401611464906135c3565b60405180910390fd5b61147681611ad4565b156114b6576040517f08c379a00000000000000000000000000000000000000000000000000000000081526004016114ad9061362f565b60405180910390fd5b6114c4600083836001611b15565b6114cd81611ad4565b1561150d576040517f08c379a00000000000000000000000000000000000000000000000000000000081526004016115049061362f565b60405180910390fd5b6001600360008473ffffffffffffffffffffffffffffffffffffffff1673ffffffffffffffffffffffffffffffffffffffff16815260200190815260200160002060008282540192505081905550816002600083815260200190815260200160002060006101000a81548173ffffffffffffffffffffffffffffffffffffffff021916908373ffffffffffffffffffffffffffffffffffffffff160217905550808273ffffffffffffffffffffffffffffffffffffffff16600073ffffffffffffffffffffffffffffffffffffffff167fddf252ad1be2c89b69c2b068fc378daa952ba7f163c4a11628f55a4df523b3ef60405160405180910390a4611617600083836001611c75565b5050565b6001816000016000828254019250508190555050565b611639610f9f565b73ffffffffffffffffffffffffffffffffffffffff16611657610b8c565b73ffffffffffffffffffffffffffffffffffffffff16146116ad576040517f08c379a00000000000000000000000000000000000000000000000000000000081526004016116a49061369b565b60405180910390fd5b565b60006002600083815260200190815260200160002060009054906101000a900473ffffffffffffffffffffffffffffffffffffffff169050919050565b6000600a60009054906101000a900473ffffffffffffffffffffffffffffffffffffffff16905081600a60006101000a81548173ffffffffffffffffffffffffffffffffffffffff021916908373ffffffffffffffffffffffffffffffffffffffff1602179055508173ffffffffffffffffffffffffffffffffffffffff168173ffffffffffffffffffffffffffffffffffffffff167f8be0079c531659141344cd1fd0a4f28419497f9722a3daafe3b4186f6b6457e060405160405180910390a35050565b8173ffffffffffffffffffffffffffffffffffffffff168373ffffffffffffffffffffffffffffffffffffffff161415611821576040517f08c379a000000000000000000000000000000000000000000000000000000000815260040161181890613707565b60405180910390fd5b80600560008573ffffffffffffffffffffffffffffffffffffffff1673ffffffffffffffffffffffffffffffffffffffff16815260200190815260200160002060008473ffffffffffffffffffffffffffffffffffffffff1673ffffffffffffffffffffffffffffffffffffffff16815260200190815260200160002060006101000a81548160ff0219169083151502179055508173ffffffffffffffffffffffffffffffffffffffff168373ffffffffffffffffffffffffffffffffffffffff167f17307eab39ab6107e8899845ad3d59bd9653f200f220920489ca2b5937696c31836040516119129190612348565b60405180910390a3505050565b61192a8484846110f5565b61193684848484611c7b565b611975576040517f08c379a000000000000000000000000000000000000000000000000000000000815260040161196c90613799565b60405180910390fd5b50505050565b606060405180602001604052806000815250905090565b6060600060016119a184611e12565b01905060008167ffffffffffffffff8111156119c0576119bf612645565b5b6040519080825280601f01601f1916602001820160405280156119f25781602001600182028036833780820191505090505b509050600082602001820190505b600115611a5f578080600190039150507f3031323334353637383961626364656600000000000000000000000000000000600a86061a8153600a8581611a4957611a486137b9565b5b0494506000851415611a5a57611a5f565b611a00565b819350505050919050565b60007f01ffc9a7000000000000000000000000000000000000000000000000000000007bffffffffffffffffffffffffffffffffffffffffffffffffffffffff1916827bffffffffffffffffffffffffffffffffffffffffffffffffffffffff1916149050919050565b60008073ffffffffffffffffffffffffffffffffffffffff16611af6836116af565b73ffffffffffffffffffffffffffffffffffffffff1614159050919050565b611b2184848484611f65565b6001811115611b65576040517f08c379a0000000000000000000000000000000000000000000000000000000008152600401611b5c9061385a565b60405180910390fd5b6000829050600073ffffffffffffffffffffffffffffffffffffffff168573ffffffffffffffffffffffffffffffffffffffff161415611bad57611ba881611f6b565b611bec565b8373ffffffffffffffffffffffffffffffffffffffff168573ffffffffffffffffffffffffffffffffffffffff1614611beb57611bea8582611fb4565b5b5b600073ffffffffffffffffffffffffffffffffffffffff168473ffffffffffffffffffffffffffffffffffffffff161415611c2f57611c2a81612121565b611c6e565b8473ffffffffffffffffffffffffffffffffffffffff168473ffffffffffffffffffffffffffffffffffffffff1614611c6d57611c6c84826121f2565b5b5b5050505050565b50505050565b6000611c9c8473ffffffffffffffffffffffffffffffffffffffff16612271565b15611e05578373ffffffffffffffffffffffffffffffffffffffff1663150b7a02611cc5610f9f565b8786866040518563ffffffff1660e01b8152600401611ce794939291906138cf565b602060405180830381600087803b158015611d0157600080fd5b505af1925050508015611d3257506040513d601f19601f82011682018060405250810190611d2f9190613930565b60015b611db5573d8060008114611d62576040519150601f19603f3d011682016040523d82523d6000602084013e611d67565b606091505b50600081511415611dad576040517f08c379a0000000000000000000000000000000000000000000000000000000008152600401611da490613799565b60405180910390fd5b805181602001fd5b63150b7a0260e01b7bffffffffffffffffffffffffffffffffffffffffffffffffffffffff1916817bffffffffffffffffffffffffffffffffffffffffffffffffffffffff191614915050611e0a565b600190505b949350505050565b600080600090507a184f03e93ff9f4daa797ed6e38ed64bf6a1f0100000000000000008310611e70577a184f03e93ff9f4daa797ed6e38ed64bf6a1f0100000000000000008381611e6657611e656137b9565b5b0492506040810190505b6d04ee2d6d415b85acef81000000008310611ead576d04ee2d6d415b85acef81000000008381611ea357611ea26137b9565b5b0492506020810190505b662386f26fc100008310611edc57662386f26fc100008381611ed257611ed16137b9565b5b0492506010810190505b6305f5e1008310611f05576305f5e1008381611efb57611efa6137b9565b5b0492506008810190505b6127108310611f2a576127108381611f2057611f1f6137b9565b5b0492506004810190505b60648310611f4d5760648381611f4357611f426137b9565b5b0492506002810190505b600a8310611f5c576001810190505b80915050919050565b50505050565b6008805490506009600083815260200190815260200160002081905550600881908060018154018082558091505060019003906000526020600020016000909190919091505550565b60006001611fc184610ac0565b611fcb919061395d565b90506000600760008481526020019081526020016000205490508181146120b0576000600660008673ffffffffffffffffffffffffffffffffffffffff1673ffffffffffffffffffffffffffffffffffffffff168152602001908152602001600020600084815260200190815260200160002054905080600660008773ffffffffffffffffffffffffffffffffffffffff1673ffffffffffffffffffffffffffffffffffffffff168152602001908152602001600020600084815260200190815260200160002081905550816007600083815260200190815260200160002081905550505b6007600084815260200190815260200160002060009055600660008573ffffffffffffffffffffffffffffffffffffffff1673ffffffffffffffffffffffffffffffffffffffff16815260200190815260200160002060008381526020019081526020016000206000905550505050565b60006001600880549050612135919061395d565b905060006009600084815260200190815260200160002054905060006008838154811061216557612164613234565b5b90600052602060002001549050806008838154811061218757612186613234565b5b9060005260206000200181905550816009600083815260200190815260200160002081905550600960008581526020019081526020016000206000905560088054806121d6576121d5613991565b5b6001900381819060005260206000200160009055905550505050565b60006121fd83610ac0565b905081600660008573ffffffffffffffffffffffffffffffffffffffff1673ffffffffffffffffffffffffffffffffffffffff168152602001908152602001600020600083815260200190815260200160002081905550806007600084815260200190815260200160002081905550505050565b6000808273ffffffffffffffffffffffffffffffffffffffff163b119050919050565b6000604051905090565b600080fd5b600080fd5b60007fffffffff0000000000000000000000000000000000000000000000000000000082169050919050565b6122dd816122a8565b81146122e857600080fd5b50565b6000813590506122fa816122d4565b92915050565b6000602082840312156123165761231561229e565b5b6000612324848285016122eb565b91505092915050565b60008115159050919050565b6123428161232d565b82525050565b600060208201905061235d6000830184612339565b92915050565b600081519050919050565b600082825260208201905092915050565b60005b8381101561239d578082015181840152602081019050612382565b838111156123ac576000848401525b50505050565b6000601f19601f8301169050919050565b60006123ce82612363565b6123d8818561236e565b93506123e881856020860161237f565b6123f1816123b2565b840191505092915050565b6000602082019050818103600083015261241681846123c3565b905092915050565b6000819050919050565b6124318161241e565b811461243c57600080fd5b50565b60008135905061244e81612428565b92915050565b60006020828403121561246a5761246961229e565b5b60006124788482850161243f565b91505092915050565b600073ffffffffffffffffffffffffffffffffffffffff82169050919050565b60006124ac82612481565b9050919050565b6124bc816124a1565b82525050565b60006020820190506124d760008301846124b3565b92915050565b6124e6816124a1565b81146124f157600080fd5b50565b600081359050612503816124dd565b92915050565b600080604083850312156125205761251f61229e565b5b600061252e858286016124f4565b925050602061253f8582860161243f565b9150509250929050565b6125528161241e565b82525050565b600060208201905061256d6000830184612549565b92915050565b60008060006060848603121561258c5761258b61229e565b5b600061259a868287016124f4565b93505060206125ab868287016124f4565b92505060406125bc8682870161243f565b9150509250925092565b6000819050919050565b60006125eb6125e66125e184612481565b6125c6565b612481565b9050919050565b60006125fd826125d0565b9050919050565b600061260f826125f2565b9050919050565b61261f81612604565b82525050565b600060208201905061263a6000830184612616565b92915050565b600080fd5b7f4e487b7100000000000000000000000000000000000000000000000000000000600052604160045260246000fd5b61267d826123b2565b810181811067ffffffffffffffff8211171561269c5761269b612645565b5b80604052505050565b60006126af612294565b90506126bb8282612674565b919050565b600067ffffffffffffffff8211156126db576126da612645565b5b602082029050919050565b600080fd5b60006126fe6126f9846126c0565b6126a5565b90508060208402830185811115612718576127176126e6565b5b835b81811015612741578061272d888261243f565b84526020840193505060208101905061271a565b5050509392505050565b600082601f8301126127605761275f612640565b5b600261276d8482856126eb565b91505092915050565b600067ffffffffffffffff82111561279157612790612645565b5b602082029050919050565b60006127af6127aa84612776565b6126a5565b905080604084028301858111156127c9576127c86126e6565b5b835b818110156127f257806127de888261274b565b8452602084019350506040810190506127cb565b5050509392505050565b600082601f83011261281157612810612640565b5b600261281e84828561279c565b91505092915050565b600067ffffffffffffffff82111561284257612841612645565b5b602082029050919050565b600061286061285b84612827565b6126a5565b9050806020840283018581111561287a576128796126e6565b5b835b818110156128a3578061288f888261243f565b84526020840193505060208101905061287c565b5050509392505050565b600082601f8301126128c2576128c1612640565b5b60616128cf84828561284d565b91505092915050565b600080600080610d2085870312156128f3576128f261229e565b5b60006129018782880161274b565b9450506040612912878288016127fc565b93505060c06129238782880161274b565b925050610100612935878288016128ad565b91505092959194509250565b6000602082840312156129575761295661229e565b5b6000612965848285016124f4565b91505092915050565b6129778161232d565b811461298257600080fd5b50565b6000813590506129948161296e565b92915050565b600080604083850312156129b1576129b061229e565b5b60006129bf858286016124f4565b92505060206129d085828601612985565b9150509250929050565b600080fd5b600067ffffffffffffffff8211156129fa576129f9612645565b5b612a03826123b2565b9050602081019050919050565b82818337600083830152505050565b6000612a32612a2d846129df565b6126a5565b905082815260208101848484011115612a4e57612a4d6129da565b5b612a59848285612a10565b509392505050565b600082601f830112612a7657612a75612640565b5b8135612a86848260208601612a1f565b91505092915050565b60008060008060808587031215612aa957612aa861229e565b5b6000612ab7878288016124f4565b9450506020612ac8878288016124f4565b9350506040612ad98782880161243f565b925050606085013567ffffffffffffffff811115612afa57612af96122a3565b5b612b0687828801612a61565b91505092959194509250565b60008060408385031215612b2957612b2861229e565b5b6000612b37858286016124f4565b9250506020612b48858286016124f4565b9150509250929050565b7f4e487b7100000000000000000000000000000000000000000000000000000000600052602260045260246000fd5b60006002820490506001821680612b9957607f821691505b60208210811415612bad57612bac612b52565b5b50919050565b7f4552433732313a20617070726f76616c20746f2063757272656e74206f776e6560008201527f7200000000000000000000000000000000000000000000000000000000000000602082015250565b6000612c0f60218361236e565b9150612c1a82612bb3565b604082019050919050565b60006020820190508181036000830152612c3e81612c02565b9050919050565b7f4552433732313a20617070726f76652063616c6c6572206973206e6f7420746f60008201527f6b656e206f776e6572206f7220617070726f76656420666f7220616c6c000000602082015250565b6000612ca1603d8361236e565b9150612cac82612c45565b604082019050919050565b60006020820190508181036000830152612cd081612c94565b9050919050565b7f4552433732313a2063616c6c6572206973206e6f7420746f6b656e206f776e6560008201527f72206f7220617070726f76656400000000000000000000000000000000000000602082015250565b6000612d33602d8361236e565b9150612d3e82612cd7565b604082019050919050565b60006020820190508181036000830152612d6281612d26565b9050919050565b7f455243373231456e756d657261626c653a206f776e657220696e646578206f7560008201527f74206f6620626f756e6473000000000000000000000000000000000000000000602082015250565b6000612dc5602b8361236e565b9150612dd082612d69565b604082019050919050565b60006020820190508181036000830152612df481612db8565b9050919050565b600060029050919050565b600081905092915050565b6000819050919050565b612e248161241e565b82525050565b6000612e368383612e1b565b60208301905092915050565b6000602082019050919050565b612e5881612dfb565b612e628184612e06565b9250612e6d82612e11565b8060005b83811015612e9e578151612e858782612e2a565b9650612e9083612e42565b925050600181019050612e71565b505050505050565b600060029050919050565b600081905092915050565b6000819050919050565b600081905092915050565b612eda81612dfb565b612ee48184612ec6565b9250612eef82612e11565b8060005b83811015612f20578151612f078782612e2a565b9650612f1283612e42565b925050600181019050612ef3565b505050505050565b6000612f348383612ed1565b60408301905092915050565b6000602082019050919050565b612f5681612ea6565b612f608184612eb1565b9250612f6b82612ebc565b8060005b83811015612f9c578151612f838782612f28565b9650612f8e83612f40565b925050600181019050612f6f565b505050505050565b600060619050919050565b600081905092915050565b6000819050919050565b6000602082019050919050565b612fda81612fa4565b612fe48184612faf565b9250612fef82612fba565b8060005b838110156130205781516130078782612e2a565b965061301283612fc4565b925050600181019050612ff3565b505050505050565b6000610d208201905061303e6000830187612e4f565b61304b6040830186612f4d565b61305860c0830185612e4f565b613066610100830184612fd1565b95945050505050565b60008151905061307e8161296e565b92915050565b60006020828403121561309a5761309961229e565b5b60006130a88482850161306f565b91505092915050565b7f496e76616c69642050726f6f6600000000000000000000000000000000000000600082015250565b60006130e7600d8361236e565b91506130f2826130b1565b602082019050919050565b60006020820190508181036000830152613116816130da565b9050919050565b7f4e487b7100000000000000000000000000000000000000000000000000000000600052601160045260246000fd5b60006131578261241e565b91506131628361241e565b9250827fffffffffffffffffffffffffffffffffffffffffffffffffffffffffffffffff038211156131975761319661311d565b5b828201905092915050565b7f455243373231456e756d657261626c653a20676c6f62616c20696e646578206f60008201527f7574206f6620626f756e64730000000000000000000000000000000000000000602082015250565b60006131fe602c8361236e565b9150613209826131a2565b604082019050919050565b6000602082019050818103600083015261322d816131f1565b9050919050565b7f4e487b7100000000000000000000000000000000000000000000000000000000600052603260045260246000fd5b7f4552433732313a20696e76616c696420746f6b656e2049440000000000000000600082015250565b600061329960188361236e565b91506132a482613263565b602082019050919050565b600060208201905081810360008301526132c88161328c565b9050919050565b7f4552433732313a2061646472657373207a65726f206973206e6f74206120766160008201527f6c6964206f776e65720000000000000000000000000000000000000000000000602082015250565b600061332b60298361236e565b9150613336826132cf565b604082019050919050565b6000602082019050818103600083015261335a8161331e565b9050919050565b600081905092915050565b600061337782612363565b6133818185613361565b935061339181856020860161237f565b80840191505092915050565b60006133a9828561336c565b91506133b5828461336c565b91508190509392505050565b7f4f776e61626c653a206e6577206f776e657220697320746865207a65726f206160008201527f6464726573730000000000000000000000000000000000000000000000000000602082015250565b600061341d60268361236e565b9150613428826133c1565b604082019050919050565b6000602082019050818103600083015261344c81613410565b9050919050565b7f4552433732313a207472616e736665722066726f6d20696e636f72726563742060008201527f6f776e6572000000000000000000000000000000000000000000000000000000602082015250565b60006134af60258361236e565b91506134ba82613453565b604082019050919050565b600060208201905081810360008301526134de816134a2565b9050919050565b7f4552433732313a207472616e7366657220746f20746865207a65726f2061646460008201527f7265737300000000000000000000000000000000000000000000000000000000602082015250565b600061354160248361236e565b915061354c826134e5565b604082019050919050565b6000602082019050818103600083015261357081613534565b9050919050565b7f4552433732313a206d696e7420746f20746865207a65726f2061646472657373600082015250565b60006135ad60208361236e565b91506135b882613577565b602082019050919050565b600060208201905081810360008301526135dc816135a0565b9050919050565b7f4552433732313a20746f6b656e20616c7265616479206d696e74656400000000600082015250565b6000613619601c8361236e565b9150613624826135e3565b602082019050919050565b600060208201905081810360008301526136488161360c565b9050919050565b7f4f776e61626c653a2063616c6c6572206973206e6f7420746865206f776e6572600082015250565b600061368560208361236e565b91506136908261364f565b602082019050919050565b600060208201905081810360008301526136b481613678565b9050919050565b7f4552433732313a20617070726f766520746f2063616c6c657200000000000000600082015250565b60006136f160198361236e565b91506136fc826136bb565b602082019050919050565b60006020820190508181036000830152613720816136e4565b9050919050565b7f4552433732313a207472616e7366657220746f206e6f6e20455243373231526560008201527f63656976657220696d706c656d656e7465720000000000000000000000000000602082015250565b600061378360328361236e565b915061378e82613727565b604082019050919050565b600060208201905081810360008301526137b281613776565b9050919050565b7f4e487b7100000000000000000000000000000000000000000000000000000000600052601260045260246000fd5b7f455243373231456e756d657261626c653a20636f6e736563757469766520747260008201527f616e7366657273206e6f7420737570706f727465640000000000000000000000602082015250565b600061384460358361236e565b915061384f826137e8565b604082019050919050565b6000602082019050818103600083015261387381613837565b9050919050565b600081519050919050565b600082825260208201905092915050565b60006138a18261387a565b6138ab8185613885565b93506138bb81856020860161237f565b6138c4816123b2565b840191505092915050565b60006080820190506138e460008301876124b3565b6138f160208301866124b3565b6138fe6040830185612549565b81810360608301526139108184613896565b905095945050505050565b60008151905061392a816122d4565b92915050565b6000602082840312156139465761394561229e565b5b60006139548482850161391b565b91505092915050565b60006139688261241e565b91506139738361241e565b9250828210156139865761398561311d565b5b828203905092915050565b7f4e487b7100000000000000000000000000000000000000000000000000000000600052603160045260246000fdfea2646970667358221220558ef0455fe1c6a256816e77d4b5c98034d3271f057076a521fb75aef1558dcb64736f6c63430008090033",
  "linkReferences": {},
  "deployedLinkReferences": {}
}